:100000000C9442070C9461070C9461070C946107EF
:100010000C9461070C9461070C9461070C946107C0
:100020000C9461070C9461070C9461070C946107B0
:100030000C9461070C9461070C9461070C946107A0
:100040000C9461070C9461070C9461070C94610790
:100050000C9461070C9461070C9461070C94610780
:100060000C9461070C9447290C9461070C94610768
:100070000C9461070C9461070C9461070C94610760
:100080000C9461070C9461070C9461070C94610750
:100090000C949A290C9461070C9461070C946107E5
:1000A0000C9461070C9461070C9461070C94610730
:1000B0000C9461070C9461070C9461070C94112C4B
:1000C0000C9461070C9461070C946107C326CC263D
:1000D000CF26D226C526C526D526E526EC26F3262C
:1000E000F726C9264D45343035204C616220342036
:1000F000436F6E74726F6C6C65722050726F6772B2
:10010000616D007C0909202771272020202071754E
:10011000697420746F206D61696E206D656E752045
:1001200020202020202020202020202020200909FD
:100130007C007C0909202772272020202052656638
:100140007265736820746865206461746120202082
:100150002020202020202020202020202009097C71
:10016000007C2D2D2D2D2D2D2D2D2D2D2D2D2D2D9D
:100170002D2D2D2D2D2D2D2D2D2D2D2D2D2D2D2DAF
:100180002D2D2D2D2D2D2D2D2D2D2D2D2D2D2D2D9F
:100190002D2D2D2D2D2D2D2D2D2D2D2D2D2D2D2D8F
:1001A0002D7C007C09092020202020202020456E65
:1001B000636F64657220436F6E74726F6C204D6F55
:1001C00064756C6520202020202020202020090933
:1001D0007C004D45343035204C616220342044721F
:1001E0006976657220496E746567726174696F6EB5
:1001F000004D61792031312032303136005379732E
:1002000074656D2074696D653A20002C2048656125
:10021000703A20002C204F435235413A20003C696F
:100220006E76616C69642063686172202200223EF0
:10023000002020683A202020202048414C502100F6
:10024000202043746C2D433A2052657365742074EA
:100250006865204156520020206E3A202020202040
:10026000456E7465722061206E756D62657220281E
:1002700064656D6F29002020643A202020202053DF
:100280007461636B2064756D7020666F7220746199
:10029000736B73002020733A202020202056657253
:1002A00073696F6E20616E64207365747570206968
:1002B0006E666F726D6174696F6E002020743A20F3
:1002C0002020202053686F77207468652074696D42
:1002D00065207269676874206E6F77004D45343011
:1002E00035204C6162203420447269766572204961
:1002F0006E746567726174696F6E002068656C70FA
:10030000004D6F746F72203209090009000909005D
:100310002D2D2D2D2D2D2D09092D2D2D2D2D2D2D55
:100320002D092D2D2D2D2D2D2D09092D2D2D2D2D69
:100330002D2D2D2D2D2D004D6F746F7209095374C5
:10034000617475730909506F7765720909446972A0
:10035000656374696F6E002D2D2D2D2D2D2D0909CE
:100360002D2D2D2D2D2D2D2D092D2D2D2D2D2D2DE1
:1003700009092D2D2D2D2D2D2D2D2D2D2D004D6FC0
:10038000746F72203109090009000909007C09090C
:1003900020277127202020202052657475726E203E
:1003A000746F2070726576696F7573206D656E75F8
:1003B0002009097C007C09092027702720202020A3
:1003C00020456E74657220506F74656E74696F6D30
:1003D00065746572204D6F646509097C007C0909AC
:1003E00020276627202020202046726565776865D3
:1003F000656C206D6F746F722020202020202020DB
:100400002009097C007C0909202762272020202060
:10041000204170706C7920746865206D6F746F7204
:10042000206272616B6520202009097C007C09092B
:1004300020277327202020202053657420746865AE
:10044000206D6F746F7220706F776572202020208E
:100450002009097C007C2D2D2D2D2D2D2D2D2D2DB0
:100460002D2D2D2D2D2D2D2D2D2D2D2D2D2D2D2DBC
:100470002D2D2D2D2D2D2D2D2D2D2D2D2D2D2D2DAC
:100480002D2D2D2D2D2D2D2D2D2D2D2D2D2D2D2D9C
:100490002D2D2D2D2D7C007C090920202053696EE7
:1004A000676C65204D6F746F7220436F6E74726F4E
:1004B0006C204D6F64756C6520202009097C007CE0
:1004C0000909202020204D61696E204D6F746F72E4
:1004D00020436F6E74726F6C204D6F64756C652075
:1004E00020202009097C007C2D2D2D2D2D2D2D2D3A
:1004F0002D2D2D2D2D2D2D2D2D2D2D2D2D2D2D2D2C
:100500002D2D2D2D2D2D2D2D2D2D2D2D2D2D2D2D1B
:100510002D2D2D2D2D2D2D2D2D2D2D2D2D2D2D2D0B
:100520002D2D2D2D2D2D2D7C007C090920273127E7
:100530002020202020746F206F7065726174652008
:100540004D6F746F72203120202020202009097CFB
:10055000007C0909202732272020202020746F20CA
:100560006F706572617465204D6F746F72203220F8
:10057000202020202009097C007C090920277127E0
:10058000202020202052657475726E20746F204DDB
:1005900061696E204D656E75202020202009097C40
:1005A000004D45343035204C61622034204472695E
:1005B00076657220496E746567726174696F6E004A
:1005C00009090920202020004D6179203131203295
:1005D000303136007C0909202020204D6973736971
:1005E0006F6E20436F6E74726F6C2050726F677203
:1005F000616D2076312E302020202009097C007C7E
:100600002D2D2D2D2D2D2D2D2D2D2D2D2D2D2D2D1A
:100610002D2D2D2D2D2D2D2D2D2D2D2D2D2D2D2D0A
:100620002D2D2D2D2D2D2D2D2D2D2D2D2D2D2D2DFA
:100630002D2D2D2D2D2D2D2D2D2D2D2D2D2D2D7C9B
:10064000007C090920276D272020202020456E747A
:100650006572204D6F746F7220436F6E74726F6C91
:10066000204D6F64756C6520202009097C007C0991
:1006700009202765272020202020456E74657220E0
:10068000456E636F64657220436F6E74726F6C2089
:100690004D6F64756C652009097C007C0909202771
:1006A00068272020202020446973706C61792061C4
:1006B0006C6C206F7074696F6E7320202020202076
:1006C0002020202009097C007C0909202743746C24
:1006D0002D432720526573657420415652202020F7
:1006E000202020202020202020202020202020200A
:1006F0002009097C00496C6C6567616C207374612A
:1007000074652120526573657474696E6720415663
:100710005200546869732044656D6F2068617320CE
:100720006265656E2064697361626C65642E205336
:100730006F72727900092D3E52657475726E696E22
:100740006720746F206D61696E2E2E0009092D3EA1
:100750002070726573732027722720746F20726572
:10076000667265736820004552524F5220436F7580
:100770006E743A20004552524F5220537461746592
:100780003A200053746174653A20004572726F72AA
:1007900020436F756E743A2000456E636F64657216
:1007A00020436F756E74202F207365633A200045D7
:1007B0006E636F64657220436F756E743A20002D0E
:1007C0003E53656C65637465643A2000092D3E52A2
:1007D000657475726E696E6720746F204D697373EE
:1007E000696F6E20436F6E74726F6C2E2E2000093D
:1007F0002D3E52656C656173696E6720456E636F4F
:100800006465722E2E00092D3E5072657373202789
:10081000712720746F2072657475726E20746F205A
:10082000746865204D6F746F72200020436F6E7482
:10083000726F6C00092D3E5072657373202772270A
:1008400020746F2072656672657368207468652015
:1008500044617368426F61726420002D3E53656C81
:1008600065637465643A20002D3E53656C6563745E
:1008700065643A20002D3E43686F6F7365204D6FAD
:10088000746F722000206F7065726174696F6E3AC8
:100890002000270027206973206E6F742061207666
:1008A000616C696420656E7472792E002D3E53650B
:1008B0006C65637465643A20002052657475726ECD
:1008C000696E6720746F204D61696E204D6F746F83
:1008D00072204D6F64756C652E2E2000092D3E50E0
:1008E000726573732027712720746F207265747589
:1008F000726E20746F20746865204D6F746F722063
:100900000020436F6E74726F6C00092D3E5072654B
:1009100073732027722720746F2072656672657367
:1009200068207468652044617368426F6172642056
:1009300000092D3E506F74656E74696F6D65746546
:1009400072204163746976617465642E002D3E5394
:10095000656C65637465643A2000092D3E456E74CC
:100960006572696E6720506F74656E74696F6D652E
:1009700074657220436F6E74726F6C2E2E2E200081
:100980002D3E43686F6F7365204D6F746F7220004A
:10099000206F7065726174696F6E3A20000928508B
:1009A0007265737320276F2720666F72206F7074D3
:1009B000696F6E732900092D3E52656C656173691C
:1009C0006E67204D6F746F722E2E002D3E53656C36
:1009D00065637465643A20002D3E43686F6F7365EC
:1009E000204D6F746F722000206F706572617469A2
:1009F0006F6E3A20000928507265737320276F27A5
:100A000020666F72206F7074696F6E7329000942DF
:100A100072616B652073657420617420002E200064
:100A2000092D3E456E7465722074686520427261BE
:100A30006B6520466F7263652830202D2032353576
:100A400029002D3E53656C65637465643A20002D62
:100A50003E43686F6F7365204D6F746F7220002086
:100A60006F7065726174696F6E3A20000928507268
:100A700065737320276F2720666F72206F7074690B
:100A80006F6E73290009506F77657220736574204B
:100A9000617420002E2000456E74657220746865B4
:100AA00020506F7765722056616C756520282D3255
:100AB000353520746F20323535293B0020202A4EF1
:100AC0006F74653A204E656761746976652056617A
:100AD0006C756573203D2052657665727365002DD7
:100AE0003E53656C65637465643A200054727920E6
:100AF000416761696E2E2000092D3E53776974634A
:100B000068696E6720746F20436F6E74726F6C201B
:100B10006F66204D6F746F7220002E00092D3E52BB
:100B2000657475726E20746F20746865204D6169FC
:100B30006E204D6F746F72204D6F64756C652074FC
:100B40006F2073776170204D6F746F72732E002D5C
:100B50003E53656C65637465643A2000092D3E520E
:100B6000657475726E696E6720746F204D6973735A
:100B7000696F6E20436F6E74726F6C2E2E200009A9
:100B80002D3E52656C656173696E67204D6F746FA1
:100B900072732E2E00092D3E526573657474696E52
:100BA00067204156522E2E00223A205754463F00CD
:100BB000526573657474696E672041565200092D41
:100BC0003E596F7520456E74657265643A20004524
:100BD0006E74657220646563696D616C206E756DFD
:100BE00065726963206469676974732C2074686531
:100BF0006E2052455455524E206F7220455343008B
:100C0000092D3E537769746368696E6720746F209D
:100C1000456E636F646572204D6F64756C652E2E32
:100C200000092D3E436C656172696E6720526567ED
:100C300069737465727320616E64204D656E75739F
:100C40002E2E00092D3E496E7469616C697A696EB9
:100C50006720456E636F6465722E2E002D3E5365CE
:100C60006C65637465643A2000092D3E537769749E
:100C70006368696E6720746F204D6F746F72204DCA
:100C80006F64756C652E2E00092D3E436C65617294
:100C9000696E672052656769737465727320616E4F
:100CA00064204D656E75732E2E00092D3E496E74BD
:100CB00069616C697A696E67204D6F746F72732E0B
:100CC0002E002D3E53656C65637465643A200043C5
:100CD000757272656E74204368616E6E656C205229
:100CE000656164696E67733A2000456E64205072D6
:100CF000696E7420446174610054686973204843CC
:100D0000544C2D32303030206973207573696E6712
:100D10002074686573652070696E733A004F4520D2
:100D200070696E3A20005368617261626C65207070
:100D3000696E733A0053454C2070696E3A20004446
:100D40006174612062757320706F72743A20004D77
:100D50006F746F722044726976657220496E707587
:100D6000743A20004E6F207368617265642064617C
:100D70007461206974656D7320746F207072696E80
:100D800074002D2D2D2D20202020202020202020FB
:100D900020202D2D2D2D202020202D2D2D2D2D2DD1
:100DA0002D2D2D2D0053686172652F517565756568
:100DB0002020202020547970652020202046726554
:100DC000652F546F74616C004552524F522063720C
:100DD000656174696E67207461736B2022005461D1
:100DE000736B2022002220637265617465642C207D
:100DF000737461636B206174203078005461736B8D
:100E00003A20005461736B3A2049444C45004944F0
:100E10004C45090930092D09002F0009092D002D25
:100E20002D2D2D09092D2D2D2D092D2D2D2D2D008B
:100E3000092D2D2D2D2D2D2D2D2D2D00092D2D2D57
:100E40002D004E616D6509095072692E0953746158
:100E500074650009467265652F546F74616C0009F2
:100E600052756E73005461736B09092020092000CC
:100E700009537461636B00090009002F0009000920
:100E80000020200011241FBECFEFD1E2DEBFCDBF76
:100E900013E0A0E0B2E0ECE3FCE600E00BBF02C030
:100EA00007900D92A43CB107D9F71BE1A4ECB3E085
:100EB00001C01D92AE38B107E1F70E9406320C94D2
:100EC0001C360C9400000F931F93CF93DF93EC011B
:100ED00066E08E819F810E94B6266BE08E819F81A5
:100EE0000E94B6268C0167E974E00E94712666E0D4
:100EF000C8010E94B6266BE08E819F810E94B626B3
:100F00008C0165E574E00E94712666E0C8010E94CC
:100F1000B6266BE08E819F810E94B6268C016DE221
:100F200074E00E94712666E0C8010E94B6266BE05C
:100F30008E819F810E94B6268C0165E074E00E943C
:100F4000712666E0C8010E94B6266BE08E819F8103
:100F50000E94B6268C016DED73E00E94712666E05A
:100F6000C8010E94B6266BE08E819F810E94B62642
:100F70008C0165EB73E00E94712666E0C8010E9457
:100F8000B6266BE08E819F810E94B6268C016DE8AB
:100F900073E00E94712666E0C8010E94B62681E0D7
:100FA0008E8FDF91CF911F910F910895AF92BF92D5
:100FB000CF92DF92EF92FF920F931F93CF93DF9325
:100FC000EC018B8D8823C1F0813009F4D1C08230CF
:100FD00009F4F8C0833009F4E6C09AECA92E92E037
:100FE000B92E8F89988D97FDCBC0892B49F011ECD4
:100FF000E12E12E0F12E08C08CEAA82E82E0B82E75
:1010000005EBE02E02E0F02E66E08E819F810E94CB
:10101000B626CF88D88C6BE08E819F810E94B62641
:101020008C0160E173E00E94712666E0C8010E94B5
:10103000B6266BE00E94B6268C0167E373E00E943F
:10104000712666E0C8010E94B6266BE00E94B626B3
:101050008C0167E573E00E94712666E0C8010E947A
:10106000B6266BE00E94B6268C016EE773E00E9404
:101070007126B501C8010E9471266BE0C8010E946B
:10108000B6268C0168E873E00E947126B601C8019B
:101090000E94FB266BE00E94B6268C016AE873E092
:1010A0000E947126B701C8010E94712666E0C8013E
:1010B0000E94B6268C8D811145C0A98CBA8CFCEAA1
:1010C000CF2EF2E0DF2EA5EBEA2EA2E0FA2E66E0AC
:1010D0008E819F810E94B6266BE00E94B6268C010D
:1010E00061E073E00E947126B601C8010E9471267A
:1010F0006BE0C8010E94B6268C016BE073E00E9491
:101100007126B501C8010E94FB266BE00E94B6263D
:101110008C016DE073E00E947126B701C8010E9446
:10112000712666E0C8010E94B62681E08E8FDF91AD
:10113000CF911F910F91FF90EF90DF90CF90BF90D4
:10114000AF900895813009F18230B9F1833081F197
:10115000EAECCE2EE2E0DE2E898D9A8D97FD1DC041
:101160000097A9F15C0171ECE72E72E0F72EAFCF8A
:1011700053EEA52E52E0B52E8F89988D97FF35CF6F
:10118000B9EBEB2EB2E0FB2E3FCF23EEC22E22E0D6
:10119000D22E898D9A8D97FFE3CF5C0169EBE62E05
:1011A00062E0F62E94CF31EDA32E32E0B32E19CFAC
:1011B00081EDC82E82E0D82ECFCF9AEDC92E92E0D5
:1011C000D92ECACF4AEDA42E42E0B42E0ACFA12CCC
:1011D000B12C7DCF0F931F93CF93DF93EC010E942F
:1011E000E22184EF92E0998388831E8E1E8A1D8AF5
:1011F00082E08B8F8C8F188E1F8A1A8E198EDF914A
:10120000CF911F910F9108950F931F93CF93DF9369
:10121000EC018E8D811173C066E08E819F810E94EA
:10122000B6266BE00E94B6268C0161EA75E00E944A
:10123000712666E0C8010E94B62666E00E94B626C6
:101240006BE00E94B6268C0160EC75E00E9471266E
:101250006BE0C8010E94B6268C0168EC75E00E9424
:10126000712666E0C8010E94B6266BE00E94B62691
:101270008C0164ED75E00E94712666E0C8010E9451
:10128000B6266BE00E94B6268C016FEF75E00E94D7
:10129000712666E0C8010E94B6266BE00E94B62661
:1012A0008C0161E476E00E94712666E0C8010E942C
:1012B000B6266BE00E94B6268C016EE676E00E94B0
:1012C000712666E0C8010E94B6266BE00E94B62631
:1012D0008C016BE976E00E94712666E0C8010E94ED
:1012E000B6266BE00E94B6268C0168EC76E00E9480
:1012F000712666E0C8010E94B62681E08E8FDF91DC
:10130000CF911F910F9108950F931F93CF93DF9368
:10131000EC018E8D811146C066E08E819F810E9416
:10132000B62666E00E94B6266BE00E94B6268C01C7
:101330006FEB74E00E94712666E0C8010E94B62639
:101340006BE00E94B6268C0167EE74E00E94712665
:1013500066E0C8010E94B6266BE00E94B6268C01AA
:1013600069E275E00E94712666E0C8010E94B62617
:101370006BE00E94B6268C0161E575E00E94712643
:1013800066E0C8010E94B6266BE00E94B6268C017A
:1013900069E775E00E94712666E0C8010E94B626E2
:1013A00081E08E8FDF91CF911F910F910895FC0105
:1013B000268D211108950C946307FC01268D2111BF
:1013C00002C00C94D60708950F931F93CF93DF9319
:1013D000EC0166E08E819F810E94B6266BE00E9440
:1013E000B6268C016CED72E00E9471266BE0C8019C
:1013F0000E94B6268C016BEF72E00E94712666E0B7
:10140000C8010E94B6266BE08E819F810E94B6269D
:101410008C016BEB72E00E94712666E0C8010E94AD
:10142000B6266BE08E819F810E94B6268C0164E90E
:1014300072E00E94712666E0C8010E94B6266BE049
:101440008E819F810E94B6268C0166E772E00E9421
:10145000712666E0C8010E94B6266BE08E819F81EE
:101460000E94B6268C0167E572E00E94712666E054
:10147000C8010E94B6266BE08E819F810E94B6262D
:101480008C0160E472E00E94712666E0C8010E944F
:10149000B6266BE08E819F810E94B626EC0161E347
:1014A00072E00E94712666E0CE01DF91CF911F911C
:1014B0000F910C94B626CF93DF93EC018E819F8120
:1014C000DC01ED91FC910480F581E02D09958111FD
:1014D00004C080E0DF91CF9108958E819F81DC016F
:1014E000ED91FC910680F781E02D09958A8B81E0D2
:1014F000DF91CF910895CF92DF92FF920F931F93C8
:10150000CF93DF931F92CDB7DEB76C01DC01549609
:101510001C921E925397F12CF60186819781DC0173
:10152000ED91FC910480F581E02D0995882309F463
:1015300040C0F60186819781DC01ED91FC91068027
:10154000F781E02D0995282FF601828B80ED820F1F
:101550008A3008F458C02D3209F478C0213709F4D4
:1015600098C02A3009F47FC02D3009F484C02B3193
:1015700009F481C06BE0F6018681978129830E947E
:10158000B6268C016EE172E00E947126D801ED91C1
:10159000FC910280F381E02D2981622FC801099519
:1015A0006BE0C8010E94B6266EE272E00E947126CE
:1015B000B3CF8091D8039091D903DC01ED91FC91D8
:1015C0000480F581E02D0995882309F4A5CFD60183
:1015D0001696ED91FC9117970190F081E02D028114
:1015E00013818091D8039091D903DC01ED91FC9196
:1015F0000680F781E02D0995682FF6018681978195
:10160000F801099589CF86819781DC01ED91FC91E4
:101610000280F381E02D622F0995F6012389348938
:10162000C901880F991F220F331F220F331F220F6A
:10163000331F820F931F2289332727FD30952053B4
:101640003109820F931F948B838B66CF868197819C
:10165000DC01ED91FC910280F381E02D6DE20995B2
:10166000FF24F39459CF6CEE72E0F60186819781E6
:101670000E94712651CFFF2061F0D60153968D91C3
:101680009C91549791958195910954969C938E9332
:1016900053970F90DF91CF911F910F91FF90DF90A3
:1016A000CF9008958F929F92AF92BF92CF92DF9288
:1016B000EF92FF920F931F93CF93DF9300D000D050
:1016C00000D0CDB7DEB78C0119821A821B821C8232
:1016D0001E821D82C0902801D09029010E945D1AAF
:1016E0005C01CE0101960E948C254C0166E0F80158
:1016F000868197810E94B6266BE00E94B6267C0107
:1017000062ED71E00E9471266BE0C7010E94B6266F
:101710007C0161EF71E00E94712666E0C7010E94C2
:10172000B6266BE00E94B6267C016DEF71E00E9448
:101730007126B401C7010E942B256BE00E94B626DA
:101740007C016BE072E00E947126B501C7010E9426
:101750005C277C016EEE72E00E94712648E357E13F
:1017600060E070E0C7010E9496276BE00E94B626F9
:101770007C0164E172E00E947126B601C7010E94FB
:101780005C2766E00E94B62666E00E94B626F80155
:10179000868197810E94DD2366E0F801868197812A
:1017A0000E94B626F801868197810E949D21269687
:1017B0000FB6F894DEBF0FBECDBFDF91CF911F9162
:1017C0000F91FF90EF90DF90CF90BF90AF909F90E0
:1017D0008F9008950FB6F8940F92E091D003F09196
:1017E000D10360870F900FBE0FB6F8940F92E0916F
:1017F000D203F091D30320870F900FBE0FB6F89459
:101800000F92E091D603F091D703518740870F9054
:101810000FBE613041F0623009F00895FC01248F61
:10182000528F418F0895FC01238F508F478B08956D
:101830006150710981E06230710508F080E008951F
:10184000FC01168E08950F931F93CF93DF93EC0145
:101850008E8D81113FC066E08E819F810E94B626E9
:101860006BE08E819F810E94B6268C0163EA71E055
:101870000E94712666E0C8010E94B6266BE08E8148
:101880009F810E94B6268C0161E671E00E9471265C
:1018900066E0C8010E94B6266BE08E819F810E949F
:1018A000B6268C0162E371E00E94712666E0C801F1
:1018B0000E94B6266BE08E819F810E94B6268C0125
:1018C00063E071E00E94712666E0C8010E94B626BE
:1018D00081E08E8FDF91CF911F910F910895CF936B
:1018E000DF93CDB7DEB727970FB6F894DEBF0FBEF4
:1018F000CDBF8C0119821A821B821C821E821D821E
:10190000DC0154961C921E9253973FC0243039F14B
:1019100008F475C1253009F057C16BE0F8018681E4
:1019200097810E94B6267C0162E177E00E947126D1
:1019300066E0C7010E94B6266BE00E94B6267C01D5
:1019400065E377E00E94712666E0C7010E94B62633
:10195000D8015E961C9260E0C8010E949822D801CE
:101960001E964D915D916D917C9151974F5F5F4FA8
:101970006F4F7F4FF80146875787608B718B61E00F
:1019800070E080E090E00E94931EF80124852230F0
:1019900009F422C208F0BACF222309F4B7C02130DB
:1019A00009F012C1F80185898111B6C2868D8111B5
:1019B00003C0C8010E946307C8010E945B0A882314
:1019C00071F2F80122892F3609F4CBC40CF464C4F7
:1019D000213709F434C40CF4C1C3233709F0CBC553
:1019E0006BE0868197810E94B6267C016FED7AE0DC
:1019F0000E947126D701ED91FC910280F381E02DC8
:101A000063E7C701099566E0C7010E94B62666E054
:101A1000F801868197810E94B6266BE00E94B62667
:101A20007C0167E97AE00E94712666E0C7010E94A6
:101A3000B6266BE00E94B6267C016CEB7AE00E9431
:101A4000712666E0C7010E94B626C8010E947B0A83
:101A5000D80153964D915C91549721E05D966C911D
:101A6000C8010E94EA0BF801C388D48866E0868129
:101A700097810E94B62666E00E94B6266BE00E941F
:101A8000B6267C0165E87AE00E947126B601C7019E
:101A90000E94FB266BE00E94B6267C0164E97AE096
:101AA0000E94712666E0C7010E94B626D8015E96A4
:101AB0001C92C8010E94D607F801D58C66E0868189
:101AC00097810E94B6266BE00E94B6267C016FE4E7
:101AD0007AE00E9471266D2DC7010E94DE276BE01F
:101AE0000E94B6267C016FE57AE00E9471266BE0C9
:101AF000C7010E94B6267C016CE67AE0C7010E940D
:101B0000712666E0C7010E94B62629CFC8010E944F
:101B10000409C8010E945B0A882309F420CFD80178
:101B200052962C91283609F4FAC40CF4A0C42E362F
:101B3000B1F00CF4C3C2233709F4BCC2243709F056
:101B400014C2CE0101960E948C25BC01F801868149
:101B500097810E942B2566E00E94B62600CF6BE09D
:101B6000F801868197810E94B6267C016FEC7BE0AC
:101B70000E94712666E0C7010E94B626C8010E9435
:101B80007B0AD8015396CD90DC90549766E0169668
:101B90008D919C9117970E94B62666E00E94B6260A
:101BA0006BE00E94B6267C016EEB7BE00E94712602
:101BB000B601C7010E94FB2666E00E94B626F80126
:101BC0008289813761F6CBCE6BE0F80186819781FF
:101BD0000E94B6268C0165EF76E00E94712666E0D1
:101BE000C8010E94B6262BE088E190E00FB6F89479
:101BF000A895809360000FBE20936000FFCFF8018E
:101C00008689882309F4ABCEC8010E94230CC80141
:101C10000E945B0A882309F4A2CED80152968C91C7
:101C2000813709F4EAC4823709F099CE0FB6F894E7
:101C30000F92E091CE03F091CF03C084D184E2846F
:101C4000F3840F900FBE6BE0D80116968D919C9196
:101C500017970E94B6265C016FEA77E00E94712612
:101C6000B701A601C5010E942A2766E00E94B62698
:101C70000FB6F8940F92E091CC03F091CD03C0849D
:101C8000D184E284F3840F900FBE6BE0F80186816B
:101C900097810E94B6265C0169E977E00E9471266F
:101CA000B701A601C5010E942A2766E00E94B62658
:101CB0000FB6F8940F92E091CA03F091CB03C08461
:101CC000D184E284F3840F900FBE6BE0D8011696A6
:101CD0008D919C9117970E94B6265C016BE877E086
:101CE0000E947126B701A601C5010E94962766E0F1
:101CF0000E94B6260FB6F8940F92E091C803F091B7
:101D0000C903D0840F900FBE6BE0F80186819781E4
:101D10000E94B6267C0163E877E00E9471266D2D53
:101D2000C7010E94DE2766E00E94B6260FB6F8942F
:101D30000F92E091C603F091C703D0840F900FBEBD
:101D40006BE0D80116968D919C9117970E94B6264C
:101D50007C0165E777E00E9471266D2DC7010E9426
:101D6000DE2766E00E94B6260FB6F8940F92E09147
:101D7000C403F091C503C084D184E284F3840F903E
:101D80000FBE6BE0F801868197810E94B6265C0148
:101D900067E677E00E947126B701A601C5010E949F
:101DA0002A2766E00E94B62666E0D80116968D9135
:101DB0009C9117970E94B6266BE00E94B6267C0184
:101DC0006CE477E00E94712666E0C7010E94B626A7
:101DD00066E00E94B626C3CDC8010E945B0A882334
:101DE00049F0D80152968C915297813709F471C00D
:101DF0008237D1F00FB6F8940F920F900FBEE0919A
:101E0000D403F091D5034085518523E0F801658D19
:101E1000C8010E94EA0BD8015E968C9181119FCD7A
:101E2000C8010E94D6079BCD66E0D80116968D9119
:101E30009C9117970E94B6266BE00E94B6267C0103
:101E40006BE578E00E947126D701ED91FC9102804C
:101E5000F381E02D62E7C701099566E0C7010E94A2
:101E6000B626F801168EC8010E94D607D8015D96E5
:101E7000DC905D9766E016968D919C9117970E9475
:101E8000B62666E00E94B6266BE00E94B6267C016C
:101E900066E078E00E9471266D2DC7010E94DE2762
:101EA0006BE00E94B6267C016BE278E00E9471260E
:101EB00066E0C7010E94B6266BE00E94B6267C0150
:101EC00064E378E00E94712666E0C7010E94B626AE
:101ED00091CF66E016968D919C9117970E94B62639
:101EE0006BE00E94B6267C0168E678E00E947126CD
:101EF000D701ED91FC910280F381E02D61E7C701EC
:101F0000099566E0C7010E94B62661E0C8010E94FB
:101F10009822F801168E23CDC8012F830E948409D0
:101F2000C8010E947B0AD80152968C9152972F814A
:101F3000813709F472C0F801C388D488C6010197BB
:101F4000029790F16BE0868197812F830E94B626DD
:101F50007C016CEE7AE00E94712666E0C7010E9467
:101F6000B6262F81F801258BFACCF801E680F780A0
:101F7000D701ED91FC910280F381E02D62E2C7016F
:101F80002F830995D701ED91FC910280F381E02D1B
:101F90002F81622FC70109956BE0C7010E94B62609
:101FA0007C0168EA7BE0AACD66E0868197810E9489
:101FB000B62666E00E94B6266BE00E94B6267C013B
:101FC00068EF7AE00E947126B601C7010E94FB26E5
:101FD00062E00E94B6266BE00E94B6267C016AE1B0
:101FE0007BE00E94712666E0C7010E94B6266BE086
:101FF0000E94B6267C016CE17BE00E94712666E0BF
:10200000C7010E94B626F8018389858F168E158A2E
:1020100061E0C8010E949822A2CC6BE016968D91D7
:102020009C9117970E94B6267C016FE47BE00E948A
:102030007126D701ED91FC910280F381E02D61E7DB
:10204000C701099566E0C7010E94B62666E00E94B6
:10205000B62666E00E94B6266BE00E94B6267C019A
:102060006CE57BE00E94712666E0C7010E94B626FF
:102070006BE00E94B6267C016FE77BE00E94712630
:1020800066E0C7010E94B6266BE00E94B6267C017E
:1020900065E97BE00E94712666E0C7010E94B626D2
:1020A000F801158A60E0C8010E949822D8015E9666
:1020B0001C9255CCC8010E94520B51CC2D3609F010
:1020C00054CF6BE0F801868197810E94B6267C018F
:1020D00062EC7CE00E947126D701ED91FC910280B8
:1020E000F381E02D6DE6C701099566E0F801868170
:1020F00097810E94B62666E00E94B6266BE00E9499
:10210000B6267C0169E67CE00E94712666E0C70184
:102110000E94B6266BE00E94B6267C0168E87CE04F
:102120000E94712666E0C7010E94B6266BE00E94FD
:10213000B6267C016AEA7CE00E94712666E0C7014F
:102140000E94B626D8015E961C925E9781E0559655
:102150008C9361E0C8010E94982201CC66E08681E0
:1021600097810E94B6266BE00E94B6267C016DE442
:1021700079E00E947126D701ED91FC910280F381F4
:10218000E02D60E7C701099566E0C7010E94B62609
:102190006BE00E94B6267C016AE579E00E94712618
:1021A00066E0C7010E94B6266BE0F8018681978140
:1021B0000E94B6267C0161E379E00E94712666E008
:1021C000C7010E94B62666E00E94B626D8015D9639
:1021D000DC905D9766E016968D919C9117970E9412
:1021E000B62666E00E94B6266BE00E94B6267C0109
:1021F0006CED78E00E9471266D2DC7010E94DE27EC
:102200006BE00E94B6267C0161E079E00E947126B5
:1022100066E0C7010E94B6266BE00E94B6267C01EC
:102220006AE079E00E94712666E0C7010E94B62646
:1022300062E0C8010E949822F801168E90CB6BE0F4
:10224000F801868197810E94B6267C016CEA78E0CD
:102250000E947126D701ED91FC910280F381E02D5F
:1022600061E7C701099566E0C7010E94B6266BE0E9
:102270000E94B6267C0169EB78E00E94712666E038
:10228000C7010E94B62661E0C8010E949822F801A9
:10229000168E81E0858B63CB223609F467C0263623
:1022A00009F069C16BE0868197810E94B6267C01A6
:1022B0006BEC79E00E947126D701ED91FC910280D0
:1022C000F381E02D66E6C701099566E0C7010E942B
:1022D000B6266BE0F801868197810E94B6267C01C4
:1022E00066EB79E00E94712666E0C7010E94B6267F
:1022F0000FB6F8940F920F900FBEE091D003F091BB
:10230000D10322E040E050E06085C8010E94EA0B62
:10231000D8015E961C92C8010E94D607F801D58CA0
:1023200066E0868197810E94B6266BE00E94B62601
:102330007C0160E879E00E9471266D2DC7010E9442
:10234000DE276BE00E94B6267C0160E979E00E94FE
:1023500071266BE0C7010E94B6267C016DE979E029
:10236000CDCB168EC8010E946307F9CA6BE0868147
:1023700097810E94B6267C0162E47AE00E94712671
:10238000D701ED91FC910280F381E02D62E6C70157
:10239000099566E0C7010E94B6266BE0F8018681C8
:1023A00097810E94B6267C0160E27AE00E94712645
:1023B00066E0C7010E94B626C8010E947B0AD801C8
:1023C0005396CD90DC90549766E016968D919C9133
:1023D00017970E94B62666E00E94B6266BE00E9420
:1023E000B6267C016EE07AE00E947126B601C70134
:1023F0000E94FB266BE00E94B6267C016DE17AE02C
:102400000E94712666E0C7010E94B626F801438942
:10241000548920E0658DC8010E94EA0BD8015E96C0
:102420001C92C8010E94D607F801D58C66E086810F
:1024300097810E94B6266BE00E94B6267C0168ED6B
:1024400079E00E9471266D2DC7010E94DE276BE0A6
:102450000E94B6267C0168EE79E00E9471266BE04E
:10246000C7010E94B6267C0165EF79E047CB2F3388
:1024700009F455C00CF45FC0243609F454C0253665
:1024800009F073CD6BE0F801868197810E94B62632
:102490007C016CE57CE00E947126D701ED91FC91F6
:1024A0000280F381E02D65E6C701099566E0F80139
:1024B000868197810E94B62666E00E94B6266BE070
:1024C0000E94B6267C0160E07CE00E94712666E0F6
:1024D000C7010E94B6266BE00E94B6267C0161E22D
:1024E0007CE00E94712666E0C7010E94B6266BE080
:1024F0000E94B6267C0163E47CE00E94712666E0BF
:10250000C7010E94B626D8015E961C925E9781E0B4
:1025100056968C9363E0C8010E94982220CAC80195
:102520000E94E4091CCAD80116968D919C911797B8
:102530000E94F72214CA233009F017CD6BE0D801AE
:1025400016968D919C9117970E94B6268C0160EB90
:102550007BE00E94712666E0C8010E94B6262BE04F
:1025600088E190E00FB6F894A895809360000FBEC4
:1025700020936000FFCF66E0D80116968D919C9164
:1025800017972F830E94B6266BE00E94B6267C0127
:1025900062E978E00E947126D701ED91FC910280FA
:1025A000F381E02D2F81622FC70109956BE0C701F0
:1025B0000E94B6267C0164E978E00E94712666E0FC
:1025C000C7010E94B626F801D58C66E08681978106
:1025D0000E94B6266BE00E94B6267C0165E778E093
:1025E0000E9471266D2DC7010E94DE276BE00E94BC
:1025F000B6267C0165E878E081CA6BE0F801868147
:1026000097810E94B6267C016FEB77E00E947126CD
:10261000D701ED91FC910280F381E02D61E7C701C4
:10262000099566E0C7010E94B62666E00E94B626BC
:1026300066E00E94B6266BE00E94B6267C016CEC38
:1026400077E00E94712666E0C7010E94B6266BE023
:102650000E94B6267C016FEE77E00E94712666E04C
:10266000C7010E94B62660E0C8010E94982281E05E
:10267000F801858B168A168E72C9CF93DF9300D02E
:1026800000D0CDB7DEB78C010E948C1C69837A83A1
:102690008B839C8380918000816A809380008091ED
:1026A00081008A608093810040E8E42EF12C15C0FF
:1026B000F80146855785608971894F5F5F4F6F4F7D
:1026C0007F4F46875787608B718B4AE050E060E010
:1026D00070E0CE0101960E942C1E0FB6F8940F9266
:1026E000E091D203F091D30320850F900FBE0FB677
:1026F000F8940F920F900FBEE091D003F091D103A8
:10270000D80152969C9180859813D2CF213009F43C
:102710004AC02223A9F1223009F456C0233009F01F
:10272000C7CF61E0D80155968D919C9156970E9434
:10273000D21597FD5DC095958795959587958038BD
:1027400091050CF447C08038910509F4B1CF6701B9
:10275000C81AD90ACC0CDD1CB601D80153968D914C
:102760009C9154970E94B7170FB6F8940F92E0917E
:10277000D403F091D503D186C0860F900FBE98CFB9
:102780000FB6F8940F920F900FBEE091D403F09122
:10279000D50360857185D80153968D919C9154978E
:1027A0000E94321885CF0FB6F8940F920F900FBE8B
:1027B000E091D403F091D50360857185F801838998
:1027C00094890E94B71774CFF801838994890E9475
:1027D00086186ECF919581959109880F991F6C018C
:1027E000BFEFCB0ED11CB601F80183899489BACF13
:1027F0000396A1CFAF92CF92DF92EF92FF920F9309
:102800001F93CF93DF93EC010E94E2218CEF92E0C3
:1028100099838883FC8AEB8ADE8ACD8AAA8ADF9133
:10282000CF911F910F91FF90EF90DF90CF90AF90DD
:102830000895CF93DF9300D000D0CDB7DEB78C01E1
:102840000E948C1C69837A838B839C830FB6F894D7
:102850000F920F900FBE0FB6F8940F922091CC03F9
:102860003091CD03A091CE03B091CF0318968D91F6
:102870009D910D90BC91A02DF801428953896489E6
:102880007589841B950BA60BB70BF901808791877F
:10289000A287B3870F900FBE0FB6F8940F92E09106
:1028A000CE03F091CF0380859185A285B3850F90EB
:1028B0000FBEF801828B938BA48BB58B4685578511
:1028C000608971894F5F5F4F6F4F7F4F4687578792
:1028D000608B718B41E050E060E070E0CE010196CA
:1028E0000E942C1EB3CFEF92FF920F931F93CF93B2
:1028F000DF93EC010E94E22184E093E099838883D6
:10290000FB8EEA8E0FB6F8940F92E091CE03F09111
:10291000CF0340855185628573850F900FBE4A8B2A
:102920005B8B6C8B7D8BDF91CF911F910F91FF9013
:10293000EF900895CF93DF9300D000D0CDB7DEB7EE
:102940008C010E948C1C69837A838B839C83F801A1
:10295000828993890E94A01641E050E060E070E017
:10296000CE0101960E942C1EF2CFEF92FF920F93A0
:102970001F93CF93DF93EC010E94E2218CE093E060
:1029800099838883FB8AEA8ADF91CF911F910F9107
:10299000FF90EF900895CF93DF9300D000D0CDB794
:1029A000DEB78C010E948C1C69837A838B839C83A5
:1029B0000FB6F8940F920F900FBE0FB6F8940F92C7
:1029C0000F900FBED8015496ED91FC915597E0847D
:1029D000F1845296ED91FC915397A084B184AE1886
:1029E000BF085C966D917C915D9794968D919C91BA
:1029F00095970E94681940E054E00E947A196C0192
:102A0000F801628D738DC5010E940119B6010E9403
:102A10001E19D8015B969C938E935A9758968D9168
:102A20009C915997B701681B790B5996FC92EE92CD
:102A3000589792968D919C9193970E9468196B017B
:102A40007C01F801628D738D80A191A10E946819AB
:102A5000DC01CB01B6010E9401197C01B501D8014E
:102A60005E968D919C915F970E946819DC01CB0165
:102A7000B7010E940119BC01882777FD8095982F26
:102A800040E054E00E947A19F801E0A4F1A4E816AD
:102A9000F9063CF026A137A17C01821793070CF4BC
:102AA0007901B7010E941E19D8015D969C938E93FF
:102AB0005C970FB6F8940F92D8015696ED91FC9161
:102AC0005797F186E0860F900FBE4AE050E060E035
:102AD00070E0CE0101960E942C1E6ACF6F927F9209
:102AE0008F929F92AF92BF92CF92DF92EF92FF921E
:102AF0000F931F93CF93DF93CDB7DEB73C010E94B6
:102B0000E22184E193E0F30191838083F38AE28AF6
:102B1000D58AC48AB78AA68A978E868E89899A8929
:102B200091A380A38B899C8993A382A38D899E897D
:102B300095A384A38F89988D97A386A3898D9A8D59
:102B400091A780A7DF91CF911F910F91FF90EF90F8
:102B5000DF90CF90BF90AF909F908F907F906F90BD
:102B60000895CF93DF93FC017183608320917C00F3
:102B7000206420937C0020917A00256C20937A00B9
:102B8000C081D181209759F068E173E0CE010E94A5
:102B9000712666E0CE01DF91CF910C94B626DF91CD
:102BA000CF910895683008F060E080917C00887FC4
:102BB00080937C0080917C00862B80937C008091A8
:102BC0007A00806480937A0080917A0086FDFCCF41
:102BD000809178002091790090E0922B0895DF9207
:102BE000EF92FF920F931F93CF93DF938C01D62E1A
:102BF000E42E80E48417E0F480E4E82EF12CC0E0B9
:102C0000D0E06D2DC8010E94D215C80FD91FF394D2
:102C1000FE10F7CF6E2D70E0CE010E940C34CB0178
:102C2000DF91CF911F910F91FF90EF90DF9008956A
:102C30004111E4CFC0E0D0E0EDCF0F931F93CF93CD
:102C4000DF93EC016BE00E94B6268C016FEC7CE018
:102C50000E94712666E0C8010E94B6266BE00E94C1
:102C6000B6268C016AEE7CE00E94712666E0C801FF
:102C70000E94B626CE01DF91CF911F910F9108954A
:102C8000CF92EF92FF920F93CF93DF93FC0171836A
:102C9000608353834283248335830683E782F086EF
:102CA000C186DA0111971C92A281B3811C92A48182
:102CB000B5816C9181E090E0AC01068002C0440FC8
:102CC000551F0A94E2F7642B6C93A781B0856C9131
:102CD000AC01018402C0440F551F0A94E2F7642B33
:102CE0006C93D9014E919C01068002C0220F331FC4
:102CF0000A94E2F7422B4C93D7012E91018402C033
:102D0000880F991F0A94E2F7282B2C93C081D18158
:102D1000209779F067E373E0CE010E94712666E0A8
:102D2000CE01DF91CF910F91FF90EF90CF900C9457
:102D3000B626DF91CF910F91FF90EF90CF9008953D
:102D4000CF93DF93FC01A281B381C781D0854881F5
:102D500021E030E0C901018402C0880F991F0A9464
:102D6000E2F7809584238883C481D5814881C90195
:102D7000068002C0880F991F0A94E2F78095842389
:102D8000888312978C9190E0982F8827C781D085EF
:102D90006881A901018402C0440F551F0A94E2F71B
:102DA000642B68835C91A481B5814C91068002C03C
:102DB000220F331F0A94E2F7422B4C93852BDF91AD
:102DC000CF910895BF92CF92DF92EF92FF920F932F
:102DD0001F93CF93DF93EC01FB01FF24F3948281D7
:102DE0009381892B09F4F12CE184DD24D39487812C
:102DF0009085892B09F4D12CB680CC24C39484818E
:102E00009581892B09F4C12C6BE0CE010E94B62676
:102E10008C0169EF7CE00E94712662E0C8010E948B
:102E2000B62666E00E94B6266BE00E94B6268C01AC
:102E30006DE17DE00E9471266C2DC8010E94412643
:102E40008C016BE473E00E9471266B2DC8010E9417
:102E5000DE2766E00E94B6266BE00E94B6268C0153
:102E600066E27DE00E94712666E0C8010E94B626F7
:102E70006BE00E94B6268C0165E37DE00E9471261E
:102E80006D2DC8010E9441268C016BE473E00E9405
:102E900071266E2DC8010E94DE2766E00E94B626CC
:102EA0006BE00E94B6268C016FE37DE00E947126E4
:102EB0006F2DC8010E94412666E00E94B626CE0111
:102EC000DF91CF911F910F91FF90EF90DF90CF9006
:102ED000BF9008956F927F928F92AF92CF92EF92B0
:102EE000FF920F931F93CF93DF93CDB7DEB7FC0113
:102EF0003B018E85718360835583448331872087AE
:102F000015870487F38AE28AC686A786808A818B22
:102F1000415051095383428321503109378326831D
:102F2000015011091387028761157105A1F06DE445
:102F300073E0C3010E94712666E0C301DF91CF9167
:102F40001F910F91FF90EF90CF90AF908F907F9057
:102F50006F900C94B626DF91CF911F910F91FF9047
:102F6000EF90CF90AF908F907F906F900895CF9318
:102F7000FC01A281B381CC9181E090E0AC01068498
:102F800002C0440F551F0A94E2F79C01078402C057
:102F9000220F331F0A94E2F7242B2C2B2C93A681AB
:102FA000B7814C919C01008802C0220F331F0A9404
:102FB000E2F7209524232C93A285B3854C919C01A4
:102FC000018802C0220F331F0A94E2F7422B4C9370
:102FD000A085B1854C919C01008802C0220F331F4F
:102FE0000A94E2F7422B4C93A481B5814C919C0149
:102FF00077FD1BC0068402C0220F331F0A94E2F73C
:10300000422B4C93A481B5812C91078402C0880F78
:10301000991F0A94E2F7809582238C930288F389A2
:10302000E02D71836083CF910895078402C0220F41
:10303000331F0A94E2F7422B4C93A481B5812C9163
:10304000068402C0880F991F0A94E2F780958223B4
:103050008C930288F389E02D7195619571097183D4
:103060006083E1CFFC01A281B3816C9181E090E0AB
:10307000AC01068402C0440F551F0A94E2F79C017C
:10308000078402C0220F331F0A94E2F7242B262B59
:103090002C93A681B7814C919C01008802C0220F1D
:1030A000331F0A94E2F7209524232C93A285B3853D
:1030B0004C919C01018802C0220F331F0A94E2F751
:1030C000422B4C93A085B1854C919C01008802C095
:1030D000220F331F0A94E2F7422B4C93A481B5814F
:1030E0004C919C01068402C0220F331F0A94E2F720
:1030F000422B4C93A481B5812C91078402C0880F88
:10310000991F0A94E2F7282B2C930895FC01A281C1
:10311000B3816C9181E090E0AC01068402C0440F61
:10312000551F0A94E2F79C01078402C0220F331F47
:103130000A94E2F7242B262B2C93A681B7814C917D
:103140009C01008802C0220F331F0A94E2F72095E9
:1031500024232C93A285B3854C919C01018802C045
:10316000220F331F0A94E2F7422B4C93A085B185BE
:103170004C919C01008802C0220F331F0A94E2F791
:10318000422B4C93A481B5814C919C01068402C0D2
:10319000220F331F0A94E2F7209524232C93A48155
:1031A000B5812C91078402C0880F991F0A94E2F719
:1031B000809582238C930895EF92FF920F931F9333
:1031C000CF93DF93EC01DB015296ED91FC91539785
:1031D000E080F1806BE00E94B6268C016FE47DE018
:1031E0000E947126B701C8010E945C2766E00E9418
:1031F000B626CE01DF91CF911F910F91FF90EF90F6
:1032000008959C01432F4095441F4427441F80E0AC
:1032100090E8841B9109AC01421B530BE1E0461777
:1032200057070CF0E0E0432F4095441F4427441F0C
:10323000E41719F0C901860F971F0895861797079D
:1032400099F1611520E8720741F171956195710955
:10325000492F4095441F4427441F20E030E8241B99
:103260003109A901481B590BE1E04617570764F4DF
:10327000492F4095441F4427441FE41719F0860F37
:10328000971F0895C9010895E0E0492F4095441F14
:103290004427441FE417B1F3F2CF97FD03C06FEF4B
:1032A0007FE7D6CF0196FBCF80E090E008958115AF
:1032B00020E8920729F09C0197FD05C0C9010895F7
:1032C0008FEF9FE70895319521953109C901089540
:1032D000811520E8920729F09C01DB010E94D3337D
:1032E0000895611520E87207B9F76FEF7FEF8FEF50
:1032F0009FE708959A01442737FD4095542F0E9477
:103300004234211580E838074105510524F02FEF9C
:103310003FE740E050E0DA01C901811520E892075B
:103320002FEFA207B20724F480E090E8AFEFBFEFE1
:1033300008950F931F93CF93DF93EC010E94861C97
:103340008091DA03811121C084EE93E09093E00331
:103350008093DF031092E2031092E10387E397E189
:103360009093DE038093DD031092DC031092DB0365
:103370009093E7038093E6038BED93E09093E5034E
:103380008093E40381E08093DA03209709F460C01E
:10339000AE014C5F5F4F2396C633D74108F058C04B
:1033A000E091DF03F091E003AFEDB3E006C0808170
:1033B0009181009739F0DF01FC01228133812417CC
:1033C0003507A8F3C3E0EB3DFC0709F441C00D91BC
:1033D0001C9111970C5F1F4F808191818D939C935D
:1033E000C901841B950B8930910500F1BF01640F61
:1033F000751FDB0113969C938E9312975383428320
:1034000012968D919C911397AFEDB3E001C0DF014F
:10341000ED91FC9111972281338128173907B8F378
:10342000EB01F983E8836D937C939A01809100020C
:1034300090910102821B930B9093010280930002F2
:103440000E94B91DC801DF91CF911F910F9108957E
:1034500000E010E00E94B91DC801DF91CF911F91DB
:103460000F910895CF93DF93009721F1EC012497FA
:103470000E94861C4A815B81AFEDB3E001C0DF0191
:10348000ED91FC9111972281338124173507B8F310
:10349000F983E883CD93DC9380910002909101023F
:1034A000840F951F9093010280930002DF91CF91CA
:1034B0000C94B91DDF91CF910895809100029091F5
:1034C0000102089508958091501B823018F00E94E7
:1034D0005C2BF9CFFFCFCF92DF92EF92FF926B017F
:1034E0007C01E0911B1BF0911C1B6283738384831E
:1034F00095838091241B9091251BA091261BB09150
:10350000271B60911B1B70911C1BC816D906EA066D
:10351000FB0610F18091381B9091391B6E5F7F4F35
:103520000E94232A8091020290910302A09104023A
:10353000B0910502C816D906EA06FB0640F4C0920F
:103540000202D0920302E0920402F0920502FF9080
:10355000EF90DF90CF9008958091361B9091371BAC
:103560006E5F7F4FFF90EF90DF90CF900C94232AF7
:103570005F926F927F928F929F92AF92BF92CF9203
:10358000DF92EF92FF920F931F93CF93DF934C0143
:10359000162F572E5A01390189E290E00E9499199D
:1035A000EC01009709F4E9C0C114D10409F4DAC0B0
:1035B000DC8ECB8EC601A50165EA70E00E946635FF
:1035C00021E0A21AB108CB8CDC8CCA0CDB1CAE014A
:1035D000435E5F4FE12FF52D2AE0CF013191DA01F3
:1035E0003D93AD01DC018C91882311F02150A9F7A6
:1035F0001EA2102F043008F07DC01A8F1FA318A63A
:103600005E01B2E0AB0EB11CC5010E94FE29CE01E5
:103610000E960E94FE29DB87CA8784E090E0A0E036
:10362000B0E0811B9109A109B1098E879F87A88B02
:10363000B98BDF8BCE8BA301B401C6010E948C2A0B
:1036400099838883E114F10419F0F701D183C083D1
:103650000FB6F8940F928091281B8F5F8093281BE0
:1036600080911B1B90911C1B892B09F449C08091F0
:10367000221B81110BC0E0911B1BF0911C1B828D42
:10368000081720F0D0931C1BC0931B1B80911E1B9E
:103690008F5F80931E1B8A8D9091231B981738F1A2
:1036A000FBE08F9FC0011124B501805B944E0E9406
:1036B000022A0F900FBE8091221B882339F0E091DF
:1036C0001B1BF0911C1B828D8017B0F081E0DF91F5
:1036D000CF911F910F91FF90EF90DF90CF90BF900F
:1036E000AF909F908F907F906F905F9008958093A0
:1036F000231BD6CF13E081CF0E945C2B81E0E7CF64
:10370000D0931C1BC0931B1B8091281B813009F098
:10371000BDCF80E59BE10E94ED298BE59BE10E94F6
:10372000ED2986E69BE10E94ED2981E79BE10E945D
:10373000ED2985E49BE10E94ED298AE39BE10E944B
:10374000ED298BE29BE10E94ED2985E49BE19093BA
:10375000391B8093381B8AE39BE19093371B80933E
:10376000361B94CFC5010E9499199C8F8B8F0097AF
:1037700009F021CFCE010E94321A8FEFA8CF0FB6E9
:10378000F8940F92009729F00F900FBEFC01828DE4
:10379000089580911B1B90911C1B0F900FBEFC0184
:1037A000828D0895EF92FF921F93CF93DF93EC01E8
:1037B000262F643008F023E00FB6F8940F9220977C
:1037C00009F44AC03FA13217A9F180911B1B9091C7
:1037D0001C1B3217B8F5C817D90741F0E0911B1B25
:1037E000F0911C1B11E0828D281708F410E08A8DDF
:1037F000381769F12FA34E855F856889798977FD30
:103800000CC044E050E060E070E0421B51096109E7
:1038100071094E875F87688B798B2BE0829FC0018F
:103820001124805B944E2C853D8528173907C9F0FB
:10383000113079F00F900FBEDF91CF911F91FF9063
:10384000EF90089511E0C817D90781F6D0CF2A8FDD
:10385000D1CF0E945C2BEECFC0911B1BD0911C1BC3
:10386000B1CF7E0182E0E80EF11CC7010E94602A00
:103870008A8D9091231B981710F48093231B2BE0C3
:10388000829FC0011124B701805B944E0E94022ADE
:10389000CFCFAF92BF92CF92DF92EF92FF920F9372
:1038A000A12CB12CC12CD12C89E2E82E8BE1F82E71
:1038B00000E020E030E044E650E062E773E083E6B9
:1038C0009AE10E94B81A813041F00F91FF90EF9079
:1038D000DF90CF90BF90AF900895F8948093221B13
:1038E0001092241B1092251B1092261B1092271B4E
:1038F0000F91FF90EF90DF90CF90BF90AF900C941E
:10390000202BF8941092221B0C945B2B80911D1B92
:103910008F5F80931D1B08950FB6F8940F926091EE
:10392000241B7091251B8091261B9091271B0F90C3
:103930000FBE08956091241B7091251B8091261B5A
:103940009091271B08958091281B0895009711F0EE
:103950004D96089580911B1B90911C1B4D960895C8
:103960008091291B90912A1B0895AF92BF92CF920C
:10397000DF92EF92FF920F931F93CF93DF9380918B
:103980001D1B8111CFC08091241B9091251BA091FC
:10399000261BB091271B0196A11DB11D8093241BEE
:1039A0009093251BA093261BB093271BC090241B2C
:1039B000D090251BE090261BF090271BC114D1044A
:1039C000E104F10439F58091381B9091391B209165
:1039D000361B3091371B3093391B2093381B909343
:1039E000371B8093361B80911F1B8F5F80931F1B9B
:1039F000E091381BF091391B808181119AC08FEFC3
:103A00009FEFDC018093020290930302A0930402D3
:103A1000B09305028091020290910302A0910402EA
:103A2000B0910502B12CC816D906EA06FB0608F4C7
:103A300057C09BE0A92EE091381BF091391B808183
:103A4000882309F442C0E091381BF091391B0780AC
:103A5000F085E02DC085D1854A815B816C817D81B7
:103A6000C416D506E606F70608F47AC08E010E5F86
:103A70001F4FC8010E94602A888D998D892B21F0E3
:103A8000CE010E960E94602A8A8D9091231B981772
:103A900010F48093231BA89EC0011124B801805B01
:103AA000944E0E94022AE0911B1BF0911C1B9A8DE0
:103AB000828D981708F4BFCFBB24B394E091381BD4
:103AC000F091391B80818111BECF4FEF5FEFBA01BA
:103AD0004093020250930302609304027093050224
:103AE000E0911B1BF0911C1BE28D8BE0E89FF00125
:103AF0001124E05BF44E8081823010F0BB24B3943B
:103B00008091201B882311F0BB24B3948B2DDF916F
:103B1000CF911F910F91FF90EF90DF90CF90BF90CA
:103B2000AF9008958091211B8F5F8093211BB12C52
:103B3000E7CFE091381BF091391B0780F085E02D2D
:103B40000084F185E02D82819381A481B5818093E9
:103B5000020290930302A0930402B09305025ACF8D
:103B60004093020250930302609304027093050293
:103B7000B7CFEF92FF920F931F93CF93DF930FB6C0
:103B8000F8940F9280911D1B815080931D1B809192
:103B90001D1B811150C08091281B882309F44BC044
:103BA0002BE0F22EEE24E39427C0E091321BF0913B
:103BB000331BC085D185CE010E960E94602A8E01EE
:103BC0000E5F1F4FC8010E94602A8A8D9091231BAF
:103BD000981710F48093231BF89EC0011124B8019C
:103BE000805B944E0E94022AE0911B1BF0911C1BEB
:103BF0009A8D828D981748F580912B1B8111D5CF16
:103C00008091211B882399F08091211B882379F0D2
:103C1000C1E00E94B51C8111C093201B8091211B23
:103C200081508093211B8091211B8111F2CF8091C3
:103C3000201B813069F080E00F900FBEDF91CF91A3
:103C40001F910F91FF90EF900895E092201BD4CF29
:103C50000E945C2B81E0F0CFCF92DF92EF92FF9237
:103C60000F931F93CF93DF9300D000D0CDB7DEB773
:103C700020911D1B2F5F20931D1BC090241BD090F3
:103C8000251BE090261BF090271BFC010081118171
:103C900022813381400F511F621F731FC016D1064E
:103CA000E206F306E8F44017510762077307E8F0ED
:103CB000FC0140835183628373830E94B91D81118B
:103CC00002C00E945C2B0F900F900F900F90DF911D
:103CD000CF911F910F91FF90EF90DF90CF900895BB
:103CE000401751076207730728F0C416D506E60689
:103CF000F706F0F6FC014083518362837383809161
:103D00001B1B90911C1B029649835A836B837C83F7
:103D10000E94602A49815A816B817C81CB01BA0162
:103D20000E946B1ACACFCF92DF92EF92FF92611579
:103D300071058105910539F40E945C2BFF90EF908D
:103D4000DF90CF90089520911D1B2F5F20931D1BA6
:103D5000C090241BD090251BE090261BF090271BC1
:103D6000C60ED71EE81EF91E80911B1B90911C1BCE
:103D700002960E94602AC701B6010E946B1A0E9437
:103D8000B91D8823C9F2FF90EF90DF90CF9008957E
:103D900080911D1B81113BC01092201BE091231BC1
:103DA0008BE0E89FF0011124E05BF44E80818111EB
:103DB00010C09BE08091231B81508093231BE091D6
:103DC000231B9E9FF0011124E05BF44E8081882329
:103DD00089F3E091231B8BE0E89FF0011124E05B65
:103DE000F44EA181B28114960D90BC91A02DB283A6
:103DF000A183CF010396A817B90769F018968D9192
:103E00009C91199790931C1B80931B1B089581E034
:103E10008093201B089514969C91149715968C916D
:103E200091838283A92FB82FE9CFCF92DF92EF92AF
:103E3000FF926A017B0160911B1B70911C1B625FEA
:103E40007F4F0E94232A80911B1B90911C1B02967E
:103E50000E94602A6091241B7091251B8091261B73
:103E60009091271B6C0D7D1D8E1D9F1DFF90EF9067
:103E7000DF90CF900C946B1ACF92DF92EF92FF926B
:103E80000F931F9368017901E0911B1BF0911C1B9C
:103E9000706846875787608B718B60911B1B709190
:103EA0001C1B625F7F4F0E94022A80911B1B909116
:103EB0001C1B02960E94602A6091241B7091251B96
:103EC0008091261B9091271B6C0D7D1D8E1D9F1DC3
:103ED0001F910F91FF90EF90DF90CF900C946B1A91
:103EE0000F931F93CF93DF93DC011796ED91FC9115
:103EF0001897C085D1858E01025F1F4FC8010E94AF
:103F0000602A80911D1B811124C08E010E5F1F4FFE
:103F1000C8010E94602A8A8D9091231B9817F8F09F
:103F2000BBE08B9FC0011124B801805B944E0E94BE
:103F3000022AE0911B1BF0911C1B9A8D828D891720
:103F400088F481E08093201BDF91CF911F910F9126
:103F50000895B8018BE29BE10E94022AEACF809388
:103F6000231BDECF80E0DF91CF911F910F91089549
:103F70000F931F93CF93DF937068FC0140835183AD
:103F800062837383C085D1850E94602A8E010E5F93
:103F90001F4FC8010E94602A8A8D9091231B981799
:103FA00010F48093231BFBE08F9FC0011124B80104
:103FB000805B944E0E94022AE0911B1BF0911C1B17
:103FC0009A8D828D891740F481E08093201BDF91C8
:103FD000CF911F910F91089580E0DF91CF911F91B4
:103FE0000F91089520911F1BFC0120834091241BF9
:103FF0005091251B6091261B7091271B4183528392
:104000006383748308958F929F92AF92BF92CF92F1
:10401000DF92EF92FF920F931F93FC01DB010FB62B
:10402000F8940F924091241B5091251B6091261B00
:104030007091271B80911F1B908101811281238128
:104040003481981729F0401751076207730770F5FC
:10405000CD90DD90ED90FC9013974A015B01801AA2
:10406000910AA20AB30A8C149D04AE04BF04F0F4B2
:10407000C41AD50AE60AF70AC00ED11EE21EF31EC4
:10408000CD92DD92ED92FC92139780911F1B80835D
:104090008091241B9091251BA091261BB091271B7A
:1040A00081839283A383B48380E001C081E00F9079
:1040B0000FBE1F910F91FF90EF90DF90CF90BF90B8
:1040C000AF909F908F90089581E08093201B08957A
:1040D000009799F0DC015B96ED91FC915C978081F3
:1040E000853A81F4319680E090E0DC010196A11DD3
:1040F000B11D2191253AD1F3089580911B1B909118
:104100001C1BE8CF80E0089580911B1B90911C1B25
:1041100008950F931F93CF93DF93EC01009781F1E4
:104120008A8DE0911B1BF0911C1B928D891740F525
:104130004E855F856889798977FD11C0E0911B1BE9
:10414000F0911C1B928D44E050E060E070E0491B50
:104150005109610971094E875F87688B798B2BE064
:10416000829FC0011124805B944E2C853D852817C9
:10417000390759F0E0911B1BF0911C1B828D8A8F2F
:10418000DF91CF911F910F9108958E010E5F1F4F08
:10419000C8010E94602AE0911B1BF0911C1B828DBC
:1041A0008A8F9091231B981710F48093231B2BE088
:1041B000829FC0011124B801805B944EDF91CF91A2
:1041C0001F910F910C94022A0F931F93CF93DF93AB
:1041D000EC01009749F088A5815088A72A8D9FA1FE
:1041E000291711F0882331F080E0DF91CF911F91E2
:1041F0000F9108958E010E5F1F4FC8010E94602A23
:104200008FA18A8F44E050E060E070E0481B5109C4
:10421000610971094E875F87688B798B9091231BA9
:10422000981710F48093231B2BE0829FC001112468
:10423000B801805B944E0E94022A81E0DF91CF9109
:104240001F910F910895CF92DF92EF92FF92E0912C
:104250001B1BF0911C1B6685778580899189E091F5
:104260001B1BF0911C1BA0911B1BB0911C1B5A9691
:104270002C9134E0C32ED12CE12CF12CC21AD108A0
:10428000E108F108C686D786E08AF18AFF90EF90B0
:10429000DF90CF90089580911B1B90911C1B892B60
:1042A00039F0E0911B1BF0911C1B80A58F5F80A74C
:1042B00080911B1B90911C1B0895EF92FF920F930E
:1042C0001F93CF93DF9300D0CDB7DEB77C018BE790
:1042D00093E0F7019183808361157105C1F0FB01C3
:1042E00001900020E9F73197E61BED3020F50E2F05
:1042F00010E0C801019669837A830E942B26F7019A
:1043000095838483A80169817A810E946D358091AB
:104310007C1B90917D1BF70197838683F0927D1B18
:10432000E0927C1B0F900F90DF91CF911F910F9126
:10433000FF90EF900895ECE0DACF0F931F93CF93A7
:10434000DF93EC0180917C1B90917D1B6BE0892BAE
:1043500049F1CE010E94B6268C0165EA7DE00E94FB
:10436000712666E0C8010E94B6266BE0CE010E946D
:10437000B6268C0162E87DE00E94712666E0C801E5
:104380000E94B62680917C1B90917D1BDC01ED91F3
:10439000FC910190F081E02DBE01DF91CF911F9142
:1043A0000F910994CE010E94B626EC0164E67DE0EF
:1043B0000E94712666E0CE01DF91CF911F910F918F
:1043C0000C94B6264F925F926F927F928F929F923B
:1043D000AF92BF92CF92DF92EF92FF920F931F9313
:1043E000CF93DF93EC013B0149012801FC0181E8F7
:1043F00093E081939193A12CB12CC12CD12C7F01FE
:10440000042F9E01A40181E993E30E94B81A5F8200
:104410004E829986888620917E1B30917F1B3D833A
:104420002C83D0937F1BC0937E1B1C861D8680909F
:104430008C1B90908D1B9FEF891A990A90928D1B6F
:1044400080928C1B9B868A861E861F86188A198AF4
:104450004114510409F44CC06BE0813041F1C201B8
:104460000E94B626EC0168EC7DE00E947126B30143
:10447000CE010E947126E881F9810280F381E02D4E
:1044800062E2CE01099566E0CE01DF91CF911F91E6
:104490000F91FF90EF90DF90CF90BF90AF909F90E3
:1044A0008F907F906F905F904F900C94B626C201D2
:1044B0000E94B626EC016EED7DE00E947126B301EC
:1044C000CE010E9471266BE0CE010E94B626EC015F
:1044D00065EE7DE00E94712663E0CE010E94B62663
:1044E000B4010E945C2762E00E94B62666E0CDCF50
:1044F000DF91CF911F910F91FF90EF90DF90CF90C0
:10450000BF90AF909F908F907F906F905F904F90F3
:104510000895EC01E881F9810190F081E02D099581
:104520001B821A826FEF7FEFCB010E94931EFACF9E
:10453000FC01648765870895FC01C681D7812097B7
:1045400039F0CE010E94712666E0CE010E94B626A7
:104550002BE088E190E00FB6F894A8958093600076
:104560000FBE20936000FFCF0E948C1C0E94CF34AE
:1045700020E030E04AE754E40E9467340895CF9287
:10458000DF92EF92FF920F931F93CF93DF93EC0193
:104590007B018A819B810E94A61C6C016BE0C70194
:1045A0000E94B6268C016CEF7DE00E947126B60158
:1045B000C8010E94712666E0C8010E94B6268A855D
:1045C0009B8528853985A701BC01821B930B0E941E
:1045D000A4250C80DD81C02D2097D9F6DF91CF91E5
:1045E0001F910F91FF90EF90DF90CF9008950F9360
:1045F0001F93CF93DF93EC0180917E1B90917F1BE3
:10460000009719F0BE010E94BF226BE0CE010E940C
:10461000B6268C0163E07EE00E94712666E0C80148
:104620000E94B62680918C1B90918D1BBC016F5F00
:104630007F4FAE0183569109DF91CF911F910F916A
:104640000C94A4258F929F92AF92BF92CF92DF924B
:10465000EF92FF920F931F93CF93DF93EC018B01A7
:104660008A819B810E94A61CBC01C8010E94712600
:10467000D801ED91FC910280F381E02D69E0C80141
:1046800009958A819B810E94A61CFC010190002053
:10469000E9F73197E81BF90B389748F4D801ED9109
:1046A000FC910280F381E02D69E0C8010995CE8478
:1046B000DF84E888F988A884B9848A819B810E9474
:1046C0006820982E8C848A819B810E94BF1B682F52
:1046D000C8010E94DE276BE00E94B626EC0167E766
:1046E0007EE00E947126682DCE010E94DE276BE0DD
:1046F0000E94B626EC0169E77EE00E947126692DD2
:10470000CE010E94DE276BE00E94B626EC016BE72B
:104710007EE00E947126B501CE010E945C276BE00D
:104720000E94B626EC016DE77EE00E9471266BE0E8
:10473000CE010E94B626EC016FE77EE00E94712652
:10474000B701A601CE01DF91CF911F910F91FF908C
:10475000EF90DF90CF90BF90AF909F908F900C9490
:1047600096270F931F93CF93DF93EC018B01E88182
:10477000F9810280F381E02DB801CE01099566E050
:10478000C8010E94B6260C80DD81C02D209779F7E4
:10479000DF91CF911F910F910895CF93DF93EC019B
:1047A000CB01DB01ED91FC910280F381E02DBE0194
:1047B0000995CE01DF91CF9108950F931F93CF9369
:1047C000DF93EC016BE00E94B6268C0165E67EE08B
:1047D0000E9471266BE0C8010E94B6268C0160E73A
:1047E0007EE00E94712666E0C8010E94B6266BE05A
:1047F000CE010E94B6268C0162E47EE00E94712602
:104800006BE0C8010E94B6268C0163E57EE00E9441
:1048100071266BE0C8010E94B6268C016FE57EE030
:104820000E94712666E0C8010E94B6266BE0CE01A8
:104830000E94B6268C016FE17EE00E9471266BE03B
:10484000C8010E94B6268C0160E37EE00E947126BA
:104850006BE0C8010E94B6268C016CE37EE00E94EA
:10486000712666E0C8010E94B62680917E1B909159
:104870007F1B009719F0BE010E94B1230E94B01C5B
:104880000E946820182F6BE0CE010E94B626EC0132
:104890006EE07EE00E947126612FCE010E94DE272D
:1048A0006BE00E94B626EC0169E17EE00E94712671
:1048B00064E670E0CE010E945C276BE00E94B626A1
:1048C000EC016BE17EE00E94712666E0CE01DF9193
:1048D000CF911F910F910C94B626CF92DF92EF9259
:1048E000FF920F931F93CF93DF937C018B01DC0129
:1048F0001A966D917C911B97C8010E947126F70151
:10490000A285B385FD0101900020E9F73197DE2EE5
:10491000DA1AFFE0FD1580F0C0E0D0E0D801ED919B
:10492000FC910280F381E02D60E2C8010995219697
:104930008C2F8D0D803190F365E873E0C8010E94E3
:104940007126D7015696CD90DC9057971E968D9183
:104950009C911F970E94B52F682FC8010E94DE27E7
:10496000EC01E881F9810280F381E02D6FE2099585
:10497000B601CE010E945C27DC01ED91FC91028022
:10498000F381E02D69E0099566E0C8010E94B62632
:10499000F70184859585009781F0DC01ED91FC910C
:1049A0000190F081E02DB801DF91CF911F910F911F
:1049B000FF90EF90DF90CF900994DF91CF911F91FE
:1049C0000F91FF90EF90DF90CF9008956F927F92BC
:1049D0008F929F92AF92BF92CF92DF92EF92FF920F
:1049E0000F931F93CF93DF93EC01762E672E4A012E
:1049F0005901670178010E946626B401CE0106962E
:104A00000E945D2180E993E09983888322EA33E064
:104A10003F832E83BD8AAC8A40E061E0872D0E94EF
:104A2000262D9F878E87C88AD98AEA8AFB8A7E8A42
:104A30006F8ADF91CF911F910F91FF90EF90DF90E0
:104A4000CF90BF90AF909F908F907F906F90089580
:104A500006970C946D24CF92DF92EF92FF920F9302
:104A60001F93CF93DF93CDB7DEB72F970FB6F89490
:104A7000DEBF0FBECDBF8C017B01DB016D917D914F
:104A80008D919C9128EE33E040E050E00E9420346C
:104A9000BA01A901C8010E949627D801ED91FC91A5
:104AA0000280F381E02D6EE2C8010995C7010E94E2
:104AB000DE2F6E01B9E0CB0ED11C7E01EFE0EE0ED1
:104AC000F11C2AE030E040E050E00E944234E62F42
:104AD00029833A834B835C8369817A818B819C81B2
:104AE000E05DD701EE937D01AC15BD0551F71F8642
:104AF000BD01C8010E947126C8012F960FB6F89417
:104B0000DEBF0FBECDBFDF91CF911F910F91FF9000
:104B1000EF90DF90CF900895CF93DF93EC010FB625
:104B2000F8940F9280912401909125019D838C83AC
:104B30000E948C1C688379838A839B830F900FBEAD
:104B4000CE01DF91CF9108958F929F92AF92BF9245
:104B5000CF92DF92EF92FF920F931F93CF93DF9349
:104B60006C014B01EA0163E0CA010E94B626C81439
:104B7000D90408F059C0560184E1A80EB11C750192
:104B8000B601CE010E945C276BE00E94B62661E868
:104B90007EE00E9471268601F80161918F01CE01AD
:104BA0000E94DE27E881F9810280F381E02D60E236
:104BB000CE0109950E151F0579F7E881F98102806C
:104BC000F381E02D60E2CE0109950FC080EE860FE3
:104BD000E881F9810280F381E02D8F3508F06EE2E3
:104BE000CE010995CE14DF0481F0F60161916F01C9
:104BF000653A61F7E881F9810280F381E02D60E296
:104C0000CE010995CE14DF0481F7650166E0CE017F
:104C10000E94B626F4E1EF0EF11CA814B90420F4AA
:104C2000C50144965C01ACCF62E0CE01DF91CF912B
:104C30001F910F91FF90EF90DF90CF90BF90AF90BA
:104C40009F908F900C94B6260C949919009711F0B0
:104C50000C94321A08950C949919009711F00C9441
:104C6000321A0895FC0181E090E02081222311F0A6
:104C700080E090E0089521E0FC01208308950895EC
:104C80000895CF93DF93EC01E881F9810280F381ED
:104C9000E02D611106C066E40995CE01DF91CF9148
:104CA000089564E50995CE01DF91CF91089581E0E3
:104CB000089580E0089580E008950895DC01ED9165
:104CC000FC910280F381E02D6CE00994FC0188EAFC
:104CD00093E0918380838AE0828383E085831482DA
:104CE00008950F931F93CF93DF93EC01FB018C8109
:104CF000811117C06081662379F08F010F5F1F4F0C
:104D0000E881F9810280F381E02DCE010995F80157
:104D100061918F016111F4CFDF91CF911F910F91BC
:104D200008951C828B010F5F1F4F64916623A1F3CE
:104D3000A881B9811296ED91FC911397CE01099546
:104D4000F80164910F5F1F4F6111F2CFE5CF8830FA
:104D500008F087E08093070289E008959EEF980F9E
:104D60009F3010F4809306028AE00895CF93DF937A
:104D7000EC01462F50E04C30510538F4FA01EA5965
:104D8000FF4F0C94613482E08A83CE01DF91CF9192
:104D9000089581E08C83F9CF88E08A83F6CF8AE09A
:104DA0008A83F3CF80E18A83F0CFE881F9810280A2
:104DB000F381E02D6DE00995E881F9810280F381AE
:104DC000E02D6AE0CE010995E0CFE881F981028407
:104DD000F385E02D0995D9CFE881F9810084F1852B
:104DE000E02D0995D2CF809107028D83CECF80919F
:104DF00006028A83CACF0F931F93CF93DF93CDB759
:104E0000DEB761970FB6F894DEBF0FBECDBF8C0141
:104E1000CB01F80122812A3079F0C8010E945C2779
:104E2000C80161960FB6F894DEBF0FBECDBFDF910B
:104E3000CF911F910F9108954AE050E0BE016F5F3E
:104E40007F4F0E947C35BE016F5F7F4FC8010E947B
:104E50007126E6CF0F931F93CF93DF93CDB7DEB7C5
:104E6000A2970FB6F894DEBF0FBECDBF8C01CB0169
:104E7000BA01F80122812A3089F0AB01BC01C801D6
:104E80000E949627C801A2960FB6F894DEBF0FBE07
:104E9000CDBFDF91CF911F910F9108952AE030E0AF
:104EA000AE014F5F5F4F0E949D35BE016F5F7F4F28
:104EB000C8010E947126E6CFFF920F931F93CF93F4
:104EC000DF93CDB7DEB761970FB6F894DEBF0FBEA4
:104ED000CDBF8C01F62E972FF8014281403191F021
:104EE000483081F0423071F050E0BE016F5F7F4F7B
:104EF0008F2D0E94F635BE016F5F7F4FC8010E9463
:104F0000712607C0692FC8010E94DE276F2D0E94FD
:104F1000DE27C80161960FB6F894DEBF0FBECDBF85
:104F2000DF91CF911F910F91FF900895DF92EF9243
:104F3000FF920F931F93CF93DF93CDB7DEB7A19767
:104F40000FB6F894DEBF0FBECDBF8C01D42EE52E78
:104F5000F62E972FF80122812031A1F0283091F010
:104F6000223081F030E0AE014F5F5F4F6D2D7E2D1E
:104F70008F2D0E94D135BE016F5F7F4FC8010E9407
:104F800071260DC0692FC8010E94DE276F2D0E9477
:104F9000DE276E2D0E94DE276D2D0E94DE27C801C0
:104FA000A1960FB6F894DEBF0FBECDBFDF91CF91B3
:104FB0001F910F91FF90EF90DF900895CF92DF92B5
:104FC000EF92FF920F931F93CF93DF93CDB7DEB78E
:104FD00029970FB6F894DEBF0FBECDBF8C01D62E39
:104FE000DC0113968C91139781115DC0F801428109
:104FF0004230D9F14031F1F050E0BE016F5F7F4F98
:105000008D2D90E00E94F635BE016F5F7F4FC80185
:105010000E947126C80129960FB6F894DEBF0FBE14
:10502000CDBFDF91CF911F910F91FF90EF90DF9057
:10503000CF90089562956F700190F081E02D02800D
:10504000F381E02D6A30B8F5605DC80109956D2DDA
:105050006F70D801ED91FC910280F381E02D6A30F0
:1050600060F1695CC8010995D5CF88E0E82EF12C84
:1050700090E8C92E0AC061E3C8010995C694B1E061
:10508000EB1AF108E114F10429F28C2D8D21D801DD
:10509000ED91FC910280F381E02D8111ECCF60E372
:1050A000C8010995EBCFED91FC910280F381E02DD1
:1050B000C8010995AFCF695CC8CF605DD3CFDC0173
:1050C0001896ED91FC91199780811C969C911C97E4
:1050D000892359F421E23EE405C02150310921150C
:1050E000310571F080818923C1F380811E969C91E6
:1050F0001E97892B80831696ED91FC9117976083FC
:105100000895FC01878581111DC02091881B309175
:10511000891B8091861B9091871B2817390789F07E
:10512000E0918A1BF0918B1BE20FF31F80812F5FB0
:105130003F4F2032310518F11092891B1092881BC5
:105140000895FFCF2091821B3091831B8091801B9B
:105150009091811B2817390789F0E091841BF09109
:10516000851BE20FF31F80812F5F3F4F20323105F7
:1051700058F01092831B1092821B0895FFCF30933A
:10518000891B2093881B08953093831B2093821BD7
:105190000895DC01ED91FC910280F381E02D6CE03B
:1051A0000994FC018785882369F081E04091821B86
:1051B0005091831B2091801B3091811B4217530714
:1051C00069F0089581E04091881B5091891B2091DE
:1051D000861B3091871B4217530799F780E008958B
:1051E000EF92FF921F93CF93DF9300D0CDB7DEB73E
:1051F0007C01142F69837A830E946626412F69817E
:105200007A81C70106960E941C3088EB93E0F70173
:105210009183808317871123E9F08091C90080680A
:105220008093C90080E290E00E942B269093851B1A
:105230008093841B1092831B1092821B1092811BFF
:105240001092801B0F900F90DF91CF911F91FF90D4
:10525000EF9008958091C10080688093C10080E242
:1052600090E00E942B2690938B1B80938A1B1092B8
:10527000891B1092881B1092871B1092861B0F901F
:105280000F90DF91CF911F91FF90EF9008951F92A3
:105290000F920FB60F9211240BB60F922F933F93DC
:1052A0008F939F93EF93FF932091C600E0918A1B09
:1052B000F0918B1B8091861B9091871BE80FF91F43
:1052C00020838091861B9091871B019680329105E7
:1052D000C0F49093871B8093861B2091881B30918C
:1052E000891B28173907D1F0FF91EF919F918F917A
:1052F0003F912F910F900BBE0F900FBE0F901F90FC
:1053000018951092871B1092861B80E090E02091E8
:10531000881B3091891B2817390731F70196909324
:10532000891B8093881B8097F8F21092891B10923A
:10533000881BDACF1F920F920FB60F9211240BB673
:105340000F922F933F938F939F93EF93FF9320910F
:10535000CE00E091841BF091851B8091801B909181
:10536000811BE80FF91F20838091801B9091811B86
:10537000019680329105C0F49093811B8093801B2D
:105380002091821B3091831B28173907D1F0FF91A0
:10539000EF919F918F913F912F910F900BBE0F90A6
:1053A0000FBE0F901F9018951092811B1092801BBA
:1053B00080E090E02091821B3091831B28173907F1
:1053C00031F701969093831B8093821B8097F8F2AC
:1053D0001092831B1092821BDACFFC0103969283FA
:1053E00081834FEF5FEFBA014383548365837683F4
:1053F000908787839287818710820895FC011386A6
:1054000012860895CF93DF939C01FB01DC01119676
:10541000CD91DC911297D583C4838E819F81978330
:1054200086838E819F81DC0115967C936E93149701
:105430007F836E8333872287F90180818F5F80832A
:10544000DF91CF9108950F931F93CF93DF93EB01DB
:10545000088119812A813B810F3F4FEF14072407F0
:10546000340731F1DC01139601C0DF011496ED9190
:10547000FC91159740815181628173810417150752
:105480002607370790F7FD83EC83D783C683BF8356
:10549000AE831596DC93CE9314979B878A87FC0185
:1054A00020812F5F2083DF91CF911F910F9108956D
:1054B000FC01A185B2851496ED91FC911597E3CF7F
:1054C000CF93DF93FC01A285B3852481358186814A
:1054D0009781E9019F838E8386819781EC013D83CB
:1054E0002C8311962D913C9112972E173F0741F076
:1054F000138612868C9181508C93DF91CF91089501
:1055000012969C938E931197138612868C918150DC
:105510008C93DF91CF91089590938D1B80938C1B7A
:1055200031E1FC013083319722E22083FC01329784
:10553000A3E3A083FC0133976083FC01349770835D
:10554000FC0135971082FC01369760E86083FC010E
:1055500037971082FC01389762E06083FC0139972D
:1055600063E06083FC013A9764E06083FC013B9751
:1055700065E06083FC013C9766E06083FC013D9739
:1055800067E06083FC013E9768E06083FC013F9721
:1055900069E06083FC01709760E16083FC017197B2
:1055A0003083FC01729732E13083FC01739733E161
:1055B0003083FC01749734E13083FC01759735E149
:1055C0003083FC01769736E13083FC01779737E131
:1055D0003083FC01789738E13083FC01799739E119
:1055E0003083FC017A9730E23083FC017B9731E213
:1055F0003083FC017C972083FC017D9723E220838C
:10560000FC017E974083FC017F975083FC01B0979B
:1056100026E22083FC01B19727E22083FC01B297A8
:1056200028E22083FC01B39729E22083FC01B49790
:1056300020E32083FC01B59721E32083869708951A
:1056400087E0809329018FEC809328018AE0809382
:105650002101E3E7F0E0808182608083A0911B1B41
:10566000B0911C1BCD91CDBFDD91DEBFFF91EF91BD
:10567000DF91CF91BF91AF919F918F917F916F916A
:105680005F914F913F912F911F910F91FF90EF905C
:10569000DF90CF90BF90AF909F908F907F906F9052
:1056A0005F904F903F902F901F900F900FBE0F90E4
:1056B000089581E0089508950F920FB6F8940F921F
:1056C0001F9211242F923F924F925F926F927F927E
:1056D0008F929F92AF92BF92CF92DF92EF92FF9202
:1056E0000F931F932F933F934F935F936F937F93EA
:1056F0008F939F93AF93BF93CF93DF93EF93FF93DA
:10570000A0911B1BB0911C1B0DB60D920EB60D92F5
:105710000E94C81EA0911B1BB0911C1BCD91CDBF38
:10572000DD91DEBFFF91EF91DF91CF91BF91AF91FE
:105730009F918F917F916F915F914F913F912F91A9
:105740001F910F91FF90EF90DF90CF90BF90AF909F
:105750009F908F907F906F905F904F903F902F9091
:105760001F900F900FBE0F9008950F920FB6F894F0
:105770000F921F9211242F923F924F925F926F923D
:105780007F928F929F92AF92BF92CF92DF92EF92D1
:10579000FF920F931F932F933F934F935F936F93BA
:1057A0007F938F939F93AF93BF93CF93DF93EF93A9
:1057B000FF93A0911B1BB0911C1B0DB60D920EB652
:1057C0000D920E94B51C81110E94C81EA0911B1B46
:1057D000B0911C1BCD91CDBFDD91DEBFFF91EF914C
:1057E000DF91CF91BF91AF919F918F917F916F91F9
:1057F0005F914F913F912F911F910F91FF90EF90EB
:10580000DF90CF90BF90AF909F908F907F906F90E0
:105810005F904F903F902F901F900F900FBE0F9072
:1058200008950E94B52B18951F93CF93DF93EC0139
:10583000142F88A181110DC088819981892B09F4C9
:105840004DC080E09E8D9F5F9E8FDF91CF911F9115
:105850000895482F50E011111CC08C819D810E9439
:105860005D3528A18C819D81820F911D9D838C8344
:105870002A813B818217930720F3888199819D8338
:105880008C8380E09E8D9F5F9E8FDF91CF911F91D3
:1058900008958E819F810E945D3528A130E0319569
:1058A000219531098E819F81820F931F9F838E8363
:1058B000688179818617970730F48A819B81820FEE
:1058C000931F9F838E83123009F0BBCF8E8D882368
:1058D00009F4B7CF8E8D81508E8FB3CF8A819B8193
:1058E0000E94E4201B821A82ADCFFC01CB0140A1B3
:1058F000442399F050E026813781240F351F3783E8
:105900002683628173812617370720F02081318139
:1059100037832683B9010C945D3508950F931F9347
:10592000CF93DF93EC010FB6F8940F928AA118166B
:10593000ECF48B898823D1F08E010D5E1F4F09C0D6
:105940008AA181508AA38AA1181684F48B8988239E
:1059500069F0C8010E94701F882391F30E9464209F
:105960008AA181508AA38AA1181684F38FEF8AA393
:105970000F900FBE0FB6F8940F9289A11816ECF491
:1059800088858823D1F08E01085F1F4F09C089A147
:10599000815089A389A1181684F48885882369F029
:1059A000C8010E94701F882391F30E94642089A17E
:1059B000815089A389A1181684F38FEF89A30F90D2
:1059C0000FBEDF91CF911F910F910895CF93DF9379
:1059D000EC010FB6F8940F92288139818F8D78A150
:1059E000879FC0011124A901480F591F5B834A8377
:1059F0001E8E3D832C83871B9109820F931F9F83EB
:105A00008E838FEF89A38AA3611112C088858111CB
:105A100006C00F900FBE81E0DF91CF910895CE01B7
:105A200008960E94701F8130A1F70E945C2BF1CF75
:105A3000CE0108960E94ED29CE0143960E94ED29E1
:105A40000F900FBE81E0DF91CF9108950F931F93C8
:105A5000CF93DF93182F062F882301F183E290E084
:105A60000E949919EC010097C9F0109FC001112400
:105A700001960E94991999838883892B61F01F8F61
:105A800008A361E0CE010E94E62CCE01DF91CF9108
:105A90001F910F910895CE010E94321AC0E0D0E00C
:105AA000CE01DF91CF911F910F9108956F927F9258
:105AB0008F929F92AF92BF92CF92DF92EF92FF921E
:105AC0000F93CF93DF93CDB7DEB729970FB6F89436
:105AD000DEBF0FBECDBF5C014B012E833F834887E5
