:100000000C9473090C9492090C9492090C94920923
:100010000C9492090C9492090C9492090C949209F4
:100020000C9492090C9492090C9492090C949209E4
:100030000C9492090C9492090C9492090C949209D4
:100040000C9492090C9492090C9492090C949209C4
:100050000C9492090C9492090C9492090C949209B4
:100060000C9492090C94A03D0C9492090C94920962
:100070000C9492090C9492090C9492090C94920994
:100080000C9492090C9492090C9492090C94920984
:100090000C94F33D0C9492090C9492090C949209DF
:1000A0000C9492090C9492090C9492090C94920964
:1000B0000C9492090C9492090C9492090C946A4045
:1000C0000C9492090C9492090C9492093312C81062
:1000D000A2118F118F119C128F11E03AE93AEC3A7C
:1000E000EF3AE23AE23AF23A023B093B103B143B68
:1000F000E63A416E676C652069733A20004D4534DD
:100100003035204C6162203520494D5520436F6EBB
:1001100074726F6C6C657200496C6C6567616C2001
:1001200073746174652120526573657474696E67B8
:1001300020415652001B5B003B0048001B5B004BFC
:1001400000090900090009000900090009001B5BFA
:10015000003B0048001B5B004B00202020200900D2
:1001600009000900090009000900092D3E507265C7
:1001700073732027712720746F2072657475726EF7
:1001800020746F20746865204D6F746F722000209A
:10019000436F6E74726F6C00092D3E5072657373FD
:1001A0002027722720746F2072656672657368203D
:1001B0007468652044617368426F61726420002D29
:1001C0003E53656C65637465643A20002D3E53654B
:1001D0006C65637465643A20002D3E43686F6F73ED
:1001E00065204D6F746F722000206F7065726174AE
:1001F000696F6E3A2000270027206973206E6F74A4
:1002000020612076616C696420656E7472792E00BD
:100210002D3E53656C65637465643A200020526519
:100220007475726E696E6720746F204D61696E20FF
:100230004D6F746F72204D6F64756C652E2E2000AB
:10024000092D3E50726573732027712720746F202B
:1002500072657475726E20746F20746865204D6FBE
:10026000746F72200020436F6E74726F6C00092DE2
:100270003E50726573732027722720746F20726559
:100280006672657368207468652044617368426FA4
:100290006172642000092D3E506F74656E74696F41
:1002A0006D65746572204163746976617465642E4E
:1002B000002D3E53656C65637465643A2000092D1A
:1002C0003E456E746572696E6720506F74656E741A
:1002D000696F6D6574657220436F6E74726F6C2EFA
:1002E0002E2E20002D3E43686F6F7365204D6F7476
:1002F0006F722000206F7065726174696F6E3A20B2
:10030000000928507265737320276F2720666F726B
:10031000206F7074696F6E732900092D3E52656CF1
:10032000656173696E67204D6F746F722E2E002D9C
:100330003E53656C65637465643A20002D3E4368E6
:100340006F6F7365204D6F746F722000206F706542
:10035000726174696F6E3A20000928507265737378
:1003600020276F2720666F72206F7074696F6E731D
:100370002900094272616B652073657420617420E5
:10038000002E2000092D3E456E746572207468654C
:10039000204272616B6520466F7263652830202DA4
:1003A0002032353529002D3E53656C6563746564D4
:1003B0003A20002D3E43686F6F7365204D6F746F58
:1003C000722000206F7065726174696F6E3A200050
:1003D0000928507265737320276F2720666F72207B
:1003E0006F7074696F6E73290009506F77657220A2
:1003F00073657420617420002E2000456E74657250
:100400002074686520506F7765722056616C756541
:1004100020282D32353520746F20323535293B00A8
:1004200020202A4E6F74653A204E656761746976A4
:10043000652056616C756573203D20526576657246
:100440007365002D3E53656C65637465643A2000E6
:1004500054727920416761696E2E2000092D3E5348
:100460007769746368696E6720746F20436F6E7478
:10047000726F6C206F66204D6F746F7220002E00BB
:10048000092D3E52657475726E20746F2074686514
:10049000204D61696E204D6F746F72204D6F6475D1
:1004A0006C6520746F2073776170204D6F746F726C
:1004B000732E002D3E53656C65637465643A2000AD
:1004C000092D3E52657475726E696E6720746F20D7
:1004D0004D697373696F6E20436F6E74726F6C2E0B
:1004E0002E2000092D3E52656C656173696E672090
:1004F0004D6F746F72732E2E00092D3E5265736519
:100500007474696E67204156522E2E00223A20578D
:1005100054463F00526573657474696E6720415696
:100520005200092D3E596F7520456E7465726564E1
:100530003A2000456E74657220646563696D616C74
:10054000206E756D65726963206469676974732CC8
:10055000207468656E2052455455524E206F7220AB
:10056000455343001B5B324A001B5B003B004800C5
:10057000092D3E537769746368696E6720746F2034
:100580004472697665204D6F64652E2E002D3E53B2
:10059000656C65637465643A20001B5B324A001B1E
:1005A0005B003B004800092D3E537769746368691E
:1005B0006E6720746F20494D55204D6F64756C65D2
:1005C0002E2E00092D3E436C656172696E672052C4
:1005D000656769737465727320616E64204D656E22
:1005E00075732E2E00092D3E496E7469616C697A0F
:1005F000696E6720494D552E2E002D3E53656C6562
:10060000637465643A20001B5B324A001B5B003B4D
:10061000004800092D3E537769746368696E67204E
:10062000746F20456E636F646572204D6F64756CE6
:10063000652E2E00092D3E436C656172696E672040
:1006400052656769737465727320616E64204D65CD
:100650006E75732E2E00092D3E496E7469616C69AA
:100660007A696E6720456E636F6465722E2E002D69
:100670003E53656C65637465643A2000092D3E53F2
:100680007769746368696E6720746F204D6F746F4B
:1006900072204D6F64756C652E2E00092D3E436CE3
:1006A000656172696E6720526567697374657273FC
:1006B00020616E64204D656E75732E2E00092D3EEF
:1006C000496E7469616C697A696E67204D6F746FE9
:1006D00072732E2E002D3E53656C65637465643A0B
:1006E00020001B5B34376D007C090920277127200F
:1006F0002020207175697420746F206D61696E20EF
:100700006D656E75202020202020202020202020B4
:1007100020202009097C007C2D2D2D2D2D2D2D2D07
:100720002D2D2D2D2D2D2D2D2D2D2D2D2D2D2D2DF9
:100730002D2D2D2D2D2D2D2D2D2D2D2D2D2D2D2DE9
:100740002D2D2D2D2D2D2D2D2D2D2D2D2D2D2D2DD9
:100750002D2D2D2D2D2D2D2D2D2D2D2D2D2D207C87
:10076000007C0909202020202020202020204A6F02
:1007700079537469636B20436F6E74726F6C204D94
:100780006F646520202020202020202009097C0083
:100790007C09092027712720202020717569742089
:1007A000746F206D61696E206D656E75202020204C
:1007B000202020202020202020202009097C007CCF
:1007C00009092020202055736520746865204A6F30
:1007D00079537469636B20746F206D6F7665206147
:1007E000726F756E64202020202009097C007C2D0A
:1007F0002D2D2D2D2D2D2D2D2D2D2D2D2D2D2D2D29
:100800002D2D2D2D2D2D2D2D2D2D2D2D2D2D2D2D18
:100810002D2D2D2D2D2D2D2D2D2D2D2D2D2D2D2D08
:100820002D2D2D2D2D2D2D2D2D2D2D2D2D2D2D2DF8
:100830002D2D2D2D2D207C007C090920202020200D
:100840002020202020447269766520436F6E7472E8
:100850006F6C204D6F6465202020202020202020F8
:1008600020202009097C00494D5520444154413A3B
:10087000200009092D3E20707265737320277227AE
:1008800020746F207265667265736820007C0909A8
:1008900020277127202020207175697420746F2013
:1008A0006D61696E206D656E7520202020202020EE
:1008B000202020202020202009097C007C090920FC
:1008C0002772272020202052656672657368207485
:1008D0006865206461746120202020202020202071
:1008E0002020202020202009097C007C2D2D2D2D6A
:1008F0002D2D2D2D2D2D2D2D2D2D2D2D2D2D2D2D28
:100900002D2D2D2D2D2D2D2D2D2D2D2D2D2D2D2D17
:100910002D2D2D2D2D2D2D2D2D2D2D2D2D2D2D2D07
:100920002D2D2D2D2D2D2D2D2D2D2D2D2D2D2D2DF7
:100930002D2D207C007C0909202020202020202033
:100940002020494D5520436F6E74726F6C204D6F9F
:1009500064756C652020202020202020202020206D
:1009600009097C00456E636F64657220436F756E84
:10097000743A2000456E636F646572205469636B3E
:10098000732F6D733A200009092D3E207072657334
:10099000732027722720746F2072656672657368F2
:1009A00020007C09092027712720202020717569EB
:1009B0007420746F206D61696E206D656E752020E6
:1009C0002020202020202020202020202009097CF9
:1009D000007C09092027722720202020526566729A
:1009E000657368207468652064617461202020202C
:1009F00020202020202020202020202009097C00E9
:100A00007C2D2D2D2D2D2D2D2D2D2D2D2D2D2D2DC7
:100A10002D2D2D2D2D2D2D2D2D2D2D2D2D2D2D2D06
:100A20002D2D2D2D2D2D2D2D2D2D2D2D2D2D2D2DF6
:100A30002D2D2D2D2D2D2D2D2D2D2D2D2D2D2D2DE6
:100A40002D2D2D2D2D2D2D207C007C0909202020E1
:100A50002020202020456E636F64657220436F6EF6
:100A600074726F6C204D6F64756C6520202020209F
:100A7000202020202009097C004D453430352054A9
:100A8000657374696E6720506C617466726F6D2057
:100A900076372E30004A756E2031302032303136B4
:100AA0000053797374656D2074696D653A20002C6C
:100AB00020486561703A20002C204F435235413A5E
:100AC00020003C696E76616C696420636861722005
:100AD0002200223E002020683A2020202020484189
:100AE0004C502100202043746C2D433A20526573F2
:100AF000657420746865204156520020206E3A20AB
:100B000020202020456E7465722061206E756D6214
:100B10006572202864656D6F29002020643A2020CA
:100B2000202020537461636B2064756D7020666FA4
:100B300072207461736B73002020733A2020202090
:100B40002056657273696F6E20616E6420736574E0
:100B5000757020696E666F726D6174696F6E0020CA
:100B600020743A202020202053686F772074686515
:100B70002074696D65207269676874206E6F7700F4
:100B80004D453430352054657374696E6720506C60
:100B9000617466726F6D2076372E30002068656C48
:100BA0007000446562756767696E6720496E666F9D
:100BB0003A20002D2D2D2D2D2D2D09092D2D2D2DDA
:100BC0002D2D2D2D092D2D2D2D2D2D2D09092D2DC1
:100BD0002D2D2D2D2D2D2D2D2D004D6F746F720966
:100BE00009536574506F696E740920506F77657290
:100BF0000909456E636F646572436F756E74002DED
:100C00002D2D2D2D2D2D09092D2D2D2D2D2D2D2D5C
:100C1000092D2D2D2D2D2D2D09092D2D2D2D2D2D70
:100C20002D2D2D2D2D004D6F746F7220310909006F
:100C3000090009000900090009002D2D2D2D2D2D79
:100C40002D09092D2D2D2D2D2D2D2D092D2D2D2D40
:100C50002D2D2D09092D2D2D2D2D2D2D2D2D2D2D0C
:100C6000005354455F5009094E636F6465722F73DA
:100C70000920582D444952430909592D44495243EA
:100C8000002D2D2D2D2D2D2D09092D2D2D2D2D2D09
:100C90002D2D092D2D2D2D2D2D2D09092D2D2D2DF0
:100CA0002D2D2D2D2D2D2D004D6F746F722031099E
:100CB0000900090009000900090009002D2D2D2D4A
:100CC0002D2D2D09092D2D2D2D2D2D2D2D092D2DC0
:100CD0002D2D2D2D2D09092D2D2D2D2D2D2D2D2D8C
:100CE0002D2D004D6F746F72090953746174757303
:100CF0000909506F776572090944697265637469FF
:100D00006F6E002D2D2D2D2D2D2D09092D2D2D2D05
:100D10002D2D2D2D092D2D2D2D2D2D2D09092D2D6F
:100D20002D2D2D2D2D2D2D2D2D004D6F746F7220FD
:100D30003109090009000909007C090920277127E8
:100D4000202020202052657475726E20746F2070F0
:100D5000726576696F7573206D656E752009097C03
:100D6000007C0909202770272020202020456E7450
:100D7000657220506F74656E74696F6D657465720D
:100D8000204D6F646509097C007C090920276627CE
:100D9000202020202046726565776865656C206D8F
:100DA0006F746F7220202020202020202009097CD1
:100DB000007C090920276227202020202041707014
:100DC0006C7920746865206D6F746F722062726137
:100DD0006B6520202009097C007C090920277327E6
:100DE000202020202053657420746865206D6F7466
:100DF0006F7220706F776572202020202009097C97
:100E0000007C2D2D2D2D2D2D2D2D2D2D2D2D2D2DF0
:100E10002D2D2D2D2D2D2D2D2D2D2D2D2D2D2D2D02
:100E20002D2D2D2D2D2D2D2D2D2D2D2D2D2D2D2DF2
:100E30002D2D2D2D2D2D2D2D2D2D2D2D2D2D2D2DE2
:100E40002D7C007C090920202053696E676C652089
:100E50004D6F746F7220436F6E74726F6C204D6FA4
:100E600064756C6520202009097C007C090920201C
:100E700020204D61696E204D6F746F7220436F6E3C
:100E800074726F6C204D6F64756C65202020200992
:100E9000097C007C2D2D2D2D2D2D2D2D2D2D2D2D35
:100EA0002D2D2D2D2D2D2D2D2D2D2D2D2D2D2D2D72
:100EB0002D2D2D2D2D2D2D2D2D2D2D2D2D2D2D2D62
:100EC0002D2D2D2D2D2D2D2D2D2D2D2D2D2D2D2D52
:100ED0002D2D2D7C007C0909202731272020202062
:100EE00020746F206F706572617465204D6F746F30
:100EF00072203120202020202009097C007C090953
:100F0000202732272020202020746F206F706572E8
:100F1000617465204D6F746F722032202020202074
:100F20002009097C007C0909202771272020202026
:100F30002052657475726E20746F204D61696E2049
:100F40004D656E75202020202009097C001B5B3434
:100F5000376D001B5B33316D004D45343035205407
:100F6000657374696E6720506C617466726F6D2072
:100F700076372E300009090920202020004A756E9E
:100F80002031302032303136001B5B33306D007C35
:100F90000909202020204D697373696F6E20436F0B
:100FA0006E74726F6C2050726F6772616D20763153
:100FB0002E302020202009097C007C2D2D2D2D2D68
:100FC0002D2D2D2D2D2D2D2D2D2D2D2D2D2D2D2D51
:100FD0002D2D2D2D2D2D2D2D2D2D2D2D2D2D2D2D41
:100FE0002D2D2D2D2D2D2D2D2D2D2D2D2D2D2D2D31
:100FF0002D2D2D2D2D2D2D2D2D2D7C007C09092005
:101000002020202020202020456E746572204D6F06
:10101000746F7220436F6E74726F6C204D6F6475C5
:101020006C6520202009097C001B5B34376D007C37
:101030000909202020202020202020456E74657280
:1010400020456E636F64657220436F6E74726F6CBF
:10105000204D6F64756C652009097C007C090920AE
:101060002020202020202020456E74657220494DCC
:101070005520436F6E74726F6C204D6F64756C6594
:10108000202020202009097C007C09092020202024
:101090002020202020456E74657220447269766598
:1010A000204D6F646520202020202020202020203B
:1010B000202009097C007C090920202020202020F4
:1010C0002020446973706C617920616C6C206F70B2
:1010D00074696F6E7320202020202020202020099A
:1010E000097C007C0909202020202020202020527B
:1010F0006573657420415652202020202020202036
:1011000020202020202020202020202009097C00D1
:10111000204552524F523A20005F41434B004375E5
:101120007272656E74204368616E6E656C205265E4
:101130006164696E67733A2000456E64205072697D
:101140006E7420446174610054686973204843548C
:101150004C2D32303030206973207573696E6720F2
:1011600074686573652070696E733A004F4520702E
:10117000696E3A20005368617261626C6520706923
:101180006E733A0053454C2070696E3A20004461FA
:1011900074612062757320706F72743A2000496E1A
:1011A000697469616C697A6564204932433A200048
:1011B0004D6F746F722044726976657220496E704B
:1011C00075743A2000536572766F204472697665B3
:1011D0007220496E7075743A20004E6F20736861FA
:1011E0007265642064617461206974656D73207434
:1011F0006F207072696E74002D2D2D2D20202020FF
:1012000020202020202020202D2D2D2D20202020AA
:101210002D2D2D2D2D2D2D2D2D2D00536861726519
:101220002F51756575652020202020547970652028
:10123000202020467265652F546F74616C00455202
:10124000524F52206372656174696E6720746173D6
:101250006B2022005461736B202200222063726590
:10126000617465642C20737461636B206174203039
:10127000780049444C45090930092D09002F00091F
:10128000092D002D2D2D2D09092D2D2D2D092D2D4B
:101290002D2D2D00092D2D2D2D2D2D2D2D2D2D00FC
:1012A000092D2D2D2D004E616D6509095072692E95
:1012B0000953746174650009467265652F546F7433
:1012C000616C000952756E73005461736B090920DB
:1012D0002009200009537461636B00090009002F85
:1012E00000090009000011241FBECFEFD1E2DEBFCC
:1012F000CDBF15E0A0E0B2E0EAE2FFE800E00BBFFE
:1013000002C007900D92AE3DB107D9F71DE1AEEDD9
:10131000B5E001C01D92A63BB107E1F70E949542DE
:101320000C9493470C9400000F931F93CF93DF937B
:10133000EC0166E08E819F810E94D33A6BE08E8142
:101340009F810E94D33A8C0163E47EE00E948E3A32
:1013500066E0C8010E94D33A6BE08E819F810E94B3
:10136000D33A8C0161E07EE00E948E3A66E0C801CB
:101370000E94D33A6BE08E819F810E94D33A8C0108
:1013800069ED7DE00E948E3A66E0C8010E94D33A82
:101390006BE08E819F810E94D33A8C0161EB7DE0EE
:1013A0000E948E3A66E0C8010E94D33A6BE08E81BB
:1013B0009F810E94D33A8C0169E87DE00E948E3AB9
:1013C00066E0C8010E94D33A6BE08E819F810E9443
:1013D000D33A8C0161E67DE00E948E3A66E0C80156
:1013E0000E94D33A6BE08E819F810E94D33A8C0198
:1013F00069E37DE00E948E3A66E0C8010E94D33A1C
:1014000081E088A7DF91CF911F910F9108952F92CE
:101410003F924F925F926F927F928F929F92AF9284
:10142000BF92CF92DF92EF92FF920F931F93CF93D1
:10143000DF93EC018D8D8823C1F0813009F49BC1CD
:10144000823009F4AAC1833009F4A2C17EE4A72E38
:1014500073E0B72E898D9A8D97FD95C1892B49F040
:1014600045E4E42E43E0F42E08C060E3A62E63E0DA
:10147000B62E59E3E52E53E0F52E66E08E819F816E
:101480000E94D33AC98CDA8C6BE08E819F810E94D6
:10149000D33A8C016CEB7CE00E948E3A66E0C80186
:1014A0000E94D33A6BE00E94D33A8C0163EE7CE059
:1014B0000E948E3A66E0C8010E94D33A6BE00E9417
:1014C000D33A8C0163E07DE00E948E3A66E0C80169
:1014D0000E94D33A6BE00E94D33A8C016AE27DE02D
:1014E0000E948E3AB501C8010E948E3A6BE0C80195
:1014F0000E94D33A8C0164E37DE00E948E3AB601EB
:10150000C8010E94183B6BE00E94D33A8C0166E34D
:101510007DE00E948E3AB701C8010E948E3A66E0D3
:10152000C8010E94D33A66E00E94D33A2EA03FA0A1
:101530004CA05DA00FB6F8940F92E091F005F091E9
:10154000F105008511850F900FBE0FB6F8940F922C
:10155000E091F805F091F905C084D184E284F38428
:101560000F900FBE0FB6F8940F92E091FC05F0912A
:10157000FD05A084B1840F900FBE0FB6F8940F92B2
:10158000E091FE05F091FF05808491840F900FBEDD
:1015900066E08E819F810E94D33A6BE00E94D33A2D
:1015A0003C0162EA7BE00E948E3A66E0C3010E9441
:1015B000D33A6BE00E94D33A3C0163EB7BE00E949C
:1015C0008E3A66E0C3010E94D33A6BE00E94D33AA0
:1015D0003C016AED7BE00E948E3A66E0C3010E9406
:1015E000D33A6BE00E94D33A3C016FEF7BE00E945C
:1015F0008E3A66E0C3010E94D33A6BE00E94D33A70
:101600003C0166E27CE00E948E3AB401C3010E9474
:10161000183B6BE00E94D33A4C0160E37CE00E94EF
:101620008E3A6BE0C4010E94D33A4C0162E37CE045
:101630000E948E3AB501C4010E94183B6BE00E94E3
:10164000D33A5C0164E37CE00E948E3A6BE0C50112
:101650000E94D33A5C0166E37CE00E948E3AB701B7
:10166000A601C5010E94473B6BE00E94D33A7C0172
:1016700068E37CE00E948E3A66E0C7010E94D33A9C
:101680006BE00E94D33A7C016AE37CE00E948E3AD0
:1016900066E0C7010E94D33A6BE00E94D33A7C0116
:1016A00061E67CE00E948E3A66E0C7010E94D33A70
:1016B0006BE00E94D33A7C0161E87CE00E948E3AA4
:1016C00066E0C7010E94D33A6BE00E94D33A7C01E6
:1016D00068EA7CE00E948E3AB801C7010E94183B7C
:1016E0006BE00E94D33A8C0162EB7CE00E948E3A60
:1016F0006BE0C8010E94D33A8C0164EB7CE00E944D
:101700008E3AB201C8010E94183B6BE00E94D33AA6
:101710008C0166EB7CE00E948E3A6BE0C8010E946F
:10172000D33A8C0168EB7CE00E948E3AB101C8018B
:101730000E94183B6BE00E94D33A8C016AEB7CE07C
:101740000E948E3A66E0C8010E94D33A81E088A7E1
:10175000DF91CF911F910F91FF90EF90DF90CF908D
:10176000BF90AF909F908F907F906F905F904F90C1
:101770003F902F90089527E6A22E23E0B22E898D68
:101780009A8D97FF6BCE3DE3E32E33E0F32E75CEBB
:1017900085E5A82E83E0B82E5DCE9EE5A92E93E0C8
:1017A000B92E58CE0F931F93CF93DF93EC0188A5EA
:1017B0008111AFC06BE08E819F810E94D33A8C0172
:1017C0006DE47FE00E948E3A6BE0C8010E94D33A3C
:1017D0008C0163E57FE00E948E3A66E0C8010E94BA
:1017E000D33A6BE00E94D33A8C0169E57FE00E9416
:1017F0008E3A66E0C8010E94D33A66E00E94D33A6E
:101800006BE00E94D33A8C0165E77FE00E948E3A3C
:101810006BE0C8010E94D33A8C016DE77FE00E9423
:101820008E3A66E0C8010E94D33A6BE00E94D33A38
:101830008C0169E87FE00E948E3A6BE0C8010E944B
:10184000D33A8C016FE87FE00E948E3A66E0C801CF
:101850000E94D33A6BE00E94D33A8C016AEB7FE09E
:101860000E948E3A66E0C8010E94D33A6BE00E9463
:10187000D33A8C016CEF7FE00E948E3A6BE0C80196
:101880000E94D33A8C0169E270E10E948E3A66E0D0
:10189000C8010E94D33A6BE00E94D33A8C016FE2F8
:1018A00070E10E948E3A66E0C8010E94D33A6BE074
:1018B0000E94D33A8C016CE570E10E948E3A66E09A
:1018C000C8010E94D33A6BE00E94D33A8C0169E8C8
:1018D00070E10E948E3A66E0C8010E94D33A6BE044
:1018E0000E94D33A8C0166EB70E10E948E3A66E06A
:1018F000C8010E94D33A6BE00E94D33A8C0163EE98
:1019000070E10E948E3A66E0C8010E94D33A81E0FD
:1019100088A7DF91CF911F910F9108950F931F9387
:10192000CF93DF93EC0188A5811146C066E08E81DC
:101930009F810E94D33A66E00E94D33A6BE00E94F6
:10194000D33A8C016BE67EE00E948E3A66E0C801D5
:101950000E94D33A6BE00E94D33A8C0163E97EE0A7
:101960000E948E3A66E0C8010E94D33A6BE00E9462
:10197000D33A8C0165ED7EE00E948E3A66E0C801A4
:101980000E94D33A6BE00E94D33A8C016DEF7EE067
:101990000E948E3A66E0C8010E94D33A6BE00E9432
:1019A000D33A8C0165E27FE00E948E3A66E0C8017E
:1019B0000E94D33A81E088A7DF91CF911F910F91C8
:1019C0000895FC0120A5211108950C949409FC01AF
:1019D00020A5211102C00C94070A08950F931F93AC
:1019E000CF93DF93EC0166E08E819F810E94D33A12
:1019F0006BE00E94D33A8C0160E87BE00E948E3A53
:101A00006BE0C8010E94D33A8C016CE97BE00E9434
:101A10008E3A66E0C8010E94D33A6BE08E819F81C6
:101A20000E94D33A8C016FE57BE00E948E3A66E01B
:101A3000C8010E94D33A6BE08E819F810E94D33A05
:101A40008C0168E37BE00E948E3A66E0C8010E9448
:101A5000D33A6BE08E819F810E94D33A8C016AE178
:101A60007BE00E948E3A66E0C8010E94D33A6BE0A8
:101A70008E819F810E94D33A8C016BEF7AE00E94A5
:101A80008E3A66E0C8010E94D33A6BE08E819F8156
:101A90000E94D33A8C0164EE7AE00E948E3A66E0AE
:101AA000C8010E94D33A6BE08E819F810E94D33A95
:101AB000EC0165ED7AE00E948E3A66E0CE01DF919E
:101AC000CF911F910F910C94D33ACF93DF93EC01F8
:101AD0008E819F81DC01ED91FC910480F581E02DE8
:101AE0000995811104C080E0DF91CF9108958E8126
:101AF0009F81DC01ED91FC910680F781E02D099535
:101B00008A8B81E0DF91CF910895CF92DF92FF928F
:101B10000F931F93CF93DF931F92CDB7DEB76C0166
:101B2000DC0154961C921E925397F12CF60186818B
:101B30009781DC01ED91FC910480F581E02D099500
:101B4000882309F440C0F60186819781DC01ED917C
:101B5000FC910680F781E02D0995282FF601828BF4
:101B600080ED820F8A3008F458C02D3209F478C015
:101B7000213709F498C02A3009F47FC02D3009F4C8
:101B800084C02B3109F481C06BE0F6018681978116
:101B900029830E94D33A8C0162EC7AE00E948E3A4B
:101BA000D801ED91FC910280F381E02D2981622F13
:101BB000C80109956BE0C8010E94D33A62ED7AE052
:101BC0000E948E3AB3CF8091000690910106DC010D
:101BD000ED91FC910480F581E02D0995882309F4AD
:101BE000A5CFD6011696ED91FC9117970190F08143
:101BF000E02D028113818091000690910106DC01A5
:101C0000ED91FC910680F781E02D0995682FF60192
:101C100086819781F801099589CF86819781DC01BA
:101C2000ED91FC910280F381E02D622F0995F60180
:101C300023893489C901880F991F220F331F220F6E
:101C4000331F220F331F820F931F2289332727FD53
:101C5000309520533109820F931F948B838B66CF6D
:101C600086819781DC01ED91FC910280F381E02D6A
:101C70006DE20995FF24F39459CF60E773E0F60114
:101C8000868197810E948E3A51CFFF2061F0D60164
:101C900053968D919C915497919581959109549665
:101CA0009C938E9353970F90DF91CF911F910F913B
:101CB000FF90DF90CF9008958F929F92AF92BF9246
:101CC000CF92DF92EF92FF920F931F93CF93DF9308
:101CD00000D000D000D0CDB7DEB78C0119821A82B7
:101CE0001B821C821E821D82C0902801D090290177
:101CF0000E94932B5C01CE0101960E94293A4C016F
:101D000066E0F801868197810E94D33A6BE00E94D9
:101D1000D33A7C0169E77AE00E948E3A6BE0C70112
:101D20000E94D33A7C0165E97AE00E948E3A66E02F
:101D3000C7010E94D33A6BE00E94D33A7C0161EA6A
:101D40007AE00E948E3AB401C7010E94C8396BE064
:101D50000E94D33A7C016FEA7AE00E948E3AB50184
:101D6000C7010E94B53B7C0162E773E00E948E3A96
:101D700048E357E160E070E0C7010E94EF3B6BE091
:101D80000E94D33A7C0168EB7AE00E948E3AB60159
:101D9000C7010E94B53B66E00E94D33A66E00E940C
:101DA000D33AF801868197810E947A3866E0F8017B
:101DB000868197810E94D33AF801868197810E949B
:101DC0009D3626960FB6F894DEBF0FBECDBFDF91CD
:101DD000CF911F910F91FF90EF90DF90CF90BF9028
:101DE000AF909F908F9008950FB6F8940F92E09166
:101DF000FA05F091FB0520870F900FBE0FB6F894FF
:101E00000F92E091FE05F091FF05518740870F90FA
:101E10000FBEFC01258F528F418F089561507109CB
:101E200081E06230710508F080E00895FC0110A6A1
:101E30000895AF92BF92CF92DF92EF92FF920F93ED
:101E40001F93CF93DF93EC0188A5811185C06BE0D0
:101E50008E819F810E94D33A8C016AE47AE00E94CD
:101E60008E3A66E0C8010E94D33A6BE08E819F8172
:101E70000E94D33A8C0160E07AE00E948E3A66E0DC
:101E8000C8010E94D33A6BE08E819F810E94D33AB1
:101E90008C0161ED79E00E948E3A66E0C8010E94F3
:101EA000D33A6BE08E819F810E94D33A8C0162EA23
:101EB00079E00E948E3A66E0C8010E94D33A0FB6DC
:101EC000F8940F92E091F605F091F705A084B184A3
:101ED0000F900FBE0FB6F8940F92E091F805F091B5
:101EE000F905C084D184E284F3840F900FBE6BE0C7
:101EF0008E819F810E94D33A8C0164E679E00E9432
:101F00008E3AB701A601C8010E94473B66E00E94D5
:101F1000D33A6BE00E94D33A8C0164E779E00E94E7
:101F20008E3AB501C8010E94183B66E00E94D33A80
:101F300066E00E94D33A6BE00E94D33A8C0167E8D6
:101F400079E00E948E3A66E0C8010E94D33A66E0CA
:101F50000E94D33A81E088A7DF91CF911F910F9122
:101F6000FF90EF90DF90CF90BF90AF900895CF9209
:101F7000DF92EF92FF920F931F93CF93DF93EC01C9
:101F800088A581116BC06BE08E819F810E94D33A3E
:101F90008C0165E379E00E948E3A66E0C8010E94F8
:101FA000D33A6BE08E819F810E94D33A8C016BEE15
:101FB00078E00E948E3A66E0C8010E94D33A6BE056
:101FC0008E819F810E94D33A8C016CEB78E00E9455
:101FD0008E3A66E0C8010E94D33A6BE08E819F8101
:101FE0000E94D33A8C016DE878E00E948E3A66E058
:101FF000C8010E94D33A0FB6F8940F92E091F80509
:10200000F091F905C084D184E284F3840F900FBE6F
:102010006BE08E819F810E94D33A8C0167E678E065
:102020000E948E3AB701A601C8010E94473B66E0B4
:102030000E94D33A66E00E94D33A6BE00E94D33A02
:102040008C0162E778E00E948E3A66E0C8010E9447
:10205000D33A66E00E94D33A81E088A7DF91CF911E
:102060001F910F91FF90EF90DF90CF9008950F9305
:102070001F93CF93DF93EC0188A5882329F0DF918C
:10208000CF911F910F9108956BE08E819F810E94E7
:10209000D33A8C0168E378E00E948E3A66E0C8018A
:1020A0000E94D33A6BE08E819F810E94D33A8C01CB
:1020B0006EEE77E00E948E3A66E0C8010E94D33A45
:1020C0006BE08E819F810E94D33A8C016FEB77E0A9
:1020D0000E948E3A66E0C8010E94D33A6BE08E817E
:1020E0009F810E94D33A8C0160E977E00E948E3A8A
:1020F00066E0C8010E94D33A66E00E94D33A88A500
:10210000882339F081E088A7DF91CF911F910F914B
:102110000895CE010E94070AF5CFCF93DF93CDB784
:10212000DEB72C970FB6F894DEBF0FBECDBF8C0183
:1021300019821A821B821C821E821D82DC01549627
:102140001C921E925397F801848590E08730910588
:10215000D0F06BE0868197810E94D33A8C0168E1D0
:1021600071E00E948E3A66E0C8010E94D33A2BE0EB
:1021700088E190E00FB6F894A895809360000FBEB8
:1021800020936000FFCFFC01EA59FF4F0C94754586
:10219000F8018589811165C380A5811103C0C8013B
:1021A0000E949409C8010E94650D882309F4B7C0F4
:1021B000F80122892F3609F453C50CF4DFC4213706
:1021C00009F4AFC40CF43CC4233709F071C36BE0CD
:1021D000868197810E94D33A7C0163E474E00E9477
:1021E0008E3AD701ED91FC910280F381E02D63E7F7
:1021F000C701099566E0C7010E94D33A66E0F8017D
:10220000868197810E94D33A6BE00E94D33A7C0189
:102210006BEF73E00E948E3A66E0C7010E94D33AEA
:102220006BE00E94D33A7C0160E274E00E948E3A37
:1022300066E0C7010E94D33AC8010E94850DD8010B
:1022400053968D919C9154970FB6F8940F92E0910C
:10225000FA05F091FB0521E020870F900FBE0FB625
:10226000F8940F92E091FE05F091FF059187808729
:102270000F900FBEF801258F928F818FC388D4886D
:1022800066E0868197810E94D33A66E00E94D33A45
:102290006BE00E94D33A7C0169EE73E00E948E3AB3
:1022A000B601C7010E94183B6BE00E94D33A7C0143
:1022B00068EF73E00E948E3A66E0C7010E94D33A4D
:1022C000D80198961C92C8010E94070AF801D78C81
:1022D00066E0868197810E94D33A6BE00E94D33AF0
:1022E0007C0163EB73E00E948E3A6D2DC7010E9462
:1022F000373C6BE00E94D33A7C0163EC73E00E94B0
:102300008E3A6BE0C7010E94D33A7C0160ED73E026
:10231000C7010E948E3A66E0C7010E94D33AF801D5
:1023200086859785A089B1890196A11DB11D8687F3
:102330009787A08BB18B68EE73E080E090E00E94FD
:10234000933301CFC8010E94650D882309F45EC054
:10235000D80152968C915297813709F41EC5823765
:1023600009F054C066E0D80116968D919C9117979C
:102370000E94D33A6BE00E94D33A7C016FEB71E08C
:102380000E948E3AD701ED91FC910280F381E02DFD
:1023900062E7C701099566E0C7010E94D33AF801D8
:1023A00010A6C8010E94070AD8015F96DC905F97CB
:1023B00066E016968D919C9117970E94D33A66E03D
:1023C0000E94D33A6BE00E94D33A7C016AE671E046
:1023D0000E948E3A6D2DC7010E94373C6BE00E942F
:1023E000D33A7C016FE871E00E948E3A66E0C70143
:1023F0000E94D33A6BE00E94D33A7C0168E971E015
:102400000E948E3A66E0C7010E94D33A0FB6F89454
:102410000F92E091FC05F091FD05808591850F906C
:102420000FBE0FB6F8940F92E091FA05F091FB05FC
:10243000B3E0B0870F900FBE0FB6F8940F92E09103
:10244000FE05F091FF05918780870F900FBE23E076
:10245000F801258F928F818F80A5811160CFC801EF
:102460000E94070A5CCFC8010E94D20BC8010E94DB
:10247000650D882309F453CFD80152962C91283644
:1024800009F4BCC50CF43BC52E3609F4B5C10CF0FB
:1024900037C6293609F4C3C42D3609F0A1C46BE050
:1024A000F801868197810E94D33A7C0165ED76E040
:1024B0000E948E3AD701ED91FC910280F381E02DCC
:1024C0006DE6C701099566E0F801868197810E9453
:1024D000D33A66E00E94D33A6BE00E94D33A7C0183
:1024E0006CE776E00E948E3A66E0C7010E94D33A1C
:1024F0006BE00E94D33A7C016BE976E00E948E3A51
:1025000066E0C7010E94D33A6BE00E94D33A7C0197
:102510006DEB76E00E948E3A66E0C7010E94D33AE6
:10252000D80198961C92989781E055968C9361E01B
:10253000C8010E949837F3CED80157968C91882312
:1025400009F4EDCEC8010E9437100FB6F8940F922F
:10255000E091E805F091E9058085918598878F8362
:102560000F900FBE0FB6F8940F92E091EA05F0912C
:10257000EB05A085B185BA87A9870F900FBE0FB66E
:10258000F8940F92E091F605F091F70520853185DA
:102590000F900FBE0FB6F8940F92E091F005F091F6
:1025A000F105208431840F900FBE0FB6F8940F927E
:1025B000E091F805F091F905C084D184E284F384B8
:1025C0000F900FBE0FB6F8940F92E091FC05F091BA
:1025D000FD05408451840F900FBE0FB6F8940F9202
:1025E000E091FE05F091FF05A084B1840F900FBE2D
:1025F0000FB6F8940F92E091E605F091E70580841C
:1026000091840F900FBE6BE0F801868197812C8733
:102610003B870E94D33A3C0165E371E00E948E3A09
:1026200063E1C3010E94373C6BE00E94D33A3C0156
:1026300068E371E00E948E3A61E0C3010E94373C7A
:102640006BE00E94D33A3C016AE371E00E948E3A4B
:102650006BE0C3010E94D33A3C016CE371E00E943D
:102660008E3A60E0C3010E94373C6BE00E94D33A8F
:102670003C016FE371E00E948E3AB401C3010E94F5
:10268000183B6BE00E94D33A4C0161E471E00E9478
:102690008E3AB501C4010E94183B6BE00E94D33A08
:1026A0005C0164E471E00E948E3A6BE0C5010E9417
:1026B000D33A5C0166E471E00E948E3AB201C50132
:1026C0000E94183B6BE00E94D33A5C0168E471E021
:1026D0000E948E3A6BE0C5010E94D33A5C016AE425
:1026E00071E00E948E3AB701A601C5010E94473BE6
:1026F0006BE00E94D33A7C016CE471E00E948E3A58
:102700006BE0C7010E94D33A7C016EE471E00E9445
:102710008E3A67E1C7010E94373C6BE00E94D33AD2
:102720007C0161E571E00E948E3A61E0C7010E9480
:10273000373C6BE00E94D33A7C0163E571E00E9474
:102740008E3A6BE0C7010E94D33A7C0165E571E0E7
:102750000E948E3A60E0C7010E94373C6BE00E9405
:10276000D33A7C0168E571E00E948E3AB101C7015D
:102770000E94183B6BE00E94D33A7C016AE571E04D
:102780000E948E3A2C853B85B901C7010E94183BF7
:102790006BE00E94D33A7C0160E671E00E948E3AC1
:1027A0006BE0C7010E94D33A7C0162E671E00E94AF
:1027B0008E3A69857A85C7010E94183B6BE00E94BA
:1027C000D33A7C0164E671E00E948E3A6BE0C70167
:1027D0000E94D33A7C0166E671E00E948E3A6F81D6
:1027E0007885C7010E94183B6BE00E94D33A68E6E7
:1027F00071E00E948E3A93CD6BE0F801868197815B
:102800000E94D33A7C0163E375E00E948E3A66E051
:10281000C7010E94D33AC8010E94850DD801539682
:10282000CD90DC90549766E016968D919C91179709
:102830000E94D33A66E00E94D33A6BE00E94D33AFA
:102840007C0162E275E00E948E3AB601C7010E94E7
:10285000183B66E00E94D33AF8018289813761F61D
:102860005ECDC8010E948E0CC8010E94850DD80162
:1028700052968C915297813709F495C0F801C3881C
:10288000D488C6010197029708F454C06BE0868192
:1028900097810E94D33A7C0160E574E00E948E3AF1
:1028A00066E0C7010E94D33A81E0F801858B37CDFD
:1028B00066E0D80116968D919C9117972C870E94FF
:1028C000D33A6BE00E94D33A7C0166EF71E00E943C
:1028D0008E3AD701ED91FC910280F381E02D2C8599
:1028E000622FC70109956BE0C7010E94D33A7C01B2
:1028F00068EF71E00E948E3A66E0C7010E94D33A09
:10290000F801D78C66E0868197810E94D33A6BE00C
:102910000E94D33A7C0169ED71E00E948E3A6D2DE0
:10292000C7010E94373C6BE00E94D33A7C0169EEFC
:1029300071E0EECC66E0868197810E94D33A66E032
:102940000E94D33A6BE00E94D33A7C016CE574E0BC
:102950000E948E3AB601C7010E94183B62E00E94B5
:10296000D33A6BE00E94D33A7C016EE774E00E9498
:102970008E3A66E0C7010E94D33A6BE00E94D33AD8
:102980007C0160E874E00E948E3A66E0C7010E9414
:10299000D33AF8018389878F10A6158A61E0C801B0
:1029A0000E949837BCCC6BE016968D919C9117973E
:1029B0000E94D33A7C0163EB74E00E948E3AD70107
:1029C000ED91FC910280F381E02D61E7C70109954B
:1029D00066E0C7010E94D33A66E00E94D33A66E0FF
:1029E0000E94D33A6BE00E94D33A7C0160EC74E021
:1029F0000E948E3A66E0C7010E94D33A6BE00E94C3
:102A0000D33A7C0163EE74E00E948E3A66E0C7011F
:102A10000E94D33A6BE00E94D33A7C0169EF74E0E4
:102A20000E948E3A66E0C7010E94D33AF801158AE7
:102A300060E0C8010E949837D80198961C926FCC2C
:102A400066E0868197810E94D33A6BE00E94D33A78
:102A50007C0161EB72E00E948E3AD701ED91FC910E
:102A60000280F381E02D60E7C701099566E0C701A8
:102A70000E94D33A6BE00E94D33A7C016EEB72E085
:102A80000E948E3A66E0C7010E94D33A6BE0F801DB
:102A9000868197810E94D33A7C0165E972E00E94A9
:102AA0008E3A66E0C7010E94D33A66E00E94D33AAC
:102AB000D8015F96DC905F9766E016968D919C91A9
:102AC00017970E94D33A66E00E94D33A6BE00E94C7
:102AD000D33A7C0160E472E00E948E3A6D2DC7010A
:102AE0000E94373C6BE00E94D33A7C0165E672E0BD
:102AF0000E948E3A66E0C7010E94D33A6BE00E94C2
:102B0000D33A7C016EE672E00E948E3A66E0C7011D
:102B10000E94D33A62E0C8010E949837F80110A6DB
:102B2000FECB6BE0F801868197810E94D33A7C014D
:102B300060E172E00E948E3AD701ED91FC91028033
:102B4000F381E02D61E7C701099566E0C7010E94A6
:102B5000D33A6BE00E94D33A7C016DE172E00E94AF
:102B60008E3A66E0C7010E94D33A61E0C8010E9434
:102B70009837F80110A681E0858BD1CB223609F475
:102B800074C0263609F094CE6BE0868197810E944E
:102B9000D33A7C016FE273E00E948E3AD701ED9147
:102BA000FC910280F381E02D66E6C701099566E09D
:102BB000C7010E94D33A6BE0F801868197810E9499
:102BC000D33A7C016AE173E00E948E3A66E0C70165
:102BD0000E94D33A0FB6F8940F92E091FA05F09163
:102BE000FB0582E080870F900FBE0FB6F8940F921E
:102BF000E091FE05F091FF05118610860F900FBE43
:102C0000D8015D968C935D975A961C921E925997A7
:102C100098961C92C8010E94070AF801D78C66E0BA
:102C2000868197810E94D33A6BE00E94D33A7C015F
:102C300064EE72E00E948E3A6D2DC7010E94373C0F
:102C40006BE00E94D33A7C0164EF72E00E948E3AFE
:102C50006BE0C7010E94D33A7C0161E073E058CB7E
:102C600010A6C8010E9494095ACB6BE08681978117
:102C70000E94D33A7C0166EA73E00E948E3AD70143
:102C8000ED91FC910280F381E02D62E6C701099588
:102C900066E0C7010E94D33A6BE0F8018681978114
:102CA0000E94D33A7C0164E873E00E948E3A66E0A9
:102CB000C7010E94D33AC8010E94850DD8015396DE
:102CC000CD90DC90549766E016968D919C91179765
:102CD0000E94D33A66E00E94D33A6BE00E94D33A56
:102CE0007C0162E773E00E948E3AB601C7010E9440
:102CF000183B6BE00E94D33A7C0161E873E00E94CC
:102D00008E3A66E0C7010E94D33AF801838994891C
:102D10000FB6F8940F92E091FA05F091FB0510863A
:102D20000F900FBE0FB6F8940F92E091FE05F09150
:102D3000FF05918780870F900FBED8015D961C928A
:102D40005D975A969C938E93599798961C92C801BA
:102D50000E94070AF801D78C66E0868197810E945D
:102D6000D33A6BE00E94D33A7C016CE373E00E949B
:102D70008E3A6D2DC7010E94373C6BE00E94D33A1A
:102D80007C016CE473E00E948E3A6BE0C7010E9404
:102D9000D33A7C0169E573E0BBCA66E016968D9173
:102DA0009C9117970E94D33A6BE00E94D33A7C0122
:102DB0006CEC71E00E948E3AD701ED91FC9102809B
:102DC000F381E02D61E7C701099566E0C7010E9424
:102DD000D33A61E0C8010E949837F80110A69FCA53
:102DE000F801E680F780D701ED91FC910280F38134
:102DF000E02D62E2C7012C870995D701ED91FC9186
:102E00000280F381E02D2C85622FC70109956BE0CC
:102E1000C7010E94D33A7C016CE075E079CA6BE08F
:102E2000F801868197810E94D33A7C016AEF75E0B0
:102E30000E948E3AD701ED91FC910280F381E02D42
:102E400069E6C70109956BE0F801868197810E94C8
:102E5000D33A7C016AE975E00E948E3A6BE0C701C3
:102E60000E94D33A7C016FE975E00E948E3A61E0DE
:102E7000C7010E94373C6BE00E94D33A7C0162EAB2
:102E800075E00E948E3A61E0C7010E94373C6BE01A
:102E90000E94D33A7C0164EA75E00E948E3A6BE0AE
:102EA000C7010E94D33A7C0166EA75E00E948E3A1F
:102EB00066E0C7010E94D33A6BE00E94D33A7C01DE
:102EC00063EC75E00E948E3A66E0C7010E94D33A37
:102ED0006BE00E94D33A7C0165EE75E00E948E3A69
:102EE00066E0C7010E94D33A66E00E94D33AD80157
:102EF00098961C9264E0C8010E94983710CA2F333C
:102F000009F47CC00CF4DCC0243609F47BC02536FF
:102F100009F066CF6BE0F801868197810E94D33A71
:102F20007C016FE676E00E948E3AD701ED91FC912C
:102F30000280F381E02D65E6C70109956BE0F80199
:102F4000868197810E94D33A7C0167E076E00E94F7
:102F50008E3A6BE0C7010E94D33A7C016CE076E0C8
:102F60000E948E3A61E0C7010E94373C6BE00E94EC
:102F7000D33A7C016FE076E00E948E3A61E0C701AF
:102F80000E94373C6BE00E94D33A7C0161E176E01D
:102F90000E948E3A6BE0C7010E94D33A7C0163E144
:102FA00076E00E948E3A66E0C7010E94D33A6BE059
:102FB0000E94D33A7C0164E376E00E948E3A66E098
:102FC000C7010E94D33A6BE00E94D33A7C0166E5C8
:102FD00076E00E948E3A66E0C7010E94D33A66E02E
:102FE0000E94D33AD80198961C92989781E0569601
:102FF0008C9363E0C8010E94983791C9C8010E9470
:10300000EE0C8DC96BE0D80116968D919C911797A7
:103010000E94D33A7C016DE875E00E948E3AD70198
:10302000ED91FC910280F381E02D64E6C7010995E2
:103030006BE0F801868197810E94D33A7C0164E6B7
:1030400075E00E948E3A6BE0C7010E94D33A7C0182
:1030500069E675E00E948E3A61E0C7010E94373C44
:103060006BE00E94D33A7C016CE675E00E948E3AD8
:1030700061E0C7010E94373C6BE00E94D33A7C01BB
:103080006EE675E00E948E3A6BE0C7010E94D33A6B
:103090007C0160E775E00E948E3A66E0C7010E94FD
:1030A000D33A66E00E94D33A65E0C8010E9498379F
:1030B00081E0D80157968C93579798961C922FC908
:1030C000233009F08DCE6BE0D80116968D919C913E
:1030D00017970E94D33A8C0164E175E00E948E3A02
:1030E00066E0C8010E94D33A2BE088E190E00FB679
:1030F000F894A895809360000FBE20936000FFCFE6
:10310000233789F0243709F06BCECE0101960E9457
:10311000293ABC01F801868197810E94C83966E08E
:103120000E94D33AFCC8C8010E945C0EF8C80F93F5
:103130001F93CF93DF93EC0188A581112CC06BE026
:103140008E819F810E94D33A8C0161E677E00E94D4
:103150008E3A66E0C8010E94D33A6BE08E819F816F
:103160000E94D33A8C0167E177E00E948E3A66E0D4
:10317000C8010E94D33A6BE08E819F810E94D33AAE
:103180008C0168EE76E00E948E3A66E0C8010E94EB
:10319000D33A81E088A7DF91CF911F910F910895D5
:1031A0000F931F93CF93DF93EC010E94E23688E7E1
:1031B00093E09983888318A61E8A1F8A188E1D8A19
:1031C00082E08D8F1A8E198E6BE08E819F810E9416
:1031D000D33A62EE76E00E948E3A82E090E00E945E
:1031E000413A8C016E817F810E948D1F19A308A333
:1031F00082E090E00E94413A8C016E817F810E94C2
:103200008D1F1BA30AA3DF91CF911F910F910895EA
:10321000CF93DF9300D000D0CDB7DEB78C010E94F2
:103220008C3169837A838B839C8380918000836A4D
:1032300080938000809181008A60809381001BC010
:10324000823009F448C0833009F44BC0F801468548
:103250005785608971894F5F5F4F6F4F7F4F4687FA
:103260005787608B718B4AE050E060E070E0CE01E0
:1032700001960E942C330FB6F8940F92E091FA0554
:10328000F091FB0580850F900FBE813099F0811180
:10329000D7CF0FB6F8940F920F900FBEE091FC05B8
:1032A000F091FD0560857185F801838994890E94FC
:1032B000DE28CCCF0FB6F8940F920F900FBEE0919E
:1032C000FC05F091FD0560857185F801838994897D
:1032D0000E946328BBCFF801838994890E94322918
:1032E000B5CF60E0F801858996890E94AE1F880FEE
:1032F000991F7C01FFEFEF1AF3E0FF0AB701F80115
:10330000838994890E9463280FB6F8940F92E09104
:10331000FE05F091FF05F186E0860F900FBE96CF77
:10332000AF92CF92DF92EF92FF920F931F93CF93C2
:10333000DF93EC010E94E23680E893E09983888372
:10334000FC8AEB8ADE8ACD8AAA8ADF91CF911F910F
:103350000F91FF90EF90DF90CF90AF900895CF93B3
:10336000DF9300D000D0CDB7DEB78C010E948C3146
:1033700069837A838B839C83EE24EA948FE0F82E12
:103380004FC0841795070CF068C09701241B350BBC
:10339000280F391FF801378B268BE091F805F09143
:1033A000F9050FB6F8940F920F900FBE0FB6F89470
:1033B0000F92C901AA2797FDA095BA2F4085518584
:1033C00062857385480F591F6A1F7B1F408751878D
:1033D000628773870F900FBE0FB6F8940F92E0913B
:1033E000F605F091F705318720870F900FBEF801A1
:1033F00084899589938B828B4685578560897189ED
:103400004F5F5F4F6F4F7F4F46875787608B718B42
:1034100041E050E060E070E0CE0101960E942C3364
:10342000F801808D918D0E94E324F801958B848BA7
:10343000428953899C01241B350B37FD09C0B90112
:10344000653A764008F09DCFF801378B268BA5CFE3
:1034500066277727621B730BF3CF9C012F5F3F40DA
:10346000241B350BF801378B268B97CFEF92FF92F9
:103470000F931F93CF93DF93EC010E94E23688E80D
:1034800093E099838883F98EE88E1B8A1A8A1F8AB3
:103490001E8A1D8A1C8ADF91CF911F910F91FF9088
:1034A000EF90089577FD02C0CB01089588279927F2
:1034B000861B970B0895CF93DF9300D000D0CDB734
:1034C000DEB78C010E948C3169837A838B839C8365
:1034D000BB24B3949EC00FB6F8940F92D8015496B3
:1034E000ED91FC915597C084D1840F900FBEEC18DC
:1034F000FD08F801648D758D84A195A10E94142AA0
:1035000040E054E00E94262A4C01D8015A966D9161
:103510007C915B97C7010E94AD29B4010E94CA2922
:10352000F801938F828F808D918DB601681B790B86
:10353000D18EC08E82A193A10E94142A40E054E053
:103540000E94262A6C01D8015A966D917C915B9756
:1035500090968D919C9191970E94142A40E054E09E
:103560000E94262AB6010E94AD296C01B701F8011C
:10357000868D978D0E94142A40E054E00E94262AEE
:10358000B6010E94AD29D8019896ED90FC909997CC
:10359000E816F9064CF096962D913C9197977C0190
:1035A000821793070CF47901B7010E94CA29F80128
:1035B000958F848F0FB6F8940F92E091FA05F091F1
:1035C000FB05B0860F900FBE0FB6F8940F92D8018E
:1035D0005696ED91FC915797F186E0860F900FBEBD
:1035E0000FB6F8940F920F900FBEE091F405F09192
:1035F000F50580859185A285B3850697A105B1055E
:1036000081F145E050E060E070E0CE0101960E945B
:103610002C330FB6F8940F92D8015296ED91FC918D
:103620005397E084F1840F900FBE0FB6F8940F9279
:103630000F900FBEE091F405F091F505808591851E
:10364000A285B3850697A105B10509F044CFB7015E
:10365000F801868197810E94183B66E00E94D33A68
:103660003ACF0FB6F8940F920F900FBEB701F80142
:10367000868197810E94183B66E00E94D33AC1CFB1
:103680006F927F928F929F92AF92BF92CF92DF9272
:10369000EF92FF920F931F93CF93DF93CDB7DEB7D7
:1036A0003C010E94E23680E993E0F301918380833C
:1036B000F38AE28AD58AC48AB78AA68A978E868ECA
:1036C00089899A8991A380A38B899C8993A382A3DA
:1036D0008D899E8995A384A38F89988D97A386A3AE
:1036E000898D9A8D91A780A7DF91CF911F910F911E
:1036F000FF90EF90DF90CF90BF90AF909F908F9012
:103700007F906F900895CF93DF9300D000D0CDB716
:10371000DEB77C010E948C3169837A838B839C8322
:1037200036C08B016B38E7E07E0714F00AE817E03B
:10373000F701828D813009F44BC060E0F701838D81
:10374000948D0E94AE1F0FB6F8940F92E091E80599
:10375000F091E905918780870F900FBEB801F701BE
:10376000808D918D0E94B02A0FB6F8940F92E0914F
:10377000F005F091F105118700870F900FBE45E02D
:1037800050E060E070E0CE0101960E942C330FB64D
:10379000F8940F920F900FBEE091EE05F091EF05B7
:1037A0002085318547EF4203B001439F700D1124FE
:1037B000660F771F62597A4F623583E078070CF005
:1037C000B0CF02E513E0F701828D813009F0B5CF6B
:1037D0000FB6F8940F92E091EA05F091EB0511878E
:1037E00000870F900FBEA9CFEF92FF920F931F9308
:1037F000CF93DF93EC01E62E1E8E1D8E3AE0F32E62
:1038000000E010E001C08C016E2D8B8D9C8D0E941C
:10381000AE1F800F911F9E8F8D8FFA94A1F79C0190
:10382000ADECBCEC0E94EF449695879596958795F4
:103830009695879500E012E0081B190B1E8F0D8FDF
:103840006A8D8E819F810E94373C6BE00E94D33A43
:10385000EC0160E171E10E948E3AB801CE010E9454
:10386000B53B66E0DF91CF911F910F91FF90EF90F4
:103870000C94D33ACF92EF92FF920F931F93CF9372
:10388000DF93EC010E94E23688E993E09983888314
:10389000F98EE88ECA8E6C2D70E0CE01DF91CF914B
:1038A0001F910F91FF90EF90CF900C94F41BCF934A
:1038B000DF9300D000D0CDB7DEB78C010E948C31F1
:1038C00069837A838B839C830FC064E175E0F80180
:1038D000808D918D0E94B02A45E050E060E070E05C
:1038E000CE0101960E942C330FB6F8940F92E0910E
:1038F000E605F091E705208531850F900FBE213058
:10390000310579F00FB6F8940F920F900FBE232B6C
:10391000E1F260E273E0F801808D918D0E94B02A9F
:10392000DBCF64E378E0F801808D918D0E94B02AAE
:10393000D3CFCF92EF92FF920F931F93CF93DF934A
:10394000EC010E94E23680EA93E099838883F98E45
:10395000E88ECA8EDF91CF911F910F91FF90EF906B
:10396000CF900895CF93DF9300D000D0CDB7DEB7CE
:103970008C010E948C3169837A838B839C830FB680
:10398000F8940F92E091E405F091E505E084F1846C
:103990000F900FBEF801828993890E940A220FB608
:1039A000F8940F92E091E405F091E5059187808706
:1039B0000F900FBE0FB6F8940F92E091E205F091D0
:1039C000E3058E199F09918780870F900FBEF8013C
:1039D000828993890E942E220FB6F8940F92E0916B
:1039E000E005F091E105918780870F900FBEF80107
:1039F000828993890E9452220FB6F8940F92E09127
:103A0000DE05F091DF05918780870F900FBEF801EA
:103A100046855785608971894F5F5F4F6F4F7F4F34
:103A200046875787608B718B44E650E060E070E01A
:103A3000CE0101960E942C33A2CFEF92FF920F93FA
:103A40001F93CF93DF93EC010E94E23688EA93E064
:103A500099838883FB8AEA8ADF91CF911F910F9126
:103A6000FF90EF9008950F931F93CF93DF93EC0196
:103A70000E94E2368FEC93E0998388831C8A1D8A2A
:103A800084E690E09D8F8C8F188E1F8A81E08E8B4C
:103A9000FE01F19687E0DF011D928A95E9F7198E04
:103AA0001B8E80E190E00E94413A8C0140E060E092
:103AB00070E00E94493D1B8B0A8BE0ECF0E08081B6
:103AC0008260808380E190E09093C5008093C40081
:103AD0001AA21BA21CA21DA21FA21EA2DF91CF919F
:103AE0001F910F9108950F931F93CF93DF93EC01D4
:103AF0008A8D89AB81E090E0988F8F8B17C08A897F
:103B00009B89DC01ED91FC910680F781E02D099500
:103B10008A8F2F89388DFE01E20FF31F81AB23308E
:103B20003105A1F02F5F3F4F388F2F8B8A899B89FA
:103B3000DC01ED91FC910480F581E02D0995811166
:103B4000DECFDF91CF911F910F9108951DAA0E81B5
:103B50001F816CEA73E0C8010E948E3ABE016F5C5F
:103B60007F4FC8010E948E3A66E0C8010E94D33A96
:103B700081E0DF91CF911F910F910895DF92EF9235
:103B8000FF920F931F93CF93DF938C01FC01108E54
:103B9000178AC0E0D0E0F801EC0FFD1FD6A0F801B5
:103BA000E680F78062EB73E0C7010E948E3ABE01A7
:103BB000C7010E94B53BEC016AEB73E00E948E3AAC
:103BC0006D2DCE010E94373C66E00E94D33AF80189
:103BD000C789D08D2196D08FC78BC330D105D8F23D
:103BE000DF91CF911F910F91FF90EF90DF9008959B
:103BF000CF93DF93EC011FA21EA28A8D8EA381E0DA
:103C000090E0988F8F8B17C08A899B89DC01ED919A
:103C1000FC910680F781E02D09958A8F2F89388DD8
:103C2000FE01E20FF31F81AB22303105B9F02F5FA7
:103C30003F4F388F2F8B8A899B89DC01ED91FC9156
:103C40000480F581E02D09958111DECF8F89988D53
:103C50000297B1F080E0DF91CF9108956BE08A89FF
:103C60009B890E94D33AEC0169E171E10E948E3A8E
:103C700066E0CE010E94D33A81E0DF91CF910895B2
:103C8000DF91CF910895FC0187A1811136C017A65D
:103C900080E090E020A520AB92A781A730E034A778
:103CA00023A716A615A60FB6F8940F92A091EE05BD
:103CB000B091EF0519969C938E9318970F900FBEB5
:103CC00083A594A50FB6F8940F92A091FE05B0912C
:103CD000FF0519969C938E9318970F900FBE85A59C
:103CE00096A50FB6F8940F92E091E605F091E705DE
:103CF000918780870F900FBE0895806287A790E01C
:103D0000C9CFCF93DF9300D000D0CDB7DEB78C0101
:103D10000E948C3169837A838B839C83D801589667
:103D20001C921E92579780E4E82EFF24F394D8014A
:103D300052968D919C915397DC01ED91FC910480FA
:103D4000F581E02D0995811116C04AE050E060E050
:103D500070E0CE0101960E942C33F801468557850C
:103D6000608971894F5F5F4F6F4F7F4F46875787DD
:103D7000608B718BDCCFF80182899389DC01ED9136
:103D8000FC910680F781E02D0995F801828F8289E8
:103D90009389DC01ED91FC910480F581E02D09957A
:103DA000882329F2F80182899389DC01ED91FC9145
:103DB0000680F781E02D0995F80187A38A3209F47E
:103DC00049C0D80152968D919C915397DC01ED9199
:103DD000FC910480F581E02D0995882309F4A7CF93
:103DE000F80182899389DC01ED91FC910680F781CD
:103DF000E02D0995F80180A7828D8A3209F097CFCE
:103E0000C8010E94431ED80192964D915D916D911B
:103E10007C9195974F5F5F4F6F4F7F4FF80142A3A3
:103E200053A364A375A3868197810E94EF3B66E04C
:103E30000E94D33A8CB18E258CB9F80182A193A14E
:103E4000A4A1B5A10196A11DB11D82A393A3A4A312
:103E5000B5A36DCFF48AB5CF1F93CF93DF93FC0149
:103E6000162F80ED860F8A3030F08FEB860F86306C
:103E700030F489EC860FDF91CF911F910895C681B0
:103E8000D7816EEB73E0CE010E948E3A63E0CE01E3
:103E90000E94D33A612F0E94373C66E00E94D33AD9
:103EA00080E0DF91CF911F910895CF92DF92EF9242
:103EB000FF920F931F93CF93DF931F92CDB7DEB77F
:103EC0006C01122F49830E942C1FE82E4981642F18
:103ED000C6010E942C1FF82E612FC6010E942C1FC4
:103EE000182F602FC6010E942C1F2E2D30E0322F7C
:103EF00022273295307F3F29282B40E1149FC001B3
:103F00001124822B932B0F90DF91CF911F910F9152
:103F1000FF90EF90DF90CF900895CF93DF93FC0157
:103F20007183608320917C00206420937C00209129
:103F30007A00256C20937A00C081D181209759F0B6
:103F400063ED73E0CE010E948E3A66E0CE01DF9110
:103F5000CF910C94D33ADF91CF910895683008F057
:103F600060E080917C00887F80937C0080917C0061
:103F7000862B80937C0080917A00806480937A0005
:103F800080917A0086FDFCCF8091780020917900A5
:103F900090E0922B0895DF92EF92FF920F931F9380
:103FA000CF93DF938C01D62EE42E80E48417E0F4C7
:103FB00080E4E82EF12CC0E0D0E06D2DC8010E9415
:103FC000AE1FC80FD91FF394FE10F7CF6E2D70E00F
:103FD000CE010E942045CB01DF91CF911F910F911F
:103FE000FF90EF90DF9008954111E4CFC0E0D0E062
:103FF000EDCF0F931F93CF93DF93EC016BE00E9403
:10400000D33A8C016EE171E10E948E3A66E0C801FC
:104010000E94D33A6BE00E94D33A8C0169E371E1CC
:104020000E948E3A66E0C8010E94D33ACE01DF9129
:10403000CF911F910F9108950F93022F9A01462F50
:10404000FC016481828193810E94792681E00F9135
:104050000895242F462FFC016481828193810E9460
:104060004E2781E00895FC01262F65834DE364818E
:10407000828193810C944E27DF92EF92FF920F93EF
:104080001F93CF93DF93EC0120E047E06C818A819E
:104090009B810E944E277E0186E0E80EF11C01E024
:1040A000970149E36C818A819B810E947926DE8099
:1040B0000881198167E074E0C8010E948E3A6D2D75
:1040C000C8010E94373C66E00E94D33A01E09701A4
:1040D00046E36C818A819B810E947926DE8008817B
:1040E000198167E174E0C8010E948E3A6D2DC80104
:1040F0000E94373C66E00E94D33A01E097014AE310
:104100006C818A819B810E9479261E810990D881C9
:10411000C02D6AE274E0CE010E948E3A612FCE017A
:104120000E94373C66E0DF91CF911F910F91FF9085
:10413000EF90DF900C94D33A0F93CF93DF93EC0181
:104140009C012A5F3F4F01E044E36C818A819B819F
:104150000E9479268E81DF91CF910F9108956F9201
:104160007F928F929F92AF92BF92CF92DF92EF9207
:10417000FF920F931F93CF93DF93CDB7DEB7CA564D
:10418000D1090FB6F894DEBF0FBECDBF5C01CE01E2
:1041900001966C018AE6F60111928A95E9F70AE622
:1041A000960140E0F5016481828193810E94792625
:1041B0004E01FBE68F0E911C8601602E6C18F801F3
:1041C00071908F01F501E080F18069E374E0C7012F
:1041D0000E948E3A63E0C7010E94D33A662D0E9486
:1041E000373C7C016DE674E00E948E3A672DC70172
:1041F0000E94373C66E00E94D33A08151905E9F69B
:10420000C659DF4F0FB6F894DEBF0FBECDBFDF91AA
:10421000CF911F910F91FF90EF90DF90CF90BF90C3
:10422000AF909F908F907F906F900895AF92BF92C4
:10423000CF92DF92EF92FF920F931F93CF93DF9372
:104240001F92CDB7DEB75C016B01542F8CE0F501F6
:1042500011928A95E9F79B012A5F3F4F06E0FB0127
:1042600064818281938159830E947926F601678156
:1042700070E0762F66278681682BE184F12CFE2C76
:10428000EE248085E82A038510E0102F0027828520
:10429000082B5981543109F487C048F0583209F489
:1042A0004DC05E3209F44AC05A3131F03AC058303C
:1042B00009F444C05E30A9F5882777FD8095982FD2
:1042C0000E94E54520E030E040E85DE30E94714651
:1042D000F5016083718382839383B701882777FD1B
:1042E0008095982F0E94E54520E030E040E85DE3AE
:1042F0000E947146F5016483758386839783B801B4
:10430000882777FD8095982F0E94E54520E030E0D2
:1043100040E85DE30E947146F501608771878287FE
:104320009387C5010F90DF91CF911F910F91FF905F
:10433000EF90DF90CF90BF90AF900895882777FDE2
:104340008095982F0E94E54520E030E048EC52E44B
:104350000E947B45F5016083718382839383B7015B
:10436000882777FD8095982F0E94E54520E030E072
:1043700048EC52E40E947B45F50164837583868393
:104380009783B801882777FD8095982F0E94E5458F
:1043900020E030E048EC52E40E947B45F501608764
:1043A000718782879387BDCF882777FD8095982F67
:1043B0000E94E54520E030E041E654E40E947B4560
:1043C000F5016083718382839383B701882777FD2A
:1043D0008095982F0E94E54520E030E041E654E4C6
:1043E0000E947B45F5016483758386839783B801BA
:1043F000882777FD8095982F0E94E54520E030E0E2
:1044000041E654E40E947B45F5016087718782870D
:10441000938787CF0F93CF93DF93EC019C012A5FA3
:104420003F4F02E04AE16C818A819B810E9479269C
:104430008F8190E0982F88272E81822B97FD0CC0CA
:104440009595879595958795959587959595879554
:10445000DF91CF910F9108950F96F2CF0F93CF93E5
:10446000DF93EC019C012A5F3F4F02E04CE16C813D
:104470008A819B810E9479268F8190E0982F8827DE
:104480002E81822B97FD0CC09595879595958795E4
:104490009595879595958795DF91CF910F91089583
:1044A0000F96F2CF0F93CF93DF93EC019C012A5F1D
:1044B0003F4F02E04EE16C818A819B810E94792608
:1044C0008F8190E0982F88272E81822B97FD0CC03A
:1044D00095958795959587959595879595958795C4
:1044E000DF91CF910F9108950F96F2CFBF92CF92A7
:1044F000DF92EF92FF920F931F93CF93DF931F9260
:10450000CDB7DEB77C016B01198201E09E012F5F00
:104510003F4F45E3FC016481828193810E947926AB
:10452000B980F7010081118164E474E0C8010E9440
:104530008E3A63E0C8010E94D33A6B2D0E94373C4B
:1045400066E00E94D33AF7018681882309F46BC0A4
:104550004981B42EB294B694B694F3E0BF22F6012A
:10456000B082842F90E09C0135952795359527954D
:1045700035952795359527952370218395958795B2
:10458000959587958370828343704383F7010081FB
:10459000118160E574E0C8010E948E3A6B2DC8015C
:1045A0000E94373C66E00E94D33AF601B180F701E1
:1045B0000081118168E574E0C8010E948E3A6B2D7C
:1045C000C8010E94373C66E00E94D33AF601B280EF
:1045D000F7010081118160E674E0C8010E948E3A03
:1045E0006B2DC8010E94373C66E00E94D33AF60169
:1045F0001381F701E080F18068E674E0C7010E9452
:104600008E3A612FC7010E94373C66E00E94D33A80
:104610000F90DF91CF911F910F91FF90EF90DF905E
:10462000CF90BF900895F601B080B0CF0F93CF9395
:10463000DF931F92CDB7DEB7198201E09E012F5F95
:104640003F4F45E3FC016481828193810E9479267A
:1046500099819F7381E009F480E00F90DF91CF9101
:104660000F910895DF92EF92FF920F931F93CF93D4
:10467000DF93CDB7DEB766970FB6F894DEBF0FBEF7
:10468000CDBF8C01FE01319686E1DF011D928A9536
:10469000E9F787E490E090930100809300008BEEAF
:1046A0008B838FEF8C8391E19D838F8388878987AC
:1046B0008A8790EF9D878E879BEB9F87888B84E00E
:1046C000898B88EE8B8B83E08C8B87E48D8B7E01CE
:1046D000B2E0EB0EF11C85E5D82E20E003C0D70137
:1046E0002D917D014D2DF8016481828193810E947D
:1046F0004E27D394FBE6DF12F2CF66960FB6F894FE
:10470000DEBF0FBECDBFDF91CF911F910F91FF9004
:10471000EF90DF9008950F931F93CF93DF93EC01F9
:104720006C818A819B810E94DB2781114FC01D8291
:1047300020E04DE36C818A819B810E944E2720E21C
:104740004FE36C818A819B810E944E276C818A8114
:104750009B810E94DB278823C9F31D8220E04DE363
:104760006C818A819B810E944E27CE010E94322358
:1047700020E04EE36C818A819B810E944E2720E0DD
:1047800047E06C818A819B810E944E2720E04FE3A5
:104790006C818A819B810E944E2724E04BE36C81CF
:1047A0008A819B810E944E278CE08D832CE04DE313
:1047B0006C818A819B810E944E27CE010E943C2001
:1047C00081E0DF91CF911F910F91089508811981A8
:1047D00060E774E0C8010E948E3A66E0C8010E945A
:1047E000D33AA5CF0F931F93CF93DF93EC01798337
:1047F00068834C8389E090E00E94413A8C01688193
:1048000079810E94D5251B830A83CE010E948B23C8
:104810000990D881C02D209769F06AE874E0CE0134
:104820000E948E3A66E0CE01DF91CF911F910F91E9
:104830000C94D33ADF91CF911F910F9108957F92FD
:104840008F929F92AF92BF92CF92DF92EF92FF92A0
:104850000F931F93CF93DF93CDB7DEB765970FB656
:10486000F894DEBF0FBECDBF5C0105E19E012F5F56
:104870003F4F45E5FC016481828193810E94792646
:104880008E010F5F1F4F4E01F7E18F0E911C94E5D3
:10489000C92ED12CC01AD10AF80171908F01F501EF
:1048A000E080F1806EEB74E0C7010E948E3A63E015
:1048B000C7010E94D33AB601600F711F0E94183BD6
:1048C0007C016DE674E00E948E3A672DC7010E945C
:1048D000373C66E00E94D33A08151905E9F665965B
:1048E0000FB6F894DEBF0FBECDBFDF91CF911F9101
:1048F0000F91FF90EF90DF90CF90BF90AF909F907F
:104900008F907F900895CF92EF92FF920F93CF9365
:10491000DF93FC0171836083538342832483358357
:104920000683E782F086C186DA0111971C92A28184
:10493000B3811C92A481B5816C9181E090E0AC01BF
:10494000068002C0440F551F0A94E2F7642B6C9353
:10495000A781B0856C91AC01018402C0440F551F42
:104960000A94E2F7642B6C93D9014E919C01068066
:1049700002C0220F331F0A94E2F7422B4C93D70157
:104980002E91018402C0880F991F0A94E2F7282B08
:104990002C93C081D181209779F06EEC74E0CE0128
:1049A0000E948E3A66E0CE01DF91CF910F91FF9089
:1049B000EF90CF900C94D33ADF91CF910F91FF906D
:1049C000EF90CF900895CF93DF93FC01A281B38144
:1049D000C781D085488121E030E0C901018402C04F
:1049E000880F991F0A94E2F7809584238883C481F5
:1049F000D5814881C901068002C0880F991F0A9499
:104A0000E2F780958423888312978C9190E0982F09
:104A10008827C781D0856881A901018402C0440F1D
:104A2000551F0A94E2F7642B68835C91A481B581D9
:104A30004C91068002C0220F331F0A94E2F7422BEA
:104A40004C93852BDF91CF910895BF92CF92DF9247
:104A5000EF92FF920F931F93CF93DF93EC01FB0133
:104A6000FF24F39482819381892B09F4F12CE18452
:104A7000DD24D39487819085892B09F4D12CB680CD
:104A8000CC24C39484819581892B09F4C12C6BE0DB
:104A9000CE010E94D33A8C0168E471E10E948E3A03
:104AA00062E0C8010E94D33A66E00E94D33A6BE00C
:104AB0000E94D33A8C016CE671E10E948E3A6C2D13
:104AC000C8010E945E3A8C0164EF74E00E948E3A45
:104AD0006B2DC8010E94373C66E00E94D33A6BE020
:104AE0000E94D33A8C0165E771E10E948E3A66E03C
:104AF000C8010E94D33A6BE00E94D33A8C0164E86B
:104B000071E10E948E3A6D2DC8010E945E3A8C01BF
:104B100064EF74E00E948E3A6E2DC8010E94373C0B
:104B200066E00E94D33A6BE00E94D33A8C016EE8B3
:104B300071E10E948E3A6F2DC8010E945E3A66E0D4
:104B40000E94D33ACE01DF91CF911F910F91FF9038
:104B5000EF90DF90CF90BF900895CF93DF932BB16C
:104B600023602BB9E4E6F0E020812F772083E9EB86
:104B7000F0E020812C7F20832CE02093B800ECEB28
:104B8000F0E020812E7F20836BE0FC018081918109
:104B90000E94D33AEC016EE971E10E948E3A66E020
:104BA000CE01DF91CF910C94D33A0F931F93CF9303
:104BB000DF93EC017983688381E00E94932D9887CD
:104BC0008F83892B39F0CE01DF91CF911F910F9107
:104BD0000C94AD250881198166EF74E0C8010E942C
:104BE0008E3A66E0C8010E94D33ACE01DF91CF91A0
:104BF0001F910F910C94AD251F93CF93DF93FC0170
:104C0000128213821482158211C042815381648101
:104C100075814F5F5F4F6F4F7F4F42835383648334
:104C20007583413E53496440710540F48091BC0056
:104C300087FFEBCFDF91CF911F9108951681C0813F
:104C4000D1816AE075E0CE010E948E3A63E0CE0128
:104C50000E94D33A612F0E94373C66E0DF91CF91EA
:104C60001F910C94D33A8FE99FE00197F1F700C0B0
:104C700000002091B900287F30E070E081E0261725
:104C8000370709F080E0089524EA2093BC000E94D1
:104C9000FC258FE99FE00197F1F700C0000090919B
:104CA000B900987F81E0983009F080E0089584E9A8
:104CB0008093BC0081E00895662321F084EC80930A
:104CC000BC00089584E88093BC00089524EA2093F2
:104CD000BC000E94FC258FE99FE00197F1F700C01E
:104CE00000009091B900987F81E0903109F080E058
:104CF0000895BF92CF92DF92EF92FF920F931F938E
:104D0000CF93DF93EC01F42EC22EB32ED02E6E8300
:104D100000E02FEF3FEFA90160E070E08F81988500
:104D20000E94FC2DCE010E944426182F882369F191
:104D300080E58093BB0084E88093BC00CE010E9494
:104D4000FC258FE99FE00197F1F700C000008091FA
:104D5000B900887F883131F100E020E030E0A9011E
:104D600060E070E08F8198850E94DB2C84E980935D
:104D7000BC0010E0812FDF91CF911F910F91FF9028
:104D8000EF90DF90CF90BF90089520E030E0A90130
:104D900060E070E08F8198850E94DB2C84E980932D
:104DA000BC00E8CFF092BB0084E88093BC00CE0149
:104DB0000E94FC258FE99FE00197F1F700C00000F9
:104DC0008091B900887F883239F6CE010E9466262C
:104DD00081E58093BB0084E88093BC00CE010E94F3
:104DE000FC25EFE9FFE03197F1F700C0000080916A
:104DF000B900887F803409F0AFCF84EC8093BC0089
:104E0000CE010E94FC258FE99FE00197F1F700C0D9
:104E100000008091B900887F803509F09DCFDD20AA
:104E2000E9F0EC2CFB2CC12C04EC8091BB00F701C9
:104E300081937F010093BC00CE010E94FC258FE985
:104E40009FE00197F1F700C000008091B900887FD2
:104E5000803509F081CFC394CD10E7CF84E88093EB
:104E6000BC00CE010E94FC25EFE9FFE03197F1F78D
:104E700000C000008091B900887F883509F06CCFB0
:104E800084E98093BC0000E020E030E0A90160E00C
:104E900070E08F8198850E94DB2C6CCFEF92FF929F
:104EA0000F931F93CF93DF93EC01F42EE22E6E83CA
:104EB00000E02FEF3FEFA90160E070E08F8198855F
:104EC0000E94FC2DCE010E944426182F882351F108
:104ED00080E58093BB0084E88093BC00CE010E94F3
:104EE000FC258FE99FE00197F1F700C00000809159
:104EF000B900887F883151F100E020E030E0A9015D
:104F000060E070E08F8198850E94DB2C84E98093BB
:104F1000BC0010E0812FDF91CF911F910F91FF9086
:104F2000EF90089520E030E0A90160E070E08F810B
:104F300098850E94DB2C84E98093BC00812FDF914F
:104F4000CF911F910F91FF90EF900895F092BB00C9
:104F500084E88093BC00CE010E94FC258FE99FE08D
:104F60000197F1F700C000008091B900887F883276
:104F700019F6E092BB0084E88093BC00CE010E9449
:104F8000FC258FE99FE00197F1F700C000008091B8
:104F9000B900887F883209F0AFCF84E98093BC00E4
:104FA00000E020E030E0A90160E070E08F819885AA
:104FB0000E94DB2CAFCFEF92FF920F931F93CF9302
:104FC000DF931F92CDB7DEB77C0101E09E012F5F1A
:104FD0003F4F40E00E947926811109C080E00F9088
:104FE000DF91CF911F910F91FF90EF90089519815C
:104FF000F701E080F1806FE275E0C7010E948E3A10
:10500000612FC7010E94373C66E00E94D33A81E0DD
:105010000F90DF91CF911F910F91FF90EF90089526
:10502000FC01128213821482158208956F927F927E
:105030008F92AF92CF92EF92FF920F931F93CF93E5
:10504000DF93CDB7DEB7FC013B018E8571836083B2
:10505000558344833187208715870487F38AE28A42
:10506000C686A786808A818B41505109538342832B
:105070002150310937832683015011091387028794
:1050800061157105A1F06FE375E0C3010E948E3ACE
:1050900066E0C301DF91CF911F910F91FF90EF90D8
:1050A000CF90AF908F907F906F900C94D33ADF9118
:1050B000CF911F910F91FF90EF90CF90AF908F9075
:1050C0007F906F900895CF93FC01A281B381CC9122
:1050D00081E090E0AC01068402C0440F551F0A94A1
:1050E000E2F79C01078402C0220F331F0A94E2F703
:1050F000242B2C2B2C93A681B7814C919C010088EA
:1051000002C0220F331F0A94E2F7209524232C9328
:10511000A285B3854C919C01018802C0220F331FE8
:105120000A94E2F7422B4C93A085B1854C919C01E7
:10513000008802C0220F331F0A94E2F7422B4C93DF
:10514000A481B5814C919C0177FD1BC0068402C0EF
:10515000220F331F0A94E2F7422B4C93A481B581AE
:105160002C91078402C0880F991F0A94E2F780955A
:1051700082238C930288F389E02D71836083CF9121
:105180000895078402C0220F331F0A94E2F7422BCE
:105190004C93A481B5812C91068402C0880F991F7D
:1051A0000A94E2F7809582238C930288F389E02D9C
:1051B00071956195710971836083E1CFFC01A281D2
:1051C000B3816C9181E090E0AC01068402C0440F91
:1051D000551F0A94E2F79C01078402C0220F331F77
:1051E0000A94E2F7242B262B2C93A681B7814C91AD
:1051F0009C01008802C0220F331F0A94E2F7209519
:1052000024232C93A285B3854C919C01018802C074
:10521000220F331F0A94E2F7422B4C93A085B185ED
:105220004C919C01008802C0220F331F0A94E2F7C0
:10523000422B4C93A481B5814C919C01068402C001
:10524000220F331F0A94E2F7422B4C93A481B581BD
:105250002C91078402C0880F991F0A94E2F7282B2B
:105260002C930895FC01A281B3816C9181E090E0C0
:10527000AC01068402C0440F551F0A94E2F79C015A
:10528000078402C0220F331F0A94E2F7242B262B37
:105290002C93A681B7814C919C01008802C0220FFB
:1052A000331F0A94E2F7209524232C93A285B3851B
:1052B0004C919C01018802C0220F331F0A94E2F72F
:1052C000422B4C93A085B1854C919C01008802C073
:1052D000220F331F0A94E2F7422B4C93A481B5812D
:1052E0004C919C01068402C0220F331F0A94E2F7FE
:1052F000209524232C93A481B5812C91078402C08E
:10530000880F991F0A94E2F7809582238C93089561
:10531000EF92FF920F931F93CF93DF93EC01DB018A
:105320005296ED91FC915397E080F1806BE00E94E2
:10533000D33A8C0160EB71E10E948E3AB701C8014B
:105340000E94B53B66E00E94D33ACE01DF91CF9137
:105350001F910F91FF90EF9008959C01432F40956E
:10536000441F4427441F80E090E8841B9109AC014E
:10537000421B530BE1E0461757070CF0E0E0432FC8
:105380004095441F4427441FE41719F0C901860FB4
:10539000971F08958617970799F1611520E87207FE
:1053A00041F1719561957109492F4095441F44273A
:1053B000441F20E030E8241B3109A901481B590B88
:1053C000E1E04617570764F4492F4095441F4427EE
:1053D000441FE41719F0860F971F0895C901089517
:1053E000E0E0492F4095441F4427441FE417B1F3E0
:1053F000F2CF97FD03C06FEF7FE7D6CF0196FBCFCB
:1054000080E090E00895811520E8920729F09C0142
:1054100097FD05C0C90108958FEF9FE70895319565
:1054200021953109C9010895811520E8920729F0D5
:105430009C01DB010E94E7440895611520E8720792
:10544000B9F76FEF7FEF8FEF9FE708959A01442739
:1054500037FD4095542F0E945645211580E83807A6
:105460004105510524F02FEF3FE740E050E0DA011D
:10547000C901811520E892072FEFA207B20724F493
:1054800080E090E8AFEFBFEF0895FC01A5E6B0E043
:105490008C91877F8C93A281B3818C91806A8C934D
:1054A000A481B5818C9182618C93A681B78183851B
:1054B000948511969C938E932DB181E090E00584A4
:1054C00002C0880F991F0A94E2F7282B2DB908957E
:1054D0006F927F928F92AF92BF92CF92EF92FF9294
:1054E0000F931F93CF93DF93CDB7DEB73C01FC0141
:1054F00071836083538342833583248317830683B8
:10550000F186E086C286B486A38685860E94452AF7
:10551000F3016080718061147104A9F064E675E0A4
:10552000C3010E948E3A66E0C301DF91CF911F91C3
:105530000F91FF90EF90CF90BF90AF908F907F90A2
:105540006F900C94D33ADF91CF911F910F91FF9000
:10555000EF90CF90BF90AF908F907F906F90089515
:10556000DC011896ED91FC91199771836083089581
:105570000F931F93CF93DF93EC016BE00E94D33A1C
:105580008C0165EC71E10E948E3A66E0C8010E94D0
:10559000D33ACE01DF91CF911F910F9108950F93D0
:1055A0001F93CF93DF93EC010E9486318091020616
:1055B000811121C08CE096E0909308068093070645
:1055C00010920A061092090687E397E19093060667
:1055D00080930506109204061092030690930F061E
:1055E00080930E0683E096E090930D0680930C0660
:1055F00081E080930206209709F460C0AE014C5F01
:105600005F4F2396C633D74108F058C0E091070694
:10561000F0910806A7E0B6E006C08081918100976E
:1056200039F0DF01FC012281338124173507A8F30B
:10563000C6E0E330FC0709F441C00D911C911197BD
:105640000C5F1F4F808191818D939C93C901841BB6
:10565000950B8930910500F1BF01640F751FDB01C7
:1056600013969C938E9312975383428312968D9137
:105670009C911397A7E0B6E001C0DF01ED91FC918A
:1056800011972281338128173907B8F3EB01F98389
:10569000E8836D937C939A018091000290910102BE
:1056A000821B930B90930102809300020E94B932F7
:1056B000C801DF91CF911F910F91089500E010E094
:1056C0000E94B932C801DF91CF911F910F910895C7
:1056D000CF93DF93009721F1EC0124970E9486314C
:1056E0004A815B81A7E0B6E001C0DF01ED91FC914A
:1056F00011972281338124173507B8F3F983E883A2
:10570000CD93DC938091000290910102840F951F4C
:105710009093010280930002DF91CF910C94B932F3
:10572000DF91CF9108958091000290910102089538
:1057300008951F93CF93DF93EC01142F88A181115B
:105740000DC088819981892B09F44DC080E09E8D20
:105750009F5F9E8FDF91CF911F910895482F50E05A
:1057600011111CC08C819D810E94D44628A18C817E
:105770009D81820F911D9D838C832A813B8182179D
:10578000930720F3888199819D838C8380E09E8D8F
:105790009F5F9E8FDF91CF911F9108958E819F8192
:1057A0000E94D44628A130E03195219531098E819F
:1057B0009F81820F931F9F838E83688179818617D3
:1057C000970730F48A819B81820F931F9F838E837A
:1057D000123009F0BBCF8E8D882309F4B7CF8E8DA0
:1057E00081508E8FB3CF8A819B810E94E4351B82CA
:1057F0001A82ADCFFC01CB0140A1442399F050E0C7
:1058000026813781240F351F378326836281738178
:105810002617370720F02081318137832683B9018D
:105820000C94D44608950F931F93CF93DF93EC010C
:105830000FB6F8940F928AA11816ECF48B8988237E
:10584000D1F08E010D5E1F4F09C08AA181508AA33D
:105850008AA1181684F48B89882369F0C8010E94F4
:105860007034882391F30E9464358AA181508AA301
:105870008AA1181684F38FEF8AA30F900FBE0FB67C
:10588000F8940F9289A11816ECF488858823D1F03A
:105890008E01085F1F4F09C089A1815089A389A18A
:1058A000181684F48885882369F0C8010E94703432
:1058B000882391F30E94643589A1815089A389A12D
:1058C000181684F38FEF89A30F900FBEDF91CF914D
:1058D0001F910F910895CF93DF93EC010FB6F894C9
:1058E0000F92288139818F8D78A1879FC001112463
:1058F000A901480F591F5B834A831E8E3D832C8369
:10590000871B9109820F931F9F838E838FEF89A33B
:105910008AA3611112C08885811106C00F900FBE45
:1059200081E0DF91CF910895CE0108960E947034F6
:105930008130A1F70E94B53FF1CFCE0108960E94B9
:10594000463ECE0143960E94463E0F900FBE81E038
:10595000DF91CF9108950F931F93CF93DF93182F6B
:10596000062F882301F183E290E00E94CF2AEC0108
:105970000097C9F0109FC001112401960E94CF2A00
:1059800099838883892B61F01F8F08A361E0CE0182
:105990000E946B2CCE01DF91CF911F910F91089542
:1059A000CE010E94682BC0E0D0E0CE01DF91CF9104
:1059B0001F910F9108956F927F928F929F92AF9255
:1059C000BF92CF92DF92EF92FF920F93CF93DF932C
:1059D000CDB7DEB729970FB6F894DEBF0FBECDBFA7
:1059E0005C014B012E833F834887598720E03C01AF
:1059F00088E0680E711C0FB6F8940F92F501968D31
:105A0000878D981708F459C0023009F456C0CE802B
:105A1000DF80E884F984CD28CE28CF2809F46FC030
:105A2000222309F441C00F900FBE0E9486310FB6A9
:105A3000F8940F92F50181A18F3F09F43CC0F50164
:105A400082A18F3FB1F10F900FBEBE016A5F7F4F01
:105A5000CE0101960E940335811155C00FB6F8940E
:105A60000F92F501968D0F900FBEF501878D98135B
:105A700014C04E815F8168857985C3010E94153409
:105A8000C5010E94132C0E94B932882311F021E035
:105A9000B2CF0E94B53F21E0AECFC5010E94132CCA
:105AA0000E94B93221E0A7CFCE0101960E94F234C4
:105AB000BACF12A2C8CF11A2C2CF402FB401C501E4
:105AC0000E94992BF5019389911124C0811128C05E
:105AD0000F900FBE81E029960FB6F894DEBF0FBE7F
