:100000000C9416070C9445070C9445070C9445076F
:100010000C9445070C9445070C9445070C94450730
:100020000C9445070C9445070C9445070C94450720
:100030000C9445070C9445070C9445070C94450710
:100040000C9445070C9445070C9445070C94450700
:100050000C9445070C9445070C9445070C944507F0
:100060000C9445070C944A350C9445070C944507AD
:100070000C9445070C9445070C9445070C944507D0
:100080000C9445070C9445070C9445070C944507C0
:100090000C949D350C9445070C9445070C9445072A
:1000A0000C9445070C9445070C9445070C944507A0
:1000B0000C9445070C9445070C9445070C94143890
:1000C0000C9445070C9445070C94450773317C311B
:1000D0007F31823175317531853195319C31A33154
:1000E000A7317931416E676C652069733A20004D04
:1000F00045343035204C6162203520494D55204330
:100100006F6E74726F6C6C657200496C6C656761C0
:100110006C20737461746521205265736574746911
:100120006E672041565200223A205754463F001B2A
:100130005B33326D001B5B33306D001B5B34376DFE
:10014000007C0909202771272020202071756974FF
:1001500020746F206D61696E206D656E75202020A2
:1001600020202020202020202020202009097C0081
:100170007C2D2D2D2D2D2D2D2D2D2D2D2D2D2D2D60
:100180002D2D2D2D2D2D2D2D2D2D2D2D2D2D2D2D9F
:100190002D2D2D2D2D2D2D2D2D2D2D2D2D2D2D2D8F
:1001A0002D2D2D2D2D2D2D2D2D2D2D2D2D2D2D2D7F
:1001B0002D2D2D2D2D2D2D207C007C09092020207A
:1001C000202020202020204A6F79537469636B20FF
:1001D000436F6E74726F6C204D6F64652020202019
:1001E000202020202009097C007C09092027712774
:1001F000202020207175697420746F206D61696EF4
:10020000206D656E752020202020202020202020B9
:100210002020202009097C007C090920202020556D
:10022000736520746865204A6F79537469636B2025
:10023000746F206D6F76652061726F756E6420201B
:1002400020202009097C007C2D2D2D2D2D2D2D2DDC
:100250002D2D2D2D2D2D2D2D2D2D2D2D2D2D2D2DCE
:100260002D2D2D2D2D2D2D2D2D2D2D2D2D2D2D2DBE
:100270002D2D2D2D2D2D2D2D2D2D2D2D2D2D2D2DAE
:100280002D2D2D2D2D2D2D2D2D2D2D2D2D2D207C5C
:10029000007C0909202020202020202020204472DA
:1002A00069766520436F6E74726F6C204D6F646564
:1002B00020202020202020202020202009097C0030
:1002C000494D5520444154413A200009092D3E2012
:1002D00070726573732027722720746F20726566B1
:1002E0007265736820007C0909202771272020206F
:1002F000207175697420746F206D61696E206D6561
:100300006E7520202020202020202020202020204A
:100310002009097C007C0909202772272020202041
:1003200052656672657368207468652064617461E3
:1003300020202020202020202020202020202020BD
:1003400009097C007C2D2D2D2D2D2D2D2D2D2D2DB4
:100350002D2D2D2D2D2D2D2D2D2D2D2D2D2D2D2DCD
:100360002D2D2D2D2D2D2D2D2D2D2D2D2D2D2D2DBD
:100370002D2D2D2D2D2D2D2D2D2D2D2D2D2D2D2DAD
:100380002D2D2D2D2D2D2D2D2D2D2D207C007C095D
:100390000920202020202020202020494D552043C6
:1003A0006F6E74726F6C204D6F64756C65202020C9
:1003B00020202020202020202009097C00456E6379
:1003C0006F64657220436F756E743A2000456E63EA
:1003D0006F646572205469636B732F6D733A2000EC
:1003E00009092D3E207072657373202772272074CF
:1003F0006F207265667265736820007C090920278A
:100400007127202020207175697420746F206D6120
:10041000696E206D656E7520202020202020202010
:1004200020202020202009097C007C090920277237
:1004300027202020205265667265736820746865E5
:100440002064617461202020202020202020202092
:10045000202020202009097C007C2D2D2D2D2D2DE4
:100460002D2D2D2D2D2D2D2D2D2D2D2D2D2D2D2DBC
:100470002D2D2D2D2D2D2D2D2D2D2D2D2D2D2D2DAC
:100480002D2D2D2D2D2D2D2D2D2D2D2D2D2D2D2D9C
:100490002D2D2D2D2D2D2D2D2D2D2D2D2D2D2D2D8C
:1004A000207C007C09092020202020202020456E6F
:1004B000636F64657220436F6E74726F6C204D6F52
:1004C00064756C6520202020202020202020090930
:1004D0007C004D4520343035204C61622035204968
:1004E0004D552054657374696E67004A756E2020FF
:1004F0003820323031360053797374656D20746959
:100500006D653A20002C20486561703A20002C204F
:100510004F435235413A20003C696E76616C696404
:100520002063686172202200223E002020683A2069
:100530002020202048414C502100202043746C2D65
:10054000433A2052657365742074686520415652A1
:100550000020206E3A2020202020456E74657220F5
:1005600061206E756D626572202864656D6F29006B
:100570002020643A2020202020537461636B206483
:10058000756D7020666F72207461736B730020202C
:10059000733A202020202056657273696F6E2061A7
:1005A0006E6420736574757020696E666F726D611C
:1005B00074696F6E002020743A2020202020536838
:1005C0006F77207468652074696D6520726967684B
:1005D00074206E6F77004D4520343035204C6162B9
:1005E000203520494D552054657374696E6700208D
:1005F00068656C7000446562756767696E6720495D
:100600006E666F3A20002D2D2D2D2D2D2D09092DD3
:100610002D2D2D2D2D2D2D092D2D2D2D2D2D2D0952
:10062000092D2D2D2D2D2D2D2D2D2D2D004D6F74A2
:100630006F720909536574506F696E740920506FA9
:100640007765720909456E636F646572436F756EF5
:1006500074002D2D2D2D2D2D2D09092D2D2D2D2DF8
:100660002D2D2D092D2D2D2D2D2D2D09092D2D2D26
:100670002D2D2D2D2D2D2D2D004D6F746F722031B0
:10068000090900090009000900090009002D2D2DA4
:100690002D2D2D2D09092D2D2D2D2D2D2D2D092DF6
:1006A0002D2D2D2D2D2D09092D2D2D2D2D2D2D2DC2
:1006B0002D2D2D005354455F5009094E636F64651D
:1006C000722F730920582D444952430909592D446A
:1006D000495243002D2D2D2D2D2D2D09092D2D2D68
:1006E0002D2D2D2D2D092D2D2D2D2D2D2D09092DA6
:1006F0002D2D2D2D2D2D2D2D2D2D004D6F746F7227
:100700002031090900090009000900090009002D2C
:100710002D2D2D2D2D2D09092D2D2D2D2D2D2D2D51
:10072000092D2D2D2D2D2D2D09092D2D2D2D2D2D65
:100730002D2D2D2D2D004D6F746F7209095374618D
:100740007475730909506F77657209094469726598
:100750006374696F6E002D2D2D2D2D2D2D09092D02
:100760002D2D2D2D2D2D2D092D2D2D2D2D2D2D0901
:10077000092D2D2D2D2D2D2D2D2D2D2D004D6F7451
:100780006F72203109090009000909007C0909205C
:10079000277127202020202052657475726E2074E6
:1007A0006F2070726576696F7573206D656E752048
:1007B00009097C007C09092027702720202020209F
:1007C000456E74657220506F74656E74696F6D65E7
:1007D000746572204D6F646509097C007C090920ED
:1007E000276627202020202046726565776865658A
:1007F0006C206D6F746F722020202020202020201C
:1008000009097C007C09092027622720202020205C
:100810004170706C7920746865206D6F746F722000
:100820006272616B6520202009097C007C09092027
:1008300027732720202020205365742074686520AA
:100840006D6F746F7220706F77657220202020208A
:1008500009097C007C2D2D2D2D2D2D2D2D2D2D2D9F
:100860002D2D2D2D2D2D2D2D2D2D2D2D2D2D2D2DB8
:100870002D2D2D2D2D2D2D2D2D2D2D2D2D2D2D2DA8
:100880002D2D2D2D2D2D2D2D2D2D2D2D2D2D2D2D98
:100890002D2D2D2D7C007C090920202053696E67A9
:1008A0006C65204D6F746F7220436F6E74726F6C45
:1008B000204D6F64756C6520202009097C007C093F
:1008C00009202020204D61696E204D6F746F7220C9
:1008D000436F6E74726F6C204D6F64756C65202071
:1008E000202009097C007C2D2D2D2D2D2D2D2D2D29
:1008F0002D2D2D2D2D2D2D2D2D2D2D2D2D2D2D2D28
:100900002D2D2D2D2D2D2D2D2D2D2D2D2D2D2D2D17
:100910002D2D2D2D2D2D2D2D2D2D2D2D2D2D2D2D07
:100920002D2D2D2D2D2D7C007C09092027312720F0
:1009300020202020746F206F706572617465204DD7
:100940006F746F72203120202020202009097C0044
:100950007C0909202732272020202020746F206F57
:10096000706572617465204D6F746F722032202043
:100970002020202009097C007C09092027712720DC
:100980002020202052657475726E20746F204D6196
:10099000696E204D656E75202020202009097C009D
:1009A0001B5B34376D001B5B33316D004D452034CC
:1009B0003035204C6162203520494D5520546573F7
:1009C00074696E670009090920202020004A756EAD
:1009D0002020382032303136001B5B33306D007CF4
:1009E0000909202020204D697373696F6E20436FC1
:1009F0006E74726F6C2050726F6772616D20763109
:100A00002E302020202009097C007C2D2D2D2D2D1D
:100A10002D2D2D2D2D2D2D2D2D2D2D2D2D2D2D2D06
:100A20002D2D2D2D2D2D2D2D2D2D2D2D2D2D2D2DF6
:100A30002D2D2D2D2D2D2D2D2D2D2D2D2D2D2D2DE6
:100A40002D2D2D2D2D2D2D2D2D2D7C007C090920BA
:100A50002020202020202020456E746572204D6FBC
:100A6000746F7220436F6E74726F6C204D6F64757B
:100A70006C6520202009097C001B5B34376D007CED
:100A80000909202020202020202020456E74657236
:100A900020456E636F64657220436F6E74726F6C75
:100AA000204D6F64756C652009097C007C09092064
:100AB0002020202020202020456E74657220494D82
:100AC0005520436F6E74726F6C204D6F64756C654A
:100AD000202020202009097C007C090920202020DA
:100AE0002020202020456E7465722044726976654E
:100AF000204D6F64652020202020202020202020F1
:100B0000202009097C007C090920202020202020A9
:100B10002020446973706C617920616C6C206F7067
:100B200074696F6E7320202020202020202020094F
:100B3000097C007C09092020202020202020205230
:100B400065736574204156522020202020202020EB
:100B500020202020202020202020202009097C0087
:100B6000204552524F523A200043757272656E749E
:100B7000204368616E6E656C2052656164696E67C2
:100B8000733A2000456E64205072696E742044618F
:100B900074610054686973204843544C2D323030DE
:100BA00030206973207573696E672074686573659A
:100BB0002070696E733A004F452070696E3A2000CC
:100BC0005368617261626C652070696E733A00539C
:100BD000454C2070696E3A20004461746120627552
:100BE0007320706F72743A2000496E697469616C89
:100BF000697A6564204932433A20004D6F746F7200
:100C00002044726976657220496E7075743A2000CE
:100C1000536572766F2044726976657220496E70F2
:100C200075743A20004E6F207368617265642064A9
:100C3000617461206974656D7320746F20707269CE
:100C40006E74002D2D2D2D202020202020202020EE
:100C50002020202D2D2D2D202020202D2D2D2D2D1F
:100C60002D2D2D2D2D0053686172652F51756575E1
:100C70006520202020205479706520202020467295
:100C800065652F546F74616C004552524F5220635A
:100C900072656174696E67207461736B2022005401
:100CA00061736B2022002220637265617465642C7D
:100CB00020737461636B2061742030780049444C68
:100CC00045090930092D09002F0009092D002D2D96
:100CD0002D2D09092D2D2D2D092D2D2D2D2D000901
:100CE0002D2D2D2D2D2D2D2D2D2D00092D2D2D2D85
:100CF000004E616D6509095072692E095374617463
:100D0000650009467265652F546F74616C00095265
:100D1000756E73005461736B090920200920000966
:100D2000537461636B00090009002F00090009007A
:100D300000407A10F35A00A0724E18090010A5D492
:100D4000E80000E87648170000E40B54020000CAEF
:100D50009A3B000000E1F505000080969800000035
:100D600040420F000000A086010000001027000094
:100D70000000E803000000006400000000000A001A
:100D8000000000000100000000002C76D888DC671D
:100D90004F0823DFC1DFAE59E1B1B796E5E3E45375
:100DA000C63AE651997696E8E6C28426EB898C9B92
:100DB00062ED407C6FFCEFBC9C9F40F2BAA56FA532
:100DC000F490055A2AF75C936B6CF9676DC11BFCB4
:100DD000E0E40D47FEF520E6B500D0ED902E0300CF
:100DE000943577050080841E080000204E0A00001C
:100DF00000C80C333333330F986E12831141EF8DDB
:100E00002114893BE65516CFFEE6DB18D1844B381A
:100E10001BF77C1D901DA4BBE424203284725E224B
:100E20008100C9F124ECA1E53D27763D11241FBEC8
:100E3000CFEFD1E2DEBFCDBF17E0A0E0B2E0E6EF3A
:100E4000F2E800E00BBF02C007900D92AE37B10789
:100E5000D9F71FE1AEE7B7E001C01D92A236B10796
:100E6000E1F71EE0CCE2DEE000E006C022970109D7
:100E7000FE010BBF0E94543ECA32D10780E0080732
:100E8000A9F70E94943A0C9479410C9400000F93B6
:100E90001F93CF93DF93EC018BA58111AFC06BE063
:100EA0008E819F810E9466318C0160EA79E00E9408
:100EB00021316BE0C8010E9466318C0166EA79E05D
:100EC0000E94213166E0C8010E9466316BE00E94F9
:100ED00066318C016CEA79E00E94213166E0C8013C
:100EE0000E94663166E00E9466316BE00E946631C6
:100EF0008C0165EC79E00E9421316BE0C8010E9411
:100F000066318C016DEC79E00E94213166E0C80108
:100F10000E9466316BE00E9466318C0169ED79E0D8
:100F20000E9421316BE0C8010E9466318C016FED97
:100F300079E00E94213166E0C8010E9466316BE0D1
:100F40000E9466318C016AE07AE00E94213166E0FD
:100F5000C8010E9466316BE00E9466318C016CE42E
:100F60007AE00E9421316BE0C8010E9466318C0159
:100F700069E77AE00E94213166E0C8010E9466318B
:100F80006BE00E9466318C016FE77AE00E942131AC
:100F900066E0C8010E9466316BE00E9466318C01F8
:100FA0006CEA7AE00E94213166E0C8010E94663155
:100FB0006BE00E9466318C0169ED7AE00E9421317C
:100FC00066E0C8010E9466316BE00E9466318C01C8
:100FD00066E07BE00E94213166E0C8010E94663134
:100FE0006BE00E9466318C0163E37BE00E9421315B
:100FF00066E0C8010E94663181E08BA7DF91CF9146
:101000001F910F9108950F931F93CF93DF93EC01DE
:101010008BA5811146C066E08E819F810E9466315A
:1010200066E00E9466316BE00E9466318C016EEBD7
:1010300078E00E94213166E0C8010E9466316BE0D1
:101040000E9466318C0166EE78E00E94213166E0F4
:10105000C8010E9466316BE00E9466318C0168E233
:1010600079E00E94213166E0C8010E9466316BE0A0
:101070000E9466318C0160E579E00E94213166E0D2
:10108000C8010E9466316BE00E9466318C0168E7FE
:1010900079E00E94213166E0C8010E94663181E05A
:1010A0008BA7DF91CF911F910F9108950F931F93FD
:1010B000CF93DF93EC018BA5811169C066E08E812F
:1010C0009F810E9466316BE08E819F810E94663114
:1010D0008C0166E978E00E94213166E0C8010E9437
:1010E00066316BE08E819F810E9466318C0164E5E0
:1010F00078E00E94213166E0C8010E9466316BE011
:101100008E819F810E9466318C016CE278E00E94A2
:10111000213166E0C8010E9466316BE08E819F81BB
:101120000E9466318C0164E078E00E94213166E023
:10113000C8010E9466316BE08E819F810E946631FA
:101140008C016CED77E00E94213166E0C8010E94BD
:1011500066316BE08E819F810E9466318C0164EB69
:1011600077E00E94213166E0C8010E9466316BE0A1
:101170008E819F810E9466318C016CE877E00E942D
:10118000213166E0C8010E94663181E08BA7DF91C2
:10119000CF911F910F9108952F923F924F925F929E
:1011A0006F927F928F929F92AF92BF92CF92DF9277
:1011B000EF92FF920F931F93CF93DF93EC018BA5D8
:1011C000811176C188A1811186C16CE8A62E63E0E9
:1011D000B62E58E8E52E53E0F52E66E08E819F810D
:1011E0000E946631CC8CDD8C6BE08E819F810E94E9
:1011F00066318C016FE077E00E94213166E0C80122
:101200000E9466316BE00E9466318C0166E377E0F4
:101210000E94213166E0C8010E9466316BE00E94A5
:1012200066318C0166E577E00E94213166E0C801F5
:101230000E9466316BE00E9466318C016DE777E0B9
:101240000E942131B501C8010E9421316BE0C80123
:101250000E9466318C0167E877E00E942131B60177
:10126000C8010E94C2326BE00E9466318C0169E8BD
:1012700077E00E942131B701C8010E94213166E068
:10128000C8010E94663166E00E94663129A43AA432
:101290004FA058A40FB6F8940F92E0919007F091E8
:1012A0009107008511850F900FBE0FB6F8940F922D
:1012B000E0919807F0919907C084D184E284F38487
:1012C0000F900FBE0FB6F8940F92E0919C07F0912B
:1012D0009D07A084B1840F900FBE0FB6F8940F92B3
:1012E000E0919E07F0919F07808491840F900FBE3C
:1012F00066E08E819F810E9466316BE00E946631BC
:101300003C0165EF75E00E94213166E0C3010E9457
:1013100066316BE00E9466313C0166E076E00E9437
:10132000213166E0C3010E9466316BE00E946631A4
:101330003C016DE276E00E94213166E0C3010E942B
:1013400066316BE00E9466313C0162E576E00E9406
:10135000213166E0C3010E9466316BE00E94663174
:101360003C0169E776E00E942131B401C3010E948B
:10137000C2326BE00E9466314C0163E876E00E9465
:1013800021316BE0C4010E9466314C0165E876E0D2
:101390000E942131B501C4010E94C2326BE00E945B
:1013A00066315C0167E876E00E9421316BE0C5019F
:1013B0000E9466315C0169E876E00E942131B70144
:1013C000A601C5010E94F1326BE00E9466317C01EA
:1013D0006BE876E00E94213166E0C7010E94663129
:1013E0006BE00E9466317C016DE876E00E9421315D
:1013F00066E0C7010E9466316BE00E9466317C01A5
:1014000064EB76E00E94213166E0C7010E946631FC
:101410006BE00E9466317C0164ED76E00E94213130
:1014200066E0C7010E9466316BE00E9466317C0174
:101430006BEF76E00E942131B801C7010E94C232F1
:101440006BE00E9466318C0165E077E00E942131FB
:101450006BE0C8010E9466318C0167E077E00E9472
:101460002131B201C8010E94C2326BE00E94663194
:101470008C0169E077E00E9421316BE0C8010E9495
:1014800066318C016BE077E00E942131B101C80127
:101490000E94C2326BE00E9466318C016DE077E001
:1014A0000E94213166E0C8010E94663181E08BA76D
:1014B000DF91CF911F910F91FF90EF90DF90CF9030
:1014C000BF90AF909F908F907F906F905F904F9064
:1014D0003F902F9008958130C9F0823091F0833091
:1014E000F9F076EAA72E73E0B72E8C8D9D8D97FDCF
:1014F00012C0892B09F46DCE4DE9E42E43E0F42EA1
:101500006CCE96EBA92E93E0B92EEFCF2FEBA22E47
:1015100023E0B22EEACF35E9E32E33E0F32E5DCEA1
:101520008DEAA82E83E0B82EE0CF0F931F93CF93C0
:10153000DF93EC0166E08E819F810E9466316BE053
:101540000E9466318C0166ED75E00E9421316BE0EE
:10155000C8010E9466318C016FEE75E00E94213156
:1015600066E0C8010E9466316BE08E819F810E9417
:1015700066318C0165EB75E00E94213166E0C8019F
:101580000E9466316BE08E819F810E9466318C01E2
:101590006EE875E00E94213166E0C8010E94663164
:1015A0006BE08E819F810E9466318C0160E775E05F
:1015B0000E94213166E0C8010E9466316BE08E8195
:1015C0009F810E9466318C0161E575E00E942131A6
:1015D00066E0C8010E9466316BE08E819F810E94A7
:1015E00066318C016AE375E00E94213166E0C80132
:1015F0000E9466316BE08E819F810E946631EC0112
:101600006BE275E00E94213166E0CE01DF91CF915F
:101610001F910F910C946631CF93DF93EC018E8173
:101620009F81DC01ED91FC910480F581E02D09950D
:10163000811104C080E0DF91CF9108958E819F8158
:10164000DC01ED91FC910680F781E02D09958A8BF4
:1016500081E0DF91CF910895CF93DF93CDB7DEB7CF
:101660002D970FB6F894DEBF0FBECDBF8C01DC0105
:1016700054961C921E92539799249394F801848552
:101680008823F1F0813009F45AC06BE0F8018681BB
:1016900097810E9466318C016AE071E00E942131DD
:1016A00066E0C8010E9466312BE088E190E00FB649
:1016B000F894A895809360000FBE20936000FFCF40
:1016C000C8010E944707C8010E940C0B8823B9F18A
:1016D000D80152962C91293609F448C00CF4FDC269
:1016E000223709F4E6C2233709F4C9C22C3609F4BB
:1016F00073C2D8011696ED90FC901797D701ED9123
:10170000FC910280F381E02D62E2C7012D870995EB
:10171000D701ED91FC910280F381E02D2D85622FA0
:10172000C70109956BE0C7010E9466317C0167E241
:1017300071E00E94213166E0C7010E946631D80144
:101740001E964D915D916D917C9151974F5F5F4FCA
:101750006F4F7F4FF80146875787608B718B61E031
:1017600070E080E090E00E94262A88CFF801E680B1
:10177000F78068EC73E0C7010E94213166E0C70181
:101780000E946631D8011696ED90FC90179769ED8E
:1017900073E0C7010E94213166E0C7010E946631F3
:1017A00063E00E946631F801828D938D0E94CF160E
:1017B00063E0D80116968D919C9117970E9466312F
:1017C00066E00E94663166E00E946631F801828D13
:1017D000938D0E94A919D82ED8011696ED90FC90F1
:1017E00017976AEE73E0C7010E9421316D2DC70182
:1017F0000E94F13066E00E946631F801E680F780D1
:1018000068EF73E0C7010E94213166E0C7010E94C2
:10181000663162E00E9466310FB6F8940F92E09153
:101820008407F0918507C084D1840F900FBED80142
:101830001696ED90FC9017976FE074E0C7010E9438
:101840002131B601C7010E94C23266E00E946631B2
:101850000FB6F8940F92E0918007F0918107C08451
:10186000D1840F900FBEF801E680F78069E174E043
:10187000C7010E942131B601C7010E94C23266E051
:101880000E9466310FB6F8940F92E0917E07F091B6
:101890007F07C084D1840F900FBED8011696ED90BB
:1018A000FC90179760E274E0C7010E942131B601F5
:1018B000C7010E94C23266E00E94663166E0F8010C
:1018C000868197810E946631D8015A968D919C91AC
:1018D0005B970E942F17D82EF801E680F78068E208
:1018E00074E0C7010E9421316D2DC7010E9423338E
:1018F00066E00E946631D8011696ED90FC9017972D
:1019000060E474E0C7010E94213166E0C7010E94D3
:101910006631F801628D738D4AE1CE0101960E9415
:10192000A917C980DA80EB80FC80C092A207D09210
:10193000A307E092A407F092A5078D819E81AF8155
:10194000B8858093A6079093A707A093A807B093A4
:10195000A90789859A85AB85BC858093AA07909352
:10196000AB07A093AC07B093AD07D8011696AD9026
:10197000BC90179764E874E0C5010E94213162E0D1
:10198000C5010E9466315C01C701B6010E94C03EDC
:10199000C5010E94C23266E00E9466316091A607CE
:1019A0007091A7078091A8079091A9070E94C03E57
:1019B0006B017C01F801A680B78063E974E0C50182
:1019C0000E94213162E0C5010E946631B6010E9489
:1019D000C23266E00E9466316091AA077091AB073F
:1019E0008091AC079091AD070E94C03E6B017C01D5
:1019F000D8011696AD90BC90179762EA74E0C501C5
:101A00000E94213162E0C5010E946631B6010E9448
:101A1000C23266E00E94663121EE3EE245E652E4C3
:101A20006091A2077091A3078091A4079091A507E8
:101A30000E947F3F6093A2077093A3078093A4073F
:101A40009093A50721EE3EE245E652E46091A60799
:101A50007091A7078091A8079091A9070E947F3FE6
:101A60006093A6077093A7078093A8079093A90790
:101A700021EE3EE245E652E46091AA077091AB0781
:101A80008091AC079091AD070E947F3F6093AA07B9
:101A90007093AB078093AC079093AD0766E0F801B5
:101AA000868197810E946631D8011696ED90FC9050
:101AB000179761E674E0C7010E94213166E0C70113
:101AC0000E946631C090A207D090A307E090A407BF
:101AD000F090A507F801A680B78060E874E0C50122
:101AE0000E94213162E0C5010E946631B701A60162
:101AF0000E943B3266E00E946631C090A607D090FB
:101B0000A707E090A807F090A907D8011696AD9016
:101B1000BC9017976FE874E0C5010E94213162E024
:101B2000C5010E946631B701A6010E943B3266E002
:101B30000E946631C090AA07D090AB07E090AC0736
:101B4000F090AD07F801A680B7806EE974E0C5019A
:101B50000E94213162E0C5010E946631B701A601F1
:101B60000E943B3266E00E94663166E0D80116961C
:101B70008D919C9117970E946631F801E680F7805D
:101B80006DEA74E0C7010E94213166E0C7010E943E
:101B90006631D8015A968D919C915B970E94B21A3A
:101BA0006BE0F801868197810E9466317C016FE2CB
:101BB00071E00E94213169EC74E0C7010E9421317B
:101BC00066E0C7010E9466316BE00E94663165E302
:101BD00071E00E942131B3CD0FB6F8940F92E091DD
:101BE0008407F0918507C084D1840F900FBED8017F
:101BF0001696ED90FC9017976FE074E0C7010E9475
:101C00002131B601C7010E94C23266E00E946631EE
:101C10000FB6F8940F92E0918007F0918107C0848D
:101C2000D1840F900FBEF801E680F78069E174E07F
:101C3000C7010E942131B601C7010E94C23266E08D
:101C40000E9466310FB6F8940F92E0917E07F091F2
:101C50007F07C084D1840F900FBED8011696ED90F7
:101C6000FC90179760E274E0C7010E942131B60131
:101C7000C7010E94C23266E00E94663160CDD80181
:101C80001696ED90FC90179765E075E0C7010E94ED
:101C9000213166E0C7010E9466310FB6F8940F92B9
:101CA000E0918607F091870782E080870F900FBE52
:101CB00046CDD8011696ED90FC90179763ED74E031
:101CC000C7010E94213166E0C7010E946631F80118
:101CD000828D938D0E94421732CD2136D1F0243669
:101CE00009F007CDF801E680F7806BE175E0C701E8
:101CF0000E94213166E0C7010E9466310FB6F89458
:101D00000F92E0918607F091870710860F900FBE23
:101D100016CDF801E680F7806DEE74E0C7010E94F1
:101D2000213166E0C7010E9466310FB6F8940F9228
:101D3000E0918607F091870790860F900FBEFFCC49
:101D4000CF92DF92FF920F931F93CF93DF931F9257
:101D5000CDB7DEB76C01DC0154961C921E925397EE
:101D6000F12CF60186819781DC01ED91FC910480D4
:101D7000F581E02D0995882309F440C0F60186819C
:101D80009781DC01ED91FC910680F781E02D0995AA
:101D9000282FF601828B80ED820F8A3008F458C01C
:101DA0002D3209F478C0213709F498C02A3009F49B
:101DB0007FC02D3009F484C02B3109F481C06BE061
:101DC000F6018681978129830E9466318C0168E142
:101DD00075E00E942131D801ED91FC910280F381E0
:101DE000E02D2981622FC80109956BE0C8010E948E
:101DF000663168E275E00E942131B3CF8091A0077F
:101E00009091A107DC01ED91FC910480F581E02D1A
:101E10000995882309F4A5CFD6011696ED91FC917A
:101E200017970190F081E02D028113818091A00726
:101E30009091A107DC01ED91FC910680F781E02DE6
:101E40000995682FF60186819781F801099589CF58
:101E500086819781DC01ED91FC910280F381E02D78
:101E6000622F0995F60123893489C901880F991FCA
:101E7000220F331F220F331F220F331F820F931F96
:101E80002289332727FD309520533109820F931F74
:101E9000948B838B66CF86819781DC01ED91FC91D9
:101EA0000280F381E02D6DE20995FF24F39459CF70
:101EB00062E375E0F601868197810E94213151CF5E
:101EC000FF2061F0D60153968D919C915497919586
:101ED0008195910954969C938E9353970F90DF911F
:101EE000CF911F910F91FF90DF90CF9008958F9227
:101EF0009F92AF92BF92CF92DF92EF92FF920F9399
:101F00001F93CF93DF9300D000D000D0CDB7DEB7C2
:101F10008C0119821A821B821C821E821D82C09033
:101F20002801D09029010E9426225C01CE01019651
:101F30000E94BC304C0166E0F801868197810E94C6
:101F400066316BE00E9466317C0162ED74E00E94B4
:101F500021316BE0C7010E9466317C016BEE74E0B9
:101F60000E94213166E0C7010E9466316BE00E9449
:101F700066317C0167EF74E00E942131B401C70132
:101F80000E945B306BE00E9466317C0165E075E089
:101F90000E942131B501C7010E945F337C0164E3D7
:101FA00075E00E94213148E357E160E070E0C7012D
:101FB0000E9499336BE00E9466317C016EE075E00F
:101FC0000E942131B601C7010E945F3366E00E9482
:101FD000663166E00E946631F801868197810E9431
:101FE0000D2F66E0F801868197810E946631F80125
:101FF000868197810E94302D26960FB6F894DEBF19
:102000000FBECDBFDF91CF911F910F91FF90EF9049
:10201000DF90CF90BF90AF909F908F9008950FB6B4
:10202000F8940F92E0919A07F0919B0720870F9008
:102030000FBE0FB6F8940F92E0919E07F0919F07A4
:10204000518740870F900FBEFC0120A3558F448F0E
:1020500008956150710981E06230710508F080E0F7
:102060000895FC0113A60895AF92BF92CF92DF921C
:10207000EF92FF920F931F93CF93DF93EC018BA509
:10208000811185C06BE08E819F810E9466318C0139
:1020900063EA74E00E94213166E0C8010E94663163
:1020A0006BE08E819F810E9466318C0169E574E04E
:1020B0000E94213166E0C8010E9466316BE08E818A
:1020C0009F810E9466318C016AE274E00E94213196
:1020D00066E0C8010E9466316BE08E819F810E949C
:1020E00066318C016BEF73E00E94213166E0C8011C
:1020F0000E9466310FB6F8940F92E0919607F09126
:102100009707A084B1840F900FBE0FB6F8940F927A
:10211000E0919807F0919907C084D184E284F38418
:102120000F900FBE6BE08E819F810E9466318C0103
:102130006DEB73E00E942131B701A601C8010E9436
:10214000F13266E00E9466316BE00E9466318C01DC
:102150006DEC73E00E942131B501C8010E94C232CA
:1021600066E00E94663166E00E9466316BE00E9484
:1021700066318C0160EE73E00E94213166E0C80197
:102180000E94663166E00E94663181E08BA7DF9194
:10219000CF911F910F91FF90EF90DF90CF90BF9064
:1021A000AF900895CF92DF92EF92FF920F931F931B
:1021B000CF93DF93EC018BA581116BC06BE08E8117
:1021C0009F810E9466318C016EE873E00E9421318C
:1021D00066E0C8010E9466316BE08E819F810E949B
:1021E00066318C0164E473E00E94213166E0C8012D
:1021F0000E9466316BE08E819F810E9466318C0166
:1022000065E173E00E94213166E0C8010E946631F9
:102210006BE08E819F810E9466318C0166EE72E0D8
:102220000E94213166E0C8010E9466310FB6F89421
:102230000F92E0919807F0919907C084D184E284CD
:10224000F3840F900FBE6BE08E819F810E946631F8
:102250008C0160EC72E00E942131B701A601C80137
:102260000E94F13266E00E94663166E00E946631AB
:102270006BE00E9466318C016BEC72E00E942131B0
:1022800066E0C8010E94663166E00E94663181E026
:102290008BA7DF91CF911F910F91FF90EF90DF906F
:1022A000CF9008950F931F93CF93DF93EC018BA5ED
:1022B000811140C06BE08E819F810E9466318C014C
:1022C00061E972E00E94213166E0C8010E94663136
:1022D0006BE08E819F810E9466318C0167E472E021
:1022E0000E94213166E0C8010E9466316BE08E8158
:1022F0009F810E9466318C0168E172E00E94213169
:1023000066E0C8010E9466316BE08E819F810E9469
:1023100066318C0169EE71E00E94213166E0C801EE
:102320000E94663166E00E946631CE010E94CC08B0
:1023300081E08BA7DF91CF911F910F9108950F93AB
:102340001F93CF93DF93EC018BA581112CC06BE021
:102350008E819F810E9466318C016AEB71E00E9440
:10236000213166E0C8010E9466316BE08E819F8159
:102370000E9466318C0160E771E00E94213166E0C5
:10238000C8010E9466316BE08E819F810E94663198
:102390008C0161E471E00E94213166E0C8010E9475
:1023A000663181E08BA7DF91CF911F910F91089546
:1023B000EF92FF920F931F93CF93DF93EC010E9454
:1023C000752D8AE395E0998388836BE08E819F81E8
:1023D0000E9466316BE371E00E942131FB8EEA8E30
:1023E000DF91CF911F910F91FF90EF900895CF93C0
:1023F000DF9300D000D0CDB7DEB78C010E941F283C
:1024000069837A838B839C8380918000836A809325
:102410008000809181008A60809381001BC082309F
:1024200009F448C0833009F44BC0F801468557854C
:10243000608971894F5F5F4F6F4F7F4F4687578726
:10244000608B718B4AE050E060E070E0CE01019655
:102450000E94BF290FB6F8940F92E0919A07F0916D
:102460009B0780850F900FBE813099F08111D7CFE7
:102470000FB6F8940F920F900FBEE0919C07F09169
:102480009D0760857185F801838994890E94711F79
:10249000CCCF0FB6F8940F920F900FBEE0919C072F
:1024A000F0919D0760857185F801838994890E9468
:1024B000F61EBBCFF801838994890E94C51FB5CF52
:1024C00060E0F801858996890E944116880F991F5E
:1024D0007C01FFEFEF1AF3E0FF0AB701F8018389EF
:1024E00094890E94F61E0FB6F8940F92E0919E0711
:1024F000F0919F07F186E0860F900FBE96CFAF92C6
:10250000CF92DF92EF92FF920F931F93CF93DF93BF
:10251000EC010E94752D82E495E099838883FC8A02
:10252000EB8ADE8ACD8AAA8ADF91CF911F910F9123
:10253000FF90EF90DF90CF90AF900895CF93DF930F
:1025400000D000D0CDB7DEB78C010E941F28698370
:102550007A838B839C83EE24EA948FE0F82E4FC01D
:10256000841795070CF068C09701241B350B280FC2
:10257000391FF801378B268BE0919807F091990766
:102580000FB6F8940F920F900FBE0FB6F8940F92FB
:10259000C901AA2797FDA095BA2F4085518562856C
:1025A0007385480F591F6A1F7B1F408751876287B9
:1025B00073870F900FBE0FB6F8940F92E0919607B5
:1025C000F0919707318720870F900FBEF80184891B
:1025D0009589938B828B46855785608971894F5F7A
:1025E0005F4F6F4F7F4F46875787608B718B41E0FE
:1025F00050E060E070E0CE0101960E94BF29F80132
:10260000808D918D0E94761BF801958B848B428979
:1026100053899C01241B350B37FD09C0B901653A6C
:10262000764008F09DCFF801378B268BA5CF662723
:102630007727621B730BF3CF9C012F5F3F40241B56
:10264000350BF801378B268B97CFEF92FF920F93C4
:102650001F93CF93DF93EC010E94752D8AE495E0E0
:1026600099838883F98EE88E1B8A1A8A1F8A1E8AAC
:102670001D8A1C8ADF91CF911F910F91FF90EF90DF
:10268000089577FD02C0CB01089588279927861BFE
:10269000970B0895CF93DF9300D000D0CDB7DEB76E
:1026A0008C010E941F2869837A838B839C83BB24BF
:1026B000B3949EC00FB6F8940F92D8015496ED9142
:1026C000FC915597C084D1840F900FBEEC18FD0883
:1026D000F801648D758D84A195A10E94A72040E02A
:1026E00054E00E94B9204C01D8015A966D917C911A
:1026F0005B97C7010E944020B4010E945D20F80151
:10270000938F828F808D918DB601681B790BD18E4E
:10271000C08E82A193A10E94A72040E054E00E94B5
:10272000B9206C01D8015A966D917C915B97909677
:102730008D919C9191970E94A72040E054E00E94C7
:10274000B920B6010E9440206C01B701F801868DC6
:10275000978D0E94A72040E054E00E94B920B60166
:102760000E944020D8019896ED90FC909997E81629
:10277000F9064CF096962D913C9197977C01821723
:1027800093070CF47901B7010E945D20F801958F41
:10279000848F0FB6F8940F92E0919A07F0919B07FF
:1027A000B0860F900FBE0FB6F8940F92D8015696D0
:1027B000ED91FC915797F186E0860F900FBE0FB612
:1027C000F8940F920F900FBEE0919407F091950747
:1027D00080859185A285B3850697A105B10581F114
:1027E00045E050E060E070E0CE0101960E94BF2914
:1027F0000FB6F8940F92D8015296ED91FC91539731
:10280000E084F1840F900FBE0FB6F8940F920F90F2
:102810000FBEE0919407F091950780859185A28580
:10282000B3850697A105B10509F044CFB701F801BA
:10283000868197810E94C23266E00E9466313ACF5B
:102840000FB6F8940F920F900FBEB701F801868172
:1028500097810E94C23266E00E946631C1CF6F92BA
:102860007F928F929F92AF92BF92CF92DF92EF9220
:10287000FF920F931F93CF93DF93CDB7DEB73C0149
:102880000E94752D82E595E0F30191838083F38AA0
:10289000E28AD58AC48AB78AA68A978E868E898963
:1028A0009A8991A380A38B899C8993A382A38D8904
:1028B0009E8995A384A38F89988D97A386A3898DDC
:1028C0009A8D91A780A7DF91CF911F910F91FF90D3
:1028D000EF90DF90CF90BF90AF909F908F907F90C0
:1028E0006F900895CF93DF9300D000D0CDB7DEB7BF
:1028F0007C010E941F2869837A838B839C8336C066
:102900008B016B38E7E07E0714F00AE817E0F70167
:10291000828D813009F44BC060E0F701838D948D86
:102920000E9441160FB6F8940F92E0918807F0913B
:102930008907918780870F900FBEB801F701808DBE
:10294000918D0E9443210FB6F8940F92E091900769
:10295000F0919107118700870F900FBE41E050E082
:1029600060E070E0CE0101960E94BF290FB6F89496
:102970000F920F900FBEE0918E07F0918F07208588
:10298000318547EF4203B001439F700D1124660F5C
:10299000771F62597A4F623583E078070CF0B0CF29
:1029A00002E513E0F701828D813009F0B5CF0FB653
:1029B000F8940F92E0918A07F0918B0711870087B6
:1029C0000F900FBEA9CFEF92FF920F931F93CF935B
:1029D000DF93EC01E62E1E8E1D8E3AE0F32E00E012
:1029E00010E001C08C016E2D8B8D9C8D0E944116D4
:1029F000800F911F9E8F8D8FFA94A1F79C01ADECF3
:102A0000BCEC0E94C83D96958795969587959695BE
:102A1000879500E012E0081B190B1E8F0D8F6A8D41
:102A20008E819F810E94E1336BE00E946631EC0150
:102A300060E67BE00E942131B801CE010E945F3345
:102A400066E0DF91CF911F910F91FF90EF900C9472
:102A50006631CF92EF92FF920F931F93CF93DF9344
:102A6000EC010E94752D8AE595E099838883F98EA3
:102A7000E88ECA8E6C2D70E0CE01DF91CF911F9150
:102A80000F91FF90EF90CF900C94E314CF93DF93CE
:102A900000D000D0CDB7DEB78C010E941F2869831B
:102AA0007A838B839C830FC064E175E0F801808D8D
:102AB000918D0E94432145E050E060E070E0CE013E
:102AC00001960E94BF290FB6F8940F92E0918607F5
:102AD000F091870780850F900FBE813079F00FB697
:102AE000F8940F920F900FBE8823F1F260E273E02A
:102AF000F801808D918D0E944321DDCF64E378E061
:102B0000F801808D918D0E944321D5CFCF92EF9215
:102B1000FF920F931F93CF93DF93EC010E94752DCB
:102B200082E695E099838883F98EE88ECA8EDF91DC
:102B3000CF911F910F91FF90EF90CF900895CF9379
:102B4000DF9300D000D0CDB7DEB78C010E941F28E4
:102B500069837A838B839C830FB6F8940F92E091FC
:102B60008407F0918507E084F1840F900FBEF8018F
:102B7000828993890E949D180FB6F8940F92E09174
:102B80008407F0918507918780870F900FBE0FB65D
:102B9000F8940F92E0918207F09183078E199F09B4
:102BA000918780870F900FBEF801828993890E94D8
:102BB000C1180FB6F8940F92E0918007F091810749
:102BC000918780870F900FBEF801828993890E94B8
:102BD000E5180FB6F8940F92E0917E07F0917F0709
:102BE000918780870F900FBEF801468557856089D1
:102BF00071894F5F5F4F6F4F7F4F46875787608B5D
:102C0000718B44E650E060E070E0CE0101960E94D6
:102C1000BF29A2CFEF92FF920F931F93CF93DF9321
:102C2000EC010E94752D8AE695E099838883FB8AE2
:102C3000EA8ADF91CF911F910F91FF90EF90089555
:102C4000CF93DF93FC017183608320917C0020642B
:102C500020937C0020917A00256C20937A00C0811B
:102C6000D181209759F06EE675E0CE010E942131A6
:102C700066E0CE01DF91CF910C946631DF91CF9168
:102C80000895683008F060E080917C00887F809330
:102C90007C0080917C00862B80937C0080917A0060
:102CA000806480937A0080917A0086FDFCCF8091C9
:102CB00078002091790090E0922B0895DF92EF92B6
:102CC000FF920F931F93CF93DF938C01D62EE42EA8
:102CD00080E48417E0F480E4E82EF12CC0E0D0E03A
:102CE0006D2DC8010E944116C80FD91FF394FE1024
:102CF000F7CF6E2D70E0CE010E94F93DCB01DF9140
:102D0000CF911F910F91FF90EF90DF9008954111A7
:102D1000E4CFC0E0D0E0EDCF0F931F93CF93DF93CC
:102D2000EC016BE00E9466318C0169E67BE00E9459
:102D3000213166E0C8010E9466316BE00E94663175
:102D40008C0164E87BE00E94213166E0C8010E94AA
:102D50006631CE01DF91CF911F910F9108950F93AE
:102D6000022F9A01462FFC016481828193810E9487
:102D70000C1D81E00F910895242F462FFC016481E2
:102D8000828193810E94E11D81E00895FC01262F3C
:102D900065834DE36481828193810C94E11DDF9210
:102DA000EF92FF920F931F93CF93DF93EC0120E0FC
:102DB00047E06C818A819B810E94E11D7E0186E053
:102DC000E80EF11C01E0970149E36C818A819B8147
:102DD0000E940C1DDE800881198162EA75E0C8013D
:102DE0000E9421316D2DC8010E94E13366E00E94EE
:102DF000663101E0970146E36C818A819B810E94E4
:102E00000C1DDE800881198162EB75E0C8010E940B
:102E100021316D2DC8010E94E13366E00E946631C8
:102E200001E097014AE36C818A819B810E940C1D1D
:102E30001E810990D881C02D65EC75E0CE010E94FD
:102E40002131612FCE010E94E13366E0DF91CF9105
:102E50001F910F91FF90EF90DF900C9466310F93CC
:102E6000CF93DF93EC019C012A5F3F4F01E044E3E5
:102E70006C818A819B810E940C1D8E81DF91CF9194
:102E80000F9108956F927F928F929F92AF92BF920F
:102E9000CF92DF92EF92FF920F931F93CF93DF9326
:102EA000CDB7DEB7CA56D1090FB6F894DEBF0FBE54
:102EB000CDBF5C01CE0101966C018AE6F60111924C
:102EC0008A95E9F70AE6960140E0F501648182817E
:102ED00093810E940C1D4E01FBE68F0E911C860112
:102EE000602E6C18F80171908F01F501E080F1807F
:102EF00064ED75E0C7010E94213163E0C7010E94C3
:102F00006631662D0E94E1337C0168E076E00E9424
:102F10002131672DC7010E94E13366E00E946631CE
:102F200008151905E9F6C659DF4F0FB6F894DEBF4C
:102F30000FBECDBFDF91CF911F910F91FF90EF900A
:102F4000DF90CF90BF90AF909F908F907F906F90C9
:102F50000895AF92BF92CF92DF92EF92FF920F93BC
:102F60001F93CF93DF931F92CDB7DEB75C016B0148
:102F7000542F8CE0F50111928A95E9F79B012A5FA5
:102F80003F4F06E0FB0164818281938159830E9457
:102F90000C1DF601678170E0762F66278681682B0D
:102FA000E184F12CFE2CEE248085E82A038510E0D4
:102FB000102F00278285082B5981543109F487C0CE
:102FC00048F0583209F44DC05E3209F44AC05A3113
:102FD00031F03AC0583009F444C05E30A9F5882772
:102FE00077FD8095982F0E94F33E20E030E040E886
:102FF0005DE30E947F3FF501608371838283938349
:10300000B701882777FD8095982F0E94F33E20E036
:1030100030E040E85DE30E947F3FF5016483758303
:1030200086839783B801882777FD8095982F0E9423
:10303000F33E20E030E040E85DE30E947F3FF50191
:103040006087718782879387C5010F90DF91CF9149
:103050001F910F91FF90EF90DF90CF90BF90AF90B6
:103060000895882777FD8095982F0E94F33E20E0F1
:1030700030E048EC52E40E94583EF50160837183D1
:1030800082839383B701882777FD8095982F0E94CC
:10309000F33E20E030E048EC52E40E94583EF50157
:1030A0006483758386839783B801882777FD80952D
:1030B000982F0E94F33E20E030E048EC52E40E945A
:1030C000583EF5016087718782879387BDCF882737
:1030D00077FD8095982F0E94F33E20E030E041E696
:1030E00054E40E94583EF501608371838283938388
:1030F000B701882777FD8095982F0E94F33E20E046
:1031000030E041E654E40E94583EF5016483758343
:1031100086839783B801882777FD8095982F0E9432
:10312000F33E20E030E041E654E40E94583EF501D1
:10313000608771878287938787CF0F93CF93DF93C1
:10314000EC019C012A5F3F4F02E04AE16C818A81D9
:103150009B810E940C1D8F8190E0982F88272E81E3
:10316000822B97FD0CC0959587959595879595959C
:10317000879595958795DF91CF910F9108950F963B
:10318000F2CF0F93CF93DF93EC019C012A5F3F4F67
:1031900002E04CE16C818A819B810E940C1D8F8131
:1031A00090E0982F88272E81822B97FD0CC0959553
:1031B0008795959587959595879595958795DF91B1
:1031C000CF910F9108950F96F2CF0F93CF93DF9386
:1031D000EC019C012A5F3F4F02E04EE16C818A8145
:1031E0009B810E940C1D8F8190E0982F88272E8153
:1031F000822B97FD0CC0959587959595879595950C
:10320000879595958795DF91CF910F9108950F96AA
:10321000F2CFBF92CF92DF92EF92FF920F931F9364
:10322000CF93DF931F92CDB7DEB77C016B0119827C
:1032300001E09E012F5F3F4F45E3FC0164818281E5
:1032400093810E940C1DB980F701008111816FEDFF
:1032500075E0C8010E94213163E0C8010E94663117
:103260006B2D0E94E13366E00E946631F701868192
:10327000882309F46BC04981B42EB294B694B694F5
:10328000F3E0BF22F601B082842F90E09C013595D7
:10329000279535952795359527953595279523704D
:1032A0002183959587959595879583708283437043
:1032B0004383F701008111816BEE75E0C8010E9424
:1032C00021316B2DC8010E94E13366E00E94663116
:1032D000F601B180F7010081118163EF75E0C8014B
:1032E0000E9421316B2DC8010E94E13366E00E94EB
:1032F0006631F601B280F701008111816BEF75E054
:10330000C8010E9421316B2DC8010E94E13366E0A3
:103310000E946631F6011381F701E080F18063E0DD
:1033200076E0C7010E942131612FC7010E94E1337D
:1033300066E00E9466310F90DF91CF911F910F914F
:10334000FF90EF90DF90CF90BF900895F601B0808E
:10335000B0CF0F93CF93DF931F92CDB7DEB7198213
:1033600001E09E012F5F3F4F45E3FC0164818281B4
:1033700093810E940C1D99819F7381E009F480E084
:103380000F90DF91CF910F910895DF92EF92FF920E
:103390000F931F93CF93DF93CDB7DEB766970FB62A
:1033A000F894DEBF0FBECDBF8C01FE01319686E1E1
:1033B000DF011D928A95E9F787E490E09093010080
:1033C000809300008BEE8B838FEF8C8391E19D8344
:1033D0008F83888789878A8790EF9D878E879BEB6D
:1033E0009F87888B84E0898B88EE8B8B83E08C8B26
:1033F00087E48D8B7E01B2E0EB0EF11C85E5D82EC3
:1034000020E003C0D7012D917D014D2DF80164818D
:10341000828193810E94E11DD394FBE6DF12F2CFFB
:1034200066960FB6F894DEBF0FBECDBFDF91CF9189
:103430001F910F91FF90EF90DF9008950F931F93CE
:10344000CF93DF93EC016C818A819B810E946E1E79
:1034500081114FC01D8220E04DE36C818A819B81E8
:103460000E94E11D20E24FE36C818A819B810E94D2
:10347000E11D6C818A819B810E946E1E8823C9F3A5
:103480001D8220E04DE36C818A819B810E94E11DB9
:10349000CE010E94C51920E04EE36C818A819B8198
:1034A0000E94E11D20E047E06C818A819B810E949F
:1034B000E11D20E04FE36C818A819B810E94E11D28
:1034C00024E04BE36C818A819B810E94E11D8CE0AA
:1034D0008D832CE04DE36C818A819B810E94E11DEC
:1034E000CE010E94CF1681E0DF91CF911F910F9105
:1034F0000895088119816BE076E0C8010E942131AE
:1035000066E0C8010E946631A5CF0F931F93CF9349
:10351000DF93EC01798368834C8389E090E00E941B
:10352000D4308C01688179810E94681C1B830A83D6
:10353000CE010E941E1A0990D881C02D209769F0F3
:1035400065E276E0CE010E94213166E0CE01DF9196
:10355000CF911F910F910C946631DF91CF911F9104
:103560000F9108957F928F929F92AF92BF92CF92C8
:10357000DF92EF92FF920F931F93CF93DF93CDB71C
:10358000DEB765970FB6F894DEBF0FBECDBF5C0106
:1035900005E19E012F5F3F4F45E5FC01648182817B
:1035A00093810E940C1D8E010F5F1F4F4E01F7E1AA
:1035B0008F0E911C94E5C92ED12CC01AD10AF801A6
:1035C00071908F01F501E080F18069E576E0C70137
:1035D0000E94213163E0C7010E946631B601600F8D
:1035E000711F0E94C2327C0168E076E00E942131A6
:1035F000672DC7010E94E13366E00E94663108151D
:103600001905E9F665960FB6F894DEBF0FBECDBF7B
:10361000DF91CF911F910F91FF90EF90DF90CF90AE
:10362000BF90AF909F908F907F900895CF92EF9230
:10363000FF920F93CF93DF93FC01718360835383D9
:103640004283248335830683E782F086C186DA01CC
:1036500011971C92A281B3811C92A481B5816C91B7
:1036600081E090E0AC01068002C0440F551F0A942F
:10367000E2F7642B6C93A781B0856C91AC01018457
:1036800002C0440F551F0A94E2F7642B6C93D901D2
:103690004E919C01068002C0220F331F0A94E2F76C
:1036A000422B4C93D7012E91018402C0880F991FA1
:1036B0000A94E2F7282B2C93C081D181209779F0CE
:1036C00069E676E0CE010E94213166E0CE01DF910D
:1036D000CF910F91FF90EF90CF900C946631DF91D6
:1036E000CF910F91FF90EF90CF900895CF93DF93FC
:1036F000FC01A281B381C781D085488121E030E0FF
:10370000C901018402C0880F991F0A94E2F78095CD
:1037100084238883C481D5814881C901068002C081
:10372000880F991F0A94E2F7809584238883129763
:103730008C9190E0982F8827C781D0856881A90156
:10374000018402C0440F551F0A94E2F7642B68837A
:103750005C91A481B5814C91068002C0220F331F79
:103760000A94E2F7422B4C93852BDF91CF91089579
:10377000BF92CF92DF92EF92FF920F931F93CF935E
:10378000DF93EC01FB01FF24F39482819381892B69
:1037900009F4F12CE184DD24D39487819085892B71
:1037A00009F4D12CB680CC24C39484819581892BD3
:1037B00009F4C12C6BE0CE010E9466318C0163E9F3
:1037C0007BE00E94213162E0C8010E94663166E020
:1037D0000E9466316BE00E9466318C0167EB7BE0F2
:1037E0000E9421316C2DC8010E94F1308C016FE8DC
:1037F00076E00E9421316B2DC8010E94E13366E022
:103800000E9466316BE00E9466318C0160EC7BE0C7
:103810000E94213166E0C8010E9466316BE00E947F
:1038200066318C016FEC7BE00E9421316D2DC80167
:103830000E94F1308C016FE876E00E9421316E2DFC
:10384000C8010E94E13366E00E9466316BE00E948D
:1038500066318C0169ED7BE00E9421316F2DC8013A
:103860000E94F13066E00E946631CE01DF91CF9177
:103870001F910F91FF90EF90DF90CF90BF90089530
:10388000CF93DF932BB123602BB9E4E6F0E02081E6
:103890002F772083E9EBF0E020812C7F20832CE040
:1038A0002093B800ECEBF0E020812E7F20836BE0CA
:1038B000FC01808191810E946631EC0169EE7BE020
:1038C0000E94213166E0CE01DF91CF910C946631E8
:1038D0000F931F93CF93DF93EC017983688381E08B
:1038E0000E94262498878F83892B39F0CE01DF919F
:1038F000CF911F910F910C94401C0881198161E9AF
:1039000076E0C8010E94213166E0C8010E9466315C
:10391000CE01DF91CF911F910F910C94401C1F930A
:10392000CF93DF93FC01128213821482158211C09F
:1039300042815381648175814F5F5F4F6F4F7F4F2D
:103940004283538364837583413E534964407105C8
:1039500040F48091BC0087FFEBCFDF91CF911F91A6
:1039600008951681C081D18165EA76E0CE010E947A
:10397000213163E0CE010E946631612F0E94E13364
:1039800066E0DF91CF911F910C9466318FE99FE043
:103990000197F1F700C000002091B900287F30E0C6
:1039A00070E081E02617370709F080E0089524EAE7
:1039B0002093BC000E948F1C8FE99FE00197F1F7D4
:1039C00000C000009091B900987F81E0983009F024
:1039D00080E0089584E98093BC0081E00895662327
:1039E00021F084EC8093BC00089584E88093BC00AF
:1039F000089524EA2093BC000E948F1C8FE99FE069
:103A00000197F1F700C000009091B900987F81E024
:103A1000903109F080E00895BF92CF92DF92EF924B
:103A2000FF920F931F93CF93DF93EC01F42EC22EDE
:103A3000B32ED02E6E8300E02FEF3FEFA90160E0A0
:103A400070E08F8198850E948F24CE010E94D71C40
:103A5000182F882369F180E58093BB0084E8809368
:103A6000BC00CE010E948F1C8FE99FE00197F1F707
:103A700000C000008091B900887F883131F100E0FA
:103A800020E030E0A90160E070E08F8198850E941D
:103A90006E2384E98093BC0010E0812FDF91CF91E9
:103AA0001F910F91FF90EF90DF90CF90BF900895FE
:103AB00020E030E0A90160E070E08F8198850E94ED
:103AC0006E2384E98093BC00E8CFF092BB0084E8C9
:103AD0008093BC00CE010E948F1C8FE99FE001976C
:103AE000F1F700C000008091B900887F883239F674
:103AF000CE010E94F91C81E58093BB0084E880938D
:103B0000BC00CE010E948F1CEFE9FFE03197F1F776
:103B100000C000008091B900887F803409F0AFCFE9
:103B200084EC8093BC00CE010E948F1C8FE99FE043
:103B30000197F1F700C000008091B900887F8035BF
:103B400009F09DCFDD20E9F0EC2CFB2CC12C04EC1E
:103B50008091BB00F70181937F010093BC00CE01EF
:103B60000E948F1C8FE99FE00197F1F700C00000D1
:103B70008091B900887F803509F081CFC394CD1042
:103B8000E7CF84E88093BC00CE010E948F1CEFE950
:103B9000FFE03197F1F700C000008091B900887F05
:103BA000883509F06CCF84E98093BC0000E020E008
:103BB00030E0A90160E070E08F8198850E946E235B
:103BC0006CCFEF92FF920F931F93CF93DF93EC0193
:103BD000F42EE22E6E8300E02FEF3FEFA90160E0AC
:103BE00070E08F8198850E948F24CE010E94D71C9F
:103BF000182F882351F180E58093BB0084E88093DF
:103C0000BC00CE010E948F1C8FE99FE00197F1F765
:103C100000C000008091B900887F883151F100E038
:103C200020E030E0A90160E070E08F8198850E947B
:103C30006E2384E98093BC0010E0812FDF91CF9147
:103C40001F910F91FF90EF90089520E030E0A901BF
:103C500060E070E08F8198850E946E2384E98093F4
:103C6000BC00812FDF91CF911F910F91FF90EF90BA
:103C70000895F092BB0084E88093BC00CE010E94BE
:103C80008F1C8FE99FE00197F1F700C00000809141
:103C9000B900887F883219F6E092BB0084E88093EF
:103CA000BC00CE010E948F1C8FE99FE00197F1F7C5
:103CB00000C000008091B900887F883209F0AFCF42
:103CC00084E98093BC0000E020E030E0A90160E0DE
:103CD00070E08F8198850E946E23AFCFEF92FF92A4
:103CE0000F931F93CF93DF931F92CDB7DEB77C0165
:103CF00001E09E012F5F3F4F40E00E940C1D8111AB
:103D000009C080E00F90DF91CF911F910F91FF903C
:103D1000EF9008951981F701E080F1806AEC76E078
:103D2000C7010E942131612FC7010E94E13366E083
:103D30000E94663181E00F90DF91CF911F910F912A
:103D4000FF90EF900895FC01128213821482158275
:103D500008956F927F928F92AF92CF92EF92FF92DF
:103D60000F931F93CF93DF93CDB7DEB7FC013B01D9
:103D70008E857183608355834483318720871587BF
:103D80000487F38AE28AC686A786808A818B41509F
:103D900051095383428321503109378326830150CF
:103DA00011091387028761157105A1F06AED76E0AC
:103DB000C3010E94213166E0C301DF91CF911F91C1
:103DC0000F91FF90EF90CF90AF908F907F906F907A
:103DD0000C946631DF91CF911F910F91FF90EF907E
:103DE000CF90AF908F907F906F900895CF93FC010C
:103DF000A281B381CC9181E090E0AC01068402C045
:103E0000440F551F0A94E2F79C01078402C0220F59
:103E1000331F0A94E2F7242B2C2B2C93A681B78115
:103E20004C919C01008802C0220F331F0A94E2F7D4
:103E3000209524232C93A285B3854C919C01018865
:103E400002C0220F331F0A94E2F7422B4C93A08545
:103E5000B1854C919C01008802C0220F331F0A9447
:103E6000E2F7422B4C93A481B5814C919C0177FDE4
:103E70001BC0068402C0220F331F0A94E2F7422BB4
:103E80004C93A481B5812C91078402C0880F991F9F
:103E90000A94E2F7809582238C930288F389E02DBF
:103EA00071836083CF910895078402C0220F331F6E
:103EB0000A94E2F7422B4C93A481B5812C9106849D
:103EC00002C0880F991F0A94E2F7809582238C9391
:103ED0000288F389E02D7195619571097183608382
:103EE000E1CFFC01A281B3816C9181E090E0AC0153
:103EF000068402C0440F551F0A94E2F79C01078410
:103F000002C0220F331F0A94E2F7242B262B2C9396
:103F1000A681B7814C919C01008802C0220F331FFB
:103F20000A94E2F7209524232C93A285B3854C9123
:103F30009C01018802C0220F331F0A94E2F7422B32
:103F40004C93A085B1854C919C01008802C0220F42
:103F5000331F0A94E2F7422B4C93A481B5814C9114
:103F60009C01068402C0220F331F0A94E2F7422B01
:103F70004C93A481B5812C91078402C0880F991FAE
:103F80000A94E2F7282B2C930895FC01A281B381B7
:103F90006C9181E090E0AC01068402C0440F551F93
:103FA0000A94E2F79C01078402C0220F331F0A948F
:103FB000E2F7242B262B2C93A681B7814C919C01F0
:103FC000008802C0220F331F0A94E2F720952423B1
:103FD0002C93A285B3854C919C01018802C0220FCD
:103FE000331F0A94E2F7422B4C93A085B1854C9184
:103FF0009C01008802C0220F331F0A94E2F7422B73
:104000004C93A481B5814C919C01068402C0220F7F
:10401000331F0A94E2F7209524232C93A481B581C1
:104020002C91078402C0880F991F0A94E2F78095AB
:1040300082238C930895EF92FF920F931F93CF9357
:10404000DF93EC01DB015296ED91FC915397E080F8
:10405000F1806BE00E9466318C016BEF7BE00E9487
:104060002131B701C8010E945F3366E00E946631CA
:10407000CE01DF91CF911F910F91FF90EF900895A6
:104080009C01432F4095441F4427441F80E090E843
:10409000841B9109AC01421B530BE1E04617570703
:1040A0000CF0E0E0432F4095441F4427441FE417E1
:1040B00019F0C901860F971F08958617970799F180
:1040C000611520E8720741F1719561957109492FD9
:1040D0004095441F4427441F20E030E8241B310949
:1040E000A901481B590BE1E04617570764F4492F13
:1040F0004095441F4427441FE41719F0860F971F6B
:104100000895C9010895E0E0492F4095441F4427D0
:10411000441FE417B1F3F2CF97FD03C06FEF7FE7C1
:10412000D6CF0196FBCF80E090E00895811520E87E
:10413000920729F09C0197FD05C0C90108958FEFF2
:104140009FE70895319521953109C9010895811599
:1041500020E8920729F09C01DB010E94C03D0895F0
:10416000611520E87207B9F76FEF7FEF8FEF9FE7D8
:1041700008959A01442737FD4095542F0E942F3E01
:10418000211580E838074105510524F02FEF3FE75E
:1041900040E050E0DA01C901811520E892072FEFD5
:1041A000A207B20724F480E090E8AFEFBFEF0895D4
:1041B000FC01A5E6B0E08C91877F8C93A281B3814E
:1041C0008C91806A8C93A481B5818C9182618C934F
:1041D000A681B7818385948511969C938E932DB18A
:1041E00081E090E0058402C0880F991F0A94E2F7ED
:1041F000282B2DB908956F927F928F92AF92BF9224
:10420000CF92EF92FF920F931F93CF93DF93CDB78F
:10421000DEB73C01FC0171836083538342833583A5
:10422000248317830683F186E086C286B486A3863C
:1042300085860E94D820F30160807180611471042A
:10424000A9F06FEF76E0C3010E94213166E0C3015F
:10425000DF91CF911F910F91FF90EF90CF90BF9082
:10426000AF908F907F906F900C946631DF91CF91DB
:104270001F910F91FF90EF90CF90BF90AF908F90D4
:104280007F906F900895DC011896ED91FC9119973D
:104290007183608308950F931F93CF93DF93EC0195
:1042A0006BE00E9466318C0160E17CE00E9421316C
:1042B00066E0C8010E946631CE01DF91CF911F9167
:1042C0000F9108950F931F93CF93DF93EC010E94FA
:1042D00019288091AE07811121C088EB97E0909357
:1042E000B4078093B3071092B6071092B50787E31F
:1042F00097E19093B2078093B1071092B0071092A4
:10430000AF079093BB078093BA078FEA97E090932B
:10431000B9078093B80781E08093AE07209709F42E
:1043200060C0AE014C5F5F4F2396C633D74108F0A3
:1043300058C0E091B307F091B407A3EBB7E006C013
:1043400080819181009739F0DF01FC012281338166
:1043500024173507A8F3C7E0EF3AFC0709F441C07A
:104360000D911C9111970C5F1F4F808191818D934E
:104370009C93C901841B950B8930910500F1BF0105
:10438000640F751FDB0113969C938E9312975383D2
:10439000428312968D919C911397A3EBB7E001C0D5
:1043A000DF01ED91FC9111972281338128173907A4
:1043B000B8F3EB01F983E8836D937C939A018091C4
:1043C000000290910102821B930B90930102809353
:1043D00000020E944C29C801DF91CF911F910F91DB
:1043E000089500E010E00E944C29C801DF91CF91B0
:1043F0001F910F910895CF93DF93009721F1EC0166
:1044000024970E9419284A815B81A3EBB7E001C081
:10441000DF01ED91FC91119722813381241735073B
:10442000B8F3F983E883CD93DC93809100029091F7
:104430000102840F951F9093010280930002DF9187
:10444000CF910C944C29DF91CF9108958091000277
:1044500090910102089508951F93CF93DF93EC018B
:10446000142F88A181110DC088819981892B09F4AD
:104470004DC080E09E8D9F5F9E8FDF91CF911F91F9
:104480000895482F50E011111CC08C819D810E941D
:10449000BA4028A18C819D81820F911D9D838C83C0
:1044A0002A813B818217930720F3888199819D831C
:1044B0008C8380E09E8D9F5F9E8FDF91CF911F91B7
:1044C00008958E819F810E94BA4028A130E03195E5
:1044D000219531098E819F81820F931F9F838E8347
:1044E000688179818617970730F48A819B81820FD2
:1044F000931F9F838E83123009F0BBCF8E8D88234C
:1045000009F4B7CF8E8D81508E8FB3CF8A819B8176
:104510000E94772C1B821A82ADCFFC01CB0140A1F7
:10452000442399F050E026813781240F351F3783CB
:104530002683628173812617370720F0208131811D
:1045400037832683B9010C94BA4008950F931F93C3
:10455000CF93DF93EC010FB6F8940F928AA118164F
:10456000ECF48B898823D1F08E010D5E1F4F09C0BA
:104570008AA181508AA38AA1181684F48B89882382
:1045800069F0C8010E94032B882391F30E94F72B46
:104590008AA181508AA38AA1181684F38FEF8AA377
:1045A0000F900FBE0FB6F8940F9289A11816ECF475
:1045B00088858823D1F08E01085F1F4F09C089A12B
:1045C000815089A389A1181684F48885882369F00D
:1045D000C8010E94032B882391F30E94F72B89A125
:1045E000815089A389A1181684F38FEF89A30F90B6
:1045F0000FBEDF91CF911F910F910895CF93DF935D
:10460000EC010FB6F8940F92288139818F8D78A133
:10461000879FC0011124A901480F591F5B834A835A
:104620001E8E3D832C83871B9109820F931F9F83CE
:104630008E838FEF89A38AA3611112C088858111AF
:1046400006C00F900FBE81E0DF91CF910895CE019B
:1046500008960E94032B8130A1F70E945F37F1CFAB
:10466000CE0108960E94F035CE0143960E94F035A7
:104670000F900FBE81E0DF91CF9108950F931F93AC
:10468000CF93DF93182F062F882301F183E290E068
:104690000E946221EC010097C9F0109FC001112413
:1046A00001960E94622199838883892B61F01F8F74
:1046B00008A361E0CE010E94FE22CE01DF91CF91DE
:1046C0001F910F910895CE010E94FB21C0E0D0E020
:1046D000CE01DF91CF911F910F9108956F927F923C
:1046E0008F929F92AF92BF92CF92DF92EF92FF9202
:1046F0000F93CF93DF93CDB7DEB729970FB6F8941A
:10470000DEBF0FBECDBF5C014B012E833F834887C8
:10471000598720E03C0188E0680E711C0FB6F894C0
:104720000F92F501968D878D981708F459C00230C5
:1047300009F456C0CE80DF80E884F984CD28CE28E5
:10474000CF2809F46FC0222309F441C00F900FBE97
:104750000E9419280FB6F8940F92F50181A18F3F9E
:1047600009F43CC0F50182A18F3FB1F10F900FBE5B
:10477000BE016A5F7F4FCE0101960E94962B811188
:1047800055C00FB6F8940F92F501968D0F900FBE9D
:10479000F501878D981314C04E815F8168857985F6
:1047A000C3010E94A82AC5010E94A6220E944C298A
:1047B000882311F021E0B2CF0E945F3721E0AECF15
:1047C000C5010E94A6220E944C2921E0A7CFCE015C
:1047D00001960E94852BBACF12A2C8CF11A2C2CFD8
:1047E000402FB401C5010E942C22F501938991113B
:1047F00024C0811128C00F900FBE81E029960FB60A
:10480000F894DEBF0FBECDBFDF91CF910F91FF9027
:10481000EF90DF90CF90BF90AF909F908F907F9060
:104820006F9008950F900FBE80E0E8CFC5010E9401
:10483000A6220E944C2980E0E1CFC50143960E9448
:10484000032B8130C1F60E945F37D5CF0F93CF93F2
:10485000DF9383E290E00E946221EC01009701F176
:104860001B821A82198218821D821C821F821E825C
:104870001E8E81E08F8F18A28FEF89A38AA3CE01AD
:1048800008960E94F035CE0143960E94F03500E074
:1048900020E030E0A90160E070E0CE010E946E23CC
:1048A000CE01DF91CF910F9108950F931F93CF9376
:1048B000DF93EC018A019E8D8F8D981740F0223096
:1048C00031F080E0DF91CF911F910F910895422F39
:1048D000CE010E942C22882331F00115110519F018
:1048E00081E0F80180838AA18F3F49F08AA18F5F20
:1048F0008AA381E0DF91CF911F910F9108958B8959
:104900008823B9F3CE0143960E94032B882389F3B1
:104910000115110571F381E0F8018083D3CFAF92C7
:10492000BF92CF92DF92EF92FF920F93CF93DF93DC
:10493000CDB7DEB729970FB6F894DEBF0FBECDBF57
:104940007C016B012E833F834887598790E0570194
:1049500083E1A80EB11C0FB6F8940F92F701868D73
:10496000811169C04E815F8168857985452B462B11
:10497000472B09F47DC0992309F43EC00F900FBE68
:104980000E9419280FB6F8940F92F70181A18F3F6A
:1049900009F43EC0F70182A18F3F09F43FC00F9098
:1049A0000FBEBE016A5F7F4FCE0101960E94962B1B
:1049B000811171C00FB6F8940F92F701868D0F9098
:1049C0000FBE81111EC0F70180819181892B41F1B9
:1049D0004E815F8168857985C5010E94A82AC7013B
:1049E0000E94A6220E944C29882311F091E0B3CFA7
:1049F0000E945F3791E0AFCFCE0101960E94852BD8
:104A0000BDCFC7010E94A6220E944C2991E0A3CFEE
:104A100011A2F70182A18F3F09F0C1CF12A2BFCF2F
:104A20000FB6F8940F92F701828193810E941C2C9B
:104A30000F900FBECDCFA680B780B601C7010E94F0
:104A40008D22F70101112EC0868D8150868F8081C5
:104A50009181892BB9F1F7018085882341F1C70144
:104A600008960E94032B813011F50E945F371FC00A
:104A70000F900FBE80E029960FB6F894DEBF0FBEF0
:104A8000CDBFDF91CF910F91FF90EF90DF90CF904E
:104A9000BF90AF900895C7010E94A6220E944C29A2
:104AA00080E0E9CFB782A6828389811104C00F908C
:104AB0000FBE81E0E0CFC70143960E94032B8823FD
:104AC000B1F3D3CF0E94DE2CF70193838283C3CF4F
:104AD0000F931F93CF93DF9300D0CDB7DEB78C0138
:104AE000FC01868D811108C080E00F900F90DF914E
:104AF000CF911F910F910895C80149835A830E9455
:104B00008D22F801868D8150868F81A149815A813D
:104B10008F3F61F0F80181A18F5F81A381E00F9049
:104B20000F90DF91CF911F910F9108958085882379
:104B3000A9F3C801089649835A830E94032B49812F
:104B40005A81882359F34115510541F381E0FA0157
:104B50008083CBCF0F931F93CF93DF93EC018E8D88
:104B6000811106C080E0DF91CF911F910F910895D0
:104B70000E811F81CE010E948D221F830E8381E052
:104B8000DF91CF911F910F9108950FB6F8940F9276
:104B9000FC01868D0F900FBE08950FB6F8940F920A
:104BA000FC01268D0F900FBEFC01878D821B08959E
:104BB000FC01868D0895CF93DF93EC018881998164
:104BC000009711F00E94FB21CE01DF91CF910C9450
:104BD000FB21FC01968D81E0911180E00895FC019C
:104BE000268D81E0978D291380E008958091241F00
:104BF000823018F00E945F37F9CFFFCFCF92DF925B
:104C0000EF92FF926B017C01E091EF1EF091F01E9C
:104C100062837383848395838091F81E9091F91E3B
:104C2000A091FA1EB091FB1E6091EF1E7091F01ED4
:104C3000C816D906EA06FB0610F180910C1F909168
:104C40000D1F6E5F7F4F0E94263680910202909169
:104C50000302A0910402B0910502C816D906EA0623
:104C6000FB0640F4C0920202D0920302E0920402DA
:104C7000F0920502FF90EF90DF90CF900895809121
:104C80000A1F90910B1F6E5F7F4FFF90EF90DF9098
:104C9000CF900C9426365F926F927F928F929F9264
:104CA000AF92BF92CF92DF92EF92FF920F931F933A
:104CB000CF93DF934C01162F572E5A01390189E209
:104CC00090E00E946221EC01009709F4E9C0C11450
:104CD000D10409F4DAC0DC8ECB8EC601A50165EAE9
:104CE00070E00E94C34021E0A21AB108CB8CDC8C9A
:104CF000CA0CDB1CAE01435E5F4FE12FF52D2AE0AD
:104D0000CF013191DA013D93AD01DC018C91882313
:104D100011F02150A9F71EA2102F043008F07DC019
:104D20001A8F1FA318A65E01B2E0AB0EB11CC5011D
:104D30000E940136CE010E960E940136DB87CA879B
:104D400084E090E0A0E0B0E0811B9109A109B109E5
:104D50008E879F87A88BB98BDF8BCE8BA301B40185
:104D6000C6010E948F3699838883E114F10419F0FB
:104D7000F701D183C0830FB6F8940F928091FC1E87
:104D80008F5F8093FC1E8091EF1E9091F01E892B07
:104D900009F449C08091F61E81110BC0E091EF1E0D
:104DA000F091F01E828D081720F0D093F01EC09372
:104DB000EF1E8091F21E8F5F8093F21E8A8D90917C
:104DC000F71E981738F1FBE08F9FC0011124B50141
:104DD0008C5D904E0E9405360F900FBE8091F61E9E
:104DE000882339F0E091EF1EF091F01E828D80173C
:104DF000B0F081E0DF91CF911F910F91FF90EF9084
:104E0000DF90CF90BF90AF909F908F907F906F90EA
:104E10005F9008958093F71ED6CF13E081CF0E9454
:104E20005F3781E0E7CFD093F01EC093EF1E8091F3
:104E3000FC1E813009F0BDCF84E29FE10E94F03575
:104E40008FE29FE10E94F0358AE39FE10E94F035F6
:104E500085E49FE10E94F03589E19FE10E94F035F1
:104E60008EE09FE10E94F0358FEF9EE10E94F035C9
:104E700089E19FE190930D1F80930C1F8EE09FE1CD
:104E800090930B1F80930A1F94CFC5010E9462214B
:104E90009C8F8B8F009709F021CFCE010E94FB21C0
:104EA0008FEFA8CF0FB6F8940F92009729F00F90CC
:104EB0000FBEFC01828D08958091EF1E9091F01E2F
:104EC0000F900FBEFC01828D0895EF92FF921F9309
:104ED000CF93DF93EC01262F643008F023E00FB668
:104EE000F8940F92209709F44AC03FA13217A9F114
:104EF0008091EF1E9091F01E3217B8F5C817D907B0
:104F000041F0E091EF1EF091F01E11E0828D281724
:104F100008F410E08A8D381769F12FA34E855F855C
:104F20006889798977FD0CC044E050E060E070E06A
:104F3000421B5109610971094E875F87688B798B24
:104F40002BE0829FC00111248C5D904E2C853D8505
:104F500028173907C9F0113079F00F900FBEDF9193
:104F6000CF911F91FF90EF90089511E0C817D907D6
:104F700081F6D0CF2A8FD1CF0E945F37EECFC0917C
:104F8000EF1ED091F01EB1CF7E0182E0E80EF11C41
:104F9000C7010E9463368A8D9091F71E981710F40E
:104FA0008093F71E2BE0829FC0011124B7018C5D16
:104FB000904E0E940536CFCFAF92BF92CF92DF9234
:104FC000EF92FF920F93A12CB12CC12CD12C8DEF1D
:104FD000E82E8EE1F82E00E020E030E044E650E0DC
:104FE00066E277E086EF95E20E944B26813041F041
:104FF0000F91FF90EF90DF90CF90BF90AF9008950A
:10500000F8948093F61E1092F81E1092F91E1092DA
:10501000FA1E1092FB1E0F91FF90EF90DF90CF9041
:10502000BF90AF900C942337F8941092F61E0C9416
:105030005E378091F11E8F5F8093F11E08950FB649
:10504000F8940F926091F81E7091F91E8091FA1EEB
:105050009091FB1E0F900FBE08956091F81E709105
:10506000F91E8091FA1E9091FB1E08958091FC1EFE
:105070000895009711F04D9608958091EF1E90913C
:10508000F01E4D9608958091FD1E9091FE1E08958C
:10509000AF92BF92CF92DF92EF92FF920F931F9346
:1050A000CF93DF938091F11E8111CFC08091F81EC4
:1050B0009091F91EA091FA1EB091FB1E0196A11DC0
:1050C000B11D8093F81E9093F91EA093FA1EB09321
:1050D000FB1EC090F81ED090F91EE090FA1EF090D2
:1050E000FB1EC114D104E104F10439F580910C1FB9
:1050F00090910D1F20910A1F30910B1F30930D1FAF
:1051000020930C1F90930B1F80930A1F8091F31E16
:105110008F5F8093F31EE0910C1FF0910D1F808133
:1051200081119AC08FEF9FEFDC0180930202909370
:105130000302A0930402B0930502809102029091B1
:105140000302A0910402B0910502B12CC816D90641
:10515000EA06FB0608F457C09BE0A92EE0910C1F5D
:10516000F0910D1F8081882309F442C0E0910C1F4B
:10517000F0910D1F0780F085E02DC085D1854A8113
:105180005B816C817D81C416D506E606F70608F4BE
:105190007AC08E010E5F1F4FC8010E946336888D52
:1051A000998D892B21F0CE010E960E9463368A8D4F
:1051B0009091F71E981710F48093F71EA89EC001D7
:1051C0001124B8018C5D904E0E940536E091EF1ECF
:1051D000F091F01E9A8D828D981708F4BFCFBB24F2
:1051E000B394E0910C1FF0910D1F80818111BECF0F
:1051F0004FEF5FEFBA0140930202509303026093B6
:10520000040270930502E091EF1EF091F01EE28D12
:105210008BE0E89FF0011124EC5DF04E808182303C
:1052200010F0BB24B3948091F41E882311F0BB24AA
:10523000B3948B2DDF91CF911F910F91FF90EF9041
:10524000DF90CF90BF90AF9008958091F51E8F5F53
:105250008093F51EB12CE7CFE0910C1FF0910D1F4C
:105260000780F085E02D0084F185E02D8281938117
:10527000A481B5818093020290930302A09304025B
:10528000B09305025ACF40930202509303026093F9
:10529000040270930502B7CFEF92FF920F931F9312
:1052A000CF93DF930FB6F8940F928091F11E815047
:1052B0008093F11E8091F11E811150C08091FC1EDF
:1052C000882309F44BC02BE0F22EEE24E39427C090
:1052D000E091061FF091071FC085D185CE010E9683
:1052E0000E9463368E010E5F1F4FC8010E94633615
:1052F0008A8D9091F71E981710F48093F71EF89EF0
:10530000C0011124B8018C5D904E0E940536E091D9
:10531000EF1EF091F01E9A8D828D981748F58091BE
:10532000FF1E8111D5CF8091F51E882399F08091C1
:10533000F51E882379F0C1E00E9448288111C093AE
:10534000F41E8091F51E81508093F51E8091F51E0C
:105350008111F2CF8091F41E813069F080E00F90CE
:105360000FBEDF91CF911F910F91FF90EF900895A5
:10537000E092F41ED4CF0E945F3781E0F0CFCF924D
:10538000DF92EF92FF920F931F93CF93DF9300D0A2
:1053900000D0CDB7DEB72091F11E2F5F2093F11E14
:1053A000C090F81ED090F91EE090FA1EF090FB1EFF
:1053B000FC010081118122813381400F511F621F46
:1053C000731FC016D106E206F306E8F44017510732
:1053D00062077307E8F0FC014083518362837383A3
:1053E0000E944C29811102C00E945F370F900F90DC
:1053F0000F900F90DF91CF911F910F91FF90EF9041
:10540000DF90CF900895401751076207730728F087
:10541000C416D506E606F706F0F6FC014083518374
:10542000628373838091EF1E9091F01E02964983F0
:105430005A836B837C830E94633649815A816B81D6
:105440007C81CB01BA010E94FE25CACFCF92DF92A8
:10545000EF92FF92611571058105910539F40E9463
:105460005F37FF90EF90DF90CF9008952091F11E6D
:105470002F5F2093F11EC090F81ED090F91EE0908F
:10548000FA1EF090FB1EC60ED71EE81EF91E809174
:10549000EF1E9091F01E02960E946336C701B6017E
:1054A0000E94FE250E944C298823C9F2FF90EF90AC
:1054B000DF90CF9008958091F11E81113BC0109232
:1054C000F41EE091F71E8BE0E89FF0011124EC5DE3
:1054D000F04E8081811110C09BE08091F71E8150B9
:1054E0008093F71EE091F71E9E9FF0011124EC5D62
:1054F000F04E8081882389F3E091F71E8BE0E89FCE
:10550000F0011124EC5DF04EA181B28114960D9052
:10551000BC91A02DB283A183CF010396A817B90730
:1055200069F018968D919C9119979093F01E809335
:10553000EF1E089581E08093F41E089514969C91C7
:10554000149715968C9191838283A92FB82FE9CF58
:10555000CF92DF92EF92FF926A017B016091EF1E82
:105560007091F01E625F7F4F0E9426368091EF1E81
:105570009091F01E02960E9463366091F81E709121
:10558000F91E8091FA1E9091FB1E6C0D7D1D8E1DE3
:105590009F1DFF90EF90DF90CF900C94FE25CF924F
:1055A000DF92EF92FF920F931F9368017901E091D0
:1055B000EF1EF091F01E706846875787608B718BE5
:1055C0006091EF1E7091F01E625F7F4F0E94053662
:1055D0008091EF1E9091F01E02960E9463366091BA
:1055E000F81E7091F91E8091FA1E9091FB1E6C0DB1
:1055F0007D1D8E1D9F1D1F910F91FF90EF90DF90DD
:10560000CF900C94FE250F931F93CF93DF93DC0173
:105610001796ED91FC911897C085D1858E01025F98
:105620001F4FC8010E9463368091F11E811124C072
:105630008E010E5F1F4FC8010E9463368A8D9091C4
:10564000F71E9817F8F0BBE08B9FC0011124B8013A
:105650008C5D904E0E940536E091EF1EF091F01E99
:105660009A8D828D891788F481E08093F41EDF91F2
:10567000CF911F910F910895B8018FEF9EE10E9485
:105680000536EACF8093F71EDECF80E0DF91CF9121
:105690001F910F9108950F931F93CF93DF9370681D
:1056A000FC014083518362837383C085D1850E944E
:1056B00063368E010E5F1F4FC8010E9463368A8DCC
:1056C0009091F71E981710F48093F71EFBE08F9FC0
:1056D000C0011124B8018C5D904E0E940536E09106
:1056E000EF1EF091F01E9A8D828D891740F481E0B3
:1056F0008093F41EDF91CF911F910F91089580E068
:10570000DF91CF911F910F9108952091F31EFC011D
:1057100020834091F81E5091F91E6091FA1E7091FD
:10572000FB1E418352836383748308958F929F92FB
:10573000AF92BF92CF92DF92EF92FF920F931F939F
:10574000FC01DB010FB6F8940F924091F81E5091C6
:10575000F91E6091FA1E7091FB1E8091F31E9081DC
:105760000181128123813481981729F04017510754
:105770006207730770F5CD90DD90ED90FC90139764
:105780004A015B01801A910AA20AB30A8C149D0493
:10579000AE04BF04F0F4C41AD50AE60AF70AC00E34
:1057A000D11EE21EF31ECD92DD92ED92FC92139774
:1057B0008091F31E80838091F81E9091F91EA09134
:1057C000FA1EB091FB1E81839283A383B48380E091
:1057D00001C081E00F900FBE1F910F91FF90EF90DD
:1057E000DF90CF90BF90AF909F908F90089581E011
:1057F0008093F41E0895009799F0DC015B96ED917B
:10580000FC915C978081853A81F4319680E090E04C
:10581000DC010196A11DB11D2191253AD1F3089516
:105820008091EF1E9091F01EE8CF80E00895809166
:10583000EF1E9091F01E08950F931F93CF93DF9367
:10584000EC01009781F18A8DE091EF1EF091F01E3E
:10585000928D891740F54E855F856889798977FD36
:1058600011C0E091EF1EF091F01E928D44E050E0E7
:1058700060E070E0491B5109610971094E875F873B
:10588000688B798B2BE0829FC00111248C5D904E38
:105890002C853D852817390759F0E091EF1EF091CE
:1058A000F01E828D8A8FDF91CF911F910F91089505
:1058B0008E010E5F1F4FC8010E946336E091EF1EFC
:1058C000F091F01E828D8A8F9091F71E981710F438
:1058D0008093F71E2BE0829FC0011124B8018C5DDC
:1058E000904EDF91CF911F910F910C9405360F933D
:1058F0001F93CF93DF93EC01009749F088A5815067
:1059000088A72A8D9FA1291711F0882331F080E004
:10591000DF91CF911F910F9108958E010E5F1F4F60
:10592000C8010E9463368FA18A8F44E050E060E096
:1059300070E0481B5109610971094E875F87688BC8
:10594000798B9091F71E981710F48093F71E2BE037
:10595000829FC0011124B8018C5D904E0E940536D3
:1059600081E0DF91CF911F910F910895CF92DF9247
:10597000EF92FF92E091EF1EF091F01E6685778521
:1059800080899189E091EF1EF091F01EA091EF1EA9
:10599000B091F01E5A962C9134E0C32ED12CE12CFC
:1059A000F12CC21AD108E108F108C686D786E08A30
:1059B000F18AFF90EF90DF90CF9008958091EF1ED5
:1059C0009091F01E892B39F0E091EF1EF091F01EBE
:1059D00080A58F5F80A78091EF1E9091F01E0895A3
:1059E000EF92FF920F931F93CF93DF9300D0CDB729
:1059F000DEB77C018FE297E0F70191838083611528
:105A00007105C1F0FB0101900020E9F73197E61B19
:105A1000ED3020F50E2F10E0C801019669837A83DE
:105A20000E94DB30F70195838483A80169817A8124
:105A30000E94CA408091501F9091511FF701978397
:105A40008683F092511FE092501F0F900F90DF91CC
:105A5000CF911F910F91FF90EF900895ECE0DACF76
:105A60000F931F93CF93DF93EC018091501F909180
:105A7000511F6BE0892B49F1CE010E9466318C01E8
:105A800066E67CE00E94213166E0C8010E94663132
:105A90006BE0CE010E9466318C0163E47CE00E94E1
:105AA000213166E0C8010E9466318091501F9091BB
:105AB000511FDC01ED91FC910190F081E02DBE01C0
:105AC000DF91CF911F910F910994CE010E94663111
:105AD000EC0165E27CE00E94213166E0CE01DF91BD
