:100000000C940A010C9429010C9429010C942901E7
:100010000C9429010C9429010C9429010C942901B8
:100020000C9429010C9429010C9429010C942901A8
:100030000C9429010C9429010C9429010C94290198
:100040000C9429010C9429010C9429010C94290188
:100050000C9429010C9429010C9429010C94290178
:100060000C9429010C9486100C9429010C942901FC
:100070000C9429010C9429010C9429010C94290158
:100080000C9429010C9429010C9429010C94290148
:100090000C94D9100C9429010C9429010C94290179
:1000A0000C9429010C9429010C9429010C94290128
:1000B0000C9429010C9429010C9429010C941A1414
:1000C0000C9429010C9429010C942901630E6C0EE7
:1000D0006F0E720E650E650E750E850E8C0E930EEC
:1000E000970E690E4D45343035204C65676F2043BF
:1000F000617220436F6D6D732054657374005F41AE
:10010000434B005F41434B004E6F20736861726543
:10011000642064617461206974656D7320746F205C
:100120007072696E74002D2D2D2D2020202020202E
:100130002020202020202D2D2D2D202020202D2D71
:100140002D2D2D2D2D2D2D2D0053686172652F51D4
:100150007565756520202020205479706520202049
:1001600020467265652F546F74616C004552524F82
:1001700052206372656174696E67207461736B20CD
:1001800022005461736B2022002220637265617427
:1001900065642C20737461636B2061742030780077
:1001A00049444C45090930092D09002F0009092D42
:1001B000002D2D2D2D09092D2D2D2D092D2D2D2D08
:1001C0002D00092D2D2D2D2D2D2D2D2D2D00092D01
:1001D0002D2D2D004E616D6509095072692E095350
:1001E000746174650009467265652F546F74616CA3
:1001F000000952756E73005461736B090920200960
:10020000200009537461636B00090009002F000985
:100210000009000011241FBECFEFD1E2DEBFCDBF29
:1002200013E0A0E0B2E0E4E2FAE300E00BBF02C0BA
:1002300007900D92A038B107D9F71BE1A0E8B3E011
:1002400001C01D92AC34B107E1F70E94261A0C944C
:10025000101D0C9400000F931F93CF93DF93EC01BC
:100260000E94F40A8AE293E0998388831C8A1D8A9B
:1002700084E690E09D8F8C8F188E1F8A81E08E8B94
:10028000FE01B29687E0DF011D928A95E9F7198E8B
:100290001B8E80E190E00E94DA0D8C0140E060E06E
:1002A00070E00E942F101B8B0A8BE0ECF0E0808145
:1002B0008260808380E190E09093C5008093C400C9
:1002C000DF91CF911F910F9108950F931F93CF93BB
:1002D000DF93EC018A8D8AA381E090E0988F8F8B69
:1002E00017C08A899B89DC01ED91FC910680F7811A
:1002F000E02D09958A8F2F89388DFE01E20FF31FBB
:1003000082A323303105A1F02F5F3F4F388F2F8B11
:100310008A899B89DC01ED91FC910480F581E02DB7
:1003200009958111DECFDF91CF911F910F91089533
:100330001EA20E811F8169ED72E0C8010E94110E9C
:10034000BE016E5D7F4FC8010E94110E66E0C801BC
:100350000E94560E81E0DF91CF911F910F91089579
:10036000CF93DF93CDB7DEB72E970FB6F894DEBFED
:100370000FBECDBF8C010E949E056B877C878D8749
:100380009E87D8011696ED90FC9017976FED72E05E
:10039000C7010E94110E66E0C7010E94560E85E05B
:1003A000E0E1F3E0DE01169601900D928A95E1F707
:1003B000F801838D81116AC0C80182967C01DE013B
:1003C0001B966D01992493940CC044E650E060E0C4
:1003D00070E0C6010E943E07D8015B968C918111A6
:1003E0005BC0F80182899389DC01ED91FC91048066
:1003F000F581E02D0995882341F3F80182899389DD
:10040000DC01ED91FC910680F781E02D0995F80162
:10041000828F8F35D1F6C8010E946501D8011696EA
:10042000AD90BC90179766EE72E0C5010E94110E68
:10043000B701C5010E94110E66E0C5010E94560E6B
:10044000BE016A5F7F4FC7010E94991C892B09F08A
:10045000BCCFF801A680B7806EEE72E0C5010E94A5
:10046000110E66E0C5010E94560ED8015296AD905D
:10047000BC90539767EF72E0C5010E94110E66E0D1
:10048000C5010E94560EF801938E9FCFC801829637
:100490007C01DE011B966D0185E0E5E1F3E0DE0104
:1004A000119601900D928A95E1F7F80185898111E5
:1004B00069C0992493940CC044E650E060E070E079
:1004C000C6010E943E07D80155968C9181115AC0F1
:1004D000D80152968D919C915397DC01ED91FC913E
:1004E0000480F581E02D0995882331F3F801828994
:1004F0009389DC01ED91FC910680F781E02D09954F
:10050000F801828F8F35C1F6C8010E946501D801BC
:100510001696AD90BC9017976CEF72E0C5010E94E3
:10052000110EB701C5010E94110E66E0C5010E94BF
:10053000560EBE016F5F7F4FC7010E94991C892B29
:1005400009F0BACFF801A680B7806EEE72E0C5015F
:100550000E94110E66E0C5010E94560E6BE0D801A4
:1005600052968D919C9153970E94560E5C0163E0C8
:1005700071E00E94110E66E0C5010E94560EF8015E
:10058000958A9ACFF801108E178A0DC0F8018789D5
:10059000908D099709F456C048EC50E060E070E097
:1005A000C6010E943E07F801E680F78063E073E031
:1005B000C7010E94110E66E0C7010E94560ED801C5
:1005C00052968D919C915397DC01ED91FC910480A2
:1005D000F581E02D09958823C9F2F8018289938974
:1005E000DC01ED91FC910680F781E02D0995B82E94
:1005F000F801828F2789308DE20FF31F82A32F5FCE
:100600003F4FD80158963C932E9357971696ED90EE
:10061000FC9017976CE073E0C7010E94110ED701A0
:10062000ED91FC910280F381E02D6B2DC7010995BE
:1006300066E0C7010E94560EF8018789908D0997E0
:1006400009F0AACF6BE0828993890E94560E7C0143
:100650006EEF70E00E94110E66E0C7010E94560E18
:10066000D80158961C921E92579796CFDF92EF9220
:10067000FF920F931F93CF93DF938C01FC01108E99
:10068000178AC0E0D0E0F801EC0FFD1FD2A0F801FE
:10069000E680F7806AE173E0C7010E94110EBE0197
:1006A000C7010E949B0EEC0162E273E00E94110EF2
:1006B000E881F9810280F381E02D6D2DCE0109954D
:1006C00066E0CE010E94560EF801C789D08D2196B2
:1006D000D08FC78BC830D105B0F2DF91CF911F9179
:1006E0000F91FF90EF90DF9008958091CD038230BD
:1006F00018F00E946513F9CFFFCFCF92DF92EF92EF
:10070000FF926B017C01E0919803F0919903628361
:100710007383848395838091A1039091A203A09118
:10072000A303B091A4036091980370919903C81634
:10073000D906EA06FB0610F18091B5039091B60345
:100740006E5F7F4F0E942C128091000290910102F7
:10075000A0910202B0910302C816D906EA06FB0670
:1007600040F4C0920002D0920102E0920202F092A4
:100770000302FF90EF90DF90CF9008958091B30334
:100780009091B4036E5F7F4FFF90EF90DF90CF901A
:100790000C942C125F926F927F928F929F92AF92E5
:1007A000BF92CF92DF92EF92FF920F931F93CF935E
:1007B000DF934C01162F572E5A01390189E290E040
:1007C0000E942C11EC01009709F4E9C0C114D10476
:1007D00009F4DAC0DC8ECB8EC601A50165EA70E0B3
:1007E0000E94921C21E0A21AB108CB8CDC8CCA0CAE
:1007F000DB1CAE01435E5F4FE12FF52D2AE0CF01F8
:100800003191DA013D93AD01DC018C91882311F027
:100810002150A9F71EA2102F043008F07DC01A8FB6
:100820001FA318A65E01B2E0AB0EB11CC5010E9469
:100830000712CE010E960E940712DB87CA8784E05A
:1008400090E0A0E0B0E0811B9109A109B1098E8779
:100850009F87A88BB98BDF8BCE8BA301B401C60118
:100860000E94951299838883E114F10419F0F7012D
:10087000D183C0830FB6F8940F928091A5038F5F48
:100880008093A5038091980390919903892B09F493
:1008900049C080919F0381110BC0E0919803F091B2
:1008A0009903828D081720F0D0939903C093980381
:1008B00080919B038F5F80939B038A8D9091A0030F
:1008C000981738F1FBE08F9FC0011124B5018353C5
:1008D0009C4F0E940B120F900FBE80919F038823A4
:1008E00039F0E0919803F0919903828D8017B0F070
:1008F00081E0DF91CF911F910F91FF90EF90DF90FA
:10090000CF90BF90AF909F908F907F906F905F90AF
:1009100008958093A003D6CF13E081CF0E94651382
:1009200081E0E7CFD0939903C09398038091A5030A
:10093000813009F0BDCF8DEC93E00E94F61188ED77
:1009400093E00E94F61183EE93E00E94F6118EEE82
:1009500093E00E94F61182EC93E00E94F61187EB7F
:1009600093E00E94F61188EA93E00E94F61182EC6F
:1009700093E09093B6038093B50387EB93E0909355
:10098000B4038093B30394CFC5010E942C119C8FB4
:100990008B8F009709F021CFCE010E94C5118FEFF8
:1009A000A8CF0FB6F8940F92009729F00F900FBEC2
:1009B000FC01828D089580919803909199030F9086
:1009C0000FBEFC01828D0895EF92FF921F93CF938B
:1009D000DF93EC01262F643008F023E00FB6F89483
:1009E0000F92209709F44AC03FA13217A9F18091D4
:1009F0009803909199033217B8F5C817D90741F0B9
:100A0000E0919803F091990311E0828D281708F482
:100A100010E08A8D381769F12FA34E855F856889AC
:100A2000798977FD0CC044E050E060E070E0421B43
:100A30005109610971094E875F87688B798B2BE0BB
:100A4000829FC001112483539C4F2C853D8528171C
:100A50003907C9F0113079F00F900FBEDF91CF91B7
:100A60001F91FF90EF90089511E0C817D90781F604
:100A7000D0CF2A8FD1CF0E946513EECFC0919803BB
:100A8000D0919903B1CF7E0182E0E80EF11CC7013D
:100A90000E9469128A8D9091A003981710F4809398
:100AA000A0032BE0829FC0011124B70183539C4F08
:100AB0000E940B12CFCFAF92BF92CF92DF92EF92F4
:100AC000FF920F93A12CB12CC12CD12C86EAE82ED9
:100AD00083E0F82E00E020E030E044E650E06EE2F3
:100AE00073E085E793E00E94CA03813041F00F91E3
:100AF000FF90EF90DF90CF90BF90AF900895F89463
:100B000080939F031092A1031092A2031092A3035B
:100B10001092A4030F91FF90EF90DF90CF90BF90C1
:100B2000AF900C942913F89410929F030C946413C3
:100B300080919A038F5F80939A0308950FB6F8947B
:100B40000F926091A1037091A2038091A3039091F1
:100B5000A4030F900FBE08956091A1037091A203AA
:100B60008091A3039091A40308958091A503089513
:100B7000009711F04D9608958091980390919903F4
:100B80004D9608958091A6039091A7030895AF9282
:100B9000BF92CF92DF92EF92FF920F931F93CF936A
:100BA000DF9380919A038111CFC08091A10390912E
:100BB000A203A091A303B091A4030196A11DB11DAE
:100BC0008093A1039093A203A093A303B093A403E3
:100BD000C090A103D090A203E090A303F090A403DF
:100BE000C114D104E104F10439F58091B503909169
:100BF000B6032091B3033091B4033093B60320932E
:100C0000B5039093B4038093B30380919C038F5FEB
:100C100080939C03E091B503F091B603808181112C
:100C20009AC08FEF9FEFDC01809300029093010246
:100C3000A0930202B09303028091000290910102FE
:100C4000A0910202B0910302B12CC816D906EA069F
:100C5000FB0608F457C09BE0A92EE091B503F09184
:100C6000B6038081882309F442C0E091B503F09176
:100C7000B6030780F085E02DC085D1854A815B8170
:100C80006C817D81C416D506E606F70608F47AC0A5
:100C90008E010E5F1F4FC8010E946912888D998DC9
:100CA000892B21F0CE010E960E9469128A8D9091B7
:100CB000A003981710F48093A003A89EC0011124EC
:100CC000B80183539C4F0E940B12E0919803F0915E
:100CD00099039A8D828D981708F4BFCFBB24B394E3
:100CE000E091B503F091B60380818111BECF4FEF43
:100CF0005FEFBA0140930002509301026093020239
:100D000070930302E0919803F0919903E28D8BE0D8
:100D1000E89FF0011124E353FC4F8081823010F0F2
:100D2000BB24B39480919D03882311F0BB24B3941A
:100D30008B2DDF91CF911F910F91FF90EF90DF905E
:100D4000CF90BF90AF90089580919E038F5F809366
:100D50009E03B12CE7CFE091B503F091B603078075
:100D6000F085E02D0084F185E02D82819381A481BE
:100D7000B5818093000290930102A0930202B09388
:100D800003025ACF40930002509301026093020283
:100D900070930302B7CFEF92FF920F931F93CF93FD
:100DA000DF930FB6F8940F9280919A03815080934D
:100DB0009A0380919A03811150C08091A5038823E2
:100DC00009F44BC02BE0F22EEE24E39427C0E0910F
:100DD000AF03F091B003C085D185CE010E960E947D
:100DE00069128E010E5F1F4FC8010E9469128A8D21
:100DF0009091A003981710F48093A003F89EC0016F
:100E00001124B80183539C4F0E940B12E091980368
:100E1000F09199039A8D828D981748F58091A803D7
:100E20008111D5CF80919E03882399F080919E03F4
:100E3000882379F0C1E00E94C7058111C0939D030A
:100E400080919E03815080939E0380919E03811127
:100E5000F2CF80919D03813069F080E00F900FBE4A
:100E6000DF91CF911F910F91FF90EF900895E09245
:100E70009D03D4CF0E94651381E0F0CFCF92DF9223
:100E8000EF92FF920F931F93CF93DF9300D000D088
:100E9000CDB7DEB720919A032F5F20939A03C090BD
:100EA000A103D090A203E090A303F090A403FC015F
:100EB0000081118122813381400F511F621F731FF6
:100EC000C016D106E206F306E8F4401751076207A0
:100ED0007307E8F0FC0140835183628373830E94AF
:100EE000CB06811102C00E9465130F900F900F90E6
:100EF0000F90DF91CF911F910F91FF90EF90DF90B6
:100F0000CF900895401751076207730728F0C41661
:100F1000D506E606F706F0F6FC01408351836283AE
:100F200073838091980390919903029649835A8321
:100F30006B837C830E94691249815A816B817C8119
:100F4000CB01BA010E947D03CACFCF92DF92EF920C
:100F5000FF92611571058105910539F40E946513B1
:100F6000FF90EF90DF90CF90089520919A032F5F2C
:100F700020939A03C090A103D090A203E090A30312
:100F8000F090A403C60ED71EE81EF91E80919803A8
:100F90009091990302960E946912C701B6010E94BE
:100FA0007D030E94CB068823C9F2FF90EF90DF906B
:100FB000CF90089580919A0381113BC010929D03B8
:100FC000E091A0038BE0E89FF0011124E353FC4F74
:100FD0008081811110C09BE08091A003815080939B
:100FE000A003E091A0039E9FF0011124E353FC4F66
:100FF0008081882389F3E091A0038BE0E89FF001D2
:101000001124E353FC4FA181B28114960D90BC9141
:10101000A02DB283A183CF010396A817B90769F069
:1010200018968D919C9119979093990380939803AA
:10103000089581E080939D03089514969C911497E0
:1010400015968C9191838283A92FB82FE9CFCF92E7
:10105000DF92EF92FF926A017B0160919803709199
:101060009903625F7F4F0E942C12809198039091A8
:10107000990302960E9469126091A1037091A203E4
:101080008091A3039091A4036C0D7D1D8E1D9F1D67
:10109000FF90EF90DF90CF900C947D03CF92DF9282
:1010A000EF92FF920F931F9368017901E0919803EB
:1010B000F0919903706846875787608B718B6091B8
:1010C000980370919903625F7F4F0E940B12809189
:1010D00098039091990302960E9469126091A1036E
:1010E0007091A2038091A3039091A4036C0D7D1DC8
:1010F0008E1D9F1D1F910F91FF90EF90DF90CF905D
:101100000C947D030F931F93CF93DF93DC0117960D
:10111000ED91FC911897C085D1858E01025F1F4F1C
:10112000C8010E94691280919A03811124C08E0126
:101130000E5F1F4FC8010E9469128A8D9091A00313
:101140009817F8F0BBE08B9FC0011124B8018353BE
:101150009C4F0E940B12E0919803F09199039A8D95
:10116000828D891788F481E080939D03DF91CF9170
:101170001F910F910895B80188EA93E00E940B1225
:10118000EACF8093A003DECF80E0DF91CF911F9163
:101190000F9108950F931F93CF93DF937068FC0115
:1011A0004083518362837383C085D1850E94691215
:1011B0008E010E5F1F4FC8010E9469128A8D9091A7
:1011C000A003981710F48093A003FBE08F9FC00149
:1011D0001124B80183539C4F0E940B12E091980395
:1011E000F09199039A8D828D891740F481E0809364
:1011F0009D03DF91CF911F910F91089580E0DF91C2
:10120000CF911F910F91089520919C03FC012083A1
:101210004091A1035091A2036091A3037091A40394
:10122000418352836383748308958F929F92AF9218
:10123000BF92CF92DF92EF92FF920F931F93FC0128
:10124000DB010FB6F8940F924091A1035091A203D5
:101250006091A3037091A40380919C03908101810C
:10126000128123813481981729F0401751076207B2
:10127000730770F5CD90DD90ED90FC9013974A01C7
:101280005B01801A910AA20AB30A8C149D04AE0471
:10129000BF04F0F4C41AD50AE60AF70AC00ED11E3C
:1012A000E21EF31ECD92DD92ED92FC921397809197
:1012B0009C0380838091A1039091A203A091A3033A
:1012C000B091A40381839283A383B48380E001C09F
:1012D00081E00F900FBE1F910F91FF90EF90DF9074
:1012E000CF90BF90AF909F908F90089581E08093B2
:1012F0009D030895009799F0DC015B96ED91FC91B8
:101300005C978081853A81F4319680E090E0DC0141
:101310000196A11DB11D2191253AD1F30895809127
:10132000980390919903E8CF80E008958091980305
:101330009091990308950F931F93CF93DF93EC013E
:10134000009781F18A8DE0919803F0919903928D35
:10135000891740F54E855F856889798977FD11C0C9
:10136000E0919803F0919903928D44E050E060E0A1
:1013700070E0491B5109610971094E875F87688BCD
:10138000798B2BE0829FC001112483539C4F2C85C5
:101390003D852817390759F0E0919803F09199039A
:1013A000828D8A8FDF91CF911F910F9108958E01C9
:1013B0000E5F1F4FC8010E946912E0919803F091DF
:1013C0009903828D8A8F9091A003981710F48093CF
:1013D000A0032BE0829FC0011124B80183539C4FCE
:1013E000DF91CF911F910F910C940B120F931F93CC
:1013F000CF93DF93EC01009749F088A5815088A72F
:101400002A8D9FA1291711F0882331F080E0DF9108
:10141000CF911F910F9108958E010E5F1F4FC8014C
:101420000E9469128FA18A8F44E050E060E070E072
:10143000481B5109610971094E875F87688B798B59
:101440009091A003981710F48093A0032BE0829F43
:10145000C0011124B80183539C4F0E940B1281E0FC
:10146000DF91CF911F910F910895CF92DF92EF926C
:10147000FF92E0919803F0919903668577858089C2
:101480009189E0919803F0919903A0919803B0910C
:1014900099035A962C9134E0C32ED12CE12CF12CD7
:1014A000C21AD108E108F108C686D786E08AF18A17
:1014B000FF90EF90DF90CF900895809198039091E6
:1014C0009903892B39F0E0919803F091990380A555
:1014D0008F5F80A780919803909199030895EF9270
:1014E000FF920F931F93CF93DF9300D0CDB7DEB75A
:1014F0007C0187E393E0F701918380836115710597
:10150000C1F0FB0101900020E9F73197E61BED30B7
:1015100020F50E2F10E0C801019669837A830E949E
:10152000E10DF70195838483A80169817A810E9486
:10153000A21C8091F9039091FA03F70197838683A7
:10154000F092FA03E092F9030F900F90DF91CF91A0
:101550001F910F91FF90EF900895ECE0DACF0F9379
:101560001F93CF93DF93EC018091F9039091FA03DD
:101570006BE0892B49F1CE010E94560E8C0169E483
:1015800071E00E94110E66E0C8010E94560E6BE0E9
:10159000CE010E94560E8C0166E271E00E94110E8F
:1015A00066E0C8010E94560E8091F9039091FA03FB
:1015B000DC01ED91FC910190F081E02DBE01DF9105
:1015C000CF911F910F910994CE010E94560EEC010C
:1015D00068E071E00E94110E66E0CE01DF91CF91CC
:1015E0001F910F910C94560E4F925F926F927F92C3
:1015F0008F929F92AF92BF92CF92DF92EF92FF9223
:101600000F931F93CF93DF93EC013B014901280116
:10161000FC018DE393E081939193A12CB12CC12C1B
:10162000D12C7F01042F9E01A40189E29BE10E943D
:10163000CA035F824E82998688862091FB0330918F
:10164000FC033D832C83D093FC03C093FB031C86D7
:101650001D8680904A1B90904B1B9FEF891A990A18
:1016600090924B1B80924A1B9B868A861E861F8601
:10167000188A198A4114510409F44CC06BE0813076
:1016800041F1C2010E94560EEC016CE671E00E942D
:10169000110EB301CE010E94110EE881F981028082
:1016A000F381E02D62E2CE01099566E0CE01DF9183
:1016B000CF911F910F91FF90EF90DF90CF90BF904F
:1016C000AF909F908F907F906F905F904F900C9411
:1016D000560EC2010E94560EEC0162E871E00E94B3
:1016E000110EB301CE010E94110E6BE0CE010E94DB
:1016F000560EEC0169E871E00E94110E63E0CE0124
:101700000E94560EB4010E949B0E62E00E94560E8B
:1017100066E0CDCFDF91CF911F910F91FF90EF90B9
:10172000DF90CF90BF90AF909F908F907F906F9001
:101730005F904F900895EC01E881F9810190F0816C
:10174000E02D09951B821A826FEF7FEFCB010E947B
:10175000A507FACFFC01648765870895FC01C6815F
:10176000D781209739F0CE010E94110E66E0CE019C
:101770000E94560E2BE088E190E00FB6F894A895F1
:10178000809360000FBE20936000FFCF0E949E05F3
:101790000E94FB1B20E030E04AE754E40E94931BC8
:1017A00008958F929F92AF92BF92CF92DF92EF9265
:1017B000FF920F931F93CF93DF93EC018B018A81EC
:1017C0009B810E94B805BC01C8010E94110ED8017E
:1017D000ED91FC910280F381E02D69E0C80109954B
:1017E0008A819B810E94B805FC0101900020E9F7E5
:1017F0003197E81BF90B389748F4D801ED91FC912B
:101800000280F381E02D69E0C8010995CE84DF8470
:10181000E888F988A884B9848A819B810E947A0922
:10182000982E8C848A819B810E94D104682FC801E4
:101830000E941D0F6BE00E94560EEC0169E072E001
:101840000E94110E682DCE010E941D0F6BE00E94B8
:10185000560EEC016BE072E00E94110E692DCE0174
:101860000E941D0F6BE00E94560EEC016DE072E0CD
:101870000E94110EB501CE010E949B0E6BE00E94EA
:10188000560EEC016FE072E00E94110E6BE0CE018B
:101890000E94560EEC0161E172E00E94110EB70148
:1018A000A601CE01DF91CF911F910F91FF90EF9094
:1018B000DF90CF90BF90AF909F908F900C94D50EFB
:1018C0000F931F93CF93DF93EC018B01E881F98194
:1018D0000280F381E02DB801CE01099566E0C801D0
:1018E0000E94560E0C80DD81C02D209779F7DF9184
:1018F000CF911F910F910895CF93DF93EC01CB010E
:10190000DB01ED91FC910280F381E02DBE01099590
:10191000CE01DF91CF9108950F931F93CF93DF9363
:10192000EC016BE00E94560E8C0167EF71E00E94A3
:10193000110E6BE0C8010E94560E8C0162E072E04D
:101940000E94110E66E0C8010E94560E6BE0CE01A7
:101950000E94560E8C0164ED71E00E94110E6BE046
:10196000C8010E94560E8C0165EE71E00E94110EB6
:101970006BE0C8010E94560E8C0161EF71E00E947D
:10198000110E66E0C8010E94560E6BE0CE010E9467
:10199000560E8C0161EB71E00E94110E6BE0C801E4
:1019A0000E94560E8C0162EC71E00E94110E6BE0F9
:1019B000C8010E94560E8C016EEC71E00E94110E5F
:1019C00066E0C8010E94560E8091FB039091FC03D3
:1019D000009719F0BE010E94600C0E94C2050E948F
:1019E0007A09182F6BE0CE010E94560EEC0160EAD6
:1019F00071E00E94110E612FCE010E941D0F6BE05D
:101A00000E94560EEC016BEA71E00E94110E64E632
:101A100070E0CE010E949B0E6BE00E94560EEC011E
:101A20006DEA71E00E94110E66E0CE01DF91CF9168
:101A30001F910F910C94560ECF92DF92EF92FF926E
:101A40000F931F93CF93DF937C018B01DC011A96D8
:101A50006D917C911B97C8010E94110EF701A28520
:101A6000B385FD0101900020E9F73197DE2EDA1AE7
:101A7000FFE0FD1580F0C0E0D0E0D801ED91FC91D1
:101A80000280F381E02D60E2C801099521968C2F38
:101A90008D0D803190F361E473E0C8010E94110E56
:101AA000D7015696CD90DC9057971E968D919C91BC
:101AB0001F970E94BE17682FC8010E941D0FEC01DE
:101AC000E881F9810280F381E02D6FE20995B6018A
:101AD000CE010E949B0EDC01ED91FC910280F3810E
:101AE000E02D69E0099566E0C8010E94560EF701F5
:101AF00084859585009781F0DC01ED91FC91019042
:101B0000F081E02DB801DF91CF911F910F91FF90EF
:101B1000EF90DF90CF900994DF91CF911F910F91BB
:101B2000FF90EF90DF90CF9008956F927F928F9209
:101B30009F92AF92BF92CF92DF92EF92FF920F935C
:101B40001F93CF93DF93EC01762E672E4A01590144
:101B5000670178010E94060EB401CE0106960E942C
:101B60006F0A8CE493E0998388832EE533E03F830A
:101B70002E83BD8AAC8A40E061E0872D0E942F153C
:101B80009F878E87C88AD98AEA8AFB8A7E8A6F8A6B
:101B9000DF91CF911F910F91FF90EF90DF90CF9049
:101BA000BF90AF909F908F907F906F900895069711
:101BB0000C941C0D0C942C11009711F00C94C51171
:101BC00008950C942C11009711F00C94C5110895F0
:101BD000FC0181E090E02081222311F080E090E080
:101BE000089521E0FC01208308950895089581E07F
:101BF000089580E0089580E008950895DC01ED9156
:101C0000FC910280F381E02D6CE00994FC0184E6F4
:101C100093E0918380838AE0828383E085831482CA
:101C200008950F931F93CF93DF93EC01FB018C81F9
:101C3000811117C06081662379F08F010F5F1F4FFC
:101C4000E881F9810280F381E02DCE010995F80148
:101C500061918F016111F4CFDF91CF911F910F91AD
:101C600008951C828B010F5F1F4F64916623A1F3BF
:101C7000A881B9811296ED91FC911397CE01099537
:101C8000F80164910F5F1F4F6111F2CFE5CF8830EB
:101C900008F087E08093050289E008959EEF980F91
:101CA0009F3010F4809304028AE00895CF93DF936D
:101CB000EC01462F50E04C30510538F4FA01EA5956
:101CC000FF4F0C948D1B82E08A83CE01DF91CF9170
:101CD000089581E08C83F9CF88E08A83F6CF8AE08B
:101CE0008A83F3CF80E18A83F0CFE881F981028093
:101CF000F381E02D6DE00995E881F9810280F3819F
:101D0000E02D6AE0CE010995E0CFE881F9810284F7
:101D1000F385E02D0995D9CFE881F9810084F1851B
:101D2000E02D0995D2CF809105028D83CECF809191
:101D300004028A83CACFFF920F931F93CF93DF933E
:101D4000CDB7DEB761970FB6F894DEBF0FBECDBF3B
:101D50008C01F62E972FF8014281403191F04830E6
:101D600081F0423071F050E0BE016F5F7F4F8F2DE8
:101D70000E94D61CBE016F5F7F4FC8010E94110EEA
:101D800007C0692FC8010E941D0F6F2D0E941D0FF3
:101D9000C80161960FB6F894DEBF0FBECDBFDF91CC
:101DA000CF911F910F91FF900895DF92EF92FF92D4
:101DB0000F931F93CF93DF93CDB7DEB7A1970FB6E5
:101DC000F894DEBF0FBECDBF8C01D42EE52EF62ECB
:101DD000972FF80122812031A1F0283091F0223094
:101DE00081F030E0AE014F5F5F4F6D2D7E2D8F2D66
:101DF0000E94B11CBE016F5F7F4FC8010E94110E8F
:101E00000DC0692FC8010E941D0F6F2D0E941D0F6C
:101E10006E2D0E941D0F6D2D0E941D0FC801A196F1
:101E20000FB6F894DEBF0FBECDBFDF91CF911F91EB
:101E30000F91FF90EF90DF900895CF92DF92EF9295
:101E4000FF920F931F93CF93DF93CDB7DEB7299700
:101E50000FB6F894DEBF0FBECDBF8C01D62EDC01CD
:101E600013968C91139781115DC0F8014281423025
:101E7000D9F14031F1F050E0BE016F5F7F4F8D2D01
:101E800090E00E94D61CBE016F5F7F4FC8010E9488
:101E9000110EC80129960FB6F894DEBF0FBECDBF54
:101EA000DF91CF911F910F91FF90EF90DF90CF9036
:101EB000089562956F700190F081E02D0280F381AA
:101EC000E02D6A30B8F5605DC80109956D2D6F7021
:101ED000D801ED91FC910280F381E02D6A3060F130
:101EE000695CC8010995D5CF88E0E82EF12C90E80F
:101EF000C92E0AC061E3C8010995C694B1E0EB1A86
:101F0000F108E114F10429F28C2D8D21D801ED9115
:101F1000FC910280F381E02D8111ECCF60E3C801D8
:101F20000995EBCFED91FC910280F381E02DC80182
:101F30000995AFCF695CC8CF605DD3CFDC0118963F
:101F4000ED91FC91199780811C969C911C97892397
:101F500059F421E23EE405C0215031092115310533
:101F600071F080818923C1F380811E969C911E9718
:101F7000892B80831696ED91FC91179760830895C5
:101F8000FC01878581111DC0209105043091060454
:101F900080910304909104042817390789F0E09197
:101FA0000704F0910804E20FF31F80812F5F3F4F79
:101FB0002032310518F1109206041092050408959C
:101FC000FFCF2091FF03309100048091FD03909199
:101FD000FE032817390789F0E0910104F09102040B
:101FE000E20FF31F80812F5F3F4F2032310558F001
:101FF000109200041092FF030895FFCF309306045F
:10200000209305040895309300042093FF0308955E
:10201000DC01ED91FC910280F381E02D6CE00994EC
:10202000FC018785882369F081E04091FF0350918E
:1020300000042091FD033091FE034217530769F01D
:10204000089581E040910504509106042091030415
:10205000309104044217530799F780E00895EF92F6
:10206000FF921F93CF93DF9300D0CDB7DEB77C01F3
:10207000142F69837A830E94060E412F69817A8129
:10208000C70106960E94E71784E793E0F701918362
:10209000808317871123E9F08091C90080688093BD
:1020A000C90080E290E00E94E10D909302048093C9
:1020B0000104109200041092FF031092FE0310928C
:1020C000FD030F900F90DF91CF911F91FF90EF9044
:1020D00008958091C10080688093C10080E290E003
:1020E0000E94E10D90930804809307041092060467
:1020F0001092050410920404109203040F900F90A4
:10210000DF91CF911F91FF90EF9008951F920F9252
:102110000FB60F9211240BB60F922F933F938F930C
:102120009F93EF93FF932091C600E0910704F091F5
:1021300008048091030490910404E80FF91F2083A0
:102140008091030490910404019680329105C0F4BB
:1021500090930404809303042091050430910604B5
:1021600028173907D1F0FF91EF919F918F913F91FF
:102170002F910F900BBE0F900FBE0F901F901895D0
:10218000109204041092030480E090E02091050472
:10219000309106042817390731F701969093060409
:1021A000809305048097F8F21092060410920504BB
:1021B000DACF1F920F920FB60F9211240BB60F9227
:1021C0002F933F938F939F93EF93FF932091CE0094
:1021D000E0910104F09102048091FD039091FE03CF
:1021E000E80FF91F20838091FD039091FE03019673
:1021F00080329105C0F49093FE038093FD032091FB
:10220000FF033091000428173907D1F0FF91EF91B7
:102210009F918F913F912F910F900BBE0F900FBE0A
:102220000F901F9018951092FE031092FD0380E00E
:1022300090E02091FF03309100042817390731F70F
:102240000196909300048093FF038097F8F2109218
:1022500000041092FF03DACF0F931F93CF93DF9305
:10226000EC010E94980580910904811121C083E14D
:1022700094E090930F0480930E0410921104109236
:10228000100487E397E190930D0480930C0410925F
:102290000B0410920A0490931604809315048AE0AC
:1022A00094E0909314048093130481E080930904D4
:1022B000209709F460C0AE014C5F5F4F2396C63390
:1022C000D74108F058C0E0910E04F0910F04AEE041
:1022D000B4E006C080819181009739F0DF01FC01F4
:1022E0002281338124173507A8F3C4E0EA30FC07C4
:1022F00009F441C00D911C9111970C5F1F4F808113
:1023000091818D939C93C901841B950B8930910514
:1023100000F1BF01640F751FDB0113969C938E9330
:1023200012975383428312968D919C911397AEE03E
:10233000B4E001C0DF01ED91FC911197228133815E
:1023400028173907B8F3EB01F983E8836D937C9381
:102350009A018091060290910702821B930B909341
:102360000702809306020E94CB06C801DF91CF913D
:102370001F910F91089500E010E00E94CB06C80164
:10238000DF91CF911F910F910895CF93DF93009725
:1023900021F1EC0124970E9498054A815B81AEE00F
:1023A000B4E001C0DF01ED91FC91119722813381EE
:1023B00024173507B8F3F983E883CD93DC93809134
:1023C000060290910702840F951F90930702809355
:1023D0000602DF91CF910C94CB06DF91CF91089547
:1023E000809106029091070208950895FC010396DA
:1023F000928381834FEF5FEFBA01438354836583F8
:102400007683908787839287818710820895FC0165
:10241000138612860895CF93DF939C01FB01DC01A4
:102420001196CD91DC911297D583C4838E819F81C3
:10243000978386838E819F81DC0115967C936E93B2
:1024400014977F836E8333872287F90180818F5FA2
:102450008083DF91CF9108950F931F93CF93DF93E4
:10246000EB01088119812A813B810F3F4FEF14074F
:102470002407340731F1DC01139601C0DF01149603
:10248000ED91FC9115974081518162817381041710
:1024900015072607370790F7FD83EC83D783C6839C
:1024A000BF83AE831596DC93CE9314979B878A8760
:1024B000FC0120812F5F2083DF91CF911F910F912D
:1024C0000895FC01A185B2851496ED91FC911597B4
:1024D000E3CFCF93DF93FC01A285B38524813581BF
:1024E00086819781E9019F838E8386819781EC01A4
:1024F0003D832C8311962D913C9112972E173F0707
:1025000041F0138612868C9181508C93DF91CF918C
:10251000089512969C938E931197138612868C9130
:1025200081508C93DF91CF91089590934B1B8093B2
:102530004A1B31E1FC013083319722E22083FC0108
:102540003297A3E3A083FC0133976083FC013497A7
:102550007083FC0135971082FC01369760E8608338
:10256000FC0137971082FC01389762E06083FC0120
:10257000399763E06083FC013A9764E06083FC0173
:102580003B9765E06083FC013C9766E06083FC015B
:102590003D9767E06083FC013E9768E06083FC0143
:1025A0003F9769E06083FC01709760E16083FC0104
:1025B00071973083FC01729732E13083FC0173978D
:1025C00033E13083FC01749734E13083FC0175976B
:1025D00035E13083FC01769736E13083FC01779753
:1025E00037E13083FC01789738E13083FC0179973B
:1025F00039E13083FC017A9730E23083FC017B972C
:1026000031E23083FC017C972083FC017D9723E23B
:102610002083FC017E974083FC017F975083FC015F
:10262000B09726E22083FC01B19727E22083FC01CA
:10263000B29728E22083FC01B39729E22083FC01B2
:10264000B49720E32083FC01B59721E3208386978C
:10265000089587E0809329018FEC809328018AE018
:1026600080932101E3E7F0E0808182608083A09184
:102670009803B0919903CD91CDBFDD91DEBFFF915D
:10268000EF91DF91CF91BF91AF919F918F917F910A
:102690006F915F914F913F912F911F910F91FF90FB
:1026A000EF90DF90CF90BF90AF909F908F907F90F2
:1026B0006F905F904F903F902F901F900F900FBEA4
:1026C0000F90089581E0089508950F920FB6F89441
:1026D0000F921F9211242F923F924F925F926F920E
:1026E0007F928F929F92AF92BF92CF92DF92EF92A2
:1026F000FF920F931F932F933F934F935F936F938B
:102700007F938F939F93AF93BF93CF93DF93EF9379
:10271000FF93A0919803B09199030DB60D920EB658
:102720000D920E94DA07A0919803B0919903CD9180
:10273000CDBFDD91DEBFFF91EF91DF91CF91BF91D2
:10274000AF919F918F917F916F915F914F913F9149
:102750002F911F910F91FF90EF90DF90CF90BF903E
:10276000AF909F908F907F906F905F904F903F9031
:102770002F901F900F900FBE0F9008950F920FB6DD
:10278000F8940F921F9211242F923F924F925F92D2
:102790006F927F928F929F92AF92BF92CF92DF9271
:1027A000EF92FF920F931F932F933F934F935F935B
:1027B0006F937F938F939F93AF93BF93CF93DF9349
:1027C000EF93FF93A0919803B09199030DB60D92EA
:1027D0000EB60D920E94C70581110E94DA07A091E2
:1027E0009803B0919903CD91CDBFDD91DEBFFF91EC
:1027F000EF91DF91CF91BF91AF919F918F917F9199
:102800006F915F914F913F912F911F910F91FF9089
:10281000EF90DF90CF90BF90AF909F908F907F9080
:102820006F905F904F903F902F901F900F900FBE32
:102830000F9008950E94BE1318951F93CF93DF93B6
:10284000EC01142F88A181110DC088819981892BF9
:1028500009F44DC080E09E8D9F5F9E8FDF91CF91E8
:102860001F910895482F50E011111CC08C819D814B
:102870000E94891C28A18C819D81820F911D9D83BE
:102880008C832A813B818217930720F38881998169
:102890009D838C8380E09E8D9F5F9E8FDF91CF9183
:1028A0001F9108958E819F810E94891C28A130E08C
:1028B0003195219531098E819F81820F931F9F83CE
:1028C0008E83688179818617970730F48A819B818E
:1028D000820F931F9F838E83123009F0BBCF8E8DA2
:1028E000882309F4B7CF8E8D81508E8FB3CF8A8124
:1028F0009B810E94F6091B821A82ADCFFC01CB019D
:1029000040A1442399F050E026813781240F351FE0
:1029100037832683628173812617370720F0208151
:10292000318137832683B9010C94891C08950F9354
:102930001F93CF93DF93EC010FB6F8940F928AA107
:102940001816ECF48B898823D1F08E010D5E1F4F91
:1029500009C08AA181508AA38AA1181684F48B89A0
:10296000882369F0C8010E948208882391F30E949D
:1029700076098AA181508AA38AA1181684F38FEF61
:102980008AA30F900FBE0FB6F8940F9289A1181664
:10299000ECF488858823D1F08E01085F1F4F09C0B1
:1029A00089A1815089A389A1181684F48885882378
:1029B00069F0C8010E948208882391F30E94760979
:1029C00089A1815089A389A1181684F38FEF89A367
:1029D0000F900FBEDF91CF911F910F910895CF936C
:1029E000DF93EC010FB6F8940F92288139818F8D17
:1029F00078A1879FC0011124A901480F591F5B834B
:102A00004A831E8E3D832C83871B9109820F931F5F
:102A10009F838E838FEF89A38AA3611112C088855B
:102A2000811106C00F900FBE81E0DF91CF91089514
:102A3000CE0108960E9482088130A1F70E9465139A
:102A4000F1CFCE0108960E94F611CE0143960E9466
:102A5000F6110F900FBE81E0DF91CF9108950F9393
:102A60001F93CF93DF93182F062F882301F183E262
:102A700090E00E942C11EC010097C9F0109FC0015A
:102A8000112401960E942C1199838883892B61F06F
:102A90001F8F08A361E0CE010E94EF14CE01DF91E9
:102AA000CF911F910F910895CE010E94C511C0E0F2
:102AB000D0E0CE01DF91CF911F910F9108956F92D9
:102AC0007F928F929F92AF92BF92CF92DF92EF92BE
:102AD000FF920F93CF93DF93CDB7DEB729970FB651
:102AE000F894DEBF0FBECDBF5C014B012E833F8348
:102AF0004887598720E03C0188E0680E711C0FB6BA
:102B0000F8940F92F501968D878D981708F459C0A7
:102B1000023009F456C0CE80DF80E884F984CD28E5
:102B2000CE28CF2809F46FC0222309F441C00F90AA
:102B30000FBE0E9498050FB6F8940F92F50181A17F
:102B40008F3F09F43CC0F50182A18F3FB1F10F9096
:102B50000FBEBE016A5F7F4FCE0101960E9415092C
:102B6000811155C00FB6F8940F92F501968D0F9014
:102B70000FBEF501878D981314C04E815F81688563
:102B80007985C3010E942708C5010E9497140E94FD
:102B9000CB06882311F021E0B2CF0E94651321E01B
:102BA000AECFC5010E9497140E94CB0621E0A7CFAB
:102BB000CE0101960E940409BACF12A2C8CF11A279
:102BC000C2CF402FB401C5010E941D14F5019389A5
:102BD000911124C0811128C00F900FBE81E0299669
:102BE0000FB6F894DEBF0FBECDBFDF91CF910F912E
:102BF000FF90EF90DF90CF90BF90AF909F908F901D
:102C00007F906F9008950F900FBE80E0E8CFC501D0
:102C10000E9497140E94CB0680E0E1CFC501439645
:102C20000E9482088130C1F60E946513D5CF0F93B0
:102C3000CF93DF9383E290E00E942C11EC01009788
:102C400001F11B821A82198218821D821C821F8246
:102C50001E821E8E81E08F8F18A28FEF89A38AA318
:102C6000CE0108960E94F611CE0143960E94F611FD
:102C700000E020E030E0A90160E070E0CE010E94B9
:102C80005F15CE01DF91CF910F9108950F931F93A0
:102C9000CF93DF93EC018A019E8D8F8D981740F0C2
:102CA000223031F080E0DF91CF911F910F91089594
:102CB000422FCE010E941D14882331F00115110509
:102CC00019F081E0F80180838AA18F3F49F08AA141
:102CD0008F5F8AA381E0DF91CF911F910F910895BB
:102CE0008B898823B9F3CE0143960E9482088823FA
:102CF00089F30115110571F381E0F8018083D3CFC9
:102D0000AF92BF92CF92DF92EF92FF920F93CF9349
:102D1000DF93CDB7DEB729970FB6F894DEBF0FBEAD
:102D2000CDBF7C016B012E833F834887598790E09C
:102D3000570183E1A80EB11C0FB6F8940F92F7016A
:102D4000868D811169C04E815F8168857985452BAB
:102D5000462B472B09F47DC0992309F43EC00F9000
:102D60000FBE0E9498050FB6F8940F92F70181A14B
:102D70008F3F09F43EC0F70182A18F3F09F43FC0A5
:102D80000F900FBEBE016A5F7F4FCE0101960E9479
:102D90001509811171C00FB6F8940F92F701868D55
:102DA0000F900FBE81111EC0F70180819181892B88
:102DB00041F14E815F8168857985C5010E942708B0
:102DC000C7010E9497140E94CB06882311F091E05E
:102DD000B3CF0E94651391E0AFCFCE0101960E9460
:102DE0000409BDCFC7010E9497140E94CB0691E051
:102DF000A3CF11A2F70182A18F3F09F0C1CF12A288
:102E0000BFCF0FB6F8940F92F701828193810E9491
:102E10009B090F900FBECDCFA680B780B601C7012A
:102E20000E947E14F70101112EC0868D8150868F7D
:102E300080819181892BB9F1F7018085882341F147
:102E4000C70108960E948208813011F50E9465131F
:102E50001FC00F900FBE80E029960FB6F894DEBF1A
:102E60000FBECDBFDF91CF910F91FF90EF90DF901C
:102E7000CF90BF90AF900895C7010E9497140E9411
:102E8000CB0680E0E9CFB782A6828389811104C096
:102E90000F900FBE81E0E0CFC70143960E948208E9
:102EA0008823B1F3D3CF0E945D0AF7019383828315
:102EB000C3CF0F931F93CF93DF9300D0CDB7DEB76F
:102EC0008C01FC01868D811108C080E00F900F906D
:102ED000DF91CF911F910F910895C80149835A83C3
:102EE0000E947E14F801868D8150868F81A14981D0
:102EF0005A818F3F61F0F80181A18F5F81A381E04A
:102F00000F900F90DF91CF911F910F9108958085C1
:102F10008823A9F3C801089649835A830E9482082E
:102F200049815A81882359F34115510541F381E0C4
:102F3000FA018083CBCF0F931F93CF93DF93EC01E4
:102F40008E8D811106C080E0DF91CF911F910F918E
:102F500008950E811F81CE010E947E141F830E836F
:102F600081E0DF91CF911F910F9108950FB6F894F2
:102F70000F92FC01868D0F900FBE08950FB6F89446
:102F80000F92FC01268D0F900FBEFC01878D821BD6
:102F90000895FC01868D0895CF93DF93EC0188811D
:102FA0009981009711F00E94C511CE01DF91CF9158
:102FB0000C94C511FC01968D81E0911180E008957B
:102FC000FC01268D81E0978D291380E00895CF9331
:102FD000DF93EC01442309F441C08EEC90E0998327
:102FE000888388EC90E09B838A8389EC90E09D83C2
:102FF0008C8388E18093C90086E08093CA00109298
:10300000CD009B0140E050E0220F331F441F551FAD
:10301000220F331F441F551F220F331F441F551FFC
:10302000220F331F441F551F60E074E284EF90E0CD
:103030000E946B1B2093CC008091C800816080931C
:10304000C80080E28E8380E88F8380E48887E881EF
:10305000F98180818081DF91CF91089586EC90E0A5
:103060009983888380EC90E09B838A8381EC90E055
:103070009D838C8388E18093C10086E08093C200A9
:103080001092C5009B0140E050E0220F331F441F07
:10309000551F220F331F441F551F220F331F441F7C
:1030A000551F220F331F441F551F60E074E284EF49
:1030B00090E00E946B1B2093C4008091C00081604F
:1030C0008093C000BECFDC011296ED91FC91139766
:1030D000208116968C91282381E009F480E00895E0
:1030E000DC011296ED91FC911397208118968C913A
:1030F000282381E009F080E00895DF92EF92FF92AB
:103100000F931F93CF93DF937C018B01DC01149607
:103110006D917C911597C8010E94110EF701A48151
:10312000B581FD0101900020E9F73197DE2EDA1A12
:10313000FFE0FD1580F0C0E0D0E0D801ED91FC91FA
:103140000280F381E02D60E2C801099521968C2F61
:103150008D0D803190F368E072E0C8010E94110E7D
:1031600066E0C8010E94560ED70116968D919C917B
:103170001797009779F0DC01ED91FC910190F081B7
:10318000E02DB801DF91CF911F910F91FF90EF904B
:10319000DF900994DF91CF911F910F91FF90EF90F5
:1031A000DF900895DF92EF92FF920F931F93CF93DA
:1031B000DF937C018B01DC0114966D917C91159756
:1031C000C8010E94110EF701A481B581FD01019093
:1031D0000020E9F73197DE2EDA1AFFE0FD1580F0C6
:1031E000C0E0D0E0D801ED91FC910280F381E02DA8
:1031F00060E2C801099521968C2F8D0D803190F3E6
:1032000068E072E0C8010E94110E66E0C8010E94E9
:10321000560ED70116968D919C911797009779F0CD
:10322000DC01ED91FC910190F081E02DB801DF917E
:10323000CF911F910F91FF90EF90DF900994DF9154
:10324000CF911F910F91FF90EF90DF900895DF9243
:10325000EF92FF920F931F93CF93DF937C018B012B
:10326000DC0114966D917C911597C8010E94110E96
:10327000F701A481B581FD0101900020E9F73197A4
:10328000DE2EDA1AFFE0FD1580F0C0E0D0E0D801B4
:10329000ED91FC910280F381E02D60E2C801099577
:1032A00021968C2F8D0D803190F368E072E0C8017B
:1032B0000E94110E66E0C8010E94560ED7011696B4
:1032C0008D919C911797009779F0DC01ED91FC911D
:1032D0000190F081E02DB801DF91CF911F910F9106
:1032E000FF90EF90DF900994DF91CF911F910F91A4
:1032F000FF90EF90DF900895DF92EF92FF920F938F
:103300001F93CF93DF937C018B01DC0114966D91A9
:103310007C911597C8010E94110EF701A481B58117
:10332000FD0101900020E9F73197DE2EDA1AFFE067
:10333000FD1580F0C0E0D0E0D801ED91FC91028055
:10334000F381E02D60E2C801099521968C2F8D0D47
:10335000803190F368E072E0C8010E94110E66E0CF
:10336000C8010E94560ED70116968D919C91179711
:10337000009779F0DC01ED91FC910190F081E02D56
:10338000B801DF91CF911F910F91FF90EF90DF90E7
:103390000994DF91CF911F910F91FF90EF90DF90F3
:1033A0000895DF92EF92FF920F931F93CF93DF93D5
:1033B0007C018B01DC0114966D917C911597C801FD
:1033C0000E94110EF701A481B581FD01019000203A
:1033D000E9F73197DE2EDA1AFFE0FD1580F0C0E044
:1033E000D0E0D801ED91FC910280F381E02D60E204
:1033F000C801099521968C2F8D0D803190F368E0DE
:1034000072E0C8010E94110E66E0C8010E94560ECB
:10341000D70116968D919C911797009779F0DC0152
:10342000ED91FC910190F081E02DB801DF91CF91F9
:103430001F910F91FF90EF90DF900994DF91CF9152
:103440001F910F91FF90EF90DF900895CF92DF9240
:10345000EF92FF920F931F93CF93DF9314BE88E1F7
:103460000FB6F89480936000109260000FBE80E168
:1034700090E00E94DA0D6C0141E060E875E20E9484
:103480002F1067E0C6010E94560E6BE00E94560E98
:10349000EC0164EE70E00E94110E66E0CE010E9425
:1034A000560E88E190E00E94DA0DEC011AE0E12E60
:1034B000F12C00E010E096014FE052E060E270E095
:1034C000CE010E94950DD0939703C09396038AE096
:1034D00090E00E94DA0D8C0165E172E00E946F0AB3
:1034E000CFEBD2E0F801D183C08310939503009312
:1034F000940389E090E00E94DA0D8C0164E272E0AE
:103500000E946F0A85EC92E0F8019183808310930A
:103510009103009390038AE090E00E94DA0D8C0101
:1035200064E372E00E946F0AF801D183C0831093B4
:103530009303009392038CE090E00E94DA0D8C01DB
:1035400060E472E00E946F0A8BEC92E0F8019183D4
:10355000808310938F0300938E038AE090E00E9493
:10356000DA0D8C0164E572E00E946F0AF801D183E4
:10357000C08310938D0300938C038CE090E00E9435
:10358000DA0D8C016BE672E00E946F0A81ED92E029
:10359000F8019183808310938B0300938A038AE060
:1035A00090E00E94DA0D8C0164E772E00E946F0ADD
:1035B000F801D183C08310938703009386038AE0C8
:1035C00090E00E94DA0D8C0163E872E00E946F0ABD
:1035D000F801D183C08310938503009384038AE0AC
:1035E00090E00E94DA0D8C0167E972E00E946F0A98
:1035F000F801D183C083109383030093820389E091
:1036000090E00E94DA0DEC016BEA72E00E946F0A12
:1036100087ED92E099838883D0938103C0938003E0
:103620008AE290E00E94DA0D860128E131E044E070
:1036300067EB72E00E942B010E945B0580E090E046
:10364000DF91CF911F910F91FF90EF90DF90CF907E
:1036500008950E949B0B0F93CF93DF931F92CDB7DA
:10366000DEB76983FC01208931894289538900E0F2
:10367000BE016F5F7F4F868597850E945F150F9013
:10368000DF91CF910F910895FC01868597850E9467
:10369000B61791E0811101C090E0892F08950F9332
:1036A000CF93DF931F92CDB7DEB700E02FEF3FEF50
:1036B000A901BE016F5F7F4FFC01868597850E943F
:1036C0008016813031F489810F90DF91CF910F9175
:1036D00008958FEFF9CFA1E21A2EAA1BBB1BFD01A3
:1036E0000DC0AA1FBB1FEE1FFF1FA217B307E407E1
:1036F000F50720F0A21BB30BE40BF50B661F771F39
:10370000881F991F1A9469F7609570958095909518
:103710009B01AC01BD01CF010895EE0FFF1F059085
:10372000F491E02D09940CD0BAC0B2D040F0A9D0E9
:1037300030F021F45F3F19F09BC05111E4C09EC0EE
:10374000BFD098F39923C9F35523B1F3951B550BBB
:10375000BB27AA2762177307840738F09F5F5F4F64
:10376000220F331F441FAA1FA9F333D00E2E3AF0A5
:10377000E0E830D091505040E695001CCAF729D0BF
:10378000FE2F27D0660F771F881FBB1F261737070E
:103790004807AB07B0E809F0BB0B802DBF01FF273E
:1037A00093585F4F2AF09E3F510568F061C0ABC04F
:1037B0005F3FECF3983EDCF3869577956795B79578
:1037C000F7959F5FC9F7880F911D9695879597F993
:1037D0000895E1E0660F771F881FBB1F621773070C
:1037E0008407BA0720F0621B730B840BBA0BEE1F21
:1037F00088F7E0950895E89409C097FB3EF490950A
:103800008095709561957F4F8F4F9F4F9923A9F0B9
:10381000F92F96E9BB279395F69587957795679548
:10382000B795F111F8CFFAF4BB0F11F460FF1BC08C
:103830006F5F7F4F8F4F9F4F16C0882311F096E91F
:1038400011C0772321F09EE8872F762F05C06623CD
:1038500071F096E8862F70E060E02AF09A95660F86
:10386000771F881FDAF7880F9695879597F908953F
:1038700097F99F6780E870E060E008959FEF80EC23
:10388000089500240A9416161706180609060895C6
:1038900000240A9412161306140605060895092E2C
:1038A0000394000C11F4882352F0BB0F40F4BF2B9B
:1038B00011F460FF04C06F5F7F4F8F4F9F4F0895DB
:1038C00057FD9058440F551F59F05F3F71F04795D1
:1038D000880F97FB991F61F09F3F79F087950895B6
:1038E000121613061406551FF2CF4695F1DF08C0D5
:1038F000161617061806991FF1CF869571056105F2
:1039000008940895E894BB2766277727CB0197F999
:103910000895FB01DC0102C001900D92415050401E
:10392000D8F70895DC0101C06D9341505040E0F795
:103930000895FB01DC018D91019080190110D9F3EC
:10394000990B0895FB01DC014150504048F0019073
:103950000D920020C9F701C01D9241505040E0F780
:103960000895FA01CF93FF93EF932230CCF02532E4
:10397000BCF4C22F2C2F332744275527FF93EF93F6
:103980000E946B1BEF91FF91605D6A330CF0695DE3
:103990006193B901CA01605070408040904051F776
:1039A00010828F919F91CF910C94EC1CFB019F0191
:1039B000423074F0453264F4642F77270E94FC1C77
:1039C000805D8A330CF0895D8193CB010097A1F76C
:1039D0001082C9010C94EC1CDC01FC01672F719171
:1039E0007723E1F7329704C07C916D9370836291E5
:1039F000AE17BF07C8F30895AA1BBB1B51E107C050
:103A0000AA1FBB1FA617B70710F0A61BB70B881F6E
:103A1000991F5A95A9F780959095BC01CD010895FD
:043A2000F894FFCF48
:103A2400FFFFFFFF0A0337177368617265090050CF
:103A340072696E74004D6F746F7220536574506FA9
:103A4400696E74004D6F746F72204469726563749B
:103A5400697665004D6F746F7220506F77657200E0
:103A6400456E636F6465722050756C736520436F97
:103A7400756E7400456E636F6465722050756C7367
:103A840065205065722054696D6500696D75206408
:103A9400617461005374656572696E6720506F7755
:103AA40065720058204A6F79737469636B20506F94
:103AB400736974696F6E0059204A6F79737469630E
:103AC4006B20506F736974696F6E00536869667414
:103AD400205374617465005245430000000000D116
:103AE40019000000007C19000000002719000000E4
:103AF40000D218000000007D186275663A20004963
:103B04006E2052756E0041434F4D443A200050617F
:103B1400697265642021005F41434B0044434D4476
:103B24003A2000574520494E20495400433A20008A
:103B34005F434F4E005F445256004275666665729D
:103B44005B005D3A200000000000B001D10B494445
:103B54004C450000000000F60D00000000F60DD1F9
:103B64000B7478745F71090000000000F70D2B1BC3
:103B7400441B4F1BFD0DFE0D1C0DFAFF0000D70D5D
:103B840000000000F70DF60DFB0DF90DFD0DFE0D07
:103B940000000000F70D9E0F1010C00FFD0D08105F
:00000001FF
