:100000000C94CD070C94EC070C94EC070C94EC07C3
:100010000C94EC070C94EC070C94EC070C94571818
:100020000C94C9180C94EC070C94EC070C94EC0796
:100030000C94EC070C94EC070C94EC070C94EC0774
:100040000C94EC070C94EC070C94EC070C94EC0764
:100050000C94EC070C94EC070C94EC070C94EC0754
:100060000C94EC070C94822A0C94EC070C94EC078B
:100070000C94EC070C94EC070C94EC070C94EC0734
:100080000C94EC070C94EC070C94EC070C94EC0724
:100090000C94D52A0C94EC070C94EC070C94EC0708
:1000A0000C94EC070C94EC070C94EC070C94EC0704
:1000B0000C94EC070C94EC070C94EC070C944C2D6E
:1000C0000C94EC070C94EC070C94EC077112F512ED
:1000D000F512F5120F12F512F512F512F512F512CE
:1000E000F512F512F512081262133513F512FF0F0F
:1000F000A40FE726F026F326F626E926E926F926B8
:100100000927102717271B27ED264D4534303520AA
:100110004C6162203320456E636F64657220436FCB
:100120006E74726F6C6C65722050726F6772616D65
:10013000007C09092027712720202020717569740F
:1001400020746F206D61696E206D656E75202020B2
:1001500020202020202020202020202009097C0091
:100160007C090920277227202020205265667265AD
:1001700073682074686520646174612020202020E9
:10018000202020202020202020202009097C007C05
:100190002D2D2D2D2D2D2D2D2D2D2D2D2D2D2D2D8F
:1001A0002D2D2D2D2D2D2D2D2D2D2D2D2D2D2D2D7F
:1001B0002D2D2D2D2D2D2D2D2D2D2D2D2D2D2D2D6F
:1001C0002D2D2D2D2D2D2D2D2D2D2D2D2D2D2D7C10
:1001D000007C09092020202020202020456E636F0C
:1001E00064657220436F6E74726F6C204D6F64751E
:1001F0006C652020202020202020202009097C0060
:100200004D45343035204C6162203320456E636F9C
:100210006465722044726976657220496E74656700
:10022000726174696F6E0041707220323820323012
:1002300031360053797374656D2074696D653A20A9
:10024000002C20486561703A20002C204F43523525
:10025000413A20003C696E76616C69642063686194
:1002600072202200223E002020683A2020202020F8
:1002700048414C502100202043746C2D433A2052B9
:100280006573657420746865204156520020206EA5
:100290003A2020202020456E7465722061206E7502
:1002A0006D626572202864656D6F29002020643AB4
:1002B0002020202020537461636B2064756D7020B2
:1002C000666F72207461736B73002020733A202074
:1002D00020202056657273696F6E20616E642073F2
:1002E0006574757020696E666F726D6174696F6E8A
:1002F000002020743A202020202053686F7720743B
:1003000068652074696D65207269676874206E6F16
:1003100077004D45343035204C6162203320456EE6
:10032000636F6465722044726976657220496E74E9
:100330006567726174696F6E002068656C70004D4E
:100340006F746F72203209090009000909002D2D10
:100350002D2D2D2D2D09092D2D2D2D2D2D2D2D0939
:100360002D2D2D2D2D2D2D09092D2D2D2D2D2D2D05
:100370002D2D2D2D004D6F746F720909537461740A
:1003800075730909506F776572090944697265636D
:1003900074696F6E002D2D2D2D2D2D2D09092D2DFC
:1003A0002D2D2D2D2D2D092D2D2D2D2D2D2D0909E9
:1003B0002D2D2D2D2D2D2D2D2D2D2D004D6F746FAF
:1003C00072203109090009000909007C0909202768
:1003D0007127202020202052657475726E20746F62
:1003E0002070726576696F7573206D656E75200972
:1003F000097C007C09092027702720202020204527
:100400006E74657220506F74656E74696F6D65747B
:100410006572204D6F646509097C007C09092027FD
:100420006627202020202046726565776865656C08
:10043000206D6F746F722020202020202020200942
:10044000097C007C090920276227202020202041E8
:1004500070706C7920746865206D6F746F722062A3
:1004600072616B6520202009097C007C0909202726
:100470007327202020202053657420746865206D28
:100480006F746F7220706F776572202020202009B2
:10049000097C007C2D2D2D2D2D2D2D2D2D2D2D2D3F
:1004A0002D2D2D2D2D2D2D2D2D2D2D2D2D2D2D2D7C
:1004B0002D2D2D2D2D2D2D2D2D2D2D2D2D2D2D2D6C
:1004C0002D2D2D2D2D2D2D2D2D2D2D2D2D2D2D2D5C
:1004D0002D2D2D7C007C090920202053696E676C2E
:1004E00065204D6F746F7220436F6E74726F6C2055
:1004F0004D6F64756C6520202009097C007C09091A
:10050000202020204D61696E204D6F746F72204352
:100510006F6E74726F6C204D6F64756C6520202057
:100520002009097C007C2D2D2D2D2D2D2D2D2D2DDF
:100530002D2D2D2D2D2D2D2D2D2D2D2D2D2D2D2DEB
:100540002D2D2D2D2D2D2D2D2D2D2D2D2D2D2D2DDB
:100550002D2D2D2D2D2D2D2D2D2D2D2D2D2D2D2DCB
:100560002D2D2D2D2D7C007C0909202731272020C1
:10057000202020746F206F706572617465204D6F4C
:10058000746F72203120202020202009097C007CFB
:100590000909202732272020202020746F206F7027
:1005A0006572617465204D6F746F72203220202057
:1005B00020202009097C007C0909202771272020A0
:1005C00020202052657475726E20746F204D616911
:1005D0006E204D656E75202020202009097C004D7D
:1005E00045343035204C6162203320456E636F64A2
:1005F00065722044726976657220496E746567720F
:100600006174696F6E000909092020202000417083
:10061000722032382032303136007C090920202007
:10062000204D697373696F6E20436F6E74726F6CC7
:100630002050726F6772616D2076312E302020203D
:100640002009097C007C2D2D2D2D2D2D2D2D2D2DBE
:100650002D2D2D2D2D2D2D2D2D2D2D2D2D2D2D2DCA
:100660002D2D2D2D2D2D2D2D2D2D2D2D2D2D2D2DBA
:100670002D2D2D2D2D2D2D2D2D2D2D2D2D2D2D2DAA
:100680002D2D2D2D2D7C007C090920276D27202064
:10069000202020456E746572204D6F746F72204368
:1006A0006F6E74726F6C204D6F64756C65202020C6
:1006B00009097C007C0909202765272020202020AB
:1006C000456E74657220456E636F64657220436F7A
:1006D0006E74726F6C204D6F64756C652009097CB7
:1006E000007C0909202768272020202020446973E6
:1006F000706C617920616C6C206F7074696F6E73BF
:100700002020202020202020202009097C007C0996
:1007100009202743746C2D4327205265736574208C
:100720004156522020202020202020202020202040
:100730002020202020202009097C00496C6C65675E
:10074000616C2073746174652120526573657474E3
:10075000696E672041565200546869732044656D84
:100760006F20686173206265656E206469736162E1
:100770006C65642E20536F72727900092D3E5265AC
:100780007475726E696E6720746F206D61696E2E6C
:100790002E0009092D3E2070726573732027722781
:1007A00020746F207265667265736820004552522E
:1007B0004F5220506F736974696F6E3A2000455232
:1007C000524F522053746174653A2000537461741F
:1007D000653A20004572726F7220436F756E743AED
:1007E00020005265762F5365633A2000456E636F93
:1007F00064657220436F756E74202F206D733A20EC
:1008000000456E636F64657220436F756E743A20A5
:10081000002D3E53656C65637465643A2000092DB4
:100820003E52657475726E696E6720746F204D69F3
:100830007373696F6E20436F6E74726F6C2E2E200F
:1008400000092D3E52656C656173696E6720456EC7
:10085000636F6465722E2E00092D3E5072657373AE
:100860002027712720746F2072657475726E207452
:100870006F20746865204D6F746F72200020436F85
:100880006E74726F6C00092D3E5072657373202771
:10089000722720746F2072656672657368207468B1
:1008A000652044617368426F61726420002D3E537D
:1008B000656C65637465643A20002D3E53656C6514
:1008C000637465643A20002D3E43686F6F73652042
:1008D0004D6F746F722000206F7065726174696F64
:1008E0006E3A2000270027206973206E6F74206104
:1008F0002076616C696420656E7472792E002D3EDD
:1009000053656C65637465643A20002052657475A4
:10091000726E696E6720746F204D61696E204D6F35
:10092000746F72204D6F64756C652E2E2000092D3A
:100930003E50726573732027712720746F20726593
:100940007475726E20746F20746865204D6F746FBB
:1009500072200020436F6E74726F6C00092D3E5040
:10096000726573732027722720746F207265667218
:10097000657368207468652044617368426F6172B2
:10098000642000092D3E506F74656E74696F6D654B
:10099000746572204163746976617465642E002DFC
:1009A0003E53656C65637465643A2000092D3E45CD
:1009B0006E746572696E6720506F74656E74696FCE
:1009C0006D6574657220436F6E74726F6C2E2E2E7F
:1009D0002000436F756E743A20002D3E43686F6FA0
:1009E0007365204D6F746F722000206F70657261A7
:1009F00074696F6E3A20000928507265737320275E
:100A00006F2720666F72206F7074696F6E73290094
:100A1000092D3E52656C656173696E67204D6F7478
:100A20006F722E2E002D3E53656C65637465643ABB
:100A300020002D3E43686F6F7365204D6F746F7299
:100A40002000206F7065726174696F6E3A20000932
:100A500028507265737320276F2720666F72206F8E
:100A60007074696F6E732900094272616B6520733F
:100A7000657420617420002E2000092D3E456E749F
:100A8000657220746865204272616B6520466F72E2
:100A900063652830202D2032353529002D3E5365E1
:100AA0006C65637465643A20002D3E43686F6F7314
:100AB00065204D6F746F722000206F7065726174D5
:100AC000696F6E3A20000928507265737320276F92
:100AD0002720666F72206F7074696F6E732900092A
:100AE000506F7765722073657420617420002E202A
:100AF00000456E7465722074686520506F7765726A
:100B00002056616C756520282D32353520746F2094
:100B1000323535293B0020202A4E6F74653A204E2D
:100B2000656761746976652056616C756573203DF3
:100B30002052657665727365002D3E53656C656362
:100B40007465643A200054727920416761696E2EA1
:100B50002000092D3E537769746368696E672074BD
:100B60006F20436F6E74726F6C206F66204D6F74D0
:100B70006F7220002E00092D3E52657475726E2032
:100B8000746F20746865204D61696E204D6F746FBD
:100B900072204D6F64756C6520746F20737761707F
:100BA000204D6F746F72732E002D3E53656C65631C
:100BB0007465643A2000092D3E52657475726E6941
:100BC0006E6720746F204D697373696F6E20436F79
:100BD0006E74726F6C2E2E2000092D3E52656C656E
:100BE0006173696E67204D6F746F72732E2E0009EA
:100BF0002D3E526573657474696E67204156522E9E
:100C00002E00223A205754463F0052657365747493
:100C1000696E672041565200092D3E596F75204577
:100C20006E74657265643A2000456E746572206466
:100C30006563696D616C206E756D657269632064B2
:100C400069676974732C207468656E205245545529
:100C5000524E206F722045534300092D3E53776951
:100C6000746368696E6720746F20456E636F646596
:100C700072204D6F64756C652E2E00092D3E436CFD
:100C8000656172696E672052656769737465727316
:100C900020616E64204D656E75732E2E00092D3E09
:100CA000496E7469616C697A696E6720456E636F1D
:100CB0006465722E2E002D3E53656C656374656409
:100CC0003A2000092D3E537769746368696E672086
:100CD000746F204D6F746F72204D6F64756C652E4C
:100CE0002E00092D3E436C656172696E6720526566
:100CF0006769737465727320616E64204D656E75EB
:100D0000732E2E00092D3E496E7469616C697A69F3
:100D10006E67204D6F746F72732E2E002D3E5365DB
:100D20006C65637465643A200043757272656E7415
:100D3000204368616E6E656C2052656164696E6700
:100D4000733A2000456E64205072696E74204461CD
:100D50007461004D6F746F72204472697665722001
:100D6000496E7075743A2000456E636F6465722039
:100D700044726976657220536179732048692E0048
:100D80004E6F2073686172656420646174612069CC
:100D900074656D7320746F207072696E74002D2DF0
:100DA0002D2D2020202020202020202020202D2D0F
:100DB0002D2D202020202D2D2D2D2D2D2D2D2D2D97
:100DC0000053686172652F5175657565202020207C
:100DD000205479706520202020467265652F546F5D
:100DE00074616C004552524F5220637265617469A0
:100DF0006E67207461736B2022005461736B202234
:100E0000002220637265617465642C2073746163D1
:100E10006B206174203078005461736B3A20005469
:100E200061736B3A2049444C450049444C450909DB
:100E300030092D09002F0009092D002D2D2D2D0918
:100E4000092D2D2D2D092D2D2D2D2D00092D2D2D6B
:100E50002D2D2D2D2D2D2D00092D2D2D2D004E61EB
:100E60006D6509095072692E095374617465000932
:100E7000467265652F546F74616C000952756E730C
:100E8000005461736B090920200920000953746123
:100E9000636B00090009002F0009000900202000F1
:100EA00000407A10F35A00A0724E18090010A5D421
:100EB000E80000E87648170000E40B54020000CA7E
:100EC0009A3B000000E1F5050000809698000000C4
:100ED00040420F000000A086010000001027000023
:100EE0000000E803000000006400000000000A00A9
:100EF000000000000100000000002C76D888DC67AC
:100F00004F0823DFC1DFAE59E1B1B796E5E3E45303
:100F1000C63AE651997696E8E6C28426EB898C9B20
:100F200062ED407C6FFCEFBC9C9F40F2BAA56FA5C0
:100F3000F490055A2AF75C936B6CF9676DC11BFC42
:100F4000E0E40D47FEF520E6B500D0ED902E03005D
:100F5000943577050080841E080000204E0A0000AA
:100F600000C80C333333330F986E12831141EF8D69
:100F70002114893BE65516CFFEE6DB18D1844B38A9
:100F80001BF77C1D901DA4BBE424203284725E22DA
:100F90008100C9F124ECA1E53D2711241FBECFEF4C
:100FA000D1E2DEBFCDBF13E0A0E0B2E0E4ECF0E7B9
:100FB00000E00BBF02C007900D92A83EB107D9F721
:100FC0001BE1A8EEB3E001C01D92A03BB107E1F721
:100FD0000E9441330C9460380C9400000F931F93CF
:100FE000CF93DF93EC0166E08E819F810E94DA2629
:100FF0006BE08E819F810E94DA268C0165ED74E0A2
:101000000E94952666E0C8010E94DA266BE08E8178
:101010009F810E94DA268C0163E974E00E94952684
:1010200066E0C8010E94DA266BE08E819F810E94F3
:10103000DA268C016BE674E00E94952666E0C80112
:101040000E94DA266BE08E819F810E94DA268C0155
:1010500063E474E00E94952666E0C8010E94DA26E7
:101060006BE08E819F810E94DA268C016BE174E037
:101070000E94952666E0C8010E94DA266BE08E8108
:101080009F810E94DA268C0163EF73E00E9495260F
:1010900066E0C8010E94DA266BE08E819F810E9483
:1010A000DA268C016BEC73E00E94952666E0C8019D
:1010B0000E94DA2681E08E8FDF91CF911F910F91F0
:1010C0000895AF92BF92CF92DF92EF92FF920F936B
:1010D0001F93CF93DF93EC018B8D8823C1F0813078
:1010E00009F4D1C0823009F4F8C0833009F4E6C0B5
:1010F00097ECA92E92E0B92E8F89988D97FDCBC0E1
:10110000892B49F01EEBE12E12E0F12E08C089EA8E
:10111000A82E82E0B82E02EBE02E02E0F02E66E070
:101120008E819F810E94DA26CF88D88C6BE08E81D9
:101130009F810E94DA268C016EE473E00E9495265E
:1011400066E0C8010E94DA266BE00E94DA268C0174
:1011500065E773E00E94952666E0C8010E94DA26E2
:101160006BE00E94DA268C0165E973E00E94952607
:1011700066E0C8010E94DA266BE00E94DA268C0144
:101180006CEB73E00E949526B501C8010E9495267C
:101190006BE0C8010E94DA268C0166EC73E00E94C5
:1011A0009526B601C8010E9436286BE00E94DA2617
:1011B0008C0168EC73E00E949526B701C8010E947B
:1011C000952666E0C8010E94DA268C8D811145C003
:1011D000A98CBA8CF9EACF2EF2E0DF2EA2EBEA2E30
:1011E000A2E0FA2E66E08E819F810E94DA266BE0F3
:1011F0000E94DA268C016FE373E00E949526B60107
:10120000C8010E9495266BE0C8010E94DA268C0175
:1012100069E473E00E949526B501C8010E94362852
:101220006BE00E94DA268C016BE473E00E94952645
:10123000B701C8010E94952666E0C8010E94DA261F
:1012400081E08E8FDF91CF911F910F91FF90EF90F2
:10125000DF90CF90BF90AF900895813009F1823038
:10126000B9F1833081F1E7ECCE2EE2E0DE2E898DFC
:101270009A8D97FD1DC00097A9F15C017EEBE72ECA
:1012800072E0F72EAFCF50EEA52E52E0B52E8F892B
:10129000988D97FF35CFB6EBEB2EB2E0FB2E3FCF0C
:1012A00020EEC22E22E0D22E898D9A8D97FFE3CFB9
:1012B0005C0166EBE62E62E0F62E94CF3EECA32EA8
:1012C00032E0B32E19CF8EECC82E82E0D82ECFCFCD
:1012D00097EDC92E92E0D92ECACF47EDA42E42E059
:1012E000B42E0ACFA12CB12C7DCF0F931F93CF9397
:1012F000DF93EC010E941C2281EF92E099838883A6
:101300001E8E1E8A1D8A82E08B8F8C8F188E1F8AFC
:101310001A8E198EDF91CF911F910F9108950F931F
:101320001F93CF93DF93EC018E8D811173C066E024
:101330008E819F810E94DA266BE00E94DA268C0162
:101340006FED75E00E94952666E0C8010E94DA26DE
:1013500066E00E94DA266BE00E94DA268C0166E0E5
:1013600076E00E9495266BE0C8010E94DA268C0187
:101370006EE076E00E94952666E0C8010E94DA26BB
:101380006BE00E94DA268C016AE176E00E949526E5
:1013900066E0C8010E94DA266BE00E94DA268C0122
:1013A00065E476E00E94952666E0C8010E94DA2690
:1013B0006BE00E94DA268C0167E876E00E949526B1
:1013C00066E0C8010E94DA266BE00E94DA268C01F2
:1013D00064EB76E00E94952666E0C8010E94DA265A
:1013E0006BE00E94DA268C0161EE76E00E94952681
:1013F00066E0C8010E94DA266BE00E94DA268C01C2
:101400006EE077E00E94952666E0C8010E94DA2629
:1014100081E08E8FDF91CF911F910F9108950F93EF
:101420001F93CF93DF93EC018E8D811146C066E050
:101430008E819F810E94DA2666E00E94DA266BE0A8
:101440000E94DA268C016DEF74E00E94952666E01A
:10145000C8010E94DA266BE00E94DA268C0165E260
:1014600075E00E94952666E0C8010E94DA266BE0CE
:101470000E94DA268C0167E675E00E94952666E0F8
:10148000C8010E94DA266BE00E94DA268C016FE820
:1014900075E00E94952666E0C8010E94DA266BE09E
:1014A0000E94DA268C0167EB75E00E94952666E0C3
:1014B000C8010E94DA2681E08E8FDF91CF911F91C3
:1014C0000F910895FC01268D211108950C94EE07CB
:1014D000FC01268D211102C00C94610808950F9320
:1014E0001F93CF93DF93EC0166E08E819F810E9472
:1014F000DA266BE00E94DA268C0162E173E00E943A
:1015000095266BE0C8010E94DA268C0169E373E03E
:101510000E94952666E0C8010E94DA266BE08E8163
:101520009F810E94DA268C0161EF72E00E9495266D
:1015300066E0C8010E94DA266BE08E819F810E94DE
:10154000DA268C016AEC72E00E94952666E0C801FA
:101550000E94DA266BE08E819F810E94DA268C0140
:101560006CEA72E00E94952666E0C8010E94DA26C5
:101570006BE08E819F810E94DA268C016DE872E01B
:101580000E94952666E0C8010E94DA266BE08E81F3
:101590009F810E94DA268C0166E772E00E94952600
:1015A00066E0C8010E94DA266BE08E819F810E946E
:1015B000DA26EC0167E672E00E94952666E0CE012D
:1015C000DF91CF911F910F910C94DA26CF93DF9387
:1015D000EC018E819F81DC01ED91FC910480F5810D
:1015E000E02D0995811104C080E0DF91CF9108952D
:1015F0008E819F81DC01ED91FC910680F781E02DC9
:1016000009958A8B81E0DF91CF910895CF92DF9287
:10161000FF920F931F93CF93DF931F92CDB7DEB747
:101620006C01DC0154961C921E925397F12CF6012A
:1016300086819781DC01ED91FC910480F581E02D9C
:101640000995882309F440C0F60186819781DC0161
:10165000ED91FC910680F781E02D0995282FF60188
:10166000828B80ED820F8A3008F458C02D3209F445
:1016700078C0213709F498C02A3009F47FC02D3092
:1016800009F484C02B3109F481C06BE0F601868136
:10169000978129830E94DA268C0164E572E00E941A
:1016A0009526D801ED91FC910280F381E02D2981EE
:1016B000622FC80109956BE0C8010E94DA2664E632
:1016C00072E00E949526B3CF8091FA039091FB03BC
:1016D000DC01ED91FC910480F581E02D09958823D2
:1016E00009F4A5CFD6011696ED91FC9117970190BC
:1016F000F081E02D028113818091FA039091FB0328
:10170000DC01ED91FC910680F781E02D0995682FB1
:10171000F60186819781F801099589CF86819781A5
:10172000DC01ED91FC910280F381E02D622F09959F
:10173000F60123893489C901880F991F220F331FAD
:10174000220F331F220F331F820F931F228933274B
:1017500027FD309520533109820F931F948B838B83
:1017600066CF86819781DC01ED91FC910280F38147
:10177000E02D6DE20995FF24F39459CF69EE72E0F4
:10178000F601868197810E94952651CFFF2061F056
:10179000D60153968D919C9154979195819591097D
:1017A00054969C938E9353970F90DF91CF911F91F6
:1017B0000F91FF90DF90CF9008958F929F92AF92FC
:1017C000BF92CF92DF92EF92FF920F931F93CF932E
:1017D000DF9300D000D000D0CDB7DEB78C011982E6
:1017E0001A821B821C821E821D82C0902801D0900A
:1017F00029010E94971A5C01CE0101960E94C6251C
:101800004C0166E0F801868197810E94DA266BE040
:101810000E94DA267C0160E072E00E9495266BE06F
:10182000C7010E94DA267C0167E272E00E949526D9
:1018300066E0C7010E94DA266BE00E94DA267C018E
:1018400063E372E00E949526B401C7010E946525FA
:101850006BE00E94DA267C0161E472E00E9495262A
:10186000B501C7010E9497287C016BEE72E00E94CF
:10187000952648E357E160E070E0C7010E94D12857
:101880006BE00E94DA267C016AE472E00E949526F1
:10189000B601C7010E94972866E00E94DA2666E03A
:1018A0000E94DA26F801868197810E94172466E05B
:1018B000F801868197810E94DA26F8018681978156
:1018C0000E94D72126960FB6F894DEBF0FBECDBF7B
:1018D000DF91CF911F910F91FF90EF90DF90CF900C
:1018E000BF90AF909F908F9008950FB6F8940F928D
:1018F000E091F403F091F50360870F900FBE0FB6EF
:10190000F8940F92E091F603F091F70320870F907F
:101910000FBE0FB6F8940F92E091F803F091F9031F
:10192000518740870F900FBE613041F0623009F05F
:101930000895FC01248F528F418F0895FC01238F5D
:10194000508F478B08956150710981E062307105B5
:1019500008F080E00895FC01168E08950F931F9300
:10196000CF93DF93EC018E8D81113FC066E08E81B5
:101970009F810E94DA266BE08E819F810E94DA2689
:101980008C0161ED71E00E94952666E0C8010E941D
:10199000DA266BE08E819F810E94DA268C016FE847
:1019A00071E00E94952666E0C8010E94DA266BE08D
:1019B0008E819F810E94DA268C0160E671E00E9490
:1019C000952666E0C8010E94DA266BE08E819F8131
:1019D0000E94DA268C0161E371E00E94952666E0A0
:1019E000C8010E94DA2681E08E8FDF91CF911F918E
:1019F0000F910895CF93DF93CDB7DEB727970FB63A
:101A0000F894DEBF0FBECDBF8C0119821A821B82F3
:101A10001C821E821D82DC0154961C921E925397DA
:101A20003AC0243029F108F4CEC0253009F0AEC008
:101A30006BE0868197810E94DA267C0168E577E079
:101A40000E94952666E0C7010E94DA266BE00E949C
:101A5000DA267C016BE777E00E94952666E0C701F5
:101A60000E94DA26F801168E60E0C8010E94D22298
:101A7000F80146855785608971894F5F5F4F6F4FC9
:101A80007F4F46875787608B718B61E070E080E005
:101A900090E00E94CD1EF8012485223009F44DC04B
:101AA00008F0BFCF222329F1213009F06FC0F801DF
:101AB000858981111DC2868D811103C0C8010E94D4
:101AC000EE07C8010E94E60A882391F2F801D28845
:101AD0008D2D992787FD9095A92FB92FFC01E256EE
:101AE000F109E331F10508F080C5EA59FF4F0C9484
:101AF0005B35C8010E948F09C8010E94E60A88234D
:101B000009F4B6CFD80152962C91253609F4C6C3F4
:101B10000CF035C32F3309F42EC30CF409C322365D
:101B200009F428C4243609F006C4D80116968D910C
:101B30009C9117970E9431239BCFC8010E94E60A0F
:101B4000882351F0D80152968C915297813709F42D
:101B5000ACC1823709F454C10FB6F8940F920F90BC
:101B60000FBEE091F803F091F9034085518523E021
:101B7000F801658DC8010E94750CD8015E968C91A4
:101B8000811176CFC8010E94610872CF6BE0D80145
:101B900016968D919C9117970E94DA268C016BE323
:101BA00077E00E94952666E0C8010E94DA262BE0C5
:101BB00088E190E00FB6F894A895809360000FBE7E
:101BC00020936000FFCFF8018689882309F450CF65
:101BD000C8010E94AE0CC8010E94E60A882309F4DD
:101BE00047CFD80152968C91813709F4D1C38237FF
:101BF00009F03ECF0FB6F8940F92E091F203F09106
:101C0000F303C084D184E284F3840F900FBE6BE0B1
:101C1000D80116968D919C9117970E94DA265C0147
:101C200061E078E00E949526B701A601C5010E94F7
:101C3000652866E00E94DA260FB6F8940F92E091CC
:101C4000F003F091F103C084D184E284F3840F9017
:101C50000FBE6BE0F801868197810E94DA265C0155
:101C60006CEE77E00E949526B701A601C5010E949F
:101C7000652866E00E94DA260FB6F8940F920F905E
:101C80000FBEE091F003F091F103608571858285CC
:101C900093850E94DA3520E030E04AE754E40E9460
:101CA000663620E030E041EE54E40E9470356B016E
:101CB0007C016BE0D80116968D919C9117970E943C
:101CC000DA265C0162EE77E00E949526B701A60154
:101CD000C5010E94AF2766E00E94DA260FB6F8948D
:101CE0000F92E091EE03F091EF03C084D184E2847F
:101CF000F3840F900FBE6BE0F801868197810E94FC
:101D0000DA265C0164ED77E00E949526B701A60112
:101D1000C5010E94D12866E00E94DA260FB6F89429
:101D20000F92E091EC03F091ED03D0840F900FBE81
:101D30006BE0D80116968D919C9117970E94DA2638
:101D40007C016CEC77E00E9495266D2DC7010E9406
:101D5000192966E00E94DA260FB6F8940F92E091F6
:101D6000EA03F091EB03D0840F900FBE6BE0F80113
:101D7000868197810E94DA267C016EEB77E00E94D3
:101D800095266D2DC7010E94192966E00E94DA266A
:101D90000FB6F8940F92E091E803F091E903C08444
:101DA000D184E284F3840F900FBE6BE0D8011696C5
:101DB0008D919C9117970E94DA265C016DEA77E07D
:101DC0000E949526B701A601C5010E94652866E01C
:101DD0000E94DA2666E0F801868197810E94DA2661
:101DE0006BE00E94DA267C0162E977E00E9495268A
:101DF00066E0C7010E94DA2666E00E94DA2638CE45
:101E000066E0D80116968D919C9117970E94DA266C
:101E10006BE00E94DA267C016DEA78E00E9495264C
:101E2000D701ED91FC910280F381E02D62E7C701BB
:101E3000099566E0C7010E94DA26F801168EC801EE
:101E40000E946108D8015D96DC905D9766E0169669
:101E50008D919C9117970E94DA2666E00E94DA26FF
:101E60006BE00E94DA267C0168E578E00E94952606
:101E70006D2DC7010E9419296BE00E94DA267C01B2
:101E80006DE778E00E94952666E0C7010E94DA2699
:101E90006BE00E94DA267C0166E878E00E949526D5
:101EA00066E0C7010E94DA2657CE66E016968D914D
:101EB0009C9117970E94DA266BE00E94DA267C013B
:101EC0006AEB78E00E949526D701ED91FC910280A3
:101ED000F381E02D61E7C701099566E0C7010E9423
:101EE000DA2661E0C8010E94D222F801168EC0CD28
:101EF000C8012F830E940F0AC8010E94060BD80157
:101F000052968C9152972F81813709F490C4F80131
:101F1000C388D488C6010197029708F447C46BE0D0
:101F2000F801868197812F830E94DA267C0166E47E
:101F30007BE00E94952666E0C7010E94DA262F8189
:101F4000D80155962C9394CD0FB6F8940F920F901C
:101F50000FBEE091F203F091F30380859185A28595
:101F6000B38580359644A105B1050CF03CC021E055
:101F700044E150E061E0C8010E94750C0FB6F8948E
:101F80000F92E091F203F091F303C084D184E284D4
:101F9000F3840F900FBE6BE0D80116968D919C9143
:101FA00017970E94DA265C0162ED79E00E9495267F
:101FB000B701A601C5010E94652866E00E94DA26E5
:101FC0000FB6F8940F920F900FBEE091F203F091CC
:101FD000F30380859185A285B38580359644A1055C
:101FE000B1050CF4C4CF20E040E050E061E0C8014E
:101FF0000E94750C61E0C8010E94D22239CD6BE0CD
:10200000D80116968D919C9117970E94DA267C0133
:1020100069E37BE00E949526D701ED91FC91028057
:10202000F381E02D63E7C701099566E0C7010E94CF
:10203000DA2666E0F801868197810E94DA266BE055
:102040000E94DA267C0161EF7AE00E94952666E024
:10205000C7010E94DA266BE00E94DA267C0166E165
:102060007BE00E94952666E0C7010E94DA26C8013F
:102070000E94060BD80153964D915C91549721E034
:102080005D966C91C8010E94750CF801C388D488D4
:1020900066E0868197810E94DA2666E00E94DA2651
:1020A0006BE00E94DA267C016FED7AE00E949526B3
:1020B000B601C7010E9436286BE00E94DA267C0137
:1020C0006EEE7AE00E94952666E0C7010E94DA264D
:1020D000D8015E961C92C8010E946108F801D58C57
:1020E00066E0868197810E94DA266BE00E94DA26FC
:1020F0007C0169EA7AE00E9495266D2DC7010E9455
:1021000019296BE00E94DA267C0169EB7AE00E94D3
:1021100095266BE0C7010E94DA267C0166EC7AE026
:10212000C7010E94952666E0C7010E94DA26A0CC6E
:10213000233009F000C16BE0D80116968D919C9177
:1021400017970E94DA268C016AE07CE00E949526AF
:1021500066E0C8010E94DA262BE088E190E00FB625
:10216000F894A895809360000FBE20936000FFCF85
:10217000283609F0E0C0C8010E946F0A79CC2D36DC
:1021800009F43FC0ACF32E3639F0233709F0D3C041
:10219000C8010E94DD0B6CCC6BE0F8018681978151
:1021A0000E94DA267C0169E27CE00E94952666E0C6
:1021B000C7010E94DA26C8010E94060BD801539677
:1021C000CD90DC90549766E016968D919C91179770
:1021D0000E94DA2666E00E94DA266BE00E94DA2688
:1021E0007C0168E17CE00E949526B601C7010E944F
:1021F000362866E00E94DA26F8018289813761F686
:1022000037CC6BE0F801868197810E94DA267C0149
:102210006CE17DE00E949526D701ED91FC91028052
:10222000F381E02D6DE6C701099566E0F80186812E
:1022300097810E94DA2666E00E94DA266BE00E940F
:10224000DA267C0163EC7CE00E94952666E0C701FB
:102250000E94DA266BE00E94DA267C0162EE7CE0C6
:102260000E94952666E0C7010E94DA266BE00E9474
:10227000DA267C0164E07DE00E94952666E0C701D5
:102280000E94DA26D8015E961C925E9781E05596F0
:102290008C9361E0C8010E94D222EACB6BE0F80186
:1022A000868197810E94DA267C0166EB7CE00E94A1
:1022B0009526D701ED91FC910280F381E02D65E632
:1022C000C701099566E0F801868197810E94DA26A8
:1022D00066E00E94DA266BE00E94DA267C016AE55D
:1022E0007CE00E94952666E0C7010E94DA266BE03A
:1022F0000E94DA267C016BE77CE00E94952666E06E
:10230000C7010E94DA266BE00E94DA267C016DE9A3
:102310007CE00E94952666E0C7010E94DA26D8017B
:102320005E961C925E9781E056968C9363E0C8019E
:102330000E94D2229DCBF801E680F780D701ED9173
:10234000FC910280F381E02D62E2C7012F830995A1
:10235000D701ED91FC910280F381E02D2F81622F56
:10236000C70109956BE0C7010E94DA267C0162E093
:102370007CE0D6CECE0101960E94C625BC01F801B4
:10238000868197810E94652566E00E94DA2670CBDF
:102390006BE0F801868197810E94DA267C0161E179
:1023A00078E00E949526D701ED91FC910280F3819F
:1023B000E02D61E7C701099566E0C7010E94DA26B2
:1023C00066E00E94DA2666E00E94DA266BE00E9450
:1023D000DA267C016EE178E00E94952666E0C7016E
:1023E0000E94DA266BE00E94DA267C0161E478E044
:1023F0000E94952666E0C7010E94DA2660E0C801C7
:102400000E94D22281E0F801858B168A168E30CB8D
:10241000D8015E961C92C8010E94EE0729CB6BE0A2
:10242000D80116968D919C9117970E94DA267C010F
:1024300065E27AE00E949526D701ED91FC91028039
:10244000F381E02D66E6C701099566E0C7010E94A9
:10245000DA266BE0F801868197810E94DA267C01FA
:1024600060E17AE00E94952666E0C7010E94DA26C4
:102470000FB6F8940F920F900FBEE091F403F09115
:10248000F50322E040E050E06085C8010E94750C31
:10249000D8015E961C92C8010E946108F801D58C93
:1024A00066E0868197810E94DA266BE00E94DA2638
:1024B0007C016AED79E00E9495266D2DC7010E948E
:1024C00019296BE00E94DA267C016AEE79E00E940D
:1024D00095266BE0C7010E94DA267C0167EF79E060
:1024E0001FCE6BE0D80116968D919C9117970E9494
:1024F000DA267C016CE97AE00E949526D701ED91FD
:10250000FC910280F381E02D62E6C701099566E047
:10251000C7010E94DA266BE0F801868197810E944C
:10252000DA267C016AE77AE00E94952666E0C70118
:102530000E94DA26C8010E94060BD8015396CD905E
:10254000DC90549766E016968D919C9117970E94A7
:10255000DA2666E00E94DA266BE00E94DA267C0129
:1025600068E67AE00E949526B601C7010E943628E7
:102570006BE00E94DA267C0167E77AE00E949526EC
:1025800066E0C7010E94DA26F8014389548920E0F9
:10259000658DC8010E94750CD8015E961C92C80119
:1025A0000E946108F801D58C66E0868197810E94BF
:1025B000DA266BE00E94DA267C0162E37AE00E9470
:1025C00095266D2DC7010E9419296BE00E94DA261D
:1025D0007C0162E47AE00E9495266BE0C7010E94CC
:1025E000DA267C016FE47AE09BCD66E0D80116968E
:1025F0008D919C9117970E94DA266BE00E94DA2653
:102600007C0164EE78E00E949526D701ED91FC9163
:102610000280F381E02D6D2DC70109956BE0C701A4
:102620000E94DA267C0166EE78E00E94952666E03C
:10263000C7010E94DA26F801D58C66E08681978171
:102640000E94DA266BE00E94DA267C0167EC78E0D3
:102650000E9495266D2DC7010E9419296BE00E94EA
:10266000DA267C0167ED78E05BCD6BE0F8018681CE
:1026700097810E94DA267C016EEF78E00E94952611
:10268000D701ED91FC910280F381E02D61E7C70154
:10269000099566E0C7010E94DA266BE00E94DA26FF
:1026A0007C016BE079E00E94952666E0C7010E94FC
:1026B000DA2661E0C8010E94D222F801168E81E07C
:1026C000858BD6C966E0D80116968D919C91179797
:1026D0000E94DA266BE00E94DA267C016FE979E03D
:1026E0000E949526D701ED91FC910280F381E02DA7
:1026F00060E7C701099566E0C7010E94DA266BE032
:102700000E94DA267C016CEA79E00E94952666E058
:10271000C7010E94DA266BE0F801868197810E944A
:10272000DA267C0163E879E00E94952666E0C7011D
:102730000E94DA2666E00E94DA26D8015D96DC90D7
:102740005D9766E016968D919C9117970E94DA2608
:1027500066E00E94DA266BE00E94DA267C016EE2D7
:1027600079E00E9495266D2DC7010E9419296BE022
:102770000E94DA267C0163E579E00E94952666E0F6
:10278000C7010E94DA266BE00E94DA267C016CE524
:1027900079E00E94952666E0C7010E94DA2662E091
:1027A000C8010E94D222F801168E62C966E0F801C3
:1027B000868197810E94DA2666E00E94DA266BE025
:1027C0000E94DA267C0162E57BE00E949526B60134
:1027D000C7010E94362862E00E94DA266BE00E9460
:1027E000DA267C0164E77BE00E94952666E0C7015B
:1027F0000E94DA266BE00E94DA267C0166E77BE025
:102800000E94952666E0C7010E94DA26D8015396F9
:102810008C9153975D968C935D975E961C925E9714
:1028200055961C9261E0C8010E94D22221C96BE03A
:1028300016968D919C9117970E94DA267C0169EA81
:102840007BE00E949526D701ED91FC910280F381F7
:10285000E02D61E7C701099566E0C7010E94DA260D
:1028600066E00E94DA2666E00E94DA266BE00E94AB
:10287000DA267C0166EB7BE00E94952666E0C701C4
:102880000E94DA266BE00E94DA267C0169ED7BE08B
:102890000E94952666E0C7010E94DA266BE00E943E
:1028A000DA267C016FEE7BE00E94952666E0C70188
:1028B0000E94DA26F801158A60E0C8010E94D2223F
:1028C000D8015E961C92D4C8CF93DF9300D000D07D
:1028D000CDB7DEB78C010E94C61C69837A838B83D7
:1028E0009C8380918000816A809380008091810028
:1028F0008A608093810040E8E42EF12C15C0F80135
:1029000046855785608971894F5F5F4F6F4F7F4F55
:1029100046875787608B718B4AE050E060E070E03B
:10292000CE0101960E94661E0FB6F8940F92E091B8
:10293000F603F091F70320850F900FBE0FB6F894C1
:102940000F920F900FBEE091F403F091F503D801C0
:1029500052969C9180859813D2CF213009F44AC0B9
:102960002223A9F1223009F456C0233009F0C7CF41
:1029700061E0D80155968D919C9156970E94611502
:1029800097FD5DC0959587959595879580389105BC
:102990000CF447C08038910509F4B1CF6701C81A1B
:1029A000D90ACC0CDD1CB601D80153968D919C91AF
:1029B00054970E941C160FB6F8940F92E091F803FA
:1029C000F091F903D186C0860F900FBE98CF0FB655
:1029D000F8940F920F900FBEE091F803F091F90375
:1029E00060857185D80153968D919C9154970E9472
:1029F000971685CF0FB6F8940F920F900FBEE09107
:102A0000F803F091F90360857185F8018389948951
:102A10000E941C1674CFF801838994890E94EB16DA
:102A20006ECF919581959109880F991F6C01BFEF29
:102A3000CB0ED11CB601F80183899489BACF0396D5
:102A4000A1CFAF92CF92DF92EF92FF920F931F939D
:102A5000CF93DF93EC010E941C2289EF92E09983CF
:102A60008883FC8AEB8ADE8ACD8AAA8ADF91CF919D
:102A70001F910F91FF90EF90DF90CF90AF9008954E
:102A8000CF93DF93FC017183608320917C002064ED
:102A900020937C0020917A00256C20937A00C081DD
:102AA000D181209759F06DEF72E0CE010E949526FA
:102AB00066E0CE01DF91CF910C94DA26DF91CF91C1
:102AC0000895683008F060E080917C00887F8093F2
:102AD0007C0080917C00862B80937C0080917A0022
:102AE000806480937A0080917A0086FDFCCF80918B
:102AF00078002091790090E0922B0895DF92EF9278
:102B0000FF920F931F93CF93DF938C01D62EE42E69
:102B100080E48417E0F480E4E82EF12CC0E0D0E0FB
:102B20006D2DC8010E946115C80FD91FF394FE10C6
:102B3000F7CF6E2D70E0CE010E940635CB01DF91FC
:102B4000CF911F910F91FF90EF90DF900895411169
:102B5000E4CFC0E0D0E0EDCF0F931F93CF93DF938E
:102B6000EC016BE00E94DA268C0169E27DE00E94B4
:102B7000952666E0C8010E94DA266BE00E94DA26FC
:102B80008C0164E47DE00E94952666E0C8010E9405
:102B9000DA26CE01DF91CF911F910F9108956F92A8
:102BA0007F928F92AF92CF92EF92FF920F931F93EB
:102BB000CF93DF93CDB7DEB7FC013B018E857183E8
:102BC0006083558344833187208715870487F38A80
:102BD000E28AC686A786808A818B41505109538339
:102BE000428321503109378326830150110913870D
:102BF000028761157105A1F06CE173E0C3010E94C9
:102C0000952666E0C301DF91CF911F910F91FF9050
:102C1000EF90CF90AF908F907F906F900C94DA26CA
:102C2000DF91CF911F910F91FF90EF90CF90AF90D8
:102C30008F907F906F900895CF93FC01A281B38114
:102C4000CC9181E090E0AC01068402C0440F551F96
:102C50000A94E2F79C01078402C0220F331F0A94F2
:102C6000E2F7242B2C2B2C93A681B7814C919C014D
:102C7000008802C0220F331F0A94E2F72095242314
:102C80002C93A285B3854C919C01018802C0220F30
:102C9000331F0A94E2F7422B4C93A085B1854C91E7
:102CA0009C01008802C0220F331F0A94E2F7422BD6
:102CB0004C93A481B5814C919C0177FD1BC0068487
:102CC00002C0220F331F0A94E2F7422B4C93A481D7
:102CD000B5812C91078402C0880F991F0A94E2F7EE
:102CE000809582238C930288F389E02D7183608321
:102CF000CF910895078402C0220F331F0A94E2F790
:102D0000422B4C93A481B5812C91068402C0880F7C
:102D1000991F0A94E2F7809582238C930288F389A5
:102D2000E02D71956195710971836083E1CFFC019C
:102D3000A281B3816C9181E090E0AC01068402C075
:102D4000440F551F0A94E2F79C01078402C0220F2A
:102D5000331F0A94E2F7242B262B2C93A681B781EC
:102D60004C919C01008802C0220F331F0A94E2F7A5
:102D7000209524232C93A285B3854C919C01018836
:102D800002C0220F331F0A94E2F7422B4C93A08516
:102D9000B1854C919C01008802C0220F331F0A9418
:102DA000E2F7422B4C93A481B5814C919C0106849F
:102DB00002C0220F331F0A94E2F7422B4C93A481E6
:102DC000B5812C91078402C0880F991F0A94E2F7FD
:102DD000282B2C930895FC01A281B3816C9181E092
:102DE00090E0AC01068402C0440F551F0A94E2F73C
:102DF0009C01078402C0220F331F0A94E2F7242BA0
:102E0000262B2C93A681B7814C919C01008802C08F
:102E1000220F331F0A94E2F7209524232C93A285D6
:102E2000B3854C919C01018802C0220F331F0A9484
:102E3000E2F7422B4C93A085B1854C919C01008810
:102E400002C0220F331F0A94E2F7422B4C93A48155
:102E5000B5814C919C01068402C0220F331F0A9455
:102E6000E2F7209524232C93A481B5812C9107842B
:102E700002C0880F991F0A94E2F7809582238C93F1
:102E80000895EF92FF920F931F93CF93DF93EC017E
:102E9000DB015296ED91FC915397E080F1806BE05D
:102EA0000E94DA268C0163E57DE00E949526B70139
:102EB000C8010E94972866E00E94DA26CE01DF91C1
:102EC000CF911F910F91FF90EF9008956F927F9295
:102ED0008F92AF92CF92DF92EF92FF920F931F9358
:102EE000CF93DF93CDB7DEB73C01FA019F85888988
:102EF0007894D3011F967C936E931E9713965C93E0
:102F00004E93129715963C932E93149717961C93F5
:102F10000E9316971896EC9218971996CC921997CB
:102F20001A96AC921A971B968C921B971C969C93A0
:102F30001C971D968C931D97208181E090E0AC0139
:102F400002C0440F551FEA94E2F7BC0102C0660FAD
:102F5000771FCA94E2F76B01C42AC22AC08240815B
:102F600018962C912F5FDC0102C0AA0FBB1F2A9577
:102F7000E2F75A2F5095D30119962C9119972F5F8C
:102F8000BC0102C0660F771F2A95E2F7562B452336
:102F900040831496ED91FC9115976081AC011A96CF
:102FA0000C901A9702C0440F551F0A94E2F79C0137
:102FB0001B960C901B9702C0220F331F0A94E2F756
:102FC000242B262B20831696ED91FC911797608178
:102FD000AC011D960C901D9702C0440F551F0A941A
:102FE000E2F79C011C960C901C9702C0220F331F25
:102FF0000A94E2F724232095262320831696ED9148
:10300000FC9117979F012F5F3F4F11963C932E9392
:1030100041819C011C960C901C9702C0220F331F0B
:103020000A94E2F71D960C901D9702C0880F991F15
:103030000A94E2F7822B842B81831E960D911C91BA
:103040001F970115110531F161E473E0C8010E9479
:10305000952666E0C8010E94DA26D3011E960D91DE
:103060001C911F9701151105A9F068E673E0C801CE
:103070000E94952666E0C801DF91CF911F910F91C4
:10308000FF90EF90DF90CF90AF908F907F906F90F8
:103090000C94DA26DF91CF911F910F91FF90EF9062
:1030A000DF90CF90AF908F907F906F9008951F9298
:1030B0000F920FB60F9211240BB60F922F933F93DE
:1030C0008F939F93AF93BF93CF93DF93EF93FF9330
:1030D000E091EC03F091ED0330859CB196FB9927CC
:1030E00090F98CB1881F8827881F292F220F280F5D
:1030F000C091F203D091F303891799F188859985DE
:10310000AA85BB850196A11DB11D88879987AA87CD
:10311000BB872230C1F1213091F02087FF91EF91E0
:10312000DF91CF91BF91AF919F918F913F912F915F
:103130000F900BBE0F900FBE0F901F90189533305D
:1031400061F3C091EE03D091EF0388859985AA853C
:10315000BB850196A11DB11D88879987AA87BB876A
:10316000DCCF88859985AA85BB850197A109B1091E
:1031700088879987AA87BB87222341F0233069F685
:103180003130F9F6CACF332341F2DBCF3230C9F602
:10319000C4CF1F920F920FB60F9211240BB60F924D
:1031A0002F933F938F939F93AF93BF93CF93DF93CF
:1031B000EF93FF93E091EC03F091ED0330859CB128
:1031C00096FB992790F98CB1881F8827881F292F93
:1031D000220F280FC091F203D091F303891799F1C0
:1031E00088859985AA85BB850197A109B10988873A
:1031F0009987AA87BB872130C1F1223091F02087BF
:10320000FF91EF91DF91CF91BF91AF919F918F91FE
:103210003F912F910F900BBE0F900FBE0F901F90FC
:103220001895333061F3C091EE03D091EF03888598
:103230009985AA85BB850196A11DB11D88879987AF
:10324000AA87BB87DCCF88859985AA85BB8501962F
:10325000A11DB11D88879987AA87BB87233041F0BC
:103260002111CDCF3130F9F6CACF332341F2DBCF74
:103270003230C9F6C4CF0F931F93CF93DF93EC0185
:103280006BE00E94DA268C0168E67DE00E949526BC
:1032900066E0C8010E94DA26CE01DF91CF911F912E
:1032A0000F910895CF93DF9300D000D0CDB7DEB754
:1032B0008C010E94C61C69837A838B839C830FB622
:1032C000F8940F920F900FBE0FB6F8940F922091C2
:1032D000F0033091F103A091F203B091F30318963B
:1032E0008D919D910D90BC91A02DF801428953893B
:1032F00064897589841B950BA60BB70BF901808730
:103300009187A287B3870F900FBE0FB6F8940F92E4
:10331000E091F203F091F30380859185A285B38556
:103320000F900FBEF801828B938BA48BB58B4685D3
:103330005785608971894F5F5F4F6F4F7F4F468719
:103340005787608B718B41E050E060E070E0CE0108
:1033500001960E94661EB3CFEF92FF920F931F93C8
:10336000CF93DF93EC010E941C228CE893E09983B9
:103370008883FB8EEA8E0FB6F8940F92E091F203E9
:10338000F091F30340855185628573850F900FBEE0
:103390004A8B5B8B6C8B7D8BDF91CF911F910F9153
:1033A000FF90EF9008950F931F93CF93DF93EC015D
:1033B0000E94C01C8091FC03811121C086E094E032
:1033C0009093020480930104109204041092030469
:1033D00087E397E1909300048093FF031092FE032C
:1033E0001092FD0390930904809308048DEF93E0FD
:1033F000909307048093060481E08093FC03209758
:1034000009F460C0AE014C5F5F4F2396C633D741CD
:1034100008F058C0E0910104F0910204A1E0B4E08A
:1034200006C080819181009739F0DF01FC01228183
:10343000338124173507A8F3C3E0ED3FFC0709F4F7
:1034400041C00D911C9111970C5F1F4F808191819C
:103450008D939C93C901841B950B8930910500F1D4
:10346000BF01640F751FDB0113969C938E93129717
:103470005383428312968D919C911397A1E0B4E0FF
:1034800001C0DF01ED91FC91119722813381281752
:103490003907B8F3EB01F983E8836D937C939A01C4
:1034A0008091000290910102821B930B9093010284
:1034B000809300020E94F31DC801DF91CF911F91FC
:1034C0000F91089500E010E00E94F31DC801DF9104
:1034D000CF911F910F910895CF93DF93009721F122
:1034E000EC0124970E94C01C4A815B81A1E0B4E0FA
:1034F00001C0DF01ED91FC911197228133812417E6
:103500003507B8F3F983E883CD93DC93809100020B
:1035100090910102840F951F909301028093000205
:10352000DF91CF910C94F31DDF91CF91089580919D
:10353000000290910102089508958091721B8230DB
:1035400018F00E94972CF9CFFFCFCF92DF92EF9225
:10355000FF926B017C01E0913D1BF0913E1B628369
:103560007383848395838091461B9091471BA09120
:10357000481BB091491B60913D1B70913E1BC816C2
:10358000D906EA06FB0610F180915A1B90915B1B4D
:103590006E5F7F4F0E945E2B80910202909103022A
:1035A000A0910402B0910502C816D906EA06FB06EE
:1035B00040F4C0920202D0920302E0920402F09220
:1035C0000502FF90EF90DF90CF9008958091581BF7
:1035D0009091591B6E5F7F4FFF90EF90DF90CF90DF
:1035E0000C945E2B5F926F927F928F929F92AF921C
:1035F000BF92CF92DF92EF92FF920F931F93CF93E0
:10360000DF934C01162F572E5A01390189E290E0C1
:103610000E94D319EC01009709F4E9C0C114D10448
:1036200009F4DAC0DC8ECB8EC601A50165EA70E034
:103630000E94AA3721E0A21AB108CB8CDC8CCA0CFC
:10364000DB1CAE01435E5F4FE12FF52D2AE0CF0179
:103650003191DA013D93AD01DC018C91882311F0A9
:103660002150A9F71EA2102F043008F07DC01A8F38
:103670001FA318A65E01B2E0AB0EB11CC5010E94EB
:10368000392BCE010E960E94392BDB87CA8784E046
:1036900090E0A0E0B0E0811B9109A109B1098E87FB
:1036A0009F87A88BB98BDF8BCE8BA301B401C6019A
:1036B0000E94C72B99838883E114F10419F0F70164
:1036C000D183C0830FB6F8940F9280914A1B8F5F0D
:1036D00080934A1B80913D1B90913E1B892B09F4DE
:1036E00049C08091441B81110BC0E0913D1BF091BA
:1036F0003E1B828D081720F0D0933E1BC0933D1BCC
:103700008091401B8F5F8093401B8A8D9091451B59
:10371000981738F1FBE08F9FC0011124B5018E5836
:10372000944E0E943D2B0F900FBE8091441B882326
:1037300039F0E0913D1BF0913E1B828D8017B0F077
:1037400081E0DF91CF911F910F91FF90EF90DF907B
:10375000CF90BF90AF909F908F907F906F905F9031
:1037600008958093451BD6CF13E081CF0E94972CFC
:1037700081E0E7CFD0933E1BC0933D1B80914A1B55
:10378000813009F0BDCF82E79BE10E94282B8DE7B5
:103790009BE10E94282B88E89BE10E94282B83E96B
:1037A0009BE10E94282B87E69BE10E94282B8CE559
:1037B0009BE10E94282B8DE49BE10E94282B87E649
:1037C0009BE190935B1B80935A1B8CE59BE190934C
:1037D000591B8093581B94CFC5010E94D3199C8F0D
:1037E0008B8F009709F021CFCE010E946C1A8FEFCA
:1037F000A8CF0FB6F8940F92009729F00F900FBE44
:10380000FC01828D089580913D1B90913E1B0F908D
:103810000FBEFC01828D0895EF92FF921F93CF930C
:10382000DF93EC01262F643008F023E00FB6F89404
:103830000F92209709F44AC03FA13217A9F1809155
:103840003D1B90913E1B3217B8F5C817D90741F0C0
:10385000E0913D1BF0913E1B11E0828D281708F48A
:1038600010E08A8D381769F12FA34E855F8568892E
:10387000798977FD0CC044E050E060E070E0421BC5
:103880005109610971094E875F87688B798B2BE03D
:10389000829FC00111248E58944E2C853D85281797
:1038A0003907C9F0113079F00F900FBEDF91CF9139
:1038B0001F91FF90EF90089511E0C817D90781F686
:1038C000D0CF2A8FD1CF0E94972CEECFC0913D1B35
:1038D000D0913E1BB1CF7E0182E0E80EF11CC70102
:1038E0000E949B2B8A8D9091451B981710F4809312
:1038F000451B2BE0829FC0011124B7018E58944EC6
:103900000E943D2BCFCFAF92BF92CF92DF92EF922A
:10391000FF920F93A12CB12CC12CD12C8BE4E82E5B
:103920008BE1F82E00E020E030E044E650E060E972
:1039300073E08DE99AE10E94F21A813041F00F9113
:10394000FF90EF90DF90CF90BF90AF900895F894E4
:103950008093441B1092461B1092471B1092481BE9
:103960001092491B0F91FF90EF90DF90CF90BF9086
:10397000AF900C945B2CF8941092441B0C94962CF2
:1039800080913F1B8F5F80933F1B08950FB6F89483
:103990000F926091461B7091471B8091481B90913C
:1039A000491B0F900FBE08956091461B7091471BF5
:1039B0008091481B9091491B089580914A1B08955E
:1039C000009711F04D96089580913D1B90913E1BFC
:1039D0004D96089580914B1B90914C1B0895AF928A
:1039E000BF92CF92DF92EF92FF920F931F93CF93EC
:1039F000DF9380913F1B8111CFC08091461B909136
:103A0000471BA091481BB091491B0196A11DB11DF8
:103A10008093461B9093471BA093481BB093491B70
:103A2000C090461BD090471BE090481BF090491B6C
:103A3000C114D104E104F10439F580915A1B90912D
:103A40005B1B2091581B3091591B30935B1B2093BB
:103A50005A1B9093591B8093581B8091411B8F5F79
:103A60008093411BE0915A1BF0915B1B8081811177
:103A70009AC08FEF9FEFDC018093020290930302C4
:103A8000A0930402B0930502809102029091030278
:103A9000A0910402B0910502B12CC816D906EA061D
:103AA000FB0608F457C09BE0A92EE0915A1BF09149
:103AB0005B1B8081882309F442C0E0915A1BF0917E
:103AC0005B1B0780F085E02DC085D1854A815B8135
:103AD0006C817D81C416D506E606F70608F47AC027
:103AE0008E010E5F1F4FC8010E949B2B888D998D00
:103AF000892B21F0CE010E960E949B2B8A8D9091EE
:103B0000451B981710F48093451BA89EC0011124F3
:103B1000B8018E58944E0E943D2BE0913D1BF091D0
:103B20003E1B9A8D828D981708F4BFCFBB24B394A7
:103B3000E0915A1BF0915B1B80818111BECF4FEF4A
:103B40005FEFBA01409302025093030260930402B4
:103B500070930502E0913D1BF0913E1BE28D8BE0DE
:103B6000E89FF0011124EE58F44E8081823010F06D
:103B7000BB24B3948091421B882311F0BB24B394DF
:103B80008B2DDF91CF911F910F91FF90EF90DF90E0
:103B9000CF90BF90AF9008958091431B8F5F80932B
:103BA000431BB12CE7CFE0915A1BF0915B1B0780C0
:103BB000F085E02D0084F185E02D82819381A48140
:103BC000B5818093020290930302A0930402B09304
:103BD00005025ACF409302025093030260930402FD
:103BE00070930502B7CFEF92FF920F931F93CF937D
:103BF000DF930FB6F8940F9280913F1B8150809312
:103C00003F1B80913F1B811150C080914A1B88232C
:103C100009F44BC02BE0F22EEE24E39427C0E09190
:103C2000541BF091551BC085D185CE010E960E9484
:103C30009B2B8E010E5F1F4FC8010E949B2B8A8D0C
:103C40009091451B981710F48093451BF89EC00176
:103C50001124B8018E58944E0E943D2BE0913D1BDB
:103C6000F0913E1B9A8D828D981748F580914D1BDF
:103C70008111D5CF8091431B882399F08091431BFC
:103C8000882379F0C1E00E94EF1C8111C093421B90
:103C90008091431B81508093431B8091431B811172
:103CA000F2CF8091421B813069F080E00F900FBE0F
:103CB000DF91CF911F910F91FF90EF900895E092C7
:103CC000421BD4CF0E94972C81E0F0CFCF92DF929D
:103CD000EF92FF920F931F93CF93DF9300D000D00A
:103CE000CDB7DEB720913F1B2F5F20933F1BC090C5
:103CF000461BD090471BE090481BF090491BFC01ED
:103D00000081118122813381400F511F621F731F77
:103D1000C016D106E206F306E8F440175107620721
:103D20007307E8F0FC0140835183628373830E9430
:103D3000F31D811102C00E94972C0F900F900F90DD
:103D40000F90DF91CF911F910F91FF90EF90DF9037
:103D5000CF900895401751076207730728F0C416E3
:103D6000D506E606F706F0F6FC0140835183628330
:103D7000738380913D1B90913E1B029649835A8329
:103D80006B837C830E949B2B49815A816B817C8150
:103D9000CB01BA010E94A51ACACFCF92DF92EF924F
:103DA000FF92611571058105910539F40E94972CE8
:103DB000FF90EF90DF90CF90089520913F1B2F5FF1
:103DC00020933F1BC090461BD090471BE090481BA0
:103DD000F090491BC60ED71EE81EF91E80913D1BB0
:103DE00090913E1B02960E949B2BC701B6010E9438
:103DF000A51A0E94F31D8823C9F2FF90EF90DF906F
:103E0000CF90089580913F1B81113BC01092421BBF
:103E1000E091451B8BE0E89FF0011124EE58F44E31
:103E20008081811110C09BE08091451B815080935F
:103E3000451BE091451B9E9FF0011124EE58F44E66
:103E40008081882389F3E091451B8BE0E89FF00196
:103E50001124EE58F44EA181B28114960D90BC91BC
:103E6000A02DB283A183CF010396A817B90769F0EB
:103E700018968D919C91199790933E1B80933D1BB2
:103E8000089581E08093421B089514969C911497A5
:103E900015968C9191838283A92FB82FE9CFCF9269
:103EA000DF92EF92FF926A017B0160913D1B70915E
:103EB0003E1B625F7F4F0E945E2B80913D1B909165
:103EC0003E1B02960E949B2B6091461B7091471BE4
:103ED0008091481B9091491B6C0D7D1D8E1D9F1D6F
:103EE000FF90EF90DF90CF900C94A51ACF92DF92C5
:103EF000EF92FF920F931F9368017901E0913D1BB0
:103F0000F0913E1B706846875787608B718B60917C
:103F10003D1B70913E1B625F7F4F0E943D2B809145
:103F20003D1B90913E1B02960E949B2B6091461B6D
:103F30007091471B8091481B9091491B6C0D7D1D12
:103F40008E1D9F1D1F910F91FF90EF90DF90CF90DE
:103F50000C94A51A0F931F93CF93DF93DC01179650
:103F6000ED91FC911897C085D1858E01025F1F4F9E
:103F7000C8010E949B2B80913F1B811124C08E01A0
:103F80000E5F1F4FC8010E949B2B8A8D9091451B8D
:103F90009817F8F0BBE08B9FC0011124B8018E5830
:103FA000944E0E943D2BE0913D1BF0913E1B9A8D5B
:103FB000828D891788F481E08093421BDF91CF9135
:103FC0001F910F910895B8018DE49BE10E943D2B54
:103FD000EACF8093451BDECF80E0DF91CF911F9128
:103FE0000F9108950F931F93CF93DF937068FC0197
:103FF0004083518362837383C085D1850E949B2B4C
:104000008E010E5F1F4FC8010E949B2B8A8D9091DD
:10401000451B981710F48093451BFBE08F9FC00150
:104020001124B8018E58944E0E943D2BE0913D1B07
:10403000F0913E1B9A8D828D891740F481E0809328
:10404000421BDF91CF911F910F91089580E0DF9186
:10405000CF911F910F9108952091411BFC01208366
:104060004091461B5091471B6091481B7091491B22
:10407000418352836383748308958F929F92AF929A
:10408000BF92CF92DF92EF92FF920F931F93FC01AA
:10409000DB010FB6F8940F924091461B5091471BDD
:1040A0006091481B7091491B8091411B9081018157
:1040B000128123813481981729F040175107620734
:1040C000730770F5CD90DD90ED90FC9013974A0149
:1040D0005B01801A910AA20AB30A8C149D04AE04F3
:1040E000BF04F0F4C41AD50AE60AF70AC00ED11EBE
:1040F000E21EF31ECD92DD92ED92FC921397809119
:10410000411B80838091461B9091471BA091481BC7
:10411000B091491B81839283A383B48380E001C063
:1041200081E00F900FBE1F910F91FF90EF90DF90F5
:10413000CF90BF90AF909F908F90089581E0809333
:10414000421B0895009799F0DC015B96ED91FC917C
:104150005C978081853A81F4319680E090E0DC01C3
:104160000196A11DB11D2191253AD1F308958091A9
:104170003D1B90913E1BE8CF80E0089580913D1B50
:1041800090913E1B08950F931F93CF93DF93EC0103
:10419000009781F18A8DE0913D1BF0913E1B928D3D
:1041A000891740F54E855F856889798977FD11C04B
:1041B000E0913D1BF0913E1B928D44E050E060E0A9
:1041C00070E0491B5109610971094E875F87688B4F
:1041D000798B2BE0829FC00111248E58944E2C8540
:1041E0003D852817390759F0E0913D1BF0913E1BA2
:1041F000828D8A8FDF91CF911F910F9108958E014B
:104200000E5F1F4FC8010E949B2BE0913D1BF09158
:104210003E1B828D8A8F9091451B981710F48093D6
:10422000451B2BE0829FC0011124B8018E58944E8B
:10423000DF91CF911F910F910C943D2B0F931F9302
:10424000CF93DF93EC01009749F088A5815088A7B0
:104250002A8D9FA1291711F0882331F080E0DF918A
:10426000CF911F910F9108958E010E5F1F4FC801CE
:104270000E949B2B8FA18A8F44E050E060E070E0A9
:10428000481B5109610971094E875F87688B798BDB
:104290009091451B981710F48093451B2BE0829F4B
:1042A000C0011124B8018E58944E0E943D2B81E02C
:1042B000DF91CF911F910F910895CF92DF92EF92EE
:1042C000FF92E0913D1BF0913E1B668577858089CA
:1042D0009189E0913D1BF0913E1BA0913D1BB09157
:1042E0003E1B5A962C9134E0C32ED12CE12CF12C9C
:1042F000C21AD108E108F108C686D786E08AF18A99
:10430000FF90EF90DF90CF90089580913D1B9091AA
:104310003E1B892B39F0E0913D1BF0913E1B80A59F
:104320008F5F80A780913D1B90913E1B0895EF9277
:10433000FF920F931F93CF93DF9300D0CDB7DEB7DB
:104340007C0189E993E0F701918380836115710510
:10435000C1F0FB0101900020E9F73197E61BED3039
:1043600020F50E2F10E0C801019669837A830E9420
:104370006526F70195838483A80169817A810E946B
:10438000B13780919E1B90919F1BF7019783868385
:10439000F0929F1BE0929E1B0F900F90DF91CF91A8
:1043A0001F910F91FF90EF900895ECE0DACF0F93FB
:1043B0001F93CF93DF93EC0180919E1B90919F1BE5
:1043C0006BE0892B49F1CE010E94DA268C0161EC69
:1043D0007DE00E94952666E0C8010E94DA266BE027
:1043E000CE010E94DA268C016EE97DE00E949526BE
:1043F00066E0C8010E94DA2680919E1B90919F1B67
:10440000DC01ED91FC910190F081E02DBE01DF9186
:10441000CF911F910F910994CE010E94DA26EC01F1
:1044200060E87DE00E94952666E0CE01DF91CF91A5
:104430001F910F910C94DA264F925F926F927F92A8
:104440008F929F92AF92BF92CF92DF92EF92FF92A4
:104450000F931F93CF93DF93EC013B014901280198
:10446000FC018FE993E081939193A12CB12CC12C95
:10447000D12C7F01042F9E01A40189EA94E30E94BC
:10448000F21A5F824E82998688862091A01B309115
:10449000A11B3D832C83D093A11BC093A01B1C8622
:1044A0001D868090AE1B9090AF1B9FEF891A990AD2
:1044B0009092AF1B8092AE1B9B868A861E861F86BB
:1044C000188A198A4114510409F44CC06BE08130F8
:1044D00041F1C2010E94DA26EC0164EE7DE00E9407
:1044E0009526B301CE010E949526E881F9810280CC
:1044F000F381E02D62E2CE01099566E0CE01DF9105
:10450000CF911F910F91FF90EF90DF90CF90BF90D0
:10451000AF909F908F907F906F905F904F900C9492
:10452000DA26C2010E94DA26EC016AEF7DE00E94E1
:104530009526B301CE010E9495266BE0CE010E9424
:10454000DA26EC0161E07EE00E94952663E0CE0170
:104550000E94DA26B4010E94972862E00E94DA26BF
:1045600066E0CDCFDF91CF911F910F91FF90EF903B
:10457000DF90CF90BF90AF909F908F907F906F9083
:104580005F904F900895EC01E881F9810190F081EE
:10459000E02D09951B821A826FEF7FEFCB010E94FD
:1045A000CD1EFACFFC01648765870895FC01C681A2
:1045B000D781209739F0CE010E94952666E0CE0182
:1045C0000E94DA262BE088E190E00FB6F894A895D7
:1045D000809360000FBE20936000FFCF0E94C61C36
:1045E0000E94D83520E030E04AE754E40E9470355C
:1045F0000895CF92DF92EF92FF920F931F93CF9384
:10460000DF93EC017B018A819B810E94E01C6C019D
:104610006BE0C7010E94DA268C0168E17EE00E940F
:104620009526B601C8010E94952666E0C8010E9441
:10463000DA268A859B8528853985A701BC01821BDE
:10464000930B0E94DE250C80DD81C02D2097D9F6CA
:10465000DF91CF911F910F91FF90EF90DF90CF905E
:1046600008950F931F93CF93DF93EC018091A01BCC
:104670009091A11B009719F0BE010E94F9226BE0F6
:10468000CE010E94DA268C016FE17EE00E94952621
:1046900066E0C8010E94DA268091AE1B9091AF1BA4
:1046A000BC016F5F7F4FAE0183569109DF91CF91BF
:1046B0001F910F910C94DE258F929F92AF92BF9223
:1046C000CF92DF92EF92FF920F931F93CF93DF93DE
:1046D000EC018B018A819B810E94E01CBC01C80116
:1046E0000E949526D801ED91FC910280F381E02D86
:1046F00069E0C80109958A819B810E94E01CFC0148
:1047000001900020E9F73197E81BF90B389748F43E
:10471000D801ED91FC910280F381E02D69E0C801A0
:104720000995CE84DF84E888F988A884B9848A81D1
:104730009B810E94A220982E8C848A819B810E945A
:10474000F91B682FC8010E9419296BE00E94DA2624
:10475000EC0163E97EE00E949526682DCE010E945F
:1047600019296BE00E94DA26EC0165E97EE00E94DF
:104770009526692DCE010E9419296BE00E94DA2648
:10478000EC0167E97EE00E949526B501CE010E940A
:1047900097286BE00E94DA26EC0169E97EE00E942E
:1047A00095266BE0CE010E94DA26EC016BE97EE0F3
:1047B0000E949526B701A601CE01DF91CF911F91EE
:1047C0000F91FF90EF90DF90CF90BF90AF909F90B0
:1047D0008F900C94D1280F931F93CF93DF93EC010C
:1047E0008B01E881F9810280F381E02DB801CE01CF
:1047F000099566E0C8010E94DA260C80DD81C02D93
:10480000209779F7DF91CF911F910F910895CF9362
:10481000DF93EC01CB01DB01ED91FC910280F38190
:10482000E02DBE010995CE01DF91CF9108950F9340
:104830001F93CF93DF93EC016BE00E94DA268C018B
:1048400061E87EE00E9495266BE0C8010E94DA26AE
:104850008C016CE87EE00E94952666E0C8010E940B
:10486000DA266BE0CE010E94DA268C016EE57EE04E
:104870000E9495266BE0C8010E94DA268C016FE643
:104880007EE00E9495266BE0C8010E94DA268C012A
:104890006BE77EE00E94952666E0C8010E94DA265A
:1048A0006BE0CE010E94DA268C016BE37EE00E9471
:1048B00095266BE0C8010E94DA268C016CE47EE04C
:1048C0000E9495266BE0C8010E94DA268C0168E5FB
:1048D0007EE00E94952666E0C8010E94DA2680915B
:1048E000A01B9091A11B009719F0BE010E94EB2321
:1048F0000E94EA1C0E94A220182F6BE0CE010E94A9
:10490000DA26EC016AE27EE00E949526612FCE0154
:104910000E9419296BE00E94DA26EC0165E37EE033
:104920000E94952664E670E0CE010E9497286BE015
:104930000E94DA26EC0167E37EE00E94952666E09D
:10494000CE01DF91CF911F910F910C94DA26CF9277
:10495000DF92EF92FF920F931F93CF93DF937C012F
:104960008B01DC011A966D917C911B97C8010E9406
:104970009526F701A285B385FD0101900020E9F796
:104980003197DE2EDA1AFFE0FD1580F0C0E0D0E0AE
:10499000D801ED91FC910280F381E02D60E2C80125
:1049A000099521968C2F8D0D803190F363EA73E089
:1049B000C8010E949526D7015696CD90DC90579756
:1049C0001E968D919C911F970E94F030682FC80110
:1049D0000E941929EC01E881F9810280F381E02D20
:1049E0006FE20995B601CE010E949728DC01ED9196
:1049F000FC910280F381E02D69E0099566E0C80131
:104A00000E94DA26F70184859585009781F0DC0104
:104A1000ED91FC910190F081E02DB801DF91CF91F3
:104A20001F910F91FF90EF90DF90CF900994DF914D
:104A3000CF911F910F91FF90EF90DF90CF9008954D
:104A40006F927F928F929F92AF92BF92CF92DF929E
:104A5000EF92FF920F931F93CF93DF93EC01762E8B
:104A6000672E4A015901670178010E948A26B40124
:104A7000CE0106960E9497218EEA93E0998388835F
:104A800020EC33E03F832E83BD8AAC8A40E061E0B6
:104A9000872D0E94612E9F878E87C88AD98AEA8ACD
:104AA000FB8A7E8A6F8ADF91CF911F910F91FF90D1
:104AB000EF90DF90CF90BF90AF909F908F907F90BE
:104AC0006F90089506970C94A724CF92DF92EF92EF
:104AD000FF920F931F93CF93DF93CDB7DEB72F973E
:104AE0000FB6F894DEBF0FBECDBF8C017B01DB019A
:104AF0006D917D918D919C9128EE33E040E050E0E6
:104B00000E941A35BA01A901C8010E94D128D80112
:104B1000ED91FC910280F381E02D6EE2C8010995D0
:104B2000C7010E9419316E01B9E0CB0ED11C7E0184
:104B3000EFE0EE0EF11C2AE030E040E050E00E9491
:104B40003C35E62F29833A834B835C8369817A81E4
:104B50008B819C81E05DD701EE937D01AC15BD0595
:104B600051F71F86BD01C8010E949526C8012F96E6
:104B70000FB6F894DEBF0FBECDBFDF91CF911F916E
:104B80000F91FF90EF90DF90CF900895CF93DF9338
:104B9000EC010FB6F8940F928091240190912501B9
:104BA0009D838C830E94C61C688379838A839B8340
:104BB0000F900FBECE01DF91CF9108958F929F92FB
:104BC000AF92BF92CF92DF92EF92FF920F931F931B
:104BD000CF93DF936C014B01EA0163E0CA010E94AD
:104BE000DA26C814D90408F059C0560184E1A80E89
:104BF000B11C7501B601CE010E9497286BE00E949E
:104C0000DA266DE97EE00E9495268601F801619121
:104C10008F01CE010E941929E881F9810280F38178
:104C2000E02D60E2CE0109950E151F0579F7E881A8
:104C3000F9810280F381E02D60E2CE0109950FC079
:104C400080EE860FE881F9810280F381E02D8F35B7
:104C500008F06EE2CE010995CE14DF0481F0F60172
:104C600061916F01653A61F7E881F9810280F38112
:104C7000E02D60E2CE010995CE14DF0481F76501D5
:104C800066E0CE010E94DA26F4E1EF0EF11CA814D2
:104C9000B90420F4C50144965C01ACCF62E0CE01BA
:104CA000DF91CF911F910F91FF90EF90DF90CF9008
:104CB000BF90AF909F908F900C94DA260C94D319EC
:104CC000009711F00C946C1A08950C94D319009766
:104CD00011F00C946C1A0895FC0181E090E02081A1
:104CE000222311F080E090E0089521E0FC01208370
:104CF00008950895089581E0089580E0089580E082
:104D000008950895DC01ED91FC910280F381E02D7E
:104D10006CE00994FC0186EC93E0918380838AE047
:104D2000828383E08583148208950F931F93CF932A
:104D3000DF93EC01FB018C81811117C06081662338
:104D400079F08F010F5F1F4FE881F9810280F381B5
:104D5000E02DCE010995F80161918F016111F4CF29
:104D6000DF91CF911F910F9108951C828B010F5FEE
:104D70001F4F64916623A1F3A881B9811296ED912A
:104D8000FC911397CE010995F80164910F5F1F4FB5
:104D90006111F2CFE5CF883008F087E080930702F9
:104DA00089E008959EEF980F9F3010F480930602DB
:104DB0008AE00895CF93DF93EC01462F50E04C300A
:104DC000510538F4FA01E758FF4F0C945B3582E047
:104DD0008A83CE01DF91CF91089581E08C83F9CF52
:104DE00088E08A83F6CF8AE08A83F3CF80E18A83E2
:104DF000F0CFE881F9810280F381E02D6DE0099523
:104E0000E881F9810280F381E02D6AE0CE01099505
:104E1000E0CFE881F9810284F385E02D0995D9CFAF
:104E2000E881F9810084F185E02D0995D2CF809148
:104E300007028D83CECF809106028A83CACFBF92AC
:104E4000CF92DF92EF92FF920F931F93CF93DF9356
:104E5000CDB7DEB764970FB6F894DEBF0FBECDBFF7
:104E60007C01CB01BA01D70115961C9100E1212FDD
:104E7000AE014F5F5F4F0E94C9366C01898183FD8F
:104E800068C080FD35C0D701ED91FC910280F381AF
:104E9000E02D6A81C7010995111134C0D701ED9148
:104EA000FC910280F381E02D65E4C70109951C1493
:104EB0001D044CF4D701ED91FC910280F381E02DAB
:104EC0006BE2C7010995B601C7010E943628C701E8
:104ED00064960FB6F894DEBF0FBECDBFDF91CF91C1
:104EE0001F910F91FF90EF90DF90CF90BF900895AA
:104EF000D701ED91FC910280F381E02D6DE2C701B5
:104F00000995C1CFD701ED91FC910280F381E02D8D
:104F10006EE2C70109956B81662309F4BFCF8EEF5E
:104F2000B82EB10E8E010C5F1F4FD701ED91FC9191
:104F30000280F381E02DC7010995BFEFBB1609F48C
:104F4000ADCFF80161918F01BA94662309F4A6CF21
:104F5000ECCF64ED73E0C7010E949526B8CFBF92F5
:104F6000CF92DF92EF92FF920F931F93CF93DF9335
:104F7000CDB7DEB764970FB6F894DEBF0FBECDBFD6
:104F80007C01CB01BA01D7011596BC9000E12B2D15
:104F9000AE014F5F5F4F0E94C9368C01898183FD4E
:104FA0005FC080FD49C0D701ED91FC910280F38183
:104FB000E02D6A81C7010995B11048C06B816E016F
:104FC000B4E0CB0ED11CD701ED91FC910280F381AE
:104FD000E02DC7010995BA9429F0F60161916F019E
:104FE0006111F1CFD701ED91FC910280F381E02DA9
:104FF00065E6C7010995101611064CF4D701ED912D
:10500000FC910280F381E02D6BE2C7010995B801A4
:10501000C7010E943628C70164960FB6F894DEBF18
:105020000FBECDBFDF91CF911F910F91FF90EF90F9
:10503000DF90CF90BF900895D701ED91FC91028051
:10504000F381E02D6DE2C7010995ADCFD701ED9158
:10505000FC910280F381E02D6EE2C7010995AECF8D
:1050600062ED73E0C7010E949526D5CF0F931F9381
:10507000CF93DF93CDB7DEB761970FB6F894DEBF5D
:105080000FBECDBF8C01CB01F80122812A3079F00F
:10509000C8010E949728C80161960FB6F894DEBF38
:1050A0000FBECDBFDF91CF911F910F9108954AE0C0
:1050B00050E0BE016F5F7F4F0E94C037BE016F5F3F
:1050C0007F4FC8010E949526E6CF0F931F93CF9381
:1050D000DF93CDB7DEB7A2970FB6F894DEBF0FBE51
:1050E000CDBF8C01CB01BA01F80122812A3089F0B1
:1050F000AB01BC01C8010E94D128C801A2960FB61D
:10510000F894DEBF0FBECDBFDF91CF911F910F91FD
:1051100008952AE030E0AE014F5F5F4F0E94E13713
:10512000BE016F5F7F4FC8010E949526E6CFFF92B8
:105130000F931F93CF93DF93CDB7DEB761970FB671
:10514000F894DEBF0FBECDBF8C01F62E972FF8016D
:105150004281403191F0483081F0423071F050E0AE
:10516000BE016F5F7F4F8F2D0E943A38BE016F5F87
:105170007F4FC8010E94952607C0692FC8010E9471
:1051800019296F2D0E941929C80161960FB6F8944C
:10519000DEBF0FBECDBFDF91CF911F910F91FF906A
:1051A0000895DF92EF92FF920F931F93CF93DF93B7
:1051B000CDB7DEB7A1970FB6F894DEBF0FBECDBF57
:1051C0008C01D42EE52EF62E972FF8012281203166
:1051D000A1F0283091F0223081F030E0AE014F5F35
:1051E0005F4F6D2D7E2D8F2D0E941538BE016F5F94
:1051F0007F4FC8010E9495260DC0692FC8010E94EB
:1052000019296F2D0E9419296E2D0E9419296D2DC3
:105210000E941929C801A1960FB6F894DEBF0FBEEF
:10522000CDBFDF91CF911F910F91FF90EF90DF9055
:105230000895CF92DF92EF92FF920F931F93CF9337
:10524000DF93CDB7DEB729970FB6F894DEBF0FBE58
:10525000CDBF8C01D62EDC0113968C911397811152
:105260005DC0F80142814230D9F14031F1F050E0A7
:10527000BE016F5F7F4F8D2D90E00E943A38BE01D6
:105280006F5F7F4FC8010E949526C80129960FB60F
:10529000F894DEBF0FBECDBFDF91CF911F910F916C
:1052A000FF90EF90DF90CF90089562956F7001901E
:1052B000F081E02D0280F381E02D6A30B8F5605D69
:1052C000C80109956D2D6F70D801ED91FC91028098
:1052D000F381E02D6A3060F1695CC8010995D5CF92
:1052E00088E0E82EF12C90E8C92E0AC061E3C801DD
:1052F0000995C694B1E0EB1AF108E114F10429F222
:105300008C2D8D21D801ED91FC910280F381E02D4F
:105310008111ECCF60E3C8010995EBCFED91FC91D1
:105320000280F381E02DC8010995AFCF695CC8CF39
:10533000605DD3CFDC011896ED91FC9119978081C7
:105340001C969C911C97892359F421E23EE405C0E8
:10535000215031092115310571F080818923C1F374
:1053600080811E969C911E97892B80831696ED91C5
:10537000FC91179760830895FC01878581111DC0FA
:105380002091AA1B3091AB1B8091A81B9091A91B67
:105390002817390789F0E091AC1BF091AD1BE20FA3
:1053A000F31F80812F5F3F4F2032310518F110929B
:1053B000AB1B1092AA1B0895FFCF2091A41B309124
:1053C000A51B8091A21B9091A31B2817390789F078
:1053D000E091A61BF091A71BE20FF31F80812F5FC6
:1053E0003F4F2032310558F01092A51B1092A41B9C
:1053F0000895FFCF3093AB1B2093AA1B08953093E1
:10540000A51B2093A41B0895DC01ED91FC91028063
:10541000F381E02D6CE00994FC018785882369F015
:1054200081E04091A41B5091A51B2091A21B3091BB
:10543000A31B4217530769F0089581E04091AA1B0E
:105440005091AB1B2091A81B3091A91B4217530709
:1054500099F780E00895EF92FF921F93CF93DF9327
:1054600000D0CDB7DEB77C01142F69837A830E9408
:105470008A26412F69817A81C70106960E94573199
:105480008CED93E0F7019183808317871123E9F076
:105490008091C90080688093C90080E290E00E94FA
:1054A00065269093A71B8093A61B1092A51B1092B4
:1054B000A41B1092A31B1092A21B0F900F90DF91C0
:1054C000CF911F91FF90EF9008958091C100806867
:1054D0008093C10080E290E00E9465269093AD1B0E
:1054E0008093AC1B1092AB1B1092AA1B1092A91BAD
:1054F0001092A81B0F900F90DF91CF911F91FF90FA
:10550000EF9008951F920F920FB60F9211240BB6D1
:105510000F922F933F938F939F93EF93FF9320913D
:10552000C600E091AC1BF091AD1B8091A81B90913F
:10553000A91BE80FF91F20838091A81B9091A91B3C
:10554000019680329105C0F49093A91B8093A81B0B
:105550002091AA1B3091AB1B28173907D1F0FF917E
:10556000EF919F918F913F912F910F900BBE0F90D4
:105570000FBE0F901F9018951092A91B1092A81B98
:1055800080E090E02091AA1B3091AB1B28173907CF
:1055900031F701969093AB1B8093AA1B8097F8F28A
:1055A0001092AB1B1092AA1BDACF1F920F920FB66C
:1055B0000F9211240BB60F922F933F938F939F93CB
:1055C000EF93FF932091CE00E091A61BF091A71BD3
:1055D0008091A21B9091A31BE80FF91F208380915B
:1055E000A21B9091A31B019680329105C0F4909369
:1055F000A31B8093A21B2091A41B3091A51B2817ED
:105600003907D1F0FF91EF919F918F913F912F91A9
:105610000F900BBE0F900FBE0F901F901895109219
:10562000A31B1092A21B80E090E02091A41B30915C
:10563000A51B2817390731F701969093A51B809376
:10564000A41B8097F8F21092A51B1092A41BDACF2E
:10565000FC010396928381834FEF5FEFBA0143838E
:1056600054836583768390878783928781871082AE
:105670000895FC01138612860895CF93DF939C0151
:10568000FB01DC011196CD91DC911297D583C48387
:105690008E819F81978386838E819F81DC01159601
:1056A0007C936E9314977F836E8333872287F901EF
:1056B00080818F5F8083DF91CF9108950F931F9337
:1056C000CF93DF93EB01088119812A813B810F3F42
:1056D0004FEF14072407340731F1DC01139601C0A2
:1056E000DF011496ED91FC91159740815181628103
:1056F0007381041715072607370790F7FD83EC839E
:10570000D783C683BF83AE831596DC93CE9314975D
:105710009B878A87FC0120812F5F2083DF91CF91B7
:105720001F910F910895FC01A185B2851496ED910A
:10573000FC911597E3CFCF93DF93FC01A285B3854E
:105740002481358186819781E9019F838E838681BB
:105750009781EC013D832C8311962D913C911297FA
:105760002E173F0741F0138612868C9181508C933F
:10577000DF91CF91089512969C938E931197138683
:1057800012868C9181508C93DF91CF9108959093E4
:10579000AF1B8093AE1B31E1FC013083319722E2D5
:1057A0002083FC013297A3E3A083FC01339760833D
:1057B000FC0134977083FC0135971082FC01369709
:1057C00060E86083FC0137971082FC01389762E043
:1057D0006083FC01399763E06083FC013A9764E0E1
:1057E0006083FC013B9765E06083FC013C9766E0C9
:1057F0006083FC013D9767E06083FC013E9768E0B1
:105800006083FC013F9769E06083FC01709760E171
:105810006083FC0171973083FC01729732E1308321
:10582000FC01739733E13083FC01749734E13083DA
:10583000FC01759735E13083FC01769736E13083C2
:10584000FC01779737E13083FC01789738E13083AA
:10585000FC01799739E13083FC017A9730E230839B
:10586000FC017B9731E23083FC017C972083FC01B3
:105870007D9723E22083FC017E974083FC017F9784
:105880005083FC01B09726E22083FC01B19727E208
:105890002083FC01B29728E22083FC01B39729E220
:1058A0002083FC01B49720E32083FC01B59721E31A
:1058B00020838697089587E0809329018FEC809359
:1058C00028018AE080932101E3E7F0E08081826093
:1058D0008083A0913D1BB0913E1BCD91CDBFDD914A
:1058E000DEBFFF91EF91DF91CF91BF91AF919F917B
:1058F0008F917F916F915F914F913F912F911F9168
:105900000F91FF90EF90DF90CF90BF90AF909F905E
:105910008F907F906F905F904F903F902F901F904F
:105920000F900FBE0F90089581E0089508950F9293
:105930000FB6F8940F921F9211242F923F924F921C
:105940005F926F927F928F929F92AF92BF92CF920F
:10595000DF92EF92FF920F931F932F933F934F93FA
:105960005F936F937F938F939F93AF93BF93CF93E7
:10597000DF93EF93FF93A0913D1BB0913E1B0DB6BB
:105980000D920EB60D920E94021FA0913D1BB09188
:105990003E1BCD91CDBFDD91DEBFFF91EF91DF9139
:1059A000CF91BF91AF919F918F917F916F915F91B7
:1059B0004F913F912F911F910F91FF90EF90DF90AA
:1059C000CF90BF90AF909F908F907F906F905F909F
:1059D0004F903F902F901F900F900FBE0F90089503
:1059E0000F920FB6F8940F921F9211242F923F92AC
:1059F0004F925F926F927F928F929F92AF92BF92DF
:105A0000CF92DF92EF92FF920F931F932F933F93CA
:105A10004F935F936F937F938F939F93AF93BF93B6
:105A2000CF93DF93EF93FF93A0913D1BB0913E1B6B
:105A30000DB60D920EB60D920E94EF1C81110E94C0
:105A4000021FA0913D1BB0913E1BCD91CDBFDD91BA
:105A5000DEBFFF91EF91DF91CF91BF91AF919F9109
:105A60008F917F916F915F914F913F912F911F91F6
:105A70000F91FF90EF90DF90CF90BF90AF909F90ED
:105A80008F907F906F905F904F903F902F901F90DE
:105A90000F900FBE0F9008950E94F02C18951F9341
:105AA000CF93DF93EC01142F88A181110DC0888161
:105AB0009981892B09F44DC080E09E8D9F5F9E8F58
:105AC000DF91CF911F910895482F50E011111CC014
:105AD0008C819D810E94A13728A18C819D81820F9C
