:100000000C9461050C9480050C9480050C9480057B
:100010000C9480050C9480050C9480050C9480054C
:100020000C9480050C9480050C9480050C9480053C
:100030000C9480050C9480050C9480050C9480052C
:100040000C9480050C9480050C9480050C9480051C
:100050000C9480050C9480050C9480050C9480050C
:100060000C9480050C940B220C9480050C94800554
:100070000C9480050C9480050C9480050C948005EC
:100080000C9480050C9480050C9480050C948005DC
:100090000C945E220C9480050C9480050C948005D1
:1000A0000C9480050C9480050C9480050C948005BC
:1000B0000C9480050C9480050C9480050C94D52438
:1000C0000C9480050C9480050C9480057D1F861F80
:1000D000891F8C1F7F1F7F1F8F1F9F1FA61FAD1F94
:1000E000B11F831F4D45343035204C6162203220D2
:1000F0004D6F746F7220436F6E74726F6C6C6572AB
:100100002050726F6772616D004D45343035204C60
:1001100061622032204D6F746F722044726976657F
:100120007220496E74657266616365004170722069
:10013000323320323031360053797374656D207458
:10014000696D653A20002C20486561703A20002CCA
:10015000204F435235413A20003C696E76616C690C
:10016000642063686172202200223E002020683AE9
:10017000202020202048414C502100202043746C36
:100180002D433A205265736574207468652041568A
:10019000520020206E3A2020202020456E74657287
:1001A0002061206E756D626572202864656D6F290F
:1001B000002020643A2020202020537461636B20AB
:1001C00064756D7020666F72207461736B730020AC
:1001D00020733A202020202056657273696F6E20AC
:1001E000616E6420736574757020696E666F726DE0
:1001F0006174696F6E002020743A20202020205303
:10020000686F77207468652074696D65207269670E
:100210006874206E6F77004D45343035204C616234
:100220002032204D6F746F7220447269766572209F
:10023000496E74657266616365002068656C700064
:100240002D2D2D2D2D2D2D09092D2D2D2D2D2D2D26
:100250002D092D2D2D2D2D2D2D09092D2D2D2D2D3A
:100260002D2D2D2D2D2D004D6F746F72203209090B
:1002700000090900090900004D6F746F72090953E4
:1002800074617475730909506F776572090944695F
:1002900072656374696F6E002D2D2D2D2D2D2D0926
:1002A000092D2D2D2D2D2D2D2D092D2D2D2D2D2DC6
:1002B0002D09092D2D2D2D2D2D2D2D2D2D2D004DC3
:1002C0006F746F7220310909000909000909007C67
:1002D000090920277127202020202052657475727B
:1002E0006E20746F2070726576696F7573206D650E
:1002F0006E752009097C007C0909202770272020C1
:10030000202020456E74657220506F74656E74698C
:100310006F6D65746572204D6F646509097C007CA2
:10032000090920276627202020202046726565774E
:100330006865656C206D6F746F722020202020200E
:1003400020202009097C007C090920276227202021
:100350002020204170706C7920746865206D6F7466
:100360006F72206272616B6520202009097C007C1D
:10037000090920277327202020202053657420742A
:100380006865206D6F746F7220706F7765722020C2
:1003900020202009097C007C2D2D2D2D2D2D2D2D8B
:1003A0002D2D2D2D2D2D2D2D2D2D2D2D2D2D2D2D7D
:1003B0002D2D2D2D2D2D2D2D2D2D2D2D2D2D2D2D6D
:1003C0002D2D2D2D2D2D2D2D2D2D2D2D2D2D2D2D5D
:1003D0002D2D2D2D2D2D2D7C007C09092020205325
:1003E000696E676C65204D6F746F7220436F6E7419
:1003F000726F6C204D6F64756C6520202009097C3C
:10040000007C0909202020204D61696E204D6F7409
:100410006F7220436F6E74726F6C204D6F64756CD9
:10042000652020202009097C007C2D2D2D2D2D2DCF
:100430002D2D2D2D2D2D2D2D2D2D2D2D2D2D2D2DEC
:100440002D2D2D2D2D2D2D2D2D2D2D2D2D2D2D2DDC
:100450002D2D2D2D2D2D2D2D2D2D2D2D2D2D2D2DCC
:100460002D2D2D2D2D2D2D2D2D7C007C09092027A6
:1004700031272020202020746F206F7065726174F6
:1004800065204D6F746F72203120202020202009BC
:10049000097C007C09092027322720202020207495
:1004A0006F206F706572617465204D6F746F72207C
:1004B0003220202020202009097C007C09092027E7
:1004C0007127202020202052657475726E20746F71
:1004D000204D61696E204D656E7520202020200919
:1004E000097C007C0909202020204D697373696F05
:1004F0006E20436F6E74726F6C2050726F67726102
:100500006D2076312E302020202009097C007C2DA2
:100510002D2D2D2D2D2D2D2D2D2D2D2D2D2D2D2D0B
:100520002D2D2D2D2D2D2D2D2D2D2D2D2D2D2D2DFB
:100530002D2D2D2D2D2D2D2D2D2D2D2D2D2D2D2DEB
:100540002D2D2D2D2D2D2D2D2D2D2D2D2D2D7C00B9
:100550007C090920276D272020202020456E746506
:1005600072204D6F746F7220436F6E74726F6C20C7
:100570004D6F64756C652009097C007C0909202792
:1005800043746C2D43272052657365742041565285
:10059000202020202020202020202020202020205B
:1005A000202009097C00496C6C6567616C207374BC
:1005B0006174652120526573657474696E672041AA
:1005C0005652004D32002D3E53656C656374656470
:1005D0003A20002D3E53656C65637465643A2000D3
:1005E0002D3E43686F6F7365204D6F746F722000EE
:1005F000206F7065726174696F6E3A200027002762
:10060000206973206E6F7420612076616C696420AC
:10061000656E7472792E002D3E53656C656374654A
:10062000643A20002052657475726E696E6720749A
:100630006F204D61696E204D6F746F72204D6F6435
:10064000756C652E2E2000092D3E506F74656E74FA
:10065000696F6D6574657220416374697661746554
:10066000642E00092D3E5072657373202771272078
:10067000746F2072657475726E20746F2074686573
:10068000204D6F746F72200020436F6E74726F6C18
:1006900000092D3E50726573732027722720746FF6
:1006A00020726566726573682074686520446173A2
:1006B00068426F61726420002D3E53656C656374FF
:1006C00065643A2000092D3E456E746572696E6757
:1006D00020506F74656E74696F6D65746572204328
:1006E0006F6E74726F6C2E2E2E20002D3E43686F3D
:1006F0006F7365204D6F746F722000206F7065728C
:100700006174696F6E3A2000092D3E52656C656117
:1007100073696E67204D6F746F722E2E002D3E53DD
:10072000656C65637465643A20002D3E43686F6FA5
:100730007365204D6F746F722000206F7065726159
:1007400074696F6E3A2000094272616B65207365AF
:100750007420617420002E2000092D3E456E7465C2
:100760007220746865204272616B6520466F726307
:10077000652830202D2032353529002D3E53656CFB
:1007800065637465643A20002D3E43686F6F73653E
:10079000204D6F746F722000206F706572617469F4
:1007A0006F6E3A200009506F776572207365742070
:1007B000617420002E2000456E7465722074686597
:1007C00020506F7765722056616C756520282D3238
:1007D000353520746F20323535293B0020202A4ED4
:1007E0006F74653A204E656761746976652056615D
:1007F0006C756573203D2052657665727365002DBA
:100800003E53656C65637465643A20002D3E536504
:100810006C65637465643A2000092D3E52657475F9
:10082000726E696E6720746F204D697373696F6EA5
:1008300020436F6E74726F6C2E2E2000092D3E5275
:10084000656C656173696E67204D6F746F72732E8E
:100850002E00092D3E537769746368696E672074B2
:100860006F20436F6E74726F6C206F66204D6F74D3
:100870006F7220002E00092D3E52657475726E2035
:10088000746F20746865204D61696E204D6F746FC0
:1008900072204D6F64756C6520746F207377617082
:1008A000204D6F746F72732E002D3E53656C65631F
:1008B0007465643A2000223A205754463F0052653E
:1008C00073657474696E672041565200456E746595
:1008D0007220646563696D616C206E756D65726907
:1008E00063206469676974732C207468656E205294
:1008F000455455524E206F722045534300092D3EFA
:10090000537769746368696E6720746F204D6F74E4
:100910006F72204D6F64756C652E2E00092D3E435D
:100920006C656172696E6720526567697374657280
:100930007320616E64204D656E75732E2E00092D37
:100940003E496E7469616C697A696E67204D6F7497
:100950006F72732E2E002D3E53656C656374656453
:100960003A200043757272656E74204368616E6E42
:10097000656C2052656164696E67733A2000456E4C
:1009800064205072696E742044617461004D6F740C
:100990006F722044726976657220496E7075743A80
:1009A00020004E6F20736861726564206461746119
:1009B000206974656D7320746F207072696E7400A5
:1009C0002D2D2D2D202020202020202020202020F3
:1009D0002D2D2D2D202020202D2D2D2D2D2D2D2D7B
:1009E0002D2D0053686172652F5175657565202046
:1009F0002020205479706520202020467265652FC4
:100A0000546F74616C004552524F5220637265619D
:100A100074696E67207461736B2022005461736B7C
:100A20002022002220637265617465642C20737437
:100A300061636B206174203078005461736B3A20DD
:100A4000005461736B3A2049444C450049444C457D
:100A5000090930092D09002F0009092D002D2D2D20
:100A60002D09092D2D2D2D092D2D2D2D2D00092D73
:100A70002D2D2D2D2D2D2D2D2D00092D2D2D2D0024
:100A80004E616D6509095072692E09537461746570
:100A90000009467265652F546F74616C00095275C8
:100AA0006E73005461736B090920200920000953FB
:100AB0007461636B00090009002F00090009002020
:100AC000200011241FBECFEFD1E2DEBFCDBF13E067
:100AD000A0E0B2E0E4EEFBE500E00BBF02C007904F
:100AE0000D92A635B107D9F71BE1A6E5B3E001C029
:100AF0001D92A231B107E1F70E94752A0C94F02DE6
:100B00000C940000AF92BF92CF92DF92EF92FF92CF
:100B10000F931F93CF93DF93EC010FB6F8940F92CE
:100B2000E0915A03F0915B03008511850F900FBE91
:100B30000FB6F8940F920F900FBE1A8F098F8D8DFC
:100B40008823A1F0813009F4DBC0823009F407C1A9
:100B5000833009F4E1C0B0E8AB2EB2E0BB2E17FF42
:100B60000BC0F6E8CF2EF2E0DF2E0EC02FE5A22E4E
:100B700022E0B22E17FDF5CF0115110509F4E5C0ED
:100B8000AEE8CA2EA2E0DA2E66E08E819F810E9436
:100B9000701F6BE08E819F810E94701F7C0167E750
:100BA00072E00E942B1F6BE0C7010E94701F7C0146
:100BB00068E772E00E942B1F66E0C7010E94701F69
:100BC0006BE00E94701F7C0168E972E00E942B1F9D
:100BD00066E0C7010E94701F6BE00E94701F7C01DD
:100BE0006FEB72E00E942B1FB501C7010E942B1F03
:100BF0006BE0C7010E94701F7C0169EC72E00E94EB
:100C00002B1FB801C7010E94B51F6BE00E94701F27
:100C10008C016CEC72E00E942B1FB601C8010E948F
:100C20002B1F66E0C8010E94701F8E8D811154C079
:100C3000EB8CFC8C7FE5A72E72E0B72EF7FC5BC037
:100C4000E114F10409F486C02EE8C22E22E0D22E6F
:100C50006BE08E819F810E94701F8C0160E472E0C6
:100C60000E942B1F66E0C8010E94701F6BE00E946B
:100C7000701F8C0167E672E00E942B1FB501C8014E
:100C80000E942B1F6BE0C8010E94701F8C0161E75E
:100C900072E00E942B1FB701C8010E94B51F6BE0D4
:100CA0000E94701F8C0164E772E00E942B1FB60146
:100CB000C8010E942B1F66E0C8010E94701F81E0DE
:100CC00088A3DF91CF911F910F91FF90EF90DF905C
:100CD000CF90BF90AF9008958130B9F0823009F481
:100CE00043C08330F1F0EB8CFC8C40E8A42E42E052
:100CF000B42EF7FEA5CF96E8C92E92E0D92EA8CF44
:100D000097E6A92E92E0B92E35CFEB8CFC8C67E6E6
:100D1000A62E62E0B62E92CF37E7A32E32E0B32E96
:100D200029CF0FB6F8940F92E0915A03F0915B032C
:100D3000908581850F900FBE9B8F8C8FE92EF82EAA
:100D400037E7A32E32E0B32E79CFE7E9CE2EE2E0EB
:100D5000DE2E1ACF87E9C82E82E0D82E79CF8FE613
:100D6000A82E82E0B82E06CFEB8CFC8C5FE6A52E79
:100D700052E0B52E63CF0F931F93CF93DF93EC0117
:100D80000E94B21A83EA92E09983888318A21F8A8C
:100D9000188E82E08D8F8E8F1A8E198E1C8E1B8E70
:100DA000DF91CF911F910F9108950F931F93CF93D0
:100DB000DF93EC0188A181113AC066E08E819F81AA
:100DC0000E94701F66E00E94701F6BE00E94701FFF
:100DD0008C0163EE74E00E942B1F66E0C8010E9444
:100DE000701F6BE00E94701F8C016EE075E00E9426
:100DF0002B1F66E0C8010E94701F6BE00E94701FED
:100E00008C0160E575E00E942B1F66E0C8010E941E
:100E1000701F6BE00E94701F8C016BE775E00E94F1
:100E20002B1F66E0C8010E94701F81E088A3DF913C
:100E3000CF911F910F9108950F931F93CF93DF933D
:100E4000EC0188A1811146C066E08E819F810E94DD
:100E5000701F66E00E94701F6BE00E94701F8C0183
:100E600061E074E00E942B1F66E0C8010E94701FC1
:100E70006BE00E94701F8C0169E274E00E942B1FDE
:100E800066E0C8010E94701F6BE00E94701F8C0119
:100E90006BE674E00E942B1F66E0C8010E94701F81
:100EA0006BE00E94701F8C0163E974E00E942B1FAD
:100EB00066E0C8010E94701F6BE00E94701F8C01E9
:100EC0006BEB74E00E942B1F66E0C8010E94701F4C
:100ED00081E088A3DF91CF911F910F9108950F9327
:100EE0001F93CF93DF93EC0188A1811169C066E065
:100EF0008E819F810E94701F6BE08E819F810E9476
:100F0000701F8C0169ED73E00E942B1F66E0C80121
:100F10000E94701F6BE08E819F810E94701F8C0168
:100F200067E973E00E942B1F66E0C8010E94701FF2
:100F30006BE08E819F810E94701F8C016FE673E0D1
:100F40000E942B1F66E0C8010E94701F6BE08E811B
:100F50009F810E94701F8C0167E473E00E942B1F29
:100F600066E0C8010E94701F6BE08E819F810E9425
:100F7000701F8C016FE173E00E942B1F66E0C801B7
:100F80000E94701F6BE08E819F810E94701F8C01F8
:100F900067EF72E00E942B1F66E0C8010E94701F7D
:100FA0006BE08E819F810E94701F8C016FEC72E05C
:100FB0000E942B1F66E0C8010E94701F81E088A379
:100FC000DF91CF911F910F910895FC0120A1211174
:100FD00002C00C94820508950F931F93CF93DF9363
:100FE000EC016BE08E819F810E94701F8C0167E194
:100FF00072E00E942B1F6BE0C8010E94701F8C01E1
:101000006AE372E00E942B1F66E0C8010E94701F15
:101010006BE08E819F810E94701F8C0166EF71E0F2
:101020000E942B1F66E0C8010E94701F6BE08E813A
:101030009F810E94701F8C016FEC71E00E942B1F3A
:1010400066E0C8010E94701F6BE08E819F810E9444
:10105000701F8C0161EB71E00E942B1F66E0C801DC
:101060000E94701F6BE08E819F810E94701F8C0117
:1010700062E971E00E942B1F66E0C8010E94701FA8
:101080006BE08E819F810E94701F8C016BE771E085
:101090000E942B1F66E0C8010E94701F6BE08E81CA
:1010A0009F810E94701FEC016CE671E00E942B1F73
:1010B00066E0CE01DF91CF911F910F910C94701FCC
:1010C000CF93DF93EC018E819F81DC01ED91FC9148
:1010D0000480F581E02D0995811104C080E0DF9145
:1010E000CF9108958E819F81DC01ED91FC91068066
:1010F000F781E02D09958A8B81E0DF91CF910895EA
:10110000AF92BF92CF92DF92EF92FF920F931F9315
:10111000CF93DF931F92CDB7DEB75C01DC0153960E
:101120001D921D921D921C925697F5018681978102
:10113000DC01ED91FC910480F581E02D0995882377
:10114000C9F1F50186819781DC01ED91FC91068062
:10115000F781E02D0995282FF501828B80ED820F14
:101160008A3008F451C02A3009F485C02D3009F4C2
:101170008AC02B3109F487C06BE08681978129836F
:101180000E94701F8C0169E571E00E942B1FD8013D
:10119000ED91FC910280F381E02D2981622FC8013D
:1011A00009956BE0C8010E94701F69E671E00E941A
:1011B0002B1FBBCF80915C0390915D03DC01ED910F
:1011C000FC910480F581E02D0995882309F4ADCFC9
:1011D000D5011696ED91FC9117970190F081E02DC5
:1011E0000281138180915C0390915D03DC01ED919C
:1011F000FC910680F781E02D0995682FF501868125
:101200009781F801099591CF86819781DC01ED9155
:10121000FC910280F381E02D622F0995F50102898E
:10122000112707FD109500531109222717FD20955E
:10123000322F4389548965897689440F551F661F6B
:10124000771F6A017B01CC0CDD1CEE1CFF1CCC0C53
:10125000DD1CEE1CFF1CC40ED51EE61EF71E0C0D79
:101260001D1D2E1D3F1DD50153960D931D932D93CE
:101270003C9356975ACF6BE972E0F50186819781CE
:101280000E942B1F52CF0F90DF91CF911F910F9192
:10129000FF90EF90DF90CF90BF90AF9008958F9226
:1012A0009F92AF92BF92CF92DF92EF92FF920F93F5
:1012B0001F93CF93DF9300D000D000D0CDB7DEB71F
:1012C0008C0119821A821B821C821E821D82C09090
:1012D0002801D09029010E942D135C01CE010196B6
:1012E0000E945C1E4C0166E0F801868197810E9495
:1012F000701F6BE00E94701F7C0169E071E00E942A
:101300002B1F6BE0C7010E94701F7C016CE271E033
:101310000E942B1F66E0C7010E94701F6BE00E94B5
:10132000701F7C0168E371E00E942B1FB401C701AC
:101330000E94FB1D6BE00E94701F7C0166E471E05F
:101340000E942B1FB501C7010E9420207C016DE97E
:1013500072E00E942B1F48E357E160E070E0C70194
:101360000E945A206BE00E94701F7C016FE471E0C4
:101370000E942B1FB601C7010E94202066E00E9438
:10138000701F66E00E94701FF801868197810E949D
:10139000AD1C66E0F801868197810E94701FF801FC
:1013A000868197810E946D1A26960FB6F894DEBF4B
:1013B0000FBECDBFDF91CF911F910F91FF90EF90A6
:1013C000DF90CF90BF90AF909F908F900895FC01D9
:1013D00010A208950F930FB6F8940F92E091560360
:1013E000F091570360870F900FBE0FB6F8940F92DD
:1013F000E0915803F091590300870F900FBE0FB68C
:10140000F8940F92E0915A03F0915B0331872087A3
:101410000F900FBE613081F0623011F00F9108958E
:10142000FC01068F348F238F0330C1F723E030E0B7
:10143000348F238F0F910895FC01058F328F218FF8
:10144000033061F723E030E0328F218FE7CFCF9375
:10145000DF9300D000D000D0CDB7DEB77C01198279
:101460001A821B821C821E821D82DC0153961D92F1
:101470001D921D921C92569712E0A0E8CA2ED12C04
:101480001EC0043009F400C108F4D3C0053009F0CF
:10149000B5C0D7011E964D915D916D917C9151978C
:1014A0004F5F5F4F6F4F7F4FF70146875787608BC6
:1014B000718B61E070E080E090E00E946317F701BB
:1014C0000485023009F479C0E0F6002309F40FC165
:1014D000013009F093C0F7018789811182C1808DA5
:1014E0008823B9F2C7010E946F07C7010E946008F4
:1014F000882379F2F7010289003709F4A6C30CF0BA
:1015000013C3023609F495C2063609F052C26BE0E5
:10151000F701868197810E94701F5C016DE177E081
:101520000E942B1FD501ED91FC910280F381E02DEB
:1015300066E6C501099566E0C5010E94701F6BE073
:10154000F701868197810E94701F5C0168E077E057
:101550000E942B1F66E0C5010E94701F0FB6F89411
:101560000F920F900FBEE0915603F091570302E0E7
:1015700020E030E0A9016085C7010E94EA09D70197
:101580005F960C915F9766E016968D919C911797E8
:101590000E94701F6BE00E94701F5C016BEE76E092
:1015A0000E942B1F602FC5010E94A2206BE00E94A9
:1015B000701F5C016BEF76E064C1C7010E94600898
:1015C000882351F0D70152968C915297813709F4B4
:1015D000E8C0823709F4C8C003E020E030E0A90188
:1015E000D7015F966C91C7010E94EA09F70180A1BB
:1015F00081114FCFC7010E9482054BCF6BE0F701ED
:10160000868197810E94701F7C0166EA75E00E94C6
:101610002B1F66E0C7010E94701F2BE088E190E05D
:101620000FB6F894A895809360000FBE20936000D9
:10163000FFCFC7010E946008882309F42ACF0FB6A4
:10164000F8940F92E0915603F091570381E0808760
:101650000F900FBE0FB6F8940F92E0915803F091DF
:10166000590380870F900FBE0FB6F8940F92E09148
:101670005A03F0915B03D186C0860F900FBE61E0E4
:10168000C7010E94681B05CF6BE0868197810E948D
:10169000701F5C0163EC75E00E942B1F66E0C501C2
:1016A0000E94701F0FB6F8940F92E0915603F091CC
:1016B000570310870F900FBE0FB6F8940F92E0916A
:1016C0005803F091590381E080870F900FBE0FB649
:1016D000F8940F92E0915A03F0915B03D186C08693
:1016E0000F900FBE62E0C7010E94681BD2CEC701F7
:1016F0000E94D506D70116968D919C911797DC0113
:10170000ED91FC910480F581E02D0995882309F481
:10171000C0CEF70186819781DC01ED91FC910680B6
:10172000F781E02D0995082FF701828B883609F49F
:1017300038C10CF411C18E3609F4FAC00CF4A9C0FA
:10174000833709F432C1843709F00EC1CE01019606
:101750000E945C1EBC01F701868197810E94FB1DDF
:1017600066E00E94701F95CE6BE0D70116968D91B2
:101770009C9117970E94701F5C0166EC75E00E94B7
:101780002B1FD501ED91FC910280F381E02D62E7E2
:10179000C501099566E0C5010E94701FF70110A2FE
:1017A0001BCF6BE016968D919C9117970E94701F2E
:1017B0005C0163ED75E00E942B1FD501ED91FC915A
:1017C0000280F381E02D61E7C501099566E0C5015E
:1017D0000E94701F61E0C7010E94681BF70110A200
:1017E00058CEC7010E941C07D70190961C92909773
:1017F00057961C92579758960C93C7010E948008E1
:10180000F70183889488A588B688D501C40101971B
:10181000A109B1090297A105B10508F4AAC281E79F
:10182000F701828B6BE0868197810E94701F5C01BB
:101830006CE078E00E942B1FD501ED91FC910280B5
:10184000F381E02D61E7C501099566E0C5010E94BD
:10185000701F66E00E94701F66E00E94701F6BE0C0
:101860000E94701F5C0169E178E00E942B1F66E016
:10187000C5010E94701F6BE00E94701F5C016CE349
:1018800078E0C5010E942B1F66E0C5010E94701F11
:1018900000CE8D3609F068C06BE0868197810E948A
:1018A000701F5C0166E579E00E942B1FD501ED9168
:1018B000FC910280F381E02D6DE6C501099566E09B
:1018C000F701868197810E94701F66E00E94701F59
:1018D0006BE00E94701F5C016DEF78E00E942B1F8F
:1018E00066E0C5010E94701F6BE00E94701F5C01E2
:1018F0006CE179E00E942B1F66E0C5010E94701F19
:101900006BE00E94701F5C016EE379E00E942B1F68
:1019100066E0C5010E94701FD70190961C929097B7
:1019200081E057968C9361E0C7010E94681BB1CD9E
:101930006BE0F701868197810E94701F5C016CEC5F
:1019400078E00E942B1F66E0C5010E94701F65E0D1
:10195000C7010E94681B9DCD8F3319F1843609F4AD
:1019600074C2833009F457C2F701A680B780D5014D
:10197000ED91FC910280F381E02D62E2C5010995B1
:10198000D501ED91FC910280F381E02D602FC5011E
:1019900009956BE0C5010E94701F5C0166EB78E061
:1019A00070CFC7010E94EC0774CDC7010E944F0998
:1019B00070CD66E0D70116968D919C9117970E9485
:1019C000701F6BE00E94701F5C016DEF75E00E945C
:1019D0002B1FD501ED91FC910280F381E02D602F4A
:1019E000C50109956BE0C5010E94701F5C016FEF96
:1019F00075E00E942B1F66E0C5010E94701FF70171
:101A0000078D66E0868197810E94701F6BE00E94BF
:101A1000701F5C0160EE75E00E942B1F602FC501F6
:101A20000E94A2206BE00E94701F5C0160EF75E0D5
:101A300028CF6BE0868197810E94701F5C016BE765
:101A400077E00E942B1FD501ED91FC910280F3817C
:101A5000E02D62E6C501099566E0C5010E94701F90
:101A60006BE0F701868197810E94701F5C0169E538
:101A700077E00E942B1F66E0C5010E94701FC7011E
:101A80000E948008D70153968D909D90AD90BC9098
:101A9000569766E016968D919C9117970E94701F3D
:101AA00066E00E94701F6BE00E94701F3C0167E4BB
:101AB00077E00E942B1FB501A401C3010E945A20A8
:101AC0006BE00E94701F5C0166E577E00E942B1FAF
:101AD00066E0C5010E94701FF7012389348945899A
:101AE000568900E0678DC7010E94EA09D7015F9619
:101AF0000C915F9766E016968D919C9117970E94C6
:101B0000701F6BE00E94701F5C016AE277E00E9428
:101B10002B1F602FC5010E94A2206BE00E94701F46
:101B20005C016AE377E0ADCE013709F4F4C0033716
:101B300009F03FCF6BE0868197810E94701F5C01A6
:101B40006FEF77E00E942B1FD501ED91FC91028091
:101B5000F381E02D63E7C501099566E0C5010E94A8
:101B6000701F66E0F701868197810E94701F6BE00D
:101B70000E94701F5C0167EB77E00E942B1F66E0FC
:101B8000C5010E94701F6BE00E94701F5C016CED2C
:101B900077E00E942B1F66E0C5010E94701FC701FD
:101BA0000E948008D70153962D913D914D915C91F3
:101BB000569701E05F966C91C7010E94EA09F70110
:101BC00083889488A588B68866E0868197810E947C
:101BD000701F66E00E94701F6BE00E94701F3C0146
:101BE00065EA77E00E942B1FB501A401C3010E94A2
:101BF0005A206BE00E94701F5C0164EB77E00E944A
:101C00002B1F66E0C5010E94701FD70190961C92A1
:101C1000C7010E948205F701078D66E086819781E2
:101C20000E94701F6BE00E94701F5C0168E877E003
:101C30000E942B1F602FC5010E94A2206BE00E9412
:101C4000701F5C0168E977E01CCE66E0F7018681D1
:101C500097810E94701F6BE00E94701F5C0168EB0F
:101C600076E00E942B1FD501ED91FC910280F3815B
:101C7000E02D60E7C501099566E0C5010E94701F6F
:101C80006BE00E94701F5C0165EC76E00E942B1FE8
:101C900066E0C5010E94701FF701078D6BE0868129
:101CA00097810E94701F5C0167E476E00E942B1F01
:101CB00066E0C5010E94701F66E00E94701F6BE025
:101CC0000E94701F5C0163E676E00E942B1F602F6C
:101CD000C5010E94A2206BE00E94701F5C0168E8B1
:101CE00076E00E942B1F66E0C5010E94701F6BE02A
:101CF0000E94701F5C0161E976E00E942B1F66E084
:101D0000C5010E94701F62E0C7010E94681BD701D5
:101D100090961C92BECB6BE0F701868197810E9462
:101D2000701F5C0167E176E00E942B1FD501ED91E9
:101D3000FC910280F381E02D61E7C501099566E021
:101D4000C5010E94701F6BE00E94701F5C0164E27D
:101D500076E00E942B1F66E0C5010E94701F61E0C3
:101D6000C7010E94681BF70110A2108E81E0878BCB
:101D700090CB66E0868197810E94701F6BE00E9485
:101D8000701F3C0169EA78E00E942B1FB501A40195
:101D9000C3010E945A20F70183889488A588B688D9
:101DA00066E0868197810E94701F66E00E94701F26
:101DB0006BE00E94701F3C0162E578E00E942B1FDF
:101DC000B501A401C3010E945A2062E00E94701F65
:101DD0006BE00E94701F5C0164E778E00E942B1F9B
:101DE00066E0C5010E94701F6BE00E94701F5C01DD
:101DF00066E778E00E942B1F66E0C5010E94701F15
:101E0000D70153968C9153975F968C9361E0C701ED
:101E10000E94681B3ECB6BE0868197810E94701FF9
:101E20007C016EEB78E00E942B1F66E0C7010E94E8
:101E3000701F2BE088E190E00FB6F894A89580938E
:101E400060000FBE20936000FFCF868197810E94C3
:101E5000C71B1FCB415051096109710981E0423014
:101E600051056105710508F080E00895CF93DF9377
:101E700000D000D0CDB7DEB78C010E945C1569831D
:101E80007A838B839C83EE24EA94F12C15C0F801AD
:101E900046855785608971894F5F5F4F6F4F7F4FD0
:101EA00046875787608B718B44E650E060E070E0B6
:101EB000CE0101960E94FC160FB6F8940F92E091A5
:101EC0005803F091590320850F900FBE0FB6F89478
:101ED0000F920F900FBEE0915603F0915703D80177
:101EE00052969C9180859813D2CF213009F449C035
:101EF0002223A1F1223009F455C0233009F0C7CFC5
:101F000061E0D80155968D919C9156970E94721070
:101F10006C01D694C794D694C794C114D10409F423
:101F200047C0B0E8CB16D10408F45FC0F0E8CF1684
:101F3000D10409F04AC080E8A82EB12C0FB6F8945D
:101F40000F92E0915A03F0915B03B186A0860F9047
:101F50000FBED0929B00C0929A0099CF0FB6F89412
:101F60000F920F900FBEE0915A03F0915B036085D2
:101F70007185D80153968D919C9154970E94A81118
:101F800086CF0FB6F8940F920F900FBEE0915A03D0
:101F9000F0915B0360857185F801838994890E94C3
:101FA0002D1175CFF801838994890E94FC116FCFA0
:101FB0002DEFA22EB12CCC24C394D12CB501F80165
:101FC000838994890E942D11B9CFAA24BB24AC180F
:101FD000BD08AA0CBB1CB394B501D80153968D91D2
:101FE0009C9154970E942D11A9CFC601880F991F6B
:101FF0005701A81AB90AE2CFAF92CF92DF92EF92BF
:10200000FF920F931F93CF93DF93EC010E94B21ABC
:102010008BEA92E099838883FC8AEB8ADE8ACD8AF8
:10202000AA8ADF91CF911F910F91FF90EF90DF90DF
:10203000CF90AF900895FF920F931F93CF93DF93AC
:10204000EC017983688380917C00806480937C00BC
:1020500080917A00856C80937A000881198101153E
:102060001105D1F16FEA72E0C8010E942B1F66E0F2
:10207000C8010E94701F088119810115110561F1C5
:10208000F0907C006EEC72E0C8010E942B1F60E0B3
:10209000C8010E94701F6F2D0E94A22066E00E945E
:1020A000701F0990D881C02D2097B1F010917A004F
:1020B00066ED72E0CE010E942B1F60E0CE010E940F
:1020C000701F612F0E94A22066E0DF91CF911F91C7
:1020D0000F91FF900C94701FDF91CF911F910F9182
:1020E000FF900895683008F060E080917C00887F60
:1020F00080937C0080917C00862B80937C00809173
:102100007A00806480937A0080917A0086FDFCCF0B
:10211000809178002091790090E0922B0895DF92D1
:10212000EF92FF920F931F93CF93DF938C01D62EE4
:10213000E42E80E48417E0F480E4E82EF12CC0E083
:10214000D0E06D2DC8010E947210C80FD91FF39402
:10215000FE10F7CF6E2D70E0CE010E94052CCB0152
:10216000DF91CF911F910F91FF90EF90DF90089535
:102170004111E4CFC0E0D0E0EDCF0F931F93CF9398
:10218000DF93EC016BE00E94701F8C0163E679E045
:102190000E942B1F66E0C8010E94701F6BE00E9426
:1021A000701F8C016EE779E00E942B1F66E0C8016A
:1021B0000E94701FCE01DF91CF911F910F91089562
:1021C0006F927F928F92AF92CF92EF92FF920F9386
:1021D0001F93CF93DF93CDB7DEB7FC013B018E8514
:1021E00071836083558344833187208715870487F3
:1021F000F786E686C08AA18A828A838B415051097C
:1022000053834283215031093783268301501109BA
:102210001387028761157105A1F06FED72E0C301AC
:102220000E942B1F66E0C301DF91CF911F910F9198
:10223000FF90EF90CF90AF908F907F906F900C9425
:10224000701FDF91CF911F910F91FF90EF90CF9072
:10225000AF908F907F906F900895CF93FC01A281F3
:10226000B381CC9181E090E0AC01008802C0440FC2
:10227000551F0A94E2F79C01018802C0220F331F08
:102280000A94E2F7242B2C2B2C93A681B7814C9136
:102290009C01028802C0220F331F0A94E2F72095A6
:1022A00024232C93A285B3854C919C01038802C002
:1022B000220F331F0A94E2F7422B4C93A085B1857D
:1022C0004C919C01028802C0220F331F0A94E2F74E
:1022D000422B4C93A481B5814C919C0177FD1BC08E
:1022E000008802C0220F331F0A94E2F7422B4C935E
:1022F000A481B5812C91018802C0880F991F0A948E
:10230000E2F7809582238C930684F785E02D718314
:102310006083CF910895018802C0220F331F0A9471
:10232000E2F7422B4C93A481B5812C91008802C026
:10233000880F991F0A94E2F7809582238C93068474
:10234000F785E02D71956195710971836083E1CF07
:10235000FC01A281B3816C9181E090E0AC01008826
:1023600002C0440F551F0A94E2F79C01018802C085
:10237000220F331F0A94E2F7242B262B2C93A681DD
:10238000B7814C919C01028802C0220F331F0A942E
:10239000E2F7209524232C93A285B3854C919C01D0
:1023A000038802C0220F331F0A94E2F7422B4C939A
:1023B000A085B1854C919C01028802C0220F331F79
:1023C0000A94E2F7422B4C93A481B5814C919C0175
:1023D000008802C0220F331F0A94E2F7422B4C936D
:1023E000A481B5812C91018802C0880F991F0A949D
:1023F000E2F7282B2C930895FC01A281B3816C9104
:1024000081E090E0AC01008802C0440F551F0A949F
:10241000E2F79C01018802C0220F331F0A94E2F701
:10242000242B262B2C93A681B7814C919C010288EA
:1024300002C0220F331F0A94E2F7209524232C9325
:10244000A285B3854C919C01038802C0220F331FE3
:102450000A94E2F7422B4C93A085B1854C919C01E4
:10246000028802C0220F331F0A94E2F7422B4C93DA
:10247000A481B5814C919C01008802C0220F331FBA
:102480000A94E2F7209524232C93A481B5812C9102
:10249000018802C0880F991F0A94E2F78095822371
:1024A0008C9308950F931F93CF93DF93EC016BE010
:1024B0000E94701F8C016DE879E00E942B1F66E07E
:1024C000C8010E94701FCE01DF91CF911F910F9123
:1024D00008950F931F93CF93DF93EC010E9456153D
:1024E00080915E03811121C088E693E0909364039C
:1024F00080936303109266031092650387E397E16C
:1025000090936203809361031092600310925F03C3
:1025100090936B0380936A038FE593E09093690334
:102520008093680381E080935E03209709F460C084
:10253000AE014C5F5F4F2396C633D74108F058C0B9
:10254000E0916303F0916403A3E6B3E006C08081E9
:102550009181009739F0DF01FC012281338124173A
:102560003507A8F3C3E0EF35FC0709F441C00D912E
:102570001C9111970C5F1F4F808191818D939C93CB
:10258000C901841B950B8930910500F1BF01640FCF
:10259000751FDB0113969C938E931297538342838E
:1025A00012968D919C911397A3E6B3E001C0DF01D1
:1025B000ED91FC9111972281338128173907B8F3E7
:1025C000EB01F983E8836D937C939A01809100027B
:1025D00090910102821B930B909301028093000261
:1025E0000E948916C801DF91CF911F910F91089524
:1025F00000E010E00E948916C801DF91CF911F9181
:102600000F910895CF93DF93009721F1EC01249768
:102610000E9456154A815B81A3E6B3E001C0DF0149
:10262000ED91FC9111972281338124173507B8F37E
:10263000F983E883CD93DC938091000290910102AD
:10264000840F951F9093010280930002DF91CF9138
:102650000C948916DF91CF9108958091000290919A
:102660000102089508958091D41A823018F00E94D2
:102670002024F9CFFFCFCF92DF92EF92FF926B0130
:102680007C01E0919F1AF091A01A62837383848386
:1026900095838091A81A9091A91AA091AA1AB09135
:1026A000AB1A60919F1A7091A01AC816D906EA0653
:1026B000FB0610F18091BC1A9091BD1A6E5F7F4F9E
:1026C0000E94E7228091020290910302A0910402ED
:1026D000B0910502C816D906EA06FB0640F4C0927E
:1026E0000202D0920302E0920402F0920502FF90EF
:1026F000EF90DF90CF9008958091BA1A9091BB1A15
:102700006E5F7F4FFF90EF90DF90CF900C94E722A9
:102710005F926F927F928F929F92AF92BF92CF9271
:10272000DF92EF92FF920F931F93CF93DF934C01B1
:10273000162F572E5A01390189E290E00E94691242
:10274000EC01009709F4E9C0C114D10409F4DAC01E
:10275000DC8ECB8EC601A50165EA70E00E946E2D6D
:1027600021E0A21AB108CB8CDC8CCA0CDB1CAE01B8
:10277000435E5F4FE12FF52D2AE0CF013191DA0161
:102780003D93AD01DC018C91882311F02150A9F714
:102790001EA2102F043008F07DC01A8F1FA318A6A8
:1027A0005E01B2E0AB0EB11CC5010E94C222CE0197
:1027B0000E960E94C222DB87CA8784E090E0A0E0E8
:1027C000B0E0811B9109A109B1098E879F87A88B71
:1027D000B98BDF8BCE8BA301B401C6010E945023BD
:1027E00099838883E114F10419F0F701D183C08340
:1027F0000FB6F8940F928091AC1A8F5F8093AC1A49
:1028000080919F1A9091A01A892B09F449C0809158
:10281000A61A81110BC0E0919F1AF091A01A828D27
:10282000081720F0D093A01AC0939F1A8091A21A83
:102830008F5F8093A21A8A8D9091A71A981738F10A
:10284000FBE08F9FC0011124B5018C52954E0E9470
:10285000C6220F900FBE8091A61A882339F0E0910E
:102860009F1AF091A01A828D8017B0F081E0DF915D
:10287000CF911F910F91FF90EF90DF90CF90BF907D
:10288000AF909F908F907F906F905F90089580930E
:10289000A71AD6CF13E081CF0E94202481E0E7CF92
:1028A000D093A01AC0939F1A8091AC1A813009F07E
:1028B000BDCF84ED9AE10E94B1228FED9AE10E9492
:1028C000B1228AEE9AE10E94B12285EF9AE10E943C
:1028D000B12289EC9AE10E94B1228EEB9AE10E942A
:1028E000B1228FEA9AE10E94B12289EC9AE1909399
:1028F000BD1A8093BC1A8EEB9AE19093BB1A809319
:10290000BA1A94CFC5010E9469129C8F8B8F0097D1
:1029100009F021CFCE010E9402138FEFA8CF0FB68E
:10292000F8940F92009729F00F900FBEFC01828D52
:10293000089580919F1A9091A01A0F900FBEFC01EC
:10294000828D0895EF92FF921F93CF93DF93EC0156
:10295000262F643008F023E00FB6F8940F922097EA
:1029600009F44AC03FA13217A9F180919F1A9091B2
:10297000A01A3217B8F5C817D90741F0E0919F1A8D
:10298000F091A01A11E0828D281708F410E08A8DCA
:10299000381769F12FA34E855F856889798977FD9E
:1029A0000CC044E050E060E070E0421B5109610956
:1029B00071094E875F87688B798B2BE0829FC001FE
:1029C00011248C52954E2C853D8528173907C9F066
:1029D000113079F00F900FBEDF91CF911F91FF90D2
:1029E000EF90089511E0C817D90781F6D0CF2A8F4C
:1029F000D1CF0E942024EECFC0919F1AD091A01A6F
:102A0000B1CF7E0182E0E80EF11CC7010E942423B1
:102A10008A8D9091A71A981710F48093A71A2BE02B
:102A2000829FC0011124B7018C52954E0E94C6228C
:102A3000CFCFAF92BF92CF92DF92EF92FF920F93E0
:102A4000A12CB12CC12CD12C8DEAE82E8AE1F82ED4
:102A500000E020E030E044E650E064E073E083E32F
:102A600093E10E948813813041F00F91FF90EF9025
:102A7000DF90CF90BF90AF900895F8948093A61AFE
:102A80001092A81A1092A91A1092AA1A1092AB1AB0
:102A90000F91FF90EF90DF90CF90BF90AF900C948C
:102AA000E423F8941092A61A0C941F248091A11A82
:102AB0008F5F8093A11A08950FB6F8940F926091DA
:102AC000A81A7091A91A8091AA1A9091AB1A0F9026
:102AD0000FBE08956091A81A7091A91A8091AA1A40
:102AE0009091AB1A08958091AC1A0895009711F057
:102AF0004D96089580919F1A9091A01A4D96089531
:102B00008091AD1A9091AE1A0895AF92BF92CF9274
:102B1000DF92EF92FF920F931F93CF93DF938091F9
:102B2000A11A8111CFC08091A81A9091A91AA091E1
:102B3000AA1AB091AB1A0196A11DB11D8093A81AD3
:102B40009093A91AA093AA1AB093AB1AC090A81A8E
:102B5000D090A91AE090AA1AF090AB1AC114D1042F
:102B6000E104F10439F58091BC1A9091BD1A2091CD
:102B7000BA1A3091BB1A3093BD1A2093BC1A9093A5
:102B8000BB1A8093BA1A8091A31A8F5F8093A31AFD
:102B9000E091BC1AF091BD1A808181119AC08FEF2B
:102BA0009FEFDC018093020290930302A093040242
:102BB000B09305028091020290910302A091040259
:102BC000B0910502B12CC816D906EA06FB0608F436
:102BD00057C09BE0A92EE091BC1AF091BD1A8081EC
:102BE000882309F442C0E091BC1AF091BD1A078015
:102BF000F085E02DC085D1854A815B816C817D8126
:102C0000C416D506E606F70608F47AC08E010E5FF4
:102C10001F4FC8010E942423888D998D892B21F094
:102C2000CE010E960E9424238A8D9091A71A9817A0
:102C300010F48093A71AA89EC0011124B8018C52E9
:102C4000954E0E94C622E0919F1AF091A01A9A8D8B
:102C5000828D981708F4BFCFBB24B394E091BC1ABF
:102C6000F091BD1A80818111BECF4FEF5FEFBA01A5
:102C70004093020250930302609304027093050292
:102C8000E0919F1AF091A01AE28D8BE0E89FF0018D
:102C90001124EC52F54E8081823010F0BB24B394A5
:102CA0008091A41A882311F0BB24B3948B2DDF915B
:102CB000CF911F910F91FF90EF90DF90CF90BF9039
:102CC000AF9008958091A51A8F5F8093A51AB12CBB
:102CD000E7CFE091BC1AF091BD1A0780F085E02D96
:102CE0000084F185E02D82819381A481B581809358
:102CF000020290930302A0930402B09305025ACFFC
:102D00004093020250930302609304027093050201
:102D1000B7CFEF92FF920F931F93CF93DF930FB62E
:102D2000F8940F928091A11A81508093A11A8091FA
:102D3000A11A811150C08091AC1A882309F44BC0AC
:102D40002BE0F22EEE24E39427C0E091B61AF09126
:102D5000B71AC085D185CE010E960E9424238E011C
:102D60000E5F1F4FC8010E9424238A8D9091A71ADD
:102D7000981710F48093A71AF89EC0011124B80187
:102D80008C52954E0E94C622E0919F1AF091A01A93
:102D90009A8D828D981748F58091AF1A8111D5CF01
:102DA0008091A51A882399F08091A51A882379F03B
:102DB000C1E00E9485158111C093A41A8091A51AC3
:102DC00081508093A51A8091A51A8111F2CF80912C
:102DD000A41A813069F080E00F900FBEDF91CF918F
:102DE0001F910F91FF90EF900895E092A41AD4CF15
:102DF0000E94202481E0F0CFCF92DF92EF92FF92E9
:102E00000F931F93CF93DF9300D000D0CDB7DEB7E1
:102E10002091A11A2F5F2093A11AC090A81AD090D8
:102E2000A91AE090AA1AF090AB1AFC010081118156
:102E300022813381400F511F621F731FC016D106BC
:102E4000E206F306E8F44017510762077307E8F05B
:102E5000FC0140835183628373830E948916811130
:102E600002C00E9420240F900F900F900F90DF91CE
:102E7000CF911F910F91FF90EF90DF90CF90089529
:102E8000401751076207730728F0C416D506E606F7
:102E9000F706F0F6FC0140835183628373838091CF
:102EA0009F1A9091A01A029649835A836B837C8360
:102EB0000E94242349815A816B817C81CB01BA0114
:102EC0000E943B13CACFCF92DF92EF92FF9261151F
:102ED00071058105910539F40E942024FF90EF903F
:102EE000DF90CF9008952091A11A2F5F2093A11A0F
:102EF000C090A81AD090A91AE090AA1AF090AB1A24
:102F0000C60ED71EE81EF91E80919F1A9091A01A36
:102F100002960E942423C701B6010E943B130E941F
:102F200089168823C9F2FF90EF90DF90CF90089523
:102F30008091A11A81113BC01092A41AE091A71AA6
:102F40008BE0E89FF0011124EC52F54E8081811155
:102F500010C09BE08091A71A81508093A71AE0913E
:102F6000A71A9E9FF0011124EC52F54E8081882310
:102F700089F3E091A71A8BE0E89FF0011124EC524D
:102F8000F54EA181B28114960D90BC91A02DB28313
:102F9000A183CF010396A817B90769F018968D9100
:102FA0009C9119979093A01A80939F1A089581E09D
:102FB0008093A41A089514969C91149715968C9159
:102FC00091838283A92FB82FE9CFCF92DF92EF921E
:102FD000FF926A017B0160919F1A7091A01A625F53
:102FE0007F4F0E94E72280919F1A9091A01A02962B
:102FF0000E9424236091A81A7091A91A8091AA1A9C
:103000009091AB1A6C0D7D1D8E1D9F1DFF90EF9052
:10301000DF90CF900C943B13CF92DF92EF92FF9210
:103020000F931F9368017901E0919F1AF091A01A04
:10303000706846875787608B718B60919F1A70917B
:10304000A01A625F7F4F0E94C62280919F1A9091C2
:10305000A01A02960E9424236091A81A7091A91ABE
:103060008091AA1A9091AB1A6C0D7D1D8E1D9F1D2B
:103070001F910F91FF90EF90DF90CF900C943B1336
:103080000F931F93CF93DF93DC011796ED91FC9183
:103090001897C085D1858E01025F1F4FC8010E941D
:1030A00024238091A11A811124C08E010E5F1F4F2D
:1030B000C8010E9424238A8D9091A71A9817F8F0CE
:1030C000BBE08B9FC0011124B8018C52954E0E9429
:1030D000C622E0919F1AF091A01A9A8D828D8917CD
:1030E00088F481E08093A41ADF91CF911F910F9112
:1030F0000895B8018FEA9AE10E94C622EACF809330
:10310000A71ADECF80E0DF91CF911F910F91089534
:103110000F931F93CF93DF937068FC01408351831B
:1031200062837383C085D1850E9424238E010E5F44
:103130001F4FC8010E9424238A8D9091A71A9817C7
:1031400010F48093A71AFBE08F9FC0011124B801EF
:103150008C52954E0E94C622E0919F1AF091A01ABF
:103160009A8D828D891740F481E08093A41ADF91B3
:10317000CF911F910F91089580E0DF91CF911F9122
:103180000F9108952091A31AFC0120834091A81A61
:103190005091A91A6091AA1A7091AB1A4183528377
:1031A0006383748308958F929F92AF92BF92CF9260
:1031B000DF92EF92FF920F931F93FC01DB010FB69A
:1031C000F8940F924091A81A5091A91A6091AA1AE6
:1031D0007091AB1A8091A31A908101811281238191
:1031E0003481981729F0401751076207730770F56B
:1031F000CD90DD90ED90FC9013974A015B01801A11
:10320000910AA20AB30A8C149D04AE04BF04F0F420
:10321000C41AD50AE60AF70AC00ED11EE21EF31E32
:10322000CD92DD92ED92FC9213978091A31A808348
:103230008091A81A9091A91AA091AA1AB091AB1ADC
:1032400081839283A383B48380E001C081E00F90E7
:103250000FBE1F910F91FF90EF90DF90CF90BF9026
:10326000AF909F908F90089581E08093A41A089565
:10327000009799F0DC015B96ED91FC915C97808161
:10328000853A81F4319680E090E0DC010196A11D41
:10329000B11D2191253AD1F3089580919F1A909103
:1032A000A01AE8CF80E0089580919F1A9091A01A0B
:1032B00008950F931F93CF93DF93EC01009781F153
:1032C0008A8DE0919F1AF091A01A928D891740F58E
:1032D0004E855F856889798977FD11C0E0919F1AD5
:1032E000F091A01A928D44E050E060E070E0491B3C
:1032F0005109610971094E875F87688B798B2BE0D3
:10330000829FC00111248C52954E2C853D85281733
:10331000390759F0E0919F1AF091A01A828D8A8F97
:10332000DF91CF911F910F9108958E010E5F1F4F76
:10333000C8010E942423E0919F1AF091A01A828D67
:103340008A8F9091A71A981710F48093A71A2BE0F0
:10335000829FC0011124B8018C52954EDF91CF910C
:103360001F910F910C94C6220F931F93CF93DF935D
:10337000EC01009749F088A5815088A72A8D9FA16C
:10338000291711F0882331F080E0DF91CF911F9150
:103390000F9108958E010E5F1F4FC8010E942423D4
:1033A0008FA18A8F44E050E060E070E0481B510933
:1033B000610971094E875F87688B798B9091A71A95
:1033C000981710F48093A71A2BE0829FC001112454
:1033D000B8018C52954E0E94C62281E0DF91CF91B8
:1033E0001F910F910895CF92DF92EF92FF92E0919B
:1033F0009F1AF091A01A6685778580899189E0915E
:103400009F1AF091A01AA0919F1AB091A01A5A96F3
:103410002C9134E0C32ED12CE12CF12CC21AD1080E
:10342000E108F108C686D786E08AF18AFF90EF901E
:10343000DF90CF90089580919F1A9091A01A892BC8
:1034400039F0E0919F1AF091A01A80A58F5F80A7B4
:1034500080919F1A9091A01A0895EF92FF920F9376
:103460001F93CF93DF9300D0CDB7DEB77C018DE003
:1034700093E0F7019183808361157105C1F0FB0131
:1034800001900020E9F73197E61BED3020F50E2F73
:1034900010E0C801019669837A830E94FB1EF70140
:1034A00095838483A80169817A810E94752D80911A
:1034B000001B9091011BF70197838683F092011BFB
:1034C000E092001B0F900F90DF91CF911F910F9111
:1034D000FF90EF900895ECE0DACF0F931F93CF9316
:1034E000DF93EC018091001B9091011B6BE0892B15
:1034F00049F1CE010E94701F8C0163EE79E00E94B9
:103500002B1F66E0C8010E94701F6BE0CE010E9475
:10351000701F8C0160EC79E00E942B1F66E0C801EF
:103520000E94701F8091001B9091011BDC01ED91A6
:10353000FC910190F081E02DBE01DF91CF911F91B0
:103540000F910994CE010E94701FEC0162EA79E0AC
:103550000E942B1F66E0CE01DF91CF911F910F914A
:103560000C94701F4F925F926F927F928F929F92F6
:10357000AF92BF92CF92DF92EF92FF920F931F9381
:10358000CF93DF93EC013B0149012801FC0183E16A
:1035900093E081939193A12CB12CC12CD12C7F016C
:1035A000042F9E01A40188EA9BE20E9488135F8297
:1035B0004E82998688862091021B3091031B3D83A1
:1035C0002C83D093031BC093021B1C861D86809006
:1035D000101B9090111B9FEF891A990A9092111B52
:1035E0008092101B9B868A861E861F86188A198ADF
:1035F0004114510409F44CC06BE0813041F1C20127
:103600000E94701FEC0166E07AE00E942B1FB3015C
:10361000CE010E942B1FE881F9810280F381E02D09
:1036200062E2CE01099566E0CE01DF91CF911F9154
:103630000F91FF90EF90DF90CF90BF90AF909F9051
:103640008F907F906F905F904F900C94701FC2018D
:103650000E94701FEC016CE17AE00E942B1FB30105
:10366000CE010E942B1F6BE0CE010E94701FEC0167
:1036700063E27AE00E942B1F63E0CE010E94701F7C
:10368000B4010E94202062E00E94701F66E0CDCF4E
:10369000DF91CF911F910F91FF90EF90DF90CF902E
:1036A000BF90AF909F908F907F906F905F904F9062
:1036B0000895EC01E881F9810190F081E02D0995F0
:1036C0001B821A826FEF7FEFCB010E946317FACF44
:1036D000FC01648765870895FC01C681D781209726
:1036E00039F0CE010E942B1F66E0CE010E94701FB0
:1036F0002BE088E190E00FB6F894A89580936000E5
:103700000FBE20936000FFCF0E945C150E94D72C53
:1037100020E030E04AE754E40E946F2C0895CF92F5
:10372000DF92EF92FF920F931F93CF93DF93EC0101
:103730007B018A819B810E9476156C016BE0C70139
:103740000E94701F8C016AE37AE00E942B1FB60171
:10375000C8010E942B1F66E0C8010E94701F8A8565
:103760009B8528853985A701BC01821B930B0E948C
:10377000741E0C80DD81C02D2097D9F6DF91CF918A
:103780001F910F91FF90EF90DF90CF9008950F93CE
:103790001F93CF93DF93EC018091021B9091031B49
:1037A000009719F0BE010E948F1B6BE0CE010E94B2
:1037B000701F8C0161E47AE00E942B1F66E0C80153
:1037C0000E94701F8091101B9091111BBC016F5FB4
:1037D0007F4FAE0183569109DF91CF911F910F91D9
:1037E0000C94741E8F929F92AF92BF92CF92DF92F1
:1037F000EF92FF920F931F93CF93DF93EC018B0116
:103800008A819B810E947615BC01C8010E942B1FF2
:10381000D801ED91FC910280F381E02D69E0C801AF
:1038200009958A819B810E947615FC0101900020F8
:10383000E9F73197E81BF90B389748F4D801ED9177
:10384000FC910280F381E02D69E0C8010995CE84E6
:10385000DF84E888F988A884B9848A819B810E94E2
:103860003819982E8C848A819B810E948F14682F2E
:10387000C8010E94A2206BE00E94701FEC0165EB62
:103880007AE00E942B1F682DCE010E94A2206BE0DF
:103890000E94701FEC0167EB7AE00E942B1F692DDC
:1038A000CE010E94A2206BE00E94701FEC0169EB28
:1038B0007AE00E942B1FB501CE010E9420206BE010
:1038C0000E94701FEC016BEB7AE00E942B1F6BE0F3
:1038D000CE010E94701FEC016DEB7AE00E942B1F5D
:1038E000B701A601CE01DF91CF911F910F91FF90FB
:1038F000EF90DF90CF90BF90AF909F908F900C94FF
:103900005A200F931F93CF93DF93EC018B01E88133
:10391000F9810280F381E02DB801CE01099566E0BE
:10392000C8010E94701F0C80DD81C02D209779F79F
:10393000DF91CF911F910F910895CF93DF93EC0109
:10394000CB01DB01ED91FC910280F381E02DBE0102
:103950000995CE01DF91CF9108950F931F93CF93D7
:10396000DF93EC016BE00E94701F8C0163EA7AE048
:103970000E942B1F6BE0C8010E94701F8C016EEA31
:103980007AE00E942B1F66E0C8010E94701F6BE066
:10399000CE010E94701F8C0160E87AE00E942B1F0C
:1039A0006BE0C8010E94701F8C0161E97AE00E94FF
:1039B0002B1F6BE0C8010E94701F8C016DE97AE03B
:1039C0000E942B1F66E0C8010E94701F6BE0CE01B1
:1039D0000E94701F8C016DE57AE00E942B1F6BE046
:1039E000C8010E94701F8C016EE67AE00E942B1FB6
:1039F0006BE0C8010E94701F8C016AE77AE00E94A8
:103A00002B1F66E0C8010E94701F8091021B9091DD
:103A1000031B009719F0BE010E94811C0E948015B3
:103A20000E943819182F6BE0CE010E94701FEC0124
:103A30006CE47AE00E942B1F612FCE010E94A2202D
:103A40006BE00E94701FEC0167E57AE00E942B1F7B
:103A500064E670E0CE010E9420206BE00E94701F9F
:103A6000EC0169E57AE00E942B1F66E0CE01DF9150
:103A7000CF911F910F910C94701FCF92DF92EF9214
:103A8000FF920F931F93CF93DF937C018B01DC0197
:103A90001A966D917C911B97C8010E942B1FF7010C
:103AA000A285B385FD0101900020E9F73197DE2E54
:103AB000DA1AFFE0FD1580F0C0E0D0E0D801ED910A
:103AC000FC910280F381E02D60E2C8010995219606
:103AD0008C2F8D0D803190F367E173E0C8010E9457
:103AE0002B1FD7015696CD90DC9057971E968D913F
:103AF0009C911F970E947928682FC8010E94A220DC
:103B0000EC01E881F9810280F381E02D6FE20995F3
:103B1000B601CE010E942020DC01ED91FC910280D3
:103B2000F381E02D69E0099566E0C8010E94701FED
:103B3000F70184859585009781F0DC01ED91FC917A
:103B40000190F081E02DB801DF91CF911F910F918D
:103B5000FF90EF90DF90CF900994DF91CF911F916C
:103B60000F91FF90EF90DF90CF9008956F927F922A
:103B70008F929F92AF92BF92CF92DF92EF92FF927D
:103B80000F931F93CF93DF93EC01762E672E4A019C
:103B90005901670178010E94201FB401CE010696E9
:103BA0000E942D1A82E293E09983888324E333E014
:103BB0003F832E83BD8AAC8A40E061E0872D0E945E
:103BC000EA259F878E87C88AD98AEA8AFB8A7E8AF5
:103BD0006F8ADF91CF911F910F91FF90EF90DF904F
:103BE000CF90BF90AF909F908F907F906F900895EF
:103BF00006970C943D1DCF92DF92EF92FF920F93A8
:103C00001F93CF93DF93CDB7DEB72F970FB6F894FE
:103C1000DEBF0FBECDBF8C017B01DB016D917D91BD
:103C20008D919C9128EE33E040E050E00E94192CE9
:103C3000BA01A901C8010E945A20D801ED91FC9156
:103C40000280F381E02D6EE2C8010995C7010E9450
:103C5000A2286E01B9E0CB0ED11C7E01EFE0EE0E82
:103C6000F11C2AE030E040E050E00E943B2CE62FBF
:103C700029833A834B835C8369817A818B819C8120
:103C8000E05DD701EE937D01AC15BD0551F71F86B0
:103C9000BD01C8010E942B1FC8012F960FB6F894D2
:103CA000DEBF0FBECDBFDF91CF911F910F91FF906F
:103CB000EF90DF90CF900895CF93DF93EC010FB694
:103CC000F8940F9280912401909125019D838C831B
:103CD0000E945C15688379838A839B830F900FBE53
:103CE000CE01DF91CF9108958F929F92AF92BF92B4
:103CF000CF92DF92EF92FF920F931F93CF93DF93B8
:103D00006C014B01EA0163E0CA010E94701FC814F4
:103D1000D90408F059C0560184E1A80EB11C750100
:103D2000B601CE010E9420206BE00E94701F6FEB55
:103D30007AE00E942B1F8601F80161918F01CE016C
:103D40000E94A220E881F9810280F381E02D60E2E7
:103D5000CE0109950E151F0579F7E881F9810280DA
:103D6000F381E02D60E2CE0109950FC080EE860F51
:103D7000E881F9810280F381E02D8F3508F06EE251
:103D8000CE010995CE14DF0481F0F60161916F0137
:103D9000653A61F7E881F9810280F381E02D60E204
:103DA000CE010995CE14DF0481F7650166E0CE01EE
:103DB0000E94701FF4E1EF0EF11CA814B90420F466
:103DC000C50144965C01ACCF62E0CE01DF91CF919A
:103DD0001F910F91FF90EF90DF90CF90BF90AF9029
:103DE0009F908F900C94701F0C946912009711F0A3
:103DF0000C94021308950C946912009711F00C941E
:103E000002130895FC0181E090E02081222311F04B
:103E100080E090E0089521E0FC012083089508955A
:103E2000089581E0089580E0089580E00895089560
:103E3000DC01ED91FC910280F381E02D6CE00994AE
:103E4000FC018AE393E0918380838AE0828383E0AC
:103E50008583148208950F931F93CF93DF93EC0112
:103E6000FB018C81811117C06081662379F08F017D
:103E70000F5F1F4FE881F9810280F381E02DCE01B1
:103E80000995F80161918F016111F4CFDF91CF9114
:103E90001F910F9108951C828B010F5F1F4F64913A
:103EA0006623A1F3A881B9811296ED91FC91139735
:103EB000CE010995F80164910F5F1F4F6111F2CF98
:103EC000E5CF883008F087E08093070289E0089505
:103ED0009EEF980F9F3010F4809306028AE00895B9
:103EE000CF93DF93EC01462F50E04C30510538F46E
:103EF000FA01EA59FF4F0C945A2C82E08A83CE01D2
:103F0000DF91CF91089581E08C83F9CF88E08A8397
:103F1000F6CF8AE08A83F3CF80E18A83F0CFE8810D
:103F2000F9810280F381E02D6DE00995E881F98146
:103F30000280F381E02D6AE0CE010995E0CFE881AF
:103F4000F9810284F385E02D0995D9CFE881F981C3
:103F50000084F185E02D0995D2CF809107028D83F1
:103F6000CECF809106028A83CACF0F931F93CF933F
:103F7000DF93CDB7DEB761970FB6F894DEBF0FBE03
:103F8000CDBF8C01CB01F80122812A3079F0C80124
:103F90000E942020C80161960FB6F894DEBF0FBEC4
:103FA000CDBFDF91CF911F910F9108954AE050E06E
:103FB000BE016F5F7F4F0E94842DBE016F5F7F4FF8
:103FC000C8010E942B1FE6CF0F931F93CF93DF935F
:103FD00000D000D01F92CDB7DEB78C01862FD8015C
:103FE00013969C911397911112C0F80192819A3007
:103FF000B1F0C8010E94A220C8010F900F900F904D
:104000000F900F90DF91CF911F910F910895ED9137
:10401000FC910280F381E02DC8010995EDCF4AE0C3
:1040200050E0BE016F5F7F4F992787FD90950E94FA
:10403000842DBE016F5F7F4FC8010E942B1FDCCF14
:10404000FF920F931F93CF93DF93CDB7DEB76197A6
:104050000FB6F894DEBF0FBECDBF8C01F62E972FA2
:10406000F8014281403191F0483081F0423071F0E6
:1040700050E0BE016F5F7F4F8F2D0E94CA2DBE01A1
:104080006F5F7F4FC8010E942B1F07C0692FC801B7
:104090000E94A2206F2D0E94A220C80161960FB637
:1040A000F894DEBF0FBECDBFDF91CF911F910F916E
:1040B000FF900895DF92EF92FF920F931F93CF939B
:1040C000DF93CDB7DEB7A1970FB6F894DEBF0FBE72
:1040D000CDBF8C01D42EE52EF62E972FF80122812C
:1040E0002031A1F0283091F0223081F030E0AE0193
:1040F0004F5F5F4F6D2D7E2D8F2D0E94A52DBE0130
:104100006F5F7F4FC8010E942B1F0DC0692FC80130
:104110000E94A2206F2D0E94A2206E2D0E94A2203C
:104120006D2D0E94A220C801A1960FB6F894DEBFA3
:104130000FBECDBFDF91CF911F910F91FF90EF90F8
:10414000DF900895CF92DF92EF92FF920F931F932B
:10415000CF93DF93CDB7DEB729970FB6F894DEBFC4
:104160000FBECDBF8C01D62EDC0113968C91139718
:1041700081115DC0F80142814230D9F14031F1F046
:1041800050E0BE016F5F7F4F8D2D90E00E94CA2DE1
:10419000BE016F5F7F4FC8010E942B1FC801299687
:1041A0000FB6F894DEBF0FBECDBFDF91CF911F9148
:1041B0000F91FF90EF90DF90CF90089562956F7010
:1041C0000190F081E02D0280F381E02D6A30B8F596
:1041D000605DC80109956D2D6F70D801ED91FC915E
:1041E0000280F381E02D6A3060F1695CC8010995B5
:1041F000D5CF88E0E82EF12C90E8C92E0AC061E303
:10420000C8010995C694B1E0EB1AF108E114F10474
:1042100029F28C2D8D21D801ED91FC910280F38142
:10422000E02D8111ECCF60E3C8010995EBCFED9152
:10423000FC910280F381E02DC8010995AFCF695C44
:10424000C8CF605DD3CFDC011896ED91FC91199732
:1042500080811C969C911C97892359F421E23EE4AD
:1042600005C0215031092115310571F08081892364
:10427000C1F380811E969C911E97892B8083169690
:10428000ED91FC91179760830895FC01878581115A
:104290001DC020910C1B30910D1B80910A1B909129
:1042A0000B1B2817390789F0E0910E1BF0910F1BAB
:1042B000E20FF31F80812F5F3F4F2032310518F14D
:1042C00010920D1B10920C1B0895FFCF2091061B1E
:1042D0003091071B8091041B9091051B281739070B
:1042E00089F0E091081BF091091BE20FF31F808118
:1042F0002F5F3F4F2032310558F01092071B10926C
:10430000061B0895FFCF30930D1B20930C1B0895BF
:104310003093071B2093061B0895DC01ED91FC915F
:104320000280F381E02D6CE00994FC0187858823ED
:1043300069F081E04091061B5091071B2091041BFE
:104340003091051B4217530769F0089581E04091B1
:104350000C1B50910D1B20910A1B30910B1B421717
:10436000530799F780E00895EF92FF921F93CF9340
:10437000DF9300D0CDB7DEB77C01142F69837A8339
:104380000E94201F412F69817A81C70106960E94F1
:10439000E0288AE493E0F701918380831787112353
:1043A000E9F08091C90080688093C90080E290E0C4
:1043B0000E94FB1E9093091B8093081B1092071B01
:1043C0001092061B1092051B1092041B0F900F9069
:1043D000DF91CF911F91FF90EF9008958091C100E0
:1043E00080688093C10080E290E00E94FB1E909361
:1043F0000F1B80930E1B10920D1B10920C1B109222
:104400000B1B10920A1B0F900F90DF91CF911F9101
:10441000FF90EF9008951F920F920FB60F92112404
:104420000BB60F922F933F938F939F93EF93FF932E
:104430002091C600E0910E1BF0910F1B80910A1B8A
:1044400090910B1BE80FF91F208380910A1B90911C
:104450000B1B019680329105C0F490930B1B809347
:104460000A1B20910C1B30910D1B28173907D1F026
:10447000FF91EF919F918F913F912F910F900BBEE4
:104480000F900FBE0F901F90189510920B1B10925B
:104490000A1B80E090E020910C1B30910D1B281727
:1044A000390731F7019690930D1B80930C1B809771
:1044B000F8F210920D1B10920C1BDACF1F920F9284
:1044C0000FB60F9211240BB60F922F933F938F9339
:1044D0009F93EF93FF932091CE00E091081BF09102
:1044E000091B8091041B9091051BE80FF91F208385
:1044F0008091041B9091051B019680329105C0F4B8
:104500009093051B8093041B2091061B3091071B81
:1045100028173907D1F0FF91EF919F918F913F912B
:104520002F910F900BBE0F900FBE0F901F901895FC
:104530001092051B1092041B80E090E02091061B56
:104540003091071B2817390731F701969093071B05
:104550008093061B8097F8F21092071B1092061B9F
:10456000DACFFC010396928381834FEF5FEFBA01AC
:10457000438354836583768390878783928781877B
:1045800010820895FC01138612860895CF93DF935D
:104590009C01FB01DC011196CD91DC911297D58332
:1045A000C4838E819F81978386838E819F81DC0166
:1045B00015967C936E9314977F836E83338722873F
:1045C000F90180818F5F8083DF91CF9108950F93F0
:1045D0001F93CF93DF93EB01088119812A813B81DF
:1045E0000F3F4FEF14072407340731F1DC01139616
:1045F00001C0DF011496ED91FC9115974081518126
:1046000062817381041715072607370790F7FD832A
:10461000EC83D783C683BF83AE831596DC93CE939A
:1046200014979B878A87FC0120812F5F2083DF916D
:10463000CF911F910F910895FC01A185B285149629
:10464000ED91FC911597E3CFCF93DF93FC01A28509
:10465000B3852481358186819781E9019F838E838B
:1046600086819781EC013D832C8311962D913C919D
:1046700012972E173F0741F0138612868C918150B6
:104680008C93DF91CF91089512969C938E931197FE
:10469000138612868C9181508C93DF91CF9108956F
:1046A0009093111B8093101B31E1FC0130833197F3
:1046B00022E22083FC013297A3E3A083FC0133971D
:1046C0006083FC0134977083FC0135971082FC01F4
:1046D000369760E86083FC0137971082FC013897B9
:1046E00062E06083FC01399763E06083FC013A97E4
:1046F00064E06083FC013B9765E06083FC013C97CC
:1047000066E06083FC013D9767E06083FC013E97B3
:1047100068E06083FC013F9769E06083FC0170976B
:1047200060E16083FC0171973083FC01729732E194
:104730003083FC01739733E13083FC01749734E1DB
:104740003083FC01759735E13083FC01769736E1C3
:104750003083FC01779737E13083FC01789738E1AB
:104760003083FC01799739E13083FC017A9730E29C
:104770003083FC017B9731E23083FC017C972083FE
:10478000FC017D9723E22083FC017E974083FC019E
:104790007F975083FC01B09726E22083FC01B197FC
:1047A00027E22083FC01B29728E22083FC01B39723
:1047B00029E22083FC01B49720E32083FC01B59714
:1047C00021E320838697089587E0809329018FEC69
:1047D000809328018AE080932101E3E7F0E0808163
:1047E00082608083A0919F1AB091A01ACD91CDBF15
:1047F000DD91DEBFFF91EF91DF91CF91BF91AF913E
:104800009F918F917F916F915F914F913F912F91E8
:104810001F910F91FF90EF90DF90CF90BF90AF90DE
:104820009F908F907F906F905F904F903F902F90D0
:104830001F900F900FBE0F90089581E00895089586
:104840000F920FB6F8940F921F9211242F923F925D
:104850004F925F926F927F928F929F92AF92BF9290
:10486000CF92DF92EF92FF920F931F932F933F937C
:104870004F935F936F937F938F939F93AF93BF9368
:10488000CF93DF93EF93FF93A0919F1AB091A01A5B
:104890000DB60D920EB60D920E949817A0919F1A18
:1048A000B091A01ACD91CDBFDD91DEBFFF91EF9108
:1048B000DF91CF91BF91AF919F918F917F916F9138
:1048C0005F914F913F912F911F910F91FF90EF902A
:1048D000DF90CF90BF90AF909F908F907F906F9020
:1048E0005F904F903F902F901F900F900FBE0F90B2
:1048F00008950F920FB6F8940F921F9211242F92E1
:104900003F924F925F926F927F928F929F92AF925F
:10491000BF92CF92DF92EF92FF920F931F932F934C
:104920003F934F935F936F937F938F939F93AF9337
:10493000BF93CF93DF93EF93FF93A0919F1AB09112
:10494000A01A0DB60D920EB60D920E94851581111A
:104950000E949817A0919F1AB091A01ACD91CDBF37
:10496000DD91DEBFFF91EF91DF91CF91BF91AF91CC
:104970009F918F917F916F915F914F913F912F9177
:104980001F910F91FF90EF90DF90CF90BF90AF906D
:104990009F908F907F906F905F904F903F902F905F
:1049A0001F900F900FBE0F9008950E9479241895C4
:1049B0001F93CF93DF93EC01142F88A181110DC0B9
:1049C00088819981892B09F44DC080E09E8D9F5F7D
:1049D0009E8FDF91CF911F910895482F50E01111C4
:1049E0001CC08C819D810E94652D28A18C819D8198
:1049F000820F911D9D838C832A813B8182179307AF
:104A000020F3888199819D838C8380E09E8D9F5FB8
:104A10009E8FDF91CF911F9108958E819F810E947B
:104A2000652D28A130E03195219531098E819F8136
:104A3000820F931F9F838E836881798186179707E2
:104A400030F48A819B81820F931F9F838E83123063
:104A500009F0BBCF8E8D882309F4B7CF8E8D81509E
:104A60008E8FB3CF8A819B810E94B4191B821A82D8
:104A7000ADCFFC01CB0140A1442399F050E0268149
:104A80003781240F351F3783268362817381261770
:104A9000370720F02081318137832683B9010C94B8
:104AA000652D08950F931F93CF93DF93EC010FB6FD
:104AB000F8940F928AA11816ECF48B898823D1F010
:104AC0008E010D5E1F4F09C08AA181508AA38AA161
:104AD000181684F48B89882369F0C8010E94401855
:104AE000882391F30E9434198AA181508AA38AA154
:104AF000181684F38FEF8AA30F900FBE0FB6F894A9
:104B00000F9289A11816ECF488858823D1F08E01C4
:104B1000085F1F4F09C089A1815089A389A1181678
:104B200084F48885882369F0C8010E94401888238E
:104B300091F30E94341989A1815089A389A1181683
:104B400084F38FEF89A30F900FBEDF91CF911F9158
:104B50000F910895CF93DF93EC010FB6F8940F9265
:104B6000288139818F8D78A1879FC0011124A901E7
:104B7000480F591F5B834A831E8E3D832C83871BFE
:104B80009109820F931F9F838E838FEF89A38AA33E
:104B9000611112C08885811106C00F900FBE81E09F
:104BA000DF91CF910895CE0108960E944018813080
:104BB000A1F70E942024F1CFCE0108960E94B122D5
:104BC000CE0143960E94B1220F900FBE81E0DF918B
:104BD000CF9108950F931F93CF93DF93182F062F34
:104BE000882301F183E290E00E946912EC010097B2
:104BF000C9F0109FC001112401960E946912998387
:104C00008883892B61F01F8F08A361E0CE010E9489
:104C1000AA25CE01DF91CF911F910F910895CE016A
:104C20000E940213C0E0D0E0CE01DF91CF911F912E
:104C30000F9108956F927F928F929F92AF92BF9241
:104C4000CF92DF92EF92FF920F93CF93DF93CDB786
:104C5000DEB729970FB6F894DEBF0FBECDBF5C015B
:104C60004B012E833F834887598720E03C0188E031
:104C7000680E711C0FB6F8940F92F501968D878D12
:104C8000981708F459C0023009F456C0CE80DF806E
:104C9000E884F984CD28CE28CF2809F46FC02223D8
:104CA00009F441C00F900FBE0E9456150FB6F8943C
:104CB0000F92F50181A18F3F09F43CC0F50182A15B
:104CC0008F3FB1F10F900FBEBE016A5F7F4FCE01E3
:104CD00001960E94D318811155C00FB6F8940F9217
:104CE000F501968D0F900FBEF501878D981314C0B6
:104CF0004E815F8168857985C3010E94E517C501F2
:104D00000E9452250E948916882311F021E0B2CF1B
:104D10000E94202421E0AECFC5010E9452250E94AE
:104D2000891621E0A7CFCE0101960E94C218BACF02
:104D300012A2C8CF11A2C2CF402FB401C5010E9458
:104D4000D824F5019389911124C0811128C00F90B6
:104D50000FBE81E029960FB6F894DEBF0FBECDBF1F
:104D6000DF91CF910F91FF90EF90DF90CF90BF90A8
:104D7000AF909F908F907F906F9008950F900FBE8F
:104D800080E0E8CFC5010E9452250E94891680E08C
:104D9000E1CFC50143960E9440188130C1F60E94C0
:104DA0002024D5CF0F93CF93DF9383E290E00E942E
:104DB0006912EC01009701F11B821A821982188294
:104DC0001D821C821F821E821E8E81E08F8F18A280
:104DD0008FEF89A38AA3CE0108960E94B122CE014B
:104DE00043960E94B12200E020E030E0A90160E09B
:104DF00070E0CE010E941A26CE01DF91CF910F9173
:104E000008950F931F93CF93DF93EC018A019E8D3A
:104E10008F8D981740F0223031F080E0DF91CF91F4
:104E20001F910F910895422FCE010E94D82488230C
:104E300031F00115110519F081E0F80180838AA194
:104E40008F3F49F08AA18F5F8AA381E0DF91CF91E4
:104E50001F910F9108958B898823B9F3CE01439652
:104E60000E944018882389F30115110571F381E030
:104E7000F8018083D3CFAF92BF92CF92DF92EF92AF
:104E8000FF920F93CF93DF93CDB7DEB729970FB67D
:104E9000F894DEBF0FBECDBF7C016B012E833F8334
:104EA0004887598790E0570183E1A80EB11C0FB6DF
:104EB000F8940F92F701868D811169C04E815F8150
:104EC00068857985452B462B472B09F47DC09923AE
:104ED00009F43EC00F900FBE0E9456150FB6F8940D
:104EE0000F92F70181A18F3F09F43EC0F70182A123
:104EF0008F3F09F43FC00F900FBEBE016A5F7F4F26
:104F0000CE0101960E94D318811171C00FB6F8949A
:104F10000F92F701868D0F900FBE81111EC0F70111
:104F200080819181892B41F14E815F8168857985EE
:104F3000C5010E94E517C7010E9452250E948916EB
:104F4000882311F091E0B3CF0E94202491E0AFCFED
:104F5000CE0101960E94C218BDCFC7010E94522502
:104F60000E94891691E0A3CF11A2F70182A18F3F81
:104F700009F0C1CF12A2BFCF0FB6F8940F92F7017C
:104F8000828193810E9459190F900FBECDCFA680C8
:104F9000B780B601C7010E943925F70101112EC063
:104FA000868D8150868F80819181892BB9F1F7019F
:104FB0008085882341F1C70108960E9440188130FE
:104FC00011F50E9420241FC00F900FBE80E029968B
:104FD0000FB6F894DEBF0FBECDBFDF91CF910F911A
:104FE000FF90EF90DF90CF90BF90AF900895C701F2
:104FF0000E9452250E94891680E0E9CFB782A682DE
:105000008389811104C00F900FBE81E0E0CFC701FA
:1050100043960E9440188823B1F3D3CF0E941B1AF5
:10502000F70193838283C3CF0F931F93CF93DF93B3
:1050300000D0CDB7DEB78C01FC01868D811108C090
:1050400080E00F900F90DF91CF911F910F91089505
:10505000C80149835A830E943925F801868D815001
:10506000868F81A149815A818F3F61F0F80181A12A
:105070008F5F81A381E00F900F90DF91CF911F91FF
:105080000F91089580858823A9F3C8010896498364
:105090005A830E94401849815A81882359F3411547
:1050A000510541F381E0FA018083CBCF0F931F9329
:1050B000CF93DF93EC018E8D811106C080E0DF91EC
:1050C000CF911F910F9108950E811F81CE010E94F3
:1050D00039251F830E8381E0DF91CF911F910F91BE
:1050E00008950FB6F8940F92FC01868D0F900FBEB5
:1050F00008950FB6F8940F92FC01268D0F900FBE05
:10510000FC01878D821B0895FC01868D0895CF9345
:10511000DF93EC0188819981009711F00E940213BE
:10512000CE01DF91CF910C940213FC01968D81E0AA
:10513000911180E00895FC01268D81E0978D29135F
:1051400080E00895CF92DF92EF92FF92CF93DF93AA
:10515000EC01688179818A819B8128EEC22E23E04F
:10516000D22EE12CF12CA70196010E94192C9B0153
:10517000AC0160E472E48FE090E00E94F52BA7019F
:1051800096010E94192C69017A01AC81BD8120E44D
:1051900032E44FE050E00E94EA2B20E834E84EE190
:1051A00050E00E94192CC20ED31EE41EF51EC7014A
:1051B000B601DF91CF91FF90EF90DF90CF900895EF
:1051C000CF93DF93EC01442309F441C08EEC90E0CF
:1051D0009983888388EC90E09B838A8389EC90E0B4
:1051E0009D838C8388E18093C90086E08093CA0008
:1051F0001092CD009B0140E050E0220F331F441F6E
:10520000551F220F331F441F551F220F331F441FEA
:10521000551F220F331F441F551F60E074E284EFB7
:1052200090E00E94192C2093CC008091C8008160EE
:105230008093C80080E28E8380E88F8380E4888733
:10524000E881F98180818081DF91CF91089586EC9A
:1052500090E09983888380EC90E09B838A8381EC43
:1052600090E09D838C8388E18093C10086E08093E9
:10527000C2001092C5009B0140E050E0220F331F96
:10528000441F551F220F331F441F551F220F331F6A
:10529000441F551F220F331F441F551F60E074E247
:1052A00084EF90E00E94192C2093C4008091C000EC
:1052B00081608093C000BECFDC011296ED91FC911D
:1052C0001397208116968C91282381E009F480E0C1
:1052D0000895DC011296ED91FC91139720811896A8
:1052E0008C91282381E009F080E00895DF92EF920D
:1052F000FF920F931F93CF93DF937C018B01DC010F
:1053000014966D917C911597C8010E942B1FF7018F
:10531000A481B581FD0101900020E9F73197DE2ECF
:10532000DA1AFFE0FD1580F0C0E0D0E0D801ED9181
:10533000FC910280F381E02D60E2C801099521967D
:105340008C2F8D0D803190F368E072E0C8010E94CF
:105350002B1F66E0C8010E94701FD70116968D9121
:105360009C911797009779F0DC01ED91FC910190E9
:10537000F081E02DB801DF91CF911F910F91FF9047
:10538000EF90DF900994DF91CF911F910F91FF90E3
:10539000EF90DF900895DF92EF92FF920F931F93AB
:1053A000CF93DF937C018B01DC0114966D917C918E
:1053B0001597C8010E942B1FF701A481B581FD013B
:1053C00001900020E9F73197DE2EDA1AFFE0FD1593
:1053D00080F0C0E0D0E0D801ED91FC910280F38133
:1053E000E02D60E2C801099521968C2F8D0D80314A
:1053F00090F368E072E0C8010E942B1F66E0C801CC
:105400000E94701FD70116968D919C911797009757
:1054100079F0DC01ED91FC910190F081E02DB80173
:10542000DF91CF911F910F91FF90EF90DF90099442
:10543000DF91CF911F910F91FF90EF90DF90089532
:10544000DF92EF92FF920F931F93CF93DF937C0134
:105450008B01DC0114966D917C911597C8010E9417
:105460002B1FF701A481B581FD0101900020E9F710
:105470003197DE2EDA1AFFE0FD1580F0C0E0D0E0B3
:10548000D801ED91FC910280F381E02D60E2C8012A
:10549000099521968C2F8D0D803190F368E072E094
:1054A000C8010E942B1F66E0C8010E94701FD7012F
:1054B00016968D919C911797009779F0DC01ED91EC
:1054C000FC910190F081E02DB801DF91CF911F9107
:1054D0000F91FF90EF90DF900994DF91CF911F9192
:1054E0000F91FF90EF90DF9008954F925F926F922F
:1054F0007F928F92AF92CF92DF92EF92FF920F93B3
:105500001F93CF93DF9314BE88E10FB6F894809376
:105510006000109260000FBEE0E9F0E080818163DE
:10552000808380E18DB9E1E9F0E080818B60808348
:10553000E0E8F0E08081816A8083E1E8F0E080814A
:105540008A60808380E190E00E94F41EEC0141E0DB
:1055500060E875E20E94B42167E0CE010E94701FEE
:105560006BE00E94701F8C0164EE70E00E942B1FA4
:1055700066E0C8010E94701F82E090E00E94F41E65
:105580003C01BE010E941B1088E190E00E94F41EC5
:105590002C011AE0E12EF12C00E010E09E014FE01A
:1055A00052E060E270E0C2010E94B61D50925D03BD
:1055B00040925C0389E090E00E94F41E8C0165E15A
:1055C00072E00E942D1A81E592E0F80191838083B8
:1055D00010935903009358038AE090E00E94F41E50
:1055E0008C0165E272E00E942D1A87E592E0F801D5
:1055F0009183808310935B0300935A0389E090E0CA
:105600000E94F41E8C0161E372E00E942D1A8DE568
:1056100092E0F8019183808310935703009356031F
:105620000FB6F8940F928FEFF80180870F900FBE9E
:1056300084E190E00E94F41E2C0186E08F9392E0BA
:10564000892EAA24A394C12C2AE8E22EF12C05E28B
:1056500010E028E230E048E250E0BE01C2010E94C2
:10566000E01084E190E00E94F41E25E02F9337E0E3
:10567000832E46E0A42E55E0C52E68E8E62EF12CD8
:105680002BE230E04BE250E0BE010E94E0100FB68A
:10569000F8940F920F900FBEE0915A03F0915B03C4
:1056A00060857185CE010E94B51F66E00E94701F63
:1056B0000FB6F8940F920F900FBEE0915803F0913F
:1056C00059036085CE010E94E41F66E00E94701FAE
:1056D0000FB6F8940F920F900FBEE0915603F09121
:1056E00057036085CE010E94A22066E00E94701FD1
:1056F00081E290E00E94F41E8E0124E031E041E05E
:105700006EE372E00E94BB0687E190E00E94F41E07
:10571000AA24A3946301720128E131E042E066E427
:1057200072E00E94FC0F0E9419150F900F9080E00C
:1057300090E0DF91CF911F910F91FF90EF90DF905C
:10574000CF90AF908F907F906F905F904F90089523
:105750000E94591B0F93CF93DF931F92CDB7DEB7F3
:105760006983FC01208931894289538900E0BE01A7
:105770006F5F7F4F868597850E941A260F90DF9175
:10578000CF910F910895FC01868597850E9471281D
:1057900091E0811101C090E0892F08950F93CF937C
:1057A000DF931F92CDB7DEB700E02FEF3FEFA901E7
:1057B000BE016F5F7F4FFC01868597850E943B2766
:1057C000813031F489810F90DF91CF910F9108954D
:1057D0008FEFF9CF0E94602CA59F900DB49F900D84
:1057E000A49F800D911D11240895DB018F939F9339
:1057F0000E94EA2BBF91AF91A29F800D911DA39FA4
:10580000900DB29F900D11240895AA1BBB1B51E16E
:1058100007C0AA1FBB1FA617B70710F0A61BB70B20
:10582000881F991F5A95A9F780959095BC01CD01C5
:105830000895A1E21A2EAA1BBB1BFD010DC0AA1FD1
:10584000BB1FEE1FFF1FA217B307E407F50720F0E9
:10585000A21BB30BE40BF50B661F771F881F991F64
:105860001A9469F760957095809590959B01AC01AD
:10587000BD01CF010895052E97FB1EF400940E94F0
:10588000522C57FD07D00E94192C07FC03D04EF470
:105890000C94522C50954095309521953F4F4F4F89
:1058A0005F4F089590958095709561957F4F8F4FCC
:1058B0009F4F0895EE0FFF1F0590F491E02D09947E
:1058C000A29FB001B39FC001A39F700D811D112441
:1058D000911DB29F700D811D1124911D08950CD052
:1058E000BAC0B2D040F0A9D030F021F45F3F19F037
:1058F0009BC05111E4C09EC0BFD098F39923C9F357
:105900005523B1F3951B550BBB27AA2762177307C5
:10591000840738F09F5F5F4F220F331F441FAA1F79
:10592000A9F333D00E2E3AF0E0E830D09150504039
:10593000E695001CCAF729D0FE2F27D0660F771FE7
:10594000881FBB1F261737074807AB07B0E809F0C9
:10595000BB0B802DBF01FF2793585F4F2AF09E3F5E
:10596000510568F061C0ABC05F3FECF3983EDCF3DB
:10597000869577956795B795F7959F5FC9F7880FD7
:10598000911D9695879597F90895E1E0660F771F29
:10599000881FBB1F621773078407BA0720F0621BBA
:1059A000730B840BBA0BEE1F88F7E0950895E8940B
:1059B00009C097FB3EF490958095709561957F4F57
:1059C0008F4F9F4F9923A9F0F92F96E9BB27939505
:1059D000F695879577956795B795F111F8CFFAF415
:1059E000BB0F11F460FF1BC06F5F7F4F8F4F9F4F46
:1059F00016C0882311F096E911C0772321F09EE8A4
:105A0000872F762F05C0662371F096E8862F70E009
:105A100060E02AF09A95660F771F881FDAF7880FE3
:105A20009695879597F9089597F99F6780E870E0B4
:105A300060E008959FEF80EC089500240A94161604
:105A4000170618060906089500240A94121613066C
:105A5000140605060895092E0394000C11F48823FA
:105A600052F0BB0F40F4BF2B11F460FF04C06F5F16
:105A70007F4F8F4F9F4F089557FD9058440F551FEC
:105A800059F05F3F71F04795880F97FB991F61F0C0
:105A90009F3F79F087950895121613061406551F37
:105AA000F2CF4695F1DF08C0161617061806991FA3
:105AB000F1CF86957105610508940895E894BB2798
:105AC00066277727CB0197F90895FB01DC0102C017
:105AD00001900D9241505040D8F70895DC0101C06B
