:100000000C941F070C944E070C944E070C944E074B
:100010000C944E070C944E070C944E070C944E070C
:100020000C944E070C944E070C944E070C944E07FC
:100030000C944E070C944E070C944E070C944E07EC
:100040000C944E070C944E070C944E070C944E07DC
:100050000C944E070C944E070C944E070C944E07CC
:100060000C944E070C944D350C944E070C944E078F
:100070000C944E070C944E070C944E070C944E07AC
:100080000C944E070C944E070C944E070C944E079C
:100090000C94A0350C944E070C944E070C944E070C
:1000A0000C944E070C944E070C944E070C944E077C
:1000B0000C944E070C944E070C944E070C94173872
:1000C0000C944E070C944E070C944E0776317F31FA
:1000D0008231853178317831883198319F31A6313C
:1000E000AA317C314D45343035204C6162203520B9
:1000F000494D5520436F6E74726F6C6C6572004988
:100100006C6C6567616C2073746174652120526545
:1001100073657474696E672041565200223A205705
:1001200054463F001B5B33326D001B5B33306D0068
:100130001B5B34376D007C090920277127202020A4
:10014000207175697420746F206D61696E206D6512
:100150006E752020202020202020202020202020FC
:100160002009097C007C2D2D2D2D2D2D2D2D2D2DA3
:100170002D2D2D2D2D2D2D2D2D2D2D2D2D2D2D2DAF
:100180002D2D2D2D2D2D2D2D2D2D2D2D2D2D2D2D9F
:100190002D2D2D2D2D2D2D2D2D2D2D2D2D2D2D2D8F
:1001A0002D2D2D2D2D2D2D2D2D2D2D2D207C007C1B
:1001B0000909202020202020202020204A6F795368
:1001C0007469636B20436F6E74726F6C204D6F6443
:1001D0006520202020202020202009097C007C0987
:1001E0000920277127202020207175697420746FE1
:1001F000206D61696E206D656E75202020202020A5
:1002000020202020202020202009097C007C0909B2
:100210002020202055736520746865204A6F79532B
:100220007469636B20746F206D6F76652061726FE7
:10023000756E64202020202009097C007C2D2D2D46
:100240002D2D2D2D2D2D2D2D2D2D2D2D2D2D2D2DDE
:100250002D2D2D2D2D2D2D2D2D2D2D2D2D2D2D2DCE
:100260002D2D2D2D2D2D2D2D2D2D2D2D2D2D2D2DBE
:100270002D2D2D2D2D2D2D2D2D2D2D2D2D2D2D2DAE
:100280002D2D2D207C007C090920202020202020DD
:10029000202020447269766520436F6E74726F6C03
:1002A000204D6F6465202020202020202020202049
:1002B0002009097C00494D5520444154413A200011
:1002C00009092D3E207072657373202772272074F0
:1002D0006F207265667265736820007C09092027AB
:1002E0007127202020207175697420746F206D6142
:1002F000696E206D656E7520202020202020202032
:1003000020202020202009097C007C090920277258
:100310002720202020526566726573682074686506
:1003200020646174612020202020202020202020B3
:10033000202020202009097C007C2D2D2D2D2D2D05
:100340002D2D2D2D2D2D2D2D2D2D2D2D2D2D2D2DDD
:100350002D2D2D2D2D2D2D2D2D2D2D2D2D2D2D2DCD
:100360002D2D2D2D2D2D2D2D2D2D2D2D2D2D2D2DBD
:100370002D2D2D2D2D2D2D2D2D2D2D2D2D2D2D2DAD
:10038000207C007C09092020202020202020202003
:10039000494D5520436F6E74726F6C204D6F6475BC
:1003A0006C652020202020202020202020200909EA
:1003B0007C00456E636F64657220436F756E743A9E
:1003C0002000456E636F646572205469636B732F00
:1003D0006D733A200009092D3E20707265737320F9
:1003E00027722720746F207265667265736820001B
:1003F0007C0909202771272020202071756974202D
:10040000746F206D61696E206D656E7520202020EF
:10041000202020202020202020202009097C007C72
:1004200009092027722720202020526566726573F3
:100430006820746865206461746120202020202079
:100440002020202020202020202009097C007C2D35
:100450002D2D2D2D2D2D2D2D2D2D2D2D2D2D2D2DCC
:100460002D2D2D2D2D2D2D2D2D2D2D2D2D2D2D2DBC
:100470002D2D2D2D2D2D2D2D2D2D2D2D2D2D2D2DAC
:100480002D2D2D2D2D2D2D2D2D2D2D2D2D2D2D2D9C
:100490002D2D2D2D2D207C007C09092020202020B1
:1004A000202020456E636F64657220436F6E747206
:1004B0006F6C204D6F64756C6520202020202020FB
:1004C00020202009097C004D4520343035204C6126
:1004D00062203520494D552054657374696E67005C
:1004E0004A756E20203720323031360053797374CC
:1004F000656D2074696D653A20002C204865617037
:100500003A20002C204F435235413A20003C696E7E
:1005100076616C69642063686172202200223E006B
:100520002020683A202020202048414C50210020E3
:100530002043746C2D433A205265736574207468AF
:1005400065204156520020206E3A20202020204570
:100550006E7465722061206E756D6265722028640C
:10056000656D6F29002020643A20202020205374DC
:1005700061636B2064756D7020666F7220746173A7
:100580006B73002020733A20202020205665727360
:10059000696F6E20616E6420736574757020696E7A
:1005A000666F726D6174696F6E002020743A20204E
:1005B00020202053686F77207468652074696D650A
:1005C000207269676874206E6F77004D4520343063
:1005D00035204C6162203520494D55205465737497
:1005E000696E67002068656C7000446562756767B6
:1005F000696E6720496E666F3A20002D2D2D2D2DD6
:100600002D2D09092D2D2D2D2D2D2D2D092D2D2D86
:100610002D2D2D2D09092D2D2D2D2D2D2D2D2D2D52
:100620002D004D6F746F720909536574506F696EB8
:10063000740920506F7765720909456E636F6465B0
:1006400072436F756E74002D2D2D2D2D2D2D0909E2
:100650002D2D2D2D2D2D2D2D092D2D2D2D2D2D2DEE
:1006600009092D2D2D2D2D2D2D2D2D2D2D004D6FCD
:10067000746F72203109090009000900090009009E
:1006800009002D2D2D2D2D2D2D09092D2D2D2D2D33
:100690002D2D2D092D2D2D2D2D2D2D09092D2D2DF6
:1006A0002D2D2D2D2D2D2D2D005354455F50090935
:1006B0004E636F6465722F730920582D444952436D
:1006C0000909592D44495243002D2D2D2D2D2D2D35
:1006D00009092D2D2D2D2D2D2D2D092D2D2D2D2DB6
:1006E0002D2D09092D2D2D2D2D2D2D2D2D2D2D00AF
:1006F0004D6F746F7220310909000900090009006B
:10070000090009002D2D2D2D2D2D2D09092D2D2D03
:100710002D2D2D2D2D092D2D2D2D2D2D2D09092D75
:100720002D2D2D2D2D2D2D2D2D2D004D6F746F72F6
:1007300009095374617475730909506F77657209FB
:1007400009446972656374696F6E002D2D2D2D2D1E
:100750002D2D09092D2D2D2D2D2D2D2D092D2D2D35
:100760002D2D2D2D09092D2D2D2D2D2D2D2D2D2D01
:100770002D004D6F746F72203109090009000909BD
:10078000007C090920277127202020202052657431
:1007900075726E20746F2070726576696F75732044
:1007A0006D656E752009097C007C0909202770277A
:1007B0002020202020456E74657220506F74656E75
:1007C00074696F6D65746572204D6F646509097C8D
:1007D000007C0909202766272020202020467265FA
:1007E00065776865656C206D6F746F7220202020BE
:1007F000202020202009097C007C0909202762276D
:1008000020202020204170706C7920746865206D54
:100810006F746F72206272616B6520202009097C01
:10082000007C09092027732720202020205365748D
:1008300020746865206D6F746F7220706F776572B9
:10084000202020202009097C007C2D2D2D2D2D2DF0
:100850002D2D2D2D2D2D2D2D2D2D2D2D2D2D2D2DC8
:100860002D2D2D2D2D2D2D2D2D2D2D2D2D2D2D2DB8
:100870002D2D2D2D2D2D2D2D2D2D2D2D2D2D2D2DA8
:100880002D2D2D2D2D2D2D2D2D7C007C0909202089
:100890002053696E676C65204D6F746F7220436FD3
:1008A0006E74726F6C204D6F64756C65202020092A
:1008B000097C007C0909202020204D61696E204DB3
:1008C0006F746F7220436F6E74726F6C204D6F6423
:1008D000756C652020202009097C007C2D2D2D2D94
:1008E0002D2D2D2D2D2D2D2D2D2D2D2D2D2D2D2D38
:1008F0002D2D2D2D2D2D2D2D2D2D2D2D2D2D2D2D28
:100900002D2D2D2D2D2D2D2D2D2D2D2D2D2D2D2D17
:100910002D2D2D2D2D2D2D2D2D2D2D7C007C0909DE
:10092000202731272020202020746F206F706572CF
:10093000617465204D6F746F72203120202020205B
:100940002009097C007C090920273227202020204B
:1009500020746F206F706572617465204D6F746FC5
:1009600072203220202020202009097C007C0909E7
:1009700020277127202020202052657475726E2058
:10098000746F204D61696E204D656E7520202020AA
:100990002009097C001B5B34376D001B5B33316D14
:1009A000004D4520343035204C6162203520494DC2
:1009B000552054657374696E670009090920202069
:1009C00020004A756E2020372032303136001B5B04
:1009D00033306D007C0909202020204D6973736934
:1009E0006F6E20436F6E74726F6C2050726F6772FF
:1009F000616D2076312E302020202009097C007C7A
:100A00002D2D2D2D2D2D2D2D2D2D2D2D2D2D2D2D16
:100A10002D2D2D2D2D2D2D2D2D2D2D2D2D2D2D2D06
:100A20002D2D2D2D2D2D2D2D2D2D2D2D2D2D2D2DF6
:100A30002D2D2D2D2D2D2D2D2D2D2D2D2D2D2D7C97
:100A4000007C0909202020202020202020456E74D1
:100A50006572204D6F746F7220436F6E74726F6C8D
:100A6000204D6F64756C6520202009097C001B5B9C
:100A700034376D007C0909202020202020202020F0
:100A8000456E74657220456E636F64657220436FB6
:100A90006E74726F6C204D6F64756C652009097CF3
:100AA000007C0909202020202020202020456E7471
:100AB000657220494D5520436F6E74726F6C204DE6
:100AC0006F64756C65202020202009097C007C095A
:100AD00009202020202020202020456E74657220CF
:100AE0004472697665204D6F6465202020202020A7
:100AF0002020202020202009097C007C09092020BA
:100B000020202020202020446973706C61792061AE
:100B10006C6C206F7074696F6E7320202020202011
:100B20002020202009097C007C0909202020202089
:100B300020202020526573657420415652202020C9
:100B400020202020202020202020202020202020A5
:100B50002009097C00204552524F523A200043752B
:100B60007272656E74204368616E6E656C205265AA
:100B70006164696E67733A2000456E642050726943
:100B80006E74204461746100546869732048435452
:100B90004C2D32303030206973207573696E6720B8
:100BA00074686573652070696E733A004F452070F4
:100BB000696E3A20005368617261626C65207069E9
:100BC0006E733A0053454C2070696E3A20004461C0
:100BD00074612062757320706F72743A2000496EE0
:100BE000697469616C697A6564204932433A20000E
:100BF0004D6F746F722044726976657220496E7011
:100C000075743A2000536572766F20447269766578
:100C10007220496E7075743A2000534869667420DA
:100C200044726976657220496E7075743A2000507E
:100C30004F52543A20004E6F2073686172656420F1
:100C400064617461206974656D7320746F207072C3
:100C5000696E74002D2D2D2D202020202020202095
:100C6000202020202D2D2D2D202020202D2D2D2D1C
:100C70002D2D2D2D2D2D0053686172652F51756519
:100C80007565202020202054797065202020204682
:100C90007265652F546F74616C004552524F52203B
:100CA0006372656174696E67207461736B202200E2
:100CB0005461736B20220022206372656174656445
:100CC0002C20737461636B20617420307800494478
:100CD0004C45090930092D09002F0009092D002D67
:100CE0002D2D2D09092D2D2D2D092D2D2D2D2D00CD
:100CF000092D2D2D2D2D2D2D2D2D2D00092D2D2D99
:100D00002D004E616D6509095072692E0953746199
:100D100074650009467265652F546F74616C000933
:100D200052756E73005461736B090920200920000D
:100D300009537461636B00090009002F0009000961
:100D40000000407A10F35A00A0724E18090010A556
:100D5000D4E80000E87648170000E40B54020000D5
:100D6000CA9A3B000000E1F505000080969800005B
:100D70000040420F000000A0860100000010270084
:100D8000000000E803000000006400000000000A0A
:100D900000000000000100000000002C76D888DC74
:100DA000674F0823DFC1DFAE59E1B1B796E5E3E451
:100DB00053C63AE651997696E8E6C28426EB898CCA
:100DC0009B62ED407C6FFCEFBC9C9F40F2BAA56F2C
:100DD000A5F490055A2AF75C936B6CF9676DC11BFB
:100DE000FCE0E40D47FEF520E6B500D0ED902E03C3
:100DF00000943577050080841E080000204E0A000C
:100E00000000C80C333333330F986E12831141EF57
:100E10008D2114893BE65516CFFEE6DB18D1844BB5
:100E2000381BF77C1D901DA4BBE424203284725E25
:100E3000228100C9F124ECA1E53D2700A93C112441
:100E40001FBECFEFD1E2DEBFCDBF17E0A0E0B2E022
:100E5000ECE5F1E800E00BBF02C007900D92A03274
:100E6000B107D9F71EE1A0E2B7E001C01D92AE3F85
:100E7000B107E1F71EE0CEE3DEE000E006C0229716
:100E80000109FE010BBF0E94873DCC33D10780E0F2
:100E90000807A9F70E94973A0C94AC400C94000004
:100EA0000F931F93CF93DF93EC018BA58111AFC0FC
:100EB0006BE08E819F810E9469318C0165E979E048
:100EC0000E9424316BE0C8010E9469318C016BE9FA
:100ED00079E00E94243166E0C8010E9469316BE02C
:100EE0000E9469318C0161EA79E00E94243166E058
:100EF000C8010E94693166E00E9469316BE00E947E
:100F000069318C016AEB79E00E9424316BE0C80101
:100F10000E9469318C0162EC79E00E94243166E024
:100F2000C8010E9469316BE00E9469318C016EEC4E
:100F300079E00E9424316BE0C8010E9469318C0184
:100F400064ED79E00E94243166E0C8010E946931B5
:100F50006BE00E9469318C016FEF79E00E942431CF
:100F600066E0C8010E9469316BE00E9469318C0122
:100F700061E47AE00E9424316BE0C8010E9469318B
:100F80008C016EE67AE00E94243166E0C8010E947E
:100F900069316BE00E9469318C0164E77AE00E945C
:100FA000243166E0C8010E9469316BE00E9469311A
:100FB0008C0161EA7AE00E94243166E0C8010E9457
:100FC00069316BE00E9469318C016EEC7AE00E941D
:100FD000243166E0C8010E9469316BE00E946931EA
:100FE0008C016BEF7AE00E94243166E0C8010E9418
:100FF00069316BE00E9469318C0168E27BE00E94FC
:10100000243166E0C8010E94693181E08BA7DF913D
:10101000CF911F910F9108950F931F93CF93DF935B
:10102000EC018BA5811146C066E08E819F810E94F4
:10103000693166E00E9469316BE00E9469318C0180
:1010400063EB78E00E94243166E0C8010E946931B8
:101050006BE00E9469318C016BED78E00E942431D5
:1010600066E0C8010E9469316BE00E9469318C0121
:101070006DE179E00E94243166E0C8010E94693187
:101080006BE00E9469318C0165E479E00E942431B3
:1010900066E0C8010E9469316BE00E9469318C01F1
:1010A0006DE679E00E94243166E0C8010E94693152
:1010B00081E08BA7DF91CF911F910F9108950F933E
:1010C0001F93CF93DF93EC018BA5811169C066E07C
:1010D0008E819F810E9469316BE08E819F810E9489
:1010E00069318C016BE878E00E94243166E0C80128
:1010F0000E9469316BE08E819F810E9469318C0171
:1011000069E478E00E94243166E0C8010E946931F8
:101110006BE08E819F810E9469318C0161E278E0F1
:101120000E94243166E0C8010E9469316BE08E8123
:101130009F810E9469318C0169EF77E00E94243120
:1011400066E0C8010E9469316BE08E819F810E9438
:1011500069318C0161ED77E00E94243166E0C801BD
:101160000E9469316BE08E819F810E9469318C0100
:1011700069EA77E00E94243166E0C8010E94693183
:101180006BE08E819F810E9469318C0161E877E07C
:101190000E94243166E0C8010E94693181E08BA77A
:1011A000DF91CF911F910F9108952F923F924F920F
:1011B0005F926F927F928F929F92AF92BF92CF92E7
:1011C000DF92EF92FF920F931F93CF93DF93EC0187
:1011D0008BA5811176C188A1811186C16CE4A62EF0
:1011E00063E0B62E58E4E52E53E0F52E66E08E81DE
:1011F0009F810E946931CC8CDD8C6BE08E819F8158
:101200000E9469318C0164E077E00E94243166E03D
:10121000C8010E9469316BE00E9469318C016BE268
:1012200077E00E94243166E0C8010E9469316BE0DA
:101230000E9469318C016BE477E00E94243166E002
:10124000C8010E9469316BE00E9469318C0162E73C
:1012500077E00E942431B501C8010E9424316BE07F
:10126000C8010E9469318C016CE777E00E9424314B
:10127000B601C8010E94C5326BE00E9469318C0141
:101280006EE777E00E942431B701C8010E94243143
:1012900066E0C8010E94693166E00E94693129A4B4
:1012A0003AA44FA058A40FB6F8940F92E0912C07DF
:1012B000F0912D07008511850F900FBE0FB6F894A1
:1012C0000F92E0913407F0913507C084D184E28415
:1012D000F3840F900FBE0FB6F8940F92E091380789
:1012E000F0913907A084B1840F900FBE0FB6F89427
:1012F0000F92E0913A07F0913B07808491840F9020
:101300000FBE66E08E819F810E9469316BE00E9472
:1013100069313C016AEE75E00E94243166E0C30148
:101320000E9469316BE00E9469313C016BEF75E00E
:101330000E94243166E0C3010E9469316BE00E9483
:1013400069313C0162E276E00E94243166E0C3012B
:101350000E9469316BE00E9469313C0167E476E0EC
:101360000E94243166E0C3010E9469316BE00E9453
:1013700069313C016EE676E00E942431B401C3017C
:101380000E94C5326BE00E9469314C0168E776E04B
:101390000E9424316BE0C4010E9469314C016AE76C
:1013A00076E00E942431B501C4010E94C5326BE091
:1013B0000E9469315C016CE776E00E9424316BE0A9
:1013C000C5010E9469315C016EE776E00E9424311C
:1013D000B701A601C5010E94F4326BE00E94693199
:1013E0007C0160E876E00E94243166E0C7010E943B
:1013F00069316BE00E9469317C0162E876E00E940D
:10140000243166E0C7010E9469316BE00E946931B6
:101410007C0169EA76E00E94243166E0C7010E94FF
:1014200069316BE00E9469317C0169EC76E00E94D1
:10143000243166E0C7010E9469316BE00E94693186
:101440007C0160EF76E00E942431B801C7010E9460
:10145000C5326BE00E9469318C016AEF76E00E9430
:1014600024316BE0C8010E9469318C016CEF76E099
:101470000E942431B201C8010E94C5326BE00E9473
:1014800069318C016EEF76E00E9424316BE0C80177
:101490000E9469318C0160E077E00E942431B10143
:1014A000C8010E94C5326BE00E9469318C0162E084
:1014B00077E00E94243166E0C8010E94693181E032
:1014C0008BA7DF91CF911F910F91FF90EF90DF904D
:1014D000CF90BF90AF909F908F907F906F905F90D4
:1014E0004F903F902F9008958130C9F0823091F055
:1014F0008330F9F076E6A72E73E0B72E8C8D9D8DA4
:1015000097FD12C0892B09F46DCE4DE5E42E43E022
:10151000F42E6CCE96E7A92E93E0B92EEFCF2FE7ED
:10152000A22E23E0B22EEACF35E5E32E33E0F32EF0
:101530005DCE8DE6A82E83E0B82EE0CF0F931F93EB
:10154000CF93DF93EC0166E08E819F810E94693129
:101550006BE00E9469318C016BEC75E00E942431D4
:101560006BE0C8010E9469318C0164EE75E00E9455
:10157000243166E0C8010E9469316BE08E819F8151
:101580000E9469318C016AEA75E00E94243166E0AC
:10159000C8010E9469316BE08E819F810E94693190
:1015A0008C0163E875E00E94243166E0C8010E9466
:1015B00069316BE08E819F810E9469318C0165E603
:1015C00075E00E94243166E0C8010E9469316BE039
:1015D0008E819F810E9469318C0166E475E00E94D2
:1015E000243166E0C8010E9469316BE08E819F81E1
:1015F0000E9469318C016FE275E00E94243166E03F
:10160000C8010E9469316BE08E819F810E9469311F
:10161000EC0160E275E00E94243166E0CE01DF91CA
:10162000CF911F910F910C946931CF93DF93EC010F
:101630008E819F81DC01ED91FC910480F581E02D8C
:101640000995811104C080E0DF91CF9108958E81CA
:101650009F81DC01ED91FC910680F781E02D0995D9
:101660008A8B81E0DF91CF910895CF93DF93CDB73F
:10167000DEB72D970FB6F894DEBF0FBECDBF8C013D
:10168000DC0154961C921E925397F801848588239E
:10169000F1F0813009F456C06BE0F8018681978142
:1016A0000E9469318C016FEF70E00E94243166E086
:1016B000C8010E9469312BE088E190E00FB6F894F0
:1016C000A895809360000FBE20936000FFCFC801F3
:1016D0000E945007C8010E94150B882399F1D80178
:1016E00052962C9152972C3609F443C0223709F4B4
:1016F000C8C2293609F48EC0D8011696ED90FC9028
:101700001797D701ED91FC910280F381E02D62E201
:10171000C7012D870995D701ED91FC910280F381D6
:10172000E02D2D85622FC70109956BE0C7010E944E
:1017300069317C016CE171E00E94243166E0C701EF
:101740000E946931D8011E964D915D916D917C91F9
:1017500051974F5F5F4F6F4F7F4FF8014687578715
:10176000608B718B61E070E080E090E00E94292A3C
:101770008CCF0FB6F8940F92E0912407F0912507D3
:10178000C084D1840F900FBEF801E680F7806FEC23
:1017900073E0C7010E942431B601C7010E94C5321F
:1017A00066E00E9469310FB6F8940F92E09122072B
:1017B000F0912307C084D1840F900FBED8011696F4
:1017C000ED90FC90179769ED73E0C7010E942431FA
:1017D000B601C7010E94C53266E00E9469310FB6AA
:1017E000F8940F92E0912007F0912107C084D184F2
:1017F0000F900FBEF801E680F78060EE73E0C7013E
:101800000E942431B601C7010E94C53266E00E94E1
:10181000693198CF1696ED90FC90179768E873E0C1
:10182000C7010E94243166E0C7010E946931F801B6
:10183000E680F78069E973E0C7010E94243166E021
:10184000C7010E94693163E00E946931D8015A964C
:101850008D919C915B970E945E1663E0F8018681F2
:1018600097810E94693166E00E94693166E00E94BA
:101870006931D8015A968D919C915B970E943819D5
:10188000D82EF801E680F7806AEA73E0C7010E946B
:1018900024316D2DC7010E94F43066E00E94693149
:1018A000D8011696ED90FC90179768EB73E0C7018E
:1018B0000E94243166E0C7010E94693162E00E9403
:1018C00069310FB6F8940F92E0912407F091250743
:1018D000C084D1840F900FBEF801E680F7806FECD2
:1018E00073E0C7010E942431B601C7010E94C532CE
:1018F00066E00E9469310FB6F8940F92E0912207DA
:10190000F0912307C084D1840F900FBED8011696A2
:10191000ED90FC90179769ED73E0C7010E942431A8
:10192000B601C7010E94C53266E00E9469310FB658
:10193000F8940F92E0912007F0912107C084D184A0
:101940000F900FBEF801E680F78060EE73E0C701EC
:101950000E942431B601C7010E94C53266E00E9490
:10196000693166E0D80116968D919C9117970E9477
:101970006931F801828D938D0E94BE16D82ED80150
:101980001696ED90FC90179768EE73E0C7010E94E1
:1019900024316D2DC7010E94263366E00E94693113
:1019A000F801E680F78060E074E0C7010E9424310E
:1019B00066E0C7010E946931D8015A966D917C9109
:1019C0005B974AE1CE0101960E943817C980DA8000
:1019D000EB80FC80C0923E07D0923F07E092400728
:1019E000F09241078D819E81AF81B8858093420737
:1019F00090934307A0934407B093450789859A8540
:101A0000AB85BC858093460790934707A093480712
:101A1000B0934907F801A680B78064E474E0C5017B
:101A20000E94243162E0C5010E9469315C01C70156
:101A3000B6010E94F33DC5010E94C53266E00E94D6
:101A400069316091420770914307809144079091FA
:101A500045070E94F33D6B017C01D8011696AD90BD
:101A6000BC90179763E574E0C5010E94243162E0E1
:101A7000C5010E946931B6010E94C53266E00E942C
:101A800069316091460770914707809148079091AE
:101A900049070E94F33D6B017C01F801A680B780E5
:101AA00062E674E0C5010E94243162E0C5010E9433
:101AB0006931B6010E94C53266E00E94693121EEAB
:101AC0003EE245E652E460913E0770913F07809107
:101AD0004007909141070E94B23E60933E07709389
:101AE0003F07809340079093410721EE3EE245E691
:101AF00052E46091420770914307809144079091AE
:101B000045070E94B23E609342077093430780935B
:101B100044079093450721EE3EE245E652E460918A
:101B200046077091470780914807909149070E94A6
:101B3000B23E60934607709347078093480790939F
:101B4000490766E0D80116968D919C9117970E94DF
:101B50006931F801E680F78061E274E0C7010E9414
:101B6000243166E0C7010E946931C0903E07D090E1
:101B70003F07E0904007F0904107D8011696AD90DE
:101B8000BC90179760E474E0C5010E94243162E0C4
:101B9000C5010E946931B701A6010E943E3266E08C
:101BA0000E946931C0904207D0904307E0904407FB
:101BB000F0904507F801A680B7806FE474E0C50196
:101BC0000E94243162E0C5010E946931B701A6017B
:101BD0000E943E3266E00E946931C0904607D09074
:101BE0004707E0904807F0904907D8011696AD9056
:101BF000BC9017976EE574E0C5010E94243162E045
:101C0000C5010E946931B701A6010E943E3266E01B
:101C10000E94693166E0F801868197810E946931EE
:101C2000D8011696ED90FC9017976DE674E0C70109
:101C30000E94243166E0C7010E946931F801828D5B
:101C4000938D0E94411A6BE0D80116968D919C915C
:101C500017970E9469317C0164E271E00E9424318F
:101C600069E874E0C7010E94243166E0C7010E9460
:101C700069316BE00E9469316AE271E00E942431AF
:101C800061CDF801E680F78063E974E0C7010E9446
:101C9000243166E0C7010E946931D8015A968D91BE
:101CA0009C915B970E94D1164DCDCF92DF92FF920F
:101CB0000F931F93CF93DF931F92CDB7DEB76C01C5
:101CC000DC0154961C921E925397F12CF6018681EA
:101CD0009781DC01ED91FC910480F581E02D09955F
:101CE000882309F440C0F60186819781DC01ED91DB
:101CF000FC910680F781E02D0995282FF601828B53
:101D000080ED820F8A3008F458C02D3209F478C073
:101D1000213709F498C02A3009F47FC02D3009F426
:101D200084C02B3109F481C06BE0F6018681978174
:101D300029830E9469318C016DE075E00E94243195
:101D4000D801ED91FC910280F381E02D2981622F71
:101D5000C80109956BE0C8010E9469316DE175E029
:101D60000E942431B3CF80913C0790913D07DC0164
:101D7000ED91FC910480F581E02D0995882309F40B
:101D8000A5CFD6011696ED91FC9117970190F081A1
:101D9000E02D0281138180913C0790913D07DC0189
:101DA000ED91FC910680F781E02D0995682FF601F1
:101DB00086819781F801099589CF86819781DC0119
:101DC000ED91FC910280F381E02D622F0995F601DF
:101DD00023893489C901880F991F220F331F220FCD
:101DE000331F220F331F820F931F2289332727FDB2
:101DF000309520533109820F931F948B838B66CFCC
:101E000086819781DC01ED91FC910280F381E02DC8
:101E10006DE20995FF24F39459CF6DEA74E0F60161
:101E2000868197810E94243151CFFF2061F0D60135
:101E300053968D919C9154979195819591095496C3
:101E40009C938E9353970F90DF91CF911F910F9199
:101E5000FF90DF90CF9008958F929F92AF92BF92A4
:101E6000CF92DF92EF92FF920F931F93CF93DF9366
:101E700000D000D000D0CDB7DEB78C0119821A8215
:101E80001B821C821E821D82C0902801D0902901D5
:101E90000E9429225C01CE0101960E94BF304C01B4
:101EA00066E0F801868197810E9469316BE00E94AB
:101EB00069317C0167EC74E00E9424316BE0C7015A
:101EC0000E9469317C0160EE74E00E94243166E07A
:101ED000C7010E9469316BE00E9469317C016CEEA0
:101EE00074E00E942431B401C7010E945E306BE0AF
:101EF0000E9469317C016AEF74E00E942431B501CF
:101F0000C7010E9462337C016FEA74E00E942431B1
:101F100048E357E160E070E0C7010E949C336BE04A
:101F20000E9469317C0163E075E00E942431B601B2
:101F3000C7010E94623366E00E94693166E00E9438
:101F40006931F801868197810E94102F66E0F801BF
:101F5000868197810E946931F801868197810E946C
:101F6000332D26960FB6F894DEBF0FBECDBFDF919E
:101F7000CF911F910F91FF90EF90DF90CF90BF9086
:101F8000AF909F908F9008950FB6F8940F92E091C4
:101F90003607F091370720870F900FBE0FB6F894E1
:101FA0000F92E0913A07F0913B07518740870F90DD
:101FB0000FBEFC0120A3558F448F08956150710915
:101FC00081E06230710508F080E00895FC0113A6FD
:101FD0000895AF92BF92CF92DF92EF92FF920F934C
:101FE0001F93CF93DF93EC018BA5811185C06BE02C
:101FF0008E819F810E9469318C0168E974E00E94A2
:10200000243166E0C8010E9469316BE08E819F81B6
:102010000E9469318C016EE474E00E94243166E014
:10202000C8010E9469316BE08E819F810E946931F5
:102030008C016FE174E00E94243166E0C8010E94C7
:1020400069316BE08E819F810E9469318C0160EF64
:1020500073E00E94243166E0C8010E9469310FB626
:10206000F8940F92E0913207F0913307A084B18485
:102070000F900FBE0FB6F8940F92E0913407F091D5
:102080003507C084D184E284F3840F900FBE6BE0E7
:102090008E819F810E9469318C0162EB73E00E9406
:1020A0002431B701A601C8010E94F43266E00E9403
:1020B00069316BE00E9469318C0162EC73E00E942F
:1020C0002431B501C8010E94C53266E00E94693121
:1020D00066E00E9469316BE00E9469318C0165ED18
:1020E00073E00E94243166E0C8010E94693166E015
:1020F0000E94693181E08BA7DF91CF911F910F91F1
:10210000FF90EF90DF90CF90BF90AF900895CF9267
:10211000DF92EF92FF920F931F93CF93DF93EC0127
:102120008BA581116BC06BE08E819F810E9469310C
:102130008C0163E873E00E94243166E0C8010E94CC
:1021400069316BE08E819F810E9469318C0169E366
:1021500073E00E94243166E0C8010E9469316BE09F
:102160008E819F810E9469318C016AE073E00E9438
:10217000243166E0C8010E9469316BE08E819F8145
:102180000E9469318C016BED72E00E94243166E09F
:10219000C8010E9469310FB6F8940F92E09134079C
:1021A000F0913507C084D184E284F3840F900FBE90
:1021B0006BE08E819F810E9469318C0165EB72E03A
:1021C0000E942431B701A601C8010E94F43266E0E2
:1021D0000E94693166E00E9469316BE00E946931BA
:1021E0008C0160EC72E00E94243166E0C8010E941C
:1021F000693166E00E94693181E08BA7DF91CF9160
:102200001F910F91FF90EF90DF90CF9008950F9363
:102210001F93CF93DF93EC018BA5811140C06BE03E
:102220008E819F810E9469318C0166E872E00E9474
:10223000243166E0C8010E9469316BE08E819F8184
:102240000E9469318C016CE372E00E94243166E0E7
:10225000C8010E9469316BE08E819F810E946931C3
:102260008C016DE072E00E94243166E0C8010E949A
:1022700069316BE08E819F810E9469318C016EED26
:1022800071E00E94243166E0C8010E94693166E075
:102290000E946931CE010E94D50881E08BA7DF91B1
:1022A000CF911F910F9108950F931F93CF93DF93B9
:1022B000EC018BA581112CC06BE08E819F810E9467
:1022C00069318C016FEA71E00E94243166E0C80137
:1022D0000E9469316BE08E819F810E9469318C017F
:1022E00065E671E00E94243166E0C8010E94693110
:1022F0006BE08E819F810E9469318C0166E371E001
:102300000E94243166E0C8010E94693181E08BA7F8
:10231000DF91CF911F910F910895EF92FF920F934C
:102320001F93CF93DF93EC010E94782D85EB94E00F
:10233000998388836BE08E819F810E94693160E37D
:1023400071E00E942431FB8EEA8EDF91CF911F91C4
:102350000F91FF90EF900895CF93DF9300D000D0BE
:10236000CDB7DEB78C010E94222869837A838B83E4
:102370009C8380918000836A80938000809181009B
:102380008A60809381001BC0823009F448C083308A
:1023900009F44BC0F80146855785608971894F5F04
:1023A0005F4F6F4F7F4F46875787608B718B4AE037
:1023B00050E060E070E0CE0101960E94C2290FB6A5
:1023C000F8940F92E0913607F091370780850F90CF
:1023D0000FBE813099F08111D7CF0FB6F8940F92CC
:1023E0000F900FBEE0913807F09139076085718535
:1023F000F801838994890E94001FCCCF0FB6F8940E
:102400000F920F900FBEE0913807F0913907608569
:102410007185F801838994890E94851EBBCFF801DC
:10242000838994890E94541FB5CF60E0F8018589A3
:1024300096890E94D015880F991F7C01FFEFEF1A33
:10244000F3E0FF0AB701F801838994890E94851E91
:102450000FB6F8940F92E0913A07F0913B07F1869E
:10246000E0860F900FBE96CFAF92CF92DF92EF92A1
:10247000FF920F931F93CF93DF93EC010E94782D6F
:102480008DEB94E099838883FC8AEB8ADE8ACD8A7F
:10249000AA8ADF91CF911F910F91FF90EF90DF906B
:1024A000CF90AF900895CF93DF9300D000D0CDB7F9
:1024B000DEB78C010E94222869837A838B839C83F8
:1024C000EE24EA948FE0F82E4FC0841795070CF0A5
:1024D00068C09701241B350B280F391FF801378B73
:1024E000268BE0913407F09135070FB6F8940F92E0
:1024F0000F900FBE0FB6F8940F92C901AA2797FD4F
:10250000A095BA2F4085518562857385480F591F64
:102510006A1F7B1F40875187628773870F900FBEAA
:102520000FB6F8940F92E0913207F091330731879C
:1025300020870F900FBEF80184899589938B828B39
:1025400046855785608971894F5F5F4F6F4F7F4F19
:1025500046875787608B718B41E050E060E070E008
:10256000CE0101960E94C229F801808D918D0E94B2
:10257000051BF801958B848B428953899C01241B90
:10258000350B37FD09C0B901653A764008F09DCF9B
:10259000F801378B268BA5CF66277727621B730B35
:1025A000F3CF9C012F5F3F40241B350BF801378B85
:1025B000268B97CFEF92FF920F931F93CF93DF93CA
:1025C000EC010E94782D85EC94E099838883F98E44
:1025D000E88E1B8A1A8A1F8A1E8A1D8A1C8ADF912E
:1025E000CF911F910F91FF90EF90089577FD02C05A
:1025F000CB01089588279927861B970B0895CF93C1
:10260000DF9300D000D0CDB7DEB78C010E94222826
:1026100069837A838B839C83BB24B3949EC00FB65B
:10262000F8940F92D8015496ED91FC915597C0847F
:10263000D1840F900FBEEC18FD08F801648D758DE4
:1026400084A195A10E94362040E054E00E944820D9
:102650004C01D8015A966D917C915B97C7010E94FD
:10266000CF1FB4010E94EC1FF801938F828F808DE1
:10267000918DB601681B790BD18EC08E82A193A17A
:102680000E94362040E054E00E9448206C01D801AE
:102690005A966D917C915B9790968D919C919197B4
:1026A0000E94362040E054E00E944820B6010E947B
:1026B000CF1F6C01B701F801868D978D0E943620DF
:1026C00040E054E00E944820B6010E94CF1FD8018C
:1026D0009896ED90FC909997E816F9064CF096962E
:1026E0002D913C9197977C01821793070CF4790107
:1026F000B7010E94EC1FF801958F848F0FB6F894F4
:102700000F92E0913607F0913707B0860F900FBE19
:102710000FB6F8940F92D8015696ED91FC91579709
:10272000F186E0860F900FBE0FB6F8940F920F90CF
:102730000FBEE0913007F091310780859185A28529
:10274000B3850697A105B10581F145E050E060E051
:1027500070E0CE0101960E94C2290FB6F8940F9244
:10276000D8015296ED91FC915397E084F1840F903B
:102770000FBE0FB6F8940F920F900FBEE091300786
:10278000F091310780859185A285B3850697A105D3
:10279000B10509F044CFB701F801868197810E9405
:1027A000C53266E00E9469313ACF0FB6F8940F92B5
:1027B0000F900FBEB701F801868197810E94C53244
:1027C00066E00E946931C1CF6F927F928F929F9293
:1027D000AF92BF92CF92DF92EF92FF920F931F932F
:1027E000CF93DF93CDB7DEB73C010E94782D8DECFF
:1027F00094E0F30191838083F38AE28AD58AC48AC4
:10280000B78AA68A978E868E89899A8991A380A392
:102810008B899C8993A382A38D899E8995A384A388
:102820008F89988D97A386A3898D9A8D91A780A76C
:10283000DF91CF911F910F91FF90EF90DF90CF909C
:10284000BF90AF909F908F907F906F900895CF939F
:10285000DF9300D000D0CDB7DEB77C010E942228E4
:1028600069837A838B839C832AC060E0F701838D20
:10287000948D0E94D0150FB6F8940F92E09128071E
:10288000F0912907918780870F900FBEB801F7015B
:10289000808D918D0E94D2200FB6F8940F92E09116
:1028A0002C07F0912D07118700870F900FBE41E094
:1028B00050E060E070E0CE0101960E94C22945E040
:1028C000F701628D838D948D0E94ED15F701058DC2
:1028D000168D080F191F000F111F08511E4F828DF2
:1028E000813009F0C2CF0FB6F8940F92E0912A0719
:1028F000F0912B07118700870F900FBEB6CFEF9294
:10290000FF920F931F93CF93DF93EC01E62E1E8E61
:102910001D8E3AE0F32E00E010E001C08C016E2D18
:102920008B8D9C8D0E94D015800F911F9E8F8D8F57
:10293000FA94A1F79C01ADECBCEC0E94FB3C96958F
:102940008795969587959695879500E012E0081BE8
:10295000190B1E8F0D8F6A8D8E819F810E94E4332B
:102960006BE00E946931EC0165E57BE00E94243157
:10297000B801CE010E94623366E0DF91CF911F91D2
:102980000F91FF90EF900C946931CF92EF92FF92EC
:102990000F931F93CF93DF93EC010E94782D85ED69
:1029A00094E099838883F98EE88ECA8E6C2D70E04E
:1029B000CE01DF91CF911F910F91FF90EF90CF90BB
:1029C0000C947F14CF93DF9300D000D0CDB7DEB747
:1029D0008C010E94222869837A838B839C830FC099
:1029E00060E273E0F801808D918D0E94D22045E075
:1029F00050E060E070E0CE0101960E94C229F8012B
:102A0000858D968D0E94F1200FB6F8940F92E0917B
:102A10002607F091270780850F900FBE813079F04F
:102A20000FB6F8940F920F900FBE8823C9F264E19D
:102A300075E0F801808D918D0E94D220D8CF64E39B
:102A400078E0F801808D918D0E94D220D0CFAF9296
:102A5000BF92CF92EF92FF920F931F93CF93DF938A
:102A6000EC010E94782D8DED94E099838883F98E96
:102A7000E88ECA8EBE8EAD8EDF91CF911F910F91E1
:102A8000FF90EF90CF90BF90AF900895CF93DF93DA
:102A900000D000D0CDB7DEB78C010E942228698318
:102AA0007A838B839C83F801828993890E942C18F6
:102AB0000FB6F8940F92E0912407F09125079187C3
:102AC00080870F900FBEF801828993890E94501869
:102AD0000FB6F8940F92E0912207F09123079187A7
:102AE00080870F900FBEF801828993890E94741825
:102AF0000FB6F8940F92E0912007F091210791878B
:102B000080870F900FBEF8014685578560897189CF
:102B10004F5F5F4F6F4F7F4F46875787608B718B3B
:102B200044E650E060E070E0CE0101960E94C229C8
:102B3000BACFEF92FF920F931F93CF93DF93EC01E5
:102B40000E94782D85EE94E099838883FB8AEA8A37
:102B5000DF91CF911F910F91FF90EF900895CF9348
:102B6000DF93FC017183608320917C0020642093BB
:102B70007C0020917A00256C20937A00C081D1815D
:102B8000209759F069EE74E0CE010E94243166E08E
:102B9000CE01DF91CF910C946931DF91CF910895EF
:102BA000683008F060E080917C00887F80937C0032
:102BB00080917C00862B80937C0080917A008064D9
:102BC00080937A0080917A0086FDFCCF8091780016
:102BD0002091790090E0922B0895DF92EF92FF927E
:102BE0000F931F93CF93DF938C01D62EE42E80E4B6
:102BF0008417E0F480E4E82EF12CC0E0D0E06D2DE5
:102C0000C8010E94D015C80FD91FF394FE10F7CF4A
:102C10006E2D70E0CE010E942C3DCB01DF91CF9153
:102C20001F910F91FF90EF90DF9008954111E4CF35
:102C3000C0E0D0E0EDCF0F931F93CF93DF93EC0173
:102C40006BE00E9469318C016EE57BE00E942431CB
:102C500066E0C8010E9469316BE00E9469318C0115
:102C600069E77BE00E94243166E0C8010E94693177
:102C7000CE01DF91CF911F910F9108950F93022FF5
:102C80009A01462FFC016481828193810E949B1CE2
:102C900081E00F910895242F462FFC0164818281E9
:102CA00093810E94701D81E00895FC01262F6583A9
:102CB0004DE36481828193810C94701DDF92EF92C9
:102CC000FF920F931F93CF93DF93EC0120E047E037
:102CD0006C818A819B810E94701D7E0186E0E80ED6
:102CE000F11C01E0970149E36C818A819B810E947C
:102CF0009B1CDE80088119816DE175E0C8010E948E
:102D000024316D2DC8010E94E43366E00E946931D0
:102D100001E0970146E36C818A819B810E949B1CA4
:102D2000DE80088119816DE275E0C8010E942431BE
:102D30006D2DC8010E94E43366E00E94693101E014
:102D400097014AE36C818A819B810E949B1C1E81B2
:102D50000990D881C02D60E475E0CE010E94243135
:102D6000612FCE010E94E43366E0DF91CF911F9185
:102D70000F91FF90EF90DF900C9469310F93CF93F8
:102D8000DF93EC019C012A5F3F4F01E044E36C813B
:102D90008A819B810E949B1C8E81DF91CF910F9134
:102DA00008956F927F928F929F92AF92BF92CF922F
:102DB000DF92EF92FF920F931F93CF93DF93CDB7E4
:102DC000DEB7CA56D1090FB6F894DEBF0FBECDBF2D
:102DD0005C01CE0101966C018AE6F60111928A959A
:102DE000E9F70AE6960140E0F5016481828193816A
:102DF0000E949B1C4E01FBE68F0E911C8601602EEB
:102E00006C18F80171908F01F501E080F1806FE49A
:102E100075E0C7010E94243163E0C7010E94693157
:102E2000662D0E94E4337C0163E875E00E94243142
:102E3000672DC7010E94E43366E00E9469310815DE
:102E40001905E9F6C659DF4F0FB6F894DEBF0FBE7D
:102E5000CDBFDF91CF911F910F91FF90EF90DF9049
:102E6000CF90BF90AF909F908F907F906F9008957C
:102E7000AF92BF92CF92DF92EF92FF920F931F9388
:102E8000CF93DF931F92CDB7DEB75C016B01542F58
:102E90008CE0F50111928A95E9F79B012A5F3F4F7B
:102EA00006E0FB0164818281938159830E949B1C0F
:102EB000F601678170E0762F66278681682BE184B2
:102EC000F12CFE2CEE248085E82A038510E0102FDB
:102ED00000278285082B5981543109F487C048F0B6
:102EE000583209F44DC05E3209F44AC05A3131F00B
:102EF0003AC0583009F444C05E30A9F5882777FD00
:102F00008095982F0E94263E20E030E040E85DE367
:102F10000E94B23EF5016083718382839383B7017F
:102F2000882777FD8095982F0E94263E20E030E08C
:102F300040E85DE30E94B23EF501648375838683B9
:102F40009783B801882777FD8095982F0E94263EA9
:102F500020E030E040E85DE30E94B23EF50160878A
:102F6000718782879387C5010F90DF91CF911F9161
:102F70000F91FF90EF90DF90CF90BF90AF900895AA
:102F8000882777FD8095982F0E94263E20E030E02C
:102F900048EC52E40E948B3DF5016083718382838B
:102FA0009383B701882777FD8095982F0E94263E4E
:102FB00020E030E048EC52E40E948B3DF501648350
:102FC000758386839783B801882777FD8095982F2E
:102FD0000E94263E20E030E048EC52E40E948B3D07
:102FE000F5016087718782879387BDCF882777FD3A
:102FF0008095982F0E94263E20E030E041E654E480
:103000000E948B3DF5016083718382839383B701B6
:10301000882777FD8095982F0E94263E20E030E09B
:1030200041E654E40E948B3DF501648375838683F9
:103030009783B801882777FD8095982F0E94263EB8
:1030400020E030E041E654E40E948B3DF5016087CA
:1030500071878287938787CF0F93CF93DF93EC019C
:103060009C012A5F3F4F02E04AE16C818A819B818B
:103070000E949B1C8F8190E0982F88272E81822BA5
:1030800097FD0CC09595879595958795959587950E
:1030900095958795DF91CF910F9108950F96F2CF77
:1030A0000F93CF93DF93EC019C012A5F3F4F02E027
:1030B0004CE16C818A819B810E949B1C8F8190E0F6
:1030C000982F88272E81822B97FD0CC09595879588
:1030D000959587959595879595958795DF91CF914E
:1030E0000F9108950F96F2CF0F93CF93DF93EC01DA
:1030F0009C012A5F3F4F02E04EE16C818A819B81F7
:103100000E949B1C8F8190E0982F88272E81822B14
:1031100097FD0CC09595879595958795959587957D
:1031200095958795DF91CF910F9108950F96F2CFE6
:10313000BF92CF92DF92EF92FF920F931F93CF93A4
:10314000DF931F92CDB7DEB77C016B01198201E0DE
:103150009E012F5F3F4F45E3FC0164818281938193
:103160000E949B1CB980F701008111816AE575E01E
:10317000C8010E94243163E0C8010E9469316B2DAF
:103180000E94E43366E00E946931F701868188235A
:1031900009F46BC04981B42EB294B694B694F3E0AE
:1031A000BF22F601B082842F90E09C0135952795CF
:1031B0003595279535952795359527952370218346
:1031C0009595879595958795837082834370438302
:1031D000F7010081118166E675E0C8010E94243183
:1031E0006B2DC8010E94E43366E00E946931F6014C
:1031F000B180F701008111816EE675E0C8010E947F
:1032000024316B2DC8010E94E43366E00E946931CD
:10321000F601B280F7010081118166E775E0C8010F
:103220000E9424316B2DC8010E94E43366E00E94A5
:103230006931F6011381F701E080F1806EE775E0F6
:10324000C7010E942431612FC7010E94E43366E068
:103250000E9469310F90DF91CF911F910F91FF90E4
:10326000EF90DF90CF90BF900895F601B080B0CF7F
:103270000F93CF93DF931F92CDB7DEB7198201E092
:103280009E012F5F3F4F45E3FC0164818281938162
:103290000E949B1C99819F7381E009F480E00F904C
:1032A000DF91CF910F910895DF92EF92FF920F93EC
:1032B0001F93CF93DF93CDB7DEB766970FB6F89421
:1032C000DEBF0FBECDBF8C01FE01319686E1DF016E
:1032D0001D928A95E9F787E490E09093010080932E
:1032E00000008BEE8B838FEF8C8391E19D838F8326
:1032F000888789878A8790EF9D878E879BEB9F873A
:10330000888B84E0898B88EE8B8B83E08C8B87E4C1
:103310008D8B7E01B2E0EB0EF11C85E5D82E20E00E
:1033200003C0D7012D917D014D2DF801648182816B
:1033300093810E94701DD394FBE6DF12F2CF669654
:103340000FB6F894DEBF0FBECDBFDF91CF911F91B6
:103350000F91FF90EF90DF9008950F931F93CF93FD
:10336000DF93EC016C818A819B810E94FD1D81119C
:103370004FC01D8220E04DE36C818A819B810E94B9
:10338000701D20E24FE36C818A819B810E94701D39
:103390006C818A819B810E94FD1D8823C9F31D8257
:1033A00020E04DE36C818A819B810E94701DCE01DB
:1033B0000E94541920E04EE36C818A819B810E9417
:1033C000701D20E047E06C818A819B810E94701D06
:1033D00020E04FE36C818A819B810E94701D24E074
:1033E0004BE36C818A819B810E94701D8CE08D83F0
:1033F0002CE04DE36C818A819B810E94701DCE017F
:103400000E945E1681E0DF91CF911F910F91089588
:103410000881198166E875E0C8010E94243166E0E0
:10342000C8010E946931A5CF0F931F93CF93DF93FB
:10343000EC01798368834C8389E090E00E94D73067
:103440008C01688179810E94F71B1B830A83CE015E
:103450000E94AD190990D881C02D209769F060EACB
:1034600075E0CE010E94243166E0CE01DF91CF915C
:103470001F910F910C946931DF91CF911F910F91A2
:1034800008957F928F929F92AF92BF92CF92DF92D8
:10349000EF92FF920F931F93CF93DF93CDB7DEB7D9
:1034A00065970FB6F894DEBF0FBECDBF5C0105E196
:1034B0009E012F5F3F4F45E5FC016481828193812E
:1034C0000E949B1C8E010F5F1F4F4E01F7E18F0E74
:1034D000911C94E5C92ED12CC01AD10AF801719023
:1034E0008F01F501E080F18064ED75E0C7010E9475
:1034F000243163E0C7010E946931B601600F711F7A
:103500000E94C5327C0163E875E00E942431672D7A
:10351000C7010E94E43366E00E946931081519056D
:10352000E9F665960FB6F894DEBF0FBECDBFDF910A
:10353000CF911F910F91FF90EF90DF90CF90BF90B0
:10354000AF909F908F907F900895CF92EF92FF92CF
:103550000F93CF93DF93FC01718360835383428386
:10356000248335830683E782F086C186DA011197CA
:103570001C92A281B3811C92A481B5816C9181E0DF
:1035800090E0AC01068002C0440F551F0A94E2F798
:10359000642B6C93A781B0856C91AC01018402C04F
:1035A000440F551F0A94E2F7642B6C93D9014E9196
:1035B0009C01068002C0220F331F0A94E2F7422BBF
:1035C0004C93D7012E91018402C0880F991F0A9451
:1035D000E2F7282B2C93C081D181209779F064EEFB
:1035E00075E0CE010E94243166E0CE01DF91CF91DB
:1035F0000F91FF90EF90CF900C946931DF91CF91B4
:103600000F91FF90EF90CF900895CF93DF93FC013F
:10361000A281B381C781D085488121E030E0C90112
:10362000018402C0880F991F0A94E2F780958423D1
:103630008883C481D5814881C901068002C0880F72
:10364000991F0A94E2F780958423888312978C91BE
:1036500090E0982F8827C781D0856881A9010184CF
:1036600002C0440F551F0A94E2F7642B68835C91F3
:10367000A481B5814C91068002C0220F331F0A94A9
:10368000E2F7422B4C93852BDF91CF910895BF92A7
:10369000CF92DF92EF92FF920F931F93CF93DF931E
:1036A000EC01FB01FF24F39482819381892B09F4BF
:1036B000F12CE184DD24D39487819085892B09F452
:1036C000D12CB680CC24C39484819581892B09F4B4
:1036D000C12C6BE0CE010E9469318C0168E87BE06F
:1036E0000E94243162E0C8010E94693166E00E94B4
:1036F00069316BE00E9469318C016CEA7BE00E94C9
:1037000024316C2DC8010E94F4308C016AE076E00F
:103710000E9424316B2DC8010E94E43366E00E94B0
:1037200069316BE00E9469318C0165EB7BE00E949E
:10373000243166E0C8010E9469316BE00E94693162
:103740008C0164EC7BE00E9424316D2DC8010E9445
:10375000F4308C016AE076E00E9424316E2DC801BD
:103760000E94E43366E00E9469316BE00E94693197
:103770008C016EEC7BE00E9424316F2DC8010E9409
:10378000F43066E00E946931CE01DF91CF911F9144
:103790000F91FF90EF90DF90CF90BF900895CF935F
:1037A000DF932BB123602BB9E4E6F0E020812F7783
:1037B0002083E9EBF0E020812C7F20832CE0209314
:1037C000B800ECEBF0E020812E7F20836BE0FC0161
:1037D000808191810E946931EC016EED7BE00E9455
:1037E000243166E0CE01DF91CF910C9469310F93C3
:1037F0001F93CF93DF93EC017983688381E00E946C
:10380000292498878F83892B39F0CE01DF91CF91BE
:103810001F910F910C94CF1B088119816CE076E009
:10382000C8010E94243166E0C8010E946931CE01BE
:10383000DF91CF911F910F910C94CF1B1F93CF93CA
:10384000DF93FC01128213821482158211C042811F
:103850005381648175814F5F5F4F6F4F7F4F42830C
:10386000538364837583413E53496440710540F43A
:103870008091BC0087FFEBCFDF91CF911F9108951E
:103880001681C081D18160E276E0CE010E942431B0
:1038900063E0CE010E946931612F0E94E43366E04B
:1038A000DF91CF911F910C9469318FE99FE00197CF
:1038B000F1F700C000002091B900287F30E070E0EF
:1038C00081E02617370709F080E0089524EA209365
:1038D000BC000E941E1C8FE99FE00197F1F700C019
:1038E00000009091B900987F81E0983009F080E065
:1038F000089584E98093BC0081E00895662321F057
:1039000084EC8093BC00089584E88093BC00089503
:1039100024EA2093BC000E941E1C8FE99FE00197BF
:10392000F1F700C000009091B900987F81E09031DC
:1039300009F080E00895BF92CF92DF92EF92FF925C
:103940000F931F93CF93DF93EC01F42EC22EB32E6F
:10395000D02E6E8300E02FEF3FEFA90160E070E012
:103960008F8198850E949224CE010E94661C182F98
:10397000882369F180E58093BB0084E88093BC00D4
:10398000CE010E941E1C8FE99FE00197F1F700C055
:1039900000008091B900887F883131F100E020E09B
:1039A00030E0A90160E070E08F8198850E9471236A
:1039B00084E98093BC0010E0812FDF91CF911F91AB
:1039C0000F91FF90EF90DF90CF90BF90089520E08F
:1039D00030E0A90160E070E08F8198850E9471233A
:1039E00084E98093BC00E8CFF092BB0084E8809328
:1039F000BC00CE010E941E1C8FE99FE00197F1F7E9
:103A000000C000008091B900887F883239F6CE016D
:103A10000E94881C81E58093BB0084E88093BC00F1
:103A2000CE010E941E1CEFE9FFE03197F1F700C0C4
:103A300000008091B900887F803409F0AFCF84EC1A
:103A40008093BC00CE010E941E1C8FE99FE001976D
:103A5000F1F700C000008091B900887F803509F03F
:103A60009DCFDD20E9F0EC2CFB2CC12C04EC8091E7
:103A7000BB00F70181937F010093BC00CE010E943F
:103A80001E1C8FE99FE00197F1F700C000008091B4
:103A9000B900887F803509F081CFC394CD10E7CF7E
:103AA00084E88093BC00CE010E941E1CEFE9FFE079
:103AB0003197F1F700C000008091B900887F883508
:103AC00009F06CCF84E98093BC0000E020E030E096
:103AD000A90160E070E08F8198850E9471236CCF0E
:103AE000EF92FF920F931F93CF93DF93EC01F42E8D
:103AF000E22E6E8300E02FEF3FEFA90160E070E05F
:103B00008F8198850E949224CE010E94661C182FF6
:103B1000882351F180E58093BB0084E88093BC004A
:103B2000CE010E941E1C8FE99FE00197F1F700C0B3
:103B300000008091B900887F883151F100E020E0D9
:103B400030E0A90160E070E08F8198850E947123C8
:103B500084E98093BC0010E0812FDF91CF911F9109
:103B60000F91FF90EF90089520E030E0A90160E010
:103B700070E08F8198850E94712384E98093BC0056
:103B8000812FDF91CF911F910F91FF90EF900895BA
:103B9000F092BB0084E88093BC00CE010E941E1C02
:103BA0008FE99FE00197F1F700C000008091B90014
:103BB000887F883219F6E092BB0084E88093BC00CD
:103BC000CE010E941E1C8FE99FE00197F1F700C013
:103BD00000008091B900887F883209F0AFCF84E976
:103BE0008093BC0000E020E030E0A90160E070E0DC
:103BF0008F8198850E947123AFCFEF92FF920F9330
:103C00001F93CF93DF931F92CDB7DEB77C0101E006
:103C10009E012F5F3F4F40E00E949B1C811109C015
:103C200080E00F90DF91CF911F910F91FF90EF9067
:103C300008951981F701E080F18065E476E0C7011D
:103C40000E942431612FC7010E94E43366E00E9484
:103C5000693181E00F90DF91CF911F910F91FF901B
:103C6000EF900895FC011282138214821582089548
:103C70006F927F928F92AF92CF92EF92FF920F93BB
:103C80001F93CF93DF93CDB7DEB7FC013B018E8549
:103C90007183608355834483318720871587048728
:103CA000F38AE28AC686A786808A818B41505109B1
:103CB00053834283215031093783268301501109F0
:103CC0001387028761157105A1F065E576E0C301F0
:103CD0000E94243166E0C301DF91CF911F910F91C3
:103CE000FF90EF90CF90AF908F907F906F900C945B
:103CF0006931DF91CF911F910F91FF90EF90CF909D
:103D0000AF908F907F906F900895CF93FC01A28128
:103D1000B381CC9181E090E0AC01068402C0440FF5
:103D2000551F0A94E2F79C01078402C0220F331F3B
:103D30000A94E2F7242B2C2B2C93A681B7814C916B
:103D40009C01008802C0220F331F0A94E2F72095DD
:103D500024232C93A285B3854C919C01018802C039
:103D6000220F331F0A94E2F7422B4C93A085B185B2
:103D70004C919C01008802C0220F331F0A94E2F785
:103D8000422B4C93A481B5814C919C0177FD1BC0C3
:103D9000068402C0220F331F0A94E2F7422B4C9391
:103DA000A481B5812C91078402C0880F991F0A94C1
:103DB000E2F7809582238C930288F389E02D71834A
:103DC0006083CF910895078402C0220F331F0A94A5
:103DD000E2F7422B4C93A481B5812C91068402C05A
:103DE000880F991F0A94E2F7809582238C930288AA
:103DF000F389E02D71956195710971836083E1CF3D
:103E0000FC01A281B3816C9181E090E0AC01068459
:103E100002C0440F551F0A94E2F79C01078402C0B8
:103E2000220F331F0A94E2F7242B262B2C93A68112
:103E3000B7814C919C01008802C0220F331F0A9465
:103E4000E2F7209524232C93A285B3854C919C0105
:103E5000018802C0220F331F0A94E2F7422B4C93D1
:103E6000A085B1854C919C01008802C0220F331FB0
:103E70000A94E2F7422B4C93A481B5814C919C01AA
:103E8000068402C0220F331F0A94E2F7422B4C93A0
:103E9000A481B5812C91078402C0880F991F0A94D0
:103EA000E2F7282B2C930895FC01A281B3816C9139
:103EB00081E090E0AC01068402C0440F551F0A94D3
:103EC000E2F79C01078402C0220F331F0A94E2F735
:103ED000242B262B2C93A681B7814C919C01008822
:103EE00002C0220F331F0A94E2F7209524232C935B
:103EF000A285B3854C919C01018802C0220F331F1B
:103F00000A94E2F7422B4C93A085B1854C919C0119
:103F1000008802C0220F331F0A94E2F7422B4C9311
:103F2000A481B5814C919C01068402C0220F331FED
:103F30000A94E2F7209524232C93A481B5812C9137
:103F4000078402C0880F991F0A94E2F780958223A4
:103F50008C930895EF92FF920F931F93CF93DF936B
:103F6000EC01DB015296ED91FC915397E080F180DA
:103F70006BE00E9469318C0160EF7BE00E9424318C
:103F8000B701C8010E94623366E00E946931CE0128
:103F9000DF91CF911F910F91FF90EF9008959C01B9
:103FA000432F4095441F4427441F80E090E8841B22
:103FB0009109AC01421B530BE1E0461757070CF087
:103FC000E0E0432F4095441F4427441FE41719F0B5
:103FD000C901860F971F08958617970799F16115F4
:103FE00020E8720741F1719561957109492F40955B
:103FF000441F4427441F20E030E8241B3109A90155
:10400000481B590BE1E04617570764F4492F4095C8
:10401000441F4427441FE41719F0860F971F089583
:10402000C9010895E0E0492F4095441F4427441FEB
:10403000E417B1F3F2CF97FD03C06FEF7FE7D6CF60
:104040000196FBCF80E090E00895811520E892076B
:1040500029F09C0197FD05C0C90108958FEF9FE7E6
:104060000895319521953109C9010895811520E8F8
:10407000920729F09C01DB010E94F33C0895611531
:1040800020E87207B9F76FEF7FEF8FEF9FE7089592
:104090009A01442737FD4095542F0E94623D211517
:1040A00080E838074105510524F02FEF3FE740E055
:1040B00050E0DA01C901811520E892072FEFA2072D
:1040C000B20724F480E090E8AFEFBFEF0895FC0161
:1040D000A5E6B0E08C91877F8C93A281B3818C910F
:1040E000806A8C93A481B5818C9182618C93A68126
:1040F000B7818385948511969C938E932DB181E031
:1041000090E0058402C0880F991F0A94E2F7282BDB
:104110002DB908956F927F928F92AF92BF92CF92F6
:10412000EF92FF920F931F93CF93DF93CDB7DEB73C
:104130003C01FC0171836083538342833583248374
:1041400017830683F186E086C286B486A3868586B9
:104150000E946720F3016080718061147104A9F0EE
:104160006AE776E0C3010E94243166E0C301DF9173
:10417000CF911F910F91FF90EF90CF90BF90AF9094
:104180008F907F906F900C946931DF91CF911F9148
:104190000F91FF90EF90CF90BF90AF908F907F9056
:1041A0006F900895DC011896ED91FC911997718339
:1041B000608308950F931F93CF93DF93EC016BE01F
:1041C0000E9469318C0165E07CE00E94243166E048
:1041D000C8010E946931CE01DF91CF911F910F91EB
:1041E00008951F93CF93DF93769B04C0DF91CF9107
:1041F0001F910895DC011296ED91FC9113971081A7
:104200006BE08D919C910E946931EC016FE27CE042
:104210000E942431612FCE010E94E43366E00E94A7
:104220006931E0912607F09127070FB6F8940F92B5
:104230000F900FBE8085813059F00FB6F8940F9221
:1042400081E080870F900FBEDF91CF911F9108957D
:104250000FB6F8940F9210860F900FBEC7CFCF9372
:10426000DF93EC01798368835B834A832E836E98A6
:10427000769A0E94F1200990D881C02D209759F09C
:1042800061EA76E0CE010E94243166E0CE01DF9142
:10429000CF910C946931DF91CF9108950F931F93C3
:1042A000CF93DF93EC016BE00E9469318C016AE1EE
:1042B0007CE00E94243166E0C8010E946931CE0191
:1042C000DF91CF911F910F9108950F931F93CF937B
:1042D000DF93EC010E941C2880914A07811121C0C4
:1042E00084E597E09093500780934F071092520710
:1042F0001092510787E397E190934E0780934D0703
:1043000010924C0710924B079093570780935607D3
:104310008BE497E0909355078093540781E0809356
:104320004A07209709F460C0AE014C5F5F4F2396A7
:10433000C633D74108F058C0E0914F07F0915007BD
:10434000AFE4B7E006C080819181009739F0DF01CA
:10435000FC012281338124173507A8F3C7E0EB3431
:10436000FC0709F441C00D911C9111970C5F1F4F80
:10437000808191818D939C93C901841B950B893019
:10438000910500F1BF01640F751FDB0113969C932B
:104390008E9312975383428312968D919C9113971B
:1043A000AFE4B7E001C0DF01ED91FC9111972281EC
:1043B000338128173907B8F3EB01F983E8836D934C
:1043C0007C939A018091000290910102821B930BD1
:1043D00090930102809300020E944F29C801DF914F
:1043E000CF911F910F91089500E010E00E944F2996
:1043F000C801DF91CF911F910F910895CF93DF9363
:10440000009721F1EC0124970E941C284A815B81CE
:10441000AFE4B7E001C0DF01ED91FC91119722817B
:10442000338124173507B8F3F983E883CD93DC9300
:104430008091000290910102840F951F90930102D8
:1044400080930002DF91CF910C944F29DF91CF919F
:1044500008958091000290910102089508951F939C
:10446000CF93DF93EC01142F88A181110DC08881B7
:104470009981892B09F44DC080E09E8D9F5F9E8FAE
:10448000DF91CF911F910895482F50E011111CC06A
:104490008C819D810E94ED3F28A18C819D81820F9E
:1044A000911D9D838C832A813B818217930720F382
:1044B000888199819D838C8380E09E8D9F5F9E8FF4
:1044C000DF91CF911F9108958E819F810E94ED3FD2
:1044D00028A130E03195219531098E819F81820F8D
:1044E000931F9F838E83688179818617970730F4A5
:1044F0008A819B81820F931F9F838E83123009F0E4
:10450000BBCF8E8D882309F4B7CF8E8D81508E8FCF
:10451000B3CF8A819B810E947A2C1B821A82ADCFF5
:10452000FC01CB0140A1442399F050E02681378162
:10453000240F351F3783268362817381261737073F
:1045400020F02081318137832683B9010C94ED3F1F
:1045500008950F931F93CF93DF93EC010FB6F89458
:104560000F928AA11816ECF48B898823D1F08E0162
:104570000D5E1F4F09C08AA181508AA38AA1181617
:1045800084F48B89882369F0C8010E94062B882354
:1045900091F30E94FA2B8AA181508AA38AA118164E
:1045A00084F38FEF8AA30F900FBE0FB6F8940F928B
:1045B00089A11816ECF488858823D1F08E01085F54
:1045C0001F4F09C089A1815089A389A1181684F4BD
:1045D0008885882369F0C8010E94062B882391F3FF
:1045E0000E94FA2B89A1815089A389A1181684F30E
:1045F0008FEF89A30F900FBEDF91CF911F910F9185
:104600000895CF93DF93EC010FB6F8940F922881B1
:1046100039818F8D78A1879FC0011124A901480F8E
:10462000591F5B834A831E8E3D832C83871B910910
:10463000820F931F9F838E838FEF89A38AA36111BB
:1046400012C08885811106C00F900FBE81E0DF91F6
:10465000CF910895CE0108960E94062B8130A1F7D4
:104660000E946237F1CFCE0108960E94F335CE0149
:1046700043960E94F3350F900FBE81E0DF91CF91FA
:1046800008950F931F93CF93DF93182F062F88233E
:1046900001F183E290E00E946521EC010097C9F0EE
:1046A000109FC001112401960E946521998388837F
:1046B000892B61F01F8F08A361E0CE010E940123C6
:1046C000CE01DF91CF911F910F910895CE010E94ED
:1046D000FE21C0E0D0E0CE01DF91CF911F910F917C
:1046E00008956F927F928F929F92AF92BF92CF92D6
:1046F000DF92EF92FF920F93CF93DF93CDB7DEB7A8
:1047000029970FB6F894DEBF0FBECDBF5C014B01F9
:104710002E833F834887598720E03C0188E0680E5C
:10472000711C0FB6F8940F92F501968D878D98172E
:1047300008F459C0023009F456C0CE80DF80E88406
:10474000F984CD28CE28CF2809F46FC0222309F49C
:1047500041C00F900FBE0E941C280FB6F8940F9214
:10476000F50181A18F3F09F43CC0F50182A18F3F83
:10477000B1F10F900FBEBE016A5F7F4FCE0101966F
:104780000E94992B811155C00FB6F8940F92F50134
:10479000968D0F900FBEF501878D981314C04E8132
:1047A0005F8168857985C3010E94AB2AC5010E949B
:1047B000A9220E944F29882311F021E0B2CF0E9444
:1047C000623721E0AECFC5010E94A9220E944F2985
:1047D00021E0A7CFCE0101960E94882BBACF12A26A
:1047E000C8CF11A2C2CF402FB401C5010E942F2211
:1047F000F5019389911124C0811128C00F900FBE3B
:1048000081E029960FB6F894DEBF0FBECDBFDF91D1
:10481000CF910F91FF90EF90DF90CF90BF90AF902E
:104820009F908F907F906F9008950F900FBE80E0C3
:10483000E8CFC5010E94A9220E944F2980E0E1CF64
:10484000C50143960E94062B8130C1F60E94623753
:10485000D5CF0F93CF93DF9383E290E00E94652141
:10486000EC01009701F11B821A82198218821D82C5
:104870001C821F821E821E8E81E08F8F18A28FEFF6
:1048800089A38AA3CE0108960E94F335CE014396F0
:104890000E94F33500E020E030E0A90160E070E024
:1048A000CE010E947123CE01DF91CF910F91089527
:1048B0000F931F93CF93DF93EC018A019E8D8F8D11
:1048C000981740F0223031F080E0DF91CF911F91B6
:1048D0000F910895422FCE010E942F22882331F09C
:1048E0000115110519F081E0F80180838AA18F3F3D
:1048F00049F08AA18F5F8AA381E0DF91CF911F9158
:104900000F9108958B898823B9F3CE0143960E94B5
:10491000062B882389F30115110571F381E0F80155
:104920008083D3CFAF92BF92CF92DF92EF92FF926C
:104930000F93CF93DF93CDB7DEB729970FB6F894D7
:10494000DEBF0FBECDBF7C016B012E833F83488746
:10495000598790E0570183E1A80EB11C0FB6F89477
:104960000F92F701868D811169C04E815F81688544
:104970007985452B462B472B09F47DC0992309F4F3
:104980003EC00F900FBE0E941C280FB6F8940F92E5
:10499000F70181A18F3F09F43EC0F70182A18F3F4B
:1049A00009F43FC00F900FBEBE016A5F7F4FCE017A
:1049B00001960E94992B811171C00FB6F8940F9245
:1049C000F701868D0F900FBE81111EC0F701808107
:1049D0009181892B41F14E815F8168857985C5017F
:1049E0000E94AB2AC7010E94A9220E944F29882356
:1049F00011F091E0B3CF0E94623791E0AFCFCE01CA
:104A000001960E94882BBDCFC7010E94A9220E9457
:104A10004F2991E0A3CF11A2F70182A18F3F09F0A6
:104A2000C1CF12A2BFCF0FB6F8940F92F7018281C7
:104A300093810E941F2C0F900FBECDCFA680B78010
:104A4000B601C7010E949022F70101112EC0868D88
:104A50008150868F80819181892BB9F1F701808502
:104A6000882341F1C70108960E94062B813011F579
:104A70000E9462371FC00F900FBE80E029960FB6CC
:104A8000F894DEBF0FBECDBFDF91CF910F91FF90A5
:104A9000EF90DF90CF90BF90AF900895C7010E9434
:104AA000A9220E944F2980E0E9CFB782A68283899C
:104AB000811104C00F900FBE81E0E0CFC701439683
:104AC0000E94062B8823B1F3D3CF0E94E12CF7017B
:104AD00093838283C3CF0F931F93CF93DF9300D031
:104AE000CDB7DEB78C01FC01868D811108C080E056
:104AF0000F900F90DF91CF911F910F910895C801F2
:104B000049835A830E949022F801868D8150868FB6
:104B100081A149815A818F3F61F0F80181A18F5FA6
:104B200081A381E00F900F90DF91CF911F910F91A2
:104B3000089580858823A9F3C801089649835A837C
:104B40000E94062B49815A81882359F3411551054A
:104B500041F381E0FA018083CBCF0F931F93CF9372
:104B6000DF93EC018E8D811106C080E0DF91CF9143
:104B70001F910F9108950E811F81CE010E949022F6
:104B80001F830E8381E0DF91CF911F910F910895D4
:104B90000FB6F8940F92FC01868D0F900FBE08950A
:104BA0000FB6F8940F92FC01268D0F900FBEFC01FA
:104BB000878D821B0895FC01868D0895CF93DF9326
:104BC000EC0188819981009711F00E94FE21CE01AD
:104BD000DF91CF910C94FE21FC01968D81E0911123
:104BE00080E00895FC01268D81E0978D291380E0F7
:104BF00008958091C01E823018F00E946237F9CF6C
:104C0000FFCFCF92DF92EF92FF926B017C01E09198
:104C10008B1EF0918C1E62837383848395838091B5
:104C2000941E9091951EA091961EB091971E609132
:104C30008B1E70918C1EC816D906EA06FB0610F171
:104C40008091A81E9091A91E6E5F7F4F0E94293609
:104C50008091020290910302A0910402B09105029A
:104C6000C816D906EA06FB0640F4C0920202D092AA
:104C70000302E0920402F0920502FF90EF90DF90B1
:104C8000CF9008958091A61E9091A71E6E5F7F4FD2
:104C9000FF90EF90DF90CF900C9429365F926F9247
:104CA0007F928F929F92AF92BF92CF92DF92EF92BC
:104CB000FF920F931F93CF93DF934C01162F572E24
:104CC0005A01390189E290E00E946521EC010097C8
:104CD00009F4E9C0C114D10409F4DAC0DC8ECB8E2A
:104CE000C601A50165EA70E00E94F63F21E0A21A24
:104CF000B108CB8CDC8CCA0CDB1CAE01435E5F4F71
:104D0000E12FF52D2AE0CF013191DA013D93AD017C
:104D1000DC018C91882311F02150A9F71EA2102FDD
:104D2000043008F07DC01A8F1FA318A65E01B2E000
:104D3000AB0EB11CC5010E940436CE010E960E9436
:104D40000436DB87CA8784E090E0A0E0B0E0811BF6
:104D50009109A109B1098E879F87A88BB98BDF8B39
:104D6000CE8BA301B401C6010E9492369983888339
:104D7000E114F10419F0F701D183C0830FB6F89460
:104D80000F928091981E8F5F8093981E80918B1E4A
:104D900090918C1E892B09F449C08091921E81113B
:104DA0000BC0E0918B1EF0918C1E828D081720F0B5
:104DB000D0938C1EC0938B1E80918E1E8F5F80932C
:104DC0008E1E8A8D9091931E981738F1FBE08F9F6D
:104DD000C0011124B5018054914E0E9408360F90F5
:104DE0000FBE8091921E882339F0E0918B1EF091C6
:104DF0008C1E828D8017B0F081E0DF91CF911F91E2
:104E00000F91FF90EF90DF90CF90BF90AF909F9069
:104E10008F907F906F905F9008958093931ED6CF70
:104E200013E081CF0E94623781E0E7CFD0938C1EE0
:104E3000C0938B1E8091981E813009F0BDCF80EC0D
:104E40009EE10E94F3358BEC9EE10E94F33586EDE6
:104E50009EE10E94F33581EE9EE10E94F33585EBE1
:104E60009EE10E94F3358AEA9EE10E94F3358BE9C8
:104E70009EE10E94F33585EB9EE19093A91E8093FD
:104E8000A81E8AEA9EE19093A71E8093A61E94CF47
:104E9000C5010E9465219C8F8B8F009709F021CF5F
:104EA000CE010E94FE218FEFA8CF0FB6F8940F928B
:104EB000009729F00F900FBEFC01828D089580911C
:104EC0008B1E90918C1E0F900FBEFC01828D089559
:104ED000EF92FF921F93CF93DF93EC01262F643064
:104EE00008F023E00FB6F8940F92209709F44AC017
:104EF0003FA13217A9F180918B1E90918C1E321721
:104F0000B8F5C817D90741F0E0918B1EF0918C1EBF
:104F100011E0828D281708F410E08A8D381769F1A6
:104F20002FA34E855F856889798977FD0CC044E0A1
:104F300050E060E070E0421B5109610971094E8741
:104F40005F87688B798B2BE0829FC001112480548E
:104F5000914E2C853D8528173907C9F0113079F01D
:104F60000F900FBEDF91CF911F91FF90EF900895AA
:104F700011E0C817D90781F6D0CF2A8FD1CF0E9470
:104F80006237EECFC0918B1ED0918C1EB1CF7E01C7
:104F900082E0E80EF11CC7010E9466368A8D90916E
:104FA000931E981710F48093931E2BE0829FC001EC
:104FB0001124B7018054914E0E940836CFCFAF9292
:104FC000BF92CF92DF92EF92FF920F93A12CB12C60
:104FD000C12CD12C89E9E82E8EE1F82E00E020E0EA
:104FE00030E044E650E068EC76E089EF95E20E941C
:104FF0004E26813041F00F91FF90EF90DF90CF90DF
:10500000BF90AF900895F8948093921E1092941ED2
:105010001092951E1092961E1092971E0F91FF905F
:10502000EF90DF90CF90BF90AF900C942637F8941C
:105030001092921E0C94613780918D1E8F5F809329
:105040008D1E08950FB6F8940F926091941E709182
:10505000951E8091961E9091971E0F900FBE0895F9
:105060006091941E7091951E8091961E9091971E4E
:1050700008958091981E0895009711F04D96089517
:1050800080918B1E90918C1E4D9608958091991E53
:1050900090919A1E0895AF92BF92CF92DF92EF92B5
:1050A000FF920F931F93CF93DF9380918D1E8111F9
:1050B000CFC08091941E9091951EA091961EB091A4
:1050C000971E0196A11DB11D8093941E9093951E6D
:1050D000A093961EB093971EC090941ED090951EDC
:1050E000E090961EF090971EC114D104E104F104E3
:1050F00039F58091A81E9091A91E2091A61E30918D
:10510000A71E3093A91E2093A81E9093A71E8093DC
:10511000A61E80918F1E8F5F80938F1EE091A81E28
:10512000F091A91E808181119AC08FEF9FEFDC0161
:105130008093020290930302A0930402B0930502AD
:105140008091020290910302A0910402B0910502A5
:10515000B12CC816D906EA06FB0608F457C09BE036
:10516000A92EE091A81EF091A91E8081882309F440
:1051700042C0E091A81EF091A91E0780F085E02DA5
:10518000C085D1854A815B816C817D81C416D5063D
:10519000E606F70608F47AC08E010E5F1F4FC801BD
:1051A0000E946636888D998D892B21F0CE010E964E
:1051B0000E9466368A8D9091931E981710F4809302
:1051C000931EA89EC0011124B8018054914E0E94E4
:1051D0000836E0918B1EF0918C1E9A8D828D981767
:1051E00008F4BFCFBB24B394E091A81EF091A91E90
:1051F00080818111BECF4FEF5FEFBA014093020271
:10520000509303026093040270930502E0918B1E99
:10521000F0918C1EE28D8BE0E89FF0011124E054A8
:10522000F14E8081823010F0BB24B3948091901EA7
:10523000882311F0BB24B3948B2DDF91CF911F9164
:105240000F91FF90EF90DF90CF90BF90AF900895B7
:105250008091911E8F5F8093911EB12CE7CFE091DA
:10526000A81EF091A91E0780F085E02D0084F1852D
:10527000E02D82819381A481B58180930202909375
:105280000302A0930402B09305025ACF4093020296
:10529000509303026093040270930502B7CFEF921C
:1052A000FF920F931F93CF93DF930FB6F8940F9253
:1052B00080918D1E815080938D1E80918D1E811155
:1052C00050C08091981E882309F44BC02BE0F22E29
:1052D000EE24E39427C0E091A21EF091A31EC085A6
:1052E000D185CE010E960E9466368E010E5F1F4F4D
:1052F000C8010E9466368A8D9091931E981710F40B
:105300008093931EF89EC0011124B8018054914EE1
:105310000E940836E0918B1EF0918C1E9A8D828D32
:10532000981748F580919B1E8111D5CF8091911ED1
:10533000882399F08091911E882379F0C1E00E9422
:105340004B288111C093901E8091911E81508093B3
:10535000911E8091911E8111F2CF8091901E81301B
:1053600069F080E00F900FBEDF91CF911F910F91F8
:10537000FF90EF900895E092901ED4CF0E94623784
:1053800081E0F0CFCF92DF92EF92FF920F931F93C5
:10539000CF93DF9300D000D0CDB7DEB720918D1E24
:1053A0002F5F20938D1EC090941ED090951EE0908C
:1053B000961EF090971EFC0100811181228133819D
:1053C000400F511F621F731FC016D106E206F3067D
:1053D000E8F44017510762077307E8F0FC014083C7
:1053E0005183628373830E944F29811102C00E94FE
:1053F00062370F900F900F900F90DF91CF911F9118
:105400000F91FF90EF90DF90CF90089540175107D4
:105410006207730728F0C416D506E606F706F0F60D
:10542000FC01408351836283738380918B1E909132
:105430008C1E029649835A836B837C830E94663656
:1054400049815A816B817C81CB01BA010E9401267E
:10545000CACFCF92DF92EF92FF926115710581055D
:10546000910539F40E946237FF90EF90DF90CF9062
:10547000089520918D1E2F5F20938D1EC090941E45
:10548000D090951EE090961EF090971EC60ED71EE7
:10549000E81EF91E80918B1E90918C1E02960E9430
:1054A0006636C701B6010E9401260E944F29882353
:1054B000C9F2FF90EF90DF90CF90089580918D1EFC
:1054C00081113BC01092901EE091931E8BE0E89FEB
:1054D000F0011124E054F14E8081811110C09BE055
:1054E0008091931E81508093931EE091931E9E9F06
:1054F000F0011124E054F14E8081882389F3E0917A
:10550000931E8BE0E89FF0011124E054F14EA1813D
:10551000B28114960D90BC91A02DB283A183CF01CE
:105520000396A817B90769F018968D919C91199761
:1055300090938C1E80938B1E089581E08093901E23
:10554000089514969C91149715968C91918382835B
:10555000A92FB82FE9CFCF92DF92EF92FF926A0185
:105560007B0160918B1E70918C1E625F7F4F0E9449
:10557000293680918B1E90918C1E02960E94663671
:105580006091941E7091951E8091961E9091971E29
:105590006C0D7D1D8E1D9F1DFF90EF90DF90CF90B5
:1055A0000C940126CF92DF92EF92FF920F931F93FC
:1055B00068017901E0918B1EF0918C1E706846871E
:1055C0005787608B718B60918B1E70918C1E625F10
:1055D0007F4F0E94083680918B1E90918C1E029600
:1055E0000E9466366091941E7091951E8091961E61
:1055F0009091971E6C0D7D1D8E1D9F1D1F910F910B
:10560000FF90EF90DF90CF900C9401260F931F93A3
:10561000CF93DF93DC011796ED91FC911897C0852D
:10562000D1858E01025F1F4FC8010E9466368091AE
:105630008D1E811124C08E010E5F1F4FC8010E9474
:1056400066368A8D9091931E9817F8F0BBE08B9F79
:10565000C0011124B8018054914E0E940836E09197
:105660008B1EF0918C1E9A8D828D891788F481E0B3
:105670008093901EDF91CF911F910F910895B801F3
:105680008BE99EE10E940836EACF8093931EDECF1D
:1056900080E0DF91CF911F910F9108950F931F9399
:1056A000CF93DF937068FC014083518362837383DF
:1056B000C085D1850E9466368E010E5F1F4FC801DE
:1056C0000E9466368A8D9091931E981710F48093ED
:1056D000931EFBE08F9FC0011124B8018054914EAE
:1056E0000E940836E0918B1EF0918C1E9A8D828D5F
:1056F000891740F481E08093901EDF91CF911F9134
:105700000F91089580E0DF91CF911F910F9108953F
:1057100020918F1EFC0120834091941E5091951E74
:105720006091961E7091971E4183528363837483A8
:1057300008958F929F92AF92BF92CF92DF92EF9295
:10574000FF920F931F93FC01DB010FB6F8940F92A9
:105750004091941E5091951E6091961E7091971ED7
:1057600080918F1E9081018112812381348198174D
:1057700029F0401751076207730770F5CD90DD904F
:10578000ED90FC9013974A015B01801A910AA20ADE
:10579000B30A8C149D04AE04BF04F0F4C41AD50AF5
:1057A000E60AF70AC00ED11EE21EF31ECD92DD926C
:1057B000ED92FC92139780918F1E80838091941EAE
:1057C0009091951EA091961EB091971E8183928311
:1057D000A383B48380E001C081E00F900FBE1F91CE
:1057E0000F91FF90EF90DF90CF90BF90AF909F9080
:1057F0008F90089581E08093901E0895009799F00E
:10580000DC015B96ED91FC915C978081853A81F497
:10581000319680E090E0DC010196A11DB11D21913F
:10582000253AD1F3089580918B1E90918C1EE8CF7C
:1058300080E0089580918B1E90918C1E08950F93A7
:105840001F93CF93DF93EC01009781F18A8DE09154
:105850008B1EF0918C1E928D891740F54E855F85C9
:105860006889798977FD11C0E0918B1EF0918C1EBB
:10587000928D44E050E060E070E0491B51096109FD
:1058800071094E875F87688B798B2BE0829FC001FF
:1058900011248054914E2C853D852817390759F0E5
:1058A000E0918B1EF0918C1E828D8A8FDF91CF91BB
:1058B0001F910F9108958E010E5F1F4FC8010E9426
:1058C0006636E0918B1EF0918C1E828D8A8F9091AE
:1058D000931E981710F48093931E2BE0829FC001B3
:1058E0001124B8018054914EDF91CF911F910F91F7
:1058F0000C9408360F931F93CF93DF93EC0100971E
:1059000049F088A5815088A72A8D9FA1291711F0F9
:10591000882331F080E0DF91CF911F910F9108959E
:105920008E010E5F1F4FC8010E9466368FA18A8FBD
:1059300044E050E060E070E0481B510961097109E2
:105940004E875F87688B798B9091931E981710F420
:105950008093931E2BE0829FC0011124B8018054D4
:10596000914E0E94083681E0DF91CF911F910F91F7
:105970000895CF92DF92EF92FF92E0918B1EF0910B
:105980008C1E6685778580899189E0918B1EF091C8
:105990008C1EA0918B1EB0918C1E5A962C9134E0D7
:1059A000C32ED12CE12CF12CC21AD108E108F10848
:1059B000C686D786E08AF18AFF90EF90DF90CF907D
:1059C000089580918B1E90918C1E892B39F0E09167
:1059D0008B1EF0918C1E80A58F5F80A780918B1EFF
:1059E00090918C1E0895EF92FF920F931F93CF9387
:1059F000DF9300D0CDB7DEB77C0181ED96E0F701F3
:105A00009183808361157105C1F0FB010190002035
:105A1000E9F73197E61BED3020F50E2F10E0C801B5
:105A2000019669837A830E94DE30F701958384832F
:105A3000A80169817A810E94FD3F8091EC1E9091BE
:105A4000ED1EF70197838683F092ED1EE092EC1E27
:105A50000F900F90DF91CF911F910F91FF90EF90DA
:105A60000895ECE0DACF0F931F93CF93DF93EC010F
:105A70008091EC1E9091ED1E6BE0892B49F1CE01D7
:105A80000E9469318C0167E77CE00E94243166E066
:105A9000C8010E9469316BE0CE010E9469318C011E
:105AA00064E57CE00E94243166E0C8010E9469310F
:105AB0008091EC1E9091ED1EDC01ED91FC91019026
:105AC000F081E02DBE01DF91CF911F910F910994DC
:105AD000CE010E946931EC0166E37CE00E94243132
