:100000000C947F050C949E050C949E050C949E0503
:100010000C949E050C949E050C942C140C9459146D
:100020000C949E050C949E050C949E050C949E05C4
:100030000C949E050C949E050C949E050C949E05B4
:100040000C949E050C949E050C949E050C949E05A4
:100050000C949E050C949E050C949E050C949E0594
:100060000C949E050C9489240C949E050C949E057A
:100070000C949E050C949E050C949E050C949E0574
:100080000C949E050C949E050C949E050C949E0564
:100090000C94DC240C949E050C949E050C949E05F7
:1000A0000C949E050C949E050C949E050C949E0544
:1000B0000C949E050C949E050C949E050C9453275D
:1000C0000C949E050C949E050C949E05FB21042225
:1000D00007220A22FD21FD210D221D2224222B228E
:1000E0002F2201224D45343035204C6162203220D0
:1000F0004D6F746F7220436F6E74726F6C6C6572AB
:100100002050726F6772616D004D45343035204C60
:1001100061622032204D6F746F722044726976657F
:100120007220496E74657266616365004170722069
:10013000323420323031360053797374656D207457
:10014000696D653A20002C20486561703A20002CCA
:10015000204F435235413A20003C696E76616C690C
:10016000642063686172202200223E002020683AE9
:10017000202020202048414C502100202043746C36
:100180002D433A205265736574207468652041568A
:10019000520020206E3A2020202020456E74657287
:1001A0002061206E756D626572202864656D6F290F
:1001B000002020643A2020202020537461636B20AB
:1001C00064756D7020666F72207461736B730020AC
:1001D00020733A202020202056657273696F6E20AC
:1001E000616E6420736574757020696E666F726DE0
:1001F0006174696F6E002020743A20202020205303
:10020000686F77207468652074696D65207269670E
:100210006874206E6F77004D45343035204C616234
:100220002032204D6F746F7220447269766572209F
:10023000496E74657266616365002068656C700064
:100240002D2D2D2D2D2D2D09092D2D2D2D2D2D2D26
:100250002D092D2D2D2D2D2D2D09092D2D2D2D2D3A
:100260002D2D2D2D2D2D004D6F746F72203209090B
:1002700000090900090900004D6F746F72090953E4
:1002800074617475730909506F776572090944695F
:1002900072656374696F6E002D2D2D2D2D2D2D0926
:1002A000092D2D2D2D2D2D2D2D092D2D2D2D2D2DC6
:1002B0002D09092D2D2D2D2D2D2D2D2D2D2D004DC3
:1002C0006F746F7220310909000909000909007C67
:1002D000090920277127202020202052657475727B
:1002E0006E20746F2070726576696F7573206D650E
:1002F0006E752009097C007C0909202770272020C1
:10030000202020456E74657220506F74656E74698C
:100310006F6D65746572204D6F646509097C007CA2
:10032000090920276627202020202046726565774E
:100330006865656C206D6F746F722020202020200E
:1003400020202009097C007C090920276227202021
:100350002020204170706C7920746865206D6F7466
:100360006F72206272616B6520202009097C007C1D
:10037000090920277327202020202053657420742A
:100380006865206D6F746F7220706F7765722020C2
:1003900020202009097C007C2D2D2D2D2D2D2D2D8B
:1003A0002D2D2D2D2D2D2D2D2D2D2D2D2D2D2D2D7D
:1003B0002D2D2D2D2D2D2D2D2D2D2D2D2D2D2D2D6D
:1003C0002D2D2D2D2D2D2D2D2D2D2D2D2D2D2D2D5D
:1003D0002D2D2D2D2D2D2D7C007C09092020205325
:1003E000696E676C65204D6F746F7220436F6E7419
:1003F000726F6C204D6F64756C6520202009097C3C
:10040000007C0909202020204D61696E204D6F7409
:100410006F7220436F6E74726F6C204D6F64756CD9
:10042000652020202009097C007C2D2D2D2D2D2DCF
:100430002D2D2D2D2D2D2D2D2D2D2D2D2D2D2D2DEC
:100440002D2D2D2D2D2D2D2D2D2D2D2D2D2D2D2DDC
:100450002D2D2D2D2D2D2D2D2D2D2D2D2D2D2D2DCC
:100460002D2D2D2D2D2D2D2D2D7C007C09092027A6
:1004700031272020202020746F206F7065726174F6
:1004800065204D6F746F72203120202020202009BC
:10049000097C007C09092027322720202020207495
:1004A0006F206F706572617465204D6F746F72207C
:1004B0003220202020202009097C007C09092027E7
:1004C0007127202020202052657475726E20746F71
:1004D000204D61696E204D656E7520202020200919
:1004E000097C007C0909202020204D697373696F05
:1004F0006E20436F6E74726F6C2050726F67726102
:100500006D2076312E302020202009097C007C2DA2
:100510002D2D2D2D2D2D2D2D2D2D2D2D2D2D2D2D0B
:100520002D2D2D2D2D2D2D2D2D2D2D2D2D2D2D2DFB
:100530002D2D2D2D2D2D2D2D2D2D2D2D2D2D2D2DEB
:100540002D2D2D2D2D2D2D2D2D2D2D2D2D2D7C00B9
:100550007C090920276D272020202020456E746506
:1005600072204D6F746F7220436F6E74726F6C20C7
:100570004D6F64756C652009097C007C0909202792
:1005800043746C2D43272052657365742041565285
:10059000202020202020202020202020202020205B
:1005A000202009097C00496C6C6567616C207374BC
:1005B0006174652120526573657474696E672041AA
:1005C0005652004D32002D3E53656C656374656470
:1005D0003A20002D3E53656C65637465643A2000D3
:1005E0002D3E43686F6F7365204D6F746F722000EE
:1005F000206F7065726174696F6E3A200027002762
:10060000206973206E6F7420612076616C696420AC
:10061000656E7472792E002D3E53656C656374654A
:10062000643A20002052657475726E696E6720749A
:100630006F204D61696E204D6F746F72204D6F6435
:10064000756C652E2E2000092D3E506F74656E74FA
:10065000696F6D6574657220416374697661746554
:10066000642E00092D3E5072657373202771272078
:10067000746F2072657475726E20746F2074686573
:10068000204D6F746F72200020436F6E74726F6C18
:1006900000092D3E50726573732027722720746FF6
:1006A00020726566726573682074686520446173A2
:1006B00068426F61726420002D3E53656C656374FF
:1006C00065643A2000092D3E456E746572696E6757
:1006D00020506F74656E74696F6D65746572204328
:1006E0006F6E74726F6C2E2E2E20002D3E43686F3D
:1006F0006F7365204D6F746F722000206F7065728C
:100700006174696F6E3A2000092D3E52656C656117
:1007100073696E67204D6F746F722E2E002D3E53DD
:10072000656C65637465643A20002D3E43686F6FA5
:100730007365204D6F746F722000206F7065726159
:1007400074696F6E3A2000094272616B65207365AF
:100750007420617420002E2000092D3E456E7465C2
:100760007220746865204272616B6520466F726307
:10077000652830202D2032353529002D3E53656CFB
:1007800065637465643A20002D3E43686F6F73653E
:10079000204D6F746F722000206F706572617469F4
:1007A0006F6E3A200009506F776572207365742070
:1007B000617420002E2000456E7465722074686597
:1007C00020506F7765722056616C756520282D3238
:1007D000353520746F20323535293B0020202A4ED4
:1007E0006F74653A204E656761746976652056615D
:1007F0006C756573203D2052657665727365002DBA
:100800003E53656C65637465643A200054727920C8
:10081000416761696E2E20002D3E53656C656374DF
:1008200065643A2000092D3E52657475726E696EDA
:100830006720746F204D697373696F6E20436F6E0C
:1008400074726F6C2E2E2000092D3E52656C65610E
:1008500073696E67204D6F746F72732E2E00092DB1
:100860003E537769746368696E6720746F20436FC5
:100870006E74726F6C206F66204D6F746F72200003
:100880002E00092D3E52657475726E20746F2074AF
:100890006865204D61696E204D6F746F72204D6FD9
:1008A00064756C6520746F2073776170204D6F7470
:1008B0006F72732E002D3E53656C65637465643AE8
:1008C0002000223A205754463F00526573657474E5
:1008D000696E672041565200456E746572206465EA
:1008E00063696D616C206E756D6572696320646902
:1008F000676974732C207468656E20524554555294
:100900004E206F722045534300092D3E5377697482
:100910006368696E6720746F204D6F746F72204D2D
:100920006F64756C652E2E00092D3E436C656172F7
:10093000696E672052656769737465727320616EB2
:1009400064204D656E75732E2E00092D3E496E7420
:1009500069616C697A696E67204D6F746F72732E6E
:100960002E002D3E53656C65637465643A20004328
:10097000757272656E74204368616E6E656C20528C
:10098000656164696E67733A2000456E6420507239
:10099000696E742044617461004D6F746F722044FD
:1009A000726976657220496E7075743A20005354EE
:1009B000415445203A2000496E20456E636F6465BE
:1009C00072203A2000456E636F646572204472693C
:1009D00076657220536179732048692E004E6F202E
:1009E0007368617265642064617461206974656D07
:1009F0007320746F207072696E74002D2D2D2D2060
:100A000020202020202020202020202D2D2D2D20B2
:100A10002020202D2D2D2D2D2D2D2D2D2D005368F9
:100A20006172652F517565756520202020205479ED
:100A3000706520202020467265652F546F74616CAC
:100A4000004552524F52206372656174696E67208F
:100A50007461736B2022005461736B20220022208A
:100A6000637265617465642C20737461636B2061CB
:100A700074203078005461736B3A20005461736BBA
:100A80003A2049444C450049444C45090930092D58
:100A900009002F0009092D002D2D2D2D09092D2DBF
:100AA0002D2D092D2D2D2D2D00092D2D2D2D2D2DEB
:100AB0002D2D2D2D00092D2D2D2D004E616D65093B
:100AC000095072692E095374617465000946726594
:100AD000652F546F74616C000952756E7300546118
:100AE000736B0909202009200009537461636B00AE
:100AF000090009002F00090009002020000011242E
:100B00001FBECFEFD1E2DEBFCDBF13E0A0E0B2E069
:100B1000E4E6F1E600E00BBF02C007900D92AC3DA9
:100B2000B107D9F71BE1ACEDB3E001C01D92AC39C0
:100B3000B107E1F70E94F32C0C94B0300C94000044
:100B4000AF92BF92CF92DF92EF92FF920F931F93DB
:100B5000CF93DF93EC010FB6F8940F92E091E4038A
:100B6000F091E503008511850F900FBE0FB6F89444
:100B70000F920F900FBE1A8F098F8D8D8823A1F0D1
:100B8000813009F4DBC0823009F407C1833009F4F5
:100B9000E1C0BFEAAB2EB2E0BB2E17FF0BC0F5EBF6
:100BA000CF2EF2E0DF2E0EC02EE8A22E22E0B22ED3
:100BB00017FDF5CF0115110509F4E5C0ADEBCA2EFF
:100BC000A2E0DA2E66E08E819F810E94EE216BE02A
:100BD0008E819F810E94EE217C0167E772E00E9476
:100BE000A9216BE0C7010E94EE217C0168E772E059
:100BF0000E94A92166E0C7010E94EE216BE00E94DD
:100C0000EE217C0168E972E00E94A92166E0C7013B
:100C10000E94EE216BE00E94EE217C016FEB72E0FE
:100C20000E94A921B501C7010E94A9216BE0C7015B
:100C30000E94EE217C0169EC72E00E94A921B801BA
:100C4000C7010E9433226BE00E94EE218C016CEC04
:100C500072E00E94A921B601C8010E94A92166E0A4
:100C6000C8010E94EE218E8D811154C0EB8CFC8C4A
:100C70007EE8A72E72E0B72EF7FC5BC0E114F1040A
:100C800009F486C02DEBC22E22E0D22E6BE08E81BD
:100C90009F810E94EE218C0160E472E00E94A921F4
:100CA00066E0C8010E94EE216BE00E94EE218C01FB
:100CB00067E672E00E94A921B501C8010E94A9213E
:100CC0006BE0C8010E94EE218C0161E772E00E9496
:100CD000A921B701C8010E9433226BE00E94EE21D6
:100CE0008C0164E772E00E94A921B601C8010E944C
:100CF000A92166E0C8010E94EE2181E088A3DF916E
:100D0000CF911F910F91FF90EF90DF90CF90BF9008
:100D1000AF9008958130B9F0823009F443C0833038
:100D2000F1F0EB8CFC8C4FEAA42E42E0B42EF7FEDF
:100D3000A5CF95EBC92E92E0D92EA8CF96E9A92E82
:100D400092E0B92E35CFEB8CFC8C66E9A62E62E0E2
:100D5000B62E92CF36EAA32E32E0B32E29CF0FB6AD
:100D6000F8940F92E091E403F091E503908581857A
:100D70000F900FBE9B8F8C8FE92EF82E36EAA32E94
:100D800032E0B32E79CFE6ECCE2EE2E0DE2E1ACFA3
:100D900086ECC82E82E0D82E79CF8EE9A82E82E08C
:100DA000B82E06CFEB8CFC8C5EE9A52E52E0B52E5A
:100DB00063CF0F931F93CF93DF93EC010E94301DFD
:100DC00082ED92E09983888318A21F8A188E82E0B0
:100DD0008D8F8E8F1A8E198E1C8E1B8EDF91CF9168
:100DE0001F910F9108950F931F93CF93DF93EC0101
:100DF00088A181113AC066E08E819F810E94EE2118
:100E000066E00E94EE216BE00E94EE218C0163EE11
:100E100074E00E94A92166E0C8010E94EE216BE007
:100E20000E94EE218C016EE075E00E94A92166E02F
:100E3000C8010E94EE216BE00E94EE218C0160E56A
:100E400075E00E94A92166E0C8010E94EE216BE0D6
:100E50000E94EE218C016BE775E00E94A92166E0FB
:100E6000C8010E94EE2181E088A3DF91CF911F91FC
:100E70000F9108950F931F93CF93DF93EC0188A1F7
:100E8000811146C066E08E819F810E94EE2166E05E
:100E90000E94EE216BE00E94EE218C0161E074E083
:100EA0000E94A92166E0C8010E94EE216BE00E9429
:100EB000EE218C0169E274E00E94A92166E0C8017C
:100EC0000E94EE216BE00E94EE218C016BE674E043
:100ED0000E94A92166E0C8010E94EE216BE00E94F9
:100EE000EE218C0163E974E00E94A92166E0C8014B
:100EF0000E94EE216BE00E94EE218C016BEB74E00E
:100F00000E94A92166E0C8010E94EE2181E088A329
:100F1000DF91CF911F910F9108950F931F93CF935E
:100F2000DF93EC0188A1811169C066E08E819F8109
:100F30000E94EE216BE08E819F810E94EE218C0148
:100F400069ED73E00E94A92166E0C8010E94EE21CC
:100F50006BE08E819F810E94EE218C0167E973E036
:100F60000E94A92166E0C8010E94EE216BE08E81FB
:100F70009F810E94EE218C016FE673E00E94A921FF
:100F800066E0C8010E94EE216BE08E819F810E9485
:100F9000EE218C0167E473E00E94A92166E0C8019C
:100FA0000E94EE216BE08E819F810E94EE218C01D8
:100FB0006FE173E00E94A92166E0C8010E94EE2162
:100FC0006BE08E819F810E94EE218C0167EF72E0C1
:100FD0000E94A92166E0C8010E94EE216BE08E818B
:100FE0009F810E94EE218C016FEC72E00E94A9218A
:100FF00066E0C8010E94EE2181E088A3DF91CF91D5
:101000001F910F910895FC0120A1211102C00C94A1
:10101000A00508950F931F93CF93DF93EC016BE02E
:101020008E819F810E94EE218C0167E172E00E9417
:10103000A9216BE0C8010E94EE218C016AE372E0F5
:101040000E94A92166E0C8010E94EE216BE08E811A
:101050009F810E94EE218C0166EF71E00E94A92120
:1010600066E0C8010E94EE216BE08E819F810E94A4
:10107000EE218C016FEC71E00E94A92166E0C801AD
:101080000E94EE216BE08E819F810E94EE218C01F7
:1010900061EB71E00E94A92166E0C8010E94EE2187
:1010A0006BE08E819F810E94EE218C0162E971E0EC
:1010B0000E94A92166E0C8010E94EE216BE08E81AA
:1010C0009F810E94EE218C016BE771E00E94A921B3
:1010D00066E0C8010E94EE216BE08E819F810E9434
:1010E000EE21EC016CE671E00E94A92166E0CE01E0
:1010F000DF91CF911F910F910C94EE21CF93DF934D
:10110000EC018E819F81DC01ED91FC910480F581E1
:10111000E02D0995811104C080E0DF91CF91089501
:101120008E819F81DC01ED91FC910680F781E02D9D
:1011300009958A8B81E0DF91CF910895AF92BF929C
:10114000CF92DF92EF92FF920F931F93CF93DF9393
:101150001F92CDB7DEB75C01DC0153961D921D9244
:101160001D921C925697F50186819781DC01ED91C5
:10117000FC910480F581E02D0995882309F43FC096
:10118000F50186819781DC01ED91FC910680F78164
:10119000E02D0995282FF501828B80ED820F8A3092
:1011A00008F457C02D3209F48BC0213709F4A1C0CF
:1011B0002A3009F496C02D3009F49BC02B3109F474
:1011C00098C06BE08681978129830E94EE218C0173
:1011D00069E571E00E94A921D801ED91FC9102809E
:1011E000F381E02D2981622FC80109956BE0C801C8
:1011F0000E94EE2169E671E00E94A921B4CF80919E
:10120000E6039091E703DC01ED91FC910480F58108
:10121000E02D0995882309F4A6CFD5011696ED9106
:10122000FC9117970190F081E02D0281138180914C
:10123000E6039091E703DC01ED91FC910680F781D4
:10124000E02D0995682FF50186819781F8010995B0
:101250008ACF86819781DC01ED91FC910280F38138
:10126000E02D622F0995F5010289112707FD1095E0
:1012700000531109222717FD2095322F43895489E5
:1012800065897689440F551F661F771F6A017B01A8
:10129000CC0CDD1CEE1CFF1CCC0CDD1CEE1CFF1C62
:1012A000C40ED51EE61EF71E0C0D1D1D2E1D3F1D66
:1012B000D50153960D931D932D933C93569753CF81
:1012C000F5014389548965897689709560955095B3
:1012D00041955F4F6F4F7F4F438B548B658B768B60
:1012E00042CF6AEC72E0F501868197810E94A921C4
:1012F0003ACF0F90DF91CF911F910F91FF90EF9018
:10130000DF90CF90BF90AF9008958F929F92AF9251
:10131000BF92CF92DF92EF92FF920F931F93CF93E2
:10132000DF9300D000D000D0CDB7DEB78C0119829A
:101330001A821B821C821E821D82C0902801D090BE
:1013400029010E94AB155C01CE0101960E94DA20B2
:101350004C0166E0F801868197810E94EE216BE0E6
:101360000E94EE217C0169E071E00E94A9216BE0FE
:10137000C7010E94EE217C016CE271E00E94A9216C
:1013800066E0C7010E94EE216BE00E94EE217C0125
:1013900068E371E00E94A921B401C7010E9479208D
:1013A0006BE00E94EE217C0166E471E00E94A921BD
:1013B000B501C7010E949E227C016CEC72E00E9484
:1013C000A92148E357E160E070E0C7010E94D822FC
:1013D0006BE00E94EE217C016FE471E00E94A92184
:1013E000B601C7010E949E2266E00E94EE2166E0DF
:1013F0000E94EE21F801868197810E942B1F66E0F2
:10140000F801868197810E94EE21F80186819781FB
:101410000E94EB1C26960FB6F894DEBF0FBECDBF20
:10142000DF91CF911F910F91FF90EF90DF90CF90C0
:10143000BF90AF909F908F900895FC0110A20895E7
:101440000F930FB6F8940F92E091E003F091E1034F
:1014500060870F900FBE0FB6F8940F92E091E203F1
:10146000F091E30300870F900FBE0FB6F8940F9230
:10147000E091E403F091E503318720870F900FBEE0
:10148000613081F0623011F00F910895FC01068FF8
:10149000348F238F0330C1F723E030E0348F238F64
:1014A0000F910895FC01058F328F218F033061F772
:1014B00023E030E0328F218FE7CFCF93DF9300D04E
:1014C00000D000D0CDB7DEB77C0119821A821B8212
:1014D0001C821E821D82DC0153961D921D921D925C
:1014E0001C92569712E0A0E8CA2ED12C1EC00430E0
:1014F00009F407C108F4DAC0053009F0BCC0D7010F
:101500001E964D915D916D917C9151974F5F5F4F0C
:101510006F4F7F4FF70146875787608B718B61E074
:1015200070E080E090E00E94E119F701048502304C
:1015300009F480C0E0F6002309F416C1013009F077
:101540009AC0F7018789811189C1808D8823B9F2FA
:10155000C7010E948D07C7010E947E08882379F287
:10156000F7010289003709F4FDC20CF06AC20236A5
:1015700009F4ECC1063609F0A9C16BE0F7018681D8
:1015800097810E94EE215C016DE177E00E94A92124
:10159000D501ED91FC910280F381E02D66E6C50155
:1015A000099566E0C5010E94EE216BE0F701868196
:1015B00097810E94EE215C0168E077E00E94A921FA
:1015C00066E0C5010E94EE210FB6F8940F920F90CD
:1015D0000FBEE091E003F091E10302E020E030E093
:1015E000A9016085C7010E94200AD7015F960C916E
:1015F0005F9766E016968D919C9117970E94EE2159
:101600006BE00E94EE215C016BEE76E00E94A92166
:10161000602FC5010E9420236BE00E94EE215C0137
:101620006BEF76E0C5010E94A92166E0C5010E942A
:10163000EE2165CFC7010E947E08882351F0D701B3
:1016400052968C915297813709F4E8C0823709F499
:10165000C8C003E020E030E0A901D7015F966C919B
:10166000C7010E94200AF70180A1811148CFC7015C
:101670000E94A00544CF6BE0F701868197810E940C
:10168000EE217C0166EA75E00E94A92166E0C701AF
:101690000E94EE212BE088E190E00FB6F894A89527
:1016A000809360000FBE20936000FFCFC7010E94AF
:1016B0007E08882309F423CF0FB6F8940F92E091A7
:1016C000E003F091E10381E080870F900FBE0FB639
:1016D000F8940F92E091E203F091E30380870F907A
:1016E0000FBE0FB6F8940F92E091E403F091E5037A
:1016F000D186C0860F900FBE61E0C7010E94E61D33
:10170000FECE6BE0868197810E94EE215C0163EC46
:1017100075E00E94A92166E0C5010E94EE210FB686
:10172000F8940F92E091E003F091E10310870F909D
:101730000FBE0FB6F8940F92E091E203F091E3032D
:1017400081E080870F900FBE0FB6F8940F92E09162
:10175000E403F091E503D186C0860F900FBE62E0EE
:10176000C7010E94E61DCBCEC7010E94F306D70138
:1017700016968D919C911797DC01ED91FC91048058
:10178000F581E02D0995882309F4B9CEF70186810A
:101790009781DC01ED91FC910680F781E02D0995A0
:1017A000082FF701828B883609F401C30CF4D8C2E4
:1017B0008E3609F4BAC20CF469C2833709F4FBC24D
:1017C000843709F0D5C2CE0101960E94DA20BC010F
:1017D000F701868197810E94792066E00E94EE21C0
:1017E0008ECE6BE0D70116968D919C9117970E9433
:1017F000EE215C0166EC75E00E94A921D501ED9116
:10180000FC910280F381E02D62E7C501099566E055
:10181000C5010E94EE21F70110A21BCF6BE01696C6
:101820008D919C9117970E94EE215C0163ED75E00C
:101830000E94A921D501ED91FC910280F381E02D58
:1018400061E7C501099566E0C5010E94EE2161E0EE
:10185000C7010E94E61DF70110A251CEC7010E94E8
:101860003A07D70190961C92909757961C925797DB
:1018700058960C93C7010E949E08F7019288F1E7E1
:101880009F1609F4CCC2F70183899489A589B6898A
:101890000197A109B1090297A105B10508F48FC20A
:1018A0006BE0F701868197810E94EE215C016CE07C
:1018B00078E00E94A92166E0C5010E94EE21D701CF
:1018C00057960C93579758961C9219CE66E0D701FD
:1018D00016968D919C9117970E94EE216BE00E94C5
:1018E000EE215C016DEF75E00E94A921D501ED911B
:1018F000FC910280F381E02D602FC50109956BE01A
:10190000C5010E94EE215C016FEF75E00E94A921E4
:1019100066E0C5010E94EE21F701078D66E0868131
:1019200097810E94EE216BE00E94EE215C0160EE47
:1019300075E00E94A921602FC5010E9420236BE061
:101940000E94EE215C0160EF75E06CCE6BE0868159
:1019500097810E94EE215C016BE777E00E94A9214C
:10196000D501ED91FC910280F381E02D62E6C50185
:10197000099566E0C5010E94EE216BE0F7018681C2
:1019800097810E94EE215C0169E577E00E94A92120
:1019900066E0C5010E94EE21C7010E949E08D701A2
:1019A00053968D909D90AD90BC90569766E016969C
:1019B0008D919C9117970E94EE2166E00E94EE2186
:1019C0006BE00E94EE213C0167E477E00E94A921D0
:1019D000B501A401C3010E94D8226BE00E94EE2150
:1019E0005C0166E577E00E94A92166E0C5010E94DE
:1019F000EE21F701238934894589568900E0678DF6
:101A0000C7010E94200AD7015F960C915F9766E09C
:101A100016968D919C9117970E94EE216BE00E9483
:101A2000EE215C016AE277E00E94A921602FC501E6
:101A30000E9420236BE00E94EE215C016AE377E0C4
:101A4000F1CD013709F4F4C0033709F03FCF6BE063
:101A5000868197810E94EE215C016FEF77E00E9402
:101A6000A921D501ED91FC910280F381E02D63E77E
:101A7000C501099566E0C5010E94EE2166E0F70107
:101A8000868197810E94EE216BE00E94EE215C012D
:101A900067EB77E00E94A92166E0C5010E94EE2174
:101AA0006BE00E94EE215C016CED77E00E94A921C1
:101AB00066E0C5010E94EE21C7010E949E08D70181
:101AC00053962D913D914D915C91569701E05F9613
:101AD0006C91C7010E94200AF70183889488A58829
:101AE000B68866E0868197810E94EE2166E00E94BA
:101AF000EE216BE00E94EE213C0165EA77E00E9456
:101B0000A921B501A401C3010E94D8226BE00E9463
:101B1000EE215C0164EB77E00E94A92166E0C5013B
:101B20000E94EE21D70190961C92C7010E94A00549
:101B3000F701078D66E0868197810E94EE216BE0B8
:101B40000E94EE215C0168E877E00E94A921602FE5
:101B5000C5010E9420236BE00E94EE215C0168E930
:101B600077E060CD66E0F701868197810E94EE21E3
:101B70006BE00E94EE215C0168EB76E00E94A921F7
:101B8000D501ED91FC910280F381E02D60E7C50164
:101B9000099566E0C5010E94EE216BE00E94EE21EE
:101BA0005C0165EC76E00E94A92166E0C5010E9417
:101BB000EE21F701078D6BE0868197810E94EE216F
:101BC0005C0167E476E00E94A92166E0C5010E94FD
:101BD000EE2166E00E94EE216BE00E94EE215C01A6
:101BE00063E676E00E94A921602FC5010E942023B0
:101BF0006BE00E94EE215C0168E876E00E94A9217A
:101C000066E0C5010E94EE216BE00E94EE215C01BE
:101C100061E976E00E94A92166E0C5010E94EE21FB
:101C200062E0C7010E94E61DD70190961C9267CC26
:101C30006BE0F701868197810E94EE215C0167E1EC
:101C400076E00E94A921D501ED91FC910280F381FB
:101C5000E02D61E7C501099566E0C5010E94EE210E
:101C60006BE00E94EE215C0164E276E00E94A92113
:101C700066E0C5010E94EE2161E0C7010E94E61DF9
:101C8000F70110A2108E81E0878B39CC8D3609F0D8
:101C90006FC06BE0868197810E94EE215C0162E655
:101CA00079E00E94A921D501ED91FC910280F38198
:101CB000E02D6DE6C501099566E0F7018681978103
:101CC0000E94EE2166E00E94EE216BE00E94EE2170
:101CD0005C0169E079E00E94A92166E0C5010E94EB
:101CE000EE216BE00E94EE215C0168E279E00E9447
:101CF000A92166E0C5010E94EE216BE00E94EE2161
:101D00005C016AE479E00E94A92166E0C5010E94B5
:101D1000EE21D70190961C92909781E057968C9374
:101D200061E0C7010E94E61DEACB6BE0F701868106
:101D300097810E94EE215C0168ED78E00E94A92164
:101D400066E0C5010E94EE21D70153961D921D92B7
:101D50001D921C92569765E0C7010E94E61DCFCBED
:101D60008F3329F1843609F4D0C0833009F4B2C02E
:101D7000D7011696AD90BC901797D501ED91FC91C7
:101D80000280F381E02D62E2C5010995D501ED9154
:101D9000FC910280F381E02D602FC50109956BE075
:101DA000C5010E94EE215C0162EC78E03BCCC701EA
:101DB0000E940A08A4CBC7010E948509A0CB6BE052
:101DC000868197810E94EE215C0168E178E00E94A3
:101DD000A921D501ED91FC910280F381E02D692DBF
:101DE000C501099566E0C5010E94EE2166E00E94EA
:101DF000EE2166E00E94EE216BE00E94EE215C0184
:101E000065E278E00E94A92166E0C5010E94EE210A
:101E10006BE00E94EE215C0168E478E003CCD7011E
:101E200053968D909D90AD90BC90569766E0169617
:101E30008D919C9117970E94EE216BE00E94EE21FC
:101E40003C0165EB78E00E94A921B501A401C30122
:101E50000E94D822F70183889488A588B68866E016
:101E6000868197810E94EE2166E00E94EE216BE060
:101E70000E94EE213C016EE578E00E94A921B501A7
:101E8000A401C3010E94D82262E00E94EE216BE00F
:101E90000E94EE215C0160E878E00E94A92166E0E2
:101EA000C5010E94EE216BE00E94EE215C0162E818
:101EB00078E00E94A92166E0C5010E94EE21D701C9
:101EC00053968C9153975F968C9361E0C7010E9463
:101ED000E61D15CB6BE0F701868197810E94EE210C
:101EE0007C016AEC78E00E94A92166E0C7010E94AB
:101EF000EE212BE088E190E00FB6F894A89580934E
:101F000060000FBE20936000FFCF868197810E9402
:101F1000451EF5CA415051096109710981E04230FD
:101F200051056105710508F080E00895CF93DF93B6
:101F300000D000D0CDB7DEB78C010E94DA176983DC
:101F40007A838B839C83EE24EA94F12C15C0F801EC
:101F500046855785608971894F5F5F4F6F4F7F4F0F
:101F600046875787608B718B44E650E060E070E0F5
:101F7000CE0101960E947A190FB6F8940F92E09163
:101F8000E203F091E30320850F900FBE0FB6F894A3
:101F90000F920F900FBEE091E003F091E103D801A2
:101FA00052969C9180859813D2CF213009F449C074
:101FB0002223A1F1223009F455C0233009F0C7CF04
:101FC00061E0D80155968D919C9156970E94D21050
:101FD0006C01D694C794D694C794C114D10409F463
:101FE00047C0B0E8CB16D10408F45FC0F0E8CF16C4
:101FF000D10409F04AC080E8A82EB12C0FB6F8949D
:102000000F92E091E403F091E503B186A0860F9072
:102010000FBED0929B00C0929A0099CF0FB6F89451
:102020000F920F900FBEE091E403F091E5036085FD
:102030007185D80153968D919C9154970E940812F6
:1020400086CF0FB6F8940F920F900FBEE091E40385
:10205000F091E50360857185F801838994890E9478
:102060008D1175CFF801838994890E945C126FCF1E
:102070002DEFA22EB12CCC24C394D12CB501F801A4
:10208000838994890E948D11B9CFAA24BB24AC18EE
:10209000BD08AA0CBB1CB394B501D80153968D9111
:1020A0009C9154970E948D11A9CFC601880F991F4A
:1020B0005701A81AB90AE2CFAF92CF92DF92EF92FE
:1020C000FF920F931F93CF93DF93EC010E94301D7B
:1020D0008AED92E099838883FC8AEB8ADE8ACD8A36
:1020E000AA8ADF91CF911F910F91FF90EF90DF901F
:1020F000CF90AF900895FF920F931F93CF93DF93EC
:10210000EC017983688380917C00806480937C00FB
:1021100080917A00856C80937A000881198101157D
:102120001105D1F16EED72E0C8010E94A92166E0AF
:10213000C8010E94EE21088119810115110561F184
:10214000F0907C006DEF72E0C8010E94A92160E070
:10215000C8010E94EE216F2D0E94202366E00E949C
:10216000EE210990D881C02D2097B1F010917A000E
:1021700065E073E0CE010E94A92160E0CE010E94DB
:10218000EE21612F0E94202366E0DF91CF911F9105
:102190000F91FF900C94EE21DF91CF911F910F9141
:1021A000FF900895683008F060E080917C00887F9F
:1021B00080937C0080917C00862B80937C008091B2
:1021C0007A00806480937A0080917A0086FDFCCF4B
:1021D000809178002091790090E0922B0895DF9211
:1021E000EF92FF920F931F93CF93DF938C01D62E24
:1021F000E42E80E48417E0F480E4E82EF12CC0E0C3
:10220000D0E06D2DC8010E94D210C80FD91FF394E1
:10221000FE10F7CF6E2D70E0CE010E94C52ECB01CF
:10222000DF91CF911F910F91FF90EF90DF90089574
:102230004111E4CFC0E0D0E0EDCF0F931F93CF93D7
:10224000DF93EC016BE00E94EE218C016FE679E0F8
:102250000E94A92166E0C8010E94EE216BE00E9465
:10226000EE218C016AE879E00E94A92166E0C801AC
:102270000E94EE21CE01DF91CF911F910F91089521
:102280006F927F928F92AF92CF92EF92FF920F93C5
:102290001F93CF93DF93CDB7DEB7FC013B018E8553
:1022A0007183608355834483318720871587048732
:1022B000F786E686C08AA18A828A838B41505109BB
:1022C00053834283215031093783268301501109FA
:1022D0001387028761157105A1F06EE073E0C301F9
:1022E0000E94A92166E0C301DF91CF911F910F9158
:1022F000FF90EF90CF90AF908F907F906F900C9465
:10230000EE21DF91CF911F910F91FF90EF90CF9031
:10231000AF908F907F906F900895CF93FC01A28132
:10232000B381CC9181E090E0AC01008802C0440F01
:10233000551F0A94E2F79C01018802C0220F331F47
:102340000A94E2F7242B2C2B2C93A681B7814C9175
:102350009C01028802C0220F331F0A94E2F72095E5
:1023600024232C93A285B3854C919C01038802C041
:10237000220F331F0A94E2F7422B4C93A085B185BC
:102380004C919C01028802C0220F331F0A94E2F78D
:10239000422B4C93A481B5814C919C0177FD1BC0CD
:1023A000008802C0220F331F0A94E2F7422B4C939D
:1023B000A481B5812C91018802C0880F991F0A94CD
:1023C000E2F7809582238C930684F785E02D718354
:1023D0006083CF910895018802C0220F331F0A94B1
:1023E000E2F7422B4C93A481B5812C91008802C066
:1023F000880F991F0A94E2F7809582238C930684B4
:10240000F785E02D71956195710971836083E1CF46
:10241000FC01A281B3816C9181E090E0AC01008865
:1024200002C0440F551F0A94E2F79C01018802C0C4
:10243000220F331F0A94E2F7242B262B2C93A6811C
:10244000B7814C919C01028802C0220F331F0A946D
:10245000E2F7209524232C93A285B3854C919C010F
:10246000038802C0220F331F0A94E2F7422B4C93D9
:10247000A085B1854C919C01028802C0220F331FB8
:102480000A94E2F7422B4C93A481B5814C919C01B4
:10249000008802C0220F331F0A94E2F7422B4C93AC
:1024A000A481B5812C91018802C0880F991F0A94DC
:1024B000E2F7282B2C930895FC01A281B3816C9143
:1024C00081E090E0AC01008802C0440F551F0A94DF
:1024D000E2F79C01018802C0220F331F0A94E2F741
:1024E000242B262B2C93A681B7814C919C0102882A
:1024F00002C0220F331F0A94E2F7209524232C9365
:10250000A285B3854C919C01038802C0220F331F22
:102510000A94E2F7422B4C93A085B1854C919C0123
:10252000028802C0220F331F0A94E2F7422B4C9319
:10253000A481B5814C919C01008802C0220F331FF9
:102540000A94E2F7209524232C93A481B5812C9141
:10255000018802C0880F991F0A94E2F780958223B0
:102560008C9308950F931F93CF93DF93EC016BE04F
:102570000E94EE218C0169E979E00E94A92166E0C0
:10258000C8010E94EE21CE01DF91CF911F910F91E2
:102590000895CF93DF9300D000D0CDB7DEB78C0184
:1025A0000E94DA1769837A838B839C830FB6F89431
:1025B0000F92E091DE03F091DF03C084D1840F908D
:1025C0000FBE6BE0F801868197810E94EE217C01AD
:1025D00067EB79E00E94A921B601C7010E9433226E
:1025E00066E00E94EE210FB6F8940F92E091DC03B2
:1025F000F091DD03D0840F900FBE6BE0F80186816F
:1026000097810E94EE217C016EEA79E00E94A92167
:102610006D2DC7010E94202366E00E94EE21F80183
:1026200046855785608971894F5F5F4F6F4F7F4F38
:1026300046875787608B718B48EE53E060E070E00F
:10264000CE0101960E947A19B1CFEF92FF920F93BB
:102650001F93CF93DF93EC010E94301D87E393E03B
:1026600099838883FB8AEA8ADF91CF911F910F912A
:10267000FF90EF9008956F927F928F92AF92CF92DA
:10268000DF92EF92FF920F931F93CF93DF93CDB71B
:10269000DEB73C01FA019F8588897894D3011F96A3
:1026A0007C936E931E9713965C934E931297159698
:1026B0003C932E93149717961C930E931697189687
:1026C000EC9218971996CC9219971A96AC921A9781
:1026D0001B968C921B971C969C931C971D968C9313
:1026E0001D97208181E090E0AC0102C0440F551F8E
:1026F000EA94E2F7BC0102C0660F771FCA94E2F7C2
:102700006B01C42AC22AC082408118962C912F5F87
:10271000DC0102C0AA0FBB1F2A95E2F75A2F509581
:10272000D30119962C9119972F5FBC0102C0660F37
:10273000771F2A95E2F7562B452340831496ED9197
:10274000FC9115976081AC011A960C901A9702C003
:10275000440F551F0A94E2F79C011B960C901B979F
:1027600002C0220F331F0A94E2F7242B262B20836A
:102770001696ED91FC9117976081AC011D960C9017
:102780001D9702C0440F551F0A94E2F79C011C9646
:102790000C901C9702C0220F331F0A94E2F72423E7
:1027A0002095262320831696ED91FC9117979F0183
:1027B0002F5F3F4F11963C932E9341819C011C96B5
:1027C0000C901C9702C0220F331F0A94E2F71D964B
:1027D0000C901D9702C0880F991F0A94E2F7822B74
:1027E000842B81831E960D911C911F970115110555
:1027F00031F16BE373E0C8010E94A92166E0C801D2
:102800000E94EE21D3011E960D911C911F97011578
:102810001105A9F062E673E0C8010E94A92166E0F3
:10282000C801DF91CF911F910F91FF90EF90DF9042
:10283000CF90AF908F907F906F900C94EE21DF91AE
:10284000CF911F910F91FF90EF90DF90CF90AF90BD
:102850008F907F906F9008951F920F920FB60F92F6
:1028600011240BB60F928F939F93EF93FF938EB12A
:10287000E091DC03F091DD0385FB882780F98087F8
:10288000E091DE03F091DF030FB6F8940F920F9002
:102890000FBE80859185019691878087FF91EF918A
:1028A0009F918F910F900BBE0F900FBE0F901F90B6
:1028B00018951F920F920FB60F9211240BB60F921C
:1028C0008F939F93EF93FF938EB190E489278EB9F6
:1028D000E091DC03F091DD0380958087E091DE03D9
:1028E000F091DF030FB6F8940F920F900FBE808522
:1028F0009185019791878087FF91EF919F918F91AB
:102900000F900BBE0F900FBE0F901F9018950F9356
:102910001F93CF93DF93EC016BE00E94EE218C01BB
:1029200065EC79E00E94A92166E0C8010E94EE21D1
:10293000CE01DF91CF911F910F910895CF93DF9337
:1029400000D000D0CDB7DEB78C010E94DA176983C2
:102950007A838B839C830FB6F8940F920F900FBEEF
:10296000E091E403F091E50360857185F8018289C7
:1029700093890E948D11F801468557856089718978
:102980004F5F5F4F6F4F7F4F46875787608B718BCD
:1029900048EE53E060E070E0CE0101960E947A19A3
:1029A000DACFEF92FF920F931F93CF93DF93EC0157
:1029B0000E94301D86E893E099838883FB8AEA8A27
:1029C000DF91CF911F910F91FF90EF9008950F939A
:1029D0001F93CF93DF93EC010E94D4178091E803FB
:1029E000811121C082EF93E09093EE038093ED0379
:1029F0001092F0031092EF0387E397E19093EC03BA
:102A00008093EB031092EA031092E9039093F5038D
:102A10008093F40389EE93E09093F3038093F203A1
:102A200081E08093E803209709F460C0AE014C5F19
:102A30005F4F2396C633D74108F058C0E091ED03AD
:102A4000F091EE03ADEEB3E006C080819181009776
:102A500039F0DF01FC012281338124173507A8F307
:102A6000C3E0E93EFC0709F441C00D911C911197A8
:102A70000C5F1F4F808191818D939C93C901841BB2
:102A8000950B8930910500F1BF01640F751FDB01C3
:102A900013969C938E9312975383428312968D9133
:102AA0009C911397ADEEB3E001C0DF01ED91FC9175
:102AB00011972281338128173907B8F3EB01F98385
:102AC000E8836D937C939A018091000290910102BA
:102AD000821B930B90930102809300020E940719BE
:102AE000C801DF91CF911F910F91089500E010E090
:102AF0000E940719C801DF91CF911F910F9108958E
:102B0000CF93DF93009721F1EC0124970E94D41713
:102B10004A815B81ADEEB3E001C0DF01ED91FC9134
:102B200011972281338124173507B8F3F983E8839D
:102B3000CD93DC938091000290910102840F951F48
:102B40009093010280930002DF91CF910C940719BA
:102B5000DF91CF9108958091000290910102089534
:102B6000089580915E1B823018F00E949E26F9CF56
:102B7000FFCFCF92DF92EF92FF926B017C01E09149
:102B8000291BF0912A1B6283738384839583809130
:102B9000321B9091331BA091341BB091351B609177
:102BA000291B70912A1BC816D906EA06FB0610F1EC
:102BB0008091461B9091471B6E5F7F4F0E94652559
:102BC0008091020290910302A0910402B09105024B
:102BD000C816D906EA06FB0640F4C0920202D0925B
:102BE0000302E0920402F0920502FF90EF90DF9062
:102BF000CF9008958091441B9091451B6E5F7F4F4D
:102C0000FF90EF90DF90CF900C9465255F926F92CC
:102C10007F928F929F92AF92BF92CF92DF92EF926C
:102C2000FF920F931F93CF93DF934C01162F572ED4
:102C30005A01390189E290E00E94E714EC01009703
:102C400009F4E9C0C114D10409F4DAC0DC8ECB8EDA
:102C5000C601A50165EA70E00E942E3021E0A21AAB
:102C6000B108CB8CDC8CCA0CDB1CAE01435E5F4F21
:102C7000E12FF52D2AE0CF013191DA013D93AD012D
:102C8000DC018C91882311F02150A9F71EA2102F8E
:102C9000043008F07DC01A8F1FA318A65E01B2E0B1
:102CA000AB0EB11CC5010E944025CE010E960E94BC
:102CB0004025DB87CA8784E090E0A0E0B0E0811B7C
:102CC0009109A109B1098E879F87A88BB98BDF8BEA
:102CD000CE8BA301B401C6010E94CE2599838883BF
:102CE000E114F10419F0F701D183C0830FB6F89411
:102CF0000F928091361B8F5F8093361B8091291B2A
:102D000090912A1B892B09F449C08091301B8111B5
:102D10000BC0E091291BF0912A1B828D081720F02F
:102D2000D0932A1BC093291B80912C1B8F5F80930B
:102D30002C1B8A8D9091311B981738F1FBE08F9FE7
:102D4000C0011124B501825A944E0E9444250F906F
:102D50000FBE8091301B882339F0E091291BF09140
:102D60002A1B828D8017B0F081E0DF91CF911F91F7
:102D70000F91FF90EF90DF90CF90BF90AF909F901A
:102D80008F907F906F905F9008958093311BD6CF86
:102D900013E081CF0E949E2681E0E7CFD0932A1BCB
:102DA000C093291B8091361B813009F0BDCF8EE581
:102DB0009BE10E942F2589E69BE10E942F2584E755
:102DC0009BE10E942F258FE79BE10E942F2583E541
:102DD0009BE10E942F2588E49BE10E942F2589E337
:102DE0009BE10E942F2583E59BE19093471B8093F5
:102DF000461B88E49BE19093451B8093441B94CF32
:102E0000C5010E94E7149C8F8B8F009709F021CF9A
:102E1000CE010E9480158FEFA8CF0FB6F8940F92C5
:102E2000009729F00F900FBEFC01828D08958091CC
:102E3000291B90912A1B0F900FBEFC01828D0895D3
:102E4000EF92FF921F93CF93DF93EC01262F643014
:102E500008F023E00FB6F8940F92209709F44AC0C7
:102E60003FA13217A9F18091291B90912A1B32179B
:102E7000B8F5C817D90741F0E091291BF0912A1B3A
:102E800011E0828D281708F410E08A8D381769F157
:102E90002FA34E855F856889798977FD0CC044E052
:102EA00050E060E070E0421B5109610971094E87F2
:102EB0005F87688B798B2BE0829FC0011124825A37
:102EC000944E2C853D8528173907C9F0113079F0CB
:102ED0000F900FBEDF91CF911F91FF90EF9008955B
:102EE00011E0C817D90781F6D0CF2A8FD1CF0E9421
:102EF0009E26EECFC091291BD0912A1BB1CF7E0117
:102F000082E0E80EF11CC7010E94A2258A8D9091F3
:102F1000311B981710F48093311B2BE0829FC00166
:102F20001124B701825A944E0E944425CFCFAF920C
:102F3000BF92CF92DF92EF92FF920F93A12CB12C10
:102F4000C12CD12C87E3E82E8BE1F82E00E020E0A5
:102F500030E044E650E06AE873E081EB95E10E94DE
:102F60000616813041F00F91FF90EF90DF90CF90E7
:102F7000BF90AF900895F8948093301B1092321B4D
:102F80001092331B1092341B1092351B0F91FF903F
:102F9000EF90DF90CF90BF90AF900C946226F894A2
:102FA0001092301B0C949D2680912B1B8F5F809379
:102FB0002B1B08950FB6F8940F926091321B7091FD
:102FC000331B8091341B9091351B0F900FBE0895D9
:102FD0006091321B7091331B8091341B9091351B93
:102FE00008958091361B0895009711F04D9608952D
:102FF0008091291B90912A1B4D9608958091371B33
:103000009091381B0895AF92BF92CF92DF92EF92CA
:10301000FF920F931F93CF93DF9380912B1B81110E
:10302000CFC08091321B9091331BA091341BB09183
:10303000351B0196A11DB11D8093321B9093331B4C
:10304000A093341BB093351BC090321BD090331B20
:10305000E090341BF090351BC114D104E104F1045D
:1030600039F58091461B9091471B2091441B30916C
:10307000451B3093471B2093461B9093451B809321
:10308000441B80912D1B8F5F80932D1BE091461B6D
:10309000F091471B808181119AC08FEF9FEFDC0177
:1030A0008093020290930302A0930402B09305025E
:1030B0008091020290910302A0910402B091050256
:1030C000B12CC816D906EA06FB0608F457C09BE0E7
:1030D000A92EE091461BF091471B8081882309F4BB
:1030E00042C0E091461BF091471B0780F085E02D20
:1030F000C085D1854A815B816C817D81C416D506EE
:10310000E606F70608F47AC08E010E5F1F4FC8016D
:103110000E94A225888D998D892B21F0CE010E96D3
:103120000E94A2258A8D9091311B981710F48093EC
:10313000311BA89EC0011124B801825A944E0E94EE
:103140004425E091291BF0912A1B9A8D828D9817B6
:1031500008F4BFCFBB24B394E091461BF091471B0A
:1031600080818111BECF4FEF5FEFBA014093020221
:10317000509303026093040270930502E091291BAF
:10318000F0912A1BE28D8BE0E89FF0011124E25AB6
:10319000F44E8081823010F0BB24B39480912E1BBA
:1031A000882311F0BB24B3948B2DDF91CF911F9115
:1031B0000F91FF90EF90DF90CF90BF90AF90089568
:1031C00080912F1B8F5F80932F1BB12CE7CFE09155
:1031D000461BF091471B0780F085E02D0084F185A8
:1031E000E02D82819381A481B58180930202909326
:1031F0000302A0930402B09305025ACF4093020247
:10320000509303026093040270930502B7CFEF92CC
:10321000FF920F931F93CF93DF930FB6F8940F9203
:1032200080912B1B815080932B1B80912B1B811134
:1032300050C08091361B882309F44BC02BE0F22E3E
:10324000EE24E39427C0E091401BF091411BC08520
:10325000D185CE010E960E94A2258E010E5F1F4FD2
:10326000C8010E94A2258A8D9091311B981710F4F5
:103270008093311BF89EC0011124B801825A944EEC
:103280000E944425E091291BF0912A1B9A8D828D82
:10329000981748F58091391B8111D5CF80912F1B4C
:1032A000882399F080912F1B882379F0C1E00E9438
:1032B00003188111C0932E1B80912F1B8150809386
:1032C0002F1B80912F1B8111F2CF80912E1B8130FB
:1032D00069F080E00F900FBEDF91CF911F910F91A9
:1032E000FF90EF900895E0922E1BD4CF0E949E266F
:1032F00081E0F0CFCF92DF92EF92FF920F931F9376
:10330000CF93DF9300D000D0CDB7DEB720912B1B39
:103310002F5F20932B1BC090321BD090331BE0906B
:10332000341BF090351BFC01008111812281338117
:10333000400F511F621F731FC016D106E206F3062D
:10334000E8F44017510762077307E8F0FC01408377
:103350005183628373830E940719811102C00E9406
:103360009E260F900F900F900F90DF91CF911F919D
:103370000F91FF90EF90DF90CF9008954017510785
:103380006207730728F0C416D506E606F706F0F6BE
:10339000FC0140835183628373838091291B909148
:1033A0002A1B029649835A836B837C830E94A22541
:1033B00049815A816B817C81CB01BA010E94B91588
:1033C000CACFCF92DF92EF92FF926115710581050E
:1033D000910539F40E949E26FF90EF90DF90CF90E8
:1033E000089520912B1B2F5F20932B1BC090321B25
:1033F000D090331BE090341BF090351BC60ED71EC7
:10340000E81EF91E8091291B90912A1B02960E94AA
:10341000A225C701B6010E94B9150E940719882389
:10342000C9F2FF90EF90DF90CF90089580912B1B11
:1034300081113BC010922E1BE091311B8BE0E89F65
:10344000F0011124E25AF44E8081811110C09BE0FA
:103450008091311B81508093311BE091311B9E9FE5
:10346000F0011124E25AF44E8081882389F3E0911F
:10347000311B8BE0E89FF0011124E25AF44EA18148
:10348000B28114960D90BC91A02DB283A183CF017F
:103490000396A817B90769F018968D919C91199712
:1034A00090932A1B8093291B089581E080932E1B03
:1034B000089514969C91149715968C91918382830C
:1034C000A92FB82FE9CFCF92DF92EF92FF926A0136
:1034D0007B016091291B70912A1B625F7F4F0E94C4
:1034E00065258091291B90912A1B02960E94A22596
:1034F0006091321B7091331B8091341B9091351B6E
:103500006C0D7D1D8E1D9F1DFF90EF90DF90CF9065
:103510000C94B915CF92DF92EF92FF920F931F9305
:1035200068017901E091291BF0912A1B7068468798
:103530005787608B718B6091291B70912A1B625F8A
:103540007F4F0E9444258091291B90912A1B02964F
:103550000E94A2256091321B7091331B8091341B15
:103560009091351B6C0D7D1D8E1D9F1D1F910F9120
:10357000FF90EF90DF90CF900C94B9150F931F93AD
:10358000CF93DF93DC011796ED91FC911897C085DE
:10359000D1858E01025F1F4FC8010E94A225809134
:1035A0002B1B811124C08E010E5F1F4FC8010E948A
:1035B000A2258A8D9091311B9817F8F0BBE08B9F64
:1035C000C0011124B801825A944E0E944425E09112
:1035D000291BF0912A1B9A8D828D891788F481E02E
:1035E00080932E1BDF91CF911F910F910895B80109
:1035F00089E39BE10E944425EACF8093311BDECF13
:1036000080E0DF91CF911F910F9108950F931F9349
:10361000CF93DF937068FC0140835183628373838F
:10362000C085D1850E94A2258E010E5F1F4FC80163
:103630000E94A2258A8D9091311B981710F48093D7
:10364000311BFBE08F9FC0011124B801825A944EB8
:103650000E944425E091291BF0912A1B9A8D828DAE
:10366000891740F481E080932E1BDF91CF911F9149
:103670000F91089580E0DF91CF911F910F910895F0
:1036800020912D1BFC0120834091321B5091331B54
:103690006091341B7091351B418352836383748323
:1036A00008958F929F92AF92BF92CF92DF92EF9246
:1036B000FF920F931F93FC01DB010FB6F8940F925A
:1036C0004091321B5091331B6091341B7091351B1C
:1036D00080912D1B90810181128123813481981763
:1036E00029F0401751076207730770F5CD90DD9000
:1036F000ED90FC9013974A015B01801A910AA20A8F
:10370000B30A8C149D04AE04BF04F0F4C41AD50AA5
:10371000E60AF70AC00ED11EE21EF31ECD92DD921C
:10372000ED92FC92139780912D1B80838091321B28
:103730009091331BA091341BB091351B81839283F0
:10374000A383B48380E001C081E00F900FBE1F917E
:103750000F91FF90EF90DF90CF90BF90AF909F9030
:103760008F90089581E080932E1B0895009799F023
:10377000DC015B96ED91FC915C978081853A81F448
:10378000319680E090E0DC010196A11DB11D2191F0
:10379000253AD1F308958091291B90912A1BE8CFF7
:1037A00080E008958091291B90912A1B08950F9322
:1037B0001F93CF93DF93EC01009781F18A8DE09105
:1037C000291BF0912A1B928D891740F54E855F8544
:1037D0006889798977FD11C0E091291BF0912A1B36
:1037E000928D44E050E060E070E0491B51096109AE
:1037F00071094E875F87688B798B2BE0829FC001B0
:103800001124825A944E2C853D852817390759F08A
:10381000E091291BF0912A1B828D8A8FDF91CF9135
:103820001F910F9108958E010E5F1F4FC8010E94D6
:10383000A225E091291BF0912A1B828D8A8F9091FD
:10384000311B981710F48093311B2BE0829FC0012D
:103850001124B801825A944EDF91CF911F910F919C
:103860000C9444250F931F93CF93DF93EC010097A3
:1038700049F088A5815088A72A8D9FA1291711F0AA
:10388000882331F080E0DF91CF911F910F9108954F
:103890008E010E5F1F4FC8010E94A2258FA18A8F43
:1038A00044E050E060E070E0481B51096109710993
:1038B0004E875F87688B798B9091311B981710F436
:1038C0008093311B2BE0829FC0011124B801825AE2
:1038D000944E0E94442581E0DF91CF911F910F917A
:1038E0000895CF92DF92EF92FF92E091291BF09121
:1038F0002A1B6685778580899189E091291BF09143
:103900002A1BA091291BB0912A1B5A962C9134E0B6
:10391000C32ED12CE12CF12CC21AD108E108F108F8
:10392000C686D786E08AF18AFF90EF90DF90CF902D
:1039300008958091291B90912A1B892B39F0E091E1
:10394000291BF0912A1B80A58F5F80A78091291BDE
:1039500090912A1B0895EF92FF920F931F93CF939C
:10396000DF9300D0CDB7DEB77C0183E993E0F701A8
:103970009183808361157105C1F0FB0101900020E6
:10398000E9F73197E61BED3020F50E2F10E0C80166
:10399000019669837A830E947921F7019583848354
:1039A000A80169817A810E94353080918A1B9091AB
:1039B0008B1BF70197838683F0928B1BE0928A1B07
:1039C0000F900F90DF91CF911F910F91FF90EF908B
:1039D0000895ECE0DACF0F931F93CF93DF93EC01C0
:1039E00080918A1B90918B1B6BE0892B49F1CE0152
:1039F0000E94EE218C016EE17AE00E94A92166E02E
:103A0000C8010E94EE216BE0CE010E94EE218C01E4
:103A10006BEF79E00E94A92166E0C8010E94EE21C7
:103A200080918A1B90918B1BDC01ED91FC910190A0
:103A3000F081E02DBE01DF91CF911F910F9109948C
:103A4000CE010E94EE21EC016DED79E00E94A921EA
:103A500066E0CE01DF91CF911F910F910C94EE2182
:103A60004F925F926F927F928F929F92AF92BF928E
:103A7000CF92DF92EF92FF920F931F93CF93DF933A
:103A8000EC013B0149012801FC0189E993E08193A4
:103A90009193A12CB12CC12CD12C7F01042F9E011C
:103AA000A40188E69EE20E9406165F824E829986F5
:103AB000888620918C1B30918D1B3D832C83D09365
:103AC0008D1BC0938C1B1C861D8680909A1B90902A
:103AD0009B1B9FEF891A990A90929B1B80929A1BBD
:103AE0009B868A861E861F86188A198A411451046D
:103AF00009F44CC06BE0813041F1C2010E94EE211B
:103B0000EC0161E47AE00E94A921B301CE010E9498
:103B1000A921E881F9810280F381E02D62E2CE01E2
:103B2000099566E0CE01DF91CF911F910F91FF9033
:103B3000EF90DF90CF90BF90AF909F908F907F904D
:103B40006F905F904F900C94EE21C2010E94EE2185
:103B5000EC0167E57AE00E94A921B301CE010E9441
:103B6000A9216BE0CE010E94EE21EC016EE57AE026
:103B70000E94A92163E0CE010E94EE21B4010E94BF
:103B80009E2262E00E94EE2166E0CDCFDF91CF91D0
:103B90001F910F91FF90EF90DF90CF90BF90AF906B
:103BA0009F908F907F906F905F904F900895EC0161
:103BB000E881F9810190F081E02D09951B821A823C
:103BC0006FEF7FEFCB010E94E119FACFFC01648710
:103BD00065870895FC01C681D781209739F0CE0111
:103BE0000E94A92166E0CE010E94EE212BE088E12F
:103BF00090E00FB6F894A895809360000FBE2093D4
:103C00006000FFCF0E94DA170E94972F20E030E07B
:103C10004AE754E40E942F2F0895CF92DF92EF924B
:103C2000FF920F931F93CF93DF93EC017B018A8167
:103C30009B810E94F4176C016BE0C7010E94EE218A
:103C40008C0165E77AE00E94A921B601C8010E94B3
:103C5000A92166E0C8010E94EE218A859B852885FE
:103C60003985A701BC01821B930B0E94F2200C80B6
:103C7000DD81C02D2097D9F6DF91CF911F910F9153
:103C8000FF90EF90DF90CF9008950F931F93CF9305
:103C9000DF93EC0180918C1B90918D1B009719F0A4
:103CA000BE010E940D1E6BE0CE010E94EE218C0130
:103CB0006CE77AE00E94A92166E0C8010E94EE212B
:103CC00080919A1B90919B1BBC016F5F7F4FAE014F
:103CD00083569109DF91CF911F910F910C94F2209F
:103CE0008F929F92AF92BF92CF92DF92EF92FF920C
:103CF0000F931F93CF93DF93EC018B018A819B81FC
:103D00000E94F417BC01C8010E94A921D801ED91BD
:103D1000FC910280F381E02D69E0C80109958A8158
:103D20009B810E94F417FC0101900020E9F7319774
:103D3000E81BF90B389748F4D801ED91FC9102800B
:103D4000F381E02D69E0C8010995CE84DF84E8881D
:103D5000F988A884B9848A819B810E94B61B982E19
:103D60008C848A819B810E940D17682FC8010E9454
:103D700020236BE00E94EE21EC0160EF7AE00E94CC
:103D8000A921682DCE010E9420236BE00E94EE2124
:103D9000EC0162EF7AE00E94A921692DCE010E9418
:103DA00020236BE00E94EE21EC0164EF7AE00E9498
:103DB000A921B501CE010E949E226BE00E94EE2156
:103DC000EC0166EF7AE00E94A9216BE0CE010E942F
:103DD000EE21EC0168EF7AE00E94A921B701A6016B
:103DE000CE01DF91CF911F910F91FF90EF90DF9067
:103DF000CF90BF90AF909F908F900C94D8220F934C
:103E00001F93CF93DF93EC018B01E881F98102804E
:103E1000F381E02DB801CE01099566E0C8010E944A
:103E2000EE210C80DD81C02D209779F7DF91CF91B5
:103E30001F910F910895CF93DF93EC01CB01DB012C
:103E4000ED91FC910280F381E02DBE010995CE0138
:103E5000DF91CF9108950F931F93CF93DF93EC01E0
:103E60006BE00E94EE218C016EED7AE00E94A921A8
:103E70006BE0C8010E94EE218C0169EE7AE00E949D
:103E8000A92166E0C8010E94EE216BE0CE010E94EC
:103E9000EE218C016BEB7AE00E94A9216BE0C80156
:103EA0000E94EE218C016CEC7AE00E94A9216BE06B
:103EB000C8010E94EE218C0168ED7AE00E94A921E0
:103EC00066E0C8010E94EE216BE0CE010E94EE2167
:103ED0008C0168E97AE00E94A9216BE0C8010E9488
:103EE000EE218C0169EA7AE00E94A9216BE0C80109
:103EF0000E94EE218C0165EB7AE00E94A92166E028
:103F0000C8010E94EE2180918C1B90918D1B00971F
:103F100019F0BE010E94FF1E0E94FE170E94B61BF0
:103F2000182F6BE0CE010E94EE21EC0167E87AE0E9
:103F30000E94A921612FCE010E9420236BE00E94E4
:103F4000EE21EC0162E97AE00E94A92164E670E0CA
:103F5000CE010E949E226BE00E94EE21EC0164E9FA
:103F60007AE00E94A92166E0CE01DF91CF911F91F6
:103F70000F910C94EE21CF92DF92EF92FF920F936C
:103F80001F93CF93DF937C018B01DC011A966D9117
:103F90007C911B97C8010E94A921F701A285B385D6
:103FA000FD0101900020E9F73197DE2EDA1AFFE0DB
:103FB000FD1580F0C0E0D0E0D801ED91FC910280C9
:103FC000F381E02D60E2C801099521968C2F8D0DBB
:103FD000803190F36DE973E0C8010E94A921D701F7
:103FE0005696CD90DC9057971E968D919C911F9779
:103FF0000E94F72A682FC8010E942023EC01E88163
:10400000F9810280F381E02D6FE20995B601CE01BE
:104010000E949E22DC01ED91FC910280F381E02D53
:1040200069E0099566E0C8010E94EE21F7018485E8
:104030009585009781F0DC01ED91FC910190F08174
:10404000E02DB801DF91CF911F910F91FF90EF907C
:10405000DF90CF900994DF91CF911F910F91FF9046
:10406000EF90DF90CF9008956F927F928F929F9202
:10407000AF92BF92CF92DF92EF92FF920F931F9376
:10408000CF93DF93EC01762E672E4A015901670129
:1040900078010E949E21B401CE0106960E94AB1CBD
:1040A00088EA93E0998388832AEB33E03F832E8369
:1040B000BD8AAC8A40E061E0872D0E9468289F8716
:1040C0008E87C88AD98AEA8AFB8A7E8A6F8ADF91BC
:1040D000CF911F910F91FF90EF90DF90CF90BF9005
:1040E000AF909F908F907F906F90089506970C945B
:1040F000BB1FCF92DF92EF92FF920F931F93CF934C
:10410000DF93CDB7DEB72F970FB6F894DEBF0FBEA3
:10411000CDBF8C017B01DB016D917D918D919C91D7
:1041200028EE33E040E050E00E94D92EBA01A90108
:10413000C8010E94D822D801ED91FC910280F38140
:10414000E02D6EE2C8010995C7010E94202B6E0187
:10415000B9E0CB0ED11C7E01EFE0EE0EF11C2AE09F
:1041600030E040E050E00E94FB2EE62F29833A83A6
:104170004B835C8369817A818B819C81E05DD7016F
:10418000EE937D01AC15BD0551F71F86BD01C80139
:104190000E94A921C8012F960FB6F894DEBF0FBE6A
:1041A000CDBFDF91CF911F910F91FF90EF90DF90E6
:1041B000CF900895CF93DF93EC010FB6F8940F9250
:1041C00080912401909125019D838C830E94DA17B0
:1041D000688379838A839B830F900FBECE01DF9122
:1041E000CF9108958F929F92AF92BF92CF92DF921C
:1041F000EF92FF920F931F93CF93DF936C014B01CC
:10420000EA0163E0CA010E94EE21C814D90408F053
:1042100059C0560184E1A80EB11C7501B601CE014A
:104220000E949E226BE00E94EE216AEF7AE00E94DB
:10423000A9218601F80161918F01CE010E942023FE
:10424000E881F9810280F381E02D60E2CE010995D9
:104250000E151F0579F7E881F9810280F381E02DC1
:1042600060E2CE0109950FC080EE860FE881F981EA
:104270000280F381E02D8F3508F06EE2CE010995C2
:10428000CE14DF0481F0F60161916F01653A61F7A8
:10429000E881F9810280F381E02D60E2CE01099589
:1042A000CE14DF0481F7650166E0CE010E94EE21A5
:1042B000F4E1EF0EF11CA814B90420F4C5014496F2
:1042C0005C01ACCF62E0CE01DF91CF911F910F91E5
:1042D000FF90EF90DF90CF90BF90AF909F908F9026
:1042E0000C94EE210C94E714009711F00C948015B7
:1042F00008950C94E714009711F00C94801508951C
:10430000FC0181E090E02081222311F080E090E028
:10431000089521E0FC01208308950895089581E027
:10432000089580E0089580E008950895DC01ED91FE
:10433000FC910280F381E02D6CE00994FC0180EC9B
:1043400093E0918380838AE0828383E08583148273
:1043500008950F931F93CF93DF93EC01FB018C81A2
:10436000811117C06081662379F08F010F5F1F4FA5
:10437000E881F9810280F381E02DCE010995F801F1
:1043800061918F016111F4CFDF91CF911F910F9156
:1043900008951C828B010F5F1F4F64916623A1F368
:1043A000A881B9811296ED91FC911397CE010995E0
:1043B000F80164910F5F1F4F6111F2CFE5CF883094
:1043C00008F087E08093070289E008959EEF980F38
:1043D0009F3010F4809306028AE00895CF93DF9314
:1043E000EC01462F50E04C30510538F4FA01EA59FF
:1043F000FF4F0C941A2F82E08A83CE01DF91CF9178
:10440000089581E08C83F9CF88E08A83F6CF8AE033
:104410008A83F3CF80E18A83F0CFE881F98102803B
:10442000F381E02D6DE00995E881F9810280F38147
:10443000E02D6AE0CE010995E0CFE881F9810284A0
:10444000F385E02D0995D9CFE881F9810084F185C4
:10445000E02D0995D2CF809107028D83CECF809138
:1044600006028A83CACF0F931F93CF93DF93CDB7F2
:10447000DEB761970FB6F894DEBF0FBECDBF8C01DB
:10448000CB01F80122812A3079F0C8010E949E22D6
:10449000C80161960FB6F894DEBF0FBECDBFDF91A5
:1044A000CF911F910F9108954AE050E0BE016F5FD8
:1044B0007F4F0E944430BE016F5F7F4FC8010E9452
:1044C000A921E6CF0F931F93CF93DF9300D000D0A5
:1044D0001F92CDB7DEB78C01862FD80113969C9121
:1044E0001397911112C0F80192819A30B1F0C8016E
:1044F0000E942023C8010F900F900F900F900F90F3
:10450000DF91CF911F910F910895ED91FC91028061
:10451000F381E02DC8010995EDCF4AE050E0BE01DE
:104520006F5F7F4F992787FD90950E944430BE01B1
:104530006F5F7F4FC8010E94A921DCCFFF920F93CC
:104540001F93CF93DF93CDB7DEB761970FB6F89483
:10455000DEBF0FBECDBF8C01F62E972FF801428132
:10456000403191F0483081F0423071F050E0BE01AE
:104570006F5F7F4F8F2D0E948A30BE016F5F7F4F2C
:10458000C8010E94A92107C0692FC8010E942023E9
:104590006F2D0E942023C80161960FB6F894DEBFEC
:1045A0000FBECDBFDF91CF911F910F91FF90089566
:1045B000DF92EF92FF920F931F93CF93DF93CDB7CC
:1045C000DEB7A1970FB6F894DEBF0FBECDBF8C014A
:1045D000D42EE52EF62E972FF80122812031A1F05E
:1045E000283091F0223081F030E0AE014F5F5F4F14
:1045F0006D2D7E2D8F2D0E946530BE016F5F7F4F28
:10460000C8010E94A9210DC0692FC8010E94202362
:104610006F2D0E9420236E2D0E9420236D2D0E945D
:104620002023C801A1960FB6F894DEBF0FBECDBF00
:10463000DF91CF911F910F91FF90EF90DF90089540
:10464000CF92DF92EF92FF920F931F93CF93DF935E
:10465000CDB7DEB729970FB6F894DEBF0FBECDBF3A
:104660008C01D62EDC0113968C91139781115DC0BD
:10467000F80142814230D9F14031F1F050E0BE0101
:104680006F5F7F4F8D2D90E00E948A30BE016F5F7B
:104690007F4FC8010E94A921C80129960FB6F8943E
:1046A000DEBF0FBECDBFDF91CF911F910F91FF9065
:1046B000EF90DF90CF90089562956F700190F08138
:1046C000E02D0280F381E02D6A30B8F5605DC8010D
:1046D00009956D2D6F70D801ED91FC910280F381E9
:1046E000E02D6A3060F1695CC8010995D5CF88E09A
:1046F000E82EF12C90E8C92E0AC061E3C8010995A3
:10470000C694B1E0EB1AF108E114F10429F28C2D02
:104710008D21D801ED91FC910280F381E02D811172
:10472000ECCF60E3C8010995EBCFED91FC910280DD
:10473000F381E02DC8010995AFCF695CC8CF605DFA
:10474000D3CFDC011896ED91FC91199780811C96CE
:104750009C911C97892359F421E23EE405C0215025
:1047600031092115310571F080818923C1F38081E0
:104770001E969C911E97892B80831696ED91FC9135
:10478000179760830895FC01878581111DC02091D2
:10479000961B3091971B8091941B9091951B281725
:1047A000390789F0E091981BF091991BE20FF31FF4
:1047B00080812F5F3F4F2032310518F11092971BF7
:1047C0001092961B0895FFCF2091901B3091911B62
:1047D00080918E1B90918F1B2817390789F0E091EB
:1047E000921BF091931BE20FF31F80812F5F3F4FCD
:1047F0002032310558F01092911B1092901B0895B1
:10480000FFCF3093971B2093961B08953093911BF5
:104810002093901B0895DC01ED91FC910280F381BF
:10482000E02D6CE00994FC018785882369F081E024
:104830004091901B5091911B20918E1B30918F1BAA
:104840004217530769F0089581E04091961B5091FB
:10485000971B2091941B3091951B4217530799F792
:1048600080E00895EF92FF921F93CF93DF9300D0E3
:10487000CDB7DEB77C01142F69837A830E949E2115
:10488000412F69817A81C70106960E945E2B80EDD7
:1048900093E0F7019183808317871123E9F08091DA
:1048A000C90080688093C90080E290E00E9479216D
:1048B0009093931B8093921B1092911B1092901BCC
:1048C00010928F1B10928E1B0F900F90DF91CF9143
:1048D0001F91FF90EF9008958091C10080688093B0
:1048E000C10080E290E00E9479219093991B80930F
:1048F000981B1092971B1092961B1092951B10926A
:10490000941B0F900F90DF91CF911F91FF90EF902C
:1049100008951F920F920FB60F9211240BB60F92AB
:104920002F933F938F939F93EF93FF932091C60014
:10493000E091981BF091991B8091941B9091951B8D
:10494000E80FF91F20838091941B9091951B01968D
:1049500080329105C0F49093951B8093941B209115
:10496000961B3091971B28173907D1F0FF91EF91D3
:104970009F918F913F912F910F900BBE0F900FBE83
:104980000F901F9018951092951B1092941B80E029
:1049900090E02091961B3091971B2817390731F72B
:1049A00001969093971B8093961B8097F8F2109234
:1049B000971B1092961BDACF1F920F920FB60F9291
:1049C00011240BB60F922F933F938F939F93EF93E6
:1049D000FF932091CE00E091921BF091931B809168
:1049E0008E1B90918F1BE80FF91F208380918E1BE7
:1049F00090918F1B019680329105C0F490938F1B8C
:104A000080938E1B2091901B3091911B28173907A2
:104A1000D1F0FF91EF919F918F913F912F910F9046
:104A20000BBE0F900FBE0F901F90189510928F1B0A
:104A300010928E1B80E090E02091901B3091911B92
:104A40002817390731F701969093911B8093901B9B
:104A50008097F8F21092911B1092901BDACFFC0114
:104A60000396928381834FEF5FEFBA0143835483B0
:104A700065837683908787839287818710820895E4
:104A8000FC01138612860895CF93DF939C01FB01EE
:104A9000DC011196CD91DC911297D583C4838E8170
:104AA0009F81978386838E819F81DC0115967C93FD
:104AB0006E9314977F836E8333872287F9018081F9
:104AC0008F5F8083DF91CF9108950F931F93CF93D2
:104AD000DF93EB01088119812A813B810F3F4FEF62
:104AE00014072407340731F1DC01139601C0DF01FC
:104AF0001496ED91FC9115974081518162817381EB
:104B0000041715072607370790F7FD83EC83D78333
:104B1000C683BF83AE831596DC93CE9314979B8791
:104B20008A87FC0120812F5F2083DF91CF911F9125
:104B30000F910895FC01A185B2851496ED91FC9129
:104B40001597E3CFCF93DF93FC01A285B385248132
:104B5000358186819781E9019F838E838681978144
:104B6000EC013D832C8311962D913C9112972E17C9
:104B70003F0741F0138612868C9181508C93DF9110
:104B8000CF91089512969C938E9311971386128657
:104B90008C9181508C93DF91CF91089590939B1BC2
:104BA00080939A1B31E1FC013083319722E220830C
:104BB000FC013297A3E3A083FC0133976083FC01DF
:104BC00034977083FC0135971082FC01369760E8BA
:104BD0006083FC0137971082FC01389762E06083A4
:104BE000FC01399763E06083FC013A9764E06083DD
:104BF000FC013B9765E06083FC013C9766E06083C5
:104C0000FC013D9767E06083FC013E9768E06083AC
:104C1000FC013F9769E06083FC01709760E160836D
:104C2000FC0171973083FC01729732E13083FC0103
:104C3000739733E13083FC01749734E13083FC01D6
:104C4000759735E13083FC01769736E13083FC01BE
:104C5000779737E13083FC01789738E13083FC01A6
:104C6000799739E13083FC017A9730E23083FC0197
:104C70007B9731E23083FC017C972083FC017D9798
:104C800023E22083FC017E974083FC017F975083C1
:104C9000FC01B09726E22083FC01B19727E2208334
:104CA000FC01B29728E22083FC01B39729E220831C
:104CB000FC01B49720E32083FC01B59721E3208316
:104CC0008697089587E0809329018FEC80932801CF
:104CD0008AE080932101E3E7F0E0808182608083B5
:104CE000A091291BB0912A1BCD91CDBFDD91DEBFD4
:104CF000FF91EF91DF91CF91BF91AF919F918F91F4
:104D00007F916F915F914F913F912F911F910F91E3
:104D1000FF90EF90DF90CF90BF90AF909F908F90DB
:104D20007F906F905F904F903F902F901F900F90CB
:104D30000FBE0F90089581E0089508950F920FB669
:104D4000F8940F921F9211242F923F924F925F92EC
:104D50006F927F928F929F92AF92BF92CF92DF928B
:104D6000EF92FF920F931F932F933F934F935F9375
:104D70006F937F938F939F93AF93BF93CF93DF9363
:104D8000EF93FF93A091291BB0912A1B0DB60D92B2
:104D90000EB60D920E94161AA091291BB0912A1BE3
:104DA000CD91CDBFDD91DEBFFF91EF91DF91CF912E
:104DB000BF91AF919F918F917F916F915F914F9133
:104DC0003F912F911F910F91FF90EF90DF90CF9027
:104DD000BF90AF909F908F907F906F905F904F901B
:104DE0003F902F901F900F900FBE0F9008950F923D
:104DF0000FB6F8940F921F9211242F923F924F9268
:104E00005F926F927F928F929F92AF92BF92CF925A
:104E1000DF92EF92FF920F931F932F933F934F9345
:104E20005F936F937F938F939F93AF93BF93CF9332
:104E3000DF93EF93FF93A091291BB0912A1B0DB62E
:104E40000D920EB60D920E94031881110E94161A3F
:104E5000A091291BB0912A1BCD91CDBFDD91DEBF62
:104E6000FF91EF91DF91CF91BF91AF919F918F9182
:104E70007F916F915F914F913F912F911F910F9172
:104E8000FF90EF90DF90CF90BF90AF909F908F906A
:104E90007F906F905F904F903F902F901F900F905A
:104EA0000FBE0F9008950E94F72618951F93CF9379
:104EB000DF93EC01142F88A181110DC088819981A5
:104EC000892B09F44DC080E09E8D9F5F9E8FDF91FE
:104ED000CF911F910895482F50E011111CC08C8173
:104EE0009D810E94253028A18C819D81820F911D7A
:104EF0009D838C832A813B818217930720F38881CD
:104F000099819D838C8380E09E8D9F5F9E8FDF9132
:104F1000CF911F9108958E819F810E94253028A1F5
:104F200030E03195219531098E819F81820F931F49
:104F30009F838E83688179818617970730F48A81F1
:104F40009B81820F931F9F838E83123009F0BBCF0A
:104F50008E8D882309F4B7CF8E8D81508E8FB3CF7D
:104F60008A819B810E94321C1B821A82ADCFFC0178
:104F7000CB0140A1442399F050E026813781240FD2
:104F8000351F37832683628173812617370720F008
:104F90002081318137832683B9010C94253008950F
:104FA0000F931F93CF93DF93EC010FB6F8940F92FA
:104FB0008AA11816ECF48B898823D1F08E010D5E3E
:104FC0001F4F09C08AA181508AA38AA1181684F4B0
:104FD0008B89882369F0C8010E94BE1A882391F347
:104FE0000E94B21B8AA181508AA38AA1181684F359
:104FF0008FEF8AA30F900FBE0FB6F8940F9289A17E
:105000001816ECF488858823D1F08E01085F1F4FB5
:1050100009C089A1815089A389A1181684F48885C3
:10502000882369F0C8010E94BE1A882391F30E9468
:10503000B21B89A1815089A389A1181684F38FEF2F
:1050400089A30F900FBEDF91CF911F910F9108950B
:10505000CF93DF93EC010FB6F8940F92288139813A
:105060008F8D78A1879FC0011124A901480F591F76
:105070005B834A831E8E3D832C83871B9109820F9D
:10508000931F9F838E838FEF89A38AA3611112C020
:105090008885811106C00F900FBE81E0DF91CF910E
:1050A0000895CE0108960E94BE1A8130A1F70E9491
:1050B0009E26F1CFCE0108960E942F25CE01439661
:1050C0000E942F250F900FBE81E0DF91CF910895B0
:1050D0000F931F93CF93DF93182F062F882301F18F
:1050E00083E290E00E94E714EC010097C9F0109F62
:1050F000C001112401960E94E71499838883892BAB
:1051000061F01F8F08A361E0CE010E942828CE0124
:10511000DF91CF911F910F910895CE010E948015CC
:10512000C0E0D0E0CE01DF91CF911F910F910895A3
:105130006F927F928F929F92AF92BF92CF92DF92A7
:10514000EF92FF920F93CF93DF93CDB7DEB72997FE
:105150000FB6F894DEBF0FBECDBF5C014B012E83AE
:105160003F834887598720E03C0188E0680E711C26
:105170000FB6F8940F92F501968D878D981708F465
:1051800059C0023009F456C0CE80DF80E884F9842B
:10519000CD28CE28CF2809F46FC0222309F441C0BE
:1051A0000F900FBE0E94D4170FB6F8940F92F5011E
:1051B00081A18F3F09F43CC0F50182A18F3FB1F17D
:1051C0000F900FBEBE016A5F7F4FCE0101960E9415
:1051D000511B811155C00FB6F8940F92F501968DB1
:1051E0000F900FBEF501878D981314C04E815F811B
:1051F00068857985C3010E94631AC5010E94D02782
:105200000E940719882311F021E0B2CF0E949E2648
:1052100021E0AECFC5010E94D0270E94071921E0EE
:10522000A7CFCE0101960E94401BBACF12A2C8CFD1
:1052300011A2C2CF402FB401C5010E945627F5012B
:105240009389911124C0811128C00F900FBE81E075
:1052500029960FB6F894DEBF0FBECDBFDF91CF9178
:105260000F91FF90EF90DF90CF90BF90AF909F9005
:105270008F907F906F9008950F900FBE80E0E8CFE1
:10528000C5010E94D0270E94071980E0E1CFC50127
:1052900043960E94BE1A8130C1F60E949E26D5CF49
:1052A0000F93CF93DF9383E290E00E94E714EC0129
:1052B000009701F11B821A82198218821D821C82BA
:1052C0001F821E821E8E81E08F8F18A28FEF89A30E
:1052D0008AA3CE0108960E942F25CE0143960E94F4
:1052E0002F2500E020E030E0A90160E070E0CE0171
:1052F0000E949828CE01DF91CF910F9108950F93CE
:105300001F93CF93DF93EC018A019E8D8F8D9817A9
:1053100040F0223031F080E0DF91CF911F910F916A
:105320000895422FCE010E945627882331F001159F
:10533000110519F081E0F80180838AA18F3F49F0BF
:105340008AA18F5F8AA381E0DF91CF911F910F9196
:1053500008958B898823B9F3CE0143960E94BE1A23
:10536000882389F30115110571F381E0F801808329
:10537000D3CFAF92BF92CF92DF92EF92FF920F9373
:10538000CF93DF93CDB7DEB729970FB6F894DEBF82
:105390000FBECDBF7C016B012E833F8348875987A9
:1053A00090E0570183E1A80EB11C0FB6F8940F925C
:1053B000F701868D811169C04E815F81688579858D
:1053C000452B462B472B09F47DC0992309F43EC099
:1053D0000F900FBE0E94D4170FB6F8940F92F701EA
:1053E00081A18F3F09F43EC0F70182A18F3F09F4EC
:1053F0003FC00F900FBEBE016A5F7F4FCE01019686
:105400000E94511B811171C00FB6F8940F92F701E1
:10541000868D0F900FBE81111EC0F7018081918192
:10542000892B41F14E815F8168857985C5010E9494
:10543000631AC7010E94D0270E940719882311F020
:1054400091E0B3CF0E949E2691E0AFCFCE010196AE
:105450000E94401BBDCFC7010E94D0270E940719A0
:1054600091E0A3CF11A2F70182A18F3F09F0C1CF34
:1054700012A2BFCF0FB6F8940F92F70182819381E9
:105480000E94D71B0F900FBECDCFA680B780B6016C
:10549000C7010E94B727F70101112EC0868D8150E8
:1054A000868F80819181892BB9F1F70180858823CE
:1054B00041F1C70108960E94BE1A813011F50E9481
:1054C0009E261FC00F900FBE80E029960FB6F8945D
:1054D000DEBF0FBECDBFDF91CF910F91FF90EF9058
:1054E000DF90CF90BF90AF900895C7010E94D02762
:1054F0000E94071980E0E9CFB782A68283898111D3
:1055000004C00F900FBE81E0E0CFC70143960E9418
:10551000BE1A8823B1F3D3CF0E94991CF70193835D
:105520008283C3CF0F931F93CF93DF9300D0CDB768
:10553000DEB78C01FC01868D811108C080E00F90E0
:105540000F90DF91CF911F910F910895C80149836A
:105550005A830E94B727F801868D8150868F81A1DA
:1055600049815A818F3F61F0F80181A18F5F81A34A
:1055700081E00F900F90DF91CF911F910F910895CF
:1055800080858823A9F3C801089649835A830E941D
:10559000BE1A49815A81882359F34115510541F3B7
:1055A00081E0FA018083CBCF0F931F93CF93DF93DA
:1055B000EC018E8D811106C080E0DF91CF911F91AB
:1055C0000F9108950E811F81CE010E94B7271F837E
:1055D0000E8381E0DF91CF911F910F9108950FB657
:1055E000F8940F92FC01868D0F900FBE08950FB6B0
:1055F000F8940F92FC01268D0F900FBEFC01878D51
:10560000821B0895FC01868D0895CF93DF93EC01F2
:1056100088819981009711F00E948015CE01DF9159
:10562000CF910C948015FC01968D81E0911180E062
:105630000895FC01268D81E0978D291380E008955F
:10564000CF92DF92EF92FF92CF93DF93EC016881CC
:1056500079818A819B8128EEC22E23E0D22EE12C13
:10566000F12CA70196010E94D92E9B01AC0160E4A8
:1056700072E48FE090E00E94B52EA70196010E948F
:10568000D92E69017A01AC81BD8120E432E44FE07A
:1056900050E00E94AA2E20E834E84EE150E00E943B
:1056A000D92EC20ED31EE41EF51EC701B601DF912E
:1056B000CF91FF90EF90DF90CF900895CF93DF933D
:1056C000EC01442309F441C08EEC90E09983888377
:1056D00088EC90E09B838A8389EC90E09D838C83A7
:1056E00088E18093C90086E08093CA001092CD00C3
:1056F0009B0140E050E0220F331F441F551F220F33
:10570000331F441F551F220F331F441F551F220FE5
:10571000331F441F551F60E074E284EF90E00E9445
:10572000D92E2093CC008091C80081608093C8005E
:1057300080E28E8380E88F8380E48887E881F98126
:1057400080818081DF91CF91089586EC90E09983EC
:10575000888380EC90E09B838A8381EC90E09D833A
:105760008C8388E18093C10086E08093C200109210
:10577000C5009B0140E050E0220F331F441F551F1E
:10578000220F331F441F551F220F331F441F551F65
:10579000220F331F441F551F60E074E284EF90E036
:1057A0000E94D92E2093C4008091C0008160809314
:1057B000C000BECFDC011296ED91FC9113972081C1
:1057C00016968C91282381E009F480E00895DC018D
:1057D0001296ED91FC911397208118968C912823B5
:1057E00081E009F080E00895DF92EF92FF920F933D
:1057F0001F93CF93DF937C018B01DC0114966D9195
:105800007C911597C8010E94A921F701A481B58157
:10581000FD0101900020E9F73197DE2EDA1AFFE052
:10582000FD1580F0C0E0D0E0D801ED91FC91028040
:10583000F381E02D60E2C801099521968C2F8D0D32
:10584000803190F368E072E0C8010E94A92166E00F
:10585000C8010E94EE21D70116968D919C91179751
:10586000009779F0DC01ED91FC910190F081E02D41
:10587000B801DF91CF911F910F91FF90EF90DF90D2
:105880000994DF91CF911F910F91FF90EF90DF90DE
:105890000895DF92EF92FF920F931F93CF93DF93C0
:1058A0007C018B01DC0114966D917C911597C801E8
:1058B0000E94A921F701A481B581FD01019000207A
:1058C000E9F73197DE2EDA1AFFE0FD1580F0C0E02F
:1058D000D0E0D801ED91FC910280F381E02D60E2EF
:1058E000C801099521968C2F8D0D803190F368E0C9
:1058F00072E0C8010E94A92166E0C8010E94EE2161
:10590000D70116968D919C911797009779F0DC013D
:10591000ED91FC910190F081E02DB801DF91CF91E4
:105920001F910F91FF90EF90DF900994DF91CF913D
:105930001F910F91FF90EF90DF900895DF92EF920B
:10594000FF920F931F93CF93DF937C018B01DC01B8
:1059500014966D917C911597C8010E94A921F701B9
:10596000A481B581FD0101900020E9F73197DE2E79
:10597000DA1AFFE0FD1580F0C0E0D0E0D801ED912B
:10598000FC910280F381E02D60E2C8010995219627
:105990008C2F8D0D803190F368E072E0C8010E9479
:1059A000A92166E0C8010E94EE21D70116968D91CB
:1059B0009C911797009779F0DC01ED91FC91019093
:1059C000F081E02DB801DF91CF911F910F91FF90F1
:1059D000EF90DF900994DF91CF911F910F91FF908D
:1059E000EF90DF9008952F923F924F925F926F92C7
:1059F0007F928F92AF92CF92DF92EF92FF920F93AE
:105A00001F93CF93DF9314BE88E10FB6F894809371
:105A10006000109260000FBEE0E9F0E080818163D9
:105A2000808380E18DB9E1E9F0E080818B60808343
:105A3000E0E8F0E08081816A8083E1E8F0E0808145
:105A40008A60808380E190E00E947221EC0141E055
:105A500060E875E20E94322467E0CE010E94EE21E8
:105A60006BE00E94EE218C0164EE70E00E94A9219F
:105A700066E0C8010E94EE2182E090E00E9472215F
:105A80001C01BE010E947B1088E190E00E947221FF
:105A90003C011AE0E12EF12C00E010E09E014FE005
:105AA00052E060E270E0C3010E9434207092E7038C
:105AB0006092E60389E090E00E9472213C0165E17A
:105AC00072E00E94AB1C80E892E0F3019183808336
:105AD0007092E3036092E2038AE090E00E947221F8
