:100000000C94050B0C94240B0C94240B0C94240BD3
:100010000C94240B0C94240B0C94240B0C94240BA4
:100020000C94240B0C94240B0C94240B0C94240B94
:100030000C94240B0C94240B0C94240B0C94240B84
:100040000C94240B0C94240B0C94240B0C94240B74
:100050000C94240B0C94240B0C94240B0C94240B64
:100060000C94240B0C945E370C94240B0C94240BEE
:100070000C94240B0C94240B0C94240B0C94240B44
:100080000C94240B0C94240B0C94240B0C94240B34
:100090000C94B1370C94240B0C94240B0C94240B6B
:1000A0000C94240B0C94240B0C94240B0C94240B14
:1000B0000C94240B0C94240B0C94240B0C94283AD1
:1000C0000C94240B0C94240B0C94240BDA34E3349E
:1000D000E634E934DC34DC34EC34FC3403350A3502
:1000E0000E35E03450494E5320444F453A2000200D
:1000F00020004D45343035204C6162203420436F60
:100100006E74726F6C6C65722050726F6772616D85
:1001100000496C6C6567616C2073746174652120A3
:10012000526573657474696E6720415652001B5B9B
:10013000003B0048001B5B004B004D6F746F72204A
:1001400031090900090009000900090009001B5BC9
:10015000003B0048001B5B004B00202020200900D2
:10016000090009000900090009005072696E7469EC
:100170006E672044617368426F6172642E2E2000A6
:1001800009506F7765722073657420617420002EAA
:1001900020005072696E74696E6720446173684212
:1001A0006F6172642E2E2000496E70757420506F3E
:1001B0007765722056616C756520666F72204D6F91
:1001C000746F723A20001B5B324A002D3E53656CFF
:1001D00065637465643A2000092D3E52657475723A
:1001E0006E696E6720746F204D697373696F6E203E
:1001F000436F6E74726F6C2E2E2000092D3E526577
:100200006C656173696E67204472697665204D6F15
:1002100064652E2E0009494D552057494C4C2052FB
:100220004541443A20002E2000486F77206D616ED2
:10023000792042797465733F3A2000496E70757475
:1002400020526567697374657220746F20726561EE
:10025000643A20001B5B324A002D3E53656C656397
:100260007465643A2000092D3E52657475726E699A
:100270006E6720746F204D697373696F6E20436FD2
:100280006E74726F6C2E2E2000092D3E52656C65C7
:100290006173696E6720494D552E2E001B5B003B34
:1002A0000048001B5B004B001B5B003B0048001B31
:1002B0005B003B0048001B5B004B001B5B003B00EE
:1002C00048001B5B324A001B5B003B0048001B5B85
:1002D000324A001B5B34376D002D3E53656C6563FD
:1002E0007465643A2000092D3E52657475726E691A
:1002F0006E6720746F204D697373696F6E20436F52
:100300006E74726F6C2E2E2000092D3E52656C6546
:100310006173696E6720456E636F6465722E2E008F
:10032000092D3E50726573732027712720746F204A
:1003300072657475726E20746F20746865204D6FDD
:10034000746F72200020436F6E74726F6C00092D01
:100350003E50726573732027722720746F20726578
:100360006672657368207468652044617368426FC3
:1003700061726420002D3E53656C65637465643A58
:1003800020002D3E53656C65637465643A20002D32
:100390003E43686F6F7365204D6F746F722000204D
:1003A0006F7065726174696F6E3A200027002720B4
:1003B0006973206E6F7420612076616C69642065BA
:1003C0006E7472792E002D3E53656C65637465649E
:1003D0003A20002052657475726E696E6720746FE2
:1003E000204D61696E204D6F746F72204D6F647582
:1003F0006C652E2E2000092D3E50726573732027E8
:10040000712720746F2072657475726E20746F206E
:10041000746865204D6F746F72200020436F6E7496
:10042000726F6C00092D3E5072657373202772271E
:1004300020746F2072656672657368207468652029
:1004400044617368426F6172642000092D3E506FF1
:1004500074656E74696F6D6574657220416374694B
:1004600076617465642E002D3E53656C656374651A
:10047000643A2000092D3E456E746572696E6720EE
:10048000506F74656E74696F6D6574657220436F2B
:100490006E74726F6C2E2E2E20002D3E43686F6F8F
:1004A0007365204D6F746F722000206F70657261EC
:1004B00074696F6E3A2000092850726573732027A3
:1004C0006F2720666F72206F7074696F6E732900DA
:1004D000092D3E52656C656173696E67204D6F74BE
:1004E0006F722E2E002D3E53656C65637465643A01
:1004F00020002D3E43686F6F7365204D6F746F72DF
:100500002000206F7065726174696F6E3A20000977
:1005100028507265737320276F2720666F72206FD3
:100520007074696F6E732900094272616B65207384
:10053000657420617420002E2000092D3E456E74E4
:10054000657220746865204272616B6520466F7227
:1005500063652830202D2032353529002D3E536526
:100560006C65637465643A20002D3E43686F6F7359
:1005700065204D6F746F722000206F70657261741A
:10058000696F6E3A20000928507265737320276FD7
:100590002720666F72206F7074696F6E732900096F
:1005A000506F7765722073657420617420002E206F
:1005B00000456E7465722074686520506F776572AF
:1005C0002056616C756520282D32353520746F20DA
:1005D000323535293B0020202A4E6F74653A204E73
:1005E000656761746976652056616C756573203D39
:1005F0002052657665727365002D3E53656C6563A8
:100600007465643A200054727920416761696E2EE6
:100610002000092D3E537769746368696E67207402
:100620006F20436F6E74726F6C206F66204D6F7415
:100630006F7220002E00092D3E52657475726E2077
:10064000746F20746865204D61696E204D6F746F02
:1006500072204D6F64756C6520746F2073776170C4
:10066000204D6F746F72732E002D3E53656C656361
:100670007465643A2000092D3E52657475726E6986
:100680006E6720746F204D697373696F6E20436FBE
:100690006E74726F6C2E2E2000092D3E52656C65B3
:1006A0006173696E67204D6F746F72732E2E00092F
:1006B0002D3E526573657474696E67204156522EE3
:1006C0002E00223A205754463F00526573657474D9
:1006D000696E672041565200092D3E596F752045BD
:1006E0006E74657265643A2000456E7465722064AC
:1006F0006563696D616C206E756D657269632064F8
:1007000069676974732C207468656E20524554556E
:10071000524E206F7220455343001B5B324A001B30
:100720005B003B004800092D3E537769746368699C
:100730006E6720746F204472697665204D6F646522
:100740002E2E002D3E53656C65637465643A20005F
:100750001B5B324A001B5B003B004800092D3E53E7
:100760007769746368696E6720746F20494D5520FE
:100770004D6F64756C652E2E00092D3E436C6561CE
:1007800072696E6720526567697374657273206160
:100790006E64204D656E75732E2E00092D3E496ED8
:1007A0007469616C697A696E6720494D552E2E0017
:1007B0002D3E53656C65637465643A20001B5B32A3
:1007C0004A001B5B003B004800092D3E53776974CB
:1007D0006368696E6720746F20456E636F6465722D
:1007E000204D6F64756C652E2E00092D3E436C659F
:1007F0006172696E672052656769737465727320F0
:10080000616E64204D656E75732E2E00092D3E4974
:100810006E7469616C697A696E6720456E636F6496
:1008200065722E2E002D3E53656C65637465643AC7
:100830002000092D3E537769746368696E672074E0
:100840006F204D6F746F72204D6F64756C652E2E26
:1008500000092D3E436C656172696E6720526567C1
:1008600069737465727320616E64204D656E757373
:100870002E2E00092D3E496E7469616C697A696E8D
:1008800067204D6F746F72732E2E002D3E53656C72
:1008900065637465643A20001B5B34376D007C0926
:1008A0000920277127202020207175697420746F1A
:1008B000206D61696E206D656E75202020202020DE
:1008C00020202020202020202009097C007C2D2DA4
:1008D0002D2D2D2D2D2D2D2D2D2D2D2D2D2D2D2D48
:1008E0002D2D2D2D2D2D2D2D2D2D2D2D2D2D2D2D38
:1008F0002D2D2D2D2D2D2D2D2D2D2D2D2D2D2D2D28
:100900002D2D2D2D2D2D2D2D2D2D2D2D2D2D2D2D17
:100910002D2D2D2D207C007C090920202020202039
:10092000202020204A6F79537469636B20436F6ED7
:1009300074726F6C204D6F64652020202020202071
:10094000202009097C007C0909202771272020200C
:10095000207175697420746F206D61696E206D65FA
:100960006E752020202020202020202020202020E4
:100970002009097C007C090920202020557365206E
:10098000746865204A6F79537469636B20746F20B3
:100990006D6F76652061726F756E64202020202057
:1009A00009097C007C2D2D2D2D2D2D2D2D2D2D2D4E
:1009B0002D2D2D2D2D2D2D2D2D2D2D2D2D2D2D2D67
:1009C0002D2D2D2D2D2D2D2D2D2D2D2D2D2D2D2D57
:1009D0002D2D2D2D2D2D2D2D2D2D2D2D2D2D2D2D47
:1009E0002D2D2D2D2D2D2D2D2D2D2D207C007C09F7
:1009F00009202020202020202020204472697665B4
:100A000020436F6E74726F6C204D6F6465202020E0
:100A100020202020202020202009097C00494D553D
:100A200020444154413A200009092D3E207072654E
:100A300073732027722720746F2072656672657346
:100A40006820007C0909202771272020202071754B
:100A5000697420746F206D61696E206D656E7520FC
:100A600020202020202020202020202020200909B4
:100A70007C007C09092027722720202020526566EF
:100A80007265736820746865206461746120202039
:100A90002020202020202020202020202009097C28
:100AA000007C2D2D2D2D2D2D2D2D2D2D2D2D2D2D54
:100AB0002D2D2D2D2D2D2D2D2D2D2D2D2D2D2D2D66
:100AC0002D2D2D2D2D2D2D2D2D2D2D2D2D2D2D2D56
:100AD0002D2D2D2D2D2D2D2D2D2D2D2D2D2D2D2D46
:100AE0002D2D2D2D2D2D2D2D207C007C0909202034
:100AF0002020202020202020494D5520436F6E7457
:100B0000726F6C204D6F64756C6520202020202052
:100B100020202020202009097C00456E636F646539
:100B20007220436F756E743A2000456E636F646582
:100B300072205469636B732F6D733A200009092D7D
:100B40003E2070726573732027722720746F2072A5
:100B500065667265736820007C090920277127206B
:100B60002020207175697420746F206D61696E207A
:100B70006D656E7520202020202020202020202040
:100B800020202009097C007C0909202772272020C9
:100B90002020526566726573682074686520646100
:100BA00074612020202020202020202020202020B0
:100BB000202009097C007C2D2D2D2D2D2D2D2D2D56
:100BC0002D2D2D2D2D2D2D2D2D2D2D2D2D2D2D2D55
:100BD0002D2D2D2D2D2D2D2D2D2D2D2D2D2D2D2D45
:100BE0002D2D2D2D2D2D2D2D2D2D2D2D2D2D2D2D35
:100BF0002D2D2D2D2D2D2D2D2D2D2D2D2D207C0010
:100C00007C09092020202020202020456E636F646D
:100C1000657220436F6E74726F6C204D6F64756CDB
:100C2000652020202020202020202009097C004D44
:100C3000453430352054657374696E6720506C619B
:100C40007466726F6D2076362E30004D61792031DA
:100C50003620323031360053797374656D207469F3
:100C60006D653A20002C20486561703A20002C20E8
:100C70004F435235413A20003C696E76616C69649D
:100C80002063686172202200223E002020683A2002
:100C90002020202048414C502100202043746C2DFE
:100CA000433A20526573657420746865204156523A
:100CB0000020206E3A2020202020456E746572208E
:100CC00061206E756D626572202864656D6F290004
:100CD0002020643A2020202020537461636B20641C
:100CE000756D7020666F72207461736B73002020C5
:100CF000733A202020202056657273696F6E206140
:100D00006E6420736574757020696E666F726D61B4
:100D100074696F6E002020743A20202020205368D0
:100D20006F77207468652074696D652072696768E3
:100D300074206E6F77004D453430352054657374E0
:100D4000696E6720506C617466726F6D2076362E06
:100D500030002068656C7000446562756767696E75
:100D60006720496E666F3A20002D2D2D2D2D2D2DDB
:100D700009092D2D2D2D2D2D2D2D092D2D2D2D2D0F
:100D80002D2D09092D2D2D2D2D2D2D2D2D2D2D0008
:100D90004D6F746F720909536574506F696E7409F1
:100DA00020506F7765720909456E636F6465724301
:100DB0006F756E74002D2D2D2D2D2D2D09092D2DC6
:100DC0002D2D2D2D2D2D092D2D2D2D2D2D2D0909BF
:100DD0002D2D2D2D2D2D2D2D2D2D2D004D6F746F85
:100DE0007220310909000900090009000900090001
:100DF0002D2D2D2D2D2D2D09092D2D2D2D2D2D2D6B
:100E00002D092D2D2D2D2D2D2D09092D2D2D2D2D7E
:100E10002D2D2D2D2D2D005354455F5009094E6366
:100E20006F6465722F730920582D44495243090994
:100E3000592D44495243002D2D2D2D2D2D2D0909BD
:100E40002D2D2D2D2D2D2D2D092D2D2D2D2D2D2DF6
:100E500009092D2D2D2D2D2D2D2D2D2D2D004D6FD5
:100E6000746F7220310909000900090009000900A6
:100E700009002D2D2D2D2D2D2D09092D2D2D2D2D3B
:100E80002D2D2D092D2D2D2D2D2D2D09092D2D2DFE
:100E90002D2D2D2D2D2D2D2D004D6F746F720909C7
:100EA0005374617475730909506F77657209094449
:100EB0006972656374696F6E002D2D2D2D2D2D2D9A
:100EC00009092D2D2D2D2D2D2D2D092D2D2D2D2DBE
:100ED0002D2D09092D2D2D2D2D2D2D2D2D2D2D00B7
:100EE0004D6F746F72203109090009000909007CF7
:100EF000090920277127202020202052657475724F
:100F00006E20746F2070726576696F7573206D65E1
:100F10006E752009097C007C090920277027202094
:100F2000202020456E74657220506F74656E746960
:100F30006F6D65746572204D6F646509097C007C76
:100F40000909202766272020202020467265657722
:100F50006865656C206D6F746F72202020202020E2
:100F600020202009097C007C0909202762272020F5
:100F70002020204170706C7920746865206D6F743A
:100F80006F72206272616B6520202009097C007CF1
:100F900009092027732720202020205365742074FE
:100FA0006865206D6F746F7220706F776572202096
:100FB00020202009097C007C2D2D2D2D2D2D2D2D5F
:100FC0002D2D2D2D2D2D2D2D2D2D2D2D2D2D2D2D51
:100FD0002D2D2D2D2D2D2D2D2D2D2D2D2D2D2D2D41
:100FE0002D2D2D2D2D2D2D2D2D2D2D2D2D2D2D2D31
:100FF0002D2D2D2D2D2D2D7C007C090920202053F9
:10100000696E676C65204D6F746F7220436F6E74EC
:10101000726F6C204D6F64756C6520202009097C0F
:10102000007C0909202020204D61696E204D6F74DD
:101030006F7220436F6E74726F6C204D6F64756CAD
:10104000652020202009097C007C2D2D2D2D2D2DA3
:101050002D2D2D2D2D2D2D2D2D2D2D2D2D2D2D2DC0
:101060002D2D2D2D2D2D2D2D2D2D2D2D2D2D2D2DB0
:101070002D2D2D2D2D2D2D2D2D2D2D2D2D2D2D2DA0
:101080002D2D2D2D2D2D2D2D2D7C007C090920277A
:1010900031272020202020746F206F7065726174CA
:1010A00065204D6F746F7220312020202020200990
:1010B000097C007C09092027322720202020207469
:1010C0006F206F706572617465204D6F746F722050
:1010D0003220202020202009097C007C09092027BB
:1010E0007127202020202052657475726E20746F45
:1010F000204D61696E204D656E75202020202009ED
:10110000097C001B5B34376D001B5B33316D004D78
:10111000453430352054657374696E6720506C61B6
:101120007466726F6D2076362E3000090909202012
:101130002020004D61792031362032303136001BBD
:101140005B33306D007C0909202020204D697373CA
:10115000696F6E20436F6E74726F6C2050726F6790
:1011600072616D2076312E302020202009097C000C
:101170007C2D2D2D2D2D2D2D2D2D2D2D2D2D2D2D50
:101180002D2D2D2D2D2D2D2D2D2D2D2D2D2D2D2D8F
:101190002D2D2D2D2D2D2D2D2D2D2D2D2D2D2D2D7F
:1011A0002D2D2D2D2D2D2D2D2D2D2D2D2D2D2D2D6F
:1011B0007C007C0909202020202020202020456E52
:1011C000746572204D6F746F7220436F6E74726F0E
:1011D0006C204D6F64756C6520202009097C001B14
:1011E0005B34376D007C090920202020202020203E
:1011F00020456E74657220456E636F64657220438E
:101200006F6E74726F6C204D6F64756C6520090988
:101210007C007C0909202020202020202020456EF1
:1012200074657220494D5520436F6E74726F6C2047
:101230004D6F64756C65202020202009097C007C9E
:101240000909202020202020202020456E7465726E
:10125000204472697665204D6F646520202020202F
:10126000202020202020202009097C007C09092042
:101270002020202020202020446973706C61792078
:10128000616C6C206F7074696F6E73202020202059
:10129000202020202009097C007C09092020202012
:1012A0002020202020526573657420415652202052
:1012B000202020202020202020202020202020202E
:1012C000202009097C00204552524F523A20004309
:1012D000757272656E74204368616E6E656C205223
:1012E000656164696E67733A2000456E64205072D0
:1012F000696E7420446174610054686973204843C6
:10130000544C2D32303030206973207573696E670C
:101310002074686573652070696E733A004F4520CC
:1013200070696E3A20005368617261626C6520706A
:10133000696E733A0053454C2070696E3A20004440
:101340006174612062757320706F72743A20006955
:101350006D752044726976657220496E7075743AB5
:10136000200052656365697665643A20004E6565C4
:101370006465643A20004572726F722061743A208D
:10138000005354415455533A200057616974205317
:1013900065743A200077616974696E672E2E006566
:1013A00072726F7220696E20636C65617220656E67
:1013B00061626C6500434F4E54494E55455300548D
:1013C00048452046494E414C20444154413A200072
:1013D00056616C756520526561642061742000203F
:1013E0003A20003173742056616C75652052656136
:1013F000642061742000203A200043757272656E8B
:101400007420446174613A2000476976656E20411A
:101410006464726573733A2000494D5520416464D9
:101420007265737320526561643A2000494D5520FE
:10143000416464726573732057726974653A200061
:10144000494D5520416464726573733A20005265BA
:101450006164696E6720494D552E2E3A2000496E11
:10146000697469616C697A656420424E4F30353524
:101470003A200056616C756520696E2050525230DA
:101480005B434845434B3A204249543A37203D207C
:10149000305D3A200056616C756520696E205457A6
:1014A00053525B434845434B3A20424954312D3E09
:1014B00030203D2030305D3A200056616C7565204B
:1014C000696E20545742525B434845434B3A20379C
:1014D000325D3A20004D6F746F72204472697665F8
:1014E0007220496E7075743A2000536572766F20D1
:1014F00044726976657220496E7075743A20004EA8
:101500006F2073686172656420646174612069741E
:10151000656D7320746F207072696E74002D2D2DAF
:101520002D2020202020202020202020202D2D2D87
:101530002D202020202D2D2D2D2D2D2D2D2D2D003C
:1015400053686172652F51756575652020202020D4
:101550005479706520202020467265652F546F7481
:10156000616C004552524F52206372656174696E1E
:1015700067207461736B2022005461736B2022001A
:101580002220637265617465642C20737461636BDF
:101590002061742030780049444C45090930092DF8
:1015A00009002F0009092D002D2D2D2D09092D2DA4
:1015B0002D2D092D2D2D2D2D00092D2D2D2D2D2DD0
:1015C0002D2D2D2D00092D2D2D2D004E616D650920
:1015D000095072692E095374617465000946726579
:1015E000652F546F74616C000952756E73005461FD
:1015F000736B0909202009200009537461636B0093
:10160000090009002F000900090011241FBECFEFB7
:10161000D1E2DEBFCDBF14E0A0E0B2E0E6E4F9E83D
:1016200000E00BBF02C007900D92A636B107D9F7B4
:101630001CE1A6E6B4E001C01D92A033B107E1F7BA
:101640000E941D400C94A1440C9400000F931F9322
:10165000CF93DF93EC0166E08E819F810E94CD34B1
:101660006BE08E819F810E94CD348C0169EF7FE019
:101670000E94883466E0C8010E94CD346BE08E8100
:101680009F810E94CD348C0167EB7FE00E948834FB
:1016900066E0C8010E94CD346BE08E819F810E947C
:1016A000CD348C016FE87FE00E94883466E0C80189
:1016B0000E94CD346BE08E819F810E94CD348C01DD
:1016C00067E67FE00E94883466E0C8010E94CD345E
:1016D0006BE08E819F810E94CD348C016FE37FE0AF
:1016E0000E94883466E0C8010E94CD346BE08E8190
:1016F0009F810E94CD348C0167E17FE00E94883495
:1017000066E0C8010E94CD346BE08E819F810E940B
:10171000CD348C016FEE7EE00E94883466E0C80113
:101720000E94CD3481E089A7DF91CF911F910F9165
:1017300008952F923F924F925F926F927F928F9275
:101740009F92AF92BF92CF92DF92EF92FF920F9350
:101750001F93CF93DF93EC018E8D8823C1F08130EE
:1017600009F49BC1823009F4AAC1833009F4A2C1F3
:101770007BEFA72E72E0B72E8A8D9B8D97FD95C1CA
:10178000892B49F042EFE42E42E0F42E08C06DEDC3
:10179000A62E62E0B62E56EEE52E52E0F52E66E05D
:1017A0008E819F810E94CD34CA8CDB8C6BE08E8150
:1017B0009F810E94CD348C0162E77EE00E948834D4
:1017C00066E0C8010E94CD346BE00E94CD348C01EC
:1017D00069E97EE00E94883466E0C8010E94CD3449
:1017E0006BE00E94CD348C0169EB7EE00E9488346E
:1017F00066E0C8010E94CD346BE00E94CD348C01BC
:1018000060EE7EE00E948834B501C8010E948834F1
:101810006BE0C8010E94CD348C016AEE7EE00E942C
:101820008834B601C8010E9412356BE00E94CD34A5
:101830008C016CEE7EE00E948834B701C8010E94E2
:10184000883466E0C8010E94CD3466E00E94CD3441
:101850002FA038A44DA05EA00FB6F8940F92E0918F
:101860006A04F0916B04008511850F900FBE0FB6CE
:10187000F8940F92E0917204F0917304C084D184C3
:10188000E284F3840F900FBE0FB6F8940F92E091AC
:101890007604F0917704A084B1840F900FBE0FB648
:1018A000F8940F92E0917804F09179048084918407
:1018B0000F900FBE66E08E819F810E94CD346BE059
:1018C0000E94CD343C0168E57DE00E94883466E0EA
:1018D000C3010E94CD346BE00E94CD343C0169E627
:1018E0007DE00E94883466E0C3010E94CD346BE045
:1018F0000E94CD343C0160E97DE00E94883466E0BE
:10190000C3010E94CD346BE00E94CD343C0165EBF5
:101910007DE00E94883466E0C3010E94CD346BE014
:101920000E94CD343C016CED7DE00E948834B4010E
:10193000C3010E9412356BE00E94CD344C0166EE6B
:101940007DE00E9488346BE0C4010E94CD344C01DC
:1019500068EE7DE00E948834B501C4010E94123512
:101960006BE00E94CD345C016AEE7DE00E94883419
:101970006BE0C5010E94CD345C016CEE7DE00E94FD
:101980008834B701A601C5010E9441356BE00E9471
:10199000CD347C016EEE7DE00E94883466E0C701A4
:1019A0000E94CD346BE00E94CD347C0160EF7DE07D
:1019B0000E94883466E0C7010E94CD346BE00E942B
:1019C000CD347C0167E17EE00E94883466E0C70187
:1019D0000E94CD346BE00E94CD347C0167E37EE051
:1019E0000E94883466E0C7010E94CD346BE00E94FB
:1019F000CD347C016EE57EE00E948834B801C701D9
:101A00000E9412356BE00E94CD348C0168E67EE0C6
:101A10000E9488346BE0C8010E94CD348C016AE6D4
:101A20007EE00E948834B201C8010E9412356BE04A
:101A30000E94CD348C016CE67EE00E9488346BE01D
:101A4000C8010E94CD348C016EE67EE00E9488348D
:101A5000B101C8010E9412356BE00E94CD348C01A7
:101A600060E77EE00E94883466E0C8010E94CD34C1
:101A700081E089A7DF91CF911F910F91FF90EF90A7
:101A8000DF90CF90BF90AF909F908F907F906F909E
:101A90005F904F903F902F90089524E1A22E23E075
:101AA000B22E8A8D9B8D97FF6BCE3AEEE32E32E0FD
:101AB000F32E75CE82E0A82E83E0B82E5DCE9BE09B
:101AC000A92E93E0B92E58CE0F931F93CF93DF9397
:101AD000EC0189A58111AFC06BE08E819F810E94CE
:101AE000CD348C0163E071E10E9488346BE0C80161
:101AF0000E94CD348C0169E071E10E94883466E077
:101B0000C8010E94CD346BE00E94CD348C016FE09F
:101B100071E10E94883466E0C8010E94CD3466E01D
:101B20000E94CD346BE00E94CD348C016BE271E1F8
:101B30000E9488346BE0C8010E94CD348C0163E3BD
:101B400071E10E94883466E0C8010E94CD346BE0E8
:101B50000E94CD348C016FE371E10E9488346BE008
:101B6000C8010E94CD348C0165E471E10E94883483
:101B700066E0C8010E94CD346BE00E94CD348C0138
:101B800060E771E10E94883466E0C8010E94CD34AC
:101B90006BE00E94CD348C0162EB71E10E948834CD
:101BA0006BE0C8010E94CD348C016FED71E10E94A1
:101BB000883466E0C8010E94CD346BE00E94CD34C9
:101BC0008C0165EE71E10E94883466E0C8010E94D4
:101BD000CD346BE00E94CD348C0162E172E10E9451
:101BE000883466E0C8010E94CD346BE00E94CD3499
:101BF0008C016FE372E10E94883466E0C8010E94A4
:101C0000CD346BE00E94CD348C016CE672E10E9411
:101C1000883466E0C8010E94CD346BE00E94CD3468
:101C20008C0169E972E10E94883466E0C8010E9473
:101C3000CD3481E089A7DF91CF911F910F91089555
:101C40000F931F93CF93DF93EC0189A5811146C0B9
:101C500066E08E819F810E94CD3466E00E94CD3483
:101C60006BE00E94CD348C0161E270E10E94883407
:101C700066E0C8010E94CD346BE00E94CD348C0137
:101C800069E470E10E94883466E0C8010E94CD34A6
:101C90006BE00E94CD348C016BE870E10E948834C7
:101CA00066E0C8010E94CD346BE00E94CD348C0107
:101CB00063EB70E10E94883466E0C8010E94CD3475
:101CC0006BE00E94CD348C016BED70E10E94883492
:101CD00066E0C8010E94CD3481E089A7DF91CF91F1
:101CE0001F910F910895FC0121A5211108950C94D5
:101CF000260BFC0121A5211102C00C94990B08951B
:101D00000F931F93CF93DF93EC0166E08E819F8149
:101D10000E94CD346BE00E94CD348C0166E37DE0FF
:101D20000E9488346BE0C8010E94CD348C0162E5CA
:101D30007DE00E94883466E0C8010E94CD346BE0EB
:101D40008E819F810E94CD348C0165E17DE00E94EF
:101D5000883466E0C8010E94CD346BE08E819F819B
:101D60000E94CD348C016EEE7CE00E94883466E0E7
:101D7000C8010E94CD346BE08E819F810E94CD34DA
:101D80008C0160ED7CE00E94883466E0C8010E940E
:101D9000CD346BE08E819F810E94CD348C0161EB4C
:101DA0007CE00E94883466E0C8010E94CD346BE07C
:101DB0008E819F810E94CD348C016AE97CE00E9473
:101DC000883466E0C8010E94CD346BE08E819F812B
:101DD0000E94CD34EC016BE87CE00E94883466E020
:101DE000CE01DF91CF911F910F910C94CD34CF9301
:101DF000DF93EC018E819F81DC01ED91FC910480E9
:101E0000F581E02D0995811104C080E0DF91CF912B
:101E100008958E819F81DC01ED91FC910680F78110
:101E2000E02D09958A8B81E0DF91CF910895CF92C3
:101E3000DF92FF920F931F93CF93DF931F92CDB743
:101E4000DEB76C01DC0154961C921E925397F12C64
:101E5000F60186819781DC01ED91FC910480F5818A
:101E6000E02D0995882309F440C0F6018681978109
:101E7000DC01ED91FC910680F781E02D0995282F7A
:101E8000F601828B80ED820F8A3008F458C02D3223
:101E900009F478C0213709F498C02A3009F47FC0CA
:101EA0002D3009F484C02B3109F481C06BE0F601B8
:101EB0008681978129830E94CD348C0168E77CE07C
:101EC0000E948834D801ED91FC910280F381E02DCD
:101ED0002981622FC80109956BE0C8010E94CD34A9
:101EE00068E87CE00E948834B3CF80917A049091B6
:101EF0007B04DC01ED91FC910480F581E02D0995D6
:101F0000882309F4A5CFD6011696ED91FC91179779
:101F10000190F081E02D0281138180917A049091EB
:101F20007B04DC01ED91FC910680F781E02D0995A1
:101F3000682FF60186819781F801099589CF8681FE
:101F40009781DC01ED91FC910280F381E02D622FFD
:101F50000995F60123893489C901880F991F220F39
:101F6000331F220F331F220F331F820F931F22892B
:101F7000332727FD309520533109820F931F948B0F
:101F8000838B66CF86819781DC01ED91FC91028085
:101F9000F381E02D6DE20995FF24F39459CF6DE1B3
:101FA00073E0F601868197810E94883451CFFF202B
:101FB00061F0D60153968D919C915497919581959E
:101FC000910954969C938E9353970F90DF91CF91E4
:101FD0001F910F91FF90DF90CF9008958F929F9265
:101FE000AF92BF92CF92DF92EF92FF920F931F9327
:101FF000CF93DF9300D000D000D0CDB7DEB78C01F7
:1020000019821A821B821C821E821D82C0902801A6
:10201000D09029010E9457295C01CE0101960E94AF
:1020200023344C0166E0F801868197810E94CD340B
:102030006BE00E94CD347C016FE27CE00E9488342A
:102040006BE0C7010E94CD347C016BE47CE00E9410
:10205000883466E0C7010E94CD346BE00E94CD3425
:102060007C0167E57CE00E948834B401C7010E94CE
:10207000C2336BE00E94CD347C0165E67CE00E94B7
:102080008834B501C7010E9473357C016FE173E0AC
:102090000E94883448E357E160E070E0C7010E9485
:1020A000AD356BE00E94CD347C016EE67CE00E9491
:1020B0008834B601C7010E94733566E00E94CD34B2
:1020C00066E00E94CD34F801868197810E947432C7
:1020D00066E0F801868197810E94CD34F8018681FF
:1020E00097810E94973026960FB6F894DEBF0FBEF8
:1020F000CDBFDF91CF911F910F91FF90EF90DF90B7
:10210000CF90BF90AF909F908F9008950FB6F894A6
:102110000F92E0917404F091750420870F900FBE28
:102120000FB6F8940F92E0917804F09179045187FA
:1021300040870F900FBEFC01268F538F428F08956A
:102140006150710981E06230710508F080E0089506
:10215000FC0111A60895AF92BF92CF92DF92EF9249
:10216000FF920F931F93CF93DF93EC0189A5811109
:1021700085C06BE08E819F810E94CD348C0160E030
:102180007CE00E94883466E0C8010E94CD346BE098
:102190008E819F810E94CD348C0166EB7BE00E9492
:1021A000883466E0C8010E94CD346BE08E819F8147
:1021B0000E94CD348C0167E87BE00E94883466E0A1
:1021C000C8010E94CD346BE08E819F810E94CD3486
:1021D0008C0168E57BE00E94883466E0C8010E94BB
:1021E000CD340FB6F8940F92E0917004F091710421
:1021F000A084B1840F900FBE0FB6F8940F92E091B7
:102200007204F0917304C084D184E284F3840F904B
:102210000FBE6BE08E819F810E94CD348C016AE1FC
:102220007BE00E948834B701A601C8010E944135B5
:1022300066E00E94CD346BE00E94CD348C016AE2EE
:102240007BE00E948834B501C8010E94123566E027
:102250000E94CD3466E00E94CD346BE00E94CD3404
:102260008C016DE37BE00E94883466E0C8010E9427
:10227000CD3466E00E94CD3481E089A7DF91CF9113
:102280001F910F91FF90EF90DF90CF90BF90AF9094
:102290000895CF92DF92EF92FF920F931F93CF9307
:1022A000DF93EC0189A581116BC06BE08E819F816A
:1022B0000E94CD348C016BEE7AE00E94883466E097
:1022C000C8010E94CD346BE08E819F810E94CD3485
:1022D0008C0161EA7AE00E94883466E0C8010E94BD
:1022E000CD346BE08E819F810E94CD348C0162E7FA
:1022F0007AE00E94883466E0C8010E94CD346BE029
:102300008E819F810E94CD348C0163E47AE00E942B
:10231000883466E0C8010E94CD340FB6F8940F925D
:10232000E0917204F0917304C084D184E284F38458
:102330000F900FBE6BE08E819F810E94CD348C0187
:102340006DE17AE00E948834B701A601C8010E94BD
:10235000413566E00E94CD3466E00E94CD346BE0EA
:102360000E94CD348C0168E27AE00E94883466E0F5
:10237000C8010E94CD3466E00E94CD3481E089A777
:10238000DF91CF911F910F91FF90EF90DF90CF9051
:1023900008950F931F93CF93DF93EC0189A58823B2
:1023A00029F0DF91CF911F910F9108956BE08E81FD
:1023B0009F810E94CD348C016EEE79E00E948834BA
:1023C00066E0C8010E94CD346BE08E819F810E943F
:1023D000CD348C0164EA79E00E94883466E0C8015B
:1023E0000E94CD346BE08E819F810E94CD348C01A0
:1023F00065E779E00E94883466E0C8010E94CD3428
:102400006BE08E819F810E94CD348C0166E479E07F
:102410000E94883466E0C8010E94CD3466E00E94C4
:10242000CD3489A5882339F081E089A7DF91CF9148
:102430001F910F910895CE010E94990BF5CFCF9374
:10244000DF93CDB7DEB72A970FB6F894DEBF0FBE85
:10245000CDBF8C0119821A821B821C821E821D82B2
:10246000DC0154961C921E9253971DC0243009F42F
:102470002BC308F43EC2253009F01EC2808D8111A5
:1024800049C4F80186859785A089B1890196A11D67
:10249000B11D86879787A08BB18B61E070E080E0EB
:1024A00090E00E948D2DF8012485223009F473C13B
:1024B000E8F6222309F4CCC0213009F0FDC1F8016F
:1024C000858981110C94FA1B81A5811103C0C80173
:1024D0000E94260BC8010E94F70E882391F2F80192
:1024E00022892F3609F47DC70CF409C7213709F476
:1024F000D9C60CF45BC6233711F00C94B31A6BE009
:10250000868197810E94CD347C0169EF75E00E943D
:102510008834D701ED91FC910280F381E02D63E7CF
:10252000C701099566E0C7010E94CD3466E0F80155
:10253000868197810E94CD346BE00E94CD347C016E
:1025400061EB75E00E94883466E0C7010E94CD34DB
:102550006BE00E94CD347C0166ED75E00E9488340A
:1025600066E0C7010E94CD34C8010E94170FD80150
:1025700053968D919C9154970FB6F8940F92E091D9
:102580007404F091750421E020870F900FBE0FB600
:10259000F8940F92E0917804F09179049187808704
:1025A0000F900FBEF801268F938F828FC388D48837
:1025B00066E0868197810E94CD3466E00E94CD342A
:1025C0006BE00E94CD347C016FE975E00E94883495
:1025D000B601C7010E9412356BE00E94CD347C0128
:1025E0006EEA75E00E94883466E0C7010E94CD342F
:1025F000D80199961C92C8010E94990BF801D0A0AD
:1026000066E0868197810E94CD346BE00E94CD34D4
:102610007C0169E675E00E9488346D2DC7010E9437
:10262000F5356BE00E94CD347C0169E775E00E94CE
:1026300088346BE0C7010E94CD347C0166E875E008
:10264000C7010E94883466E0C7010E94CD3419CFCB
:10265000C8010E94640DC8010E94F70E882309F486
:1026600010CFD80152962C91283611F40C94761B79
:1026700014F40C94F61A2E3609F458C014F00C9485
:10268000411D293611F40C94CC1C2D3611F00C94FC
:10269000241C6BE0F801868197810E94CD347C0177
:1026A0006BE878E00E948834D701ED91FC910280BC
:1026B000F381E02D6DE6C701099566E0F80186819A
:1026C00097810E94CD3466E00E94CD346BE00E9479
:1026D000CD347C0162E378E00E94883466E0C70173
:1026E0000E94CD346BE00E94CD347C0161E578E03E
:1026F0000E94883466E0C7010E94CD346BE00E94DE
:10270000CD347C0163E778E00E94883466E0C7013D
:102710000E94CD34D80199961C92999781E05596E4
:102720008C9361E0C8010E949231ABCE6BE0F8015E
:10273000868197810E94CD347C0169EE76E00E940B
:10274000883466E0C7010E94CD34C8010E94170F8B
:10275000D8015396CD90DC90549766E016968D91F3
:102760009C9117970E94CD3466E00E94CD346BE0B7
:102770000E94CD347C0168ED76E00E948834B60179
:10278000C7010E94123566E00E94CD34F8018289AB
:10279000813761F676CEC8010E94F70E882309F4CE
:1027A0005EC0D80152968C915297813709F4B7C612
:1027B000823709F054C066E0D80116968D919C913D
:1027C00017970E94CD346BE00E94CD347C0165E701
:1027D00073E00E948834D701ED91FC910280F3816F
:1027E000E02D62E7C701099566E0C7010E94CD347C
:1027F000F80111A6C8010E94990BD8019096DC90AF
:10280000909766E016968D919C9117970E94CD3413
:1028100066E00E94CD346BE00E94CD347C0160E222
:1028200073E00E9488346D2DC7010E94F5356BE07E
:102830000E94CD347C0165E473E00E94883466E038
:10284000C7010E94CD346BE00E94CD347C016EE460
:1028500073E00E94883466E0C7010E94CD340FB651
:10286000F8940F92E0917604F09177048085918539
:102870000F900FBE0FB6F8940F92E0917404F09190
:102880007504B3E0B0870F900FBE0FB6F8940F92A7
:10289000E0917804F0917904918780870F900FBEC2
:1028A00023E0F801268F938F828F81A58111E9CDD6
:1028B000C8010E94990BE5CD6BE0D80116968D9169
:1028C0009C9117970E94CD348C0161E171E00E94C8
:1028D000883466E0C8010E94CD342BE088E190E0A6
:1028E0000FB6F894A895809360000FBE2093600007
:1028F000FFCF8789882309F4C4CDC8010E94AB109B
:10290000C8010E94F70E882309F4BBCDF801828923
:10291000813709F43FC1823709F4B3CD0FB6F8947B
:102920000F92E0917204F0917304C084D184E28428
:10293000F3840F900FBE6BE0D80116968D919C9199
:1029400017970E94CD345C016FEA72E00E948834D0
:1029500069E0C5010E94F5356BE00E94CD345C0151
:1029600062EB72E00E94883460E1C5010E94F53597
:102970006BE00E94CD345C0164EB72E00E9488340D
:102980006BE0C5010E94CD345C0166EB72E00E94F1
:10299000883460E0C5010E94F5356BE00E94CD34BB
:1029A0005C0169EB72E00E9488346BE0C5010E9413
:1029B000CD345C016BEB72E00E94883469E0C501A4
:1029C0000E94F5356BE00E94CD345C016EEB72E045
:1029D0000E94883460E1C5010E94F5356BE00E94D9
:1029E000CD345C0160EC72E00E948834B701A6012E
:1029F000C5010E9441350FB6F8940F92E091700422
:102A0000F0917104C084D1840F900FBE6BE0F80187
:102A1000868197810E94CD347C016CE972E00E942E
:102A200088346AE0C7010E94F5356BE00E94CD341E
:102A30007C016FE972E00E94883463E1C7010E9463
:102A4000F5356BE00E94CD347C0161EA72E00E94B2
:102A500088346BE0C7010E94CD347C0163EA72E0E8
:102A60000E94883460E0C7010E94F5356BE00E9447
:102A7000CD347C0166EA72E00E9488346BE0C701C5
:102A80000E94CD347C0168EA72E00E9488346AE0DA
:102A9000C7010E94F5356BE00E94CD347C016BEAE2
:102AA00072E00E94883463E1C7010E94F5356BE053
:102AB0000E94CD347C016DEA72E00E948834B60138
:102AC000C7010E941235DDCC8689882309F4D9CC50
:102AD000C8010E944911C8010E94F70E882309F419
:102AE000D0CCF8018289813709F4CEC0823709F051
:102AF000C8CC6BE0868197810E94CD347C016BE36A
:102B000072E00E94883466E0C7010E94CD34C8019B
:102B10000E94170FF801D38866E0868197810E9492
:102B2000CD346BE00E94CD347C0169E272E00E94FA
:102B3000883466E0C7010E94CD34C8010E94170F97
:102B4000D80153964C9153976D2D9A968D919C91E7
:102B50009B970E94FF2366E0F801868197810E947F
:102B6000CD3466E00E94CD346BE00E94CD347C0110
:102B700065E172E00E94883463E0C7010E94CD34B1
:102B80006D2D0E94F5356BE00E94CD347C0166E22C
:102B900072E056CD6BE0868197810E94CD347C0136
:102BA0006EEC72E00E9488346BE0C7010E94CD3465
:102BB0007C0163ED72E00E9488346BE0C7010E94E3
:102BC000CD347C0169ED72E00E948834D701ED912B
:102BD000FC910280F381E02D61E7C701099566E071
:102BE000C7010E94CD3466E00E94CD3466E00E94A9
:102BF000CD346BE00E94CD347C0166EE72E00E9421
:102C0000883466E0C7010E94CD346BE00E94CD3469
:102C10007C0169E073E00E94883466E0C7010E948D
:102C2000CD3460E0C8010E94923181E0F801858BCB
:102C3000178A11A66BE0868197810E94CD347C01B2
:102C400062EC72E00E9488346BE0C7010E94CD34D0
:102C50007C0167EC72E00E94883461E0C7010E9449
:102C6000F5356BE00E94CD347C016AEC72E00E9485
:102C7000883461E0C7010E94F5356BE00E94CD34D5
:102C80007C016CEC72E0DCCC6BE0868197810E9469
:102C9000CD347C0164E572E00E9488346BE0C701AA
:102CA0000E94CD347C0169E572E00E948834D7012E
:102CB000ED91FC910280F381E02D61E7C701099558
:102CC00066E0C7010E94CD3466E00E94CD3466E024
:102CD0000E94CD346BE00E94CD347C0166E672E048
:102CE0000E94883466E0C7010E94CD346BE00E94E8
:102CF000CD347C0169E872E00E94883466E0C70147
:102D00000E94CD3460E0C8010E949231F801168A19
:102D100011A6B7CBC8010E94C911C8010E94F70EC5
:102D2000882309F450C0F8018289823709F435C23A
:102D3000833709F4BEC1813709F045C06BE0868155
:102D400097810E94CD347C0166EC71E00E9488344A
:102D50006BE0C7010E94CD347C016BEC71E00E94F6
:102D60008834D701ED91FC910280F381E02D61E779
:102D7000C701099566E0C7010E94CD3466E00E9454
:102D8000CD3466E00E94CD346BE00E94CD347C01EE
:102D900068ED71E00E94883466E0C7010E94CD347E
:102DA0006BE00E94CD347C016BEF71E00E948834AF
:102DB00066E0C7010E94CD3460E0C8010E949231F4
:102DC000F801108E11A6A0916604B09167040FB6A9
:102DD000F8940F920F900FBE4091780450917904AF
:102DE0000FB6F8940F9218968D919C9119978E506A
:102DF0009240880F991FFA01918780870F900FBE2C
:102E00000FB6F8940F92809174049091750421E0AC
:102E1000FC0120870F900FBE0FB6F8940F92189602
:102E20008D919C91199798878F830F900FBE0FB645
:102E3000F8940F92A0916804B091690418962D91AE
:102E40003C9119970F900FBE0FB6F8940F92A09176
:102E50007004B091710418962D903C9019970F90C2
:102E60000FBE0FB6F8940F92A0916A04B0916B0454
:102E700018964D905C9019970F900FBE0FB6F8946E
:102E80000F92A0917204B09173041896CD90DD90CA
:102E9000ED90FC901B970F900FBE0FB6F8940F9219
:102EA000A0917604B09177041896AD90BC901997D4
:102EB0000F900FBE0FB6F8940F92DA0118968D900E
:102EC0009C9019970F900FBE6BE0F8018681978157
:102ED0002A8739870E94CD343C016EE271E00E945E
:102EE000883463E1C3010E94F5356BE00E94CD3464
:102EF0003C0161E371E00E94883461E0C3010E94FB
:102F0000F5356BE00E94CD343C0163E371E00E9433
:102F100088346BE0C3010E94CD343C0165E371E06D
:102F20000E94883460E0C3010E94F5356BE00E9486
:102F3000CD343C0168E371E00E9488346BE0C3014A
:102F40000E94CD343C016AE371E00E948834B401F0
:102F5000C3010E9412356BE00E94CD344C0164E441
:102F600071E00E9488346BE0C4010E94CD344C01B2
:102F700066E471E00E948834B501C4010E941235F4
:102F80006BE00E94CD345C0168E471E00E948834FB
:102F90006BE0C5010E94CD345C016AE471E00E94DF
:102FA0008834B701A601C5010E9441356BE00E943B
:102FB000CD347C016CE471E00E9488346BE0C70181
:102FC0000E94CD347C016EE471E00E94883467E198
:102FD000C7010E94F5356BE00E94CD347C0161E5AC
:102FE00071E00E94883461E0C7010E94F5356BE012
:102FF0000E94CD347C0163E571E00E9488346BE06F
:10300000C7010E94CD347C0165E571E00E948834DF
:1030100060E0C7010E94F5356BE00E94CD347C0171
:1030200068E571E00E948834B201C7010E94123540
:103030006BE00E94CD347C016AE571E00E94883427
:10304000B101C7010E9412356BE00E94CD347C01B2
:1030500060E671E00E9488346BE0C7010E94CD34C5
:103060007C0162E671E00E9488342A853985B901C5
:10307000C7010E9412356BE00E94CD347C0164E6EA
:1030800071E00E9488346BE0C7010E94CD347C015E
:1030900066E671E00E9488346F817885C7010E94DE
:1030A00012356BE00E94CD3468E671E00E948834EE
:1030B000E8C966E0868197810E94CD346BE00E946A
:1030C000CD347C0168EA71E00E94883466E0C70173
:1030D0000E94CD34C8010E94170FF801838994899A
:1030E0000FB6F8940F92E0917404F091750421E00A
:1030F00020870F900FBE0FB6F8940F92E0917804DE
:10310000F0917904918780870F900FBED8015E9669
:103110002C935E975B969C938E935A975396CD9083
:10312000DC90549766E016968D919C9117970E94BB
:10313000CD3466E00E94CD346BE00E94CD347C013A
:1031400060E871E00E948834B601C7010E94123520
:103150006BE00E94CD347C016FE871E00E948834FE
:1031600066E0C7010E94CD3466E00E94CD346BE07A
:103170000E94CD347C0162E971E0C7010E9488346D
:1031800066E0C7010E94CD3466E00E94CD34F801AC
:1031900011A6C8010E94990B16CE6BE0868197811B
:1031A0000E94CD347C016AE671E0E7CF66E086815B
:1031B00097810E94CD346BE00E94CD347C0167E69C
:1031C00074E00E948834D701ED91FC910280F38174
:1031D000E02D60E7C701099566E0C7010E94CD3484
:1031E0006BE00E94CD347C0164E774E00E94883477
:1031F00066E0C7010E94CD346BE0F80186819781BB
:103200000E94CD347C016BE474E00E94883466E057
:10321000C7010E94CD3466E00E94CD34D80190965B
:10322000DC90909766E016968D919C9117970E947E
:10323000CD3466E00E94CD346BE00E94CD347C0139
:1032400066EF73E00E9488346D2DC7010E94F5354A
:103250006BE00E94CD347C016BE174E00E94883405
:1032600066E0C7010E94CD346BE00E94CD347C0142
:1032700064E274E00E94883466E0C7010E94CD34A5
:1032800062E0C8010E949231F80111A60FB6F894CD
:103290000F92E0916C04F0916D0481E080870F90B3
:1032A0000FBEEFC86BE0F801868197810E94CD3494
:1032B0007C0166EC73E00E948834D701ED91FC91AB
:1032C0000280F381E02D61E7C701099566E0C7013F
:1032D0000E94CD346BE00E94CD347C0163ED73E03D
:1032E0000E94883466E0C7010E94CD3461E0C801C5
:1032F0000E949231F80111A681E0858BC2C8223666
:1033000009F475C0263609F02EC16BE086819781DD
:103310000E94CD347C0165EE74E00E948834D701B0
:10332000ED91FC910280F381E02D66E6C7010995DD
:1033300066E0C7010E94CD346BE0F8018681978179
:103340000E94CD347C0160ED74E00E94883466E018
:10335000C7010E94CD340FB6F8940F92E091740427
:10336000F091750482E080870F900FBE0FB6F8943D
:103370000F92E0917804F0917904118610860F90F5
:103380000FBED8015E968C935E975B961C921E9240
:103390005A9799961C92C8010E94990BF801D0A0E7
:1033A00066E0868197810E94CD346BE00E94CD3427
:1033B0007C016AE974E00E9488346D2DC7010E9487
:1033C000F5356BE00E94CD347C016AEA74E00E941E
:1033D00088346BE0C7010E94CD347C0167EB74E058
:1033E0002FC911A6C8010E94260B0C9441126BE054
:1033F000868197810E94CD347C016CE575E00E9446
:103400008834D701ED91FC910280F381E02D62E6D2
:10341000C701099566E0C7010E94CD346BE0F80151
:10342000868197810E94CD347C016AE375E00E9419
:10343000883466E0C7010E94CD34C8010E94170F8E
:10344000D8015396CD90DC90549766E016968D91F6
:103450009C9117970E94CD3466E00E94CD346BE0BA
:103460000E94CD347C0168E275E00E948834B60188
:10347000C7010E9412356BE00E94CD347C0167E3E6
:1034800075E00E94883466E0C7010E94CD34F801DF
:10349000838994890FB6F8940F92E0917404F091A7
:1034A000750410860F900FBE0FB6F8940F92E0913E
:1034B0007804F0917904918780870F900FBED8012E
:1034C0005E961C925E975B969C938E935A97999604
:1034D0001C92C8010E94990BF801D0A066E0868179
:1034E00097810E94CD346BE00E94CD347C0162EF65
:1034F00074E00E9488346D2DC7010E94F5356BE0A1
:103500000E94CD347C0162E075E00E9488346BE05B
:10351000C7010E94CD347C016FE075E091C866E080
:1035200016968D919C9117970E94CD346BE00E9466
:10353000CD347C0162E873E00E948834D701ED91BC
:10354000FC910280F381E02D61E7C701099566E0F7
:10355000C7010E94CD3461E0C8010E949231F80198
:1035600011A60C94411266E0D80116968D919C919B
:1035700017972A870E94CD346BE00E94CD347C01DE
:103580006CEA73E00E948834D701ED91FC910280CF
:10359000F381E02D2A85622FC70109956BE0C701F1
:1035A0000E94CD347C016EEA73E00E94883466E0AC
:1035B000C7010E94CD34F801D0A066E086819781D2
:1035C0000E94CD346BE00E94CD347C016FE873E043
:1035D0000E9488346D2DC7010E94F5356BE00E9472
:1035E000CD347C016FE973E00C9420132F3309F480
:1035F0007DC00CF4DFC0243609F47DC0253609F007
:1036000023C16BE0F801868197810E94CD347C0153
:1036100065E278E00E948834D701ED91FC91028048
:10362000F381E02D65E6C70109956BE0F80186811D
:1036300097810E94CD347C016DEB77E00E94883445
:103640006BE0C7010E94CD347C0162EC77E00E9400
:10365000883461E0C7010E94F5356BE00E94CD34EB
:103660007C0165EC77E00E94883461E0C7010E942C
:10367000F5356BE00E94CD347C0167EC77E00E9469
:1036800088346BE0C7010E94CD347C0169EC77E09F
:103690000E94883466E0C7010E94CD346BE00E942E
:1036A000CD347C016AEE77E00E94883466E0C70181
:1036B0000E94CD346BE00E94CD347C016CE078E058
:1036C0000E94883466E0C7010E94CD3466E00E9403
:1036D000CD34D80199961C92999781E057968C9396
:1036E00063E0C8010E9492310C944112C8010E940B
:1036F000800E0C9441126BE0D80116968D919C912E
:1037000017970E94CD347C0163E477E00E948834EF
:10371000D701ED91FC910280F381E02D64E6C701B1
:1037200009956BE0F801868197810E94CD347C0178
:103730006AE177E00E9488346BE0C7010E94CD34D3
:103740007C016FE177E00E94883461E0C7010E944C
:10375000F5356BE00E94CD347C0162E277E00E9497
:10376000883461E0C7010E94F5356BE00E94CD34DA
:103770007C0164E277E00E9488346BE0C7010E941C
:10378000CD347C0166E277E00E94883466E0C701B0
:103790000E94CD3466E00E94CD3465E0C8010E94ED
:1037A000923181E0D80158968C93589799961C9243
:1037B0000C944112233009F047C06BE0D8011696F3
:1037C0008D919C9117970E94CD348C016AEC76E024
:1037D0000E94883466E0C8010E94CD342BE088E165
:1037E00090E00FB6F894A895809360000FBE2093E8
:1037F0006000FFCFC8012A870E94200EC8010E94E6
:10380000170FD80152968C9152972A85813709F467
:1038100075C0F801C388D488C60101970297A0F14A
:103820006BE0868197812A870E94CD347C0166E017
:1038300076E00E94883466E0C7010E94CD342A8574
:10384000F801258B0C944112F801E680F780D7012E
:10385000ED91FC910280F381E02D62E2C7012A879D
:103860000995D701ED91FC910280F381E02D2A8525
:10387000622FC70109956BE0C7010E94CD347C011E
:1038800062EC76E00C94201366E0868197810E94BA
:10389000CD3466E00E94CD346BE00E94CD347C01D3
:1038A00062E176E00E948834B601C7010E941235B9
:1038B00062E00E94CD346BE00E94CD347C0164E371
:1038C00076E00E94883466E0C7010E94CD346BE048
:1038D0000E94CD347C0166E376E00E94883466E085
:1038E000C7010E94CD34F801838980A311A6158AEF
:1038F00061E0C8010E9492310C9441126BE016966F
:103900008D919C9117970E94CD347C0169E676E0F9
:103910000E948834D701ED91FC910280F381E02D63
:1039200061E7C701099566E0C7010E94CD3466E0F2
:103930000E94CD3466E00E94CD346BE00E94CD340D
:103940007C0166E776E00E94883466E0C7010E9449
:10395000CD346BE00E94CD347C0169E976E00E94B1
:10396000883466E0C7010E94CD346BE00E94CD34FC
:103970007C016FEA76E00E94883466E0C7010E940D
:10398000CD34F801158A60E0C8010E949231D80157
:1039900099961C920C9441126BE0F80186819781F4
:1039A0000E94CD347C0160EB77E00E948834D7011F
:1039B000ED91FC910280F381E02D69E6C701099544
:1039C0006BE0F801868197810E94CD347C0160E52F
:1039D00077E00E9488346BE0C7010E94CD347C01FF
:1039E00065E577E00E94883461E0C7010E94F53503
:1039F0006BE00E94CD347C0168E577E00E9488345A
:103A000061E0C7010E94F5356BE00E94CD347C0176
:103A10006AE577E00E9488346BE0C7010E94CD34EC
:103A20007C016CE577E00E94883466E0C7010E9463
:103A3000CD346BE00E94CD347C0169E777E00E94D1
:103A4000883466E0C7010E94CD346BE00E94CD341B
:103A50007C016BE977E00E94883466E0C7010E9430
:103A6000CD3466E00E94CD34D80199961C92999786
:103A700081E056968C9364E0C8010E9492310C94C8
:103A80004112233791F0243709F0DECECE010196A2
:103A90000E942334BC01F801868197810E94C233C1
:103AA00066E00E94CD340C944112C8010E94EE0FD2
:103AB0000C9441120F931F93CF93DF93EC0189A5D0
:103AC00081112CC06BE08E819F810E94CD348C01CE
:103AD00067E179E00E94883466E0C8010E94CD3435
:103AE0006BE08E819F810E94CD348C016DEC78E07B
:103AF0000E94883466E0C8010E94CD346BE08E815C
:103B00009F810E94CD348C016EE978E00E94883458
:103B100066E0C8010E94CD3481E089A7DF91CF9192
:103B20001F910F910895EF92FF920F931F93CF93E0
:103B3000DF93EC010E94DC3085E293E09983888377
:103B400019A61F8A1E8A188E198E1D8A82E08E8FF2
:103B50001B8E1A8E6BE08E819F810E94CD3468E9A6
:103B600078E00E948834FBA6EAA682E090E00E94FA
:103B70003B348C016E817F810E94D1201AA309A35E
:103B800082E090E00E943B348C016E817F810E9434
:103B9000D1201CA30BA3DF91CF911F910F91FF9018
:103BA000EF900895CF93DF9300D000D0CDB7DEB76C
:103BB0008C010E94862B69837A838B839C838091FE
:103BC0008000836A80938000809181008A60809366
:103BD00081001BC0823009F448C0833009F44BC017
:103BE000F80146855785608971894F5F5F4F6F4F38
:103BF0007F4F46875787608B718B4AE050E060E0CB
:103C000070E0CE0101960E94262D0FB6F8940F9217
:103C1000E0917404F091750480850F900FBE81309F
:103C200099F08111D7CF0FB6F8940F920F900FBE75
:103C3000E0917604F091770460857185F8018389BD
:103C400094890E94A226CCCF0FB6F8940F920F90C1
:103C50000FBEE0917604F091770460857185F801DC
:103C6000838994890E942726BBCFF8018389948990
:103C70000E94F626B5CF60E0F801858996890E94FA
:103C8000F220880F991F7C01FFEFEF1AF3E0FF0A83
:103C9000B701F801838994890E9427260FB6F8940A
:103CA0000F92E0917804F0917904F186E0860F900C
:103CB0000FBE96CFAF92CF92DF92EF92FF920F930B
:103CC0001F93CF93DF93EC010E94DC308DE293E0F1
:103CD00099838883FC8AEB8ADE8ACD8AAA8ADF915F
:103CE000CF911F910F91FF90EF90DF90CF90AF9009
:103CF0000895CF93DF9300D000D0CDB7DEB78C010D
:103D00000E94862B69837A838B839C83EE24EA94BA
:103D10008FE0F82E4FC0841795070CF068C097010C
:103D2000241B350B280F391FF801378B268BE091A8
:103D30007204F09173040FB6F8940F920F900FBEB7
:103D40000FB6F8940F92C901AA2797FDA095BA2F34
:103D50004085518562857385480F591F6A1F7B1FF7
:103D600040875187628773870F900FBE0FB6F89414
:103D70000F92E0917004F0917104318720870F90C9
:103D80000FBEF80184899589938B828B4685578570
:103D9000608971894F5F5F4F6F4F7F4F46875787AD
:103DA000608B718B41E050E060E070E0CE010196E5
:103DB0000E94262DF801808D918D0E94C021F8016E
:103DC000958B848B428953899C01241B350B37FDCD
:103DD00009C0B901653A764008F09DCFF801378BEC
:103DE000268BA5CF66277727621B730BF3CF9C0129
:103DF0002F5F3F40241B350BF801378B268B97CF65
:103E0000EF92FF920F931F93CF93DF93EC010E94E9
:103E1000DC3085E393E099838883F98EE88E1B8AF2
:103E20001A8A1F8A1E8A1D8A1C8ADF91CF911F91D0
:103E30000F91FF90EF90089577FD02C0CB01089598
:103E400088279927861B970B0895CF93DF9300D07F
:103E500000D0CDB7DEB78C010E94862B69837A83B0
:103E60008B839C83BB24B3940FB6F8940F920F906E
:103E70000FBE0FB6F8940F92D8015496ED91FC91B5
:103E80005597C084D1840F900FBED8015296ED9102
:103E9000FC915397E084F184EC18FD085C966D91D9
:103EA0007C915D9794968D919C9195970E94D827CF
:103EB00040E054E00E94EA274C01F801628D738DC6
:103EC000C7010E947127B4010E948E27D8015B961A
:103ED0009C938E935A9758968D919C915997B601C1
:103EE000681B790B5996DC92CE92589792968D91D9
:103EF0009C9193970E94D82740E054E00E94EA27C3
:103F00006C01F801628D738D80A191A10E94D82768
:103F100040E054E00E94EA27B6010E9471276C013C
:103F2000B701D8015E968D919C915F970E94D8272A
:103F300040E054E00E94EA27B6010E947127F80190
:103F4000E0A4F1A4E816F9063CF026A137A17C0113
:103F5000821793070CF47901B7010E948E27D801CC
:103F60005D969C938E935C970FB6F8940F92E091B8
:103F70007404F0917504B0860F900FBE0FB6F894DC
:103F80000F92D8015696ED91FC915797F186E086F5
:103F90000F900FBE41E050E060E070E0CE0101966E
:103FA0000E94262D61CF6F927F928F929F92AF9247
:103FB000BF92CF92DF92EF92FF920F931F93CF9316
:103FC000DF93CDB7DEB73C010E94DC308DE393E098
:103FD000F30191838083F38AE28AD58AC48AB78AFF
:103FE000A68A978E868E89899A8991A380A38B89C8
:103FF0009C8993A382A38D899E8995A384A38F898D
:10400000988D97A386A3898D9A8D91A780A7DF911C
:10401000CF911F910F91FF90EF90DF90CF90BF90C5
:10402000AF909F908F907F906F900895CF93DF9384
:1040300000D000D0CDB7DEB77C010E94862B69830B
:104040007A838B839C832AC060E0F701838D948DF3
:104050000E94F2200FB6F8940F92E0916604F0915E
:104060006704918780870F900FBEB801F701808D9C
:10407000918D0E9474280FB6F8940F92E0916A0413
:10408000F0916B04118700870F900FBE41E050E064
:1040900060E070E0CE0101960E94262D45E0F70118
:1040A000628D838D948D0E940F21F701058D168DF1
:1040B000080F191F000F111F08511E4F828D8130EC
:1040C00009F0C2CF0FB6F8940F92E0916804F09116
:1040D0006904118700870F900FBEB6CFEF92FF9251
:1040E0000F931F93CF93DF93EC01E62E1E8E1D8E50
:1040F0003AE0F32E00E010E001C08C016E2D8B8DB4
:104100009C8D0E94F220800F911F9E8F8D8FFA94BC
:10411000A1F79C01ADECBCEC0E946042969587959E
:10412000969587959695879500E012E0081B190BE8
:104130001E8F0D8F6A8D8E819F810E94F5356BE0F9
:104140000E94CD34EC0166EC72E10E948834B80123
:10415000CE010E94733566E0DF91CF911F910F91E0
:10416000FF90EF900C94CD34CF92EF92FF920F938B
:104170001F93CF93DF93EC010E94DC3085E493E042
:1041800099838883F98EE88ECA8E6C2D70E0CE01FB
:10419000DF91CF911F910F91FF90EF90CF900C94F2
:1041A0006E20CF93DF93FC017183608320917C00AC
:1041B000206420937C0020917A00256C20937A0063
:1041C000C081D181209759F069E473E0CE010E944B
:1041D000883466E0CE01DF91CF910C94CD34DF912D
:1041E000CF910895683008F060E080917C00887F6E
:1041F00080937C0080917C00862B80937C00809152
:104200007A00806480937A0080917A0086FDFCCFEA
:10421000809178002091790090E0922B0895DF92B0
:10422000EF92FF920F931F93CF93DF938C01D62EC3
:10423000E42E80E48417E0F480E4E82EF12CC0E062
:10424000D0E06D2DC8010E94F220C80FD91FF39451
:10425000FE10F7CF6E2D70E0CE010E949142CB018F
:10426000DF91CF911F910F91FF90EF90DF90089514
:104270004111E4CFC0E0D0E0EDCF0F931F93CF9377
:10428000DF93EC016BE00E94CD348C016FEC72E1A6
:104290000E94883466E0C8010E94CD346BE00E9421
:1042A000CD348C016AEE72E10E94883466E0C80168
:1042B0000E94CD34CE01DF91CF911F910F910895CF
:1042C000CF92EF92FF920F93CF93DF93FC01718314
:1042D000608353834283248335830683E782F08699
:1042E000C186DA0111971C92A281B3811C92A4812C
:1042F000B5816C9181E090E0AC01068002C0440F72
:10430000551F0A94E2F7642B6C93A781B0856C91DA
:10431000AC01018402C0440F551F0A94E2F7642BDC
:104320006C93D9014E919C01068002C0220F331F6D
:104330000A94E2F7422B4C93D7012E91018402C0DC
:10434000880F991F0A94E2F7282B2C93C081D18102
:10435000209779F06DE773E0CE010E94883466E023
:10436000CE01DF91CF910F91FF90EF90CF900C9401
:10437000CD34DF91CF910F91FF90EF90CF900895C2
:10438000CF93DF93FC01A281B381C781D08548819F
:1043900021E030E0C901018402C0880F991F0A940E
:1043A000E2F7809584238883C481D5814881C9013F
:1043B000068002C0880F991F0A94E2F78095842333
:1043C000888312978C9190E0982F8827C781D08599
:1043D0006881A901018402C0440F551F0A94E2F7C5
:1043E000642B68835C91A481B5814C91068002C0E6
:1043F000220F331F0A94E2F7422B4C93852BDF9157
:10440000CF910895BF92CF92DF92EF92FF920F93D8
:104410001F93CF93DF93EC01FB01FF24F394828180
:104420009381892B09F4F12CE184DD24D3948781D5
:104430009085892B09F4D12CB680CC24C394848137
:104440009581892B09F4C12C6BE0CE010E94CD34FB
:104450008C0169EF72E10E94883462E0C8010E9419
:10446000CD3466E00E94CD346BE00E94CD348C01E7
:104470006DE173E10E9488346C2DC8010E945834AC
:104480008C0163EA73E00E9488346B2DC8010E949E
:10449000F53566E00E94CD346BE00E94CD348C018E
:1044A00066E273E10E94883466E0C8010E94CD3460
:1044B0006BE00E94CD348C0165E373E10E94883487
:1044C0006D2DC8010E9458348C0163EA73E00E948C
:1044D00088346E2DC8010E94F53566E00E94CD3407
:1044E0006BE00E94CD348C016FE373E10E9488344D
:1044F0006F2DC8010E94583466E00E94CD34CE0171
:10450000DF91CF911F910F91FF90EF90DF90CF90AF
:10451000BF900895FF920F931F93CF93DF93E4E62C
:10452000F0E020812F772083A9EBB0E02C912C7F45
:104530002C9368EB70E028E4EB0128832CEB30E04F
:10454000E90148814E7F4883EB0118810C91F0808E
:104550006BE0FC01808191810E94CD34EC016EE51D
:1045600074E10E94883466E0CE010E94CD346BE095
:104570000E94CD34EC0163E774E10E94883460E06E
:10458000CE010E94CD346F2D0E94F53566E00E9469
:10459000CD346BE00E94CD34EC0165E974E10E94FA
:1045A000883460E0CE010E94CD34602F0E94F53542
:1045B00066E00E94CD346BE00E94CD34EC016AEBE2
:1045C00074E10E948834612FCE010E94F53566E0C7
:1045D000DF91CF911F910F91FF900C94CD34EF920A
:1045E0000F931F93CF93DF93EC015D834C8379830B
:1045F00068830E83EF823B832A8319861A861B8683
:104600001C86188688E28D8780E58E8781E58F87F6
:10461000FA01208181E090E0BC0102C0660F771FA3
:104620000A95E2F70E2C01C0880F0A94EAF7862B50
:10463000822B8083CE010E948A220990D881C02DCE
:10464000209771F065EA73E0CE010E94883466E03D
:10465000CE01DF91CF911F910F91EF900C94CD344B
:10466000DF91CF911F910F91EF900895CF93DF933A
:104670006115710599F061307105B1F06BE0FC01D5
:10468000808191810E94CD34EC016FE973E10E9439
:10469000883466E0CE010E94CD34FFCF84E8809359
:1046A000BC00DF91CF910895DF91CF910C9400422F
:1046B000FF920F931F93CF93DF938C018091BC00E7
:1046C00087FD13C06BE0F801808191810E94CD3499
:1046D000EC0165E973E10E94883466E0CE010E9436
:1046E000CD348091BC0087FFEDCFF801F084F394C6
:1046F000F0866BE0808191810E94CD34EC016AE804
:1047000073E10E9488346F2DCE010E94F53566E07A
:104710000E94CD34F090B9006BE0F8018081918166
:104720000E94CD34EC0161E873E10E94883463E0BB
:10473000CE010E94CD346F2D0E94F53566E0DF91E9
:10474000CF911F910F91FF900C94CD34DF92EF9297
:10475000FF920F931F93CF93DF93EC018B01809116
:10476000B900887F90E08617970709F440C0D88485
:104770006BE0888199810E94CD347C0166E773E10A
:104780000E94883463E0C7010E94CD346D2D0E94E1
:10479000F53566E00E94CD346BE0888199810E94F6
:1047A000CD347C016DE673E10E94883463E0C7017B
:1047B0000E94CD34B8010E94123566E00E94CD34CB
:1047C0001091B9006BE0888199810E94CD34EC0191
:1047D00062E673E10E94883463E0CE010E94CD342A
:1047E000612F0E94F53566E00E94CD34FFCFDF9146
:1047F000CF911F910F91FF90EF90DF9008959F92BE
:10480000AF92BF92CF92DF92EF92FF920F931F93DE
:10481000CF93DF93EC01A62EB42E19861A861B8641
:104820001C86FD846BE0888199810E94CD348C01C7
:104830006EE474E10E94883463E0C8010E94CD34C4
:104840006F2D0E94F53566E00E94CD34FD846BE04B
:10485000888199810E94CD348C0160E474E10E94CA
:10486000883463E0C8010E94CD346F2D0E94F53575
:1048700066E00E94CD34FE846BE0888199810E94BD
:10488000CD348C016CE274E10E94883463E0C8018D
:104890000E94CD346F2D0E94F53566E00E94CD3424
:1048A000FF846BE0888199810E94CD348C0169E19D
:1048B00074E10E94883463E0C8010E94CD346F2DFA
:1048C0000E94F53566E00E94CD346BE088819981C5
:1048D0000E94CD348C0169E074E10E94883463E069
:1048E000C8010E94CD346A2D0E94F53566E00E9411
:1048F000CD34C984DA84EB84FC846BE088819981AF
:104900000E94CD348C016AEF73E10E94883463E029
:10491000C8010E94CD34B701A6010E94AD3566E002
:104920000E94CD3404EA0093BC00CE010E945823BB
:1049300068E070E0CE010E94A6238E858093BB00C4
:1049400014E81093BC00CE010E94582368E170E087
:10495000CE010E94A623A092BB001093BC00CE0102
:104960000E94582368E270E0CE010E94A6230093C3
:10497000BC00CE010E94582360E170E0CE010E948D
:10498000A6238F858093BB001093BC00CE010E94AC
:10499000582360E470E0CE010E94A623F090BB0093
:1049A0006BE0888199810E94CD348C0163EE73E1C4
:1049B0000E94883463E0C8010E94CD346FEF7FEF1E
:1049C0000E9412356BE00E94CD348C0166EF73E1DA
:1049D0000E94883463E0C8010E94CD346F2D0E948C
:1049E000F53566E00E94CD34CE010E940042CE0132
:1049F0000E94582360E570E0CE010E94A623EB2CB4
:104A0000F12C82E0E816F1040CF4A1C001E010E002
:104A1000912CA12C03C0902EA12E8C01B090BB0034
:104A20006BE0888199810E94CD346C0160ED73E167
:104A30000E94883463E0C6010E94CD34692D7A2D2E
:104A40000E9412356BE00E94CD346C016FED73E172
:104A50000E94883463E0C6010E94CD346B2D0E9411
:104A6000F53566E00E94CD348091BB0049855A85BA
:104A70006B857C85482B762F652F542F44274987DB
:104A80005A876B877C87CE010E940042CE010E942C
:104A9000582360E570E0CE010E94A623C80101966C
:104AA0008E159F050CF4B7CFBB24BA94BE0C809131
:104AB000BB0049855A856B857C85482B49875A8779
:104AC0006B877C8784E88093BC00CE010E945823CA
:104AD00068E570E0CE010E94A62384E98093BC00C3
:104AE000C984DA84EB84FC846BE0888199810E941C
:104AF000CD348C016FEB73E10E94883463E0C80110
:104B00000E94CD34B701A6010E94AD3566E00E9437
:104B1000CD3449855A856B857C850FB6F8940F9204
:104B2000E0916E04F0916F0440875187628773872C
:104B30000F900FBE8B2DDF91CF911F910F91FF90A2
:104B4000EF90DF90CF90BF90AF909F900895B12CE1
:104B5000AECFFC014185528563857485762F652F24
:104B6000542F442741875287638774870895262FDF
:104B7000FC014185528563857485422B41875287AC
:104B80006387748708950F931F93CF93DF93EC018E
:104B90006BE00E94CD348C016FE473E10E94883495
:104BA00066E0C8010E94CD34CE01DF91CF911F9104
:104BB0000F9108956F927F928F92AF92CF92EF9262
:104BC000FF920F931F93CF93DF93CDB7DEB7FC0116
:104BD0003B018E85718360835583448331872087B1
:104BE00015870487F38AE28AC686A786808A818B26
:104BF0004150510953834283215031093783268321
:104C0000015011091387028761157105A1F068EC45
:104C100073E0C3010E94883466E0C301DF91CF9145
:104C20001F910F91FF90EF90CF90AF908F907F905A
:104C30006F900C94CD34DF91CF911F910F91FF9025
:104C4000EF90CF90AF908F907F906F900895CF931B
:104C5000FC01A281B381CC9181E090E0AC0106849B
:104C600002C0440F551F0A94E2F79C01078402C05A
:104C7000220F331F0A94E2F7242B2C2B2C93A681AE
:104C8000B7814C919C01008802C0220F331F0A9407
:104C9000E2F7209524232C93A285B3854C919C01A7
:104CA000018802C0220F331F0A94E2F7422B4C9373
:104CB000A085B1854C919C01008802C0220F331F52
:104CC0000A94E2F7422B4C93A481B5814C919C014C
:104CD00077FD1BC0068402C0220F331F0A94E2F73F
:104CE000422B4C93A481B5812C91078402C0880F7C
:104CF000991F0A94E2F7809582238C930288F389A6
:104D0000E02D71836083CF910895078402C0220F44
:104D1000331F0A94E2F7422B4C93A481B5812C9166
:104D2000068402C0880F991F0A94E2F780958223B7
:104D30008C930288F389E02D7195619571097183D7
:104D40006083E1CFFC01A281B3816C9181E090E0AE
:104D5000AC01068402C0440F551F0A94E2F79C017F
:104D6000078402C0220F331F0A94E2F7242B262B5C
:104D70002C93A681B7814C919C01008802C0220F20
:104D8000331F0A94E2F7209524232C93A285B38540
:104D90004C919C01018802C0220F331F0A94E2F754
:104DA000422B4C93A085B1854C919C01008802C098
:104DB000220F331F0A94E2F7422B4C93A481B58152
:104DC0004C919C01068402C0220F331F0A94E2F723
:104DD000422B4C93A481B5812C91078402C0880F8B
:104DE000991F0A94E2F7282B2C930895FC01A281C5
:104DF000B3816C9181E090E0AC01068402C0440F65
:104E0000551F0A94E2F79C01078402C0220F331F4A
:104E10000A94E2F7242B262B2C93A681B7814C9180
:104E20009C01008802C0220F331F0A94E2F72095EC
:104E300024232C93A285B3854C919C01018802C048
:104E4000220F331F0A94E2F7422B4C93A085B185C1
:104E50004C919C01008802C0220F331F0A94E2F794
:104E6000422B4C93A481B5814C919C01068402C0D5
:104E7000220F331F0A94E2F7209524232C93A48158
:104E8000B5812C91078402C0880F991F0A94E2F71C
:104E9000809582238C930895EF92FF920F931F9336
:104EA000CF93DF93EC01DB015296ED91FC91539788
:104EB000E080F1806BE00E94CD348C0165ED74E1FF
:104EC0000E948834B701C8010E94733566E00E94D1
:104ED000CD34CE01DF91CF911F910F91FF90EF90D4
:104EE00008959C01432F4095441F4427441F80E0B0
:104EF00090E8841B9109AC01421B530BE1E046177B
:104F000057070CF0E0E0432F4095441F4427441F0F
:104F1000E41719F0C901860F971F089586179707A0
:104F200099F1611520E8720741F171956195710958
:104F3000492F4095441F4427441F20E030E8241B9C
:104F40003109A901481B590BE1E04617570764F4E2
:104F5000492F4095441F4427441FE41719F0860F3A
:104F6000971F0895C9010895E0E0492F4095441F17
:104F70004427441FE417B1F3F2CF97FD03C06FEF4E
:104F80007FE7D6CF0196FBCF80E090E008958115B2
:104F900020E8920729F09C0197FD05C0C9010895FA
:104FA0008FEF9FE70895319521953109C901089543
:104FB000811520E8920729F09C01DB010E945842EC
:104FC0000895611520E87207B9F76FEF7FEF8FEF53
:104FD0009FE708959A01442737FD4095542F0E947A
:104FE000C742211580E838074105510524F02FEF0D
:104FF0003FE740E050E0DA01C901811520E892075F
:105000002FEFA207B20724F480E090E8AFEFBFEFE4
:105010000895FC01A5E6B0E08C91877F8C93A28176
:10502000B3818C91806A8C93A481B5818C918261CB
:105030008C93A681B7818385948511969C938E93DA
:105040002DB181E090E0058402C0880F991F0A9479
:10505000E2F7282B2DB908956F927F928F92AF922D
:10506000BF92CF92EF92FF920F931F93CF93DF9354
:10507000CDB7DEB73C01FC0171836083538342836B
:105080003583248317830683F186E086C286B4863F
:10509000A38685860E940928F301608071806114CF
:1050A0007104A9F06DEE73E0C3010E94883466E0DC
:1050B000C301DF91CF911F910F91FF90EF90CF909F
:1050C000BF90AF908F907F906F900C94CD34DF9114
:1050D000CF911F910F91FF90EF90CF90BF90AF9025
:1050E0008F907F906F900895DC011896ED91FC9160
:1050F00019977183608308950F931F93CF93DF9364
:10510000EC016BE00E94CD348C016AEE74E10E94E8
:10511000883466E0C8010E94CD34CE01DF91CF9182
:105120001F910F9108950F931F93CF93DF93EC017D
:105130000E94802B80917C04811121C086E894E03C
:1051400090938204809381041092840410928304CB
:1051500087E397E19093800480937F0410927E040C
:1051600010927D0490938904809388048DE794E0E5
:10517000909387048093860481E080937C04209739
:1051800009F460C0AE014C5F5F4F2396C633D74130
:1051900008F058C0E0918104F0918204A1E8B4E0E5
:1051A00006C080819181009739F0DF01FC012281E6
:1051B000338124173507A8F3C4E0ED37FC0709F461
:1051C00041C00D911C9111970C5F1F4F80819181FF
:1051D0008D939C93C901841B950B8930910500F137
:1051E000BF01640F751FDB0113969C938E9312977A
:1051F0005383428312968D919C911397A1E8B4E05A
:1052000001C0DF01ED91FC911197228133812817B4
:105210003907B8F3EB01F983E8836D937C939A0126
:105220008091000290910102821B930B90930102E6
:10523000809300020E94B32CC801DF91CF911F918F
:105240000F91089500E010E00E94B32CC801DF9197
:10525000CF911F910F910895CF93DF93009721F184
:10526000EC0124970E94802B4A815B81A1E8B4E085
:1052700001C0DF01ED91FC91119722813381241748
:105280003507B8F3F983E883CD93DC93809100026E
:1052900090910102840F951F909301028093000268
:1052A000DF91CF910C94B32CDF91CF910895809131
:1052B000000290910102089508958091F21B8230BE
:1052C00018F00E947339F9CFFFCFCF92DF92EF929F
:1052D000FF926B017C01E091BD1BF091BE1B6283CC
:1052E0007383848395838091C61B9091C71BA09183
:1052F000C81BB091C91B6091BD1B7091BE1BC81625
:10530000D906EA06FB0610F18091DA1B9091DB1BAF
:105310006E5F7F4F0E943A388091020290910302A3
:10532000A0910402B0910502C816D906EA06FB0650
:1053300040F4C0920202D0920302E0920402F09282
:105340000502FF90EF90DF90CF9008958091D81BD9
:105350009091D91B6E5F7F4FFF90EF90DF90CF90C1
:105360000C943A385F926F927F928F929F92AF9295
:10537000BF92CF92DF92EF92FF920F931F93CF9342
:10538000DF934C01162F572E5A01390189E290E024
:105390000E949328EC01009709F4E9C0C114D104DC
:1053A00009F4DAC0DC8ECB8EC601A50165EA70E097
:1053B0000E94EB4321E0A21AB108CB8CDC8CCA0C12
:1053C000DB1CAE01435E5F4FE12FF52D2AE0CF01DC
:1053D0003191DA013D93AD01DC018C91882311F00C
:1053E0002150A9F71EA2102F043008F07DC01A8F9B
:1053F0001FA318A65E01B2E0AB0EB11CC5010E944E
:105400001538CE010E960E941538DB87CA8784E0D6
:1054100090E0A0E0B0E0811B9109A109B1098E875D
:105420009F87A88BB98BDF8BCE8BA301B401C601FC
:105430000E94A33899838883E114F10419F0F701DD
:10544000D183C0830FB6F8940F928091CA1B8F5FEF
:105450008093CA1B8091BD1B9091BE1B892B09F4C0
:1054600049C08091C41B81110BC0E091BD1BF0911C
:10547000BE1B828D081720F0D093BE1BC093BD1BAE
:105480008091C01B8F5F8093C01B8A8D9091C51B3C
:10549000981738F1FBE08F9FC0011124B5018E50A1
:1054A000944E0E9419380F900FBE8091C41B882320
:1054B00039F0E091BD1BF091BE1B828D8017B0F0DA
:1054C00081E0DF91CF911F910F91FF90EF90DF90DE
:1054D000CF90BF90AF909F908F907F906F905F9094
:1054E00008958093C51BD6CF13E081CF0E947339F6
:1054F00081E0E7CFD093BE1BC093BD1B8091CA1B38
:10550000813009F0BDCF82EF9BE10E9404388DEF1E
:105510009BE10E94043888E09CE10E94043883E10A
:105520009CE10E94043887EE9BE10E9404388CEDD8
:105530009BE10E9404388DEC9BE10E94043887EEC9
:105540009BE19093DB1B8093DA1B8CED9BE19093A6
:10555000D91B8093D81B94CFC5010E9493289C8FA0
:105560008B8F009709F021CFCE010E942C298FEF5D
:10557000A8CF0FB6F8940F92009729F00F900FBEA6
:10558000FC01828D08958091BD1B9091BE1B0F90F0
:105590000FBEFC01828D0895EF92FF921F93CF936F
:1055A000DF93EC01262F643008F023E00FB6F89467
:1055B0000F92209709F44AC03FA13217A9F18091B8
:1055C000BD1B9091BE1B3217B8F5C817D90741F023
:1055D000E091BD1BF091BE1B11E0828D281708F4ED
:1055E00010E08A8D381769F12FA34E855F85688991
:1055F000798977FD0CC044E050E060E070E0421B28
:105600005109610971094E875F87688B798B2BE09F
:10561000829FC00111248E50944E2C853D85281701
:105620003907C9F0113079F00F900FBEDF91CF919B
:105630001F91FF90EF90089511E0C817D90781F6E8
:10564000D0CF2A8FD1CF0E947339EECFC091BD1B2E
:10565000D091BE1BB1CF7E0182E0E80EF11CC701E4
:105660000E9477388A8D9091C51B981710F480930B
:10567000C51B2BE0829FC0011124B7018E50944EB0
:105680000E941938CFCFAF92BF92CF92DF92EF92A4
:10569000FF920F93A12CB12CC12CD12C8BECE82EB6
:1056A0008BE1F82E00E020E030E044E650E064E1D9
:1056B00074E08DE599E20E94B229813041F00F91AA
:1056C000FF90EF90DF90CF90BF90AF900895F89447
:1056D0008093C41B1092C61B1092C71B1092C81B4C
:1056E0001092C91B0F91FF90EF90DF90CF90BF9069
:1056F000AF900C943739F8941092C41B0C94723903
:105700008091BF1B8F5F8093BF1B08950FB6F894E5
:105710000F926091C61B7091C71B8091C81B90911E
:10572000C91B0F900FBE08956091C61B7091C71BD7
:105730008091C81B9091C91B08958091CA1B089540
:10574000009711F04D9608958091BD1B9091BE1B5E
:105750004D9608958091CB1B9091CC1B0895AF92EC
:10576000BF92CF92DF92EF92FF920F931F93CF934E
:10577000DF938091BF1B8111CFC08091C61B909198
:10578000C71BA091C81BB091C91B0196A11DB11DDB
:105790008093C61B9093C71BA093C81BB093C91BD3
:1057A000C090C61BD090C71BE090C81BF090C91BCF
:1057B000C114D104E104F10439F58091DA1B909110
:1057C000DB1B2091D81B3091D91B3093DB1B20931E
:1057D000DA1B9093D91B8093D81B8091C11B8F5FDC
:1057E0008093C11BE091DA1BF091DB1B808181115A
:1057F0009AC08FEF9FEFDC01809302029093030227
:10580000A0930402B09305028091020290910302DA
:10581000A0910402B0910502B12CC816D906EA067F
:10582000FB0608F457C09BE0A92EE091DA1BF0912B
:10583000DB1B8081882309F442C0E091DA1BF091E0
:10584000DB1B0780F085E02DC085D1854A815B8117
:105850006C817D81C416D506E606F70608F47AC089
:105860008E010E5F1F4FC8010E947738888D998D79
:10587000892B21F0CE010E960E9477388A8D909167
:10588000C51B981710F48093C51BA89EC001112456
:10589000B8018E50944E0E941938E091BD1BF091D2
:1058A000BE1B9A8D828D981708F4BFCFBB24B3948A
:1058B000E091DA1BF091DB1B80818111BECF4FEFAD
:1058C0005FEFBA0140930202509303026093040217
:1058D00070930502E091BD1BF091BE1BE28D8BE041
:1058E000E89FF0011124EE50F44E8081823010F0D8
:1058F000BB24B3948091C21B882311F0BB24B394C2
:105900008B2DDF91CF911F910F91FF90EF90DF9042
:10591000CF90BF90AF9008958091C31B8F5F80930D
:10592000C31BB12CE7CFE091DA1BF091DB1B0780A2
:10593000F085E02D0084F185E02D82819381A481A2
:10594000B5818093020290930302A0930402B09366
:1059500005025ACF4093020250930302609304025F
:1059600070930502B7CFEF92FF920F931F93CF93DF
:10597000DF930FB6F8940F928091BF1B81508093F4
:10598000BF1B8091BF1B811150C08091CA1B88230F
:1059900009F44BC02BE0F22EEE24E39427C0E091F3
:1059A000D41BF091D51BC085D185CE010E960E94E7
:1059B00077388E010E5F1F4FC8010E9477388A8D9D
:1059C0009091C51B981710F48093C51BF89EC001D9
:1059D0001124B8018E50944E0E941938E091BD1BDD
:1059E000F091BE1B9A8D828D981748F58091CD1B42
:1059F0008111D5CF8091C31B882399F08091C31B5F
:105A0000882379F0C1E00E94AF2B8111C093C21BA3
:105A10008091C31B81508093C31B8091C31B811154
:105A2000F2CF8091C21B813069F080E00F900FBEF1
:105A3000DF91CF911F910F91FF90EF900895E09229
:105A4000C21BD4CF0E94733981E0F0CFCF92DF9296
:105A5000EF92FF920F931F93CF93DF9300D000D06C
:105A6000CDB7DEB72091BF1B2F5F2093BF1BC09027
:105A7000C61BD090C71BE090C81BF090C91BFC014F
:105A80000081118122813381400F511F621F731FDA
:105A9000C016D106E206F306E8F440175107620784
:105AA0007307E8F0FC0140835183628373830E9493
:105AB000B32C811102C00E9473390F900F900F9088
:105AC0000F90DF91CF911F910F91FF90EF90DF909A
:105AD000CF900895401751076207730728F0C41646
