:100000000C94F20A0C94110B0C94110B0C94110B20
:100010000C94110B0C94110B0C94C4270C94110B21
:100020000C94110B0C94110B0C94110B0C94110BE0
:100030000C94110B0C94110B0C94110B0C94110BD0
:100040000C94110B0C94110B0C94110B0C94110BC0
:100050000C94110B0C94110B0C94110B0C94110BB0
:100060000C94110B0C94C5360C94110B0C94110BC1
:100070000C94110B0C94110B0C94110B0C94110B90
:100080000C94110B0C94110B0C94110B0C94110B80
:100090000C9418370C94110B0C94110B0C94110B3D
:1000A0000C94110B0C94110B0C94110B0C94110B60
:1000B0000C94110B0C94110B0C94110B0C948F39A4
:1000C0000C94110B0C94110B0C94110BA9154A12E2
:1000D00019152C14C4132A13131341344A344D3404
:1000E000503443344334533463346A347134753494
:1000F00047344D45343035204C6162203420436F05
:100100006E74726F6C6C65722050726F6772616D85
:1001100000496C6C6567616C2073746174652120A3
:10012000526573657474696E67204156520050724F
:10013000696E74696E672044617368426F617264AE
:100140002E2E200009506F77657220736574206130
:100150007420002E20005072696E74696E6720440E
:10016000617368426F6172642E2E2000496E707553
:100170007420506F7765722056616C756520666FCC
:1001800072204D6F746F723A20001B5B324A002D53
:100190003E53656C65637465643A2000092D3E52D8
:1001A000657475726E696E6720746F204D69737324
:1001B000696F6E20436F6E74726F6C2E2E20000973
:1001C0002D3E52656C656173696E67204472697675
:1001D00065204D6F64652E2E0009494D5520574905
:1001E0004C4C20524541443A20002E2000486F7765
:1001F000206D616E792042797465733F3A20004921
:100200006E70757420526567697374657220746FBF
:1002100020726561643A20001B5B324A002D3E5318
:10022000656C65637465643A2000092D3E526574FF
:1002300075726E696E6720746F204D697373696F94
:100240006E20436F6E74726F6C2E2E2000092D3E4F
:1002500052656C656173696E6720494D552E2E009D
:100260001B5B003B0048001B5B004B001B5B003B23
:100270000048001B5B003B0048001B5B004B001B61
:100280005B003B0048001B5B324A001B5B003B00ED
:1002900048001B5B324A001B5B34376D002D3E5318
:1002A000656C65637465643A2000092D3E5265747F
:1002B00075726E696E6720746F204D697373696F14
:1002C0006E20436F6E74726F6C2E2E2000092D3ECF
:1002D00052656C656173696E6720456E636F646516
:1002E000722E2E00092D3E507265737320277127E0
:1002F00020746F2072657475726E20746F2074683C
:1003000065204D6F746F72200020436F6E74726FA2
:100310006C00092D3E50726573732027722720747C
:100320006F20726566726573682074686520446129
:100330007368426F61726420002D3E53656C656383
:100340007465643A20002D3E53656C656374656482
:100350003A20002D3E43686F6F7365204D6F746FB8
:10036000722000206F7065726174696F6E3A2000B0
:10037000270027206973206E6F7420612076616CDE
:10038000696420656E7472792E002D3E53656C652C
:10039000637465643A20002052657475726E696EEC
:1003A0006720746F204D61696E204D6F746F7220ED
:1003B0004D6F64756C652E2E2000092D3E507265C0
:1003C00073732027712720746F2072657475726EA5
:1003D00020746F20746865204D6F746F7220002048
:1003E000436F6E74726F6C00092D3E5072657373AB
:1003F0002027722720746F207265667265736820EB
:100400007468652044617368426F617264200009FA
:100410002D3E506F74656E74696F6D6574657220E2
:100420004163746976617465642E002D3E53656C7A
:1004300065637465643A2000092D3E456E746572EB
:10044000696E6720506F74656E74696F6D65746551
:100450007220436F6E74726F6C2E2E2E20002D3E14
:1004600043686F6F7365204D6F746F722000206F4B
:100470007065726174696F6E3A2000092850726568
:10048000737320276F2720666F72206F7074696FF7
:100490006E732900092D3E52656C656173696E6744
:1004A000204D6F746F722E2E002D3E53656C656368
:1004B0007465643A20002D3E43686F6F7365204D6C
:1004C0006F746F722000206F7065726174696F6E57
:1004D0003A20000928507265737320276F27206621
:1004E0006F72206F7074696F6E73290009427261B8
:1004F0006B652073657420617420002E2000092D27
:100500003E456E74657220746865204272616B6549
:1005100020466F7263652830202D20323535290042
:100520002D3E53656C65637465643A20002D3E432F
:10053000686F6F7365204D6F746F722000206F704D
:1005400065726174696F6E3A200009285072657394
:100550007320276F2720666F72206F7074696F6E2B
:1005600073290009506F7765722073657420617478
:1005700020002E2000456E7465722074686520503E
:100580006F7765722056616C756520282D32353580
:1005900020746F20323535293B0020202A4E6F749D
:1005A000653A204E656761746976652056616C75A1
:1005B0006573203D2052657665727365002D3E534C
:1005C000656C65637465643A2000547279204167F4
:1005D00061696E2E2000092D3E5377697463686946
:1005E0006E6720746F20436F6E74726F6C206F663D
:1005F000204D6F746F7220002E00092D3E526574DD
:1006000075726E20746F20746865204D61696E206C
:100610004D6F746F72204D6F64756C6520746F2020
:1006200073776170204D6F746F72732E002D3E537F
:10063000656C65637465643A2000092D3E526574EB
:1006400075726E696E6720746F204D697373696F80
:100650006E20436F6E74726F6C2E2E2000092D3E3B
:1006600052656C656173696E67204D6F746F72734C
:100670002E2E00092D3E526573657474696E6720D5
:100680004156522E2E00223A205754463F005265C2
:1006900073657474696E672041565200092D3E5986
:1006A0006F7520456E74657265643A2000456E74FE
:1006B000657220646563696D616C206E756D65722D
:1006C0006963206469676974732C207468656E209F
:1006D00052455455524E206F7220455343001B5BC8
:1006E000324A001B5B003B004800092D3E537769EE
:1006F000746368696E6720746F2044726976652040
:100700004D6F64652E2E002D3E53656C65637465D8
:10071000643A20001B5B324A001B5B003B00480030
:10072000092D3E537769746368696E6720746F2082
:10073000494D55204D6F64756C652E2E00092D3E78
:10074000436C656172696E67205265676973746591
:10075000727320616E64204D656E75732E2E0009D4
:100760002D3E496E7469616C697A696E6720494DE6
:10077000552E2E002D3E53656C65637465643A20DA
:10078000001B5B324A001B5B003B004800092D3E0A
:10079000537769746368696E6720746F20456E6370
:1007A0006F646572204D6F64756C652E2E00092D87
:1007B0003E436C656172696E672052656769737448
:1007C00065727320616E64204D656E75732E2E0008
:1007D000092D3E496E7469616C697A696E672045BE
:1007E0006E636F6465722E2E002D3E53656C6563DB
:1007F0007465643A2000092D3E5377697463686913
:100800006E6720746F204D6F746F72204D6F64752A
:100810006C652E2E00092D3E436C656172696E6712
:100820002052656769737465727320616E64204D30
:10083000656E75732E2E00092D3E496E7469616CCC
:10084000697A696E67204D6F746F72732E2E002D5A
:100850003E53656C65637465643A20001B5B3437F6
:100860006D007C09092027712720202020717569DF
:100870007420746F206D61696E206D656E75202027
:100880002020202020202020202020202009097C3A
:10089000007C2D2D2D2D2D2D2D2D2D2D2D2D2D2D66
:1008A0002D2D2D2D2D2D2D2D2D2D2D2D2D2D2D2D78
:1008B0002D2D2D2D2D2D2D2D2D2D2D2D2D2D2D2D68
:1008C0002D2D2D2D2D2D2D2D2D2D2D2D2D2D2D2D58
:1008D0002D2D2D2D2D2D2D2D207C007C0909202046
:1008E00020202020202020204A6F79537469636BD8
:1008F00020436F6E74726F6C204D6F6465202020F2
:1009000020202020202009097C007C090920277153
:1009100027202020207175697420746F206D616913
:100920006E206D656E752020202020202020202044
:10093000202020202009097C007C0909202020207B
:1009400055736520746865204A6F79537469636BC9
:1009500020746F206D6F76652061726F756E6420F4
:100960002020202009097C007C2D2D2D2D2D2D2DC2
:100970002D2D2D2D2D2D2D2D2D2D2D2D2D2D2D2DA7
:100980002D2D2D2D2D2D2D2D2D2D2D2D2D2D2D2D97
:100990002D2D2D2D2D2D2D2D2D2D2D2D2D2D2D2D87
:1009A0002D2D2D2D2D2D2D2D2D2D2D2D2D2D2D2084
:1009B0007C007C09092020202020202020202044A9
:1009C0007269766520436F6E74726F6C204D6F6430
:1009D0006520202020202020202020202009097CA4
:1009E00000494D5520444154413A200009092D3E0B
:1009F0002070726573732027722720746F207265D0
:100A0000667265736820007C090920277127202001
:100A100020207175697420746F206D61696E206D7E
:100A2000656E7520202020202020202020202020DE
:100A3000202009097C007C0909202772272020201A
:100A400020526566726573682074686520646174FD
:100A50006120202020202020202020202020202055
:100A60002009097C007C2D2D2D2D2D2D2D2D2D2D9A
:100A70002D2D2D2D2D2D2D2D2D2D2D2D2D2D2D2DA6
:100A80002D2D2D2D2D2D2D2D2D2D2D2D2D2D2D2D96
:100A90002D2D2D2D2D2D2D2D2D2D2D2D2D2D2D2D86
:100AA0002D2D2D2D2D2D2D2D2D2D2D2D207C007C12
:100AB000090920202020202020202020494D5520D9
:100AC000436F6E74726F6C204D6F64756C6520207F
:100AD0002020202020202020202009097C00456E95
:100AE000636F64657220436F756E743A2000456EC3
:100AF000636F646572205469636B732F6D733A2062
:100B00000009092D3E20707265737320277227201B
:100B1000746F207265667265736820007C09092015
:100B2000277127202020207175697420746F206D33
:100B300061696E206D656E752020202020202020A8
:100B40002020202020202009097C007C0909202762
:100B500072272020202052656672657368207468B1
:100B60006520646174612020202020202020202026
:100B700020202020202009097C007C2D2D2D2D2DCA
:100B80002D2D2D2D2D2D2D2D2D2D2D2D2D2D2D2D95
:100B90002D2D2D2D2D2D2D2D2D2D2D2D2D2D2D2D85
:100BA0002D2D2D2D2D2D2D2D2D2D2D2D2D2D2D2D75
:100BB0002D2D2D2D2D2D2D2D2D2D2D2D2D2D2D2D65
:100BC0002D207C007C090920202020202020204589
:100BD0006E636F64657220436F6E74726F6C204D2C
:100BE0006F64756C652020202020202020202009A3
:100BF000097C004D453430352054657374696E6747
:100C000020506C617466726F6D2076362E30004A0B
:100C1000756E20203220323031360053797374657E
:100C20006D2074696D653A20002C20486561703A2A
:100C300020002C204F435235413A20003C696E760B
:100C4000616C69642063686172202200223E00208A
:100C500020683A202020202048414C5021002020AC
:100C600043746C2D433A2052657365742074686533
:100C7000204156520020206E3A2020202020456E30
:100C80007465722061206E756D62657220286465DE
:100C90006D6F29002020643A2020202020537461A9
:100CA000636B2064756D7020666F72207461736B66
:100CB00073002020733A202020202056657273692B
:100CC0006F6E20616E6420736574757020696E6646
:100CD0006F726D6174696F6E002020743A2020205D
:100CE000202053686F77207468652074696D6520D3
:100CF0007269676874206E6F77004D453430352017
:100D000054657374696E6720506C617466726F6DA0
:100D10002076362E30002068656C70004465627560
:100D20006767696E6720496E666F3A20002D2D2D2A
:100D30002D2D2D2D09092D2D2D2D2D2D2D2D092D4F
:100D40002D2D2D2D2D2D09092D2D2D2D2D2D2D2D1B
:100D50002D2D2D004D6F746F720909536574506FFE
:100D6000696E740920506F7765720909456E636F6B
:100D7000646572436F756E74002D2D2D2D2D2D2DF4
:100D800009092D2D2D2D2D2D2D2D092D2D2D2D2DFF
:100D90002D2D09092D2D2D2D2D2D2D2D2D2D2D00F8
:100DA0004D6F746F722031090900090009000900B4
:100DB000090009002D2D2D2D2D2D2D09092D2D2D4D
:100DC0002D2D2D2D2D092D2D2D2D2D2D2D09092DBF
:100DD0002D2D2D2D2D2D2D2D2D2D005354455F50B6
:100DE00009094E636F6465722F730920582D4449B9
:100DF00052430909592D44495243002D2D2D2D2DC3
:100E00002D2D09092D2D2D2D2D2D2D2D092D2D2D7E
:100E10002D2D2D2D09092D2D2D2D2D2D2D2D2D2D4A
:100E20002D004D6F746F722031090900090009000F
:100E30000900090009002D2D2D2D2D2D2D09092D1D
:100E40002D2D2D2D2D2D2D092D2D2D2D2D2D2D091A
:100E5000092D2D2D2D2D2D2D2D2D2D2D004D6F746A
:100E60006F7209095374617475730909506F77655E
:100E7000720909446972656374696F6E002D2D2DC6
:100E80002D2D2D2D09092D2D2D2D2D2D2D2D092DFE
:100E90002D2D2D2D2D2D09092D2D2D2D2D2D2D2DCA
:100EA0002D2D2D004D6F746F72203109090009003E
:100EB0000909007C090920277127202020202052C1
:100EC000657475726E20746F2070726576696F75C7
:100ED00073206D656E752009097C007C0909202747
:100EE00070272020202020456E74657220506F747A
:100EF000656E74696F6D65746572204D6F64650908
:100F0000097C007C09092027662720202020204614
:100F1000726565776865656C206D6F746F722020EF
:100F20002020202020202009097C007C090920277E
:100F3000622720202020204170706C792074686521
:100F4000206D6F746F72206272616B6520202009C2
:100F5000097C007C090920277327202020202053AA
:100F6000657420746865206D6F746F7220706F7780
:100F70006572202020202009097C007C2D2D2D2D3C
:100F80002D2D2D2D2D2D2D2D2D2D2D2D2D2D2D2D91
:100F90002D2D2D2D2D2D2D2D2D2D2D2D2D2D2D2D81
:100FA0002D2D2D2D2D2D2D2D2D2D2D2D2D2D2D2D71
:100FB0002D2D2D2D2D2D2D2D2D2D2D7C007C090938
:100FC00020202053696E676C65204D6F746F72200E
:100FD000436F6E74726F6C204D6F64756C6520206A
:100FE0002009097C007C0909202020204D61696EC0
:100FF000204D6F746F7220436F6E74726F6C204D52
:101000006F64756C652020202009097C007C2D2DE3
:101010002D2D2D2D2D2D2D2D2D2D2D2D2D2D2D2D00
:101020002D2D2D2D2D2D2D2D2D2D2D2D2D2D2D2DF0
:101030002D2D2D2D2D2D2D2D2D2D2D2D2D2D2D2DE0
:101040002D2D2D2D2D2D2D2D2D2D2D2D2D7C007C5F
:101050000909202731272020202020746F206F705D
:101060006572617465204D6F746F7220312020208D
:1010700020202009097C007C090920273227202014
:10108000202020746F206F706572617465204D6F31
:10109000746F72203220202020202009097C007CDF
:1010A000090920277127202020202052657475729D
:1010B0006E20746F204D61696E204D656E75202025
:1010C00020202009097C001B5B34376D001B5B333B
:1010D000316D004D453430352054657374696E6749
:1010E00020506C617466726F6D2076362E30000968
:1010F000090920202020004A756E2020322032303D
:101100003136001B5B33306D007C09092020202024
:101110004D697373696F6E20436F6E74726F6C20CC
:1011200050726F6772616D2076312E302020202042
:1011300009097C007C2D2D2D2D2D2D2D2D2D2D2DB6
:101140002D2D2D2D2D2D2D2D2D2D2D2D2D2D2D2DCF
:101150002D2D2D2D2D2D2D2D2D2D2D2D2D2D2D2DBF
:101160002D2D2D2D2D2D2D2D2D2D2D2D2D2D2D2DAF
:101170002D2D2D2D7C007C090920202020202020D1
:101180002020456E746572204D6F746F7220436F1E
:101190006E74726F6C204D6F64756C652020200931
:1011A000097C001B5B34376D007C0909202020205E
:1011B0002020202020456E74657220456E636F6488
:1011C000657220436F6E74726F6C204D6F64756C26
:1011D000652009097C007C0909202020202020208E
:1011E0002020456E74657220494D5520436F6E7402
:1011F000726F6C204D6F64756C6520202020200973
:10120000097C007C09092020202020202020204566
:101210006E746572204472697665204D6F64652036
:1012200020202020202020202020202009097C00B0
:101230007C09092020202020202020204469737070
:101240006C617920616C6C206F7074696F6E7320B3
:1012500020202020202020202009097C007C090952
:1012600020202020202020202052657365742041FA
:101270005652202020202020202020202020202006
:1012800020202020202009097C00204552524F5266
:101290003A200043757272656E74204368616E6E09
:1012A000656C2052656164696E67733A2000456E13
:1012B00064205072696E74204461746100546869DE
:1012C00073204843544C2D323030302069732075E0
:1012D00073696E672074686573652070696E733A10
:1012E000004F452070696E3A200053686172616258
:1012F0006C652070696E733A0053454C2070696EBE
:101300003A2000446174612062757320706F7274BA
:101310003A2000696D752044726976657220496EC5
:101320007075743A200052656365697665643A2089
:10133000004E65656465643A20004572726F7220E4
:1013400061743A20005354415455533A2000576178
:101350006974205365743A200077616974696E6717
:101360002E2E006572726F7220696E20636C65614B
:101370007220656E61626C6500434F4E54494E5554
:101380004553005448452046494E414C2044415461
:10139000413A200056616C75652052656164206198
:1013A000742000203A20003173742056616C7565FA
:1013B00020526561642061742000203A200043754A
:1013C0007272656E7420446174613A2000476976D8
:1013D000656E20416464726573733A2000494D550F
:1013E000204164647265737320526561643A200021
:1013F000494D552041646472657373205772697456
:10140000653A2000494D5520416464726573733A12
:10141000200052656164696E6720494D552E2E3A51
:101420002000496E697469616C697A656420424E76
:101430004F3035353A200056616C756520696E2055
:10144000505252305B434845434B3A204249543A4C
:1014500037203D20305D3A200056616C756520696B
:101460006E20545753525B434845434B3A20424900
:1014700054312D3E30203D2030305D3A2000566101
:101480006C756520696E20545742525B4348454352
:101490004B3A2037325D3A20004D6F746F72204412
:1014A000726976657220496E7075743A20005365D2
:1014B00072766F2044726976657220496E70757419
:1014C0003A20005348696674204472697665722038
:1014D000496E7075743A20004E6F207368617265B2
:1014E000642064617461206974656D7320746F2079
:1014F0007072696E74002D2D2D2D2020202020204B
:101500002020202020202D2D2D2D202020202D2D8D
:101510002D2D2D2D2D2D2D2D0053686172652F51F0
:101520007565756520202020205479706520202065
:1015300020467265652F546F74616C004552524F9E
:1015400052206372656174696E67207461736B20E9
:1015500022005461736B2022002220637265617443
:1015600065642C20737461636B2061742030780093
:1015700049444C45090930092D09002F0009092D5E
:10158000002D2D2D2D09092D2D2D2D092D2D2D2D24
:101590002D00092D2D2D2D2D2D2D2D2D2D00092D1D
:1015A0002D2D2D004E616D6509095072692E09536C
:1015B000746174650009467265652F546F74616CBF
:1015C000000952756E73005461736B09092020097C
:1015D000200009537461636B00090009002F0009A2
:1015E0000009000011241FBECFEFD1E2DEBFCDBF46
:1015F00014E0A0E0B2E0ECE4F9E800E00BBF02C0C8
:1016000007900D92A23DB107D9F71CE1A2EDB4E01D
:1016100001C01D92AE39B107E1F70E94D93F0C9489
:10162000A4440C9400000F931F93CF93DF93EC011D
:1016300066E08E819F810E9434346BE08E819F81B1
:101640000E9434348C016DEB7FE00E94EF3366E042
:10165000C8010E9434346BE08E819F810E94343433
:101660008C016BE77FE00E94EF3366E0C8010E94C7
:1016700034346BE08E819F810E9434348C0163E5A9
:101680007FE00E94EF3366E0C8010E9434346BE0D3
:101690008E819F810E9434348C016BE27FE00E9436
:1016A000EF3366E0C8010E9434346BE08E819F8185
:1016B0000E9434348C0163E07FE00E94EF3366E0E7
:1016C000C8010E9434346BE08E819F810E943434C3
:1016D0008C016BED7EE00E94EF3366E0C8010E9452
:1016E00034346BE08E819F810E9434348C0163EB33
:1016F0007EE00E94EF3366E0C8010E94343481E04E
:1017000089A7DF91CF911F910F9108952F923F925A
:101710004F925F926F927F928F929F92AF92BF9201
:10172000CF92DF92EF92FF920F931F93CF93DF93AD
:10173000EC018E8D8823C1F0813009F49BC1823089
:1017400009F4AAC1833009F4A2C178E3A72E73E09B
:10175000B72E8A8D9B8D97FD95C1892B49F04FE25D
:10176000E42E43E0F42E08C06AE1A62E63E0B62E14
:1017700053E2E52E53E0F52E66E08E819F810E94B4
:101780003434CA8CDB8C6BE08E819F810E943434B0
:101790008C0166E37EE00E94EF3366E0C8010E94A0
:1017A00034346BE00E9434348C016DE57EE00E949D
:1017B000EF3366E0C8010E9434346BE00E94343499
:1017C0008C016DE77EE00E94EF3366E0C8010E9465
:1017D00034346BE00E9434348C0164EA7EE00E9471
:1017E000EF33B501C8010E94EF336BE0C8010E94DE
:1017F00034348C016EEA7EE00E94EF33B601C801FA
:101800000E9479346BE00E9434348C0160EB7EE0FE
:101810000E94EF33B701C8010E94EF3366E0C801B0
:101820000E94343466E00E9434342FA038A44DA0C6
:101830005EA00FB6F8940F92E091D804F091D9040D
:10184000008511850F900FBE0FB6F8940F92E091AE
:10185000E004F091E104C084D184E284F3840F9029
:101860000FBE0FB6F8940F92E091E404F091E504F6
:10187000A084B1840F900FBE0FB6F8940F92E09140
:10188000E604F091E704808491840F900FBE66E037
:101890008E819F810E9434346BE00E9434343C017D
:1018A0006CE17DE00E94EF3366E0C3010E943434B6
:1018B0006BE00E9434343C016DE27DE00E94EF3326
:1018C00066E0C3010E9434346BE00E9434343C0172
:1018D00064E57DE00E94EF3366E0C3010E9434348A
:1018E0006BE00E9434343C0169E77DE00E94EF33F5
:1018F00066E0C3010E9434346BE00E9434343C0142
:1019000060EA7DE00E94EF33B401C3010E947934A4
:101910006BE00E9434344C016AEA7DE00E94EF33B0
:101920006BE0C4010E9434344C016CEA7DE00E94FB
:10193000EF33B501C4010E9479346BE00E94343466
:101940005C016EEA7DE00E94EF336BE0C5010E940E
:1019500034345C0160EB7DE00E94EF33B701A601F7
:10196000C5010E94A8346BE00E9434347C0162EB14
:101970007DE00E94EF3366E0C7010E9434346BE0E3
:101980000E9434347C0164EB7DE00E94EF3366E01A
:10199000C7010E9434346BE00E9434347C016BED4B
:1019A0007DE00E94EF3366E0C7010E9434346BE0B3
:1019B0000E9434347C016BEF7DE00E94EF3366E0DF
:1019C000C7010E9434346BE00E9434347C0162E22F
:1019D0007EE00E94EF33B801C7010E9479346BE0CA
:1019E0000E9434348C016CE27EE00E94EF336BE0A5
:1019F000C8010E9434348C016EE27EE00E94EF3315
:101A0000B201C8010E9479346BE00E9434348C0129
:101A100060E37EE00E94EF336BE0C8010E94343443
:101A20008C0162E37EE00E94EF33B101C8010E94A5
:101A300079346BE00E9434348C0164E37EE00E94D0
:101A4000EF3366E0C8010E94343481E089A7DF915A
:101A5000CF911F910F91FF90EF90DF90CF90BF90AB
:101A6000AF909F908F907F906F905F904F903F903E
:101A70002F90089521E5A22E23E0B22E8A8D9B8D12
:101A800097FF6BCE37E2E32E33E0F32E75CE8FE374
:101A9000A82E83E0B82E5DCE98E4A92E93E0B92E4F
:101AA00058CE0F931F93CF93DF93EC0189A581113B
:101AB000AFC06BE08E819F810E9434348C0167EC53
:101AC00070E10E94EF336BE0C8010E9434348C0156
:101AD0006DEC70E10E94EF3366E0C8010E9434347F
:101AE0006BE00E9434348C0163ED70E10E94EF33AF
:101AF00066E0C8010E94343466E00E9434346BE032
:101B00000E9434348C016FEE70E10E94EF336BE081
:101B1000C8010E9434348C0167EF70E10E94EF33FA
:101B200066E0C8010E9434346BE00E9434348C01BA
:101B300063E071E10E94EF336BE0C8010E9434342E
:101B40008C0169E071E10E94EF3366E0C8010E94F8
:101B500034346BE00E9434348C0164E371E10E9400
:101B6000EF3366E0C8010E9434346BE00E943434E5
:101B70008C0166E771E10E94EF336BE0C8010E94BF
:101B800034348C0163EA71E10E94EF3366E0C801EE
:101B90000E9434346BE00E9434348C0169EA71E1B4
:101BA0000E94EF3366E0C8010E9434346BE00E946B
:101BB00034348C0166ED71E10E94EF3366E0C801B8
:101BC0000E9434346BE00E9434348C0163E072E193
:101BD0000E94EF3366E0C8010E9434346BE00E943B
:101BE00034348C0160E372E10E94EF3366E0C80197
:101BF0000E9434346BE00E9434348C016DE572E154
:101C00000E94EF3366E0C8010E94343481E089A766
:101C1000DF91CF911F910F9108950F931F93CF9351
:101C2000DF93EC0189A5811146C066E08E819F811A
:101C30000E94343466E00E9434346BE00E943434F5
:101C40008C0165EE7FE00E94EF3366E0C8010E94E0
:101C500034346BE00E9434348C016DE070E10E94FA
:101C6000EF3366E0C8010E9434346BE00E943434E4
:101C70008C016FE470E10E94EF3366E0C8010E94BE
:101C800034346BE00E9434348C0167E770E10E94C9
:101C9000EF3366E0C8010E9434346BE00E943434B4
:101CA0008C016FE970E10E94EF3366E0C8010E9489
:101CB000343481E089A7DF91CF911F910F9108956E
:101CC000FC0121A5211108950C94130BFC0121A501
:101CD000211102C00C94860B08950F931F93CF938C
:101CE000DF93EC0166E08E819F810E9434346BE0CB
:101CF0000E9434348C016AEF7CE00E94EF336BE089
:101D0000C8010E9434348C0166E17DE00E94EF330B
:101D100066E0C8010E9434346BE08E819F810E948E
:101D200034348C0169ED7CE00E94EF3366E0C80139
:101D30000E9434346BE08E819F810E9434348C0188
:101D400062EB7CE00E94EF3366E0C8010E9434340D
:101D50006BE08E819F810E9434348C0164E97CE0C9
:101D60000E94EF3366E0C8010E9434346BE08E813C
:101D70009F810E9434348C0165E77CE00E94EF3340
:101D800066E0C8010E9434346BE08E819F810E941E
:101D900034348C016EE57CE00E94EF3366E0C801CC
:101DA0000E9434346BE08E819F810E943434EC01B8
:101DB0006FE47CE00E94EF3366E0CE01DF91CF91CB
:101DC0001F910F910C943434CF93DF93EC018E81EB
:101DD0009F81DC01ED91FC910480F581E02D099556
:101DE000811104C080E0DF91CF9108958E819F81A1
:101DF000DC01ED91FC910680F781E02D09958A8B3D
:101E000081E0DF91CF910895CF92DF92FF920F93FF
:101E10001F93CF93DF931F92CDB7DEB76C01DC0128
:101E200054961C921E925397F12CF601868197814D
:101E3000DC01ED91FC910480F581E02D099588236A
:101E400009F440C0F60186819781DC01ED91FC9197
:101E50000680F781E02D0995282FF601828B80ED11
:101E6000820F8A3008F458C02D3209F478C0213727
:101E700009F498C02A3009F47FC02D3009F484C0D9
:101E80002B3109F481C06BE0F601868197812983AB
:101E90000E9434348C016CE37CE00E94EF33D80163
:101EA000ED91FC910280F381E02D2981622FC80120
:101EB00009956BE0C8010E9434346CE47CE00E9418
:101EC000EF33B3CF8091E8049091E904DC01ED9108
:101ED000FC910480F581E02D0995882309F4A5CFB4
:101EE000D6011696ED91FC9117970190F081E02DA7
:101EF000028113818091E8049091E904DC01ED9165
:101F0000FC910680F781E02D0995682FF601868106
:101F10009781F801099589CF86819781DC01ED9140
:101F2000FC910280F381E02D622F0995F60123894F
:101F30003489C901880F991F220F331F220F331FC5
:101F4000220F331F820F931F2289332727FD3095DD
:101F500020533109820F931F948B838B66CF868128
:101F60009781DC01ED91FC910280F381E02D6DE21F
:101F70000995FF24F39459CF6AE573E0F601868151
:101F800097810E94EF3351CFFF2061F0D601539625
:101F90008D919C91549791958195910954969C931C
:101FA0008E9353970F90DF91CF911F910F91FF90D8
:101FB000DF90CF9008958F929F92AF92BF92CF9271
:101FC000DF92EF92FF920F931F93CF93DF9300D096
:101FD00000D000D0CDB7DEB78C0119821A821B82E7
:101FE0001C821E821D82C0902801D09029010E946F
:101FF000BE285C01CE0101960E948A334C0166E046
:10200000F801868197810E9434346BE00E94343459
:102010007C0163EF7BE00E94EF336BE0C7010E941D
:1020200034347C016FE07CE00E94EF3366E0C7014E
:102030000E9434346BE00E9434347C016BE17CE01C
:102040000E94EF33B401C7010E9429336BE00E9464
:1020500034347C0169E27CE00E94EF33B501C701B2
:102060000E94DA347C016CE573E00E94EF3348E3B0
:1020700057E160E070E0C7010E9414356BE00E94F8
:1020800034347C0162E37CE00E94EF33B601C70187
:102090000E94DA3466E00E94343466E00E943434F0
:1020A000F801868197810E94DB3166E0F801868124
:1020B00097810E943434F801868197810E94FE2F17
:1020C00026960FB6F894DEBF0FBECDBFDF91CF913D
:1020D0001F910F91FF90EF90DF90CF90BF90AF9046
:1020E0009F908F9008950FB6F8940F92E091E204BC
:1020F000F091E30420870F900FBE0FB6F8940F9273
:10210000E091E604F091E704518740870F900FBEFD
:10211000FC01268F538F428F08956150710981E031
:102120006230710508F080E00895FC0111A6089561
:10213000AF92BF92CF92DF92EF92FF920F931F93D5
:10214000CF93DF93EC0189A5811185C06BE08E816F
:102150009F810E9434348C0164EC7BE00E94EF3359
:1021600066E0C8010E9434346BE08E819F810E943A
:1021700034348C016AE77BE00E94EF3366E0C801EB
:102180000E9434346BE08E819F810E9434348C0134
:102190006BE47BE00E94EF3366E0C8010E943434B8
:1021A0006BE08E819F810E9434348C016CE17BE076
:1021B0000E94EF3366E0C8010E9434340FB6F894F1
:1021C0000F92E091DE04F091DF04A084B1840F90BF
:1021D0000FBE0FB6F8940F92E091E004F091E10485
:1021E000C084D184E284F3840F900FBE6BE08E81B3
:1021F0009F810E9434348C016EED7AE00E94EF33AF
:10220000B701A601C8010E94A83466E00E943434D8
:102210006BE00E9434348C016EEE7AE00E94EF3362
:10222000B501C8010E94793466E00E94343466E04A
:102230000E9434346BE00E9434348C0161E07BE016
:102240000E94EF3366E0C8010E94343466E00E94C9
:10225000343481E089A7DF91CF911F910F91FF90D6
:10226000EF90DF90CF90BF90AF900895CF92DF9224
:10227000EF92FF920F931F93CF93DF93EC0189A509
:1022800081116BC06BE08E819F810E9434348C0180
:102290006FEA7AE00E94EF3366E0C8010E943434AE
:1022A0006BE08E819F810E9434348C0165E67AE078
:1022B0000E94EF3366E0C8010E9434346BE08E81E7
:1022C0009F810E9434348C0166E37AE00E94EF33F0
:1022D00066E0C8010E9434346BE08E819F810E94C9
:1022E00034348C0167E07AE00E94EF3366E0C80185
:1022F0000E9434340FB6F8940F92E091E004F0910C
:10230000E104C084D184E284F3840F900FBE6BE0BB
:102310008E819F810E9434348C0161EE79E00E94AD
:10232000EF33B701A601C8010E94A83466E00E94FD
:10233000343466E00E9434346BE00E9434348C0103
:102340006CEE79E00E94EF3366E0C8010E943434FD
:1023500066E00E94343481E089A7DF91CF911F911C
:102360000F91FF90EF90DF90CF9008950F931F9300
:10237000CF93DF93EC0189A5882329F0DF91CF91DA
:102380001F910F9108956BE08E819F810E943434DC
:102390008C0162EB79E00E94EF3366E0C8010E9495
:1023A00034346BE08E819F810E9434348C0168E666
:1023B00079E00E94EF3366E0C8010E9434346BE09C
:1023C0008E819F810E9434348C0169E379E00E9400
:1023D000EF3366E0C8010E9434346BE08E819F8148
:1023E0000E9434348C016AE079E00E94EF3366E0A9
:1023F000C8010E94343466E00E94343489A58823E1
:1024000039F081E089A7DF91CF911F910F91089555
:10241000CE010E94860BF5CFCF93DF93CDB7DEB709
:1024200027970FB6F894DEBF0FBECDBF8C0119827F
:102430001A821B821C821E821D82DC0154961C9211
:102440001E925397BB24B394F801848590E08730A3
:102450009105D8F06BE0F801868197810E943434B1
:102460008C0161E171E00E94EF3366E0C8010E94D7
:1024700034342BE088E190E00FB6F894A89580936F
:1024800060000FBE20936000FFCFFC01EA59FF4FB0
:102490000C94E942F80185898111F7C481A5811165
:1024A00003C0C8010E94130BC8010E94E40E8823D8
:1024B00009F4B9C0F80122892F3611F40C941B1BC2
:1024C00014F40C94A81A213711F40C94BA1B0CF4D0
:1024D000CDC6233709F03BC76BE0868197810E9408
:1024E00034347C016DEB75E00E94EF33D701ED9140
:1024F000FC910280F381E02D63E7C701099566E056
:10250000C7010E94343466E0F801868197810E94F9
:1025100034346BE00E9434347C0165E775E00E943E
:10252000EF3366E0C7010E9434346BE00E9434341C
:102530007C016AE975E00E94EF3366E0C7010E9402
:102540003434C8010E94040FD80153968D919C9198
:1025500054970FB6F8940F92E091E204F091E304DF
:10256000B0860F900FBE0FB6F8940F92E091E6047C
:10257000F091E704918780870F900FBEF801B68E27
:10258000938F828FC388D48866E0868197810E946A
:10259000343466E00E9434346BE00E9434347C01B1
:1025A00063E675E00E94EF33B601C7010E947934FB
:1025B0006BE00E9434347C0162E775E00E94EF33E7
:1025C00066E0C7010E943434D80199961C92C80174
:1025D0000E94860BF801D0A066E0868197810E9458
:1025E00034346BE00E9434347C016DE275E00E946B
:1025F000EF336D2DC7010E945C356BE00E943434CF
:102600007C016DE375E00E94EF336BE0C7010E942F
:1026100034347C016AE475E0C7010E94EF3366E060
:10262000C7010E943434D8011E964D915D916D9181
:102630007C9151974F5F5F4F6F4F7F4FF8014687F7
:102640005787608B718B65E070E080E090E00E94BE
:10265000F42CFACED80158968C91882321F3C80126
:102660000E94B611C8010E94E40E882309F450C0EC
:10267000F8018289823709F4A1C4833709F42BC495
:10268000813709F045C06BE0868197810E94343420
:102690007C016AE871E00E94EF336BE0C7010E94A1
:1026A00034347C016FE871E00E94EF33D701ED9183
:1026B000FC910280F381E02D61E7C701099566E096
:1026C000C7010E94343466E00E94343466E00E9400
:1026D00034346BE00E9434347C016CE971E00E9478
:1026E000EF3366E0C7010E9434346BE00E9434345B
:1026F0007C016FEB71E00E94EF3366E0C7010E943E
:10270000343460E0C8010E94F930F801108E11A63F
:102710000FB6F8940F920F900FBE0FB6F8940F9269
:10272000E091E604F091E704A091D404B091D504BF
:1027300018968D919C9119978E509240880F991FF1
:10274000918780870F900FBE0FB6F8940F92E0919B
:10275000E204F091E304B0860F900FBE0FB6F89438
:102760000F920F900FBEE091DE04F091DF046085C0
:102770007185D80116968D919C9117970E94793496
:1027800066E00E9434344FCFD80156968C9188234E
:1027900009F449CFC8010E943611C8010E94E40E15
:1027A000882309F440CFF8018289813709F411C6E2
:1027B000823709F038CF6BE0868197810E943434EC
:1027C0007C016FEF71E00E94EF3366E0C7010E9469
:1027D0003434C8010E94040FF801D38866E0868172
:1027E00097810E9434346BE00E9434347C016DEE9A
:1027F00071E00E94EF3366E0C7010E943434C801E3
:102800000E94040FD80153964C9153976D2D9A96C0
:102810008D919C919B970E94052366E0F80186812B
:1028200097810E94343466E00E9434346BE00E9449
:1028300034347C0169ED71E00E94EF3363E0C7013D
:102840000E9434346D2D0E945C356BE00E9434345C
:102850007C016AEE71E0E0CED80157968C91882316
:1028600009F4E1CEC8010E949810C8010E94E40E4C
:10287000882309F4D8CEF8018289813709F4EFC59D
:10288000823709F4D0CE0FB6F8940F92E091E004AD
:10289000F091E104C084D184E284F3840F900FBEF0
:1028A0006BE0D80116968D919C9117970E94343455
:1028B0004C0163E772E00E94EF3369E0C4010E94BB
:1028C0005C356BE00E9434344C0166E772E00E9494
:1028D000EF3360E1C4010E945C356BE00E94343448
:1028E0004C0168E772E00E94EF336BE0C4010E9484
:1028F00034344C016AE772E00E94EF3360E0C401B7
:102900000E945C356BE00E9434344C016DE772E04C
:102910000E94EF336BE0C4010E9434344C016FE736
:1029200072E00E94EF3369E0C4010E945C356BE005
:102930000E9434344C0162E872E00E94EF3360E19F
:10294000C4010E945C356BE00E9434344C0164E8A1
:1029500072E00E94EF33B701A601C4010E94A834BF
:102960000FB6F8940F92E091DE04F091DF04C0847A
:10297000D1840F900FBE6BE0F801868197810E9491
:1029800034347C0160E672E00E94EF336AE0C701F4
:102990000E945C356BE00E9434347C0163E672E097
:1029A0000E94EF3363E1C7010E945C356BE00E9437
:1029B00034347C0165E672E00E94EF336BE0C701BE
:1029C0000E9434347C0167E672E00E94EF3360E0DD
:1029D000C7010E945C356BE00E9434347C016AE6DA
:1029E00072E00E94EF336BE0C7010E9434347C0137
:1029F0006CE672E00E94EF336AE0C7010E945C352A
:102A00006BE00E9434347C016FE672E00E94EF3389
:102A100063E1C7010E945C356BE00E9434347C01A5
:102A200061E772E00E94EF33B601C7010E9479347A
:102A3000FACDC8010E94E40E882309F45EC0D801D3
:102A400052968C915297813709F447C3823709F027
:102A500054C066E0D80116968D919C9117970E94FC
:102A600034346BE00E9434347C0169E373E00E94EB
:102A7000EF33D701ED91FC910280F381E02D62E705
:102A8000C701099566E0C7010E943434F80111A618
:102A9000C8010E94860BD8019096DC90909766E062
:102AA00016968D919C9117970E94343466E00E948F
:102AB00034346BE00E9434347C0164EE72E00E9496
:102AC000EF336D2DC7010E945C356BE00E943434FA
:102AD0007C0169E073E00E94EF3366E0C7010E9469
:102AE00034346BE00E9434347C0162E173E00E9474
:102AF000EF3366E0C7010E9434340FB6F8940F92AA
:102B0000E091E404F091E504808591850F900FBE7B
:102B10000FB6F8940F92E091E204F091E30423E001
:102B200020870F900FBE0FB6F8940F92E091E60445
:102B3000F091E704918780870F900FBEF801268FF0
:102B4000938F828F81A581116ECDC8010E94860B63
:102B50006ACDC8010E94510DC8010E94E40E88236D
:102B600009F461CDD80152962C91283609F40CC194
:102B70000CF48CC02E3609F454C00CF063C3293613
:102B800009F4EDC22D3609F0CBC26BE0F801868165
:102B900097810E9434347C016FE478E00E94EF3327
:102BA000D701ED91FC910280F381E02D6DE6C70124
:102BB000099566E0F801868197810E94343466E0C9
:102BC0000E9434346BE00E9434347C0166EF77E07D
:102BD0000E94EF3366E0C7010E9434346BE00E942C
:102BE00034347C0165E178E00E94EF3366E0C70190
:102BF0000E9434346BE00E9434347C0167E378E057
:102C00000E94EF3366E0C7010E943434D8019996E0
:102C10001C9299975596BC9261E0C8010E94F930C8
:102C200002CD6BE0F801868197810E9434347C01EB
:102C30006DEA76E00E94EF3366E0C7010E9434340B
:102C4000C8010E94040FD8015396CD90DC90549790
:102C500066E016968D919C9117970E94343466E039
:102C60000E9434346BE00E9434347C016CE976E0DD
:102C70000E94EF33B601C7010E94793466E00E94DA
:102C80003434F8018289813761F6CDCC2F3309F4D1
:102C90007BC00CF4DAC0243609F47AC0253609F07A
:102CA0003FC26BE0F801868197810E9434347C0139
:102CB00069EE77E00E94EF33D701ED91FC9102803D
:102CC000F381E02D65E6C70109956BE0F801868187
:102CD00097810E9434347C0161E877E00E94EF33F1
:102CE0006BE0C7010E9434347C0166E877E00E9403
:102CF000EF3361E0C7010E945C356BE00E94343421
:102D00007C0169E877E00E94EF3361E0C7010E942F
:102D10005C356BE00E9434347C016BE877E00E9404
:102D2000EF336BE0C7010E9434347C016DE877E03B
:102D30000E94EF3366E0C7010E9434346BE00E94CA
:102D400034347C016EEA77E00E94EF3366E0C7011D
:102D50000E9434346BE00E9434347C0160ED77E0F3
:102D60000E94EF3366E0C7010E94343466E00E949F
:102D70003434D80199961C9299975796BC9263E087
:102D8000C8010E94F9304FCCC8010E946D0E4BCC97
:102D90006BE0D80116968D919C9117970E94343460
:102DA0007C0167E077E00E94EF33D701ED91FC9161
:102DB0000280F381E02D64E6C70109956BE0F8011C
:102DC000868197810E9434347C016EED76E00E940A
:102DD000EF336BE0C7010E9434347C0163EE76E090
:102DE0000E94EF3361E0C7010E945C356BE00E94F6
:102DF00034347C0166EE76E00E94EF3361E0C70177
:102E00000E945C356BE00E9434347C0168EE76E011
:102E10000E94EF336BE0C7010E9434347C016AEEFC
:102E200076E00E94EF3366E0C7010E94343466E02A
:102E30000E94343465E0C8010E94F930D8015896E8
:102E4000BC92589799961C92EECB233009F068C13A
:102E50006BE0D80116968D919C9117970E9434349F
:102E60008C016EE876E00E94EF3366E0C8010E94B4
:102E700034342BE088E190E00FB6F894A895809365
:102E800060000FBE20936000FFCFC8010E940D0EAE
:102E9000C8010E94040FD80152968C915297813735
:102EA00009F4CEC0F801C388D488C60101970297FF
:102EB00008F48DC06BE0868197810E9434347C01D8
:102EC0006AEC75E00E94EF3366E0C7010E9434347B
:102ED000F801B58AA8CB66E0868197810E943434D8
:102EE0006BE00E9434347C016CE671E00E94EF33A9
:102EF00066E0C7010E943434C8010E94040FF80143
:102F0000838994890FB6F8940F92E091E204F091CE
:102F1000E304B0860F900FBE0FB6F8940F92E091C5
:102F2000E604F091E704918780870F900FBED801E7
:102F30005E96BC925E975B969C938E935A9753963F
:102F4000CD90DC90549766E016968D919C911797E2
:102F50000E94343466E00E9434346BE00E943434C2
:102F60007C0164E471E00E94EF33B601C7010E9466
:102F700079346BE00E9434347C0163E571E00E9497
:102F8000EF3366E0C7010E94343466E00E943434B7
:102F90006BE00E9434347C0166E571E0C7010E9459
:102FA000EF3366E0C7010E94343466E00E94343497
:102FB000F80111A6C8010E94860BAACB6BE086819E
:102FC00097810E9434347C016EE271E0E7CF66E0C5
:102FD000868197810E94343466E00E9434346BE02D
:102FE0000E9434347C0166ED75E00E94EF33B60137
:102FF000C7010E94793462E00E9434346BE00E9481
:1030000034347C0168EF75E00E94EF3366E0C7015D
:103010000E9434346BE00E9434347C016AEF75E026
:103020000E94EF3366E0C7010E943434F8018389BF
:1030300080A311A6158A61E0C8010E94F930F3CA85
:103040006BE016968D919C9117970E9434347C0109
:103050006DE276E00E94EF33D701ED91FC910280A2
:10306000F381E02D61E7C701099566E0C7010E9481
:10307000343466E00E94343466E00E9434346BE0FD
:103080000E9434347C016AE376E00E94EF3366E00C
:10309000C7010E9434346BE00E9434347C016DE53A
:1030A00076E00E94EF3366E0C7010E9434346BE0A3
:1030B0000E9434347C0163E776E00E94EF3366E0DF
:1030C000C7010E943434F801158A60E0C8010E94EB
:1030D000F930D80199961C92A6CA66E016968D9191
:1030E0009C9117970E9434346BE00E9434347C0129
:1030F00066E473E00E94EF33D701ED91FC9102800A
:10310000F381E02D61E7C701099566E0C7010E94E0
:10311000343461E0C8010E94F930F80111A683CA75
:10312000F801E680F780D701ED91FC910280F381F0
:10313000E02D62E2C7012F830995D701ED91FC9143
:103140000280F381E02D2F81622FC70109956BE08A
:10315000C7010E9434347C0166E876E05DCA6BE00A
:10316000F801868197810E9434347C0164E777E01E
:103170000E94EF33D701ED91FC910280F381E02DA5
:1031800069E6C70109956BE0F801868197810E9485
:1031900034347C0164E177E00E94EF336BE0C701D7
:1031A0000E9434347C0169E177E00E94EF3361E0F2
:1031B000C7010E945C356BE00E9434347C016CE1F5
:1031C00077E00E94EF3361E0C7010E945C356BE05D
:1031D0000E9434347C016EE177E00E94EF336BE0B3
:1031E000C7010E9434347C0160E277E00E94EF3333
:1031F00066E0C7010E9434346BE00E9434347C01E5
:103200006DE377E00E94EF3366E0C7010E9434343B
:103210006BE00E9434347C016FE577E00E94EF336D
:1032200066E0C7010E94343466E00E943434D8015D
:1032300099961C9299975696BC9264E0C8010E9498
:10324000F930F1C9233709F4C2C2243709F068CF35
:10325000CE0101960E948A33BC01F80186819781D4
:103260000E94293366E00E943434DDC966E086811D
:1032700097810E9434346BE00E9434347C016BE20D
:1032800074E00E94EF33D701ED91FC910280F3814D
:10329000E02D60E7C701099566E0C7010E9434345C
:1032A0006BE00E9434347C0168E374E00E94EF33E9
:1032B00066E0C7010E9434346BE0F8018681978193
:1032C0000E9434347C016FE074E00E94EF3366E0CA
:1032D000C7010E94343466E00E943434D8019096CD
:1032E000DC90909766E016968D919C9117970E94BE
:1032F000343466E00E9434346BE00E9434347C0144
:103300006AEB73E00E94EF336D2DC7010E945C35BC
:103310006BE00E9434347C016FED73E00E94EF3368
:1033200066E0C7010E9434346BE00E9434347C01B3
:1033300068EE73E00E94EF3366E0C7010E94343408
:1033400062E0C8010E94F930F80111A66CC966E07C
:10335000D80116968D919C9117972F830E94343433
:103360006BE00E9434347C0160E773E00E94EF332D
:10337000D701ED91FC910280F381E02D2F81622F26
:10338000C70109956BE0C7010E9434347C0162E7F4
:1033900073E00E94EF3366E0C7010E943434F80105
:1033A000D0A066E0868197810E9434346BE00E9451
:1033B00034347C0163E573E00E94EF336D2DC70167
:1033C0000E945C356BE00E9434347C0163E673E05C
:1033D00023C96BE0868197810E9434347C0168E1C7
:1033E00072E00E94EF336BE0C7010E9434347C012D
:1033F0006DE172E00E94EF33D701ED91FC91028004
:10340000F381E02D61E7C701099566E0C7010E94DD
:10341000343466E00E94343466E00E9434346BE059
:103420000E9434347C016AE272E00E94EF3366E06D
:10343000C7010E9434346BE00E9434347C016DE497
:1034400072E00E94EF3366E0C7010E94343460E00E
:10345000C8010E94F930F801168A11A6E4C86BE091
:10346000868197810E9434347C0162E972E00E9477
:10347000EF336BE0C7010E9434347C0167E972E0EE
:103480000E94EF336BE0C7010E9434347C016DE988
:1034900072E00E94EF33D701ED91FC910280F3813D
:1034A000E02D61E7C701099566E0C7010E94343449
:1034B00066E00E94343466E00E9434346BE00E947F
:1034C00034347C016AEA72E00E94EF3366E0C7019F
:1034D0000E9434346BE00E9434347C016DEC72E065
:1034E0000E94EF3366E0C7010E94343460E0C801F7
:1034F0000E94F930F801B58A178A11A66BE086811F
:1035000097810E9434347C0166E872E00E94EF33B8
:103510006BE0C7010E9434347C016BE872E00E94CA
:10352000EF3361E0C7010E945C356BE00E943434E8
:103530007C016EE872E00E94EF3361E0C7010E94F7
:103540005C356BE00E9434347C0160E972E064C851
:10355000223609F476C0263609F0F9CE6BE0868172
:1035600097810E9434347C0169EA74E00E94EF3351
:10357000D701ED91FC910280F381E02D66E6C70151
:10358000099566E0C7010E9434346BE0F80186813A
:1035900097810E9434347C0164E974E00E94EF3327
:1035A00066E0C7010E9434340FB6F8940F92E091A0
:1035B000E204F091E30482E080870F900FBE0FB623
:1035C000F8940F92E091E604F091E70411861086DA
:1035D0000F900FBED8015E968C935E975B961C92FF
:1035E0001E925A9799961C92C8010E94860BF80168
:1035F000D0A066E0868197810E9434346BE00E94FF
:1036000034347C016EE574E00E94EF336D2DC70108
:103610000E945C356BE00E9434347C016EE674E0FD
:103620000E94EF336BE0C7010E9434347C016BE7EA
:1036300074E00C940C1311A6C8010E94130B0C9497
:1036400013136BE0868197810E9434347C0160E221
:1036500075E00E94EF33D701ED91FC910280F38178
:10366000E02D62E6C701099566E0C7010E94343487
:103670006BE0F801868197810E9434347C016EEF03
:1036800074E00E94EF3366E0C7010E943434C80141
:103690000E94040FD8015396CD90DC90549766E0B9
:1036A00016968D919C9117970E94343466E00E9483
:1036B00034346BE00E9434347C016CEE74E00E9480
:1036C000EF33B601C7010E9479346BE00E943434B5
:1036D0007C016BEF74E00E94EF3366E0C7010E944B
:1036E0003434F801838994890FB6F8940F92E091ED
:1036F000E204F091E30410860F900FBE0FB6F89429
:103700000F92E091E604F091E704918780870F9093
:103710000FBED8015E961C925E975B969C938E932B
:103720005A9799961C92C8010E94860BF801D0A066
:1037300066E0868197810E9434346BE00E943434C5
:103740007C0166EB74E00E94EF336D2DC7010E948F
:103750005C356BE00E9434347C0166EC74E00E94BE
:10376000EF336BE0C7010E9434347C0163ED74E0F9
:103770000C940C136BE0F801868197810E9434341D
:103780007C016AE873E00E94EF33D701ED91FC9170
:103790000280F381E02D61E7C701099566E0C7016A
:1037A0000E9434346BE00E9434347C0167E973E09A
:1037B0000E94EF3366E0C7010E94343461E0C80123
:1037C0000E94F930F80111A6B58A0C941313C801B0
:1037D0000E94DB0F0C9413130F931F93CF93DF936F
:1037E000EC0189A581112CC06BE08E819F810E9424
:1037F00034348C016BED78E00E94EF3366E0C80151
:103800000E9434346BE08E819F810E9434348C019D
:1038100061E978E00E94EF3366E0C8010E94343429
:103820006BE08E819F810E9434348C0162E678E0E7
:103830000E94EF3366E0C8010E94343481E089A71A
:10384000DF91CF911F910F910895EF92FF920F9307
:103850001F93CF93DF93EC010E94433082E693E005
:103860009983888319A61F8A1E8A188E198E1D8A2D
:1038700082E08E8F1B8E1A8E6BE08E819F810E945C
:1038800034346CE578E00E94EF33FBA6EAA682E0D0
:1038900090E00E94A2338C016E817F810E94DA1F2A
:1038A0001AA309A382E090E00E94A2338C016E81EA
:1038B0007F810E94DA1F1CA30BA3DF91CF911F9180
:1038C0000F91FF90EF900895CF93DF9300D000D039
:1038D000CDB7DEB78C010E94ED2A69837A838B8392
:1038E0009C8380918000836A809380008091810016
:1038F0008A60809381001BC0823009F448C0833005
:1039000009F44BC0F80146855785608971894F5F7E
:103910005F4F6F4F7F4F46875787608B718B4AE0B1
:1039200050E060E070E0CE0101960E948D2C0FB651
:10393000F8940F92E091E204F091E30480850F90F7
:103940000FBE813099F08111D7CF0FB6F8940F9246
:103950000F900FBEE091E404F091E504608571855D
:10396000F801838994890E946125CCCF0FB6F89421
:103970000F920F900FBEE091E404F091E504608592
:103980007185F801838994890E94E624BBCFF801F0
:10399000838994890E94B525B5CF60E0F8018589B7
:1039A00096890E94FB1F880F991F7C01FFEFEF1A79
:1039B000F3E0FF0AB701F801838994890E94E624A5
:1039C0000FB6F8940F92E091E604F091E704F186C7
:1039D000E0860F900FBE96CFAF92CF92DF92EF921C
:1039E000FF920F931F93CF93DF93EC010E9443301C
:1039F0008AE693E099838883FC8AEB8ADE8ACD8A03
:103A0000AA8ADF91CF911F910F91FF90EF90DF90E5
:103A1000CF90AF900895CF93DF9300D000D0CDB773
:103A2000DEB78C010E94ED2A69837A838B839C83A5
:103A3000EE24EA948FE0F82E4FC0841795070CF01F
:103A400068C09701241B350B280F391FF801378BED
:103A5000268BE091E004F091E1040FB6F8940F9208
:103A60000F900FBE0FB6F8940F92C901AA2797FDC9
:103A7000A095BA2F4085518562857385480F591FDF
:103A80006A1F7B1F40875187628773870F900FBE25
:103A90000FB6F8940F92E091DE04F091DF043187C5
:103AA00020870F900FBEF80184899589938B828BB4
:103AB00046855785608971894F5F5F4F6F4F7F4F94
:103AC00046875787608B718B41E050E060E070E083
:103AD000CE0101960E948D2CF801848D958D0E9457
:103AE000C920F801958B848B428953899C01241B42
:103AF000350B37FD09C0B901653A764008F09DCF16
:103B0000F801378B268BA5CF66277727621B730BAF
:103B1000F3CF9C012F5F3F40241B350BF801378BFF
:103B2000268B97CFEF92FF920F931F93CF93DF9344
:103B3000EC010E94433082E793E099838883FD8EF5
:103B4000EC8E1B8A1A8A1F8A1E8A1D8A1C8ADF91A4
:103B5000CF911F910F91FF90EF90089577FD02C0D4
:103B6000CB01089588279927861B970B0895CF933B
:103B7000DF9300D000D0CDB7DEB78C010E94ED2AD4
:103B800069837A838B839C83BB24B3940FB6F894A8
:103B90000F920F900FBE0FB6F8940F92D801549663
:103BA000ED91FC915597C084D1840F900FBED80140
:103BB0005296ED91FC915397E084F184EC18FD0846
:103BC0005C966D917C915D9794968D919C91959763
:103BD0000E94972640E054E00E94A9264C01F8017B
:103BE000628D738DC7010E943026B4010E944D265C
:103BF000D8015B969C938E935A9758968D919C9181
:103C00005997B601681B790B5996DC92CE9258975A
:103C100092968D919C9193970E94972640E054E054
:103C20000E94A9266C01F801628D738D80A191A17B
:103C30000E94972640E054E00E94A926B6010E9407
:103C400030266C01B701D8015E968D919C915F97EB
:103C50000E94972640E054E00E94A926B6010E94E7
:103C60003026F801E0A4F1A4E816F9063CF026A1FC
:103C700037A17C01821793070CF47901B7010E94E8
:103C80004D26D8015D969C938E935C970FB6F89461
:103C90000F92E091E204F091E304B0860F900FBE22
:103CA0000FB6F8940F92D8015696ED91FC91579764
:103CB000F186E0860F900FBE41E050E060E070E0DA
:103CC000CE0101960E948D2C61CF6F927F928F92D0
:103CD0009F92AF92BF92CF92DF92EF92FF920F939B
:103CE0001F93CF93DF93CDB7DEB73C010E944330E3
:103CF0008AE793E0F30191838083F38AE28AD58A8D
:103D0000C48AB78AA68A978E868E89899A8991A352
:103D100080A38B899C8993A382A38D899E8995A377
:103D200084A38F89988D97A386A3898D9A8D91A757
:103D300080A7DF91CF911F910F91FF90EF90DF90BF
:103D4000CF90BF90AF909F908F907F906F9008958D
:103D5000CF93DF9300D000D0CDB7DEB78C010E94A7
:103D6000ED2A69837A838B839C8338C07B016B380F
:103D700087E0780724F09AE8E92E97E0F92EF80119
:103D8000828D813009F448C060E0F801838D948D04
:103D90000E94FB1F0FB6F8940F92E091D404F091AB
:103DA000D504918780870F900FBEB701F801808DF1
:103DB000918D0E9433270FB6F8940F92E091D804AA
:103DC000F091D904F186E0860F900FBE41E050E0FB
:103DD00060E070E0CE0101960E948D2C45E0F80174
:103DE000628D838D948D0E941820F801658D768DEB
:103DF000680F791F660F771F62597E4F6235F3E0B7
:103E00007F070CF0B3CF82E5E82E83E0F82EF801AF
:103E1000828D813009F0B8CF0FB6F8940F92E091FF
:103E2000D604F091D704F186E0860F900FBEACCF98
:103E3000EF92FF920F931F93CF93DF93EC01E62E47
:103E40001E8E1D8E4AE0F42E00E010E001C08C01B1
:103E50006E2D8B8D9C8D0E94FB1F800F911F9E8F5E
:103E60008D8FFA94A1F79C01ADECBCEC0E946342EB
:103E700096958795969587959695879500E012E09B
:103E8000081B190B1E8F0D8F6A8D8E819F810E94DA
:103E90005C356BE00E943434EC016AE872E10E9408
:103EA000EF33B801CE010E94DA3466E0DF91CF91A2
:103EB0001F910F91FF90EF900C943434CF92EF92BA
:103EC000FF920F931F93CF93DF93EC010E94433037
:103ED00082E893E099838883F98EE88ECA8E6C2DF0
:103EE00070E0CE01DF91CF911F910F91FF90EF9085
:103EF000CF900C94181FCF93DF9300D000D0CDB794
:103F0000DEB78C010E94ED2A69837A838B839C83C0
:103F10000FC064E175E0F801808D918D0E94332718
:103F200041E050E060E070E0CE0101960E948D2CEF
:103F30000FB6F8940F92E091D204F091D3048085EB
:103F40000F900FBE813079F00FB6F8940F920F905A
:103F50000FBE8823F1F26CEB72E0F801808D918D39
:103F60000E943327DDCF68E978E0F801808D918DDC
:103F70000E943327D5CFAF92BF92CF92EF92FF929C
:103F80000F931F93CF93DF93EC010E9443308AE895
:103F900093E099838883F98EE88ECA8EBE8EAD8EAB
:103FA000DF91CF911F910F91FF90EF90CF90BF9035
:103FB000AF900895CF93DF93FC01718360832091CC
:103FC0007C00206420937C0020917A00256C209353
:103FD0007A00C081D181209759F06EE873E0CE015C
:103FE0000E94EF3366E0CE01DF91CF910C94343420
:103FF000DF91CF910895683008F060E080917C00F7
:10400000887F80937C0080917C00862B80937C004D
:1040100080917A00806480937A0080917A0086FD96
:10402000FCCF809178002091790090E0922B089548
:10403000DF92EF92FF920F931F93CF93DF938C0148
:10404000D62EE42E80E48417E0F480E4E82EF12CF0
:10405000C0E0D0E06D2DC8010E94FB1FC80FD91F22
:10406000F394FE10F7CF6E2D70E0CE010E949442C3
:10407000CB01DF91CF911F910F91FF90EF90DF90D7
:1040800008954111E4CFC0E0D0E0EDCF0F931F932E
:10409000CF93DF93EC016BE00E9434348C0163E931
:1040A00072E10E94EF3366E0C8010E9434346BE095
:1040B0000E9434348C016EEA72E10E94EF3366E0B4
:1040C000C8010E943434CE01DF91CF911F910F912E
:1040D0000895CF92EF92FF920F93CF93DF93FC015D
:1040E0007183608353834283248335830683E7820D
:1040F000F086C186DA0111971C92A281B3811C92CD
:10410000A481B5816C9181E090E0AC01068002C091
:10411000440F551F0A94E2F7642B6C93A781B08576
:104120006C91AC01018402C0440F551F0A94E2F760
:10413000642B6C93D9014E919C01068002C0220F22
:10414000331F0A94E2F7422B4C93D7012E9101843E
:1041500002C0880F991F0A94E2F7282B2C93C08184
:10416000D181209779F062EC73E0CE010E94EF33A9
:1041700066E0CE01DF91CF910F91FF90EF90CF904D
:104180000C943434DF91CF910F91FF90EF90CF904A
:104190000895CF93DF93FC01A281B381C781D085BD
:1041A000488121E030E0C901018402C0880F991FD5
:1041B0000A94E2F7809584238883C481D58148815D
:1041C000C901068002C0880F991F0A94E2F7809502
:1041D0008423888312978C9190E0982F8827C78139
:1041E000D0856881A901018402C0440F551F0A943B
:1041F000E2F7642B68835C91A481B5814C910680C1
:1042000002C0220F331F0A94E2F7422B4C93852BF6
:10421000DF91CF910895BF92CF92DF92EF92FF92FC
:104220000F931F93CF93DF93EC01FB01FF24F394D3
:1042300082819381892B09F4F12CE184DD24D394CC
:1042400087819085892B09F4D12CB680CC24C39426
:1042500084819581892B09F4C12C6BE0CE010E94E9
:1042600034348C016DEB72E10E94EF3362E0C801DF
:104270000E94343466E00E9434346BE00E9434348F
:104280008C0161EE72E10E94EF336C2DC8010E9437
:10429000BF338C0168EE73E00E94EF336B2DC801D1
:1042A0000E945C3566E00E9434346BE00E94343436
:1042B0008C016AEE72E10E94EF3366E0C8010E9451
:1042C00034346BE00E9434348C0169EF72E10E9457
:1042D000EF336D2DC8010E94BF338C0168EE73E08F
:1042E0000E94EF336E2DC8010E945C3566E00E948B
:1042F00034346BE00E9434348C0163E073E10E943B
:10430000EF336F2DC8010E94BF3366E00E94343442
:10431000CE01DF91CF911F910F91FF90EF90DF9031
:10432000CF90BF900895FF920F931F93CF93DF9389
:10433000E4E6F0E020812F772083A9EBB0E02C9118
:104340002C7F2C9368EB70E028E4EB0128832CEBA6
:1043500030E0E90148814E7F4883EB0118810C91E0
:10436000F0806BE0FC01808191810E943434EC018B
:1043700062E274E10E94EF3366E0CE010E943434C1
:104380006BE00E943434EC0167E374E10E94EF3388
:1043900060E0CE010E9434346F2D0E945C3566E0EF
:1043A0000E9434346BE00E943434EC0169E574E11E
:1043B0000E94EF3360E0CE010E943434602F0E94EF
:1043C0005C3566E00E9434346BE00E943434EC01CA
:1043D0006EE774E10E94EF33612FCE010E945C35DD
:1043E00066E0DF91CF911F910F91FF900C943434D0
:1043F000EF920F931F93CF93DF93EC015D834C8378
:10440000798368830E83EF823B832A83198618861B
:1044100088E28A8780E58B8781E58C87FA01208195
:1044200081E090E0BC0102C0660F771F0A95E2F7B9
:104430000E2C01C0880F0A94EAF7862B822B80830A
:10444000CE010E9493210990D881C02D209771F050
:104450006AEE73E0CE010E94EF3366E0CE01DF9199
:10446000CF911F910F91EF900C943434DF91CF9145
:104470001F910F91EF900895CF93DF936115710510
:1044800099F061307105B1F06BE0FC0180819181A0
:104490000E943434EC0163E673E10E94EF3366E07E
:1044A000CE010E943434FFCF84E88093BC00DF91BA
:1044B000CF910895DF91CF910C940342FF920F9317
:1044C0001F93CF93DF938C018091BC0087FD13C0B5
:1044D0006BE0F801808191810E943434EC0169E540
:1044E00073E10E94EF3366E0CE010E943434809184
:1044F000BC0087FFEDCFF801F084F394F0866BE009
:10450000808191810E943434EC016EE473E10E9459
:10451000EF336F2DCE010E945C3566E00E9434348B
:10452000F090B9006BE0F801808191810E943434F1
:10453000EC0165E473E10E94EF3363E0CE010E9479
:1045400034346F2D0E945C3566E0DF91CF911F916E
:104550000F91FF900C943434DF92EF92FF920F93FF
:104560001F93CF93DF93EC018B018091B900887F7B
:1045700090E08617970709F440C0D8846BE08881E3
:1045800099810E9434347C016AE373E10E94EF3325
:1045900063E0C7010E9434346D2D0E945C3566E0F3
:1045A0000E9434346BE0888199810E9434347C010C
:1045B00061E373E10E94EF3363E0C7010E9434348A
:1045C000B8010E94793466E00E9434341091B90039
:1045D0006BE0888199810E943434EC0166E273E1DA
:1045E0000E94EF3363E0CE010E943434612F0E94B9
:1045F0005C3566E00E943434FFCFDF91CF911F918C
:104600000F91FF90EF90DF9008959F92AF92BF922D
:10461000CF92DF92EF92FF920F931F93CF93DF938E
:10462000EC01F62EC42E1986EA846BE0888199810C
:104630000E9434348C0162E174E10E94EF3363E044
:10464000C8010E9434346E2D0E945C3566E00E94E1
:104650003434EA846BE0888199810E9434348C017F
:1046600064E074E10E94EF3363E0C8010E943434D7
:104670006E2D0E945C3566E00E943434EB846BE062
:10468000888199810E9434348C0160EF73E10E942B
:10469000EF3363E0C8010E9434346E2D0E945C3514
:1046A00066E00E943434EC846BE0888199810E943A
:1046B00034348C016DED73E10E94EF3363E0C80187
:1046C0000E9434346E2D0E945C3566E00E943434C2
:1046D0006BE0888199810E9434348C016DEC73E128
:1046E0000E94EF3363E0C8010E9434346F2D0E94B2
:1046F0005C3566E00E943434E9846BE088819981FE
:104700000E9434348C016EEB73E10E94EF3363E05E
:10471000C8010E9434346E2D0E945C3566E00E9410
:10472000343404EA0093BC00CE010E945E2268E0AB
:1047300070E0CE010E94AC228B858093BB0014E810
:104740001093BC00CE010E945E2268E170E0CE01B1
:104750000E94AC22F092BB001093BC00CE010E94DC
:104760005E2268E270E0CE010E94AC220093BC00A1
:10477000CE010E945E2260E170E0CE010E94AC2278
:104780008C858093BB001093BC00CE010E945E22FA
:1047900060E470E0CE010E94AC22F090BB006BE0C0
:1047A000888199810E9434348C0167EA73E10E9408
:1047B000EF3363E0C8010E9434346FEF7FEF0E9453
:1047C00079346BE00E9434348C016AEB73E10E940F
:1047D000EF3363E0C8010E9434346F2D0E945C35D2
:1047E00066E00E943434CE010E940342CE010E9452
:1047F0005E2260E570E0CE010E94AC22D12C82E006
:10480000C816D1040CF441C001E010E0912CA12C99
:1048100003C0902EA12E8C01B090BB006BE088816C
:1048200099810E9434347C0164E973E10E94EF3382
:1048300063E0C7010E943434692D7A2D0E947934D7
:104840006BE00E9434347C0163EA73E10E94EF3331
:1048500063E0C7010E9434346B2D0E945C3566E032
:104860000E9434348091BB001986CE010E9403421D
:10487000CE010E945E2260E570E0CE010E94AC2273
:10488000C80101968C159D0524F29091BB00898585
:10489000892B898784E88093BC00CE010E945E2228
:1048A00068E570E0CE010E94AC2284E98093BC00F0
:1048B000F9846BE0888199810E9434348C0163E82B
:1048C00073E10E94EF3363E0C8010E9434346F2D1E
:1048D0000E945C3566E00E9434348985DF91CF9177
:1048E0001F910F91FF90EF90DF90CF90BF90AF900E
:1048F0009F900895FC0111860895FC012185262BC7
:10490000218708950F931F93CF93DF93EC016BE002
:104910000E9434348C0163E173E10E94EF3366E05E
:10492000C8010E943434CE01DF91CF911F910F91C5
:1049300008956F927F928F92AF92CF92EF92FF92F3
:104940000F931F93CF93DF93CDB7DEB7FC013B01ED
:104950008E857183608355834483318720871587D3
:104960000487F38AE28AC686A786808A818B4150B3
:1049700051095383428321503109378326830150E3
:1049800011091387028761157105A1F06DE074E0CC
:10499000C3010E94EF3366E0C301DF91CF911F9105
:1049A0000F91FF90EF90CF90AF908F907F906F908E
:1049B0000C943434DF91CF911F910F91FF90EF90C1
:1049C000CF90AF908F907F906F900895CF93FC0120
:1049D000A281B381CC9181E090E0AC01068402C059
:1049E000440F551F0A94E2F79C01078402C0220F6E
:1049F000331F0A94E2F7242B2C2B2C93A681B7812A
:104A00004C919C01008802C0220F331F0A94E2F7E8
:104A1000209524232C93A285B3854C919C01018879
:104A200002C0220F331F0A94E2F7422B4C93A08559
:104A3000B1854C919C01008802C0220F331F0A945B
:104A4000E2F7422B4C93A481B5814C919C0177FDF8
:104A50001BC0068402C0220F331F0A94E2F7422BC8
:104A60004C93A481B5812C91078402C0880F991FB3
:104A70000A94E2F7809582238C930288F389E02DD3
:104A800071836083CF910895078402C0220F331F82
:104A90000A94E2F7422B4C93A481B5812C910684B1
:104AA00002C0880F991F0A94E2F7809582238C93A5
:104AB0000288F389E02D7195619571097183608396
:104AC000E1CFFC01A281B3816C9181E090E0AC0167
:104AD000068402C0440F551F0A94E2F79C01078424
:104AE00002C0220F331F0A94E2F7242B262B2C93AB
:104AF000A681B7814C919C01008802C0220F331F10
:104B00000A94E2F7209524232C93A285B3854C9137
:104B10009C01018802C0220F331F0A94E2F7422B46
:104B20004C93A085B1854C919C01008802C0220F56
:104B3000331F0A94E2F7422B4C93A481B5814C9128
:104B40009C01068402C0220F331F0A94E2F7422B15
:104B50004C93A481B5812C91078402C0880F991FC2
:104B60000A94E2F7282B2C930895FC01A281B381CB
:104B70006C9181E090E0AC01068402C0440F551FA7
:104B80000A94E2F79C01078402C0220F331F0A94A3
:104B9000E2F7242B262B2C93A681B7814C919C0104
:104BA000008802C0220F331F0A94E2F720952423C5
:104BB0002C93A285B3854C919C01018802C0220FE1
:104BC000331F0A94E2F7422B4C93A085B1854C9198
:104BD0009C01008802C0220F331F0A94E2F7422B87
:104BE0004C93A481B5814C919C01068402C0220F94
:104BF000331F0A94E2F7209524232C93A481B581D6
:104C00002C91078402C0880F991F0A94E2F78095BF
:104C100082238C930895EF92FF920F931F93CF936B
:104C2000DF93EC01DB015296ED91FC915397E0800C
:104C3000F1806BE00E9434348C0169E974E10E94D8
:104C4000EF33B701C8010E94DA3466E00E943434C1
:104C5000CE01DF91CF911F910F91FF90EF900895BA
:104C60009C01432F4095441F4427441F80E090E857
:104C7000841B9109AC01421B530BE1E04617570717
:104C80000CF0E0E0432F4095441F4427441FE417F5
:104C900019F0C901860F971F08958617970799F194
:104CA000611520E8720741F1719561957109492FED
:104CB0004095441F4427441F20E030E8241B31095D
:104CC000A901481B590BE1E04617570764F4492F27
:104CD0004095441F4427441FE41719F0860F971F7F
:104CE0000895C9010895E0E0492F4095441F4427E5
:104CF000441FE417B1F3F2CF97FD03C06FEF7FE7D6
:104D0000D6CF0196FBCF80E090E00895811520E892
:104D1000920729F09C0197FD05C0C90108958FEF06
:104D20009FE70895319521953109C90108958115AD
:104D300020E8920729F09C01DB010E945B42089564
:104D4000611520E87207B9F76FEF7FEF8FEF9FE7EC
:104D500008959A01442737FD4095542F0E94CA4276
:104D6000211580E838074105510524F02FEF3FE772
:104D700040E050E0DA01C901811520E892072FEFE9
:104D8000A207B20724F480E090E8AFEFBFEF0895E8
:104D9000FC01A5E6B0E08C91877F8C93A281B38162
:104DA0008C91806A8C93A481B5818C9182618C9363
:104DB000A681B7818385948511969C938E932DB19E
:104DC00081E090E0058402C0880F991F0A94E2F701
:104DD000282B2DB908956F927F928F92AF92BF9238
:104DE000CF92EF92FF920F931F93CF93DF93CDB7A4
:104DF000DEB73C01FC0171836083538342833583BA
:104E0000248317830683F186E086C286B486A38650
:104E100085860E94C826F301608071806114710448
:104E2000A9F062E374E0C3010E94EF3366E0C301BE
:104E3000DF91CF911F910F91FF90EF90CF90BF9096
:104E4000AF908F907F906F900C943434DF91CF911E
:104E50001F910F91FF90EF90CF90BF90AF908F90E8
:104E60007F906F900895DC011896ED91FC91199751
:104E70007183608308950F931F93CF93DF93EC01A9
:104E80006BE00E9434348C016EEA74E10E94EF33CF
:104E900066E0C8010E943434CE01DF91CF911F91AA
:104EA0000F910895CF93DF93FC01A281B3814C91C0
:104EB00081E090E09C01028402C0220F331F0A941B
:104EC000E2F7209524232C93A281B3814C91228573
:104ED0002F5FBC0102C0660F771F2A95E2F7462BB1
:104EE0004C93A481B5814C919C01038402C0220F94
:104EF000331F0A94E2F7422B4C93A681B7814C9161
:104F00009C01048402C0220F331F0A94E2F720950B
:104F100024232C93A681B7812C91048402C0880F8E
:104F2000991F0A94E2F7282B2C93C081D1812097F6
:104F300059F069E574E0CE010E94EF3366E0CE01DE
:104F4000DF91CF910C943434DF91CF910895AF92DB
:104F5000CF92EF920F931F93FC017894718360833B
:104F600053834283358324831783068301501109B9
:104F700011870087E286C386A4861F910F91EF9068
:104F8000CF90AF900C9452271F920F920FB60F92B2
:104F900011240BB60F928F93EF93FF93E091D204FD
:104FA000F091D3048085813061F081E08087FF91AA
:104FB000EF918F910F900BBE0F900FBE0F901F902F
:104FC00018951086F4CF0F931F93CF93DF93EC01C6
:104FD0006BE00E9434348C0163EC74E10E94EF3387
:104FE00066E0C8010E943434CE01DF91CF911F9159
:104FF0000F9108950F931F93CF93DF93EC010E94BD
:10500000E72A8091EA04811121C084EF94E0909313
:10501000F0048093EF041092F2041092F10487E3FD
:1050200097E19093EE048093ED041092EC041092BB
:10503000EB049093F7048093F6048BEE94E0909346
:10504000F5048093F40481E08093EA04209709F446
:1050500060C0AE014C5F5F4F2396C633D74108F066
:1050600058C0E091EF04F091F004AFEEB4E006C058
:1050700080819181009739F0DF01FC012281338129
:1050800024173507A8F3C4E0EB3EFC0709F441C040
:105090000D911C9111970C5F1F4F808191818D9311
:1050A0009C93C901841B950B8930910500F1BF01C8
:1050B000640F751FDB0113969C938E931297538395
:1050C000428312968D919C911397AFEEB4E001C08C
:1050D000DF01ED91FC911197228133812817390767
:1050E000B8F3EB01F983E8836D937C939A01809187
:1050F000000290910102821B930B90930102809316
:1051000000020E941A2CC801DF91CF911F910F91CC
:10511000089500E010E00E941A2CC801DF91CF91A1
:105120001F910F910895CF93DF93009721F1EC0128
:1051300024970E94E72A4A815B81AFEEB4E001C068
:10514000DF01ED91FC9111972281338124173507FE
:10515000B8F3F983E883CD93DC93809100029091BA
:105160000102840F951F9093010280930002DF914A
:10517000CF910C941A2CDF91CF9108958091000269
:1051800090910102089508958091601C823018F07A
:105190000E94DA38F9CFFFCFCF92DF92EF92FF92E1
:1051A0006B017C01E0912B1CF0912C1C62837383BA
:1051B000848395838091341C9091351CA091361C7A
:1051C000B091371C60912B1C70912C1CC816D9060D
:1051D000EA06FB0610F18091481C9091491C6E5F15
:1051E0007F4F0E94A1378091020290910302A0910B
:1051F0000402B0910502C816D906EA06FB0640F47F
:10520000C0920202D0920302E0920402F0920502E0
:10521000FF90EF90DF90CF9008958091461C909181
:10522000471C6E5F7F4FFF90EF90DF90CF900C9404
:10523000A1375F926F927F928F929F92AF92BF92AF
:10524000CF92DF92EF92FF920F931F93CF93DF9352
:105250004C01162F572E5A01390189E290E00E9425
:10526000FA27EC01009709F4E9C0C114D10409F44C
:10527000DAC0DC8ECB8EC601A50165EA70E00E9423
:10528000EE4321E0A21AB108CB8CDC8CCA0CDB1CEB
:10529000AE01435E5F4FE12FF52D2AE0CF01319142
:1052A000DA013D93AD01DC018C91882311F021508E
:1052B000A9F71EA2102F043008F07DC01A8F1FA37B
:1052C00018A65E01B2E0AB0EB11CC5010E947C378E
:1052D000CE010E960E947C37DB87CA8784E090E07F
:1052E000A0E0B0E0811B9109A109B1098E879F87D9
:1052F000A88BB98BDF8BCE8BA301B401C6010E94B2
:105300000A3899838883E114F10419F0F701D183F5
:10531000C0830FB6F8940F928091381C8F5F8093F2
:10532000381C80912B1C90912C1C892B09F449C0AE
:105330008091321C81110BC0E0912B1CF0912C1C30
:10534000828D081720F0D0932C1CC0932B1C8091C9
:105350002E1C8F5F80932E1C8A8D9091331C981782
:1053600038F1FBE08F9FC0011124B501805A934EA4
:105370000E9480370F900FBE8091321C882339F035
:10538000E0912B1CF0912C1C828D8017B0F081E0F5
:10539000DF91CF911F910F91FF90EF90DF90CF9011
:1053A000BF90AF909F908F907F906F905F90089587
:1053B0008093331CD6CF13E081CF0E94DA3881E08E
:1053C000E7CFD0932C1CC0932B1C8091381C8130CC
:1053D00009F0BDCF80E69CE10E946B378BE69CE133
:1053E0000E946B3786E79CE10E946B3781E89CE165
:1053F0000E946B3785E59CE10E946B378AE49CE153
:105400000E946B378BE39CE10E946B3785E59CE142
:105410009093491C8093481C8AE49CE19093471C1C
:105420008093461C94CFC5010E94FA279C8F8B8FD6
:10543000009709F021CFCE010E9493288FEFA8CFCB
:105440000FB6F8940F92009729F00F900FBEFC0151
:10545000828D089580912B1C90912C1C0F900FBE73
:10546000FC01828D0895EF92FF921F93CF93DF93FB
:10547000EC01262F643008F023E00FB6F8940F9269
:10548000209709F44AC03FA13217A9F180912B1C43
:1054900090912C1C3217B8F5C817D90741F0E0914C
:1054A0002B1CF0912C1C11E0828D281708F410E0C1
:1054B0008A8D381769F12FA34E855F8568897989B0
:1054C00077FD0CC044E050E060E070E0421B510901
:1054D000610971094E875F87688B798B2BE0829F0A
:1054E000C0011124805A934E2C853D852817390719
:1054F000C9F0113079F00F900FBEDF91CF911F915D
:10550000FF90EF90089511E0C817D90781F6D0CF2A
:105510002A8FD1CF0E94DA38EECFC0912B1CD091C8
:105520002C1CB1CF7E0182E0E80EF11CC7010E9465
:10553000DE378A8D9091331C981710F48093331CBA
:105540002BE0829FC0011124B701805A934E0E9424
:105550008037CFCFAF92BF92CF92DF92EF92FF9280
:105560000F93A12CB12CC12CD12C89E3E82E8CE116
:10557000F82E00E020E030E044E650E060E874E01F
:1055800084EC98E20E941929813041F00F91FF903C
:10559000EF90DF90CF90BF90AF900895F8948093F4
:1055A000321C1092341C1092351C1092361C109232
:1055B000371C0F91FF90EF90DF90CF90BF90AF908E
:1055C0000C949E38F8941092321C0C94D938809127
:1055D0002D1C8F5F80932D1C08950FB6F8940F92A9
:1055E0006091341C7091351C8091361C9091371C51
:1055F0000F900FBE08956091341C7091351C8091FE
:10560000361C9091371C08958091381C089500979E
:1056100011F04D96089580912B1C90912C1C4D9665
:1056200008958091391C90913A1C0895AF92BF92D1
:10563000CF92DF92EF92FF920F931F93CF93DF935E
:1056400080912D1C8111CFC08091341C9091351C0C
:10565000A091361CB091371C0196A11DB11D8093FD
:10566000341C9093351CA093361CB093371CC0900B
:10567000341CD090351CE090361CF090371CC114BF
:10568000D104E104F10439F58091481C9091491C42
:105690002091461C3091471C3093491C2093481C94
:1056A0009093471C8093461C80912F1C8F5F8093A2
:1056B0002F1CE091481CF091491C808181119AC0F7
:1056C0008FEF9FEFDC018093020290930302A0937F
:1056D0000402B09305028091020290910302A0910E
:1056E0000402B0910502B12CC816D906EA06FB06E1
:1056F00008F457C09BE0A92EE091481CF091491C8A
:105700008081882309F442C0E091481CF091491C33
:105710000780F085E02DC085D1854A815B816C8151
:105720007D81C416D506E606F70608F47AC08E0118
:105730000E5F1F4FC8010E94DE37888D998D892B1F
:1057400021F0CE010E960E94DE378A8D9091331C97
:10575000981710F48093331CA89EC0011124B8013F
:10576000805A934E0E948037E0912B1CF0912C1CA4
:105770009A8D828D981708F4BFCFBB24B394E09123
:10578000481CF091491C80818111BECF4FEF5FEF23
:10579000BA01409302025093030260930402709393
:1057A0000502E0912B1CF0912C1CE28D8BE0E89F10
:1057B000F0011124E05AF34E8081823010F0BB24B6
:1057C000B3948091301C882311F0BB24B3948B2DAB
:1057D000DF91CF911F910F91FF90EF90DF90CF90CD
:1057E000BF90AF9008958091311C8F5F8093311CE2
:1057F000B12CE7CFE091481CF091491C0780F0855F
:10580000E02D0084F185E02D82819381A481B58112
:105810008093020290930302A0930402B0930502C6
:105820005ACF409302025093030260930402709394
:105830000502B7CFEF92FF920F931F93CF93DF93A1
:105840000FB6F8940F9280912D1C815080932D1CDF
:1058500080912D1C811150C08091381C882309F43F
:105860004BC02BE0F22EEE24E39427C0E091421CC3
:10587000F091431CC085D185CE010E960E94DE3783
:105880008E010E5F1F4FC8010E94DE378A8D9091F6
:10589000331C981710F48093331CF89EC001112418
:1058A000B801805A934E0E948037E0912B1CF091F2
:1058B0002C1C9A8D828D981748F580913B1C811184
:1058C000D5CF8091311C882399F08091311C882399
:1058D00079F0C1E00E94162B8111C093301C809199
:1058E000311C81508093311C8091311C8111F2CF89
:1058F0008091301C813069F080E00F900FBEDF9105
:10590000CF911F910F91FF90EF900895E092301C7E
:10591000D4CF0E94DA3881E0F0CFCF92DF92EF92BD
:10592000FF920F931F93CF93DF9300D000D0CDB79A
:10593000DEB720912D1C2F5F20932D1CC090341CAE
:10594000D090351CE090361CF090371CFC01008193
:10595000118122813381400F511F621F731FC016B6
:10596000D106E206F306E8F4401751076207730711
:10597000E8F0FC0140835183628373830E941A2CF8
:10598000811102C00E94DA380F900F900F900F9093
:10599000DF91CF911F910F91FF90EF90DF90CF900B
:1059A0000895401751076207730728F0C416D506FB
:1059B000E606F706F0F6FC014083518362837383A9
:1059C00080912B1C90912C1C029649835A836B83E7
:1059D0007C830E94DE3749815A816B817C81CB01B7
:1059E000BA010E94CC28CACFCF92DF92EF92FF92E9
:1059F000611571058105910539F40E94DA38FF902F
:105A0000EF90DF90CF90089520912D1C2F5F209371
:105A10002D1CC090341CD090351CE090361CF090AA
:105A2000371CC60ED71EE81EF91E80912B1C9091C4
:105A30002C1C02960E94DE37C701B6010E94CC28BA
:105A40000E941A2C8823C9F2FF90EF90DF90CF902C
:105A5000089580912D1C81113BC01092301CE09163
:105A6000331C8BE0E89FF0011124E05AF34E808153
:105A7000811110C09BE08091331C81508093331CB6
:105A8000E091331C9E9FF0011124E05AF34E808177
:105A9000882389F3E091331C8BE0E89FF001112407
:105AA000E05AF34EA181B28114960D90BC91A02DC5
:105AB000B283A183CF010396A817B90769F018969E
:105AC0008D919C91199790932C1C80932B1C089579
:105AD00081E08093301C089514969C91149715963C
