:100000000C94D40A0C94F30A0C94F30A0C94F30A9B
:100010000C94F30A0C94F30A0C94F30A0C94F30A6C
:100020000C94F30A0C94F30A0C94F30A0C94F30A5C
:100030000C94F30A0C94F30A0C94F30A0C94F30A4C
:100040000C94F30A0C94F30A0C94F30A0C94F30A3C
:100050000C94F30A0C94F30A0C94F30A0C94F30A2C
:100060000C94F30A0C94B0350C94F30A0C94F30A34
:100070000C94F30A0C94F30A0C94F30A0C94F30A0C
:100080000C94F30A0C94F30A0C94F30A0C94F30AFC
:100090000C9403360C94F30A0C94F30A0C94F30AB0
:1000A0000C94F30A0C94F30A0C94F30A0C94F30ADC
:1000B0000C94F30A0C94F30A0C94F30A0C947A3817
:1000C0000C94F30A0C94F30A0C94F30A2C33353392
:1000D00038333B332E332E333E334E3355335C337C
:1000E0006033323350494E5320444F453A2000206C
:1000F00020004D45343035204C6162203420436F60
:100100006E74726F6C6C65722050726F6772616D85
:1001100000496C6C6567616C2073746174652120A3
:10012000526573657474696E6720415652001B5B9B
:10013000003B0048001B5B004B004D6F746F72204A
:10014000310909000900090009000900090050727D
:10015000696E74696E672044617368426F6172648E
:100160002E2E200009506F77657220736574206110
:100170007420002E20005072696E74696E672044EE
:10018000617368426F6172642E2E2000496E707533
:100190007420506F7765722056616C756520666FAC
:1001A00072204D6F746F723A20001B5B324A002D33
:1001B0003E53656C65637465643A2000092D3E52B8
:1001C000657475726E696E6720746F204D69737304
:1001D000696F6E20436F6E74726F6C2E2E20000953
:1001E0002D3E52656C656173696E67204472697655
:1001F00065204D6F64652E2E0009494D55205749E5
:100200004C4C20524541443A20002E2000486F7744
:10021000206D616E792042797465733F3A20004900
:100220006E70757420526567697374657220746F9F
:1002300020726561643A20001B5B324A002D3E53F8
:10024000656C65637465643A2000092D3E526574DF
:1002500075726E696E6720746F204D697373696F74
:100260006E20436F6E74726F6C2E2E2000092D3E2F
:1002700052656C656173696E6720494D552E2E007D
:100280001B5B003B0048001B5B004B001B5B003B03
:100290000048001B5B003B0048001B5B004B001B41
:1002A0005B003B0048001B5B324A001B5B003B00CD
:1002B00048001B5B324A001B5B34376D002D3E53F8
:1002C000656C65637465643A2000092D3E5265745F
:1002D00075726E696E6720746F204D697373696FF4
:1002E0006E20436F6E74726F6C2E2E2000092D3EAF
:1002F00052656C656173696E6720456E636F6465F6
:10030000722E2E00092D3E507265737320277127BF
:1003100020746F2072657475726E20746F2074681B
:1003200065204D6F746F72200020436F6E74726F82
:100330006C00092D3E50726573732027722720745C
:100340006F20726566726573682074686520446109
:100350007368426F61726420002D3E53656C656363
:100360007465643A20002D3E53656C656374656462
:100370003A20002D3E43686F6F7365204D6F746F98
:10038000722000206F7065726174696F6E3A200090
:10039000270027206973206E6F7420612076616CBE
:1003A000696420656E7472792E002D3E53656C650C
:1003B000637465643A20002052657475726E696ECC
:1003C0006720746F204D61696E204D6F746F7220CD
:1003D0004D6F64756C652E2E2000092D3E507265A0
:1003E00073732027712720746F2072657475726E85
:1003F00020746F20746865204D6F746F7220002028
:10040000436F6E74726F6C00092D3E50726573738A
:100410002027722720746F207265667265736820CA
:100420007468652044617368426F617264200009DA
:100430002D3E506F74656E74696F6D6574657220C2
:100440004163746976617465642E002D3E53656C5A
:1004500065637465643A2000092D3E456E746572CB
:10046000696E6720506F74656E74696F6D65746531
:100470007220436F6E74726F6C2E2E2E20002D3EF4
:1004800043686F6F7365204D6F746F722000206F2B
:100490007065726174696F6E3A2000092850726548
:1004A000737320276F2720666F72206F7074696FD7
:1004B0006E732900092D3E52656C656173696E6724
:1004C000204D6F746F722E2E002D3E53656C656348
:1004D0007465643A20002D3E43686F6F7365204D4C
:1004E0006F746F722000206F7065726174696F6E37
:1004F0003A20000928507265737320276F27206601
:100500006F72206F7074696F6E7329000942726197
:100510006B652073657420617420002E2000092D06
:100520003E456E74657220746865204272616B6529
:1005300020466F7263652830202D20323535290022
:100540002D3E53656C65637465643A20002D3E430F
:10055000686F6F7365204D6F746F722000206F702D
:1005600065726174696F6E3A200009285072657374
:100570007320276F2720666F72206F7074696F6E0B
:1005800073290009506F7765722073657420617458
:1005900020002E2000456E7465722074686520501E
:1005A0006F7765722056616C756520282D32353560
:1005B00020746F20323535293B0020202A4E6F747D
:1005C000653A204E656761746976652056616C7581
:1005D0006573203D2052657665727365002D3E532C
:1005E000656C65637465643A2000547279204167D4
:1005F00061696E2E2000092D3E5377697463686926
:100600006E6720746F20436F6E74726F6C206F661C
:10061000204D6F746F7220002E00092D3E526574BC
:1006200075726E20746F20746865204D61696E204C
:100630004D6F746F72204D6F64756C6520746F2000
:1006400073776170204D6F746F72732E002D3E535F
:10065000656C65637465643A2000092D3E526574CB
:1006600075726E696E6720746F204D697373696F60
:100670006E20436F6E74726F6C2E2E2000092D3E1B
:1006800052656C656173696E67204D6F746F72732C
:100690002E2E00092D3E526573657474696E6720B5
:1006A0004156522E2E00223A205754463F005265A2
:1006B00073657474696E672041565200092D3E5966
:1006C0006F7520456E74657265643A2000456E74DE
:1006D000657220646563696D616C206E756D65720D
:1006E0006963206469676974732C207468656E207F
:1006F00052455455524E206F7220455343001B5BA8
:10070000324A001B5B003B004800092D3E537769CD
:10071000746368696E6720746F204472697665201F
:100720004D6F64652E2E002D3E53656C65637465B8
:10073000643A20001B5B324A001B5B003B00480010
:10074000092D3E537769746368696E6720746F2062
:10075000494D55204D6F64756C652E2E00092D3E58
:10076000436C656172696E67205265676973746571
:10077000727320616E64204D656E75732E2E0009B4
:100780002D3E496E7469616C697A696E6720494DC6
:10079000552E2E002D3E53656C65637465643A20BA
:1007A000001B5B324A001B5B003B004800092D3EEA
:1007B000537769746368696E6720746F20456E6350
:1007C0006F646572204D6F64756C652E2E00092D67
:1007D0003E436C656172696E672052656769737428
:1007E00065727320616E64204D656E75732E2E00E8
:1007F000092D3E496E7469616C697A696E6720459E
:100800006E636F6465722E2E002D3E53656C6563BA
:100810007465643A2000092D3E53776974636869F2
:100820006E6720746F204D6F746F72204D6F64750A
:100830006C652E2E00092D3E436C656172696E67F2
:100840002052656769737465727320616E64204D10
:10085000656E75732E2E00092D3E496E7469616CAC
:10086000697A696E67204D6F746F72732E2E002D3A
:100870003E53656C65637465643A20001B5B3437D6
:100880006D007C09092027712720202020717569BF
:100890007420746F206D61696E206D656E75202007
:1008A0002020202020202020202020202009097C1A
:1008B000007C2D2D2D2D2D2D2D2D2D2D2D2D2D2D46
:1008C0002D2D2D2D2D2D2D2D2D2D2D2D2D2D2D2D58
:1008D0002D2D2D2D2D2D2D2D2D2D2D2D2D2D2D2D48
:1008E0002D2D2D2D2D2D2D2D2D2D2D2D2D2D2D2D38
:1008F0002D2D2D2D2D2D2D2D207C007C0909202026
:1009000020202020202020204A6F79537469636BB7
:1009100020436F6E74726F6C204D6F6465202020D1
:1009200020202020202009097C007C090920277133
:1009300027202020207175697420746F206D6169F3
:100940006E206D656E752020202020202020202024
:10095000202020202009097C007C0909202020205B
:1009600055736520746865204A6F79537469636BA9
:1009700020746F206D6F76652061726F756E6420D4
:100980002020202009097C007C2D2D2D2D2D2D2DA2
:100990002D2D2D2D2D2D2D2D2D2D2D2D2D2D2D2D87
:1009A0002D2D2D2D2D2D2D2D2D2D2D2D2D2D2D2D77
:1009B0002D2D2D2D2D2D2D2D2D2D2D2D2D2D2D2D67
:1009C0002D2D2D2D2D2D2D2D2D2D2D2D2D2D2D2064
:1009D0007C007C0909202020202020202020204489
:1009E0007269766520436F6E74726F6C204D6F6410
:1009F0006520202020202020202020202009097C84
:100A000000494D5520444154413A200009092D3EEA
:100A10002070726573732027722720746F207265AF
:100A2000667265736820007C0909202771272020E1
:100A300020207175697420746F206D61696E206D5E
:100A4000656E7520202020202020202020202020BE
:100A5000202009097C007C090920277227202020FA
:100A600020526566726573682074686520646174DD
:100A70006120202020202020202020202020202035
:100A80002009097C007C2D2D2D2D2D2D2D2D2D2D7A
:100A90002D2D2D2D2D2D2D2D2D2D2D2D2D2D2D2D86
:100AA0002D2D2D2D2D2D2D2D2D2D2D2D2D2D2D2D76
:100AB0002D2D2D2D2D2D2D2D2D2D2D2D2D2D2D2D66
:100AC0002D2D2D2D2D2D2D2D2D2D2D2D207C007CF2
:100AD000090920202020202020202020494D5520B9
:100AE000436F6E74726F6C204D6F64756C6520205F
:100AF0002020202020202020202009097C00456E75
:100B0000636F64657220436F756E743A2000456EA2
:100B1000636F646572205469636B732F6D733A2041
:100B20000009092D3E2070726573732027722720FB
:100B3000746F207265667265736820007C090920F5
:100B4000277127202020207175697420746F206D13
:100B500061696E206D656E75202020202020202088
:100B60002020202020202009097C007C0909202742
:100B70007227202020205265667265736820746891
:100B80006520646174612020202020202020202006
:100B900020202020202009097C007C2D2D2D2D2DAA
:100BA0002D2D2D2D2D2D2D2D2D2D2D2D2D2D2D2D75
:100BB0002D2D2D2D2D2D2D2D2D2D2D2D2D2D2D2D65
:100BC0002D2D2D2D2D2D2D2D2D2D2D2D2D2D2D2D55
:100BD0002D2D2D2D2D2D2D2D2D2D2D2D2D2D2D2D45
:100BE0002D207C007C090920202020202020204569
:100BF0006E636F64657220436F6E74726F6C204D0C
:100C00006F64756C65202020202020202020200982
:100C1000097C004D453430352054657374696E6726
:100C200020506C617466726F6D2076362E30004DE8
:100C30006179203132203230313600537973746556
:100C40006D2074696D653A20002C20486561703A0A
:100C500020002C204F435235413A20003C696E76EB
:100C6000616C69642063686172202200223E00206A
:100C700020683A202020202048414C50210020208C
:100C800043746C2D433A2052657365742074686513
:100C9000204156520020206E3A2020202020456E10
:100CA0007465722061206E756D62657220286465BE
:100CB0006D6F29002020643A202020202053746189
:100CC000636B2064756D7020666F72207461736B46
:100CD00073002020733A202020202056657273690B
:100CE0006F6E20616E6420736574757020696E6626
:100CF0006F726D6174696F6E002020743A2020203D
:100D0000202053686F77207468652074696D6520B2
:100D10007269676874206E6F77004D4534303520F6
:100D200054657374696E6720506C617466726F6D80
:100D30002076362E30002068656C70004465627540
:100D40006767696E6720496E666F3A20002D2D2D0A
:100D50002D2D2D2D09092D2D2D2D2D2D2D2D092D2F
:100D60002D2D2D2D2D2D09092D2D2D2D2D2D2D2DFB
:100D70002D2D2D004D6F746F720909536574506FDE
:100D8000696E740920506F7765720909456E636F4B
:100D9000646572436F756E74002D2D2D2D2D2D2DD4
:100DA00009092D2D2D2D2D2D2D2D092D2D2D2D2DDF
:100DB0002D2D09092D2D2D2D2D2D2D2D2D2D2D00D8
:100DC0004D6F746F72203109090009000900090094
:100DD000090009002D2D2D2D2D2D2D09092D2D2D2D
:100DE0002D2D2D2D2D092D2D2D2D2D2D2D09092D9F
:100DF0002D2D2D2D2D2D2D2D2D2D004D6F746F7220
:100E000009095374617475730909506F7765720924
:100E100009446972656374696F6E002D2D2D2D2D47
:100E20002D2D09092D2D2D2D2D2D2D2D092D2D2D5E
:100E30002D2D2D2D09092D2D2D2D2D2D2D2D2D2D2A
:100E40002D004D6F746F72203109090009000909E6
:100E5000007C09092027712720202020205265745A
:100E600075726E20746F2070726576696F7573206D
:100E70006D656E752009097C007C090920277027A3
:100E80002020202020456E74657220506F74656E9E
:100E900074696F6D65746572204D6F646509097CB6
:100EA000007C090920276627202020202046726523
:100EB00065776865656C206D6F746F7220202020E7
:100EC000202020202009097C007C09092027622796
:100ED00020202020204170706C7920746865206D7E
:100EE0006F746F72206272616B6520202009097C2B
:100EF000007C0909202773272020202020536574B7
:100F000020746865206D6F746F7220706F776572E2
:100F1000202020202009097C007C2D2D2D2D2D2D19
:100F20002D2D2D2D2D2D2D2D2D2D2D2D2D2D2D2DF1
:100F30002D2D2D2D2D2D2D2D2D2D2D2D2D2D2D2DE1
:100F40002D2D2D2D2D2D2D2D2D2D2D2D2D2D2D2DD1
:100F50002D2D2D2D2D2D2D2D2D7C007C09092020B2
:100F60002053696E676C65204D6F746F7220436FFC
:100F70006E74726F6C204D6F64756C652020200953
:100F8000097C007C0909202020204D61696E204DDC
:100F90006F746F7220436F6E74726F6C204D6F644C
:100FA000756C652020202009097C007C2D2D2D2DBD
:100FB0002D2D2D2D2D2D2D2D2D2D2D2D2D2D2D2D61
:100FC0002D2D2D2D2D2D2D2D2D2D2D2D2D2D2D2D51
:100FD0002D2D2D2D2D2D2D2D2D2D2D2D2D2D2D2D41
:100FE0002D2D2D2D2D2D2D2D2D2D2D7C007C090908
:100FF000202731272020202020746F206F706572F9
:10100000617465204D6F746F722031202020202084
:101010002009097C007C0909202732272020202074
:1010200020746F206F706572617465204D6F746FEE
:1010300072203220202020202009097C007C090910
:1010400020277127202020202052657475726E2081
:10105000746F204D61696E204D656E7520202020D3
:101060002009097C001B5B34376D001B5B33316D3D
:10107000004D453430352054657374696E672050D7
:101080006C617466726F6D2076362E300009090926
:1010900020202020004D617920313220323031363D
:1010A000001B5B33306D007C0909202020204D6936
:1010B0007373696F6E20436F6E74726F6C20507221
:1010C0006F6772616D2076312E3020202020090953
:1010D0007C007C2D2D2D2D2D2D2D2D2D2D2D2D2DCF
:1010E0002D2D2D2D2D2D2D2D2D2D2D2D2D2D2D2D30
:1010F0002D2D2D2D2D2D2D2D2D2D2D2D2D2D2D2D20
:101100002D2D2D2D2D2D2D2D2D2D2D2D2D2D2D2D0F
:101110002D2D7C007C09092020202020202020204B
:10112000456E746572204D6F746F7220436F6E74DC
:10113000726F6C204D6F64756C6520202009097CEE
:10114000001B5B34376D007C090920202020202003
:10115000202020456E74657220456E636F64657251
:1011600020436F6E74726F6C204D6F64756C6520D8
:1011700009097C007C090920202020202020202033
:10118000456E74657220494D5520436F6E74726FC1
:101190006C204D6F64756C65202020202009097C2F
:1011A000007C0909202020202020202020456E746A
:1011B0006572204472697665204D6F646520202039
:1011C0002020202020202020202009097C007C09CC
:1011D00009202020202020202020446973706C6189
:1011E0007920616C6C206F7074696F6E73202020A1
:1011F0002020202020202009097C007C09092020B3
:1012000020202020202020526573657420415652F2
:1012100020202020202020202020202020202020CE
:101220002020202009097C004F55545055543A2065
:10123000004572726F723A20005353414444205E5D
:101240005E3A200053534D554C204B50204552528E
:101250003A20005353414444205E5E3A20005353E9
:101260004D554C204B44204552525F443A20005388
:10127000534D554C204B492045525253554D3A2021
:101280000043757272656E74204368616E6E656CA2
:101290002052656164696E67733A2000456E642070
:1012A0005072696E742044617461005468697320DF
:1012B0004843544C2D3230303020697320757369A7
:1012C0006E672074686573652070696E733A004FAD
:1012D000452070696E3A20005368617261626C65E6
:1012E0002070696E733A0053454C2070696E3A2045
:1012F00000446174612062757320706F72743A20CB
:1013000000696D752044726976657220496E70754A
:10131000743A200052656365697665643A20004E30
:1013200065656465643A20004572726F722061746D
:101330003A20005354415455533A20005761697480
:10134000205365743A200077616974696E672E2EA8
:10135000006572726F7220696E20636C6561722025
:10136000656E61626C6500434F4E54494E5545535E
:10137000005448452046494E414C20444154413A8E
:10138000200056616C75652052656164206174208F
:1013900000203A20003173742056616C756520522C
:1013A0006561642061742000203A200043757272E8
:1013B000656E7420446174613A2000476976656EF9
:1013C00020416464726573733A2000494D55204191
:1013D00064647265737320526561643A2000494DFC
:1013E0005520416464726573732057726974653A5D
:1013F0002000494D5520416464726573733A2000A2
:1014000052656164696E6720494D552E2E3A200061
:10141000496E697469616C697A656420424E4F3027
:1014200035353A200056616C756520696E20505242
:1014300052305B434845434B3A204249543A3720A7
:101440003D20305D3A200056616C756520696E2044
:10145000545753525B434845434B3A204249543119
:101460002D3E30203D2030305D3A200056616C75B5
:101470006520696E20545742525B434845434B3ABE
:101480002037325D3A20004D6F746F7220447269CC
:1014900076657220496E7075743A20004E6F207325
:1014A00068617265642064617461206974656D733C
:1014B00020746F207072696E74002D2D2D2D2020E8
:1014C000202020202020202020202D2D2D2D2020E8
:1014D00020202D2D2D2D2D2D2D2D2D2D00536861EE
:1014E00072652F5175657565202020202054797014
:1014F0006520202020467265652F546F74616C0052
:101500004552524F52206372656174696E67207450
:1015100061736B2022005461736B202200222063D0
:101520007265617465642C20737461636B206174EF
:101530002030780049444C45090930092D09002F15
:101540000009092D002D2D2D2D09092D2D2D2D09D9
:101550002D2D2D2D2D00092D2D2D2D2D2D2D2D2D0C
:101560002D00092D2D2D2D004E616D65090950723C
:10157000692E0953746174650009467265652F54BC
:101580006F74616C000952756E73005461736B095E
:1015900009202009200009537461636B00090009C8
:1015A000002F00090009000011241FBECFEFD1E277
:1015B000DEBFCDBF14E0A0E0B2E0EEECF4E800E066
:1015C0000BBF02C007900D92A031B107D9F71BE104
:1015D000A0E1B4E001C01D92A43DB107E1F70E9473
:1015E0006F3E0C9465420C9400000F931F93CF93B1
:1015F000DF93EC0166E08E819F810E941F336BE0D8
:101600008E819F810E941F338C016BE57FE00E94D9
:10161000DA3266E0C8010E941F336BE08E819F8141
:101620000E941F338C0169E17FE00E94DA3266E09C
:10163000C8010E941F336BE08E819F810E941F337F
:101640008C0161EF7EE00E94DA3266E0C8010E9400
:101650001F336BE08E819F810E941F338C0169ECE8
:101660007EE00E94DA3266E0C8010E941F336BE020
:101670008E819F810E941F338C0161EA7EE00E946F
:10168000DA3266E0C8010E941F336BE08E819F81D1
:101690000E941F338C0169E77EE00E94DA3266E027
:1016A000C8010E941F336BE08E819F810E941F330F
:1016B0008C0161E57EE00E94DA3266E0C8010E949A
:1016C0001F3381E08DA3DF91CF911F910F9108957A
:1016D0008F929F92AF92BF92CF92DF92EF92FF9242
:1016E0000F931F93CF93DF93EC018E8D8823C1F06E
:1016F000813009F420C1823009F42FC1833009F40C
:1017000027C173ED872E72E0972E8A8D9B8D97FDF2
:101710001AC1892B49F04AECC42E42E0D42E08C0ED
:1017200065EB862E62E0962E5EEBC52E52E0D52E3E
:1017300066E08E819F810E941F33AA8CBB8C6BE078
:101740008E819F810E941F338C0164ED7DE00E9499
:10175000DA3266E0C8010E941F336BE00E941F333B
:101760008C016BEF7DE00E94DA3266E0C8010E94D6
:101770001F336BE00E941F338C016BE17EE00E94FF
:10178000DA3266E0C8010E941F336BE00E941F330B
:101790007C0162E47EE00E94DA32B401C7010E945B
:1017A000DA326BE0C7010E941F338C016CE47EE0EB
:1017B0000E94DA32B501C8010E9464336BE00E94D6
:1017C0001F337C016EE47EE00E94DA32B601C7016D
:1017D0000E94DA3266E0C7010E941F3366E00E9471
:1017E0001F330FB6F8940F92E0911604F09117048E
:1017F000C084D184E284F3840F900FBE0FB6F894B6
:101800000F92E0911A04F0911B04A084B1840F9010
:101810000FBE0FB6F8940F92E0911C04F0911D04D6
:10182000808491840F900FBE66E08E819F810E941C
:101830001F336BE00E941F338C016CE37DE00E943C
:10184000DA3266E0C8010E941F336BE00E941F334A
:101850008C016DE47DE00E94DA3266E0C8010E94EE
:101860001F336BE00E941F338C0164E77DE00E9410
:10187000DA3266E0C8010E941F336BE00E941F331A
:101880008C0169E97DE00E94DA3266E0C8010E94BD
:101890001F336BE00E941F338C0160EC7DE00E94DF
:1018A000DA32B401C8010E9464336BE00E941F3336
:1018B0008C016AEC7DE00E94DA326BE0C8010E9484
:1018C0001F338C016CEC7DE00E94DA32B501C80157
:1018D0000E9464336BE00E941F338C016EEC7DE04C
:1018E0000E94DA326BE0C8010E941F338C0160ED68
:1018F0007DE00E94DA32B701A601C8010E9493334D
:101900006BE00E941F338C0162ED7DE00E94DA32B1
:1019100066E0C8010E941F3381E08DA3DF91CF9163
:101920001F910F91FF90EF90DF90CF90BF90AF90FD
:101930009F908F9008952CEE822E22E0922E8A8D19
:101940009B8D97FFE6CE32ECC32E32E0D32EF0CE45
:101950008AED882E82E0982ED8CE93EE892E92E0E2
:10196000992ED3CE0F931F93CF93DF93EC018DA1CC
:101970008111AFC06BE08E819F810E941F338C016B
:1019800065E670E10E94DA326BE0C8010E941F3305
:101990008C016BE670E10E94DA3266E0C8010E94B9
:1019A0001F336BE00E941F338C0161E770E10E94DE
:1019B000DA3266E0C8010E941F3366E00E941F33DE
:1019C0006BE00E941F338C016DE870E10E94DA32F7
:1019D0006BE0C8010E941F338C0165E970E10E9431
:1019E000DA3266E0C8010E941F336BE00E941F33A9
:1019F0008C0161EA70E10E94DA326BE0C8010E945A
:101A00001F338C0167EA70E10E94DA3266E0C80198
:101A10000E941F336BE00E941F338C0162ED70E166
:101A20000E94DA3266E0C8010E941F336BE00E9418
:101A30001F338C0164E171E10E94DA326BE0C8016E
:101A40000E941F338C0161E471E10E94DA3266E08A
:101A5000C8010E941F336BE00E941F338C0167E4B2
:101A600071E10E94DA3266E0C8010E941F336BE028
:101A70000E941F338C0164E771E10E94DA3266E054
:101A8000C8010E941F336BE00E941F338C0161EA82
:101A900071E10E94DA3266E0C8010E941F336BE0F8
:101AA0000E941F338C016EEC71E10E94DA3266E015
:101AB000C8010E941F336BE00E941F338C016BEF43
:101AC00071E10E94DA3266E0C8010E941F3381E0B2
:101AD0008DA3DF91CF911F910F9108950F931F93C5
:101AE000CF93DF93EC018DA1811146C066E08E811A
:101AF0009F810E941F3366E00E941F336BE00E94AB
:101B00001F338C0163E87FE00E94DA3266E0C8018F
:101B10000E941F336BE00E941F338C016BEA7FE051
:101B20000E94DA3266E0C8010E941F336BE00E9417
:101B30001F338C016DEE7FE00E94DA3266E0C8014F
:101B40000E941F336BE00E941F338C0165E170E13E
:101B50000E94DA3266E0C8010E941F336BE00E94E7
:101B60001F338C016DE370E10E94DA3266E0C80138
:101B70000E941F3381E08DA3DF91CF911F910F91C0
:101B80000895FC0125A1211108950C94F50AFC018A
:101B900025A1211102C00C94680B08950F931F9387
:101BA000CF93DF93EC0166E08E819F810E941F330B
:101BB0006BE00E941F338C016AE17DE00E94DA3203
:101BC0006BE0C8010E941F338C0166E37DE00E9438
:101BD000DA3266E0C8010E941F336BE08E819F817C
:101BE0000E941F338C0169EF7CE00E94DA3266E0CC
:101BF000C8010E941F336BE08E819F810E941F33BA
:101C00008C0162ED7CE00E94DA3266E0C8010E943D
:101C10001F336BE08E819F810E941F338C0164EB28
:101C20007CE00E94DA3266E0C8010E941F336BE05C
:101C30008E819F810E941F338C0165E97CE00E94A8
:101C4000DA3266E0C8010E941F336BE08E819F810B
:101C50000E941F338C016EE77CE00E94DA3266E05E
:101C6000C8010E941F336BE08E819F810E941F3349
:101C7000EC016FE67CE00E94DA3266E0CE01DF9193
:101C8000CF911F910F910C941F33CF93DF93EC01F1
:101C90008E819F81DC01ED91FC910480F581E02D26
:101CA0000995811104C080E0DF91CF9108958E8164
:101CB0009F81DC01ED91FC910680F781E02D099573
:101CC0008A8B81E0DF91CF910895CF92DF92FF92CE
:101CD0000F931F93CF93DF931F92CDB7DEB76C01A5
:101CE000DC0154961C921E925397F12CF6018681CA
:101CF0009781DC01ED91FC910480F581E02D09953F
:101D0000882309F440C0F60186819781DC01ED91BA
:101D1000FC910680F781E02D0995282FF601828B32
:101D200080ED820F8A3008F458C02D3209F478C053
:101D3000213709F498C02A3009F47FC02D3009F406
:101D400084C02B3109F481C06BE0F6018681978154
:101D500029830E941F338C016CE57CE00E94DA32FB
:101D6000D801ED91FC910280F381E02D2981622F51
:101D7000C80109956BE0C8010E941F336CE67CE046
:101D80000E94DA32B3CF80911E0490911F04DC01CF
:101D9000ED91FC910480F581E02D0995882309F4EB
:101DA000A5CFD6011696ED91FC9117970190F08181
:101DB000E02D0281138180911E0490911F04DC01AB
:101DC000ED91FC910680F781E02D0995682FF601D1
:101DD00086819781F801099589CF86819781DC01F9
:101DE000ED91FC910280F381E02D622F0995F601BF
:101DF00023893489C901880F991F220F331F220FAD
:101E0000331F220F331F820F931F2289332727FD91
:101E1000309520533109820F931F948B838B66CFAB
:101E200086819781DC01ED91FC910280F381E02DA8
:101E30006DE20995FF24F39459CF65EF72E0F60146
:101E4000868197810E94DA3251CFFF2061F0D6015E
:101E500053968D919C9154979195819591095496A3
:101E60009C938E9353970F90DF91CF911F910F9179
:101E7000FF90DF90CF9008958F929F92AF92BF9284
:101E8000CF92DF92EF92FF920F931F93CF93DF9346
:101E900000D000D000D0CDB7DEB78C0119821A82F5
:101EA0001B821C821E821D82C0902801D0902901B5
:101EB0000E94A9275C01CE0101960E9475324C0157
:101EC00066E0F801868197810E941F336BE00E94D3
:101ED0001F337C0163E17CE00E94DA326BE0C701D2
:101EE0000E941F337C016FE27CE00E94DA3266E0E0
:101EF000C7010E941F336BE00E941F337C016BE31C
:101F00007CE00E94DA32B401C7010E9414326BE017
:101F10000E941F337C0169E47CE00E94DA32B50143
:101F2000C7010E94C5337C0167EF72E00E94DA327C
:101F300048E357E160E070E0C7010E94FF336BE0C7
:101F40000E941F337C0162E57CE00E94DA32B60118
:101F5000C7010E94C53366E00E941F3366E00E94FD
:101F60001F33F801868197810E94C63066E0F80130
:101F7000868197810E941F33F801868197810E9494
:101F8000E92E26960FB6F894DEBF0FBECDBFDF91C7
:101F9000CF911F910F91FF90EF90DF90CF90BF9066
:101FA000AF909F908F9008950FB6F8940F92E091A4
:101FB0001804F091190420870F900FBE0FB6F89403
:101FC0000F92E0911C04F0911D04518740870F90FF
:101FD0000FBEFC01268F538F428F08956150710907
:101FE00081E06230710508F080E00895FC0115A2DF
:101FF0000895AF92BF92CF92DF92EF92FF920F932C
:102000001F93CF93DF93EC018DA1811185C06BE00D
:102010008E819F810E941F338C0164EE7BE00E94C1
:10202000DA3266E0C8010E941F336BE08E819F8127
:102030000E941F338C016AE97BE00E94DA3266E07D
:10204000C8010E941F336BE08E819F810E941F3365
:102050008C016BE67BE00E94DA3266E0C8010E94E8
:102060001F336BE08E819F810E941F338C016CE3D4
:102070007BE00E94DA3266E0C8010E941F330FB68F
:10208000F8940F92E0911404F0911504A084B184A7
:102090000F900FBE0FB6F8940F92E0911604F091D6
:1020A0001704C084D184E284F3840F900FBE6BE0E8
:1020B0008E819F810E941F338C016EEF7AE00E9417
:1020C000DA32B701A601C8010E94933366E00E948C
:1020D0001F336BE00E941F338C016EE07BE00E9497
:1020E000DA32B501C8010E94643366E00E941F33F2
:1020F00066E00E941F336BE00E941F338C0161E297
:102100007BE00E94DA3266E0C8010E941F3366E07D
:102110000E941F3381E08DA3DF91CF911F910F911A
:10212000FF90EF90DF90CF90BF90AF900895CF9247
:10213000DF92EF92FF920F931F93CF93DF93EC0107
:102140008DA181116BC06BE08E819F810E941F3336
:102150008C016FEC7AE00E94DA3266E0C8010E94DE
:102160001F336BE08E819F810E941F338C0165E8D5
:102170007AE00E94DA3266E0C8010E941F336BE009
:102180008E819F810E941F338C0166E57AE00E9458
:10219000DA3266E0C8010E941F336BE08E819F81B6
:1021A0000E941F338C0167E27AE00E94DA3266E017
:1021B000C8010E941F330FB6F8940F92E0911604E5
:1021C000F0911704C084D184E284F3840F900FBE91
:1021D0006BE08E819F810E941F338C0161E07AE069
:1021E0000E94DA32B701A601C8010E94933366E06B
:1021F0000E941F3366E00E941F336BE00E941F3372
:102200008C016CE07AE00E94DA3266E0C8010E943C
:102210001F3366E00E941F3381E08DA3DF91CF91D1
:102220001F910F91FF90EF90DF90CF9008950F9343
:102230001F93CF93DF93EC018DA1882329F0DF91C9
:10224000CF911F910F9108956BE08E819F810E9425
:102250001F338C0162ED79E00E94DA3266E0C8013A
:102260000E941F336BE08E819F810E941F338C017F
:1022700068E879E00E94DA3266E0C8010E941F3304
:102280006BE08E819F810E941F338C0169E579E0AC
:102290000E94DA3266E0C8010E941F336BE08E8133
:1022A0009F810E941F338C016AE279E00E94DA323A
:1022B00066E0C8010E941F3366E00E941F338DA1B3
:1022C000882339F081E08DA3DF91CF911F910F9189
:1022D0000895CE010E94680BF5CFCF93DF93CDB761
:1022E000DEB727970FB6F894DEBF0FBECDBF8C01C7
:1022F00019821A821B821C821E821D82DC01549666
:102300001C921E92539793E0592E1DC0243009F45D
:1023100024C308F437C2253009F019C2808D811119
:1023200042C4F80186859785A089B1890196A11DCF
:10233000B11D86879787A08BB18B61E070E080E04C
:1023400090E00E94DF2BF8012485223009F470C14F
:10235000E8F6222309F4CBC0213009F0F8C1F801D6
:10236000858981110C94911A85A1811103C0C8013E
:102370000E94F50AC8010E94450E882391F2F801D7
:1023800022892F3609F4C6C60CF452C6213709F447
:1023900022C60CF4A4C5233709F07DC76BE0868103
:1023A00097810E941F337C016DED75E00E94DA3247
:1023B000D701ED91FC910280F381E02D63E7C70125
:1023C000099566E0C7010E941F3366E0F801868127
:1023D00097810E941F336BE00E941F337C0165E9E7
:1023E00075E00E94DA3266E0C7010E941F336BE09D
:1023F0000E941F337C016AEB75E00E94DA3266E0CE
:10240000C7010E941F33C8010E94650ED801539670
:102410008D919C9154970FB6F8940F92E091180407
:10242000F091190421E020870F900FBE0FB6F894A9
:102430000F92E0911C04F0911D04918780870F900A
:102440000FBEF801268F938F828FC388D48866E0F1
:10245000868197810E941F3366E00E941F336BE0E4
:102460000E941F337C0163E875E00E94DA32B601F6
:10247000C7010E9464336BE00E941F337C0162E954
:1024800075E00E94DA3266E0C7010E941F33D8016E
:1024900095961C92C8010E94680BF801D0A066E0D6
:1024A000868197810E941F336BE00E941F337C015D
:1024B0006DE475E00E94DA326D2DC7010E94473449
:1024C0006BE00E941F337C016DE575E00E94DA32FB
:1024D0006BE0C7010E941F337C016AE675E0C7010B
:1024E0000E94DA3266E0C7010E941F331ACFC8018A
:1024F0000E94B20CC8010E94450E882309F411CF36
:10250000D80152962C91283609F487C70CF405C7D8
:102510002E3609F458C014F00C94D81B293611F447
:102520000C94631B2D3611F00C94BB1A6BE0F80170
:10253000868197810E941F337C016FE678E00E94BC
:10254000DA32D701ED91FC910280F381E02D6DE646
:10255000C701099566E0F801868197810E941F33C3
:1025600066E00E941F336BE00E941F337C0166E12E
:1025700078E00E94DA3266E0C7010E941F336BE008
:102580000E941F337C0165E378E00E94DA3266E046
:10259000C7010E941F336BE00E941F337C0167E577
:1025A00078E00E94DA3266E0C7010E941F33D8014A
:1025B00095961C92959781E055968C9361E0C801A1
:1025C0000E94E42FAECE6BE0F801868197810E94D5
:1025D0001F337C016DEC76E00E94DA3266E0C701C1
:1025E0000E941F33C8010E94650ED8015396CD90FA
:1025F000DC90549766E016968D919C9117970E94F7
:102600001F3366E00E941F336BE00E941F337C0182
:102610006CEB76E00E94DA32B601C7010E946433A7
:1026200066E00E941F33F8018289813761F679CE16
:10263000C8010E94450E882309F45EC0D801529655
:102640008C915297813709F402C6823709F054C041
:1026500066E0D80116968D919C9117970E941F33C2
:102660006BE00E941F337C0169E573E00E94DA325F
:10267000D701ED91FC910280F381E02D62E7C70163
:10268000099566E0C7010E941F33F80115A2C80131
:102690000E94680BD8019096DC90909766E01696A1
:1026A0008D919C9117970E941F3366E00E941F3303
:1026B0006BE00E941F337C0164E073E00E94DA3219
:1026C0006D2DC7010E9447346BE00E941F337C01CF
:1026D00069E273E00E94DA3266E0C7010E941F33AC
:1026E0006BE00E941F337C0162E373E00E94DA32E8
:1026F00066E0C7010E941F330FB6F8940F92E09175
:102700001A04F0911B04808591850F900FBE0FB6BF
:10271000F8940F92E0911804F091190450860F90EC
:102720000FBE0FB6F8940F92E0911C04F0911D04B7
:10273000918780870F900FBEF801568E938F828FFE
:1027400085A18111EECDC8010E94680BEACD6BE036
:10275000F801868197810E941F338C0161E171E04D
:102760000E94DA3266E0C8010E941F332BE088E144
:1027700090E00FB6F894A895809360000FBE209368
:102780006000FFCF8789882309F4CBCDC8010E9460
:10279000F90FC8010E94450E882309F4C2CDF80143
:1027A0008289813709F43FC1823709F4BACD0FB667
:1027B000F8940F92E0911604F0911704C084D1842C
:1027C000E284F3840F900FBE6BE0D80116968D91D2
:1027D0009C9117970E941F335C0163E972E00E948D
:1027E000DA3269E0C5010E9447346BE00E941F3372
:1027F0005C0166E972E00E94DA3260E1C5010E9484
:1028000047346BE00E941F335C0168E972E00E946C
:10281000DA326BE0C5010E941F335C016AE972E0A5
:102820000E94DA3260E0C5010E9447346BE00E94EA
:102830001F335C016DE972E00E94DA326BE0C50182
:102840000E941F335C016FE972E00E94DA3269E096
:10285000C5010E9447346BE00E941F335C0162EAAD
:1028600072E00E94DA3260E1C5010E9447346BE0F9
:102870000E941F335C0164EA72E00E94DA32B70101
:10288000A601C5010E9493330FB6F8940F92E09110
:102890001404F0911504C084D1840F900FBE6BE036
:1028A000F801868197810E941F337C0160E872E005
:1028B0000E94DA326AE0C7010E9447346BE00E944E
:1028C0001F337C0163E872E00E94DA3263E1C701E2
:1028D0000E9447346BE00E941F337C0165E872E080
:1028E0000E94DA326BE0C7010E941F337C0167E867
:1028F00072E00E94DA3260E0C7010E9447346BE068
:102900000E941F337C016AE872E00E94DA326BE0B9
:10291000C7010E941F337C016CE872E00E94DA322A
:102920006AE0C7010E9447346BE00E941F337C01BC
:102930006FE872E00E94DA3263E1C7010E94473417
:102940006BE00E941F337C0161E972E00E94DA3281
:10295000B601C7010E946433E4CC8689882309F458
:10296000E0CCC8010E949710C8010E94450E882340
:1029700009F4D7CCF8018289813709F4CEC08237B7
:1029800009F0CFCC6BE0868197810E941F337C01D8
:102990006FE172E00E94DA3266E0C7010E941F33E5
:1029A000C8010E94650EF801D38866E08681978190
:1029B0000E941F336BE00E941F337C016DE072E0C8
:1029C0000E94DA3266E0C7010E941F33C8010E94EC
:1029D000650ED80153964C9153976D2D96968D9117
:1029E0009C9197970E94DB2266E0F801868197818F
:1029F0000E941F3366E00E941F336BE00E941F336A
:102A00007C0169EF71E00E94DA3263E0C7010E9445
:102A10001F336D2D0E9447346BE00E941F337C01F1
:102A20006AE072E05CCD6BE0868197810E941F3383
:102A30007C0162EB72E00E94DA326BE0C7010E9417
:102A40001F337C0167EB72E00E94DA326BE0C70152
:102A50000E941F337C016DEB72E00E94DA32D701D5
:102A6000ED91FC910280F381E02D61E7C7010995AA
:102A700066E0C7010E941F3366E00E941F3366E0D4
:102A80000E941F336BE00E941F337C016AEC72E0EE
:102A90000E94DA3266E0C7010E941F336BE00E9499
:102AA0001F337C016DEE72E00E94DA3266E0C701EE
:102AB0000E941F3360E0C8010E94E42F81E0F8010A
:102AC000858B178A15A26BE0868197810E941F3340
:102AD0007C0166EA72E00E94DA326BE0C7010E9474
:102AE0001F337C016BEA72E00E94DA3261E0C701B9
:102AF0000E9447346BE00E941F337C016EEA72E053
:102B00000E94DA3261E0C7010E9447346BE00E9404
:102B10001F337C0160EB72E0E2CC6BE08681978131
:102B20000E941F337C0168E372E00E94DA326BE09E
:102B3000C7010E941F337C016DE372E00E94DA320C
:102B4000D701ED91FC910280F381E02D61E7C7018F
:102B5000099566E0C7010E941F3366E00E941F339B
:102B600066E00E941F336BE00E941F337C016AE421
:102B700072E00E94DA3266E0C7010E941F336BE008
:102B80000E941F337C016DE672E00E94DA3266E03B
:102B9000C7010E941F3360E0C8010E94E42FF801C2
:102BA000168A15A2BECBC8010E941711C8010E9447
:102BB000450E882309F450C0F8018289823709F450
:102BC00085C1833709F40EC1813709F045C06BE038
:102BD000868197810E941F337C016AEA71E00E941E
:102BE000DA326BE0C7010E941F337C016FEA71E0AB
:102BF0000E94DA32D701ED91FC910280F381E02D41
:102C000061E7C701099566E0C7010E941F3366E0CE
:102C10000E941F3366E00E941F336BE00E941F3347
:102C20007C016CEB71E00E94DA3266E0C7010E9421
:102C30001F336BE00E941F337C016FED71E00E9437
:102C4000DA3266E0C7010E941F3360E0C8010E94CB
:102C5000E42FF801108E15A261E0D80191968D91B4
:102C60009C9192970E94CE1F7C0162E0F80183A1A3
:102C700094A10E94CE1F97012150310937FD970181
:102C8000359527955901FFEFAF1AB1080FB6F894A3
:102C90000F92E0911804F091190481E080870F9061
:102CA0000FBE0FB6F8940F92E0911A04F0911B0436
:102CB000B186A0860F900FBE0FB6F8940F92E091E8
:102CC0001604F0911704C084D184E284F3840F9039
:102CD0000FBE0FB6F8940F920F900FBE0FB6F89478
:102CE0000F92E0911C04F0911D04808491840F9058
:102CF0000FBE6BE0D80116968D919C9117970E949C
:102D00001F333C016EE271E00E94DA3263E1C301DD
:102D10000E9447346BE00E941F333C0161E371E085
:102D20000E94DA3261E0C3010E9447346BE00E94E6
:102D30001F333C0163E371E00E94DA326BE0C301B0
:102D40000E941F333C0165E371E00E94DA3260E0CB
:102D5000C3010E9447346BE00E941F333C0168E3CB
:102D600071E00E94DA326BE0C3010E941F333C0124
:102D70006AE371E00E94DA32B401C3010E94643355
:102D80006BE00E941F334C0164E471E00E94DA3270
:102D90006BE0C4010E941F334C0166E471E00E94A5
:102DA000DA32B501C4010E9464336BE00E941F3324
:102DB0005C0168E471E00E94DA326BE0C5010E94B8
:102DC0001F335C016AE471E00E94DA32B701A601A8
:102DD000C5010E9493336BE00E941F337C016CE4B9
:102DE00071E07DCB66E0868197810E941F336BE0A6
:102DF0000E941F337C016CE871E00E94DA3266E0C9
:102E0000C7010E941F33C8010E94650EF801838923
:102E100094890FB6F8940F92E0911804F091190478
:102E200021E020870F900FBE0FB6F8940F92E0912B
:102E30001C04F0911D04918780870F900FBED8016C
:102E40005E962C935E975B969C938E935A975396BF
:102E5000CD90DC90549766E016968D919C911797D3
:102E60000E941F3366E00E941F336BE00E941F33F5
:102E70007C0164E671E00E94DA32B601C7010E946B
:102E800064336BE00E941F337C0163E771E00E94B2
:102E9000DA3266E0C7010E941F3366E00E941F33EA
:102EA0006BE00E941F337C0166E771E0C7010E945E
:102EB000DA3266E0C7010E941F3366E00E941F33CA
:102EC000F80115A2C8010E94680BC6CE6BE086818E
:102ED00097810E941F337C016EE471E0E7CF66E0CA
:102EE000868197810E941F336BE00E941F337C0113
:102EF0006BE474E00E94DA32D701ED91FC9102801C
:102F0000F381E02D60E7C701099566E0C7010E94E3
:102F10001F336BE00E941F337C0168E574E00E9460
:102F2000DA3266E0C7010E941F336BE0F801868148
:102F300097810E941F337C016FE274E00E94DA32B5
:102F400066E0C7010E941F3366E00E941F33D8016C
:102F50009096DC90909766E016968D919C911797CD
:102F60000E941F3366E00E941F336BE00E941F33F4
:102F70007C016AED73E00E94DA326D2DC7010E9478
:102F800047346BE00E941F337C016FEF73E00E94B7
:102F9000DA3266E0C7010E941F336BE00E941F33E4
:102FA0007C0168E074E00E94DA3266E0C7010E94AA
:102FB0001F3362E0C8010E94E42FF80115A20FB68A
:102FC000F8940F92E0911004F091110481E0808751
:102FD0000F900FBEA6C96BE0F801868197810E9411
:102FE0001F337C016AEA73E00E94DA32D701ED9167
:102FF000FC910280F381E02D61E7C701099566E04D
:10300000C7010E941F336BE00E941F337C0167EBF6
:1030100073E00E94DA3266E0C7010E941F3361E06C
:10302000C8010E94E42FF80115A281E0858B79C9BF
:10303000223609F474C0263609F02DC16BE0868172
:1030400097810E941F337C0169EC74E00E94DA32A0
:10305000D701ED91FC910280F381E02D66E6C70176
:10306000099566E0C7010E941F336BE0F801868175
:1030700097810E941F337C0164EB74E00E94DA3276
:1030800066E0C7010E941F330FB6F8940F92E091DB
:103090001804F091190482E080870F900FBE0FB6DC
:1030A000F8940F92E0911C04F0911D041186108693
:1030B0000F900FBED8015E968C935E975B961C9224
:1030C0001E925A9795961C92C8010E94680BF801AF
:1030D000D0A066E0868197810E941F336BE00E943A
:1030E0001F337C016EE774E00E94DA326D2DC70158
:1030F0000E9447346BE00E941F337C016EE874E04D
:103100000E94DA326BE0C7010E941F337C016BE939
:1031100074E0E5C915A2C8010E94F50A02C96BE076
:10312000868197810E941F337C0160E475E00E94D4
:10313000DA32D701ED91FC910280F381E02D62E655
:10314000C701099566E0C7010E941F336BE0F801D3
:10315000868197810E941F337C016EE175E00E9499
:10316000DA3266E0C7010E941F33C8010E94650E73
:10317000D8015396CD90DC90549766E016968D91C9
:103180009C9117970E941F3366E00E941F336BE0EB
:103190000E941F337C016CE075E00E94DA32B601B8
:1031A000C7010E9464336BE00E941F337C016BE116
:1031B00075E00E94DA3266E0C7010E941F33F80111
:1031C000838994890FB6F8940F92E0911804F091D6
:1031D000190410860F900FBE0FB6F8940F92E0916D
:1031E0001C04F0911D04918780870F900FBED801B9
:1031F0005E961C925E975B969C938E935A979596DB
:103200001C92C8010E94680BF801D0A066E086817C
:1032100097810E941F336BE00E941F337C0166ED93
:1032200074E00E94DA326D2DC7010E9447346BE0D2
:103230000E941F337C0166EE74E00E94DA326BE07C
:10324000C7010E941F337C0163EF74E048C966E048
:1032500016968D919C9117970E941F336BE00E94E8
:103260001F337C0166E673E00E94DA32D701ED91EC
:10327000FC910280F381E02D61E7C701099566E0CA
:10328000C7010E941F3361E0C8010E94E42FF801CA
:1032900015A20C94911166E0D80116968D919C911F
:1032A00017972F830E941F336BE00E941F337C010E
:1032B00060E973E00E94DA32D701ED91FC9102805F
:1032C000F381E02D2F81622FC70109956BE0C701C3
:1032D0000E941F337C0162E973E00E94DA3266E0EB
:1032E000C7010E941F33F801D0A066E08681978154
:1032F0000E941F336BE00E941F337C0163E773E081
:103300000E94DA326D2DC7010E9447346BE00E94A3
:103310001F337C0163E873E0E2C82F3309F47DC0FA
:103320000CF4DFC0243609F47DC0253609F023C132
:103330006BE0F801868197810E941F337C0169E070
:1033400078E00E94DA32D701ED91FC910280F3819E
:10335000E02D65E6C70109956BE0F801868197814C
:103360000E941F337C0161EA77E00E94DA326BE051
:10337000C7010E941F337C0166EA77E00E94DA32BF
:1033800061E0C7010E9447346BE00E941F337C015B
:1033900069EA77E00E94DA3261E0C7010E944734AF
:1033A0006BE00E941F337C016BEA77E00E94DA3207
:1033B0006BE0C7010E941F337C016DEA77E00E9439
:1033C000DA3266E0C7010E941F336BE00E941F33B0
:1033D0007C016EEC77E00E94DA3266E0C7010E9461
:1033E0001F336BE00E941F337C0160EF77E00E9487
:1033F000DA3266E0C7010E941F3366E00E941F3385
:10340000D80195961C92959781E057968C9363E02E
:10341000C8010E94E42F0C949111C8010E94CE0DA6
:103420000C9491116BE0D80116968D919C91179791
:103430000E941F337C0167E277E00E94DA32D701F5
:10344000ED91FC910280F381E02D64E6C7010995BE
:103450006BE0F801868197810E941F337C016EEF3B
:1034600076E00E94DA326BE0C7010E941F337C01D4
:1034700063E077E00E94DA3261E0C7010E944734DE
:103480006BE00E941F337C0166E077E00E94DA3235
:1034900061E0C7010E9447346BE00E941F337C014A
:1034A00068E077E00E94DA326BE0C7010E941F33C8
:1034B0007C016AE077E00E94DA3266E0C7010E9490
:1034C0001F3366E00E941F3365E0C8010E94E42FAD
:1034D00081E0D80158968C93589795961C920C943D
:1034E0009111233009F047C06BE0D80116968D91F9
:1034F0009C9117970E941F338C016EEA76E00E9420
:10350000DA3266E0C8010E941F332BE088E190E0C8
:103510000FB6F894A895809360000FBE20936000CA
:10352000FFCFC8012F830E946E0DC8010E94650E57
:10353000D80152968C9152972F81813709F475C02A
:10354000F801C388D488C60101970297A0F16BE007
:10355000868197812F830E941F337C016AEE75E07C
:103560000E94DA3266E0C7010E941F332F81F80102
:10357000258B0C949111F801E680F780D701ED912D
:10358000FC910280F381E02D62E2C7012F8309954F
:10359000D701ED91FC910280F381E02D2F81622F04
:1035A000C70109956BE0C7010E941F337C0166EAE1
:1035B00076E00C946F1266E0868197810E941F333B
:1035C00066E00E941F336BE00E941F337C0166EFB0
:1035D00075E00E94DA32B601C7010E94643362E0EE
:1035E0000E941F336BE00E941F337C0168E176E08C
:1035F0000E94DA3266E0C7010E941F336BE00E942E
:103600001F337C016AE176E00E94DA3266E0C7018E
:103610000E941F33F801838980A315A2158A61E0F7
:10362000C8010E94E42F0C9491116BE016968D91C5
:103630009C9117970E941F337C016DE476E00E94F5
:10364000DA32D701ED91FC910280F381E02D61E740
:10365000C701099566E0C7010E941F3366E00E941A
:103660001F3366E00E941F336BE00E941F337C0112
:103670006AE576E00E94DA3266E0C7010E941F33F5
:103680006BE00E941F337C016DE776E00E94DA3226
:1036900066E0C7010E941F336BE00E941F337C016C
:1036A00063E976E00E94DA3266E0C7010E941F33C8
:1036B000F801158A60E0C8010E94E42FD8019596B0
:1036C0001C920C9491116BE0F801868197810E9405
:1036D0001F337C0164E977E00E94DA32D701ED9173
:1036E000FC910280F381E02D69E6C70109956BE04A
:1036F000F801868197810E941F337C0164E377E0A3
:103700000E94DA326BE0C7010E941F337C0169E33B
:1037100077E00E94DA3261E0C7010E9447346BE033
:103720000E941F337C016CE377E00E94DA3261E093
:10373000C7010E9447346BE00E941F337C016EE397
:1037400077E00E94DA326BE0C7010E941F337C01F0
:1037500060E477E00E94DA3266E0C7010E941F331E
:103760006BE00E941F337C016DE577E00E94DA3246
:1037700066E0C7010E941F336BE00E941F337C018B
:103780006FE777E00E94DA3266E0C7010E941F33DC
:1037900066E00E941F33D80195961C92959781E0B0
:1037A00056968C9364E0C8010E94E42F0C9491110A
:1037B000233791F0243709F0DECECE0101960E9426
:1037C0007532BC01F801868197810E94143266E04F
:1037D0000E941F330C949111C8010E943C0F0C945D
:1037E00091110F931F93CF93DF93EC018DA1811162
:1037F0002CC06BE08E819F810E941F338C016BEF88
:1038000078E00E94DA3266E0C8010E941F336BE064
:103810008E819F810E941F338C0161EB78E00E94B2
:10382000DA3266E0C8010E941F336BE08E819F810F
:103830000E941F338C0162E878E00E94DA3266E071
:10384000C8010E941F3381E08DA3DF91CF911F91AA
:103850000F910895EF92FF920F931F93CF93DF93F1
:10386000EC010E942E2F8DEF92E0998388831DA298
:103870001F8A1E8A188E198E1D8A82E08E8F1B8EDB
:103880001A8E6BE08E819F810E941F336CE778E077
:103890000E94DA32FFA2EEA282E090E00E948D3216
:1038A0008C016E817F810E94AD1F1AA309A382E063
:1038B00090E00E948D328C016E817F810E94AD1F4D
:1038C0001CA30BA3DF91CF911F910F91FF90EF905D
:1038D0000895CF93DF9300D000D0CDB7DEB78C0131
:1038E0000E94D82969837A838B839C83809180008E
:1038F000816A80938000809181008A60809381003A
:1039000040E8E42EF12C1BC0823009F448C083301B
:1039100009F44BC0F80146855785608971894F5F6E
:103920005F4F6F4F7F4F46875787608B718B4AE0A1
:1039300050E060E070E0CE0101960E94782B0FB657
:10394000F8940F92E0911804F091190480850F907B
:103950000FBE813099F08111D7CF0FB6F8940F9236
:103960000F900FBEE0911A04F0911B0460857185E1
:10397000F801838994890E947E25CCCF0FB6F894F4
:103980000F920F900FBEE0911A04F0911B04608516
:103990007185F801838994890E940325BBCFF801C2
:1039A000838994890E94D225B5CF61E0F801858989
:1039B00096890E94CE1F97FD2CC095958795959569
:1039C000879580389105DCF08038910509F4A2CF05
:1039D0006701C81AD90ACC0CDD1CB601F80183892D
:1039E00094890E9403250FB6F8940F92E0911A046F
:1039F000F0911B04D186C0860F900FBE8BCF91959E
:103A000081959109880F991F6C01FFEFCF0ED11C92
:103A1000E4CF0396D2CFAF92CF92DF92EF92FF9294
:103A20000F931F93CF93DF93EC010E942E2F85E01D
:103A300093E099838883FC8AEB8ADE8ACD8AAA8AFE
:103A4000DF91CF911F910F91FF90EF90DF90CF907A
:103A5000AF900895CF93DF9300D000D0CDB7DEB7FD
:103A60008C010E94D82969837A838B839C83EE24FE
:103A7000EA948FE0F82E4FC0841795070CF068C0C9
:103A80009701241B350B280F391FF801378B268B24
:103A9000E0911604F09117040FB6F8940F920F906E
:103AA0000FBE0FB6F8940F92C901AA2797FDA095F3
:103AB000BA2F4085518562857385480F591F6A1F4B
:103AC0007B1F40875187628773870F900FBE0FB6A9
:103AD000F8940F92E0911404F09115043187208737
:103AE0000F900FBEF80184899589938B828B468550
:103AF0005785608971894F5F5F4F6F4F7F4F468752
:103B00005787608B718B41E050E060E070E0CE0140
:103B100001960E94782BF801808D918D0E949C2047
:103B2000F801958B848B428953899C01241B350BAA
:103B300037FD09C0B901653A764008F09DCFF8011C
:103B4000378B268BA5CF66277727621B730BF3CFA6
:103B50009C012F5F3F40241B350BF801378B268BD0
:103B600097CFEF92FF920F931F93CF93DF93EC01C8
:103B70000E942E2F8DE093E099838883F98EE88E42
:103B80001B8A1A8A1F8A1E8A1D8A1C8ADF91CF917E
:103B90001F910F91FF90EF90089577FD02C0CB0128
:103BA000089588279927861B970B0895CF93DF9355
:103BB00000D000D0CDB7DEB78C010E94D829698330
:103BC0007A838B839C830FB6F8940F920F900FBE6D
:103BD0000FB6F8940F920F900FBED8015496ED9146
:103BE000FC915597A084B1845296ED91FC91539726
:103BF000E084F184EA18FB085C966D917C915D97F6
:103C000094968D919C9195970E94B42640E054E043
:103C10000E94C6266C01F801628D738DC7010E9457
:103C20004D26B6010E946A26D8015B969C938E931E
:103C30005A9758962D913C9159976501C21AD30A0B
:103C40005996BC92AE925897BC0190968D919C91DA
:103C500091970E94B4262B013C016BE0F80186810C
:103C600097810E941F335C016FE672E10E94DA3295
:103C7000B301A201C5010E94933366E00E941F3385
:103C8000D8015A966D917C915B9792968D919C91FB
:103C900093970E94B4262B013C016BE0F8018681CA
:103CA00097810E941F335C016EE572E10E94DA3257
:103CB000B301A201C5010E94933366E00E941F3345
:103CC000B601D80192968D919C9193970E94B4264B
:103CD00040E054E00E94C6265C01F801628D738DBD
:103CE00080A191A10E94B42640E054E00E94C62623
:103CF000B5010E944D263C016BE0D80116968D91CE
:103D00009C9117970E941F335C0163E572E10E944A
:103D1000DA32B301C5010E94643366E00E941F33AA
:103D2000B701F801868D978D0E94B4262B013C01C6
:103D30006BE0D80116968D919C9117970E941F33C6
:103D40005C0164E472E10E94DA32B301A201C501B0
:103D50000E94933366E00E941F33B601F80182A1EE
:103D600093A10E94B42640E054E00E94C6265C0164
:103D7000D8015A966D917C915B9790968D919C910C
:103D800091970E94B42640E054E00E94C626B501F7
:103D90000E944D265C01B701F801868D978D0E9427
:103DA000B42640E054E00E94C626B5010E944D268C
:103DB0003C016BE0D80116968D919C9117970E945B
:103DC0001F335C0169E372E10E94DA32B301C5017D
:103DD0000E94643366E00E941F33B601F80182A19D
:103DE00093A10E94B42640E054E00E94C6266C01D4
:103DF000D8015A966D917C915B9790968D919C918C
:103E000091970E94B42640E054E00E94C626B60175
:103E10000E944D266C01B701F801868D978D0E9496
:103E2000B42640E054E00E94C626B6010E944D260A
:103E30006C016BE0D80116968D919C9117970E94AA
:103E40001F337C0161E372E10E94DA32B601C701DF
:103E50000E94643366E00E941F33F801E0A4F1A4DD
:103E6000EC14FD043CF086A197A17601C816D90692
:103E70000CF47C01B701C6010E946A26D8015D9648
:103E80009C938E935C970FB6F8940F92D801569638
:103E9000ED91FC915797F186E0860F900FBE6BE095
:103EA000F801868197810E941F336C0168E272E1FC
:103EB0000E94DA32B701C6010E94643366E00E94B4
:103EC0001F3348EE53E060E070E0CE0101960E949F
:103ED000782B79CE6F927F928F929F92AF92BF9202
:103EE000CF92DF92EF92FF920F931F93CF93DF93C6
:103EF000CDB7DEB73C010E942E2F85E193E0F301A0
:103F000091838083F38AE28AD58AC48AB78AA68A93
:103F1000978E868E89899A8991A380A38B899C89A3
:103F200093A382A38D899E8995A384A38F89988D5D
:103F300097A386A3898D9A8D91A780A7DF91CF91B2
:103F40001F910F91FF90EF90DF90CF90BF90AF90B7
:103F50009F908F907F906F900895CF93DF93FC0197
:103F60007183608320917C00206420937C002091E9
:103F70007A00256C20937A00C081D181209759F076
:103F800069E173E0CE010E94DA3266E0CE01DF9192
:103F9000CF910C941F33DF91CF910895683008F0D2
:103FA00060E080917C00887F80937C0080917C0021
:103FB000862B80937C0080917A00806480937A00C5
:103FC00080917A0086FDFCCF809178002091790065
:103FD00090E0922B0895DF92EF92FF920F931F9340
:103FE000CF93DF938C01D62EE42E80E48417E0F487
:103FF00080E4E82EF12CC0E0D0E06D2DC8010E94D5
:10400000CE1FC80FD91FF394FE10F7CF6E2D70E0AE
:10401000CE010E945540CB01DF91CF911F910F91AE
:10402000FF90EF90DF9008954111E4CFC0E0D0E021
:10403000EDCF0F931F93CF93DF93EC016BE00E94C2
:104040001F338C0161E872E10E94DA3266E0C80138
:104050000E941F336BE00E941F338C016CE972E1F8
:104060000E94DA3266E0C8010E941F33CE01DF9160
:10407000CF911F910F910895CF92EF92FF920F93DE
:10408000CF93DF93FC017183608353834283248346
:1040900035830683E782F086C186DA0111971C9288
:1040A000A281B3811C92A481B5816C9181E090E0E2
:1040B000AC01068002C0440F551F0A94E2F7642B3E
:1040C0006C93A781B0856C91AC01018402C0440F50
:1040D000551F0A94E2F7642B6C93D9014E919C0111
:1040E000068002C0220F331F0A94E2F7422B4C9342
:1040F000D7012E91018402C0880F991F0A94E2F71C
:10410000282B2C93C081D181209779F06DE473E046
:10411000CE010E94DA3266E0CE01DF91CF910F919D
:10412000FF90EF90CF900C941F33DF91CF910F91C0
:10413000FF90EF90CF900895CF93DF93FC01A28181
:10414000B381C781D085488121E030E0C901018475
:1041500002C0880F991F0A94E2F780958423888310
:10416000C481D5814881C901068002C0880F991F8A
:104170000A94E2F780958423888312978C9190E0CB
:10418000982F8827C781D0856881A901018402C042
:10419000440F551F0A94E2F7642B68835C91A48155
:1041A000B5814C91068002C0220F331F0A94E2F7BA
:1041B000422B4C93852BDF91CF910895BF92CF92E4
:1041C000DF92EF92FF920F931F93CF93DF93EC0157
:1041D000FB01FF24F39482819381892B09F4F12C54
:1041E000E184DD24D39487819085892B09F4D12C37
:1041F000B680CC24C39484819581892B09F4C12C89
:104200006BE0CE010E941F338C016BEA72E10E94C9
:10421000DA3262E0C8010E941F3366E00E941F3359
:104220006BE00E941F338C016FEC72E10E94DA3266
:104230006C2DC8010E94AA328C0163E773E00E94D2
:10424000DA326B2DC8010E94473466E00E941F33AA
:104250006BE00E941F338C0168ED72E10E94DA323C
:1042600066E0C8010E941F336BE00E941F338C017F
:1042700067EE72E10E94DA326D2DC8010E94AA3207
:104280008C0163E773E00E94DA326E2DC8010E9450
:10429000473466E00E941F336BE00E941F338C019D
:1042A00061EF72E10E94DA326F2DC8010E94AA32DA
:1042B00066E00E941F33CE01DF91CF911F910F91D5
:1042C000FF90EF90DF90CF90BF900895FF920F93F3
:1042D0001F93CF93DF93E4E6F0E020812F772083D4
:1042E000A9EBB0E02C912C7F2C9368EB70E028E4D4
:1042F000EB0128832CEB30E0E90148814E7F4883B5
:10430000EB0118810C91F0806BE0FC0180819181C0
:104310000E941F33EC0160E174E10E94DA3266E032
:10432000CE010E941F336BE00E941F33EC0165E257
:1043300074E10E94DA3260E0CE010E941F336F2DDB
:104340000E94473466E00E941F336BE00E941F33D7
:10435000EC0167E474E10E94DA3260E0CE010E9471
:104360001F33602F0E94473466E00E941F336BE0CA
:104370000E941F33EC016CE674E10E94DA32612F77
:10438000CE010E94473466E0DF91CF911F910F91DB
:10439000FF900C941F33EF920F931F93CF93DF93F3
:1043A000EC015D834C83798368830E83EF823B83CA
:1043B0002A8319861A861B861C86188688E28D87B2
:1043C00080E58E8781E58F87FA01208181E090E08A
:1043D000BC0102C0660F771F0A95E2F70E2C01C0E0
:1043E000880F0A94EAF7862B822B8083CE010E94E5
:1043F00066210990D881C02D209771F065E773E0A0
:10440000CE010E94DA3266E0CE01DF91CF911F919A
:104410000F91EF900C941F33DF91CF911F910F916B
:10442000EF900895CF93DF936115710599F0613096
:104430007105B1F06BE0FC01808191810E941F3316
:10444000EC0161E573E10E94DA3266E0CE010E9480
:104450001F33FFCF84E88093BC00DF91CF91089594
:10446000DF91CF910C94C43FFF920F931F93CF9392
:10447000DF938C018091BC0087FD13C06BE0F801D5
:10448000808191810E941F33EC0167E473E10E94F7
:10449000DA3266E0CE010E941F338091BC0087FFB4
:1044A000EDCFF801F084F394F0866BE08081918188
:1044B0000E941F33EC016CE373E10E94DA326F2D2E
:1044C000CE010E94473466E00E941F33F090B9008D
:1044D0006BE0F801808191810E941F33EC0163E35E
:1044E00073E10E94DA3263E0CE010E941F336F2D28
:1044F0000E94473466E0DF91CF911F910F91FF90AA
:104500000C941F33DF92EF92FF920F931F93CF9380
:10451000DF93EC018B018091B900887F90E08617D2
:10452000970709F440C0D8846BE0888199810E9484
:104530001F337C0168E273E10E94DA3263E0C70155
:104540000E941F336D2D0E94473466E00E941F3386
:104550006BE0888199810E941F337C016FE173E1D8
:104560000E94DA3263E0C7010E941F33B8010E9443
:10457000643366E00E941F331091B9006BE08881BC
:1045800099810E941F33EC0164E173E10E94DA32E9
:1045900063E0CE010E941F33612F0E94473466E022
:1045A0000E941F33FFCFDF91CF911F910F91FF909A
:1045B000EF90DF9008959F92AF92BF92CF92DF92DB
:1045C000EF92FF920F931F93CF93DF93EC01A62EF0
:1045D000B42E19861A861B861C86FD846BE08881A2
:1045E00099810E941F338C0160E074E10E94DA32ED
:1045F00063E0C8010E941F336F2D0E94473466E0BC
:104600000E941F33FD846BE0888199810E941F33D3
:104610008C0162EF73E10E94DA3263E0C8010E940C
:104620001F336F2D0E94473466E00E941F33FE84C3
:104630006BE0888199810E941F338C016EED73E1DC
:104640000E94DA3263E0C8010E941F336F2D0E947E
:10465000473466E00E941F33FF846BE088819981B4
:104660000E941F338C016BEC73E10E94DA3263E02D
:10467000C8010E941F336F2D0E94473466E00E94DC
:104680001F336BE0888199810E941F338C016BEB93
:1046900073E10E94DA3263E0C8010E941F336A2D81
:1046A0000E94473466E00E941F33C984DA84EB8499
:1046B000FC846BE0888199810E941F338C016CEA35
:1046C00073E10E94DA3263E0C8010E941F33B70130
:1046D000A6010E94FF3366E00E941F3304EA0093A4
:1046E000BC00CE010E94342268E070E0CE010E943E
:1046F00082228E858093BB0014E81093BC00CE010B
:104700000E94342268E170E0CE010E948222A092D1
:10471000BB001093BC00CE010E94342268E270E01E
:10472000CE010E9482220093BC00CE010E9434225E
:1047300060E170E0CE010E9482228F858093BB00F1
:104740001093BC00CE010E94342260E470E0CE01E0
:104750000E948222F090BB006BE0888199810E94C8
:104760001F338C0165E973E10E94DA3263E0C8010E
:104770000E941F336FEF7FEF0E9464336BE00E9453
:104780001F338C0168EA73E10E94DA3263E0C801EA
:104790000E941F336F2D0E94473466E00E941F3332
:1047A000CE010E94C43FCE010E94342260E570E039
:1047B000CE010E948222EB2CF12C82E0E816F1045B
:1047C0000CF4A1C001E010E0912CA12C03C0902EAC
:1047D000A12E8C01B090BB006BE0888199810E9472
:1047E0001F336C0162E873E10E94DA3263E0C601B4
:1047F0000E941F33692D7A2D0E9464336BE00E9462
:104800001F336C0161E973E10E94DA3263E0C60193
:104810000E941F336B2D0E94473466E00E941F33B5
:104820008091BB0049855A856B857C85482B762F06
:10483000652F542F442749875A876B877C87CE0181
:104840000E94C43FCE010E94342260E570E0CE0198
:104850000E948222C80101968E159F050CF4B7CFE5
:10486000BB24BA94BE0C8091BB0049855A856B85E8
:104870007C85482B49875A876B877C8784E880939F
:10488000BC00CE010E94342268E570E0CE010E9497
:10489000822284E98093BC00C984DA84EB84FC849E
:1048A0006BE0888199810E941F338C0161E773E17D
:1048B0000E94DA3263E0C8010E941F33B701A601EB
:1048C0000E94FF3366E00E941F3349855A856B853D
:1048D0007C850FB6F8940F92E0911204F0911304C6
:1048E00040875187628773870F900FBE8B2DDF91B2
:1048F000CF911F910F91FF90EF90DF90CF90BF90DD
:10490000AF909F900895B12CAECFFC0141855285A8
:1049100063857485762F652F542F442741875287EE
:10492000638774870895262FFC014185528563852E
:104930007485422B418752876387748708950F934C
:104940001F93CF93DF93EC016BE00E941F338C0128
:1049500061E073E10E94DA3266E0C8010E941F3311
:10496000CE01DF91CF911F910F9108956F927F92A9
:104970008F92AF92CF92EF92FF920F931F93CF93AC
:10498000DF93CDB7DEB7FC013B018E857183608379
:10499000558344833187208715870487F38AE28A09
:1049A000C686A786808A818B4150510953834283F2
:1049B000215031093783268301501109138702875B
:1049C00061157105A1F068E973E0C3010E94DA3254
:1049D00066E0C301DF91CF911F910F91FF90EF909F
:1049E000CF90AF908F907F906F900C941F33DF919A
:1049F000CF911F910F91FF90EF90CF90AF908F903C
:104A00007F906F900895CF93FC01A281B381CC91E8
:104A100081E090E0AC01068402C0440F551F0A9467
:104A2000E2F79C01078402C0220F331F0A94E2F7C9
:104A3000242B2C2B2C93A681B7814C919C010088B0
:104A400002C0220F331F0A94E2F7209524232C93EF
:104A5000A285B3854C919C01018802C0220F331FAF
:104A60000A94E2F7422B4C93A085B1854C919C01AE
:104A7000008802C0220F331F0A94E2F7422B4C93A6
:104A8000A481B5814C919C0177FD1BC0068402C0B6
:104A9000220F331F0A94E2F7422B4C93A481B58175
:104AA0002C91078402C0880F991F0A94E2F7809521
:104AB00082238C930288F389E02D71836083CF91E8
:104AC0000895078402C0220F331F0A94E2F7422B95
:104AD0004C93A481B5812C91068402C0880F991F44
:104AE0000A94E2F7809582238C930288F389E02D63
:104AF00071956195710971836083E1CFFC01A28199
:104B0000B3816C9181E090E0AC01068402C0440F57
:104B1000551F0A94E2F79C01078402C0220F331F3D
:104B20000A94E2F7242B262B2C93A681B7814C9173
:104B30009C01008802C0220F331F0A94E2F72095DF
:104B400024232C93A285B3854C919C01018802C03B
:104B5000220F331F0A94E2F7422B4C93A085B185B4
:104B60004C919C01008802C0220F331F0A94E2F787
:104B7000422B4C93A481B5814C919C01068402C0C8
:104B8000220F331F0A94E2F7422B4C93A481B58184
:104B90002C91078402C0880F991F0A94E2F7282BF2
:104BA0002C930895FC01A281B3816C9181E090E087
:104BB000AC01068402C0440F551F0A94E2F79C0121
:104BC000078402C0220F331F0A94E2F7242B262BFE
:104BD0002C93A681B7814C919C01008802C0220FC2
:104BE000331F0A94E2F7209524232C93A285B385E2
:104BF0004C919C01018802C0220F331F0A94E2F7F6
:104C0000422B4C93A085B1854C919C01008802C039
:104C1000220F331F0A94E2F7422B4C93A481B581F3
:104C20004C919C01068402C0220F331F0A94E2F7C4
:104C3000209524232C93A481B5812C91078402C054
:104C4000880F991F0A94E2F7809582238C93089528
:104C5000EF92FF920F931F93CF93DF93EC01DB0151
:104C60005296ED91FC915397E080F1806BE00E94A9
:104C70001F338C0167E874E10E94DA32B701C80182
:104C80000E94C53366E00E941F33CE01DF91CF91B1
:104C90001F910F91FF90EF9008959C01432F409535
:104CA000441F4427441F80E090E8841B9109AC0115
:104CB000421B530BE1E0461757070CF0E0E0432F8F
:104CC0004095441F4427441FE41719F0C901860F7B
:104CD000971F08958617970799F1611520E87207C5
:104CE00041F1719561957109492F4095441F442701
:104CF000441F20E030E8241B3109A901481B590B4F
:104D0000E1E04617570764F4492F4095441F4427B4
:104D1000441FE41719F0860F971F0895C9010895DD
:104D2000E0E0492F4095441F4427441FE417B1F3A6
:104D3000F2CF97FD03C06FEF7FE7D6CF0196FBCF91
:104D400080E090E00895811520E8920729F09C0109
:104D500097FD05C0C90108958FEF9FE7089531952C
:104D600021953109C9010895811520E8920729F09C
:104D70009C01DB010E941C400895611520E8720728
:104D8000B9F76FEF7FEF8FEF9FE708959A01442700
:104D900037FD4095542F0E948B40211580E838073D
:104DA0004105510524F02FEF3FE740E050E0DA01E4
:104DB000C901811520E892072FEFA207B20724F45A
:104DC00080E090E8AFEFBFEF08950F931F93CF936C
:104DD000DF93EC010E94D22980912004811121C02F
:104DE0008AE294E09093260480932504109228048C
:104DF0001092270487E397E190932404809323047F
:104E0000109222041092210490932D0480932C047C
:104E100081E294E090932B0480932A0481E08093B4
:104E20002004209709F460C0AE014C5F5F4F2396C9
:104E3000C633D74108F058C0E0912504F09126040C
:104E4000A5E2B4E006C080819181009739F0DF01CE
:104E5000FC012281338124173507A8F3C4E0E13235
:104E6000FC0709F441C00D911C9111970C5F1F4F75
:104E7000808191818D939C93C901841B950B89300E
:104E8000910500F1BF01640F751FDB0113969C9320
:104E90008E9312975383428312968D919C91139710
:104EA000A5E2B4E001C0DF01ED91FC9111972281F0
:104EB000338128173907B8F3EB01F983E8836D9341
:104EC0007C939A018091000290910102821B930BC6
:104ED00090930102809300020E94052BC801DF918C
:104EE000CF911F910F91089500E010E00E94052BD3
:104EF000C801DF91CF911F910F910895CF93DF9358
:104F0000009721F1EC0124970E94D2294A815B810C
:104F1000A5E2B4E001C0DF01ED91FC91119722817F
:104F2000338124173507B8F3F983E883CD93DC93F5
:104F30008091000290910102840F951F90930102CD
:104F400080930002DF91CF910C94052BDF91CF91DC
:104F50000895809100029091010208950895809132
:104F6000961B823018F00E94C537F9CFFFCFCF9241
:104F7000DF92EF92FF926B017C01E091611BF09157
:104F8000621B628373838483958380916A1B9091F3
:104F90006B1BA0916C1BB0916D1B6091611B70919C
:104FA000621BC816D906EA06FB0610F180917E1B2B
:104FB00090917F1B6E5F7F4F0E948C368091020222
:104FC00090910302A0910402B0910502C816D9067F
:104FD000EA06FB0640F4C0920202D0920302E0927D
:104FE0000402F0920502FF90EF90DF90CF900895B9
:104FF00080917C1B90917D1B6E5F7F4FFF90EF90A7
:10500000DF90CF900C948C365F926F927F928F924C
:105010009F92AF92BF92CF92DF92EF92FF920F9347
:105020001F93CF93DF934C01162F572E5A0139014E
:1050300089E290E00E94E526EC01009709F4E9C0BE
:10504000C114D10409F4DAC0DC8ECB8EC601A501EF
:1050500065EA70E00E94AF4121E0A21AB108CB8C52
:10506000DC8CCA0CDB1CAE01435E5F4FE12FF52DDB
:105070002AE0CF013191DA013D93AD01DC018C9141
:10508000882311F02150A9F71EA2102F043008F038
:105090007DC01A8F1FA318A65E01B2E0AB0EB11C33
:1050A000C5010E946736CE010E960E946736DB87E7
:1050B000CA8784E090E0A0E0B0E0811B9109A109DB
:1050C000B1098E879F87A88BB98BDF8BCE8BA3010D
:1050D000B401C6010E94F53699838883E114F10476
:1050E00019F0F701D183C0830FB6F8940F92809125
:1050F0006E1B8F5F80936E1B8091611B9091621B72
:10510000892B09F449C08091681B81110BC0E09183
:10511000611BF091621B828D081720F0D093621BF7
:10512000C093611B8091641B8F5F8093641B8A8D89
:105130009091691B981738F1FBE08F9FC0011124F3
:10514000B5018A56944E0E946B360F900FBE809127
:10515000681B882339F0E091611BF091621B828DFE
:105160008017B0F081E0DF91CF911F910F91FF90F8
:10517000EF90DF90CF90BF90AF909F908F907F90F7
:105180006F905F9008958093691BD6CF13E081CF15
:105190000E94C53781E0E7CFD093621BC093611BAB
:1051A00080916E1B813009F0BDCF86E99BE10E94A2
:1051B000563681EA9BE10E9456368CEA9BE10E94BA
:1051C000563687EB9BE10E9456368BE89BE10E94A6
:1051D000563680E89BE10E94563681E79BE10E94AB
:1051E00056368BE89BE190937F1B80937E1B80E873
:1051F0009BE190937D1B80937C1B94CFC5010E9403
:10520000E5269C8F8B8F009709F021CFCE010E945D
:105210007E278FEFA8CF0FB6F8940F92009729F052
:105220000F900FBEFC01828D08958091611B9091BB
:10523000621B0F900FBEFC01828D0895EF92FF92CA
:105240001F93CF93DF93EC01262F643008F023E007
:105250000FB6F8940F92209709F44AC03FA1321775
:10526000A9F18091611B9091621B3217B8F5C817A4
:10527000D90741F0E091611BF091621B11E0828D32
:10528000281708F410E08A8D381769F12FA34E858E
:105290005F856889798977FD0CC044E050E060E063
:1052A00070E0421B5109610971094E875F87688B65
:1052B000798B2BE0829FC00111248A56944E2C8555
:1052C0003D8528173907C9F0113079F00F900FBECE
:1052D000DF91CF911F91FF90EF90089511E0C817D3
:1052E000D90781F6D0CF2A8FD1CF0E94C537EECF14
:1052F000C091611BD091621BB1CF7E0182E0E80EAC
:10530000F11CC7010E94C9368A8D9091691B9817BC
:1053100010F48093691B2BE0829FC0011124B70118
:105320008A56944E0E946B36CFCFAF92BF92CF92E7
:10533000DF92EF92FF920F93A12CB12CC12CD12CB4
:105340008FE6E82E8BE1F82E00E020E030E044E626
:1053500050E06DEB73E08FEA97E20E940428813001
:1053600041F00F91FF90EF90DF90CF90BF90AF9002
:105370000895F8948093681B10926A1B10926B1B1F
:1053800010926C1B10926D1B0F91FF90EF90DF90AD
:10539000CF90BF90AF900C948937F8941092681B0F
:1053A0000C94C4378091631B8F5F8093631B0895B7
:1053B0000FB6F8940F9260916A1B70916B1B8091ED
:1053C0006C1B90916D1B0F900FBE089560916A1B2E
:1053D00070916B1B80916C1B90916D1B0895809157
:1053E0006E1B0895009711F04D9608958091611BF2
:1053F0009091621B4D96089580916F1B9091701B48
:105400000895AF92BF92CF92DF92EF92FF920F93E7
:105410001F93CF93DF938091631B8111CFC0809145
:105420006A1B90916B1BA0916C1BB0916D1B019638
:10543000A11DB11D80936A1B90936B1BA0936C1BE5
:10544000B0936D1BC0906A1BD0906B1BE0906C1BDF
:10545000F0906D1BC114D104E104F10439F5809181
:105460007E1B90917F1B20917C1B30917D1B309384
:105470007F1B20937E1B90937D1B80937C1B8091D0
:10548000651B8F5F8093651BE0917E1BF0917F1BF6
:10549000808181119AC08FEF9FEFDC01809302021F
:1054A00090930302A0930402B0930502809102023C
:1054B00090910302A0910402B0910502B12CC8168C
:1054C000D906EA06FB0608F457C09BE0A92EE09136
:1054D0007E1BF0917F1B8081882309F442C0E091FC
:1054E0007E1BF0917F1B0780F085E02DC085D18564
:1054F0004A815B816C817D81C416D506E606F7067C
:1055000008F47AC08E010E5F1F4FC8010E94C93691
:10551000888D998D892B21F0CE010E960E94C93677
:105520008A8D9091691B981710F48093691BA89E2F
:10553000C0011124B8018A56944E0E946B36E09146
:10554000611BF091621B9A8D828D981708F4BFCF72
:10555000BB24B394E0917E1BF0917F1B808181116D
:10556000BECF4FEF5FEFBA014093020250930302A8
:105570006093040270930502E091611BF091621B3D
:10558000E28D8BE0E89FF0011124EA56F44E808111
:10559000823010F0BB24B3948091661B882311F0F5
:1055A000BB24B3948B2DDF91CF911F910F91FF906E
:1055B000EF90DF90CF90BF90AF9008958091671BE0
:1055C0008F5F8093671BB12CE7CFE0917E1BF0913A
:1055D0007F1B0780F085E02D0084F185E02D82811E
:1055E0009381A481B5818093020290930302A093DA
:1055F0000402B09305025ACF409302025093030273
:105600006093040270930502B7CFEF92FF920F935D
:105610001F93CF93DF930FB6F8940F928091631B83
:1056200081508093631B8091631B811150C08091D6
:105630006E1B882309F44BC02BE0F22EEE24E3947A
:1056400027C0E091781BF091791BC085D185CE01F0
:105650000E960E94C9368E010E5F1F4FC8010E9430
:10566000C9368A8D9091691B981710F48093691B35
:10567000F89EC0011124B8018A56944E0E946B36E0
:10568000E091611BF091621B9A8D828D981748F50D
:105690008091711B8111D5CF8091671B882399F070
:1056A0008091671B882379F0C1E00E94012A811153
:1056B000C093661B8091671B81508093671B80910C
:1056C000671B8111F2CF8091661B813069F080E009
:1056D0000F900FBEDF91CF911F910F91FF90EF9030
:1056E0000895E092661BD4CF0E94C53781E0F0CFC9
:1056F000CF92DF92EF92FF920F931F93CF93DF939E
:1057000000D000D0CDB7DEB72091631B2F5F209370
:10571000631BC0906A1BD0906B1BE0906C1BF090D9
:105720006D1BFC010081118122813381400F511FCB
:10573000621F731FC016D106E206F306E8F4401795
:10574000510762077307E8F0FC01408351836283CD
:1057500073830E94052B811102C00E94C5370F90F0
:105760000F900F900F90DF91CF911F910F91FF90AD
:10577000EF90DF90CF9008954017510762077307AD
:1057800028F0C416D506E606F706F0F6FC014083BD
:105790005183628373838091611B9091621B029697
:1057A00049835A836B837C830E94C93649815A811D
:1057B0006B817C81CB01BA010E94B727CACFCF92FF
:1057C000DF92EF92FF92611571058105910539F421
:1057D0000E94C537FF90EF90DF90CF900895209101
:1057E000631B2F5F2093631BC0906A1BD0906B1BC1
:1057F000E0906C1BF0906D1BC60ED71EE81EF91EC4
:105800008091611B9091621B02960E94C936C7016C
:10581000B6010E94B7270E94052B8823C9F2FF908A
:10582000EF90DF90CF9008958091631B81113BC072
:105830001092661BE091691B8BE0E89FF001112438
:10584000EA56F44E8081811110C09BE08091691B63
:1058500081508093691BE091691B9E9FF001112488
:10586000EA56F44E8081882389F3E091691B8BE02E
:10587000E89FF0011124EA56F44EA181B2811496FA
:105880000D90BC91A02DB283A183CF010396A817E0
:10589000B90769F018968D919C9119979093621BA6
:1058A0008093611B089581E08093661B0895149690
:1058B0009C91149715968C9191838283A92FB82F70
:1058C000E9CFCF92DF92EF92FF926A017B01609164
:1058D000611B7091621B625F7F4F0E948C368091CA
:1058E000611B9091621B02960E94C93660916A1BEF
:1058F00070916B1B80916C1B90916D1B6C0D7D1DCD
:105900008E1D9F1DFF90EF90DF90CF900C94B727D6
:10591000CF92DF92EF92FF920F931F93680179016C
:10592000E091611BF091621B706846875787608B1E
:10593000718B6091611B7091621B625F7F4F0E944F
:105940006B368091611B9091621B02960E94C93652
:1059500060916A1B70916B1B80916C1B90916D1B09
:105960006C0D7D1D8E1D9F1D1F910F91FF90EF905F
:10597000DF90CF900C94B7270F931F93CF93DF93B3
:10598000DC011796ED91FC911897C085D1858E01A9
:10599000025F1F4FC8010E94C9368091631B8111AD
:1059A00024C08E010E5F1F4FC8010E94C9368A8D28
:1059B0009091691B9817F8F0BBE08B9FC0011124F0
:1059C000B8018A56944E0E946B36E091611BF091AB
:1059D000621B9A8D828D891788F481E08093661B03
:1059E000DF91CF911F910F910895B80181E79BE15D
:1059F0000E946B36EACF8093691BDECF80E0DF9197
:105A0000CF911F910F9108950F931F93CF93DF9321
:105A10007068FC014083518362837383C085D185A4
:105A20000E94C9368E010E5F1F4FC8010E94C93601
:105A30008A8D9091691B981710F48093691BFBE085
:105A40008F9FC0011124B8018A56944E0E946B3674
:105A5000E091611BF091621B9A8D828D891740F451
:105A600081E08093661BDF91CF911F910F91089584
:105A700080E0DF91CF911F910F9108952091651BD8
:105A8000FC01208340916A1B50916B1B60916C1B41
:105A900070916D1B418352836383748308958F9249
:105AA0009F92AF92BF92CF92DF92EF92FF920F93AD
:105AB0001F93FC01DB010FB6F8940F9240916A1B13
:105AC00050916B1B60916C1B70916D1B8091651BDD
:105AD00090810181128123813481981729F0401728
