:100000000C9425070C9444070C9444070C94440763
:100010000C9444070C9444070C9444070C94D51694
:100020000C9447170C9444070C9444070C94440711
:100030000C9444070C9444070C9444070C94440714
:100040000C9444070C9444070C9444070C94440704
:100050000C9444070C9444070C9444070C944407F4
:100060000C9444070C94E9270C9444070C9444071F
:100070000C9444070C9444070C9444070C944407D4
:100080000C9444070C9444070C9444070C944407C4
:100090000C943C280C9444070C9444070C9444079B
:1000A0000C9444070C9444070C9444070C944407A4
:1000B0000C9444070C9444070C9444070C94B32A02
:1000C0000C9444070C9444070C94440765256E2552
:1000D0007125742567256725772587258E25952524
:1000E00099256B254D45343035204C6162203320F5
:1000F000456E636F64657220436F6E74726F6C6CD3
:1001000065722050726F6772616D007C090920274B
:100110007127202020207175697420746F206D6113
:10012000696E206D656E7520202020202020202003
:1001300020202020202009097C007C09092027722A
:1001400027202020205265667265736820746865D8
:100150002064617461202020202020202020202085
:10016000202020202009097C007C2D2D2D2D2D2DD7
:100170002D2D2D2D2D2D2D2D2D2D2D2D2D2D2D2DAF
:100180002D2D2D2D2D2D2D2D2D2D2D2D2D2D2D2D9F
:100190002D2D2D2D2D2D2D2D2D2D2D2D2D2D2D2D8F
:1001A0002D2D2D2D2D2D2D2D2D7C007C0909202070
:1001B000202020202020456E636F64657220436FED
:1001C0006E74726F6C204D6F64756C6520202020FA
:1001D00020202020202009097C004D453430352086
:1001E0004C6162203320456E636F646572204472F7
:1001F0006976657220496E746567726174696F6EA5
:100200000041707220323820323031360053797319
:1002100074656D2074696D653A20002C2048656115
:10022000703A20002C204F435235413A20003C695F
:100230006E76616C69642063686172202200223EE0
:10024000002020683A202020202048414C502100E6
:10025000202043746C2D433A2052657365742074DA
:100260006865204156520020206E3A202020202030
:10027000456E7465722061206E756D62657220280E
:1002800064656D6F29002020643A202020202053CF
:100290007461636B2064756D7020666F7220746189
:1002A000736B73002020733A202020202056657243
:1002B00073696F6E20616E64207365747570206958
:1002C0006E666F726D6174696F6E002020743A20E3
:1002D0002020202053686F77207468652074696D32
:1002E00065207269676874206E6F77004D45343001
:1002F00035204C6162203320456E636F6465722047
:1003000044726976657220496E74656772617469BA
:100310006F6E002068656C70004D6F746F722032D4
:1003200009090009000909002D2D2D2D2D2D2D095C
:10033000092D2D2D2D2D2D2D2D092D2D2D2D2D2D35
:100340002D09092D2D2D2D2D2D2D2D2D2D2D004D32
:100350006F746F7209095374617475730909506F72
:100360007765720909446972656374696F6E002D5F
:100370002D2D2D2D2D2D09092D2D2D2D2D2D2D2DF5
:10038000092D2D2D2D2D2D2D09092D2D2D2D2D2D09
:100390002D2D2D2D2D004D6F746F72203109090008
:1003A00009000909007C0909202771272020202045
:1003B0002052657475726E20746F20707265766954
:1003C0006F7573206D656E752009097C007C0909C5
:1003D000202770272020202020456E746572205031
:1003E0006F74656E74696F6D65746572204D6F64AE
:1003F0006509097C007C0909202766272020202028
:100400002046726565776865656C206D6F746F72E4
:1004100020202020202020202009097C007C0909A0
:100420002027622720202020204170706C792074C2
:100430006865206D6F746F72206272616B65202039
:100440002009097C007C090920277327202020200F
:100450002053657420746865206D6F746F7220700E
:100460006F776572202020202009097C007C2D2DCB
:100470002D2D2D2D2D2D2D2D2D2D2D2D2D2D2D2DAC
:100480002D2D2D2D2D2D2D2D2D2D2D2D2D2D2D2D9C
:100490002D2D2D2D2D2D2D2D2D2D2D2D2D2D2D2D8C
:1004A0002D2D2D2D2D2D2D2D2D2D2D2D2D7C007C0B
:1004B000090920202053696E676C65204D6F746FA9
:1004C0007220436F6E74726F6C204D6F64756C6533
:1004D00020202009097C007C0909202020204D6172
:1004E000696E204D6F746F7220436F6E74726F6C03
:1004F000204D6F64756C652020202009097C007CEC
:100500002D2D2D2D2D2D2D2D2D2D2D2D2D2D2D2D1B
:100510002D2D2D2D2D2D2D2D2D2D2D2D2D2D2D2D0B
:100520002D2D2D2D2D2D2D2D2D2D2D2D2D2D2D2DFB
:100530002D2D2D2D2D2D2D2D2D2D2D2D2D2D2D7C9C
:10054000007C0909202731272020202020746F20DB
:100550006F706572617465204D6F746F7220312009
:10056000202020202009097C007C0909202732272F
:100570002020202020746F206F70657261746520C8
:100580004D6F746F72203220202020202009097CBA
:10059000007C090920277127202020202052657423
:1005A00075726E20746F204D61696E204D656E7599
:1005B000202020202009097C004D45343035204C76
:1005C0006162203320456E636F64657220447269F6
:1005D00076657220496E746567726174696F6E002A
:1005E0000909092020202000417072203238203271
:1005F000303136007C0909202020204D6973736951
:100600006F6E20436F6E74726F6C2050726F6772E2
:10061000616D2076312E302020202009097C007C5D
:100620002D2D2D2D2D2D2D2D2D2D2D2D2D2D2D2DFA
:100630002D2D2D2D2D2D2D2D2D2D2D2D2D2D2D2DEA
:100640002D2D2D2D2D2D2D2D2D2D2D2D2D2D2D2DDA
:100650002D2D2D2D2D2D2D2D2D2D2D2D2D2D2D7C7B
:10066000007C090920276D272020202020456E745A
:100670006572204D6F746F7220436F6E74726F6C71
:10068000204D6F64756C6520202009097C007C0971
:1006900009202765272020202020456E74657220C0
:1006A000456E636F64657220436F6E74726F6C2069
:1006B0004D6F64756C652009097C007C0909202751
:1006C00068272020202020446973706C61792061A4
:1006D0006C6C206F7074696F6E7320202020202056
:1006E0002020202009097C007C0909202743746C04
:1006F0002D432720526573657420415652202020D7
:1007000020202020202020202020202020202020E9
:100710002009097C00496C6C6567616C2073746109
:1007200074652120526573657474696E6720415643
:100730005200546869732044656D6F2068617320AE
:100740006265656E2064697361626C65642E205316
:100750006F72727900092D3E52657475726E696E02
:100760006720746F206D61696E2E2E0009092D3E81
:100770002070726573732027722720746F20726552
:100780006672657368200053746174653A20004591
:1007900072726F7220436F756E743A2000456E63FB
:1007A0006F64657220436F756E74202F20736563CC
:1007B0003A2000456E636F64657220436F756E74F6
:1007C0003A20002D3E53656C65637465643A2000E1
:1007D000092D3E52657475726E696E6720746F20C4
:1007E0004D697373696F6E20436F6E74726F6C2EF8
:1007F0002E2000092D3E52656C656173696E67207D
:10080000456E636F6465722E2E00092D3E50726531
:1008100073732027712720746F2072657475726E50
:1008200020746F20746865204D6F746F72200020F3
:10083000436F6E74726F6C00092D3E507265737356
:100840002027722720746F20726566726573682096
:100850007468652044617368426F61726420002D82
:100860003E53656C65637465643A20002D3E5365A4
:100870006C65637465643A20002D3E43686F6F7346
:1008800065204D6F746F722000206F706572617407
:10089000696F6E3A2000270027206973206E6F74FD
:1008A00020612076616C696420656E7472792E0017
:1008B0002D3E53656C65637465643A200020526573
:1008C0007475726E696E6720746F204D61696E2059
:1008D0004D6F746F72204D6F64756C652E2E200005
:1008E000092D3E50726573732027712720746F2085
:1008F00072657475726E20746F20746865204D6F18
:10090000746F72200020436F6E74726F6C00092D3B
:100910003E50726573732027722720746F207265B2
:100920006672657368207468652044617368426FFD
:100930006172642000092D3E506F74656E74696F9A
:100940006D65746572204163746976617465642EA7
:10095000002D3E53656C65637465643A2000092D73
:100960003E456E746572696E6720506F74656E7473
:10097000696F6D6574657220436F6E74726F6C2E53
:100980002E2E20002D3E43686F6F7365204D6F74CF
:100990006F722000206F7065726174696F6E3A200B
:1009A000000928507265737320276F2720666F72C5
:1009B000206F7074696F6E732900092D3E52656C4B
:1009C000656173696E67204D6F746F722E2E002DF6
:1009D0003E53656C65637465643A20002D3E436840
:1009E0006F6F7365204D6F746F722000206F70659C
:1009F000726174696F6E3A200009285072657373D2
:100A000020276F2720666F72206F7074696F6E7376
:100A10002900094272616B6520736574206174203E
:100A2000002E2000092D3E456E74657220746865A5
:100A3000204272616B6520466F7263652830202DFD
:100A40002032353529002D3E53656C65637465642D
:100A50003A20002D3E43686F6F7365204D6F746FB1
:100A6000722000206F7065726174696F6E3A2000A9
:100A70000928507265737320276F2720666F7220D4
:100A80006F7074696F6E73290009506F77657220FB
:100A900073657420617420002E2000456E746572A9
:100AA0002074686520506F7765722056616C75659B
:100AB00020282D32353520746F20323535293B0002
:100AC00020202A4E6F74653A204E656761746976FE
:100AD000652056616C756573203D205265766572A0
:100AE0007365002D3E53656C65637465643A200040
:100AF00054727920416761696E2E2000092D3E53A2
:100B00007769746368696E6720746F20436F6E74D1
:100B1000726F6C206F66204D6F746F7220002E0014
:100B2000092D3E52657475726E20746F207468656D
:100B3000204D61696E204D6F746F72204D6F64752A
:100B40006C6520746F2073776170204D6F746F72C5
:100B5000732E002D3E53656C65637465643A200006
:100B6000092D3E52657475726E696E6720746F2030
:100B70004D697373696F6E20436F6E74726F6C2E64
:100B80002E2000092D3E52656C656173696E6720E9
:100B90004D6F746F72732E2E00092D3E5265736572
:100BA0007474696E67204156522E2E00223A2057E7
:100BB00054463F00526573657474696E67204156F0
:100BC0005200092D3E596F7520456E74657265643B
:100BD0003A2000456E74657220646563696D616CCE
:100BE000206E756D65726963206469676974732C22
:100BF000207468656E2052455455524E206F722005
:100C000045534300092D3E537769746368696E67E5
:100C100020746F20456E636F646572204D6F64753C
:100C20006C652E2E00092D3E436C656172696E67FE
:100C30002052656769737465727320616E64204D1C
:100C4000656E75732E2E00092D3E496E7469616CB8
:100C5000697A696E6720456E636F6465722E2E0037
:100C60002D3E53656C65637465643A2000092D3E22
:100C7000537769746368696E6720746F204D6F7471
:100C80006F72204D6F64756C652E2E00092D3E43EA
:100C90006C656172696E672052656769737465720D
:100CA0007320616E64204D656E75732E2E00092DC4
:100CB0003E496E7469616C697A696E67204D6F7424
:100CC0006F72732E2E002D3E53656C6563746564E0
:100CD0003A200043757272656E74204368616E6ECF
:100CE000656C2052656164696E67733A2000456ED9
:100CF00064205072696E742044617461004D6F7499
:100D00006F722044726976657220496E7075743A0C
:100D10002000456E636F6465722044726976657267
:100D200020536179732048692E004E6F20736861EB
:100D30007265642064617461206974656D732074E8
:100D40006F207072696E74002D2D2D2D20202020B3
:100D500020202020202020202D2D2D2D202020205F
:100D60002D2D2D2D2D2D2D2D2D2D005368617265CE
:100D70002F517565756520202020205479706520DD
:100D8000202020467265652F546F74616C004552B7
:100D9000524F52206372656174696E67207461738B
:100DA0006B2022005461736B202200222063726545
:100DB000617465642C20737461636B2061742030EE
:100DC00078005461736B3A20005461736B3A204988
:100DD000444C450049444C45090930092D09002F70
:100DE0000009092D002D2D2D2D09092D2D2D2D0941
:100DF0002D2D2D2D2D00092D2D2D2D2D2D2D2D2D74
:100E00002D00092D2D2D2D004E616D6509095072A3
:100E1000692E0953746174650009467265652F5423
:100E20006F74616C000952756E73005461736B09C5
:100E300009202009200009537461636B000900092F
:100E4000002F000900090020200011241FBECFEF51
:100E5000D1E2DEBFCDBF13E0A0E0B2E0ECEDF8E6FA
:100E600000E00BBF02C007900D92A23DB107D9F779
:100E70001BE1A2EDB3E001C01D92A639B107E1F775
:100E80000E94A8300C946C340C9400000F931F93B4
:100E9000CF93DF93EC0166E08E819F810E945825FD
:100EA0006BE08E819F810E9458258C016FEA74E06F
:100EB0000E94132566E0C8010E9458256BE08E81D0
:100EC0009F810E9458258C016DE674E00E941325D5
:100ED00066E0C8010E9458256BE08E819F810E94C8
:100EE00058258C0165E474E00E94132566E0C80172
:100EF0000E9458256BE08E819F810E9458258C01AD
:100F00006DE174E00E94132566E0C8010E94582537
:100F10006BE08E819F810E9458258C0165EF73E004
:100F20000E94132566E0C8010E9458256BE08E815F
:100F30009F810E9458258C016DEC73E00E9413255F
:100F400066E0C8010E9458256BE08E819F810E9457
:100F500058258C0165EA73E00E94132566E0C801FC
:100F60000E94582581E08E8FDF91CF911F910F91C4
:100F70000895AF92BF92CF92DF92EF92FF920F93BC
:100F80001F93CF93DF93EC018B8D8823C1F08130C9
:100F900009F4D1C0823009F4F8C0833009F4E6C006
:100FA00097EBA92E92E0B92E8F89988D97FDCBC033
:100FB000892B49F01EEAE12E12E0F12E08C089E9E2
:100FC000A82E82E0B82E02EAE02E02E0F02E66E0C3
:100FD0008E819F810E945825CF88D88C6BE08E81AE
:100FE0009F810E9458258C0168E273E00E941325BE
:100FF00066E0C8010E9458256BE00E9458258C01CC
:101000006FE473E00E94132566E0C8010E94582532
:101010006BE00E9458258C016FE673E00E94132557
:1010200066E0C8010E9458256BE00E9458258C019B
:1010300066E973E00E941325B501C8010E941325DB
:101040006BE0C8010E9458258C0160EA73E00E94A1
:101050001325B601C8010E949D256BE00E9458250A
:101060008C0162EA73E00E941325B701C8010E9457
:10107000132566E0C8010E9458258C8D811145C05A
:10108000A98CBA8CF9E9CF2EF2E0DF2EA2EAEA2E83
:10109000A2E0FA2E66E08E819F810E9458256BE0C7
:1010A0000E9458258C0169E173E00E941325B60166
:1010B000C8010E9413256BE0C8010E9458258C01CD
:1010C00063E273E00E941325B501C8010E949D25CB
:1010D0006BE00E9458258C0165E273E00E941325A5
:1010E000B701C8010E94132566E0C8010E94582577
:1010F00081E08E8FDF91CF911F910F91FF90EF9044
:10110000DF90CF90BF90AF900895813009F1823089
:10111000B9F1833081F1E7EBCE2EE2E0DE2E898D4E
:101120009A8D97FD1DC00097A9F15C017EEAE72E1C
:1011300072E0F72EAFCF50EDA52E52E0B52E8F897D
:10114000988D97FF35CFB6EAEB2EB2E0FB2E3FCF5E
:1011500020EDC22E22E0D22E898D9A8D97FFE3CF0B
:101160005C0166EAE62E62E0F62E94CF3EEBA32EFB
:1011700032E0B32E19CF8EEBC82E82E0D82ECFCF1F
:1011800097ECC92E92E0D92ECACF47ECA42E42E0AC
:10119000B42E0ACFA12CB12C7DCF0F931F93CF93E8
:1011A000DF93EC010E949A2081EE92E0998388837C
:1011B0001E8E1E8A1D8A82E08B8F8C8F188E1F8A4E
:1011C0001A8E198EDF91CF911F910F9108950F9371
:1011D0001F93CF93DF93EC018E8D811173C066E076
:1011E0008E819F810E9458256BE00E9458258C01BA
:1011F00069EB75E00E94132566E0C8010E9458253E
:1012000066E00E9458256BE00E9458258C0160EE34
:1012100075E00E9413256BE0C8010E9458258C01DF
:1012200068EE75E00E94132566E0C8010E9458250B
:101230006BE00E9458258C0164EF75E00E94132535
:1012400066E0C8010E9458256BE00E9458258C0179
:101250006FE176E00E94132566E0C8010E945825E0
:101260006BE00E9458258C0161E676E00E94132510
:1012700066E0C8010E9458256BE00E9458258C0149
:101280006EE876E00E94132566E0C8010E945825AA
:101290006BE00E9458258C016BEB76E00E941325D1
:1012A00066E0C8010E9458256BE00E9458258C0119
:1012B00068EE76E00E94132566E0C8010E9458257A
:1012C00081E08E8FDF91CF911F910F9108950F9341
:1012D0001F93CF93DF93EC018E8D811146C066E0A2
:1012E0008E819F810E94582566E00E9458256BE000
:1012F0000E9458258C0167ED74E00E94132566E07A
:10130000C8010E9458256BE00E9458258C016FEFA0
:1013100074E00E94132566E0C8010E9458256BE026
:101320000E9458258C0161E475E00E94132566E057
:10133000C8010E9458256BE00E9458258C0169E67F
:1013400075E00E94132566E0C8010E9458256BE0F5
:101350000E9458258C0161E975E00E94132566E022
:10136000C8010E94582581E08E8FDF91CF911F9197
:101370000F910895FC01268D211108950C944607C4
:10138000FC01268D211102C00C94B90708950F931A
:101390001F93CF93DF93EC0166E08E819F810E94C3
:1013A00058256BE00E9458258C016CEE72E00E947B
:1013B00013256BE0C8010E9458258C0163E173E09E
:1013C0000E94132566E0C8010E9458256BE08E81BB
:1013D0009F810E9458258C016BEC72E00E941325BE
:1013E00066E0C8010E9458256BE08E819F810E94B3
:1013F00058258C0164EA72E00E94132566E0C8015A
:101400000E9458256BE08E819F810E9458258C0197
:1014100066E872E00E94132566E0C8010E94582524
:101420006BE08E819F810E9458258C0167E672E0F7
:101430000E94132566E0C8010E9458256BE08E814A
:101440009F810E9458258C0160E572E00E9413255F
:1014500066E0C8010E9458256BE08E819F810E9442
:101460005825EC0161E472E00E94132566E0CE018C
:10147000DF91CF911F910F910C945825CF93DF935B
:10148000EC018E819F81DC01ED91FC910480F5815E
:10149000E02D0995811104C080E0DF91CF9108957E
:1014A0008E819F81DC01ED91FC910680F781E02D1A
:1014B00009958A8B81E0DF91CF910895CF92DF92D9
:1014C000FF920F931F93CF93DF931F92CDB7DEB799
:1014D0006C01DC0154961C921E925397F12CF6017C
:1014E00086819781DC01ED91FC910480F581E02DEE
:1014F0000995882309F440C0F60186819781DC01B3
:10150000ED91FC910680F781E02D0995282FF601D9
:10151000828B80ED820F8A3008F458C02D3209F496
:1015200078C0213709F498C02A3009F47FC02D30E3
:1015300009F484C02B3109F481C06BE0F601868187
:10154000978129830E9458258C016EE272E00E94E7
:101550001325D801ED91FC910280F381E02D2981C2
:10156000622FC80109956BE0C8010E9458256EE3FF
:1015700072E00E941325B3CF8091E0039091E103C4
:10158000DC01ED91FC910480F581E02D0995882323
:1015900009F4A5CFD6011696ED91FC91179701900D
:1015A000F081E02D028113818091E0039091E103AD
:1015B000DC01ED91FC910680F781E02D0995682F03
:1015C000F60186819781F801099589CF86819781F7
:1015D000DC01ED91FC910280F381E02D622F0995F1
:1015E000F60123893489C901880F991F220F331FFF
:1015F000220F331F220F331F820F931F228933279D
:1016000027FD309520533109820F931F948B838BD4
:1016100066CF86819781DC01ED91FC910280F38198
:10162000E02D6DE20995FF24F39459CF69ED72E046
:10163000F601868197810E94132551CFFF2061F02A
:10164000D60153968D919C915497919581959109CE
:1016500054969C938E9353970F90DF91CF911F9147
:101660000F91FF90DF90CF9008958F929F92AF924D
:10167000BF92CF92DF92EF92FF920F931F93CF937F
:10168000DF9300D000D000D0CDB7DEB78C01198237
:101690001A821B821C821E821D82C0902801D0905B
:1016A00029010E9415195C01CE0101960E94442473
:1016B0004C0166E0F801868197810E9458256BE015
:1016C0000E9458257C016AED71E00E9413256BE0B1
:1016D000C7010E9458257C0161E072E00E94132539
:1016E00066E0C7010E9458256BE00E9458257C01E6
:1016F0006DE072E00E941325B401C7010E94E3234C
:101700006BE00E9458257C016BE172E00E9413257A
:10171000B501C7010E94FE257C016BED72E00E94BD
:10172000132548E357E160E070E0C7010E943826C6
:101730006BE00E9458257C0164E272E00E94132550
:10174000B601C7010E94FE2566E00E94582566E0AA
:101750000E945825F801868197810E94952266E0B3
:10176000F801868197810E945825F801868197812A
:101770000E94552026960FB6F894DEBF0FBECDBF4F
:10178000DF91CF911F910F91FF90EF90DF90CF905D
:10179000BF90AF909F908F9008950FB6F8940F92DE
:1017A000E091DA03F091DB0360870F900FBE0FB674
:1017B000F8940F92E091DC03F091DD0320870F9005
:1017C0000FBE0FB6F8940F92E091DE03F091DF03A5
:1017D000518740870F900FBE613041F0623009F0B1
:1017E0000895FC01248F528F418F0895FC01238FAF
:1017F000508F478B08956150710981E06230710507
:1018000008F080E00895FC01168E08950F931F9351
:10181000CF93DF93EC018E8D81113FC066E08E8106
:101820009F810E9458256BE08E819F810E945825E0
:101830008C016BEA71E00E94132566E0C8010E94EA
:1018400058256BE08E819F810E9458258C0169E6A6
:1018500071E00E94132566E0C8010E9458256BE0E4
:101860008E819F810E9458258C016AE371E00E945D
:10187000132566E0C8010E9458256BE08E819F8188
:101880000E9458258C016BE071E00E94132566E0F0
:10189000C8010E94582581E08E8FDF91CF911F9162
:1018A0000F910895CF93DF93CDB7DEB727970FB68B
:1018B000F894DEBF0FBECDBF8C0119821A821B8245
:1018C0001C821E821D82DC0154961C921E9253972C
:1018D0003FC0243039F108F475C1253009F057C1F3
:1018E0006BE0F801868197810E9458257C0162E3B4
:1018F00077E00E94132566E0C7010E9458256BE03F
:101900000E9458257C0165E577E00E94132566E07A
:10191000C7010E945825D8015E961C9260E0C8015C
:101920000E945021D8011E964D915D916D917C9140
:1019300051974F5F5F4F6F4F7F4FF8014687578733
:10194000608B718B61E070E080E090E00E944B1D45
:10195000F8012485223009F4E4C108F0BACF22232B
:1019600009F4B7C0213009F012C1F801858981114D
:1019700078C2868D811103C0C8010E944607C80144
:101980000E943E0A882371F2F80122892F3609F459
:101990008DC40CF426C4213709F4F6C30CF483C3B8
:1019A000233709F08DC56BE0868197810E94582509
:1019B0007C0163EE7AE00E941325D701ED91FC9142
:1019C0000280F381E02D63E7C701099566E0C70156
:1019D0000E94582566E0F801868197810E9458256B
:1019E0006BE00E9458257C016BE97AE00E94132588
:1019F00066E0C7010E9458256BE00E9458257C01D3
:101A000060EC7AE00E94132566E0C7010E94582529
:101A1000C8010E945E0AD80153964D915C9154977B
:101A200021E05D966C91C8010E94CD0BF801C3883E
:101A3000D48866E0868197810E94582566E00E94DE
:101A400058256BE00E9458257C0169E87AE00E94E5
:101A50001325B601C7010E949D256BE00E94582501
:101A60007C0168E97AE00E94132566E0C7010E94C4
:101A70005825D8015E961C92C8010E94B907F8014A
:101A8000D58C66E0868197810E9458256BE00E9484
:101A900058257C0163E57AE00E9413256D2DC7016E
:101AA0000E9480266BE00E9458257C0163E67AE064
:101AB0000E9413256BE0C7010E9458257C0160E756
:101AC0007AE0C7010E94132566E0C7010E945825ED
:101AD00029CFC8010E94E708C8010E943E0A882356
:101AE00009F420CFD80152962C91283609F4BCC4B1
:101AF0000CF462C42E36B1F00CF485C2233709F41D
:101B00007EC2243709F0D6C1CE0101960E9444243A
:101B1000BC01F801868197810E94E32366E00E9460
:101B2000582500CF6BE0F801868197810E945825E7
:101B30007C0163ED7BE00E94132566E0C7010E94F3
:101B40005825C8010E945E0AD8015396CD90DC90BA
:101B5000549766E016968D919C9117970E94582590
:101B600066E00E9458256BE00E9458257C0162ECDB
:101B70007BE00E941325B601C7010E949D2566E007
:101B80000E945825F8018289813761F6CBCE6BE03F
:101B9000F801868197810E9458258C0165E177E0E4
:101BA0000E94132566E0C8010E9458252BE088E1B9
:101BB00090E00FB6F894A895809360000FBE209334
:101BC0006000FFCFF8018689882309F4ABCEC801F5
:101BD0000E94060CC8010E943E0A882309F4A2CE86
:101BE000D80152968C91813709F4ACC4823709F040
:101BF00099CE0FB6F8940F92E091D803F091D903E3
:101C0000C084D184E284F3840F900FBE6BE0D801CE
:101C100016968D919C9117970E9458255C0163EB55
:101C200077E00E941325B701A601C5010E94CC25CB
:101C300066E00E9458250FB6F8940F92E091D60303
:101C4000F091D703C084D184E284F3840F900FBE57
:101C50006BE0F801868197810E9458255C016DE94F
:101C600077E00E941325B701A601C5010E94CC258B
:101C700066E00E9458250FB6F8940F92E091D403C5
:101C8000F091D503C084D184E284F3840F900FBE19
:101C90006BE0D80116968D919C9117970E9458255C
:101CA0005C016FE877E00E941325B701A601C5012A
:101CB0000E94382666E00E9458250FB6F8940F92CD
:101CC000E091D203F091D303D0840F900FBE6BE06C
:101CD000F801868197810E9458257C0167E877E0AA
:101CE0000E9413256D2DC7010E94802666E00E9488
:101CF000582566E0D80116968D919C9117970E9401
:101D000058256BE00E9458257C016CE677E00E9424
:101D1000132566E0C7010E94582566E00E945825F9
:101D200001CEC8010E943E0A882349F0D80152968C
:101D30008C915297813709F471C08237D1F00FB678
:101D4000F8940F920F900FBEE091DE03F091DF0345
:101D50004085518523E0F801658DC8010E94CD0BB7
:101D6000D8015E968C918111DDCDC8010E94B90722
:101D7000D9CD66E0D80116968D919C9117970E9457
:101D800058256BE00E9458257C016FE578E00E94A1
:101D90001325D701ED91FC910280F381E02D62E7DC
:101DA000C701099566E0C7010E945825F801168E03
:101DB000C8010E94B907D8015D96DC905D9766E086
:101DC00016968D919C9117970E94582566E00E9467
:101DD00058256BE00E9458257C016AE078E00E945B
:101DE00013256D2DC7010E9480266BE00E945825A7
:101DF0007C016FE278E00E94132566E0C7010E9433
:101E000058256BE00E9458257C0168E378E00E9429
:101E1000132566E0C7010E94582591CF66E016960B
:101E20008D919C9117970E9458256BE00E94582530
:101E30007C016CE678E00E941325D701ED91FC91BE
:101E40000280F381E02D61E7C701099566E0C701D3
:101E50000E94582561E0C8010E945021F801168EA9
:101E600061CDC8012F830E946709C8010E945E0AE4
:101E7000D80152968C9152972F81813709F472C004
:101E8000F801C388D488C6010197029790F16BE0EE
:101E9000868197812F830E9458257C0160EF7AE02C
:101EA0000E94132566E0C7010E9458252F81F80182
:101EB000258B38CDF801E680F780D701ED91FC91B4
:101EC0000280F381E02D62E2C7012F830995D701DB
:101ED000ED91FC910280F381E02D2F81622FC701EB
:101EE00009956BE0C7010E9458257C016CEA7BE0F4
:101EF000E8CD66E0868197810E94582566E00E94C1
:101F000058256BE00E9458257C016CEF7AE00E9416
:101F10001325B601C7010E949D2562E00E94582545
:101F20006BE00E9458257C016EE17BE00E94132546
:101F300066E0C7010E9458256BE00E9458257C018D
:101F400060E27BE00E94132566E0C7010E945825ED
:101F5000F8018389858F168E158A61E0C8010E9479
:101F60005021E0CC6BE016968D919C9117970E94C2
:101F700058257C0163E57BE00E941325D701ED9194
:101F8000FC910280F381E02D61E7C701099566E0CD
:101F9000C7010E94582566E00E94582566E00E940D
:101FA00058256BE00E9458257C0160E67BE00E948A
:101FB000132566E0C7010E9458256BE00E94582552
:101FC0007C0163E87BE00E94132566E0C7010E9464
:101FD00058256BE00E9458257C0169E97BE00E944E
:101FE000132566E0C7010E945825F801158A60E0B4
:101FF000C8010E945021D8015E961C9293CCC80162
:102000000E94350B8FCC2D3609F054CF6BE0F801D0
:10201000868197810E9458257C0166EC7CE00E94B5
:102020001325D701ED91FC910280F381E02D6DE63F
:10203000C701099566E0F801868197810E945825BD
:1020400066E00E9458256BE00E9458257C016DE6F1
:102050007CE00E94132566E0C7010E9458256BE0D2
:102060000E9458257C016CE87CE00E94132566E004
:10207000C7010E9458256BE00E9458257C016EEA3A
:102080007CE00E94132566E0C7010E945825D80114
:102090005E961C925E9781E055968C9361E0C80134
:1020A0000E9450213FCC66E0868197810E9458258E
:1020B0006BE00E9458257C0161E579E00E941325C0
:1020C000D701ED91FC910280F381E02D60E7C7011B
:1020D000099566E0C7010E9458256BE00E945825CB
:1020E0007C016EE579E00E94132566E0C7010E943D
:1020F00058256BE0F801868197810E9458257C0164
:1021000065E379E00E94132566E0C7010E94582527
:1021100066E00E945825D8015D96DC905D9766E0E8
:1021200016968D919C9117970E94582566E00E9403
:1021300058256BE00E9458257C0160EE78E00E94F3
:1021400013256D2DC7010E9480266BE00E94582543
:102150007C0165E079E00E94132566E0C7010E94DA
:1021600058256BE00E9458257C016EE079E00E94C2
:10217000132566E0C7010E94582562E0C8010E944D
:102180005021F801168ECECB6BE0F8018681978145
:102190000E9458257C0160EB78E00E941325D7014E
:1021A000ED91FC910280F381E02D61E7C701099573
:1021B00066E0C7010E9458256BE00E9458257C010B
:1021C0006DEB78E00E94132566E0C7010E94582558
:1021D00061E0C8010E945021F801168E81E0858BD4
:1021E000A1CB223609F467C0263609F069C16BE03D
:1021F000868197810E9458257C016FEC79E00E94CE
:102200001325D701ED91FC910280F381E02D66E664
:10221000C701099566E0C7010E9458256BE0F801E7
:10222000868197810E9458257C016AEB79E00E94A3
:10223000132566E0C7010E9458250FB6F8940F9247
:102240000F900FBEE091DA03F091DB0322E040E053
:1022500050E06085C8010E94CD0BD8015E961C92AB
:10226000C8010E94B907F801D58C66E08681978184
:102270000E9458256BE00E9458257C0164E879E0B3
:102280000E9413256D2DC7010E9480266BE00E94DD
:1022900058257C0164E979E00E9413256BE0C701B1
:1022A0000E9458257C0161EA79E00BCC168EC801AA
:1022B0000E94460737CB6BE0868197810E945825A4
:1022C0007C0166E47AE00E941325D701ED91FC9130
:1022D0000280F381E02D62E6C701099566E0C7013F
:1022E0000E9458256BE0F801868197810E9458254D
:1022F0007C0164E27AE00E94132566E0C7010E9437
:102300005825C8010E945E0AD8015396CD90DC90F2
:10231000549766E016968D919C9117970E945825C8
:1023200066E00E9458256BE00E9458257C0162E11E
:102330007AE00E941325B601C7010E949D256BE03B
:102340000E9458257C0161E27AE00E94132566E034
:10235000C7010E945825F8014389548920E0658D02
:10236000C8010E94CD0BD8015E961C92C8010E9444
:10237000B907F801D58C66E0868197810E945825BF
:102380006BE00E9458257C016CED79E00E941325DA
:102390006D2DC7010E9480266BE00E9458257C01AC
:1023A0006CEE79E00E9413256BE0C7010E9458256E
:1023B0007C0169EF79E085CB2F3309F455C00CF42B
:1023C0005FC0243609F454C0253609F073CD6BE0A4
:1023D000F801868197810E9458257C0160E67CE0A7
:1023E0000E941325D701ED91FC910280F381E02D2D
:1023F00065E6C701099566E0F801868197810E942C
:10240000582566E00E9458256BE00E9458257C0103
:1024100064E07CE00E94132566E0C7010E94582515
:102420006BE00E9458257C0165E27CE00E94132548
:1024300066E0C7010E9458256BE00E9458257C0188
:1024400067E47CE00E94132566E0C7010E945825DE
:10245000D8015E961C925E9781E056968C9363E05D
:10246000C8010E9450215ECAC8010E94C7095ACA09
:10247000D80116968D919C9117970E94AF2152CA50
:10248000233009F017CD6BE0D80116968D919C9101
:1024900017970E9458258C0164EB7BE00E9413255E
:1024A00066E0C8010E9458252BE088E190E00FB655
:1024B000F894A895809360000FBE20936000FFCF32
:1024C00066E0D80116968D919C9117972F830E94F4
:1024D00058256BE00E9458257C0166E978E00E944F
:1024E0001325D701ED91FC910280F381E02D2F811E
:1024F000622FC70109956BE0C7010E9458257C0136
:1025000068E978E00E94132566E0C7010E9458251B
:10251000F801D58C66E0868197810E9458256BE092
:102520000E9458257C0169E778E00E9413256D2DF3
:10253000C7010E9480266BE00E9458257C0169E853
:1025400078E0BFCA6BE0F801868197810E94582528
:102550007C0163EC77E00E941325D701ED91FC919B
:102560000280F381E02D61E7C701099566E0C701AC
:102570000E94582566E00E94582566E00E94582572
:102580006BE00E9458257C0160ED77E00E941325E6
:1025900066E0C7010E9458256BE00E9458257C0127
:1025A00063EF77E00E94132566E0C7010E9458257B
:1025B00060E0C8010E94502181E0F801858B168AF5
:1025C000168EB0C9CF93DF9300D000D0CDB7DEB761
:1025D0008C010E94441B69837A838B839C83809146
:1025E0008000816A80938000809181008A6080935E
:1025F000810040E8E42EF12C15C0F801468557858E
:10260000608971894F5F5F4F6F4F7F4F4687578754
:10261000608B718B4AE050E060E070E0CE01019683
:102620000E94E41C0FB6F8940F92E091DC03F09145
:10263000DD0320850F900FBE0FB6F8940F920F9018
:102640000FBEE091DA03F091DB03D80152969C9122
:1026500080859813D2CF213009F44AC02223A9F1F2
:10266000223009F456C0233009F0C7CF61E0D80109
:1026700055968D919C9156970E94DF1397FD5DC0F2
:102680009595879595958795803891050CF447C069
:102690008038910509F4B1CF6701C81AD90ACC0C6A
:1026A000DD1CB601D80153968D919C9154970E94E0
:1026B0009A140FB6F8940F92E091DE03F091DF03C5
:1026C000D186C0860F900FBE98CF0FB6F8940F92A8
:1026D0000F900FBEE091DE03F091DF0360857185FE
:1026E000D80153968D919C9154970E94151585CFD2
:1026F0000FB6F8940F920F900FBEE091DE03F091A9
:10270000DF0360857185F801838994890E949A149A
:1027100074CFF801838994890E9469156ECF9195D1
:1027200081959109880F991F6C01BFEFCB0ED11CC9
:10273000B601F80183899489BACF0396A1CFAF92ED
:10274000CF92DF92EF92FF920F931F93CF93DF937D
:10275000EC010E949A2089EE92E099838883FC8A9A
:10276000EB8ADE8ACD8AAA8ADF91CF911F910F91E1
:10277000FF90EF90DF90CF90AF900895CF93DF93CD
:10278000FC017183608320917C00206420937C0095
:1027900020917A00256C20937A00C081D181209706
:1027A00059F06DEE72E0CE010E94132566E0CE0175
:1027B000DF91CF910C945825DF91CF910895683027
:1027C00008F060E080917C00887F80937C0080919D
:1027D0007C00862B80937C0080917A0080648093BB
:1027E0007A0080917A0086FDFCCF8091780020915C
:1027F000790090E0922B0895DF92EF92FF920F9371
:102800001F93CF93DF938C01D62EE42E80E48417A0
:10281000E0F480E4E82EF12CC0E0D0E06D2DC8019A
:102820000E94DF13C80FD91FF394FE10F7CF6E2D4F
:1028300070E0CE010E944D32CB01DF91CF911F910C
:102840000F91FF90EF90DF9008954111E4CFC0E029
:10285000D0E0EDCF0F931F93CF93DF93EC016BE0AC
:102860000E9458258C0163ED7CE00E94132566E0F0
:10287000C8010E9458256BE00E9458258C016EEE1D
:102880007CE00E94132566E0C8010E945825CE0115
:10289000DF91CF911F910F9108956F927F928F9248
:1028A000AF92CF92EF92FF920F931F93CF93DF934C
:1028B000CDB7DEB7FC013B018E8571836083558304
:1028C00044833187208715870487F38AE28AC68686
:1028D000A786808A818B41505109538342832150BE
:1028E0003109378326830150110913870287611547
:1028F0007105A1F06CE073E0C3010E94132566E04E
:10290000C301DF91CF911F910F91FF90EF90CF9076
:10291000AF908F907F906F900C945825DF91CF915E
:102920001F910F91FF90EF90CF90AF908F907F907D
:102930006F900895CF93FC01A281B381CC9181E087
:1029400090E0AC01068402C0440F551F0A94E2F7E0
:102950009C01078402C0220F331F0A94E2F7242B44
:102960002C2B2C93A681B7814C919C01008802C02E
:10297000220F331F0A94E2F7209524232C93A2857B
:10298000B3854C919C01018802C0220F331F0A9429
:10299000E2F7422B4C93A085B1854C919C010088B5
:1029A00002C0220F331F0A94E2F7422B4C93A481FA
:1029B000B5814C919C0177FD1BC0068402C0220F9B
:1029C000331F0A94E2F7422B4C93A481B5812C91DA
:1029D000078402C0880F991F0A94E2F7809582232A
:1029E0008C930288F389E02D71836083CF910895E1
:1029F000078402C0220F331F0A94E2F7422B4C9344
:102A0000A481B5812C91068402C0880F991F0A9475
:102A1000E2F7809582238C930288F389E02D7195EB
:102A20006195710971836083E1CFFC01A281B3815B
:102A30006C9181E090E0AC01068402C0440F551F08
:102A40000A94E2F79C01078402C0220F331F0A9404
:102A5000E2F7242B262B2C93A681B7814C919C0165
:102A6000008802C0220F331F0A94E2F72095242326
:102A70002C93A285B3854C919C01018802C0220F42
:102A8000331F0A94E2F7422B4C93A085B1854C91F9
:102A90009C01008802C0220F331F0A94E2F7422BE8
:102AA0004C93A481B5814C919C01068402C0220FF5
:102AB000331F0A94E2F7422B4C93A481B5812C91E9
:102AC000078402C0880F991F0A94E2F7282B2C93E1
:102AD0000895FC01A281B3816C9181E090E0AC018A
:102AE000068402C0440F551F0A94E2F79C01078434
:102AF00002C0220F331F0A94E2F7242B262B2C93BB
:102B0000A681B7814C919C01008802C0220F331F1F
:102B10000A94E2F7209524232C93A285B3854C9147
:102B20009C01018802C0220F331F0A94E2F7422B56
:102B30004C93A085B1854C919C01008802C0220F66
:102B4000331F0A94E2F7422B4C93A481B5814C9138
:102B50009C01068402C0220F331F0A94E2F72095DD
:102B600024232C93A481B5812C91078402C0880F63
:102B7000991F0A94E2F7809582238C930895EF922F
:102B8000FF920F931F93CF93DF93EC01DB015296DB
:102B9000ED91FC915397E080F1806BE00E94582505
:102BA0008C016DEF7CE00E941325B701C8010E94E3
:102BB000FE2566E00E945825CE01DF91CF911F913E
:102BC0000F91FF90EF9008956F927F928F92AF9246
:102BD000CF92DF92EF92FF920F931F93CF93DF93E9
:102BE000CDB7DEB73C01FA019F8588897894D3017F
:102BF0001F967C936E931E9713965C934E93129739
:102C000015963C932E93149717961C930E93169734
:102C10001896EC9218971996CC9219971A96AC922E
:102C20001A971B968C921B971C969C931C971D962B
:102C30008C931D97208181E090E0AC0102C0440F8D
:102C4000551FEA94E2F7BC0102C0660F771FCA94D1
:102C5000E2F76B01C42AC22AC082408118962C91E7
:102C60002F5FDC0102C0AA0FBB1F2A95E2F75A2F83
:102C70005095D30119962C9119972F5FBC0102C072
:102C8000660F771F2A95E2F7562B4523408314964B
:102C9000ED91FC9115976081AC011A960C901A97F2
:102CA00002C0440F551F0A94E2F79C011B960C903A
:102CB0001B9702C0220F331F0A94E2F7242B262B06
:102CC00020831696ED91FC9117976081AC011D96BB
:102CD0000C901D9702C0440F551F0A94E2F79C0107
:102CE0001C960C901C9702C0220F331F0A94E2F727
:102CF00024232095262320831696ED91FC91179787
:102D00009F012F5F3F4F11963C932E9341819C0171
:102D10001C960C901C9702C0220F331F0A94E2F7F6
:102D20001D960C901D9702C0880F991F0A94E2F718
:102D3000822B842B81831E960D911C911F97011568
:102D4000110531F161E373E0C8010E94132566E0CB
:102D5000C8010E945825D3011E960D911C911F9702
:102D600001151105A9F068E573E0C8010E9413255B
:102D700066E0C801DF91CF911F910F91FF90EF9016
:102D8000DF90CF90AF908F907F906F900C945825EC
:102D9000DF91CF911F910F91FF90EF90DF90CF9037
:102DA000AF908F907F906F9008951F920F920FB603
:102DB0000F9211240BB60F922F933F938F939F93F3
:102DC000AF93BF93CF93DF93EF93FF93E091D20341
:102DD000F091D30330859CB196FB992790F98CB183
:102DE000881F8827881F292F220F280FC091D803FA
:102DF000D091D903891799F188859985AA85BB85D2
:102E00000196A11DB11D88879987AA87BB872230AB
:102E1000C1F1213091F02087FF91EF91DF91CF91A7
:102E2000BF91AF919F918F913F912F910F900BBECA
:102E30000F900FBE0F901F901895333061F3C09123
:102E4000D403D091D50388859985AA85BB85019641
:102E5000A11DB11D88879987AA87BB87DCCF88858C
:102E60009985AA85BB850197A109B10988879987AA
:102E7000AA87BB87222341F0233069F63130F9F667
:102E8000CACF332341F2DBCF3230C9F6C4CF1F9211
:102E90000F920FB60F9211240BB60F922F933F9300
:102EA0008F939F93AF93BF93CF93DF93EF93FF9352
:102EB000E091D203F091D30330859CB196FB992722
:102EC00090F98CB1881F8827881F292F220F280F7F
:102ED000C091D803D091D903891799F18885998534
:102EE000AA85BB850197A109B10988879987AA8717
:102EF000BB872130C1F1223091F02087FF91EF9103
:102F0000DF91CF91BF91AF919F918F913F912F9181
:102F10000F900BBE0F900FBE0F901F90189533307F
:102F200061F3C091D403D091D50388859985AA8592
:102F3000BB850196A11DB11D88879987AA87BB878C
:102F4000DCCF88859985AA85BB850196A11DB11D19
:102F500088879987AA87BB87233041F02111CDCF7D
:102F60003130F9F6CACF332341F2DBCF3230C9F624
:102F7000C4CF0F931F93CF93DF93EC016BE00E94BC
:102F800058258C0162E17DE00E94132566E0C801AE
:102F90000E945825CE01DF91CF911F910F91089586
:102FA000CF93DF9300D000D0CDB7DEB78C010E9465
:102FB000441B69837A838B839C830FB6F8940F92AA
:102FC0000F900FBE0FB6F8940F922091D603309158
:102FD000D703A091D803B091D90318968D919D91F4
:102FE0000D90BC91A02DF80142895389648975899F
:102FF000841B950BA60BB70BF90180879187A287DD
:10300000B3870F900FBE0FB6F8940F92E091D803DC
:10301000F091D90380859185A285B3850F900FBE6D
:10302000F801828B938BA48BB58B4685578560897D
:1030300071894F5F5F4F6F4F7F4F46875787608B18
:10304000718B41E050E060E070E0CE0101960E949B
:10305000E41CB3CFEF92FF920F931F93CF93DF93B4
:10306000EC010E949A208CE793E099838883FB8E81
:10307000EA8E0FB6F8940F92E091D803F091D9033D
:1030800040855185628573850F900FBE4A8B5B8B9F
:103090006C8B7D8BDF91CF911F910F91FF90EF9003
:1030A00008950F931F93CF93DF93EC010E943E1B73
:1030B0008091E203811121C08CEE93E09093E803AC
:1030C0008093E7031092EA031092E90387E397E104
:1030D0009093E6038093E5031092E4031092E303D8
:1030E0009093EF038093EE0383EE93E09093ED03D0
:1030F0008093EC0381E08093E203209709F460C0A1
:10310000AE014C5F5F4F2396C633D74108F058C0DD
:10311000E091E703F091E803A7EEB3E006C08081F9
:103120009181009739F0DF01FC012281338124175E
:103130003507A8F3C3E0E33EFC0709F441C00D9155
:103140001C9111970C5F1F4F808191818D939C93EF
:10315000C901841B950B8930910500F1BF01640FF3
:10316000751FDB0113969C938E93129753834283B2
:1031700012968D919C911397A7EEB3E001C0DF01E9
:10318000ED91FC9111972281338128173907B8F30B
:10319000EB01F983E8836D937C939A01809100029F
:1031A00090910102821B930B909301028093000285
:1031B0000E94711CC801DF91CF911F910F9108955A
:1031C00000E010E00E94711CC801DF91CF911F91B7
:1031D0000F910895CF93DF93009721F1EC0124978D
:1031E0000E943E1B4A815B81A7EEB3E001C0DF0174
:1031F000ED91FC9111972281338124173507B8F3A3
:10320000F983E883CD93DC938091000290910102D1
:10321000840F951F9093010280930002DF91CF915C
:103220000C94711CDF91CF910895809100029091D0
:103230000102089508958091581B823018F00E9471
:10324000FE29F9CFFFCFCF92DF92EF92FF926B0171
:103250007C01E091231BF091241B628373838483A0
:10326000958380912C1B90912D1BA0912E1BB091CA
:103270002F1B6091231B7091241BC816D906EA06E8
:10328000FB0610F18091401B9091411B6E5F7F4FB8
:103290000E94C5288091020290910302A09104022D
:1032A000B0910502C816D906EA06FB0640F4C092A2
:1032B0000202D0920302E0920402F0920502FF9013
:1032C000EF90DF90CF90089580913E1B90913F1B2F
:1032D0006E5F7F4FFF90EF90DF90CF900C94C528EA
:1032E0005F926F927F928F929F92AF92BF92CF9296
:1032F000DF92EF92FF920F931F93CF93DF934C01D6
:10330000162F572E5A01390189E290E00E94511878
:10331000EC01009709F4E9C0C114D10409F4DAC042
:10332000DC8ECB8EC601A50165EA70E00E94B63343
:1033300021E0A21AB108CB8CDC8CCA0CDB1CAE01DC
:10334000435E5F4FE12FF52D2AE0CF013191DA0185
:103350003D93AD01DC018C91882311F02150A9F738
:103360001EA2102F043008F07DC01A8F1FA318A6CC
:103370005E01B2E0AB0EB11CC5010E94A028CE01D7
:103380000E960E94A028DB87CA8784E090E0A0E028
:10339000B0E0811B9109A109B1098E879F87A88B95
:1033A000B98BDF8BCE8BA301B401C6010E942E29FD
:1033B00099838883E114F10419F0F701D183C08364
:1033C0000FB6F8940F928091301B8F5F8093301B63
:1033D0008091231B9091241B892B09F449C0809173
:1033E0002A1B81110BC0E091231BF091241B828DBD
:1033F000081720F0D093241BC093231B8091261B19
:103400008F5F8093261B8A8D90912B1B981738F124
:10341000FBE08F9FC0011124B501885A944E0E9491
:10342000A4280F900FBE80912A1B882339F0E091C9
:10343000231BF091241B828D8017B0F081E0DF9177
:10344000CF911F910F91FF90EF90DF90CF90BF90A1
:10345000AF909F908F907F906F905F900895809332
:103460002B1BD6CF13E081CF0E94FE2981E0E7CF4E
:10347000D093241BC093231B8091301B813009F013
:10348000BDCF88E59BE10E948F2883E69BE10E94E7
:103490008F288EE69BE10E948F2889E79BE10E949E
:1034A0008F288DE49BE10E948F2882E49BE10E949B
:1034B0008F2883E39BE10E948F288DE49BE190930A
:1034C000411B8093401B82E49BE190933F1B8093C0
:1034D0003E1B94CFC5010E9451189C8F8B8F009783
:1034E00009F021CFCE010E94EA188FEFA8CF0FB6C6
:1034F000F8940F92009729F00F900FBEFC01828D77
:1035000008958091231B9091241B0F900FBEFC0106
:10351000828D0895EF92FF921F93CF93DF93EC017A
:10352000262F643008F023E00FB6F8940F9220970E
:1035300009F44AC03FA13217A9F18091231B909151
:10354000241B3217B8F5C817D90741F0E091231BA7
:10355000F091241B11E0828D281708F410E08A8D69
:10356000381769F12FA34E855F856889798977FDC2
:103570000CC044E050E060E070E0421B510961097A
:1035800071094E875F87688B798B2BE0829FC00122
:103590001124885A944E2C853D8528173907C9F087
:1035A000113079F00F900FBEDF91CF911F91FF90F6
:1035B000EF90089511E0C817D90781F6D0CF2A8F70
:1035C000D1CF0E94FE29EECFC091231BD091241BA6
:1035D000B1CF7E0182E0E80EF11CC7010E940229F2
:1035E0008A8D90912B1B981710F480932B1B2BE046
:1035F000829FC0011124B701885A944E0E94A428CA
:10360000CFCFAF92BF92CF92DF92EF92FF920F9304
:10361000A12CB12CC12CD12C81E3E82E8BE1F82E0A
:1036200000E020E030E044E650E060E873E08BE149
:1036300099E10E947019813041F00F91FF90EF9055
:10364000DF90CF90BF90AF900895F89480932A1B9D
:1036500010922C1B10922D1B10922E1B10922F1BC0
:103660000F91FF90EF90DF90CF90BF90AF900C94B0
:10367000C229F89410922A1B0C94FD298091251BD5
:103680008F5F8093251B08950FB6F8940F92609179
:103690002C1B70912D1B80912E1B90912F1B0F9036
:1036A0000FBE089560912C1B70912D1B80912E1BD5
:1036B00090912F1B08958091301B0895009711F071
:1036C0004D9608958091231B9091241B4D9608954B
:1036D0008091311B9091321B0895AF92BF92CF928F
:1036E000DF92EF92FF920F931F93CF93DF9380911E
:1036F000251B8111CFC080912C1B90912D1BA09177
:103700002E1BB0912F1B0196A11DB11D80932C1B68
:1037100090932D1BA0932E1BB0932F1BC0902C1B9E
:10372000D0902D1BE0902E1BF0902F1BC114D104C4
:10373000E104F10439F58091401B9091411B2091E7
:103740003E1B30913F1B3093411B2093401B9093B5
:103750003F1B80933E1B8091271B8F5F8093271B0D
:10376000E091401BF091411B808181119AC08FEF45
:103770009FEFDC018093020290930302A093040266
:10378000B09305028091020290910302A09104027D
:10379000B0910502B12CC816D906EA06FB0608F45A
:1037A00057C09BE0A92EE091401BF091411B808106
:1037B000882309F442C0E091401BF091411B07802F
:1037C000F085E02DC085D1854A815B816C817D814A
:1037D000C416D506E606F70608F47AC08E010E5F19
:1037E0001F4FC8010E940229888D998D892B21F0D5
:1037F000CE010E960E9402298A8D90912B1B98175C
:1038000010F480932B1BA89EC0011124B801885A84
:10381000944E0E94A428E091231BF091241B9A8DC2
:10382000828D981708F4BFCFBB24B394E091401B5E
:10383000F091411B80818111BECF4FEF5FEFBA0144
:1038400040930202509303026093040270930502B6
:10385000E091231BF091241BE28D8BE0E89FF001A7
:103860001124E85AF44E8081823010F0BB24B394C6
:103870008091281B882311F0BB24B3948B2DDF91FA
:10388000CF911F910F91FF90EF90DF90CF90BF905D
:10389000AF9008958091291B8F5F8093291BB12CD5
:1038A000E7CFE091401BF091411B0780F085E02DB0
:1038B0000084F185E02D82819381A481B58180937C
:1038C000020290930302A0930402B09305025ACF20
:1038D0004093020250930302609304027093050226
:1038E000B7CFEF92FF920F931F93CF93DF930FB653
:1038F000F8940F928091251B81508093251B809115
:10390000251B811150C08091301B882309F44BC0C6
:103910002BE0F22EEE24E39427C0E0913A1BF091C5
:103920003B1BC085D185CE010E960E9402298E01D7
:103930000E5F1F4FC8010E9402298A8D90912B1B98
:10394000981710F480932B1BF89EC0011124B80126
:10395000885A944E0E94A428E091231BF091241BC6
:103960009A8D828D981748F58091331B8111D5CFA0
:103970008091291B882399F08091291B882379F055
:10398000C1E00E946D1B8111C093281B8091291BEF
:1039900081508093291B8091291B8111F2CF809146
:1039A000281B813069F080E00F900FBEDF91CF912E
:1039B0001F910F91FF90EF900895E092281BD4CFB4
:1039C0000E94FE2981E0F0CFCF92DF92EF92FF922A
:1039D0000F931F93CF93DF9300D000D0CDB7DEB706
:1039E0002091251B2F5F2093251BC0902C1BD0906E
:1039F0002D1BE0902E1BF0902F1BFC0100811181EC
:103A000022813381400F511F621F731FC016D106E0
:103A1000E206F306E8F44017510762077307E8F07F
:103A2000FC0140835183628373830E94711C811166
:103A300002C00E94FE290F900F900F900F90DF910F
:103A4000CF911F910F91FF90EF90DF90CF9008954D
:103A5000401751076207730728F0C416D506E6061B
:103A6000F706F0F6FC0140835183628373838091F3
:103A7000231B9091241B029649835A836B837C837A
:103A80000E94022949815A816B817C81CB01BA0154
:103A90000E942319CACFCF92DF92EF92FF92611555
:103AA00071058105910539F40E94FE29FF90EF9080
:103AB000DF90CF9008952091251B2F5F2093251B29
:103AC000C0902C1BD0902D1BE0902E1BF0902F1B34
:103AD000C60ED71EE81EF91E8091231B9091241B51
:103AE00002960E940229C701B6010E9423190E9472
:103AF000711C8823C9F2FF90EF90DF90CF9008955A
:103B00008091251B81113BC01092281BE0912B1B3B
:103B10008BE0E89FF0011124E85AF44E8081811176
:103B200010C09BE080912B1B815080932B1BE09158
:103B30002B1B9E9FF0011124E85AF44E80818823AC
:103B400089F3E0912B1B8BE0E89FF0011124E85AE8
:103B5000F44EA181B28114960D90BC91A02DB28338
:103B6000A183CF010396A817B90769F018968D9124
:103B70009C9119979093241B8093231B089581E0B7
:103B80008093281B089514969C91149715968C91F8
:103B900091838283A92FB82FE9CFCF92DF92EF9242
:103BA000FF926A017B016091231B7091241B625F6D
:103BB0007F4F0E94C5288091231B9091241B029661
:103BC0000E94022960912C1B70912D1B80912E1B4D
:103BD00090912F1B6C0D7D1D8E1D9F1DFF90EF90F2
:103BE000DF90CF900C942319CF92DF92EF92FF9247
:103BF0000F931F9368017901E091231BF091241B1F
:103C0000706846875787608B718B6091231B70911A
:103C1000241B625F7F4F0E94A4288091231B9091F8
:103C2000241B02960E94022960912C1B70912D1B6F
:103C300080912E1B90912F1B6C0D7D1D8E1D9F1D45
:103C40001F910F91FF90EF90DF90CF900C9423196C
:103C50000F931F93CF93DF93DC011796ED91FC91A7
:103C60001897C085D1858E01025F1F4FC8010E9441
:103C700002298091251B811124C08E010E5F1F4FE8
:103C8000C8010E9402298A8D90912B1B9817F8F089
:103C9000BBE08B9FC0011124B801885A944E0E944A
:103CA000A428E091231BF091241B9A8D828D891703
:103CB00088F481E08093281BDF91CF911F910F91B1
:103CC0000895B80183E39BE10E94A428EACF809382
:103CD0002B1BDECF80E0DF91CF911F910F910895D4
:103CE0000F931F93CF93DF937068FC014083518340
:103CF00062837383C085D1850E9402298E010E5F85
:103D00001F4FC8010E9402298A8D90912B1B981782
:103D100010F480932B1BFBE08F9FC0011124B8018E
:103D2000885A944E0E94A428E091231BF091241BF2
:103D30009A8D828D891740F481E08093281BDF9152
:103D4000CF911F910F91089580E0DF91CF911F9146
:103D50000F9108952091271BFC01208340912C1B7B
:103D600050912D1B60912E1B70912F1B418352830C
:103D70006383748308958F929F92AF92BF92CF9284
:103D8000DF92EF92FF920F931F93FC01DB010FB6BE
:103D9000F8940F9240912C1B50912D1B60912E1B7B
:103DA00070912F1B8091271B9081018112812381AB
:103DB0003481981729F0401751076207730770F58F
:103DC000CD90DD90ED90FC9013974A015B01801A35
:103DD000910AA20AB30A8C149D04AE04BF04F0F445
:103DE000C41AD50AE60AF70AC00ED11EE21EF31E57
:103DF000CD92DD92ED92FC9213978091271B8083E8
:103E000080912C1B90912D1BA0912E1BB0912F1BEC
:103E100081839283A383B48380E001C081E00F900B
:103E20000FBE1F910F91FF90EF90DF90CF90BF904A
:103E3000AF909F908F90089581E08093281B089504
:103E4000009799F0DC015B96ED91FC915C97808185
:103E5000853A81F4319680E090E0DC010196A11D65
:103E6000B11D2191253AD1F308958091231B9091A2
:103E7000241BE8CF80E008958091231B9091241BA0
:103E800008950F931F93CF93DF93EC01009781F177
:103E90008A8DE091231BF091241B928D891740F5A8
:103EA0004E855F856889798977FD11C0E091231B74
:103EB000F091241B928D44E050E060E070E0491BDB
:103EC0005109610971094E875F87688B798B2BE0F7
:103ED000829FC0011124885A944E2C853D85281755
:103EE000390759F0E091231BF091241B828D8A8FB2
:103EF000DF91CF911F910F9108958E010E5F1F4F9B
:103F0000C8010E940229E091231BF091241B828D9D
:103F10008A8F90912B1B981710F480932B1B2BE00A
:103F2000829FC0011124B801885A944EDF91CF912D
:103F30001F910F910C94A4280F931F93CF93DF939D
:103F4000EC01009749F088A5815088A72A8D9FA190
:103F5000291711F0882331F080E0DF91CF911F9174
:103F60000F9108958E010E5F1F4FC8010E94022914
:103F70008FA18A8F44E050E060E070E0481B510957
:103F8000610971094E875F87688B798B90912B1B34
:103F9000981710F480932B1B2BE0829FC0011124F3
:103FA000B801885A944E0E94A42881E0DF91CF91F5
:103FB0001F910F910895CF92DF92EF92FF92E091BF
:103FC000231BF091241B6685778580899189E09178
:103FD000231BF091241BA091231BB091241B5A9604
:103FE0002C9134E0C32ED12CE12CF12CC21AD10833
:103FF000E108F108C686D786E08AF18AFF90EF9043
:10400000DF90CF9008958091231B9091241B892BE2
:1040100039F0E091231BF091241B80A58F5F80A7CE
:104020008091231B9091241B0895EF92FF920F9390
:104030001F93CF93DF9300D0CDB7DEB77C0189E823
:1040400093E0F7019183808361157105C1F0FB0155
:1040500001900020E9F73197E61BED3020F50E2F97
:1040600010E0C801019669837A830E94E324F70176
:1040700095838483A80169817A810E94BD338091F0
:10408000841B9091851BF70197838683F092851B93
:10409000E092841B0F900F90DF91CF911F910F91B1
:1040A000FF90EF900895ECE0DACF0F931F93CF933A
:1040B000DF93EC018091841B9091851B6BE0892B31
:1040C00049F1CE010E9458258C016BE67DE00E94EB
:1040D000132566E0C8010E9458256BE0CE010E94BE
:1040E00058258C0168E47DE00E94132566E0C80134
:1040F0000E9458258091841B9091851BDC01ED91D5
:10410000FC910190F081E02DBE01DF91CF911F91D4
:104110000F910994CE010E945825EC016AE27DE0DE
:104120000E94132566E0CE01DF91CF911F910F9180
:104130000C9458254F925F926F927F928F929F922C
:10414000AF92BF92CF92DF92EF92FF920F931F93A5
:10415000CF93DF93EC013B0149012801FC018FE87B
:1041600093E081939193A12CB12CC12CD12C7F0190
:10417000042F9E01A40180EF91E30E9470195F82D9
:104180004E82998688862091861B3091871B3D83BD
:104190002C83D093871BC093861B1C861D86809022
:1041A000941B9090951B9FEF891A990A9092951BEA
:1041B0008092941B9B868A861E861F86188A198A7F
:1041C0004114510409F44CC06BE0813041F1C2014B
:1041D0000E945825EC016EE87DE00E941325B30192
:1041E000CE010E941325E881F9810280F381E02D40
:1041F00062E2CE01099566E0CE01DF91CF911F9179
:104200000F91FF90EF90DF90CF90BF90AF909F9075
:104210008F907F906F905F904F900C945825C201C3
:104220000E945825EC0164EA7DE00E941325B30149
:10423000CE010E9413256BE0CE010E945825EC01AF
:104240006BEA7DE00E94132563E0CE010E945825B1
:10425000B4010E94FE2562E00E94582566E0CDCFA1
:10426000DF91CF911F910F91FF90EF90DF90CF9052
:10427000BF90AF909F908F907F906F905F904F9086
:104280000895EC01E881F9810190F081E02D099514
:104290001B821A826FEF7FEFCB010E944B1DFACF7A
:1042A000FC01648765870895FC01C681D78120974A
:1042B00039F0CE010E94132566E0CE010E945825F8
:1042C0002BE088E190E00FB6F894A8958093600009
:1042D0000FBE20936000FFCF0E94441B0E941F333B
:1042E00020E030E04AE754E40E94B7320895CF92CC
:1042F000DF92EF92FF920F931F93CF93DF93EC0126
:104300007B018A819B810E945E1B6C016BE0C7016F
:104310000E9458258C0162EC7DE00E941325B601B5
:10432000C8010E94132566E0C8010E9458258A85AD
:104330009B8528853985A701BC01821B930B0E94B0
:104340005C240C80DD81C02D2097D9F6DF91CF91C0
:104350001F910F91FF90EF90DF90CF9008950F93F2
:104360001F93CF93DF93EC018091861B9091871B65
:10437000009719F0BE010E9477216BE0CE010E94E8
:1043800058258C0169EC7DE00E94132566E0C80188
:104390000E9458258091941B9091951BBC016F5FE2
:1043A0007F4FAE0183569109DF91CF911F910F91FD
:1043B0000C945C248F929F92AF92BF92CF92DF9227
:1043C000EF92FF920F931F93CF93DF93EC018B013A
:1043D0008A819B810E945E1BBC01C8010E9413253B
:1043E000D801ED91FC910280F381E02D69E0C801D4
:1043F00009958A819B810E945E1BFC01019000202F
:10440000E9F73197E81BF90B389748F4D801ED919B
:10441000FC910280F381E02D69E0C8010995CE840A
:10442000DF84E888F988A884B9848A819B810E9406
:10443000201F982E8C848A819B810E94771A682F76
:10444000C8010E9480266BE00E945825EC016DE3B4
:104450007EE00E941325682DCE010E9480266BE02D
:104460000E945825EC016FE37EE00E941325692D20
:10447000CE010E9480266BE00E945825EC0161E489
:104480007EE00E941325B501CE010E94FE256BE05F
:104490000E945825EC0163E47EE00E9413256BE046
:1044A000CE010E945825EC0165E47EE00E941325B0
:1044B000B701A601CE01DF91CF911F910F91FF901F
:1044C000EF90DF90CF90BF90AF909F908F900C9423
:1044D00038260F931F93CF93DF93EC018B01E88174
:1044E000F9810280F381E02DB801CE01099566E0E3
:1044F000C8010E9458250C80DD81C02D209779F7D6
:10450000DF91CF911F910F910895CF93DF93EC012D
:10451000CB01DB01ED91FC910280F381E02DBE0126
:104520000995CE01DF91CF9108950F931F93CF93FB
:10453000DF93EC016BE00E9458258C016BE27EE07A
:104540000E9413256BE0C8010E9458258C0166E388
:104550007EE00E94132566E0C8010E9458256BE0AA
:10456000CE010E9458258C0168E07EE00E94132550
:104570006BE0C8010E9458258C0169E17EE00E9431
:1045800013256BE0C8010E9458258C0165E27EE08E
:104590000E94132566E0C8010E9458256BE0CE01F9
:1045A0000E9458258C0165EE7DE00E9413256BE08A
:1045B000C8010E9458258C0166EF7DE00E941325FA
:1045C0006BE0C8010E9458258C0162E07EE00E94E9
:1045D000132566E0C8010E9458258091861B9091A2
:1045E000871B009719F0BE010E9469220E94681B78
:1045F0000E94201F182F6BE0CE010E945825EC016D
:1046000064ED7DE00E941325612FCE010E9480267B
:104610006BE00E945825EC016FED7DE00E941325B0
:1046200064E670E0CE010E94FE256BE00E945825F2
:10463000EC0161EE7DE00E94132566E0CE01DF9182
:10464000CF911F910F910C945825CF92DF92EF924A
:10465000FF920F931F93CF93DF937C018B01DC01BB
:104660001A966D917C911B97C8010E941325F70142
:10467000A285B385FD0101900020E9F73197DE2E78
:10468000DA1AFFE0FD1580F0C0E0D0E0D801ED912E
:10469000FC910280F381E02D60E2C801099521962A
:1046A0008C2F8D0D803190F363E973E0C8010E9477
:1046B0001325D7015696CD90DC9057971E968D9175
:1046C0009C911F970E94572E682FC8010E94802638
:1046D000EC01E881F9810280F381E02D6FE2099518
:1046E000B601CE010E94FE25DC01ED91FC91028015
:1046F000F381E02D69E0099566E0C8010E94582524
:10470000F70184859585009781F0DC01ED91FC919E
:104710000190F081E02DB801DF91CF911F910F91B1
:10472000FF90EF90DF90CF900994DF91CF911F9190
:104730000F91FF90EF90DF90CF9008956F927F924E
:104740008F929F92AF92BF92CF92DF92EF92FF92A1
:104750000F931F93CF93DF93EC01762E672E4A01C0
:104760005901670178010E940825B401CE0106961F
:104770000E9415208EE993E09983888320EB33E033
:104780003F832E83BD8AAC8A40E061E0872D0E9482
:10479000C82B9F878E87C88AD98AEA8AFB8A7E8A35
:1047A0006F8ADF91CF911F910F91FF90EF90DF9073
:1047B000CF90BF90AF909F908F907F906F90089513
:1047C00006970C942523CF92DF92EF92FF920F93DE
:1047D0001F93CF93DF93CDB7DEB72F970FB6F89423
:1047E000DEBF0FBECDBF8C017B01DB016D917D91E2
:1047F0008D919C9128EE33E040E050E00E946132C0
:10480000BA01A901C8010E943826D801ED91FC9196
:104810000280F381E02D6EE2C8010995C7010E9474
:10482000802E6E01B9E0CB0ED11C7E01EFE0EE0EC2
:10483000F11C2AE030E040E050E00E948332E62F95
:1048400029833A834B835C8369817A818B819C8144
:10485000E05DD701EE937D01AC15BD0551F71F86D4
:10486000BD01C8010E941325C8012F960FB6F89408
:10487000DEBF0FBECDBFDF91CF911F910F91FF9093
:10488000EF90DF90CF900895CF93DF93EC010FB6B8
:10489000F8940F9280912401909125019D838C833F
:1048A0000E94441B688379838A839B830F900FBE89
:1048B000CE01DF91CF9108958F929F92AF92BF92D8
:1048C000CF92DF92EF92FF920F931F93CF93DF93DC
:1048D0006C014B01EA0163E0CA010E945825C8142B
:1048E000D90408F059C0560184E1A80EB11C750125
:1048F000B601CE010E94FE256BE00E94582567E4B8
:104900007EE00E9413258601F80161918F01CE019E
:104910000E948026E881F9810280F381E02D60E227
:10492000CE0109950E151F0579F7E881F9810280FE
:10493000F381E02D60E2CE0109950FC080EE860F75
:10494000E881F9810280F381E02D8F3508F06EE275
:10495000CE010995CE14DF0481F0F60161916F015B
:10496000653A61F7E881F9810280F381E02D60E228
:10497000CE010995CE14DF0481F7650166E0CE0112
:104980000E945825F4E1EF0EF11CA814B90420F49C
:10499000C50144965C01ACCF62E0CE01DF91CF91BE
:1049A0001F910F91FF90EF90DF90CF90BF90AF904D
:1049B0009F908F900C9458250C945118009711F0EB
:1049C0000C94EA1808950C945118009711F00C9467
:1049D000EA180895FC0181E090E02081222311F083
:1049E00080E090E0089521E0FC012083089508957F
:1049F000089581E0089580E0089580E00895089585
:104A0000DC01ED91FC910280F381E02D6CE00994D2
:104A1000FC0186EB93E0918380838AE0828383E0CC
:104A20008583148208950F931F93CF93DF93EC0136
:104A3000FB018C81811117C06081662379F08F01A1
:104A40000F5F1F4FE881F9810280F381E02DCE01D5
:104A50000995F80161918F016111F4CFDF91CF9138
:104A60001F910F9108951C828B010F5F1F4F64915E
:104A70006623A1F3A881B9811296ED91FC91139759
:104A8000CE010995F80164910F5F1F4F6111F2CFBC
:104A9000E5CF883008F087E08093070289E0089529
:104AA0009EEF980F9F3010F4809306028AE00895DD
:104AB000CF93DF93EC01462F50E04C30510538F492
:104AC000FA01EA59FF4F0C94A23282E08A83CE01A8
:104AD000DF91CF91089581E08C83F9CF88E08A83BC
:104AE000F6CF8AE08A83F3CF80E18A83F0CFE88132
:104AF000F9810280F381E02D6DE00995E881F9816B
:104B00000280F381E02D6AE0CE010995E0CFE881D3
:104B1000F9810284F385E02D0995D9CFE881F981E7
:104B20000084F185E02D0995D2CF809107028D8315
:104B3000CECF809106028A83CACF0F931F93CF9363
:104B4000DF93CDB7DEB761970FB6F894DEBF0FBE27
:104B5000CDBF8C01CB01F80122812A3079F0C80148
:104B60000E94FE25C80161960FB6F894DEBF0FBE05
:104B7000CDBFDF91CF911F910F9108954AE050E092
:104B8000BE016F5F7F4F0E94CC33BE016F5F7F4FCE
:104B9000C8010E941325E6CF0F931F93CF93DF9395
:104BA000CDB7DEB7A2970FB6F894DEBF0FBECDBF6C
:104BB0008C01CB01BA01F80122812A3089F0AB01C6
:104BC000BC01C8010E943826C801A2960FB6F8940D
:104BD000DEBF0FBECDBFDF91CF911F910F91089522
:104BE0002AE030E0AE014F5F5F4F0E94ED33BE011F
:104BF0006F5F7F4FC8010E941325E6CFFF920F938E
:104C00001F93CF93DF93CDB7DEB761970FB6F894BC
:104C1000DEBF0FBECDBF8C01F62E972FF80142816B
:104C2000403191F0483081F0423071F050E0BE01E7
:104C30006F5F7F4F8F2D0E944634BE016F5F7F4FA5
:104C4000C8010E94132507C0692FC8010E94802651
:104C50006F2D0E948026C80161960FB6F894DEBFC2
:104C60000FBECDBFDF91CF911F910F91FF9008959F
:104C7000DF92EF92FF920F931F93CF93DF93CDB705
:104C8000DEB7A1970FB6F894DEBF0FBECDBF8C0183
:104C9000D42EE52EF62E972FF80122812031A1F097
:104CA000283091F0223081F030E0AE014F5F5F4F4D
:104CB0006D2D7E2D8F2D0E942134BE016F5F7F4FA1
:104CC000C8010E9413250DC0692FC8010E948026CB
:104CD0006F2D0E9480266E2D0E9480266D2D0E94D1
:104CE0008026C801A1960FB6F894DEBF0FBECDBFD7
:104CF000DF91CF911F910F91FF90EF90DF9008957A
:104D0000CF92DF92EF92FF920F931F93CF93DF9397
:104D1000CDB7DEB729970FB6F894DEBF0FBECDBF73
:104D20008C01D62EDC0113968C91139781115DC0F6
:104D3000F80142814230D9F14031F1F050E0BE013A
:104D40006F5F7F4F8D2D90E00E944634BE016F5FF4
:104D50007F4FC8010E941325C80129960FB6F89409
:104D6000DEBF0FBECDBFDF91CF911F910F91FF909E
:104D7000EF90DF90CF90089562956F700190F08171
:104D8000E02D0280F381E02D6A30B8F5605DC80146
:104D900009956D2D6F70D801ED91FC910280F38122
:104DA000E02D6A3060F1695CC8010995D5CF88E0D3
:104DB000E82EF12C90E8C92E0AC061E3C8010995DC
:104DC000C694B1E0EB1AF108E114F10429F28C2D3C
:104DD0008D21D801ED91FC910280F381E02D8111AC
:104DE000ECCF60E3C8010995EBCFED91FC91028017
:104DF000F381E02DC8010995AFCF695CC8CF605D34
:104E0000D3CFDC011896ED91FC91199780811C9607
:104E10009C911C97892359F421E23EE405C021505E
:104E200031092115310571F080818923C1F3808119
:104E30001E969C911E97892B80831696ED91FC916E
:104E4000179760830895FC01878581111DC020910B
:104E5000901B3091911B80918E1B90918F1B281776
:104E6000390789F0E091921BF091931BE20FF31F39
:104E700080812F5F3F4F2032310518F11092911B36
:104E80001092901B0895FFCF20918A1B30918B1BAD
:104E90008091881B9091891B2817390789F0E09130
:104EA0008C1BF0918D1BE20FF31F80812F5F3F4F12
:104EB0002032310558F010928B1B10928A1B0895F6
:104EC000FFCF3093911B2093901B089530938B1B41
:104ED00020938A1B0895DC01ED91FC910280F381FF
:104EE000E02D6CE00994FC018785882369F081E05E
:104EF00040918A1B50918B1B2091881B3091891BFC
:104F00004217530769F0089581E04091901B50913A
:104F1000911B20918E1B30918F1B4217530799F7DD
:104F200080E00895EF92FF921F93CF93DF9300D01C
:104F3000CDB7DEB77C01142F69837A830E940825E0
:104F4000412F69817A81C70106960E94BE2E86ECA8
:104F500093E0F7019183808317871123E9F0809113
:104F6000C90080688093C90080E290E00E94E32439
:104F700090938D1B80938C1B10928B1B10928A1B1D
:104F80001092891B1092881B0F900F90DF91CF9188
:104F90001F91FF90EF9008958091C10080688093E9
:104FA000C10080E290E00E94E3249093931B8093E1
:104FB000921B1092911B1092901B10928F1B1092BB
:104FC0008E1B0F900F90DF91CF911F91FF90EF906C
:104FD00008951F920F920FB60F9211240BB60F92E5
:104FE0002F933F938F939F93EF93FF932091C6004E
:104FF000E091921BF091931B80918E1B90918F1BDF
:10500000E80FF91F208380918E1B90918F1B0196D2
:1050100080329105C0F490938F1B80938E1B20915A
:10502000901B3091911B28173907D1F0FF91EF9118
:105030009F918F913F912F910F900BBE0F900FBEBC
:105040000F901F90189510928F1B10928E1B80E06E
:1050500090E02091901B3091911B2817390731F770
:1050600001969093911B8093901B8097F8F2109279
:10507000911B1092901BDACF1F920F920FB60F92D6
:1050800011240BB60F922F933F938F939F93EF931F
:10509000FF932091CE00E0918C1BF0918D1B8091AD
:1050A000881B9091891BE80FF91F20838091881B32
:1050B0009091891B019680329105C0F49093891BD1
:1050C0008093881B20918A1B30918B1B28173907EE
:1050D000D1F0FF91EF919F918F913F912F910F9080
:1050E0000BBE0F900FBE0F901F9018951092891B4A
:1050F0001092881B80E090E020918A1B30918B1BDE
:105100002817390731F7019690938B1B80938A1BE0
:105110008097F8F210928B1B10928A1BDACFFC0159
:105120000396928381834FEF5FEFBA0143835483E9
:10513000658376839087878392878187108208951D
:10514000FC01138612860895CF93DF939C01FB0127
:10515000DC011196CD91DC911297D583C4838E81A9
:105160009F81978386838E819F81DC0115967C9336
:105170006E9314977F836E8333872287F901808132
:105180008F5F8083DF91CF9108950F931F93CF930B
:10519000DF93EB01088119812A813B810F3F4FEF9B
:1051A00014072407340731F1DC01139601C0DF0135
:1051B0001496ED91FC911597408151816281738124
:1051C000041715072607370790F7FD83EC83D7836D
:1051D000C683BF83AE831596DC93CE9314979B87CB
:1051E0008A87FC0120812F5F2083DF91CF911F915F
:1051F0000F910895FC01A185B2851496ED91FC9163
:105200001597E3CFCF93DF93FC01A285B38524816B
:10521000358186819781E9019F838E83868197817D
:10522000EC013D832C8311962D913C9112972E1702
:105230003F0741F0138612868C9181508C93DF9149
:10524000CF91089512969C938E9311971386128690
:105250008C9181508C93DF91CF9108959093951B01
:105260008093941B31E1FC013083319722E220834B
:10527000FC013297A3E3A083FC0133976083FC0118
:1052800034977083FC0135971082FC01369760E8F3
:105290006083FC0137971082FC01389762E06083DD
:1052A000FC01399763E06083FC013A9764E0608316
:1052B000FC013B9765E06083FC013C9766E06083FE
:1052C000FC013D9767E06083FC013E9768E06083E6
:1052D000FC013F9769E06083FC01709760E16083A7
:1052E000FC0171973083FC01729732E13083FC013D
:1052F000739733E13083FC01749734E13083FC0110
:10530000759735E13083FC01769736E13083FC01F7
:10531000779737E13083FC01789738E13083FC01DF
:10532000799739E13083FC017A9730E23083FC01D0
:105330007B9731E23083FC017C972083FC017D97D1
:1053400023E22083FC017E974083FC017F975083FA
:10535000FC01B09726E22083FC01B19727E220836D
:10536000FC01B29728E22083FC01B39729E2208355
:10537000FC01B49720E32083FC01B59721E320834F
:105380008697089587E0809329018FEC8093280108
:105390008AE080932101E3E7F0E0808182608083EE
:1053A000A091231BB091241BCD91CDBFDD91DEBF19
:1053B000FF91EF91DF91CF91BF91AF919F918F912D
:1053C0007F916F915F914F913F912F911F910F911D
:1053D000FF90EF90DF90CF90BF90AF909F908F9015
:1053E0007F906F905F904F903F902F901F900F9005
:1053F0000FBE0F90089581E0089508950F920FB6A3
:10540000F8940F921F9211242F923F924F925F9225
:105410006F927F928F929F92AF92BF92CF92DF92C4
:10542000EF92FF920F931F932F933F934F935F93AE
:105430006F937F938F939F93AF93BF93CF93DF939C
:10544000EF93FF93A091231BB091241B0DB60D92F7
:105450000EB60D920E94801DA091231BB091241BBB
:10546000CD91CDBFDD91DEBFFF91EF91DF91CF9167
:10547000BF91AF919F918F917F916F915F914F916C
:105480003F912F911F910F91FF90EF90DF90CF9060
:10549000BF90AF909F908F907F906F905F904F9054
:1054A0003F902F901F900F900FBE0F9008950F9276
:1054B0000FB6F8940F921F9211242F923F924F92A1
:1054C0005F926F927F928F929F92AF92BF92CF9294
:1054D000DF92EF92FF920F931F932F933F934F937F
:1054E0005F936F937F938F939F93AF93BF93CF936C
:1054F000DF93EF93FF93A091231BB091241B0DB674
:105500000D920EB60D920E946D1B81110E94801D9E
:10551000A091231BB091241BCD91CDBFDD91DEBFA7
:10552000FF91EF91DF91CF91BF91AF919F918F91BB
:105530007F916F915F914F913F912F911F910F91AB
:10554000FF90EF90DF90CF90BF90AF909F908F90A3
:105550007F906F905F904F903F902F901F900F9093
:105560000FBE0F9008950E94572A18951F93CF934E
:10557000DF93EC01142F88A181110DC088819981DE
:10558000892B09F44DC080E09E8D9F5F9E8FDF9137
:10559000CF911F910895482F50E011111CC08C81AC
:1055A0009D810E94AD3328A18C819D81820F911D28
:1055B0009D838C832A813B818217930720F3888106
:1055C00099819D838C8380E09E8D9F5F9E8FDF916C
:1055D000CF911F9108958E819F810E94AD3328A1A4
:1055E00030E03195219531098E819F81820F931F83
:1055F0009F838E83688179818617970730F48A812B
:105600009B81820F931F9F838E83123009F0BBCF43
:105610008E8D882309F4B7CF8E8D81508E8FB3CFB6
:105620008A819B810E949C1F1B821A82ADCFFC0144
:10563000CB0140A1442399F050E026813781240F0B
:10564000351F37832683628173812617370720F041
:105650002081318137832683B9010C94AD330895BD
:105660000F931F93CF93DF93EC010FB6F8940F9233
:105670008AA11816ECF48B898823D1F08E010D5E77
:105680001F4F09C08AA181508AA38AA1181684F4E9
:105690008B89882369F0C8010E94281E882391F312
:1056A0000E941C1F8AA181508AA38AA1181684F324
:1056B0008FEF8AA30F900FBE0FB6F8940F9289A1B7
:1056C0001816ECF488858823D1F08E01085F1F4FEF
:1056D00009C089A1815089A389A1181684F48885FD
:1056E000882369F0C8010E94281E882391F30E9434
:1056F0001C1F89A1815089A389A1181684F38FEFFB
:1057000089A30F900FBEDF91CF911F910F91089544
:10571000CF93DF93EC010FB6F8940F922881398173
:105720008F8D78A1879FC0011124A901480F591FAF
:105730005B834A831E8E3D832C83871B9109820FD6
:10574000931F9F838E838FEF89A38AA3611112C059
:105750008885811106C00F900FBE81E0DF91CF9147
:105760000895CE0108960E94281E8130A1F70E945C
:10577000FE29F1CFCE0108960E948F28CE014396D4
:105780000E948F280F900FBE81E0DF91CF91089586
:105790000F931F93CF93DF93182F062F882301F1C8
:1057A00083E290E00E945118EC010097C9F0109F2D
:1057B000C001112401960E94511899838883892B76
:1057C00061F01F8F08A361E0CE010E94882BCE01FB
:1057D000DF91CF911F910F910895CE010E94EA1899
:1057E000C0E0D0E0CE01DF91CF911F910F910895DD
:1057F0006F927F928F929F92AF92BF92CF92DF92E1
:10580000EF92FF920F93CF93DF93CDB7DEB7299737
:105810000FB6F894DEBF0FBECDBF5C014B012E83E7
:105820003F834887598720E03C0188E0680E711C5F
:105830000FB6F8940F92F501968D878D981708F49E
:1058400059C0023009F456C0CE80DF80E884F98464
:10585000CD28CE28CF2809F46FC0222309F441C0F7
:105860000F900FBE0E943E1B0FB6F8940F92F501E9
:1058700081A18F3F09F43CC0F50182A18F3FB1F1B6
:105880000F900FBEBE016A5F7F4FCE0101960E944E
:10589000BB1E811155C00FB6F8940F92F501968D7D
:1058A0000F900FBEF501878D981314C04E815F8154
:1058B00068857985C3010E94CD1DC5010E94302BEA
:1058C0000E94711C882311F021E0B2CF0E94FE29B2
:1058D00021E0AECFC5010E94302B0E94711C21E057
:1058E000A7CFCE0101960E94AA1EBACF12A2C8CF9E
:1058F00011A2C2CF402FB401C5010E94B62AF50102
:105900009389911124C0811128C00F900FBE81E0AE
:1059100029960FB6F894DEBF0FBECDBFDF91CF91B1
:105920000F91FF90EF90DF90CF90BF90AF909F903E
:105930008F907F906F9008950F900FBE80E0E8CF1A
:10594000C5010E94302B0E94711C80E0E1CFC5018F
:1059500043960E94281E8130C1F60E94FE29D5CFB1
:105960000F93CF93DF9383E290E00E945118EC01F4
:10597000009701F11B821A82198218821D821C82F3
:105980001F821E821E8E81E08F8F18A28FEF89A347
:105990008AA3CE0108960E948F28CE0143960E94CA
:1059A0008F2800E020E030E0A90160E070E0CE0147
:1059B0000E94F82BCE01DF91CF910F9108950F93A4
:1059C0001F93CF93DF93EC018A019E8D8F8D9817E3
:1059D00040F0223031F080E0DF91CF911F910F91A4
:1059E0000895422FCE010E94B62A882331F0011576
:1059F000110519F081E0F80180838AA18F3F49F0F9
:105A00008AA18F5F8AA381E0DF91CF911F910F91CF
:105A100008958B898823B9F3CE0143960E94281EEE
:105A2000882389F30115110571F381E0F801808362
:105A3000D3CFAF92BF92CF92DF92EF92FF920F93AC
:105A4000CF93DF93CDB7DEB729970FB6F894DEBFBB
:105A50000FBECDBF7C016B012E833F8348875987E2
:105A600090E0570183E1A80EB11C0FB6F8940F9295
:105A7000F701868D811169C04E815F8168857985C6
:105A8000452B462B472B09F47DC0992309F43EC0D2
:105A90000F900FBE0E943E1B0FB6F8940F92F701B5
:105AA00081A18F3F09F43EC0F70182A18F3F09F425
:105AB0003FC00F900FBEBE016A5F7F4FCE010196BF
:105AC0000E94BB1E811171C00FB6F8940F92F701AE
:105AD000868D0F900FBE81111EC0F70180819181CC
