:100000000C940D020C942C020C942C020C942C02D7
:100010000C942C020C942C020C942C020C942C02A8
:100020000C942C020C942C020C942C020C942C0298
:100030000C942C020C942C020C942C020C942C0288
:100040000C942C020C942C020C942C020C942C0278
:100050000C942C020C942C020C942C020C942C0268
:100060000C942C020C945A150C942C020C942C0217
:100070000C942C020C942C020C942C020C942C0248
:100080000C942C020C942C020C942C020C942C0238
:100090000C94AD150C942C020C942C020C942C0294
:1000A0000C942C020C942C020C942C020C942C0218
:1000B0000C942C020C942C020C942C020C942418FA
:1000C0000C942C020C942C020C942C023713401329
:1000D0004313461339133913491359136013671324
:1000E0006B133D134D45343035204C616220312077
:1000F0005374617274696E672050726F6772616DBC
:10010000004D4520343035204C6162203020412F95
:100110004420436F6E766572746572004170722080
:10012000323520323031360053797374656D207466
:10013000696D653A20002C20486561703A20002CDA
:10014000204F435235413A20002020683A20202099
:10015000202048414C502100202043746C2D433A0C
:1001600020526573657420746865204156520020E2
:10017000206E3A2020202020456E74657220612078
:100180006E756D626572202864656D6F2900202090
:10019000643A2020202020537461636B2064756DC5
:1001A0007020666F72207461736B73002020733A45
:1001B000202020202056657273696F6E20616E6466
:1001C00020736574757020696E666F726D617469F5
:1001D0006F6E002020743A202020202053686F7713
:1001E000207468652074696D652072696768742081
:1001F0006E6F77004D4520343035204C61622030E1
:1002000020412F4420436F6E766572746572002022
:1002100068656C7000496C6C6567616C2073746113
:1002200074652120526573657474696E6720415648
:1002300052003C696E76616C69642063686172206B
:100240002200223E004E756D62657220656E7465F7
:100250007265643A2000223A205754463F005265A6
:1002600073657474696E672041565200456E7465FB
:100270007220646563696D616C206E756D6572696D
:1002800063206469676974732C207468656E2052FA
:10029000455455524E206F722045534300507265AD
:1002A000737320276827206F7220273F2720666FEF
:1002B000722068656C70004368616E6E656C2031F9
:1002C0003A200054686520412F4420436F6E7665C4
:1002D000727465722056616C7565730041444D55AA
:1002E000582076616C75653A200041444353524171
:1002F0002076616C75653A20004E6F2073686172DC
:1003000065642064617461206974656D7320746F25
:10031000207072696E74002D2D2D2D20202020203C
:10032000202020202020202D2D2D2D202020202D8C
:100330002D2D2D2D2D2D2D2D2D0053686172652F06
:100340005175657565202020202054797065202026
:100350002020467265652F546F74616C00455252BF
:100360004F52206372656174696E67207461736BAC
:100370002022005461736B20220022206372656189
:100380007465642C20737461636B20617420307811
:10039000005461736B3A20005461736B3A204944F6
:1003A0004C450049444C45090930092D09002F00EE
:1003B00009092D002D2D2D2D09092D2D2D2D092D4E
:1003C0002D2D2D2D00092D2D2D2D2D2D2D2D2D2DAE
:1003D00000092D2D2D2D004E616D650909507269A2
:1003E0002E0953746174650009467265652F546F58
:1003F00074616C000952756E73005461736B090966
:10040000202009200009537461636B000900090072
:100410002F00090009002020000011241FBECFEF8B
:10042000D1E2DEBFCDBF12E0A0E0B2E0E6EAFEE33B
:1004300000E00BBF02C007900D92A639B107D9F7B3
:100440001AE1A6E9B2E001C01D92AC34B107E1F7B0
:100450000E94C51C0C94511F0C9400000F931F9315
:10046000CF93DF93EC010E946C0E85E292E09983BA
:100470008883DF91CF911F910F9108950F931F9360
:10048000CF93DF93EC016BE08E819F810E942A1352
:100490008C0164EF71E00E94E5126BE0C8010E94DC
:1004A0002A138C016FE072E00E94E51266E0C80139
:1004B0000E942A136BE08E819F810E942A138C0177
:1004C00063ED71E00E94E51266E0C8010E942A1304
:1004D0006BE08E819F810E942A138C016CEA71E08F
:1004E0000E94E51266E0C8010E942A136BE08E812B
:1004F0009F810E942A138C016EE871E00E94E51230
:1005000066E0C8010E942A136BE08E819F810E94E1
:100510002A138C016FE671E00E94E51266E0C801C3
:100520000E942A136BE08E819F810E942A138C0106
:1005300068E571E00E94E51266E0C8010E942A1396
:100540006BE08E819F810E942A13EC0169E471E0C7
:100550000E94E51266E0CE01DF91CF911F910F91CD
:100560000C942A138F929F92AF92BF92CF92DF92F8
:10057000EF92FF920F931F93CF93DF9300D000D0A1
:1005800000D0CDB7DEB78C0119821A821B821C8283
:100590001E821D82C0902801D09029010E94E7068A
:1005A0005C01CE0101960E9416124C0166E0F80132
:1005B000868197810E942A136BE00E942A137C0196
:1005C00061E071E00E94E5126BE0C7010E942A130E
:1005D0007C016CE171E00E94E51266E0C7010E94B7
:1005E0002A136BE00E942A137C0168E271E00E94EA
:1005F000E512B401C7010E94B5116BE00E942A13F5
:100600007C0166E371E00E94E512B501C7010E941A
:100610006F137C016DE172E00E94E51248E357E13F
:1006200060E070E0C7010E94A9136BE00E942A13EA
:100630007C016FE371E00E94E512B601C7010E94E0
:100640006F1366E00E942A1366E00E942A13F801E5
:10065000868197810E94671066E0F8018681978104
:100660000E942A13F801868197810E94270E269600
:100670000FB6F894DEBF0FBECDBFDF91CF911F91B3
:100680000F91FF90EF90DF90CF90BF90AF909F9031
:100690008F900895CF93DF93CDB7DEB727970FB62E
:1006A000F894DEBF0FBECDBF8C0119821A821B8267
:1006B0001C821E821D826BE0DC0116968D919C913E
:1006C00017970E942A137C016DE972E00E94E512DF
:1006D00066E0C7010E942A13C12CD12C7601F801D3
:1006E0008485882309F45AC0813009F0A0C0F8013C
:1006F00086819781DC01ED91FC910480F581E02DEC
:100700000995882309F403C1F80186819781DC01EA
:10071000ED91FC910680F781E02D0995282F80ED61
:10072000820F8A3008F4C4C02A3009F4B9C02D30D1
:1007300019F02B3109F095C066E0D80116968D911D
:100740009C9117970E942A136BE00E942A135C0168
:1007500065E472E00E94E512B701A601C5010E949E
:10076000A91366E00E942A1360E0C8010E94220FCC
:10077000F80186859785A089B1890196A11DB11DD3
:1007800086879787A08BB18B61E070E080E090E076
:100790000E941D0BF80184858111A6CF8681978167
:1007A000DC01ED91FC910480F581E02D0995882311
:1007B000F9F2F80186819781DC01ED91FC910680C8
:1007C000F781E02D0995282F883609F41FC10CF414
:1007D000F1C0833709F4EAC0843709F4D9C08E36F2
:1007E00009F4BFC0F801A680B780D501ED91FC9156
:1007F0000280F381E02D62E2C5012F830995D501C6
:10080000ED91FC910280F381E02D2F81622FC501D3
:1008100009956BE0C5010E942A135C0166E572E050
:100820000E94E51266E0C5010E942A13A1CF6BE089
:10083000868197810E942A138C0165E172E00E94F3
:10084000E51266E0C8010E942A132BE088E190E0DF
:100850000FB6F894A895809360000FBE20936000B7
:10086000FFCF6BE0F801868197812F830E942A13C6
:100870005C0162E372E00E94E512D501ED91FC910A
:100880000280F381E02D2F81622FC50109956BE075
:10089000C5010E942A1362E472E00E94E51268CF4B
:1008A0006FE172E0F801868197810E94E51260CFC6
:1008B000F80186819781DC01ED91FC910280F38142
:1008C000E02D622F2F830995CC0CDD1CEE1CFF1C44
:1008D000B701A601440F551F661F771F440F551F10
:1008E000661F771F4C0D5D1D6E1D7F1D2F81C22E53
:1008F000DD24C7FCD094B0E3CB1AD108EE24D7FC9A
:10090000E094FE2CC40ED51EE61EF71E31CF80915A
:10091000960290919702DC01ED91FC910480F581A3
:10092000E02D0995882309F423CFD8011696ED917F
:10093000FC9117970190F081E02DA280B380809107
:10094000960290919702DC01ED91FC910680F7816F
:10095000E02D0995682FF80186819781F5010995A9
:1009600007CF6BE0F801868197810E942A137C01F2
:100970006CE672E00E94E51266E0C7010E942A134D
:1009800061E0C8010E94220FC12CD12C7601F0CE6B
:10099000CE0101960E941612BC01F8018681978152
:1009A0000E94B51166E00E942A13E2CEC8010E949F
:1009B000B202DECE8F3351F1843601F1833009F07B
:1009C00011CF6BE0D80116968D919C9117970E94DC
:1009D0002A138C016EE572E00E94E51266E0C80100
:1009E0000E942A132BE088E190E00FB6F894A895B6
:1009F000809360000FBE20936000FFCFD801169651
:100A00008D919C9117970E94810FB2CEC8010E94D0
:100A10003E02AECECF93DF9300D000D0CDB7DEB78D
:100A20008C010E94160969837A838B839C8382E000
:100A300090E00E94AE126C01F801668177810E94FD
:100A4000720580E18DB981E3809390008BE0809303
:100A5000910060E0C6010E94930561E0C6010E941A
:100A600093057C01F694E794F694E7946BE0F80123
:100A7000868197810E942A135C0167EB72E00E94D5
:100A8000E512B701C5010E946F1366E00E942A13A8
:100A9000F0929B00E0929A00F801468557856089A4
:100AA00071894F5F5F4F6F4F7F4F46875787608BCE
:100AB000718B48EE53E060E070E0CE0101960E9439
:100AC000B60AC7CF0F931F93CF93DF93EC010E9419
:100AD0006C0E8DE292E099838883DF91CF911F9114
:100AE0000F910895CF93DF93FC0171836083209170
:100AF0007C00206420937C0020917A00256C209358
:100B00007A00C081D181209759F061E372E0CE0173
:100B10000E94E51266E0CE01DF91CF910C942A137A
:100B2000DF91CF910895683008F060E080917C00FB
:100B3000887F80937C0080917C00862B80937C0052
:100B400080917A00806480937A0080917A0086FD9B
:100B5000FCCF809178002091790090E0922B08954D
:100B6000DF92EF92FF920F931F93CF93DF938C014D
:100B7000D62EE42E80E48417D0F480E4E82EF12C05
:100B80006D2DC8010E949305C80FD91FF394FE1064
:100B9000F7CF6E2D70E0CE010E94871DCB01DF9153
:100BA000CF911F910F91FF90EF90DF900895411129
:100BB000E6CFEFCFEF92FF920F931F93CF93DF9388
:100BC000EC01F0907A00E0907C006BE00E942A1328
:100BD0008C0163EC72E00E94E51266E0C8010E949D
:100BE0002A136BE00E942A138C016CED72E00E94C4
:100BF000E51260E0C8010E942A136E2D0E94F113D5
:100C000062E00E942A1366E00E942A136BE00E94B1
:100C10002A138C016AEE72E00E94E51260E0C801BE
:100C20000E942A136F2D0E94F11362E00E942A1382
:100C300066E00E942A13CE01DF91CF911F910F91A0
:100C4000FF90EF9008950F931F93CF93DF93EC01E4
:100C50000E94100980919802811121C082EA92E0DD
:100C600090939E0280939D021092A00210929F0288
:100C700087E397E190939C0280939B0210929A02E3
:100C8000109299029093A5028093A40289E992E0C0
:100C90009093A3028093A20281E080939802209710
:100CA00009F460C0AE014C5F5F4F2396C633D74155
:100CB00008F058C0E0919D02F0919E02ADE9B2E0CB
:100CC00006C080819181009739F0DF01FC0122810B
:100CD000338124173507A8F3C2E0E939FC0709F48A
:100CE00041C00D911C9111970C5F1F4F8081918124
:100CF0008D939C93C901841B950B8930910500F15C
:100D0000BF01640F751FDB0113969C938E9312979E
:100D10005383428312968D919C911397ADE9B2E073
:100D200001C0DF01ED91FC911197228133812817D9
:100D30003907B8F3EB01F983E8836D937C939A014B
:100D40008091000290910102821B930B909301020B
:100D5000809300020E94430AC801DF91CF911F9146
:100D60000F91089500E010E00E94430AC801DF914E
:100D7000CF911F910F910895CF93DF93009721F1A9
:100D8000EC0124970E9410094A815B81ADE9B2E031
:100D900001C0DF01ED91FC9111972281338124176D
:100DA0003507B8F3F983E883CD93DC938091000293
:100DB00090910102840F951F90930102809300028D
:100DC000DF91CF910C94430ADF91CF9108958091E8
:100DD0000002909101020895089580910E1A8230C8
:100DE00018F00E946F17F9CFFFCFCF92DF92EF92EA
:100DF000FF926B017C01E091D919F091DA196283BD
:100E00007383848395838091E2199091E319A09173
:100E1000E419B091E5196091D9197091DA19C816E1
:100E2000D906EA06FB0610F18091F6199091F719A0
:100E30006E5F7F4F0E9436168091020290910302EE
:100E4000A0910402B0910502C816D906EA06FB0675
:100E500040F4C0920202D0920302E0920402F092A7
:100E60000502FF90EF90DF90CF9008958091F419E4
:100E70009091F5196E5F7F4FFF90EF90DF90CF90CC
:100E80000C9436165F926F927F928F929F92AF92E0
:100E9000BF92CF92DF92EF92FF920F931F93CF9367
:100EA000DF934C01162F572E5A01390189E290E049
:100EB0000E942306EC01009709F4E9C0C114D10493
:100EC00009F4DAC0DC8ECB8EC601A50165EA70E0BC
:100ED0000E94F01E21E0A21AB108CB8CDC8CCA0C57
:100EE000DB1CAE01435E5F4FE12FF52D2AE0CF0101
:100EF0003191DA013D93AD01DC018C91882311F031
:100F00002150A9F71EA2102F043008F07DC01A8FBF
:100F10001FA318A65E01B2E0AB0EB11CC5010E9472
:100F20001116CE010E960E941116DB87CA8784E047
:100F300090E0A0E0B0E0811B9109A109B1098E8782
:100F40009F87A88BB98BDF8BCE8BA301B401C60121
:100F50000E949F1699838883E114F10419F0F70128
:100F6000D183C0830FB6F8940F928091E6198F5FFA
:100F70008093E6198091D9199091DA19892B09F497
:100F800049C08091E01981110BC0E091D919F0910D
:100F9000DA19828D081720F0D093DA19C093D91985
:100FA0008091DC198F5F8093DC198A8D9091E11913
:100FB000981738F1FBE08F9FC0011124B501825FC3
:100FC000954E0E9415160F900FBE8091E019882350
:100FD00039F0E091D919F091DA19828D8017B0F0CB
:100FE00081E0DF91CF911F910F91FF90EF90DF9003
:100FF000CF90BF90AF909F908F907F906F905F90B9
:1010000008958093E119D6CF13E081CF0E946F1726
:1010100081E0E7CFD093DA19C093D9198091E6190E
:10102000813009F0BDCF8EE09AE10E94001689E17F
:101030009AE10E94001684E29AE10E9400168FE273
:101040009AE10E94001683E09AE10E94001688EF60
:1010500099E10E94001689EE99E10E94001683E052
:101060009AE19093F7198093F61988EF99E190939C
:10107000F5198093F41994CFC5010E9423069C8F23
:101080008B8F009709F021CFCE010E94BC068FEF15
:10109000A8CF0FB6F8940F92009729F00F900FBECB
:1010A000FC01828D08958091D9199091DA190F90E1
:1010B0000FBEFC01828D0895EF92FF921F93CF9394
:1010C000DF93EC01262F643008F023E00FB6F8948C
:1010D0000F92209709F44AC03FA13217A9F18091DD
:1010E000D9199091DA193217B8F5C817D90741F014
:1010F000E091D919F091DA1911E0828D281708F4DE
:1011000010E08A8D381769F12FA34E855F856889B5
:10111000798977FD0CC044E050E060E070E0421B4C
:101120005109610971094E875F87688B798B2BE0C4
:10113000829FC0011124825F954E2C853D85281722
:101140003907C9F0113079F00F900FBEDF91CF91C0
:101150001F91FF90EF90089511E0C817D90781F60D
:10116000D0CF2A8FD1CF0E946F17EECFC091D9195F
:10117000D091DA19B1CF7E0182E0E80EF11CC701EF
:101180000E9473168A8D9091E119981710F480933C
:10119000E1192BE0829FC0011124B701825F954EB7
:1011A0000E941516CFCFAF92BF92CF92DF92EF92EF
:1011B000FF920F93A12CB12CC12CD12C87EEE82EDD
:1011C00089E1F82E00E020E030E044E650E064E4FD
:1011D00072E08DEE96E00E944207813041F00F915F
:1011E000FF90EF90DF90CF90BF90AF900895F8946C
:1011F0008093E0191092E2191092E3191092E41909
:101200001092E5190F91FF90EF90DF90CF90BF9073
:10121000AF900C943317F8941092E0190C946E1759
:101220008091DB198F5F8093DB1908950FB6F894D6
:101230000F926091E2197091E3198091E4199091F5
:10124000E5190F900FBE08956091E2197091E319AE
:101250008091E4199091E51908958091E619089517
:10126000009711F04D9608958091D9199091DA194F
:101270004D9608958091E7199091E8190895AF92DD
:10128000BF92CF92DF92EF92FF920F931F93CF9373
:10129000DF938091DB198111CFC08091E219909189
:1012A000E319A091E419B091E5190196A11DB11DB2
:1012B0008093E2199093E319A093E419B093E51990
:1012C000C090E219D090E319E090E419F090E5198C
:1012D000C114D104E104F10439F58091F61990911B
:1012E000F7192091F4193091F5193093F7192093DB
:1012F000F6199093F5198093F4198091DD198F5F99
:101300008093DD19E091F619F091F7198081811130
:101310009AC08FEF9FEFDC0180930202909303024B
:10132000A0930402B09305028091020290910302FF
:10133000A0910402B0910502B12CC816D906EA06A4
:10134000FB0608F457C09BE0A92EE091F619F09136
:10135000F7198081882309F442C0E091F619F091D1
:10136000F7190780F085E02DC085D1854A815B8122
:101370006C817D81C416D506E606F70608F47AC0AE
:101380008E010E5F1F4FC8010E947316888D998DC4
:10139000892B21F0CE010E960E9473168A8D9091B2
:1013A000E119981710F48093E119A89EC001112447
:1013B000B801825F954E0E941516E091D919F091FF
:1013C000DA199A8D828D981708F4BFCFBB24B39495
:1013D000E091F619F091F71980818111BECF4FEF9E
:1013E0005FEFBA014093020250930302609304023C
:1013F00070930502E091D919F091DA19E28D8BE032
:10140000E89FF0011124E25FF54E8081823010F0F8
:10141000BB24B3948091DE19882311F0BB24B394CC
:101420008B2DDF91CF911F910F91FF90EF90DF9067
:10143000CF90BF90AF9008958091DF198F5F809318
:10144000DF19B12CE7CFE091F619F091F719078079
:10145000F085E02D0084F185E02D82819381A481C7
:10146000B5818093020290930302A0930402B0938B
:1014700005025ACF40930202509303026093040284
:1014800070930502B7CFEF92FF920F931F93CF9304
:10149000DF930FB6F8940F928091DB1981508093FF
:1014A000DB198091DB19811150C08091E6198823E6
:1014B00009F44BC02BE0F22EEE24E39427C0E09118
:1014C000F019F091F119C085D185CE010E960E94D8
:1014D00073168E010E5F1F4FC8010E9473168A8D0E
:1014E0009091E119981710F48093E119F89EC001CA
:1014F0001124B801825F954E0E941516E091D9190A
:10150000F091DA199A8D828D981748F58091E91932
:101510008111D5CF8091DF19882399F08091DF194F
:10152000882379F0C1E00E943F098111C093DE1940
:101530008091DF1981508093DF198091DF1981112B
:10154000F2CF8091DE19813069F080E00F900FBEFC
:10155000DF91CF911F910F91FF90EF900895E0924E
:10156000DE19D4CF0E946F1781E0F0CFCF92DF92C7
:10157000EF92FF920F931F93CF93DF9300D000D091
:10158000CDB7DEB72091DB192F5F2093DB19C09018
:10159000E219D090E319E090E419F090E519FC010C
:1015A0000081118122813381400F511F621F731FFF
:1015B000C016D106E206F306E8F4401751076207A9
:1015C0007307E8F0FC0140835183628373830E94B8
:1015D000430A811102C00E946F170F900F900F9065
:1015E0000F90DF91CF911F910F91FF90EF90DF90BF
:1015F000CF900895401751076207730728F0C4166B
:10160000D506E606F706F0F6FC01408351836283B7
:1016100073838091D9199091DA19029649835A837C
:101620006B837C830E94731649815A816B817C8114
:10163000CB01BA010E94F506CACFCF92DF92EF929A
:10164000FF92611571058105910539F40E946F17AC
:10165000FF90EF90DF90CF9008952091DB192F5FDE
:101660002093DB19C090E219D090E319E090E419BF
:10167000F090E519C60ED71EE81EF91E8091D91903
:101680009091DA1902960E947316C701B6010E9462
:10169000F5060E94430A8823C9F2FF90EF90DF907D
:1016A000CF9008958091DB1981113BC01092DE1913
:1016B000E091E1198BE0E89FF0011124E25FF54E23
:1016C0008081811110C09BE08091E119815080934D
:1016D000E119E091E1199E9FF0011124E25FF54EBE
:1016E0008081882389F3E091E1198BE0E89FF00184
:1016F0001124E25FF54EA181B28114960D90BC9148
:10170000A02DB283A183CF010396A817B90769F072
:1017100018968D919C9119979093DA198093D91905
:10172000089581E08093DE19089514969C91149792
:1017300015968C9191838283A92FB82FE9CFCF92F0
:10174000DF92EF92FF926A017B016091D91970914B
:10175000DA19625F7F4F0E9436168091D9199091F5
:10176000DA1902960E9473166091E2197091E319DA
:101770008091E4199091E5196C0D7D1D8E1D9F1DC2
:10178000FF90EF90DF90CF900C94F506CF92DF9210
:10179000EF92FF920F931F9368017901E091D9199D
:1017A000F091DA19706846875787608B718B60916A
:1017B000D9197091DA19625F7F4F0E9415168091D6
:1017C000D9199091DA1902960E9473166091E21964
:1017D0007091E3198091E4199091E5196C0D7D1DCC
:1017E0008E1D9F1D1F910F91FF90EF90DF90CF9066
:1017F0000C94F5060F931F93CF93DF93DC0117969C
:10180000ED91FC911897C085D1858E01025F1F4F25
:10181000C8010E9473168091DB19811124C08E01CA
:101820000E5F1F4FC8010E9473168A8D9091E119B7
:101830009817F8F0BBE08B9FC0011124B801825FBC
:10184000954E0E941516E091D919F091DA199A8DEA
:10185000828D891788F481E08093DE19DF91CF9122
:101860001F910F910895B80189EE99E10E94151614
:10187000EACF8093E119DECF80E0DF91CF911F9115
:101880000F9108950F931F93CF93DF937068FC011E
:101890004083518362837383C085D1850E94731610
:1018A0008E010E5F1F4FC8010E9473168A8D9091A2
:1018B000E119981710F48093E119FBE08F9FC001A4
:1018C0001124B801825F954E0E941516E091D91936
:1018D000F091DA199A8D828D891740F481E0809316
:1018E000DE19DF91CF911F910F91089580E0DF9174
:1018F000CF911F910F9108952091DD19FC01208354
:101900004091E2195091E3196091E4197091E51941
:10191000418352836383748308958F929F92AF9221
:10192000BF92CF92DF92EF92FF920F931F93FC0131
:10193000DB010FB6F8940F924091E2195091E31930
:101940006091E4197091E5198091DD199081018110
:10195000128123813481981729F0401751076207BB
:10196000730770F5CD90DD90ED90FC9013974A01D0
:101970005B01801A910AA20AB30A8C149D04AE047A
:10198000BF04F0F4C41AD50AE60AF70AC00ED11E45
:10199000E21EF31ECD92DD92ED92FC9213978091A0
:1019A000DD1980838091E2199091E319A091E419E7
:1019B000B091E51981839283A383B48380E001C051
:1019C00081E00F900FBE1F910F91FF90EF90DF907D
:1019D000CF90BF90AF909F908F90089581E08093BB
:1019E000DE190895009799F0DC015B96ED91FC916A
:1019F0005C978081853A81F4319680E090E0DC014B
:101A00000196A11DB11D2191253AD1F30895809130
:101A1000D9199091DA19E8CF80E008958091D91909
:101A20009091DA1908950F931F93CF93DF93EC01F0
:101A3000009781F18A8DE091D919F091DA19928D90
:101A4000891740F54E855F856889798977FD11C0D2
:101A5000E091D919F091DA19928D44E050E060E0FC
:101A600070E0491B5109610971094E875F87688BD6
:101A7000798B2BE0829FC0011124825F954E2C85CB
:101A80003D852817390759F0E091D919F091DA19F5
:101A9000828D8A8FDF91CF911F910F9108958E01D2
:101AA0000E5F1F4FC8010E947316E091D919F09183
:101AB000DA19828D8A8F9091E119981710F480932A
:101AC000E1192BE0829FC0011124B801825F954E7D
:101AD000DF91CF911F910F910C9415160F931F93C7
:101AE000CF93DF93EC01009749F088A5815088A738
:101AF0002A8D9FA1291711F0882331F080E0DF9112
:101B0000CF911F910F9108958E010E5F1F4FC80155
:101B10000E9473168FA18A8F44E050E060E070E06D
:101B2000481B5109610971094E875F87688B798B62
:101B30009091E119981710F48093E1192BE0829F9E
:101B4000C0011124B801825F954E0E94151681E0F4
:101B5000DF91CF911F910F910895CF92DF92EF9275
:101B6000FF92E091D919F091DA196685778580891D
:101B70009189E091D919F091DA19A091D919B09110
:101B8000DA195A962C9134E0C32ED12CE12CF12C89
:101B9000C21AD108E108F108C686D786E08AF18A20
:101BA000FF90EF90DF90CF9008958091D919909198
:101BB000DA19892B39F0E091D919F091DA1980A559
:101BC0008F5F80A78091D9199091DA190895EF92CB
:101BD000FF920F931F93CF93DF9300D0CDB7DEB763
:101BE0007C018DE492E0F70191838083611571059A
:101BF000C1F0FB0101900020E9F73197E61BED30C1
:101C000020F50E2F10E0C801019669837A830E94A7
:101C1000B512F70195838483A80169817A810E94B6
:101C2000F71E80913A1A90913B1AF70197838683A9
:101C3000F0923B1AE0923A1A0F900F90DF91CF91F9
:101C40001F910F91FF90EF900895ECE0DACF0F9382
:101C50001F93CF93DF93EC0180913A1A90913B1A36
:101C60006BE0892B49F1CE010E942A138C016AE3B3
:101C700073E00E94E51266E0C8010E942A136BE03F
:101C8000CE010E942A138C0167E173E00E94E512E5
:101C900066E0C8010E942A1380913A1A90913B1A7B
:101CA000DC01ED91FC910190F081E02DBE01DF910E
:101CB000CF911F910F910994CE010E942A13EC013C
:101CC00069EF72E00E94E51266E0CE01DF91CF91EC
:101CD0001F910F910C942A134F925F926F927F92F3
:101CE0008F929F92AF92BF92CF92DF92EF92FF922C
:101CF0000F931F93CF93DF93EC013B014901280120
:101D0000FC0183E592E081939193A12CB12CC12C2D
:101D1000D12C7F01042F9E01A4018AE29DE10E9443
:101D200042075F824E829986888620913C1A3091C4
:101D30003D1A3D832C83D0933D1AC0933C1A1C86D8
:101D40001D8680904A1A90904B1A9FEF891A990A23
:101D500090924B1A80924A1A9B868A861E861F860C
:101D6000188A198A4114510409F44CC06BE081307F
:101D700041F1C2010E942A13EC016DE573E00E945B
:101D8000E512B301CE010E94E512E881F9810280DB
:101D9000F381E02D62E2CE01099566E0CE01DF918C
:101DA000CF911F910F91FF90EF90DF90CF90BF9058
:101DB000AF909F908F907F906F905F904F900C941A
:101DC0002A13C2010E942A13EC0163E773E00E9408
:101DD000E512B301CE010E94E5126BE0CE010E9434
:101DE0002A13EC016AE773E00E94E51263E0CE017A
:101DF0000E942A13B4010E946F1362E00E942A130A
:101E000066E0CDCFDF91CF911F910F91FF90EF90C2
:101E1000DF90CF90BF90AF909F908F907F906F900A
:101E20005F904F900895EC01E881F9810190F08175
:101E3000E02D09951B821A826FEF7FEFCB010E9484
:101E40001D0BFACFFC01648765870895FC01C681EC
:101E5000D781209739F0CE010E94E51266E0CE01CD
:101E60000E942A132BE088E190E00FB6F894A89521
:101E7000809360000FBE20936000FFCF0E94160980
:101E80000E94591E20E030E04AE754E40E94F11D10
:101E90000895CF92DF92EF92FF920F931F93CF930B
:101EA000DF93EC017B018A819B810E9430096C01E8
:101EB0006BE0C7010E942A138C0161E973E00E9464
:101EC000E512B601C8010E94E51266E0C8010E9451
:101ED0002A138A859B8528853985A701BC01821B29
:101EE000930B0E942E120C80DD81C02D2097D9F615
:101EF000DF91CF911F910F91FF90EF90DF90CF90E6
:101F000008950F931F93CF93DF93EC0180913C1AB8
:101F100090913D1A009719F0BE010E94490F6BE0A5
:101F2000CE010E942A138C0168E973E00E94E51239
:101F300066E0C8010E942A1380914A1A90914B1AB8
:101F4000BC016F5F7F4FAE0183569109DF91CF9146
:101F50001F910F910C942E128F929F92AF92BF926D
:101F6000CF92DF92EF92FF920F931F93CF93DF9365
:101F7000EC018B018A819B810E943009BC01C80160
:101F80000E94E512D801ED91FC910280F381E02DD1
:101F900069E0C80109958A819B810E943009FC0192
:101FA00001900020E9F73197E81BF90B389748F4C6
:101FB000D801ED91FC910280F381E02D69E0C80128
:101FC0000995CE84DF84E888F988A884B9848A8159
:101FD0009B810E94F20C982E8C848A819B810E94A6
:101FE0004908682FC8010E94F1136BE00E942A1370
:101FF000EC016CE074E00E94E512682DCE010E94B5
:10200000F1136BE00E942A13EC016EE074E00E9471
:10201000E512692DCE010E94F1136BE00E942A1394
:10202000EC0160E174E00E94E512B501CE010E946E
:102030006F136BE00E942A13EC0162E174E00E94CE
:10204000E5126BE0CE010E942A13EC0164E174E01A
:102050000E94E512B701A601CE01DF91CF911F9139
:102060000F91FF90EF90DF90CF90BF90AF909F9037
:102070008F900C94A9130F931F93CF93DF93EC01D0
:102080008B01E881F9810280F381E02DB801CE0156
:10209000099566E0C8010E942A130C80DD81C02DDD
:1020A000209779F7DF91CF911F910F910895CF93EA
:1020B000DF93EC01CB01DB01ED91FC910280F38118
:1020C000E02DBE010995CE01DF91CF9108950F93C8
:1020D0001F93CF93DF93EC016BE00E942A138C01D6
:1020E0006AEF73E00E94E5126BE0C8010E942A13B8
:1020F0008C0165E074E00E94E51266E0C8010E9470
:102100002A136BE0CE010E942A138C0167ED73E065
:102110000E94E5126BE0C8010E942A138C0168EE50
:1021200073E00E94E5126BE0C8010E942A138C0143
:1021300064EF73E00E94E51266E0C8010E942A1372
:102140006BE0CE010E942A138C0164EB73E00E94C5
:10215000E5126BE0C8010E942A138C0165EC73E064
:102160000E94E5126BE0C8010E942A138C0161ED08
:1021700073E00E94E51266E0C8010E942A13809174
:102180003C1A90913D1A009719F0BE010E943B1035
:102190000E943A090E94F20C182F6BE0CE010E94B7
:1021A0002A13EC0163EA73E00E94E512612FCE016D
:1021B0000E94F1136BE00E942A13EC016EEA73E0B7
:1021C0000E94E51264E670E0CE010E946F136BE09E
:1021D0000E942A13EC0160EB73E00E94E51266E0B6
:1021E000CE01DF91CF911F910F910C942A13CF92C2
:1021F000DF92EF92FF920F931F93CF93DF937C01B7
:102200008B01DC011A966D917C911B97C8010E948D
:10221000E512F701A285B385FD0101900020E9F7E1
:102220003197DE2EDA1AFFE0FD1580F0C0E0D0E035
:10223000D801ED91FC910280F381E02D60E2C801AC
:10224000099521968C2F8D0D803190F367E572E012
:10225000C8010E94E512D7015696CD90DC905797A1
:102260001E968D919C911F970E94C81B682FC801D4
:102270000E94F113EC01E881F9810280F381E02DE5
:102280006FE20995B601CE010E946F13DC01ED915A
:10229000FC910280F381E02D69E0099566E0C801B8
:1022A0000E942A13F70184859585009781F0DC014F
:1022B000ED91FC910190F081E02DB801DF91CF917B
:1022C0001F910F91FF90EF90DF90CF900994DF91D5
:1022D000CF911F910F91FF90EF90DF90CF900895D5
:1022E0006F927F928F929F92AF92BF92CF92DF9226
:1022F000EF92FF920F931F93CF93DF93EC01762E13
:10230000672E4A015901670178010E94DA12B4016F
:10231000CE0106960E94E70D82E692E099838883BB
:1023200024E732E03F832E83BD8AAC8A40E061E03F
:10233000872D0E9439199F878E87C88AD98AEA8A91
:10234000FB8A7E8A6F8ADF91CF911F910F91FF9058
:10235000EF90DF90CF90BF90AF909F908F907F9045
:102360006F90089506970C94F710CF92DF92EF923A
:10237000FF920F931F93CF93DF93CDB7DEB72F97C5
:102380000FB6F894DEBF0FBECDBF8C017B01DB0121
:102390006D917D918D919C9128EE33E040E050E06D
:1023A0000E949B1DBA01A901C8010E94A913D8016E
:1023B000ED91FC910280F381E02D6EE2C801099558
:1023C000C7010E94F11B6E01B9E0CB0ED11C7E014A
:1023D000EFE0EE0EF11C2AE030E040E050E00E9419
:1023E000BD1DE62F29833A834B835C8369817A8103
:1023F0008B819C81E05DD701EE937D01AC15BD051D
:1024000051F71F86BD01C8010E94E512C8012F9631
:102410000FB6F894DEBF0FBECDBFDF91CF911F91F5
:102420000F91FF90EF90DF90CF900895CF93DF93BF
:10243000EC010FB6F8940F92809124019091250140
:102440009D838C830E941609688379838A839B838A
:102450000F900FBECE01DF91CF9108958F929F9282
:10246000AF92BF92CF92DF92EF92FF920F931F93A2
:10247000CF93DF936C014B01EA0163E0CA010E9434
:102480002A13C814D90408F059C0560184E1A80ED3
:10249000B11C7501B601CE010E946F136BE00E9462
:1024A0002A1366E174E00E94E5128601F801619149
:1024B0008F01CE010E94F113E881F9810280F3813E
:1024C000E02D60E2CE0109950E151F0579F7E88130
:1024D000F9810280F381E02D60E2CE0109950FC001
:1024E00080EE860FE881F9810280F381E02D8F353F
:1024F00008F06EE2CE010995CE14DF0481F0F601FA
:1025000061916F01653A61F7E881F9810280F38199
:10251000E02D60E2CE010995CE14DF0481F765015C
:1025200066E0CE010E942A13F4E1EF0EF11CA8141C
:10253000B90420F4C50144965C01ACCF62E0CE0141
:10254000DF91CF911F910F91FF90EF90DF90CF908F
:10255000BF90AF909F908F900C942A130C942306F9
:10256000009711F00C94BC0608950C942306009774
:1025700011F00C94BC060895FC0181E090E02081EC
:10258000222311F080E090E0089521E0FC012083F7
:1025900008950895089581E0089580E0089580E009
:1025A00008950895DC01ED91FC910280F381E02D06
:1025B0006CE00994FC018AE792E0918380838AE0D1
:1025C000828383E08583148208950F931F93CF93B2
:1025D000DF93EC01FB018C81811117C060816623C0
:1025E00079F08F010F5F1F4FE881F9810280F3813D
:1025F000E02DCE010995F80161918F016111F4CFB1
:10260000DF91CF911F910F9108951C828B010F5F75
:102610001F4F64916623A1F3A881B9811296ED91B1
:10262000FC911397CE010995F80164910F5F1F4F3C
:102630006111F2CFE5CF883008F087E08093070280
:1026400089E008959EEF980F9F3010F48093060262
:102650008AE00895CF93DF93EC01462F50E04C3091
:10266000510538F4FA01EA59FF4F0C94DC1D82E061
:102670008A83CE01DF91CF91089581E08C83F9CFD9
:1026800088E08A83F6CF8AE08A83F3CF80E18A8369
:10269000F0CFE881F9810280F381E02D6DE00995AA
:1026A000E881F9810280F381E02D6AE0CE0109958D
:1026B000E0CFE881F9810284F385E02D0995D9CF37
:1026C000E881F9810084F185E02D0995D2CF8091D0
:1026D00007028D83CECF809106028A83CACFFF92F4
:1026E0000F931F93CF93DF93CDB7DEB761970FB6EC
:1026F000F894DEBF0FBECDBF8C01F62E972FF801E8
:102700004281403191F0483081F0423071F050E028
:10271000BE016F5F7F4F8F2D0E942B1FBE016F5F29
:102720007F4FC8010E94E51207C0692FC8010E94AF
:10273000F1136F2D0E94F113C80161960FB6F89442
:10274000DEBF0FBECDBFDF91CF911F910F91FF90E4
:102750000895DF92EF92FF920F931F93CF93DF9331
:10276000CDB7DEB7A1970FB6F894DEBF0FBECDBFD1
:102770008C01D42EE52EF62E972FF80122812031E0
:10278000A1F0283091F0223081F030E0AE014F5FAF
:102790005F4F6D2D7E2D8F2D0E94061FBE016F5F36
:1027A0007F4FC8010E94E5120DC0692FC8010E9429
:1027B000F1136F2D0E94F1136E2D0E94F1136D2DF8
:1027C0000E94F113C801A1960FB6F894DEBF0FBEA8
:1027D000CDBFDF91CF911F910F91FF90EF90DF90D0
:1027E0000895CF92DF92EF92FF920F931F93CF93B2
:1027F000DF93CDB7DEB729970FB6F894DEBF0FBED3
:10280000CDBF8C01D62EDC0113968C9113978111CC
:102810005DC0F80142814230D9F14031F1F050E021
:10282000BE016F5F7F4F8D2D90E00E942B1FBE0178
:102830006F5F7F4FC8010E94E512C80129960FB64D
:10284000F894DEBF0FBECDBFDF91CF911F910F91E6
:10285000FF90EF90DF90CF90089562956F70019098
:10286000F081E02D0280F381E02D6A30B8F5605DE3
:10287000C80109956D2D6F70D801ED91FC91028012
:10288000F381E02D6A3060F1695CC8010995D5CF0C
:1028900088E0E82EF12C90E8C92E0AC061E3C80157
:1028A0000995C694B1E0EB1AF108E114F10429F29C
:1028B0008C2D8D21D801ED91FC910280F381E02DCA
:1028C0008111ECCF60E3C8010995EBCFED91FC914C
:1028D0000280F381E02DC8010995AFCF695CC8CFB4
:1028E000605DD3CFDC011896ED91FC911997808142
:1028F0001C969C911C97892359F421E23EE405C063
:10290000215031092115310571F080818923C1F3EE
:1029100080811E969C911E97892B80831696ED913F
:10292000FC91179760830895FC01878581111DC074
:102930002091461A3091471A8091441A9091451A75
:102940002817390789F0E091481AF091491AE20FE7
:10295000F31F80812F5F3F4F2032310518F1109215
:10296000471A1092461A0895FFCF2091401A3091CD
:10297000411A80913E1A90913F1A2817390789F021
:10298000E091421AF091431AE20FF31F80812F5F0A
:102990003F4F2032310558F01092411A1092401AE0
:1029A0000895FFCF3093471A2093461A0895309325
:1029B000411A2093401A0895DC01ED91FC910280A8
:1029C000F381E02D6CE00994FC018785882369F090
:1029D00081E04091401A5091411A20913E1A309165
:1029E0003F1A4217530769F0089581E04091461A53
:1029F0005091471A2091441A3091451A42175307B3
:102A000099F780E00895EF92FF921F93CF93DF93A1
:102A100000D0CDB7DEB77C01142F69837A830E9482
:102A2000DA12412F69817A81C70106960E942F1C14
:102A30008AE892E0F7019183808317871123E9F0F8
:102A40008091C90080688093C90080E290E00E9474
:102A5000B5129093431A8093421A1092411A109221
:102A6000401A10923F1A10923E1A0F900F90DF9169
:102A7000CF911F91FF90EF9008958091C1008068E1
:102A80008093C10080E290E00E94B5129093491AB1
:102A90008093481A1092471A1092461A1092451ABB
:102AA0001092441A0F900F90DF91CF911F91FF90D9
:102AB000EF9008951F920F920FB60F9211240BB64C
:102AC0000F922F933F938F939F93EF93FF932091B8
:102AD000C600E091481AF091491A8091441A9091E9
:102AE000451AE80FF91F20838091441A9091451AE6
:102AF000019680329105C0F49093451A8093441A50
:102B00002091461A3091471A28173907D1F0FF91C2
:102B1000EF919F918F913F912F910F900BBE0F904E
:102B20000FBE0F901F9018951092451A1092441ADC
:102B300080E090E02091461A3091471A2817390713
:102B400031F701969093471A8093461A8097F8F2CE
:102B50001092471A1092461ADACF1F920F920FB6B0
:102B60000F9211240BB60F922F933F938F939F9345
:102B7000EF93FF932091CE00E091421AF091431A17
:102B800080913E1A90913F1AE80FF91F208380919F
:102B90003E1A90913F1A019680329105C0F49093AD
:102BA0003F1A80933E1A2091401A3091411A2817FB
:102BB0003907D1F0FF91EF919F918F913F912F9124
:102BC0000F900BBE0F900FBE0F901F901895109294
:102BD0003F1A10923E1A80E090E02091401A309106
:102BE000411A2817390731F701969093411A8093BB
:102BF000401A8097F8F21092411A1092401ADACFD8
:102C0000FC010396928381834FEF5FEFBA01438308
:102C10005483658376839087878392878187108228
:102C20000895FC01138612860895CF93DF939C01CB
:102C3000FB01DC011196CD91DC911297D583C48301
:102C40008E819F81978386838E819F81DC0115967B
:102C50007C936E9314977F836E8333872287F90169
:102C600080818F5F8083DF91CF9108950F931F93B1
:102C7000CF93DF93EB01088119812A813B810F3FBC
:102C80004FEF14072407340731F1DC01139601C01C
:102C9000DF011496ED91FC9115974081518162817D
:102CA0007381041715072607370790F7FD83EC8318
:102CB000D783C683BF83AE831596DC93CE931497D8
:102CC0009B878A87FC0120812F5F2083DF91CF9132
:102CD0001F910F910895FC01A185B2851496ED9185
:102CE000FC911597E3CFCF93DF93FC01A285B385C9
:102CF0002481358186819781E9019F838E83868136
:102D00009781EC013D832C8311962D913C91129774
:102D10002E173F0741F0138612868C9181508C93B9
:102D2000DF91CF91089512969C938E9311971386FD
:102D300012868C9181508C93DF91CF91089590935E
:102D40004B1A80934A1A31E1FC013083319722E219
:102D50002083FC013297A3E3A083FC0133976083B7
:102D6000FC0134977083FC0135971082FC01369783
:102D700060E86083FC0137971082FC01389762E0BD
:102D80006083FC01399763E06083FC013A9764E05B
:102D90006083FC013B9765E06083FC013C9766E043
:102DA0006083FC013D9767E06083FC013E9768E02B
:102DB0006083FC013F9769E06083FC01709760E1EC
:102DC0006083FC0171973083FC01729732E130839C
:102DD000FC01739733E13083FC01749734E1308355
:102DE000FC01759735E13083FC01769736E130833D
:102DF000FC01779737E13083FC01789738E1308325
:102E0000FC01799739E13083FC017A9730E2308315
:102E1000FC017B9731E23083FC017C972083FC012D
:102E20007D9723E22083FC017E974083FC017F97FE
:102E30005083FC01B09726E22083FC01B19727E282
:102E40002083FC01B29728E22083FC01B39729E29A
:102E50002083FC01B49720E32083FC01B59721E394
:102E600020838697089587E0809329018FEC8093D3
:102E700028018AE080932101E3E7F0E0808182600D
:102E80008083A091D919B091DA19CD91CDBFDD9190
:102E9000DEBFFF91EF91DF91CF91BF91AF919F91F5
:102EA0008F917F916F915F914F913F912F911F91E2
:102EB0000F91FF90EF90DF90CF90BF90AF909F90D9
:102EC0008F907F906F905F904F903F902F901F90CA
:102ED0000F900FBE0F90089581E0089508950F920E
:102EE0000FB6F8940F921F9211242F923F924F9297
:102EF0005F926F927F928F929F92AF92BF92CF928A
:102F0000DF92EF92FF920F931F932F933F934F9374
:102F10005F936F937F938F939F93AF93BF93CF9361
:102F2000DF93EF93FF93A091D919B091DA190DB601
:102F30000D920EB60D920E94520BA091D919B0912C
:102F4000DA19CD91CDBFDD91DEBFFF91EF91DF9119
:102F5000CF91BF91AF919F918F917F916F915F9131
:102F60004F913F912F911F910F91FF90EF90DF9024
:102F7000CF90BF90AF909F908F907F906F905F9019
:102F80004F903F902F901F900F900FBE0F9008957D
:102F90000F920FB6F8940F921F9211242F923F9226
:102FA0004F925F926F927F928F929F92AF92BF9259
:102FB000CF92DF92EF92FF920F931F932F933F9345
:102FC0004F935F936F937F938F939F93AF93BF9331
:102FD000CF93DF93EF93FF93A091D919B091DA19B2
:102FE0000DB60D920EB60D920E943F0981110E94FE
:102FF000520BA091D919B091DA19CD91CDBFDD91C5
:10300000DEBFFF91EF91DF91CF91BF91AF919F9183
:103010008F917F916F915F914F913F912F911F9170
:103020000F91FF90EF90DF90CF90BF90AF909F9067
:103030008F907F906F905F904F903F902F901F9058
:103040000F900FBE0F9008950E94C81718951F93F8
:10305000CF93DF93EC01142F88A181110DC08881DB
:103060009981892B09F44DC080E09E8D9F5F9E8FD2
:10307000DF91CF911F910895482F50E011111CC08E
:103080008C819D810E94E71E28A18C819D81820FE9
:10309000911D9D838C832A813B818217930720F3A6
:1030A000888199819D838C8380E09E8D9F5F9E8F18
:1030B000DF91CF911F9108958E819F810E94E71E1D
:1030C00028A130E03195219531098E819F81820FB1
:1030D000931F9F838E83688179818617970730F4C9
:1030E0008A819B81820F931F9F838E83123009F008
:1030F000BBCF8E8D882309F4B7CF8E8D81508E8FF4
:10310000B3CF8A819B810E946E0D1B821A82ADCF44
:10311000FC01CB0140A1442399F050E02681378186
:10312000240F351F37832683628173812617370763
:1031300020F02081318137832683B9010C94E71E6A
:1031400008950F931F93CF93DF93EC010FB6F8947C
:103150000F928AA11816ECF48B898823D1F08E0186
:103160000D5E1F4F09C08AA181508AA38AA118163B
:1031700084F48B89882369F0C8010E94FA0B8823A4
:1031800091F30E94EE0C8AA181508AA38AA118169D
:1031900084F38FEF8AA30F900FBE0FB6F8940F92AF
:1031A00089A11816ECF488858823D1F08E01085F78
:1031B0001F4F09C089A1815089A389A1181684F4E1
:1031C0008885882369F0C8010E94FA0B882391F34F
:1031D0000E94EE0C89A1815089A389A1181684F35D
:1031E0008FEF89A30F900FBEDF91CF911F910F91A9
:1031F0000895CF93DF93EC010FB6F8940F922881D6
:1032000039818F8D78A1879FC0011124A901480FB2
:10321000591F5B834A831E8E3D832C83871B910934
:10322000820F931F9F838E838FEF89A38AA36111DF
:1032300012C08885811106C00F900FBE81E0DF911A
:10324000CF910895CE0108960E94FA0B8130A1F724
:103250000E946F17F1CFCE0108960E940016CE0192
:1032600043960E9400160F900FBE81E0DF91CF9130
:1032700008950F931F93CF93DF93182F062F882362
:1032800001F183E290E00E942306EC010097C9F06F
:10329000109FC001112401960E9423069983888300
:1032A000892B61F01F8F08A361E0CE010E94F918FD
:1032B000CE01DF91CF911F910F910895CE010E9411
:1032C000BC06C0E0D0E0CE01DF91CF911F910F91FD
:1032D00008956F927F928F929F92AF92BF92CF92FA
:1032E000DF92EF92FF920F93CF93DF93CDB7DEB7CC
:1032F00029970FB6F894DEBF0FBECDBF5C014B011E
:103300002E833F834887598720E03C0188E0680E80
:10331000711C0FB6F8940F92F501968D878D981752
:1033200008F459C0023009F456C0CE80DF80E8842A
:10333000F984CD28CE28CF2809F46FC0222309F4C0
:1033400041C00F900FBE0E9410090FB6F8940F9263
:10335000F50181A18F3F09F43CC0F50182A18F3FA7
:10336000B1F10F900FBEBE016A5F7F4FCE01019693
:103370000E948D0C811155C00FB6F8940F92F50183
:10338000968D0F900FBEF501878D981314C04E8156
:103390005F8168857985C3010E949F0BC5010E94EA
:1033A000A1180E94430A882311F021E0B2CF0E94A5
:1033B0006F1721E0AECFC5010E94A1180E94430AF9
:1033C00021E0A7CFCE0101960E947C0CBACF12A2B9
:1033D000C8CF11A2C2CF402FB401C5010E94271847
:1033E000F5019389911124C0811128C00F900FBE5F
:1033F00081E029960FB6F894DEBF0FBECDBFDF91F6
:10340000CF910F91FF90EF90DF90CF90BF90AF9052
:103410009F908F907F906F9008950F900FBE80E0E7
:10342000E8CFC5010E94A1180E94430A80E0E1CFC5
:10343000C50143960E94FA0B8130C1F60E946F17B6
:10344000D5CF0F93CF93DF9383E290E00E942306C2
:10345000EC01009701F11B821A82198218821D82E9
:103460001C821F821E821E8E81E08F8F18A28FEF1A
:1034700089A38AA3CE0108960E940016CE01439626
:103480000E94001600E020E030E0A90160E070E05A
:10349000CE010E946919CE01DF91CF910F9108955D
:1034A0000F931F93CF93DF93EC018A019E8D8F8D35
:1034B000981740F0223031F080E0DF91CF911F91DA
:1034C0000F910895422FCE010E942718882331F0D2
:1034D0000115110519F081E0F80180838AA18F3F61
:1034E00049F08AA18F5F8AA381E0DF91CF911F917C
:1034F0000F9108958B898823B9F3CE0143960E94DA
:10350000FA0B882389F30115110571F381E0F801A5
:103510008083D3CFAF92BF92CF92DF92EF92FF9290
:103520000F93CF93DF93CDB7DEB729970FB6F894FB
:10353000DEBF0FBECDBF7C016B012E833F8348876A
:10354000598790E0570183E1A80EB11C0FB6F8949B
:103550000F92F701868D811169C04E815F81688568
:103560007985452B462B472B09F47DC0992309F417
:103570003EC00F900FBE0E9410090FB6F8940F9234
:10358000F70181A18F3F09F43EC0F70182A18F3F6F
:1035900009F43FC00F900FBEBE016A5F7F4FCE019E
:1035A00001960E948D0C811171C00FB6F8940F9294
:1035B000F701868D0F900FBE81111EC0F70180812B
:1035C0009181892B41F14E815F8168857985C501A3
:1035D0000E949F0BC7010E94A1180E94430A8823E2
:1035E00011F091E0B3CF0E946F1791E0AFCFCE0101
:1035F00001960E947C0CBDCFC7010E94A1180E94B9
:10360000430A91E0A3CF11A2F70182A18F3F09F0F5
:10361000C1CF12A2BFCF0FB6F8940F92F7018281EB
:1036200093810E94130D0F900FBECDCFA680B7805F
:10363000B601C7010E948818F70101112EC0868DBE
:103640008150868F80819181892BB9F1F701808526
:10365000882341F1C70108960E94FA0B813011F5C9
:103660000E946F171FC00F900FBE80E029960FB603
:10367000F894DEBF0FBECDBFDF91CF910F91FF90C9
:10368000EF90DF90CF90BF90AF900895C7010E9458
:10369000A1180E94430A80E0E9CFB782A6828389FD
:1036A000811104C00F900FBE81E0E0CFC7014396A7
:1036B0000E94FA0B8823B1F3D3CF0E94D50DF701F6
:1036C00093838283C3CF0F931F93CF93DF9300D055
:1036D000CDB7DEB78C01FC01868D811108C080E07A
:1036E0000F900F90DF91CF911F910F910895C80116
:1036F00049835A830E948818F801868D8150868FED
:1037000081A149815A818F3F61F0F80181A18F5FCA
:1037100081A381E00F900F90DF91CF911F910F91C6
:10372000089580858823A9F3C801089649835A83A0
:103730000E94FA0B49815A81882359F3411551059A
:1037400041F381E0FA018083CBCF0F931F93CF9396
:10375000DF93EC018E8D811106C080E0DF91CF9167
:103760001F910F9108950E811F81CE010E9488182C
:103770001F830E8381E0DF91CF911F910F910895F8
:103780000FB6F8940F92FC01868D0F900FBE08952E
:103790000FB6F8940F92FC01268D0F900FBEFC011E
:1037A000878D821B0895FC01868D0895CF93DF934A
:1037B000EC0188819981009711F00E94BC06CE012E
:1037C000DF91CF910C94BC06FC01968D81E09111A4
:1037D00080E00895FC01268D81E0978D291380E01B
:1037E0000895CF92DF92EF92FF92CF93DF93EC0197
:1037F000688179818A819B8128EEC22E23E0D22EB6
:10380000E12CF12CA70196010E949B1D9B01AC01AC
:1038100060E472E48FE090E00E94771DA7019601BA
:103820000E949B1D69017A01AC81BD8120E432E4D4
:103830004FE050E00E946C1D20E834E84EE150E07B
:103840000E949B1DC20ED31EE41EF51EC701B601C9
:10385000DF91CF91FF90EF90DF90CF900895CF93BD
:10386000DF93EC01442309F441C08EEC90E099838E
:10387000888388EC90E09B838A8389EC90E09D8329
:103880008C8388E18093C90086E08093CA001092FF
:10389000CD009B0140E050E0220F331F441F551F15
:1038A000220F331F441F551F220F331F441F551F64
:1038B000220F331F441F551F60E074E284EF90E035
:1038C0000E949B1D2093CC008091C8008160809352
:1038D000C80080E28E8380E88F8380E48887E88157
:1038E000F98180818081DF91CF91089586EC90E00D
:1038F0009983888380EC90E09B838A8381EC90E0BD
:103900009D838C8388E18093C10086E08093C20010
:103910001092C5009B0140E050E0220F331F441F6E
:10392000551F220F331F441F551F220F331F441FE3
:10393000551F220F331F441F551F60E074E284EFB0
:1039400090E00E949B1D2093C4008091C000816084
:103950008093C000BECFDC011296ED91FC911397CD
:10396000208116968C91282381E009F480E0089547
:10397000DC011296ED91FC911397208118968C91A1
:10398000282381E009F080E00895CF92DF92EF9242
:10399000FF920F931F93CF93DF9314BE88E10FB66E
:1039A000F89480936000109260000FBE80E190E078
:1039B0000E94AE12EC0141E060E875E20E9403153E
:1039C00067E0CE010E942A136BE00E942A136C016B
:1039D00064EE70E00E94E51266E0C6010E942A13C0
:1039E00088E190E00E94AE126C011AE0E12EF12C09
:1039F00000E010E09E0148E052E060E270E0C601A5
:103A00000E947011D0929702C092960282E190E0DB
:103A10000E94AE128E0124E031E041E06EE072E0DF
:103A20000E942E0282E190E00E94AE1228E131E075
:103A300042E066E172E00E9462050E94D30880E0E5
:103A400090E0DF91CF911F910F91FF90EF90DF9069
:103A5000CF9008950E94130F0F93CF93DF931F927F
:103A6000CDB7DEB76983FC0120893189428953894A
:103A700000E0BE016F5F7F4F868597850E946919C0
:103A80000F90DF91CF910F910895FC018685978566
:103A90000E94C01B91E0811101C090E0892F089520
:103AA0000F93CF93DF931F92CDB7DEB700E02FEFD8
:103AB0003FEFA901BE016F5F7F4FFC0186859785AF
:103AC0000E948A1A813031F489810F90DF91CF9161
:103AD0000F9108958FEFF9CF0E94E21DA59F900DE1
:103AE000B49F900DA49F800D911D11240895DB01BA
:103AF0008F939F930E946C1DBF91AF91A29F800DE9
:103B0000911DA39F900DB29F900D11240895AA1BA3
:103B1000BB1B51E107C0AA1FBB1FA617B70710F0B8
:103B2000A61BB70B881F991F5A95A9F780959095EA
:103B3000BC01CD010895A1E21A2EAA1BBB1BFD01F9
:103B40000DC0AA1FBB1FEE1FFF1FA217B307E4077C
:103B5000F50720F0A21BB30BE40BF50B661F771FD4
:103B6000881F991F1A9469F76095709580959095B4
:103B70009B01AC01BD01CF010895052E97FB1EF4FA
:103B800000940E94D41D57FD07D00E949B1D07FC86
:103B900003D04EF40C94D41D50954095309521954A
:103BA0003F4F4F4F5F4F0895909580957095619569
:103BB0007F4F8F4F9F4F0895EE0FFF1F0590F49199
:103BC000E02D0994A29FB001B39FC001A39F700D87
:103BD000811D1124911DB29F700D811D1124911D15
:103BE00008950CD0BAC0B2D040F0A9D030F021F482
:103BF0005F3F19F09BC05111E4C09EC0BFD098F345
:103C00009923C9F35523B1F3951B550BBB27AA275D
:103C100062177307840738F09F5F5F4F220F331FCF
:103C2000441FAA1FA9F333D00E2E3AF0E0E830D09B
:103C300091505040E695001CCAF729D0FE2F27D09E
:103C4000660F771F881FBB1F261737074807AB076C
:103C5000B0E809F0BB0B802DBF01FF2793585F4FE1
:103C60002AF09E3F510568F061C0ABC05F3FECF3A6
:103C7000983EDCF3869577956795B795F7959F5FA6
:103C8000C9F7880F911D9695879597F90895E1E0FA
:103C9000660F771F881FBB1F621773078407BA0759
:103CA00020F0621B730B840BBA0BEE1F88F7E095B4
:103CB0000895E89409C097FB3EF49095809570951F
:103CC00061957F4F8F4F9F4F9923A9F0F92F96E968
:103CD000BB279395F695879577956795B795F111DD
:103CE000F8CFFAF4BB0F11F460FF1BC06F5F7F4F7A
:103CF0008F4F9F4F16C0882311F096E911C077238C
:103D000021F09EE8872F762F05C0662371F096E894
:103D1000862F70E060E02AF09A95660F771F881F63
:103D2000DAF7880F9695879597F9089597F99F6721
:103D300080E870E060E008959FEF80EC0895002433
:103D40000A941616170618060906089500240A9400
:103D500012161306140605060895092E0394000C86
:103D600011F4882352F0BB0F40F4BF2B11F460FF15
:103D700004C06F5F7F4F8F4F9F4F089557FD90583E
:103D8000440F551F59F05F3F71F04795880F97FB1F
:103D9000991F61F09F3F79F08795089512161306D9
:103DA0001406551FF2CF4695F1DF08C01616170608
:103DB0001806991FF1CF869571056105089408953D
:103DC000E894BB2766277727CB0197F90895FB0175
:103DD000DC0102C001900D9241505040D8F7089587
:103DE000DC0101C06D9341505040E0F70895FB01A4
:103DF000DC014150504048F001900D920020C9F77D
:103E000001C01D9241505040E0F70895FA01CF9350
:103E1000FF93EF932230CCF02532BCF4C22F2C2F2D
:103E2000332744275527FF93EF930E949B1DEF9163
:103E3000FF91605D6A330CF0695D6193B901CA015D
:103E4000605070408040904051F710828F919F9158
:103E5000CF910C94411FFB019F01423074F0453219
:103E600064F4642F77270E94871D805D8A330CF0ED
:103E7000895D8193CB010097A1F71082C9010C9451
:103E8000411FDC01FC01672F71917723E1F7329725
:103E900004C07C916D9370836291AE17BF07C8F325
:063EA0000895F894FFCF25
:103EA6003717FFFFFFFF0A035072696E74005573E0
:103EB6006572496E7400427269676874002F000D5E
:103EC60000000000004A03AC0F000000000A05AC29
:103ED6000F412F4420636F6E7374727563746F7233
:103EE600204F4B0049444C450000000000CA120018
:103EF600000000CA12AC0F7478745F7109000000EC
:103F06000000CB122C1D451D501DD112D212F710E8
:103F1600FAFF0000B21100000000CB12CA12CF1245
:103F2600CD12D112D21200000000CB127214E4148A
:063F36009414D112DC140A
:00000001FF
