:100000000C9426020C9445020C9445020C94450273
:100010000C9445020C9445020C9445020C94450244
:100020000C9445020C9445020C9445020C94450234
:100030000C9445020C9445020C9445020C94450224
:100040000C9445020C9445020C9445020C94450214
:100050000C9445020C9445020C9445020C94450204
:100060000C9445020C94A1190C9445020C94450281
:100070000C9445020C9445020C9445020C944502E4
:100080000C9445020C9445020C9445020C944502D4
:100090000C94F4190C9445020C9445020C944502FE
:1000A0000C9445020C9445020C9445020C944502B4
:1000B0000C9445020C9445020C9445020C946B1C64
:1000C0000C9445020C9445020C9445024F175817A6
:1000D0005B175E17511751176117711778177F1744
:1000E000831755174D45343035204C61622031203F
:1000F0004D6F746F72204472697665722050726F12
:100100006772616D004D45343035204C616220319D
:1001100020556E6D6F6469666965642050726F6703
:1001200072616D2056302E303120004170722032C5
:100130003220323031360053797374656D20746922
:100140006D653A20002C20486561703A20002C2013
:100150004F435235413A20002020683A2020202089
:100160002048414C502100202043746C2D433A20FC
:1001700052657365742074686520415652002020D2
:100180006E3A2020202020456E7465722061206E1A
:10019000756D626572202864656D6F29002020648A
:1001A0003A2020202020537461636B2064756D70A9
:1001B00020666F72207461736B73002020733A2085
:1001C0002020202056657273696F6E20616E642056
:1001D000736574757020696E666F726D6174696F96
:1001E0006E002020743A202020202053686F772052
:1001F0007468652074696D65207269676874206E23
:100200006F77004D45343035204C616220312055E8
:100210006E6D6F6469666965642050726F677261A4
:100220006D2056302E303120002068656C700049FA
:100230006C6C6567616C2073746174652120526514
:1002400073657474696E6720415652003C696E761E
:10025000616C69642063686172202200223E004E56
:10026000756D62657220656E74657265643A200012
:10027000223A205754463F00526573657474696E84
:10028000672041565200456E74657220646563694B
:100290006D616C206E756D65726963206469676954
:1002A00074732C207468656E2052455455524E204C
:1002B0006F7220455343005072657373202768277F
:1002C000206F7220273F2720666F722068656C7050
:1002D00000447574795F4379636C653A2000506F10
:1002E0007765725F5369676E616C3A20004375727F
:1002F00072656E74204368616E6E656C2052656134
:1003000064696E67733A2000456E64205072696EAE
:10031000742044617461004D6F746F72204472697F
:1003200076657220496E7075743A20004E6F2073A6
:1003300068617265642064617461206974656D73BD
:1003400020746F207072696E74002D2D2D2D202069
:10035000202020202020202020202D2D2D2D202069
:1003600020202D2D2D2D2D2D2D2D2D2D005368616F
:1003700072652F5175657565202020202054797095
:100380006520202020467265652F546F74616C00D3
:100390004552524F52206372656174696E672074D2
:1003A00061736B2022005461736B20220022206352
:1003B0007265617465642C20737461636B20617471
:1003C000203078005461736B3A20005461736B3AAB
:1003D0002049444C450049444C45090930092D0940
:1003E000002F0009092D002D2D2D2D09092D2D2D52
:1003F0002D092D2D2D2D2D00092D2D2D2D2D2D2DA2
:100400002D2D2D00092D2D2D2D004E616D65090915
:100410005072692E095374617465000946726565EE
:100420002F546F74616C000952756E7300546173C0
:100430006B0909202009200009537461636B0009CE
:100440000009002F000900090020200011241FBE10
:10045000CFEFD1E2DEBFCDBF13E0A0E0B2E0E6E730
:10046000F7E400E00BBF02C007900D92AC3CB1076F
:10047000D9F71BE1ACECB3E001C01D92A238B10783
:10048000E1F70E940C210C94B9230C9400000F9307
:100490001F93CF93DF93EC010E946E1285E292E0EE
:1004A00099838883DF91CF911F910F9108950F93C6
:1004B0001F93CF93DF93EC016BE08E819F810E94AD
:1004C00042178C0163E072E00E94FD166BE0C801E8
:1004D0000E9442178C0169E272E00E94FD1666E0FC
:1004E000C8010E9442176BE08E819F810E944217D3
:1004F0008C0162EE71E00E94FD1666E0C8010E9468
:1005000042176BE08E819F810E9442178C016BEB3A
:1005100071E00E94FD1666E0C8010E9442176BE080
:100520008E819F810E9442178C016DE971E00E94CB
:10053000FD1666E0C8010E9442176BE08E819F8124
:100540000E9442178C016EE771E00E94FD1666E082
:10055000C8010E9442176BE08E819F810E94421762
:100560008C0167E671E00E94FD1666E0C8010E94FA
:1005700042176BE08E819F810E944217EC0168E573
:1005800071E00E94FD1666E0CE01DF91CF911F91D0
:100590000F910C9442178F929F92AF92BF92CF927D
:1005A000DF92EF92FF920F931F93CF93DF9300D0D0
:1005B00000D000D0CDB7DEB78C0119821A821B8221
:1005C0001C821E821D82C0902801D09029010E94A9
:1005D000E90A5C01CE0101960E9418164C0166E002
:1005E000F801868197810E9442176BE00E944217B2
:1005F0007C0165E071E00E94FD166BE0C7010E947E
:1006000042177C016BE271E00E94FD1666E0C701B3
:100610000E9442176BE00E9442177C0167E371E081
:100620000E94FD16B401C7010E94B7156BE00E943D
:1006300042177C0165E471E00E94FD16B501C70117
:100640000E94B6177C016DE172E00E94FD1648E33E
:1006500057E160E070E0C7010E94F0176BE00E9474
:1006600042177C016EE471E00E94FD16B601C701DD
:100670000E94B61766E00E94421766E00E94421789
:10068000F801868197810E94691466E0F8018681ED
:1006900097810E944217F801868197810E94291252
:1006A00026960FB6F894DEBF0FBECDBFDF91CF9177
:1006B0001F910F91FF90EF90DF90CF90BF90AF9080
:1006C0009F908F900895CF93DF93CDB7DEB7279794
:1006D0000FB6F894DEBF0FBECDBF8C0119821A820F
:1006E0001B821C821E821D826BE0DC0116968D919E
:1006F0009C9117970E9442177C0167EB72E00E9461
:10070000FD1666E0C7010E944217C12CD12C76016C
:10071000F8018485882309F45AC0813009F0A0C00B
:10072000F80186819781DC01ED91FC910480F581CF
:10073000E02D0995882309F403C1F801868197818A
:10074000DC01ED91FC910680F781E02D0995282FC1
:1007500080ED820F8A3008F4C4C02A3009F4B9C091
:100760002D3019F02B3109F095C066E0D8011696AE
:100770008D919C9117970E9442176BE00E9442173F
:100780005C016FE572E00E94FD16B701A601C5018C
:100790000E94F01766E00E94421760E0C8010E94C4
:1007A0002413F80186859785A089B1890196A11D3A
:1007B000B11D86879787A08BB18B61E070E080E0E8
:1007C00090E00E941F0FF80184858111A6CF8681D9
:1007D0009781DC01ED91FC910480F581E02D099574
:1007E0008823F9F2F80186819781DC01ED91FC9173
:1007F0000680F781E02D0995282F883609F41FC15E
:100800000CF4F1C0833709F4EAC0843709F4D9C085
:100810008E3609F4BFC0F801A680B780D501ED91EE
:10082000FC910280F381E02D62E2C5012F830995DE
:10083000D501ED91FC910280F381E02D2F81622F93
:10084000C50109956BE0C5010E9442175C0160E794
:1008500072E00E94FD1666E0C5010E944217A1CF1A
:100860006BE0868197810E9442178C016FE272E0F3
:100870000E94FD1666E0C8010E9442172BE088E145
:1008800090E00FB6F894A895809360000FBE209377
:100890006000FFCF6BE0F801868197812F830E9473
:1008A00042175C016CE472E00E94FD16D501ED91E7
:1008B000FC910280F381E02D2F81622FC501099503
:1008C0006BE0C5010E9442176CE572E00E94FD16C4
:1008D00068CF6FE172E0F801868197810E94FD1672
:1008E00060CFF80186819781DC01ED91FC91028057
:1008F000F381E02D622F2F830995CC0CDD1CEE1CBB
:10090000FF1CB701A601440F551F661F771F440F38
:10091000551F661F771F4C0D5D1D6E1D7F1D2F819E
:10092000C22EDD24C7FCD094B0E3CB1AD108EE244C
:10093000D7FCE094FE2CC40ED51EE61EF71E31CF68
:100940008091CC039091CD03DC01ED91FC9104806A
:10095000F581E02D0995882309F423CFD801169657
:10096000ED91FC9117970190F081E02DA280B3806A
:100970008091CC039091CD03DC01ED91FC91068038
:10098000F781E02D0995682FF80186819781F5019F
:10099000099507CF6BE0F801868197810E94421785
:1009A0007C0166E872E00E94FD1666E0C7010E94C5
:1009B000421761E0C8010E942413C12CD12C76019A
:1009C000F0CECE0101960E941816BC01F801868176
:1009D00097810E94B71566E00E944217E2CEC801D7
:1009E0000E94CB02DECE8F3351F1843601F1833089
:1009F00009F011CF6BE0D80116968D919C91179755
:100A00000E9442178C0168E772E00E94FD1666E0C2
:100A1000C8010E9442172BE088E190E00FB6F894DD
:100A2000A895809360000FBE20936000FFCFD8018F
:100A300016968D919C9117970E948313B2CEC80190
:100A40000E945702AECECF93DF9300D000D000D0EB
:100A5000CDB7DEB73C010E94180D69837A838B8382
:100A60009C8382E090E00E94B0162C01F301668125
:100A700077810E94470684E190E00E94B0161C0135
:100A8000F3016681778186E08F9352E0852EAA2458
:100A9000A394C12CEAE8EE2EF12C05E210E028E246
:100AA00030E048E250E0C1010E940C0784E190E090
:100AB0000E94B0169E838D83F3016681778185E065
:100AC0008F93F7E08F2EA6E0AA2EB5E0CB2E88E814
:100AD000E82EF12C2BE230E04BE250E08D819E813C
:100AE0000E940C0780E18DB9809190008163809312
:100AF0009000809191008B608093910080918000A4
:100B0000816A80938000809181008A608093810057
:100B10000F900F90CC24CA94D12C64C0780101347A
:100B2000110508F49AC0C8018154910980349105D7
:100B300008F47FC0C801815891098034910508F0FC
:100B400070C0780180E8E81A80ECF80AEE0CFF1C0F
:100B5000EE0CFF1CB701C1010E945309B7018D8142
:100B60009E810E9453096BE0F301868197810E9468
:100B700042175C0161ED72E00E94FD16B801C501EB
:100B80000E94B61762E00E94421766E00E94421778
:100B90006BE00E9442175C016EED72E00E94FD1650
:100BA000B701C5010E94871762E00E94421766E004
:100BB0000E94421710939B0000939A00F3018685D0
:100BC0009785A089B1890196A11DB11D8687978758
:100BD000A08BB18B4AE050E060E070E0CE0101965E
:100BE0000E94B80E61E0C2010E949E068C0116951B
:100BF0000795169507950115110509F08FCFAA24C1
:100C0000A394B12C2BEFE22EF12C01E010E0B70100
:100C1000C1010E948808B5018D819E810E948808CB
:100C2000A2CFC1010E94B8098D819E810E94B8099E
:100C30009ACFAA24BB24A01AB10A7501EE0CFF1C9E
:100C4000EE0CFF1CF394B701C1010E948808B501A6
:100C50008D819E810E94880886CF5801C801880F27
:100C6000991F880F991F7601E81AF90AD0CF0F93C0
:100C70001F93CF93DF93EC010E946E128DE292E0FE
:100C800099838883DF91CF911F910F910895FF92EF
:100C90000F931F93CF93DF93EC0179836883809147
:100CA0007C00806480937C0080917A00856C8093C6
:100CB0007A000881198101151105D1F161E372E013
:100CC000C8010E94FD1666E0C8010E944217088113
:100CD00019810115110561F1F0907C0060E572E069
:100CE000C8010E94FD1660E0C8010E9442176F2DE6
:100CF0000E94381866E00E9442170990D881C02DE2
:100D00002097B1F010917A0068E572E0CE010E9460
:100D1000FD1660E0CE010E944217612F0E94381834
:100D200066E0DF91CF911F910F91FF900C944217D5
:100D3000DF91CF911F910F91FF900895683008F0D7
:100D400060E080917C00887F80937C0080917C00B3
:100D5000862B80937C0080917A00806480937A0057
:100D600080917A0086FDFCCF8091780020917900F7
:100D700090E0922B0895DF92EF92FF920F931F93D2
:100D8000CF93DF938C01D62EE42E80E48417E0F419
:100D900080E4E82EF12CC0E0D0E06D2DC8010E9467
:100DA0009E06C80FD91FF394FE10F7CF6E2D70E08A
:100DB000CE010E94CE21CB01DF91CF911F910F91E7
:100DC000FF90EF90DF9008954111E4CFC0E0D0E0B4
:100DD000EDCF0F931F93CF93DF93EC016BE00E9455
:100DE00042178C016DEE72E00E94FD1666E0C801AC
:100DF0000E9442176BE00E9442178C0168E073E08A
:100E00000E94FD1666E0C8010E944217CE01DF91E4
:100E1000CF911F910F9108954F925F926F927F92A1
:100E20008F92AF92CF92EF92FF920F931F93CF9337
:100E3000DF93CDB7DEB73C012B018889D301119632
:100E40007C936E9315965C934E93149719963C93EE
:100E50002E9318971D961C930E931C971F96FC9229
:100E6000EE921E975096CC9250975196AC92519715
:100E700052968C92529753968C93539741505109A6
:100E800013965C934E9312972150310917963C9319
:100E90002E931697015011091B961C930E931A97C7
:100EA0006115710509F426C161E672E0C2010E9474
:100EB000FD1666E0C2010E944217F3010081118114
:100EC0000115110509F416C166E872E0C8010E9417
:100ED000FD1666E0C8010E944217D3010D911C91D6
:100EE00011970115110509F405C1FF24F394149617
:100EF0008D919C911597892B09F4FAC06DE972E0E8
:100F0000C8010E94FD166F2DC8010E94CD1666E033
:100F10000E944217F301008111810115110509F4A6
:100F2000E9C0FF24F39482819381892B09F4DEC008
:100F300062EB72E0C8010E94FD166F2DC8010E948D
:100F4000CD1666E00E944217D3010D911C911197B6
:100F50000115110509F4CEC0FF24F3941C968D9160
:100F60009C911D97892B09F4BFC066EC72E0C80103
:100F70000E94FD166F2DC8010E94CD1666E00E94EA
:100F80004217F301008111810115110509F4B2C066
:100F9000FF24F39482859385892B09F4A3C069ED1E
:100FA00072E0C8010E94FD166F2DC8010E94CD1687
:100FB00066E00E944217D3010D911C9101151105A5
:100FC00009F498C06BEE72E0C8010E94FD1666E05D
:100FD000C8010E944217F30100811181011511051A
:100FE00009F488C00480F581E02DF08066E073E0AC
:100FF000C8010E94FD166F2DC8010E94381860E0DC
:101000000E94421766E00E944217D3010D911C9185
:1010100011970115110509F46DC01296ED91FC911F
:101020001397F08063E173E0C8010E94FD166F2DF5
:10103000C8010E94381860E00E94421766E00E94D2
:101040004217F301008111810115110509F452C005
:101050000484F585E02DF0806FE173E0C8010E9403
:10106000FD166F2DC8010E94381860E00E944217DB
:1010700066E00E944217D3010D911C911197011552
:101080001105C1F11A96ED91FC911B97F0806AE26F
:1010900073E0C8010E94FD166F2DC8010E94381828
:1010A00060E00E94421766E00E944217F30100814F
:1010B000118101151105F1F064E373E0C8010E948C
:1010C000FD1666E0C801DF91CF911F910F91FF904F
:1010D000EF90CF90AF908F907F906F905F904F90F8
:1010E0000C944217F12C5BCFF12C3FCFF12C20CF89
:1010F000F12C04CFDF91CF911F910F91FF90EF90D2
:10110000CF90AF908F907F906F905F904F900895A9
:10111000EF92FF920F931F93CF93DF93EC018B011C
:10112000EA81FB81608181E090E0AC01088802C027
:10113000440F551F0A94E2F79C01098802C0220F50
:10114000331F0A94E2F7242B262B2083EE81FF81A4
:1011500040819C010A8802C0220F331F0A94E2F7E3
:10116000209524232083EA85FB8540819C010B8800
:1011700002C0220F331F0A94E2F7422B4083E88516
:10118000F98540819C010A8802C0220F331F0A940E
:10119000E2F7422B4083EC81FD8140819C0117FDE9
:1011A0005FC0088802C0220F331F0A94E2F7422B67
:1011B0004083EC81FD812081098802C0880F991F3E
:1011C0000A94E2F7809582238083EE85FF85118360
:1011D0000083E880F980E114F104D9F164E573E05B
:1011E000C7010E94FD16B801C7010E94871766E07B
:1011F0000E944217088119810115110551F1EC81F6
:10120000FD81F08066E073E0C8010E94FD166F2D3D
:10121000C8010E94381866E00E94421708811981AF
:1012200001151105B1F0EE85FF85C081D1816FE612
:1012300073E0C8010E94FD16BE01C8010E94B617E6
:1012400066E0DF91CF911F910F91FF90EF900C948A
:101250004217DF91CF911F910F91FF90EF9008956A
:10126000098802C0220F331F0A94E2F7422B408301
:10127000EC81FD812081088802C0880F991F0A94A3
:10128000E2F7809582238083119501951109EE85FF
:10129000FF8511830083E880F980E114F104C9F22D
:1012A00061E673E09DCFCF93FC01A281B381CC9125
:1012B00081E090E0AC01008802C0440F551F0A9401
:1012C000E2F79C01018802C0220F331F0A94E2F763
:1012D000242B2C2B2C93A681B7814C919C01028846
:1012E00002C0220F331F0A94E2F7209524232C9387
:1012F000A285B3854C919C01038802C0220F331F45
:101300000A94E2F7422B4C93A085B1854C919C0145
:10131000028802C0220F331F0A94E2F7422B4C933B
:10132000A481B5814C919C01008802C0220F331F1B
:101330000A94E2F7422B4C93A481B5812C91018849
:1013400002C0880F991F0A94E2F7282B2C93068479
:10135000F785E02DCB0177FD04C091838083CF9189
:10136000089591958195910991838083CF910895F6
:10137000FC01A281B3816C9181E090E0AC01008816
:1013800002C0440F551F0A94E2F79C01018802C075
:10139000220F331F0A94E2F7242B262B2C93A681CD
:1013A000B7814C919C01028802C0220F331F0A941E
:1013B000E2F7209524232C93A285B3854C919C01C0
:1013C000038802C0220F331F0A94E2F7422B4C938A
:1013D000A085B1854C919C01028802C0220F331F69
:1013E0000A94E2F7422B4C93A481B5814C919C0165
:1013F000008802C0220F331F0A94E2F720952423AD
:101400002C93A481B5812C91018802C0880F991F6B
:101410000A94E2F7809582238C9308950F931F938B
:10142000CF93DF93EC016BE00E9442178C0167E1E0
:1014300073E00E94FD1666E0C8010E944217CE01CB
:10144000DF91CF911F910F9108950F931F93CF9329
:10145000DF93EC010E94120D8091CE03811121C017
:1014600088ED93E09093D4038093D3031092D60336
:101470001092D50387E397E19093D2038093D10331
:101480001092D0031092CF039093DB038093DA0382
:101490008FEC93E09093D9038093D80381E08093FD
:1014A000CE03209709F460C0AE014C5F5F4F2396D6
:1014B000C633D74108F058C0E091D303F091D4036C
:1014C000A3EDB3E006C080819181009739F0DF0180
:1014D000FC012281338124173507A8F3C3E0EF3CD8
:1014E000FC0709F441C00D911C9111970C5F1F4F2F
:1014F000808191818D939C93C901841B950B8930C8
:10150000910500F1BF01640F751FDB0113969C93D9
:101510008E9312975383428312968D919C911397C9
:10152000A3EDB3E001C0DF01ED91FC9111972281A1
:10153000338128173907B8F3EB01F983E8836D93FA
:101540007C939A018091000290910102821B930B7F
:1015500090930102809300020E94450EC801DF9122
:10156000CF911F910F91089500E010E00E94450E69
:10157000C801DF91CF911F910F910895CF93DF9311
:10158000009721F1EC0124970E94120D4A815B81A2
:10159000A3EDB3E001C0DF01ED91FC911197228131
:1015A000338124173507B8F3F983E883CD93DC93AF
:1015B0008091000290910102840F951F9093010287
:1015C00080930002DF91CF910C94450EDF91CF9173
:1015D00008958091000290910102089508958091EC
:1015E000441B823018F00E94B61BF9CFFFCFCF9278
:1015F000DF92EF92FF926B017C01E0910F1BF09163
:10160000101B62837383848395838091181B909150
:10161000191BA0911A1BB0911B1B60910F1B70919D
:10162000101BC816D906EA06FB0610F180912C1B88
:1016300090912D1B6E5F7F4F0E947D1A8091020258
:1016400090910302A0910402B0910502C816D90638
:10165000EA06FB0640F4C0920202D0920302E09236
:101660000402F0920502FF90EF90DF90CF90089572
:1016700080912A1B90912B1B6E5F7F4FFF90EF9004
:10168000DF90CF900C947D1A5F926F927F928F9231
:101690009F92AF92BF92CF92DF92EF92FF920F9301
:1016A0001F93CF93DF934C01162F572E5A01390108
:1016B00089E290E00E94250AEC01009709F4E9C054
:1016C000C114D10409F4DAC0DC8ECB8EC601A501A9
:1016D00065EA70E00E94372321E0A21AB108CB8CA2
:1016E000DC8CCA0CDB1CAE01435E5F4FE12FF52D95
:1016F0002AE0CF013191DA013D93AD01DC018C91FB
:10170000882311F02150A9F71EA2102F043008F0F1
:101710007DC01A8F1FA318A65E01B2E0AB0EB11CEC
:10172000C5010E94581ACE010E960E94581ADB87F6
:10173000CA8784E090E0A0E0B0E0811B9109A10994
:10174000B1098E879F87A88BB98BDF8BCE8BA301C6
:10175000B401C6010E94E61A99838883E114F1045A
:1017600019F0F701D183C0830FB6F8940F928091DE
:101770001C1B8F5F80931C1B80910F1B9091101B73
:10178000892B09F449C08091161B81110BC0E0918F
:101790000F1BF091101B828D081720F0D093101BA7
:1017A000C0930F1B8091121B8F5F8093121B8A8D39
:1017B0009091171B981738F1FBE08F9FC0011124FF
:1017C000B5018C5B944E0E945C1A0F900FBE809105
:1017D000161B882339F0E0910F1BF091101B828DAE
:1017E0008017B0F081E0DF91CF911F910F91FF90B2
:1017F000EF90DF90CF90BF90AF909F908F907F90B1
:101800006F905F9008958093171BD6CF13E081CF20
:101810000E94B61B81E0E7CFD093101BC0930F1B33
:1018200080911C1B813009F0BDCF84E49BE10E94B4
:10183000471A8FE49BE10E94471A8AE59BE10E94C8
:10184000471A85E69BE10E94471A89E39BE10E94C3
:10185000471A8EE29BE10E94471A8FE19BE10E94AA
:10186000471A89E39BE190932D1B80932C1B8EE2FA
:101870009BE190932B1B80932A1B94CFC5010E9460
:10188000250A9C8F8B8F009709F021CFCE010E94F3
:10189000BE0A8FEFA8CF0FB6F8940F92009729F0E9
:1018A0000F900FBEFC01828D089580910F1B9091C7
:1018B000101B0F900FBEFC01828D0895EF92FF92D6
:1018C0001F93CF93DF93EC01262F643008F023E0C1
:1018D0000FB6F8940F92209709F44AC03FA132172F
:1018E000A9F180910F1B9091101B3217B8F5C81702
:1018F000D90741F0E0910F1BF091101B11E0828D90
:10190000281708F410E08A8D381769F12FA34E8547
:101910005F856889798977FD0CC044E050E060E01C
:1019200070E0421B5109610971094E875F87688B1E
:10193000798B2BE0829FC00111248C5B944E2C8507
:101940003D8528173907C9F0113079F00F900FBE87
:10195000DF91CF911F91FF90EF90089511E0C8178C
:10196000D90781F6D0CF2A8FD1CF0E94B61BEECFF8
:10197000C0910F1BD091101BB1CF7E0182E0E80E09
:10198000F11CC7010E94BA1A8A8D9091171B9817F3
:1019900010F48093171B2BE0829FC0011124B70124
:1019A0008C5B944E0E945C1ACFCFAF92BF92CF92C5
:1019B000DF92EF92FF920F93A12CB12CC12CD12C6E
:1019C0008DE1E82E8BE1F82E00E020E030E044E6E7
:1019D00050E06AE773E08FEE9AE00E94440B81309A
:1019E00041F00F91FF90EF90DF90CF90BF90AF90BC
:1019F0000895F8948093161B1092181B1092191BCF
:101A000010921A1B10921B1B0F91FF90EF90DF900A
:101A1000CF90BF90AF900C947A1BF8941092161B45
:101A20000C94B51B8091111B8F5F8093111B08953F
:101A30000FB6F8940F926091181B7091191B80914A
:101A40001A1B90911B1B0F900FBE08956091181BDD
:101A50007091191B80911A1B90911B1B0895809106
:101A60001C1B0895009711F04D96089580910F1B4F
:101A70009091101B4D96089580911D1B90911E1BF7
:101A80000895AF92BF92CF92DF92EF92FF920F93A1
:101A90001F93CF93DF938091111B8111CFC0809151
:101AA000181B9091191BA0911A1BB0911B1B01963A
:101AB000A11DB11D8093181B9093191BA0931A1B95
:101AC000B0931B1BC090181BD090191BE0901A1BE1
:101AD000F0901B1BC114D104E104F10439F580918D
:101AE0002C1B90912D1B20912A1B30912B1B309386
:101AF0002D1B20932C1B90932B1B80932A1B8091D2
:101B0000131B8F5F8093131BE0912C1BF0912D1BF7
:101B1000808181119AC08FEF9FEFDC0180930202D8
:101B200090930302A0930402B093050280910202F5
:101B300090910302A0910402B0910502B12CC81645
:101B4000D906EA06FB0608F457C09BE0A92EE091EF
:101B50002C1BF0912D1B8081882309F442C0E09159
:101B60002C1BF0912D1B0780F085E02DC085D185C1
:101B70004A815B816C817D81C416D506E606F70635
:101B800008F47AC08E010E5F1F4FC8010E94BA1A76
:101B9000888D998D892B21F0CE010E960E94BA1A5C
:101BA0008A8D9091171B981710F48093171BA89E8D
:101BB000C0011124B8018C5B944E0E945C1AE09124
:101BC0000F1BF091101B9A8D828D981708F4BFCFD0
:101BD000BB24B394E0912C1BF0912D1B80818111CB
:101BE000BECF4FEF5FEFBA01409302025093030262
:101BF0006093040270930502E0910F1BF091101B9B
:101C0000E28D8BE0E89FF0011124EC5BF44E8081C3
:101C1000823010F0BB24B3948091141B882311F000
:101C2000BB24B3948B2DDF91CF911F910F91FF9027
:101C3000EF90DF90CF90BF90AF9008958091151BEB
:101C40008F5F8093151BB12CE7CFE0912C1BF09197
:101C50002D1B0780F085E02D0084F185E02D828129
:101C60009381A481B5818093020290930302A09393
:101C70000402B09305025ACF40930202509303022C
:101C80006093040270930502B7CFEF92FF920F9317
:101C90001F93CF93DF930FB6F8940F928091111B8F
:101CA00081508093111B8091111B811150C0809134
:101CB0001C1B882309F44BC02BE0F22EEE24E39486
:101CC00027C0E091261BF091271BC085D185CE014E
:101CD0000E960E94BA1A8E010E5F1F4FC8010E9415
:101CE000BA1A8A8D9091171B981710F48093171BBE
:101CF000F89EC0011124B8018C5B944E0E945C1ABE
:101D0000E0910F1BF091101B9A8D828D981748F56A
:101D100080911F1B8111D5CF8091151B882399F0CD
:101D20008091151B882379F0C1E00E94410D81113B
:101D3000C093141B8091151B81508093151B8091BB
:101D4000151B8111F2CF8091141B813069F080E066
:101D50000F900FBEDF91CF911F910F91FF90EF90E9
:101D60000895E092141BD4CF0E94B61B81E0F0CFFF
:101D7000CF92DF92EF92FF920F931F93CF93DF9357
:101D800000D000D0CDB7DEB72091111B2F5F20937C
:101D9000111BC090181BD090191BE0901A1BF090DB
:101DA0001B1BFC010081118122813381400F511FD7
:101DB000621F731FC016D106E206F306E8F440174F
:101DC000510762077307E8F0FC0140835183628387
:101DD00073830E94450E811102C00E94B61B0F90B2
:101DE0000F900F900F90DF91CF911F910F91FF9067
:101DF000EF90DF90CF900895401751076207730767
:101E000028F0C416D506E606F706F0F6FC01408376
:101E100051836283738380910F1B9091101B0296F4
:101E200049835A836B837C830E94BA1A49815A8101
:101E30006B817C81CB01BA010E94F70ACACFCF9295
:101E4000DF92EF92FF92611571058105910539F4DA
:101E50000E94B61BFF90EF90DF90CF9008952091E5
:101E6000111B2F5F2093111BC090181BD090191BC2
:101E7000E0901A1BF0901B1BC60ED71EE81EF91E21
:101E800080910F1B9091101B02960E94BA1AC701F5
:101E9000B6010E94F70A0E94450E8823C9F2FF90FE
:101EA000EF90DF90CF9008958091111B81113BC07E
:101EB0001092141BE091171B8BE0E89FF001112496
:101EC000EC5BF44E8081811110C09BE08091171B68
:101ED00081508093171BE091171B9E9FF0011124E6
:101EE000EC5BF44E8081882389F3E091171B8BE033
:101EF000E89FF0011124EC5BF44EA181B2811496AD
:101F00000D90BC91A02DB283A183CF010396A81799
:101F1000B90769F018968D919C9119979093101BB1
:101F200080930F1B089581E08093141B08951496ED
:101F30009C91149715968C9191838283A92FB82F29
:101F4000E9CFCF92DF92EF92FF926A017B0160911D
:101F50000F1B7091101B625F7F4F0E947D1A809152
:101F60000F1B9091101B02960E94BA1A6091181BC9
:101F70007091191B80911A1B90911B1B6C0D7D1D7C
:101F80008E1D9F1DFF90EF90DF90CF900C94F70A6D
:101F9000CF92DF92EF92FF920F931F936801790126
:101FA000E0910F1BF091101B706846875787608B7C
:101FB000718B60910F1B7091101B625F7F4F0E94AD
:101FC0005C1A80910F1B9091101B02960E94BA1A06
:101FD0006091181B7091191B80911A1B90911B1B0B
:101FE0006C0D7D1D8E1D9F1D1F910F91FF90EF9019
:101FF000DF90CF900C94F70A0F931F93CF93DF934A
:10200000DC011796ED91FC911897C085D1858E0162
:10201000025F1F4FC8010E94BA1A8091111B8111E3
:1020200024C08E010E5F1F4FC8010E94BA1A8A8D0C
:102030009091171B9817F8F0BBE08B9FC0011124FB
:10204000B8018C5B944E0E945C1AE0910F1BF091DA
:10205000101B9A8D828D891788F481E08093141B60
:10206000DF91CF911F910F910895B8018FE19BE10E
:102070000E945C1AEACF8093171BDECF80E0DF91CD
:10208000CF911F910F9108950F931F93CF93DF93DB
:102090007068FC014083518362837383C085D1855E
:1020A0000E94BA1A8E010E5F1F4FC8010E94BA1A11
:1020B0008A8D9091171B981710F48093171BFBE0E3
:1020C0008F9FC0011124B8018C5B944E0E945C1A52
:1020D000E0910F1BF091101B9A8D828D891740F4AF
:1020E00081E08093141BDF91CF911F910F91089590
:1020F00080E0DF91CF911F910F9108952091131BE4
:10210000FC0120834091181B5091191B60911A1BF0
:1021100070911B1B418352836383748308958F9254
:102120009F92AF92BF92CF92DF92EF92FF920F9366
:102130001F93FC01DB010FB6F8940F924091181B1E
:102140005091191B60911A1B70911B1B8091131BDE
:1021500090810181128123813481981729F04017E1
:1021600051076207730770F5CD90DD90ED90FC90FC
:1021700013974A015B01801A910AA20AB30A8C14D0
:102180009D04AE04BF04F0F4C41AD50AE60AF70AA7
:10219000C00ED11EE21EF31ECD92DD92ED92FC9296
:1021A00013978091131B80838091181B9091191BAA
:1021B000A0911A1BB0911B1B81839283A383B483CC
:1021C00080E001C081E00F900FBE1F910F91FF9042
:1021D000EF90DF90CF90BF90AF909F908F90089539
:1021E00081E08093141B0895009799F0DC015B96C1
:1021F000ED91FC915C978081853A81F4319680E085
:1022000090E0DC010196A11DB11D2191253AD1F389
:10221000089580910F1B9091101BE8CF80E00895E6
:1022200080910F1B9091101B08950F931F93CF93D4
:10223000DF93EC01009781F18A8DE0910F1BF09103
:10224000101B928D891740F54E855F8568897989C5
:1022500077FD11C0E0910F1BF091101B928D44E0AF
:1022600050E060E070E0491B5109610971094E8737
:102270005F87688B798B2BE0829FC00111248C5B78
:10228000944E2C853D852817390759F0E0910F1B96
:10229000F091101B828D8A8FDF91CF911F910F914A
:1022A00008958E010E5F1F4FC8010E94BA1AE09177
:1022B0000F1BF091101B828D8A8F9091171B98171E
:1022C00010F48093171B2BE0829FC0011124B801EA
:1022D0008C5B944EDF91CF911F910F910C945C1AFF
:1022E0000F931F93CF93DF93EC01009749F088A5DC
:1022F000815088A72A8D9FA1291711F0882331F0DA
:1023000080E0DF91CF911F910F9108958E010E5FB4
:102310001F4FC8010E94BA1A8FA18A8F44E050E073
:1023200060E070E0481B5109610971094E875F87C1
:10233000688B798B9091171B981710F48093171B5B
:102340002BE0829FC0011124B8018C5B944E0E9447
:102350005C1A81E0DF91CF911F910F910895CF9288
:10236000DF92EF92FF92E0910F1BF091101B6685B8
:10237000778580899189E0910F1BF091101BA091C6
:102380000F1BB091101B5A962C9134E0C32ED12C08
:10239000E12CF12CC21AD108E108F108C686D786D3
:1023A000E08AF18AFF90EF90DF90CF9008958091BE
:1023B0000F1B9091101B892B39F0E0910F1BF091AE
:1023C000101B80A58F5F80A780910F1B9091101B21
:1023D0000895EF92FF920F931F93CF93DF9300D056
:1023E000CDB7DEB77C0183E893E0F701918380836A
:1023F00061157105C1F0FB0101900020E9F73197EB
:10240000E61BED3020F50E2F10E0C8010196698320
:102410007A830E94B716F70195838483A8016981A6
:102420007A810E943E238091701B9091711BF7016D
:1024300097838683F092711BE092701B0F900F9030
:10244000DF91CF911F910F91FF90EF900895ECE0F5
:10245000DACF0F931F93CF93DF93EC018091701B22
:102460009091711B6BE0892B49F1CE010E944217BC
:102470008C016DE673E00E94FD1666E0C8010E94C3
:1024800042176BE0CE010E9442178C016AE473E0B0
:102490000E94FD1666E0C8010E9442178091701BE1
:1024A0009091711BDC01ED91FC910190F081E02D88
:1024B000BE01DF91CF911F910F910994CE010E942F
:1024C0004217EC016CE273E00E94FD1666E0CE015B
:1024D000DF91CF911F910F910C9442174F925F9211
:1024E0006F927F928F929F92AF92BF92CF92DF9224
:1024F000EF92FF920F931F93CF93DF93EC013B0179
:1025000049012801FC0189E893E081939193A12C72
:10251000B12CC12CD12C7F01042F9E01A40181E795
:1025200091E20E94440B5F824E82998688862091B8
:10253000721B3091731B3D832C83D093731BC0930C
:10254000721B1C861D868090801B9090811B9FEFC4
:10255000891A990A9092811B8092801B9B868A8699
:102560001E861F86188A198A4114510409F44CC02A
:102570006BE0813041F1C2010E944217EC0160E939
:1025800073E00E94FD16B301CE010E94FD16E881A2
:10259000F9810280F381E02D62E2CE01099566E0C7
:1025A000CE01DF91CF911F910F91FF90EF90DF90BF
:1025B000CF90BF90AF909F908F907F906F905F90E3
:1025C0004F900C944217C2010E944217EC0166EA38
:1025D00073E00E94FD16B301CE010E94FD166BE070
:1025E000CE010E944217EC016DEA73E00E94FD16D5
:1025F00063E0CE010E944217B4010E94B61762E068
:102600000E94421766E0CDCFDF91CF911F910F91CD
:10261000FF90EF90DF90CF90BF90AF909F908F9002
:102620007F906F905F904F900895EC01E881F98161
:102630000190F081E02D09951B821A826FEF7FEFE8
:10264000CB010E941F0FFACFFC01648765870895B4
:10265000FC01C681D781209739F0CE010E94FD167A
:1026600066E0CE010E9442172BE088E190E00FB6B1
:10267000F894A895809360000FBE20936000FFCF70
:102680000E94180D0E94A02220E030E04AE754E4A6
:102690000E9438220895CF92DF92EF92FF920F931B
:1026A0001F93CF93DF93EC017B018A819B810E9472
:1026B000320D6C016BE0C7010E9442178C0164EC83
:1026C00073E00E94FD16B601C8010E94FD1666E087
:1026D000C8010E9442178A859B8528853985A701F4
:1026E000BC01821B930B0E9430160C80DD81C02D33
:1026F0002097D9F6DF91CF911F910F91FF90EF9026
:10270000DF90CF9008950F931F93CF93DF93EC0149
:102710008091721B9091731B009719F0BE010E946B
:102720004B136BE0CE010E9442178C016BEC73E0FF
:102730000E94FD1666E0C8010E9442178091801B2E
:102740009091811BBC016F5F7F4FAE018356910951
:10275000DF91CF911F910F910C9430168F929F9221
:10276000AF92BF92CF92DF92EF92FF920F931F939F
:10277000CF93DF93EC018B018A819B810E94320D04
:10278000BC01C8010E94FD16D801ED91FC910280A8
:10279000F381E02D69E0C80109958A819B810E943F
:1027A000320DFC0101900020E9F73197E81BF90B8D
:1027B000389748F4D801ED91FC910280F381E02D27
:1027C00069E0C8010995CE84DF84E888F988A88487
:1027D000B9848A819B810E94F410982E8C848A810E
:1027E0009B810E944B0C682FC8010E9438186BE037
:1027F0000E944217EC016FE374E00E94FD16682D01
:10280000CE010E9438186BE00E944217EC0161E48F
:1028100074E00E94FD16692DCE010E9438186BE00D
:102820000E944217EC0163E474E00E94FD16B501BA
:10283000CE010E94B6176BE00E944217EC0165E4DE
:1028400074E00E94FD166BE0CE010E944217EC017D
:1028500067E474E00E94FD16B701A601CE01DF9186
:10286000CF911F910F91FF90EF90DF90CF90BF908D
:10287000AF909F908F900C94F0170F931F93CF936E
:10288000DF93EC018B01E881F9810280F381E02D77
:10289000B801CE01099566E0C8010E9442170C807C
:1028A000DD81C02D209779F7DF91CF911F910F9196
:1028B0000895CF93DF93EC01CB01DB01ED91FC9107
:1028C0000280F381E02DBE010995CE01DF91CF9109
:1028D00008950F931F93CF93DF93EC016BE00E9459
:1028E00042178C016DE274E00E94FD166BE0C80196
:1028F0000E9442178C0168E374E00E94FD1666E0B6
:10290000C8010E9442176BE0CE010E9442178C0161
:102910006AE074E00E94FD166BE0C8010E94421755
:102920008C016BE174E00E94FD166BE0C8010E940F
:1029300042178C0167E274E00E94FD1666E0C80150
:102940000E9442176BE0CE010E9442178C0167EE95
:1029500073E00E94FD166BE0C8010E9442178C01D3
:1029600068EF73E00E94FD166BE0C8010E944217F9
:102970008C0164E074E00E94FD1666E0C8010E94CC
:1029800042178091721B9091731B009719F0BE0142
:102990000E943D140E943C0D0E94F410182F6BE021
:1029A000CE010E944217EC0166ED73E00E94FD1615
:1029B000612FCE010E9438186BE00E944217EC0193
:1029C00061EE73E00E94FD1664E670E0CE010E94A5
:1029D000B6176BE00E944217EC0163EE73E00E94B1
:1029E000FD1666E0CE01DF91CF911F910F910C94FF
:1029F0004217CF92DF92EF92FF920F931F93CF93E4
:102A0000DF937C018B01DC011A966D917C911B9701
:102A1000C8010E94FD16F701A285B385FD01019052
:102A20000020E9F73197DE2EDA1AFFE0FD1580F07D
:102A3000C0E0D0E0D801ED91FC910280F381E02D5F
:102A400060E2C801099521968C2F8D0D803190F39D
:102A50006DE873E0C8010E94FD16D7015696CD902F
:102A6000DC9057971E968D919C911F970E940F2086
:102A7000682FC8010E943818EC01E881F9810280B2
:102A8000F381E02D6FE20995B601CE010E94B617E1
:102A9000DC01ED91FC910280F381E02D69E0099564
:102AA00066E0C8010E944217F7018485958500976A
:102AB00081F0DC01ED91FC910190F081E02DB801F5
:102AC000DF91CF911F910F91FF90EF90DF90CF900A
:102AD0000994DF91CF911F910F91FF90EF90DF90BC
:102AE000CF9008956F927F928F929F92AF92BF92F4
:102AF000CF92DF92EF92FF920F931F93CF93DF93CA
:102B0000EC01762E672E4A015901670178010E9477
:102B1000F216B401CE0106960E94E91188E993E00D
:102B2000998388832AEA33E03F832E83BD8AAC8A67
:102B300040E061E0872D0E94801D9F878E87C88AB4
:102B4000D98AEA8AFB8A7E8A6F8ADF91CF911F91A8
:102B50000F91FF90EF90DF90CF90BF90AF909F903C
:102B60008F907F906F90089506970C94F914CF92F0
:102B7000DF92EF92FF920F931F93CF93DF93CDB726
:102B8000DEB72F970FB6F894DEBF0FBECDBF8C0116
:102B90007B01DB016D917D918D919C9128EE33E05D
:102BA00040E050E00E94E221BA01A901C8010E9460
:102BB000F017D801ED91FC910280F381E02D6EE2D7
:102BC000C8010995C7010E9438206E01B9E0CB0EFB
:102BD000D11C7E01EFE0EE0EF11C2AE030E040E077
:102BE00050E00E940422E62F29833A834B835C83C2
:102BF00069817A818B819C81E05DD701EE937D01B3
:102C0000AC15BD0551F71F86BD01C8010E94FD1618
:102C1000C8012F960FB6F894DEBF0FBECDBFDF916F
:102C2000CF911F910F91FF90EF90DF90CF9008957B
:102C3000CF93DF93EC010FB6F8940F9280912401AB
:102C4000909125019D838C830E94180D6883798360
:102C50008A839B830F900FBECE01DF91CF910895A1
:102C60008F929F92AF92BF92CF92DF92EF92FF929C
:102C70000F931F93CF93DF936C014B01EA0163E045
:102C8000CA010E944217C814D90408F059C056015D
:102C900084E1A80EB11C7501B601CE010E94B617E1
:102CA0006BE00E94421769E474E00E94FD16860101
:102CB000F80161918F01CE010E943818E881F981F5
:102CC0000280F381E02D60E2CE0109950E151F050B
:102CD00079F7E881F9810280F381E02D60E2CE018D
:102CE00009950FC080EE860FE881F9810280F3819B
:102CF000E02D8F3508F06EE2CE010995CE14DF0489
:102D000081F0F60161916F01653A61F7E881F9811F
:102D10000280F381E02D60E2CE010995CE14DF043C
:102D200081F7650166E0CE010E944217F4E1EF0EE3
:102D3000F11CA814B90420F4C50144965C01ACCF81
:102D400062E0CE01DF91CF911F910F91FF90EF9044
:102D5000DF90CF90BF90AF909F908F900C944217D0
:102D60000C94250A009711F00C94BE0A08950C9457
:102D7000250A009711F00C94BE0A0895FC0181E029
:102D800090E02081222311F080E090E0089521E07E
:102D9000FC012083089508950895CF93DF93EC01FB
:102DA000E881F9810280F381E02D611106C066E4BB
:102DB0000995CE01DF91CF91089564E50995CE0183
:102DC000DF91CF91089581E0089580E0089580E03B
:102DD00008950895DC01ED91FC910280F381E02DCE
:102DE0006CE00994FC0180EB93E0918380838AE09E
:102DF000828383E08583148208950F931F93CF937A
:102E0000DF93EC01FB018C81811117C06081662387
:102E100079F08F010F5F1F4FE881F9810280F38104
:102E2000E02DCE010995F80161918F016111F4CF78
:102E3000DF91CF911F910F9108951C828B010F5F3D
:102E40001F4F64916623A1F3A881B9811296ED9179
:102E5000FC911397CE010995F80164910F5F1F4F04
:102E60006111F2CFE5CF883008F087E08093070248
:102E700089E008959EEF980F9F3010F4809306022A
:102E80008AE00895CF93DF93EC01462F50E04C3059
:102E9000510538F4FA01EA59FF4F0C94232282E0DD
:102EA0008A83CE01DF91CF91089581E08C83F9CFA1
:102EB00088E08A83F6CF8AE08A83F3CF80E18A8331
:102EC000F0CFE881F9810280F381E02D6DE0099572
:102ED000E881F9810280F381E02D6AE0CE01099555
:102EE000E0CFE881F9810284F385E02D0995D9CFFF
:102EF000E881F9810084F185E02D0995D2CF809198
:102F000007028D83CECF809106028A83CACF0F93AA
:102F10001F93CF93DF93CDB7DEB761970FB6F894C9
:102F2000DEBF0FBECDBF8C01CB01F80122812A305C
:102F300079F0C8010E94B617C80161960FB6F894DF
:102F4000DEBF0FBECDBFDF91CF911F910F910895CE
:102F50004AE050E0BE016F5F7F4F0E944D23BE01EB
:102F60006F5F7F4FC8010E94FD16E6CFFF920F935F
:102F70001F93CF93DF93CDB7DEB761970FB6F89469
:102F8000DEBF0FBECDBF8C01F62E972FF801428118
:102F9000403191F0483081F0423071F050E0BE0194
:102FA0006F5F7F4F8F2D0E949323BE016F5F7F4F16
:102FB000C8010E94FD1607C0692FC8010E94381879
:102FC0006F2D0E943818C80161960FB6F894DEBFC5
:102FD0000FBECDBFDF91CF911F910F91FF9008954C
:102FE000DF92EF92FF920F931F93CF93DF93CDB7B2
:102FF000DEB7A1970FB6F894DEBF0FBECDBF8C0130
:10300000D42EE52EF62E972FF80122812031A1F043
:10301000283091F0223081F030E0AE014F5F5F4FF9
:103020006D2D7E2D8F2D0E946E23BE016F5F7F4F11
:10303000C8010E94FD160DC0692FC8010E943818F2
:103040006F2D0E9438186E2D0E9438186D2D0E9429
:103050003818C801A1960FB6F894DEBF0FBECDBFD9
:10306000DF91CF911F910F91FF90EF90DF90089526
:10307000CF92DF92EF92FF920F931F93CF93DF9344
:10308000CDB7DEB729970FB6F894DEBF0FBECDBF20
:103090008C01D62EDC0113968C91139781115DC0A3
:1030A000F80142814230D9F14031F1F050E0BE01E7
:1030B0006F5F7F4F8D2D90E00E949323BE016F5F65
:1030C0007F4FC8010E94FD16C80129960FB6F894DB
:1030D000DEBF0FBECDBFDF91CF911F910F91FF904B
:1030E000EF90DF90CF90089562956F700190F0811E
:1030F000E02D0280F381E02D6A30B8F5605DC801F3
:1031000009956D2D6F70D801ED91FC910280F381CE
:10311000E02D6A3060F1695CC8010995D5CF88E07F
:10312000E82EF12C90E8C92E0AC061E3C801099588
:10313000C694B1E0EB1AF108E114F10429F28C2DE8
:103140008D21D801ED91FC910280F381E02D811158
:10315000ECCF60E3C8010995EBCFED91FC910280C3
:10316000F381E02DC8010995AFCF695CC8CF605DE0
:10317000D3CFDC011896ED91FC91199780811C96B4
:103180009C911C97892359F421E23EE405C021500B
:1031900031092115310571F080818923C1F38081C6
:1031A0001E969C911E97892B80831696ED91FC911B
:1031B000179760830895FC01878581111DC02091B8
:1031C0007C1B30917D1B80917A1B90917B1B281773
:1031D000390789F0E0917E1BF0917F1BE20FF31F0E
:1031E00080812F5F3F4F2032310518F110927D1BF7
:1031F00010927C1B0895FFCF2091761B3091771B96
:103200008091741B9091751B2817390789F0E09104
:10321000781BF091791BE20FF31F80812F5F3F4FE6
:103220002032310558F01092771B1092761B0895CA
:10323000FFCF30937D1B20937C1B08953093771B29
:103240002093761B0895DC01ED91FC910280F381BF
:10325000E02D6CE00994FC018785882369F081E00A
:103260004091761B5091771B2091741B3091751BF8
:103270004217530769F0089581E040917C1B5091FB
:103280007D1B20917A1B30917B1B4217530799F7C6
:1032900080E00895EF92FF921F93CF93DF9300D0C9
:1032A000CDB7DEB77C01142F69837A830E94F216B2
:1032B000412F69817A81C70106960E94762080ECB1
:1032C00093E0F7019183808317871123E9F08091C0
:1032D000C90080688093C90080E290E00E94B71620
:1032E0009093791B8093781B1092771B1092761B1A
:1032F0001092751B1092741B0F900F90DF91CF915D
:103300001F91FF90EF9008958091C1008068809395
:10331000C10080E290E00E94B71690937F1B8093DB
:103320007E1B10927D1B10927C1B10927B1B1092B7
:103330007A1B0F900F90DF91CF911F91FF90EF902C
:1033400008951F920F920FB60F9211240BB60F9291
:103350002F933F938F939F93EF93FF932091C600FA
:10336000E0917E1BF0917F1B80917A1B90917B1BDB
:10337000E80FF91F208380917A1B90917B1B0196A7
:1033800080329105C0F490937B1B80937A1B20912F
:103390007C1B30917D1B28173907D1F0FF91EF91ED
:1033A0009F918F913F912F910F900BBE0F900FBE69
:1033B0000F901F90189510927B1B10927A1B80E043
:1033C00090E020917C1B30917D1B2817390731F745
:1033D000019690937D1B80937C1B8097F8F210924E
:1033E0007D1B10927C1BDACF1F920F920FB60F92AB
:1033F00011240BB60F922F933F938F939F93EF93CC
:10340000FF932091CE00E091781BF091791B809181
:10341000741B9091751BE80FF91F20838091741B1A
:103420009091751B019680329105C0F49093751BA5
:103430008093741B2091761B3091771B28173907D6
:10344000D1F0FF91EF919F918F913F912F910F902C
:103450000BBE0F900FBE0F901F9018951092751B0A
:103460001092741B80E090E02091761B3091771BC6
:103470002817390731F701969093771B8093761BB5
:103480008097F8F21092771B1092761BDACFFC012E
:103490000396928381834FEF5FEFBA014383548396
:1034A00065837683908787839287818710820895CA
:1034B000FC01138612860895CF93DF939C01FB01D4
:1034C000DC011196CD91DC911297D583C4838E8156
:1034D0009F81978386838E819F81DC0115967C93E3
:1034E0006E9314977F836E8333872287F9018081DF
:1034F0008F5F8083DF91CF9108950F931F93CF93B8
:10350000DF93EB01088119812A813B810F3F4FEF47
:1035100014072407340731F1DC01139601C0DF01E1
:103520001496ED91FC9115974081518162817381D0
:10353000041715072607370790F7FD83EC83D78319
:10354000C683BF83AE831596DC93CE9314979B8777
:103550008A87FC0120812F5F2083DF91CF911F910B
:103560000F910895FC01A185B2851496ED91FC910F
:103570001597E3CFCF93DF93FC01A285B385248118
:10358000358186819781E9019F838E83868197812A
:10359000EC013D832C8311962D913C9112972E17AF
:1035A0003F0741F0138612868C9181508C93DF91F6
:1035B000CF91089512969C938E931197138612863D
:1035C0008C9181508C93DF91CF9108959093811BC2
:1035D0008093801B31E1FC013083319722E220830C
:1035E000FC013297A3E3A083FC0133976083FC01C5
:1035F00034977083FC0135971082FC01369760E8A0
:103600006083FC0137971082FC01389762E0608389
:10361000FC01399763E06083FC013A9764E06083C2
:10362000FC013B9765E06083FC013C9766E06083AA
:10363000FC013D9767E06083FC013E9768E0608392
:10364000FC013F9769E06083FC01709760E1608353
:10365000FC0171973083FC01729732E13083FC01E9
:10366000739733E13083FC01749734E13083FC01BC
:10367000759735E13083FC01769736E13083FC01A4
:10368000779737E13083FC01789738E13083FC018C
:10369000799739E13083FC017A9730E23083FC017D
:1036A0007B9731E23083FC017C972083FC017D977E
:1036B00023E22083FC017E974083FC017F975083A7
:1036C000FC01B09726E22083FC01B19727E220831A
:1036D000FC01B29728E22083FC01B39729E2208302
:1036E000FC01B49720E32083FC01B59721E32083FC
:1036F0008697089587E0809329018FEC80932801B5
:103700008AE080932101E3E7F0E08081826080839A
:10371000A0910F1BB091101BCD91CDBFDD91DEBFED
:10372000FF91EF91DF91CF91BF91AF919F918F91D9
:103730007F916F915F914F913F912F911F910F91C9
:10374000FF90EF90DF90CF90BF90AF909F908F90C1
:103750007F906F905F904F903F902F901F900F90B1
:103760000FBE0F90089581E0089508950F920FB64F
:10377000F8940F921F9211242F923F924F925F92D2
:103780006F927F928F929F92AF92BF92CF92DF9271
:10379000EF92FF920F931F932F933F934F935F935B
:1037A0006F937F938F939F93AF93BF93CF93DF9349
:1037B000EF93FF93A0910F1BB091101B0DB60D92CC
:1037C0000EB60D920E94540FA0910F1BB091101BCA
:1037D000CD91CDBFDD91DEBFFF91EF91DF91CF9114
:1037E000BF91AF919F918F917F916F915F914F9119
:1037F0003F912F911F910F91FF90EF90DF90CF900D
:10380000BF90AF909F908F907F906F905F904F9000
:103810003F902F901F900F900FBE0F9008950F9222
:103820000FB6F8940F921F9211242F923F924F924D
:103830005F926F927F928F929F92AF92BF92CF9240
:10384000DF92EF92FF920F931F932F933F934F932B
:103850005F936F937F938F939F93AF93BF93CF9318
:10386000DF93EF93FF93A0910F1BB091101B0DB648
:103870000D920EB60D920E94410D81110E94540FBF
:10388000A0910F1BB091101BCD91CDBFDD91DEBF7C
:10389000FF91EF91DF91CF91BF91AF919F918F9168
:1038A0007F916F915F914F913F912F911F910F9158
:1038B000FF90EF90DF90CF90BF90AF909F908F9050
:1038C0007F906F905F904F903F902F901F900F9040
:1038D0000FBE0F9008950E940F1C18951F93CF9351
:1038E000DF93EC01142F88A181110DC0888199818B
:1038F000892B09F44DC080E09E8D9F5F9E8FDF91E4
:10390000CF911F910895482F50E011111CC08C8158
:103910009D810E942E2328A18C819D81820F911D63
:103920009D838C832A813B818217930720F38881B2
:1039300099819D838C8380E09E8D9F5F9E8FDF9118
:10394000CF911F9108958E819F810E942E2328A1DF
:1039500030E03195219531098E819F81820F931F2F
:103960009F838E83688179818617970730F48A81D7
:103970009B81820F931F9F838E83123009F0BBCFF0
:103980008E8D882309F4B7CF8E8D81508E8FB3CF63
:103990008A819B810E9470111B821A82ADCFFC012B
:1039A000CB0140A1442399F050E026813781240FB8
:1039B000351F37832683628173812617370720F0EE
:1039C0002081318137832683B9010C942E230895F9
:1039D0000F931F93CF93DF93EC010FB6F8940F92E0
:1039E0008AA11816ECF48B898823D1F08E010D5E24
:1039F0001F4F09C08AA181508AA38AA1181684F496
:103A00008B89882369F0C8010E94FC0F882391F3F9
:103A10000E94F0108AA181508AA38AA1181684F30B
:103A20008FEF8AA30F900FBE0FB6F8940F9289A163
:103A30001816ECF488858823D1F08E01085F1F4F9B
:103A400009C089A1815089A389A1181684F48885A9
:103A5000882369F0C8010E94FC0F882391F30E941B
:103A6000F01089A1815089A389A1181684F38FEFE2
:103A700089A30F900FBEDF91CF911F910F910895F1
:103A8000CF93DF93EC010FB6F8940F922881398120
:103A90008F8D78A1879FC0011124A901480F591F5C
:103AA0005B834A831E8E3D832C83871B9109820F83
:103AB000931F9F838E838FEF89A38AA3611112C006
:103AC0008885811106C00F900FBE81E0DF91CF91F4
:103AD0000895CE0108960E94FC0F8130A1F70E9444
:103AE000B61BF1CFCE0108960E94471ACE0143962D
:103AF0000E94471A0F900FBE81E0DF91CF91089589
:103B00000F931F93CF93DF93182F062F882301F174
:103B100083E290E00E94250AEC010097C9F0109F13
:103B2000C001112401960E94250A99838883892B5C
:103B300061F01F8F08A361E0CE010E94401DCE01FD
:103B4000DF91CF911F910F910895CE010E94BE0A7F
:103B5000C0E0D0E0CE01DF91CF911F910F91089589
:103B60006F927F928F929F92AF92BF92CF92DF928D
:103B7000EF92FF920F93CF93DF93CDB7DEB72997E4
:103B80000FB6F894DEBF0FBECDBF5C014B012E8394
:103B90003F834887598720E03C0188E0680E711C0C
:103BA0000FB6F8940F92F501968D878D981708F44B
:103BB00059C0023009F456C0CE80DF80E884F98411
:103BC000CD28CE28CF2809F46FC0222309F441C0A4
:103BD0000F900FBE0E94120D0FB6F8940F92F501D0
:103BE00081A18F3F09F43CC0F50182A18F3FB1F163
:103BF0000F900FBEBE016A5F7F4FCE0101960E94FB
:103C00008F10811155C00FB6F8940F92F501968D63
:103C10000F900FBEF501878D981314C04E815F8100
:103C200068857985C3010E94A10FC5010E94E81C27
:103C30000E94450E882311F021E0B2CF0E94B61BEE
:103C400021E0AECFC5010E94E81C0E94450E21E094
:103C5000A7CFCE0101960E947E10BACF12A2C8CF84
:103C600011A2C2CF402FB401C5010E946E1CF50104
:103C70009389911124C0811128C00F900FBE81E05B
:103C800029960FB6F894DEBF0FBECDBFDF91CF915E
:103C90000F91FF90EF90DF90CF90BF90AF909F90EB
:103CA0008F907F906F9008950F900FBE80E0E8CFC7
:103CB000C5010E94E81C0E94450E80E0E1CFC501CD
:103CC00043960E94FC0F8130C1F60E94B61BD5CFEF
:103CD0000F93CF93DF9383E290E00E94250AEC01DB
:103CE000009701F11B821A82198218821D821C82A0
:103CF0001F821E821E8E81E08F8F18A28FEF89A3F4
:103D00008AA3CE0108960E94471ACE0143960E94CC
:103D1000471A00E020E030E0A90160E070E0CE0149
:103D20000E94B01DCE01DF91CF910F9108950F93A6
:103D30001F93CF93DF93EC018A019E8D8F8D98178F
:103D400040F0223031F080E0DF91CF911F910F9150
:103D50000895422FCE010E946E1C882331F0011578
:103D6000110519F081E0F80180838AA18F3F49F0A5
:103D70008AA18F5F8AA381E0DF91CF911F910F917C
:103D800008958B898823B9F3CE0143960E94FC0FD6
:103D9000882389F30115110571F381E0F80180830F
:103DA000D3CFAF92BF92CF92DF92EF92FF920F9359
:103DB000CF93DF93CDB7DEB729970FB6F894DEBF68
:103DC0000FBECDBF7C016B012E833F83488759878F
:103DD00090E0570183E1A80EB11C0FB6F8940F9242
:103DE000F701868D811169C04E815F816885798573
:103DF000452B462B472B09F47DC0992309F43EC07F
:103E00000F900FBE0E94120D0FB6F8940F92F7019B
:103E100081A18F3F09F43EC0F70182A18F3F09F4D1
:103E20003FC00F900FBEBE016A5F7F4FCE0101966B
:103E30000E948F10811171C00FB6F8940F92F70194
:103E4000868D0F900FBE81111EC0F7018081918178
:103E5000892B41F14E815F8168857985C5010E947A
:103E6000A10FC7010E94E81C0E94450E882311F093
:103E700091E0B3CF0E94B61B91E0AFCFCE01019687
:103E80000E947E10BDCFC7010E94E81C0E94450E13
:103E900091E0A3CF11A2F70182A18F3F09F0C1CF1A
:103EA00012A2BFCF0FB6F8940F92F70182819381CF
:103EB0000E9415110F900FBECDCFA680B780B6011E
:103EC000C7010E94CF1CF70101112EC0868D8150C1
:103ED000868F80819181892BB9F1F70180858823B4
:103EE00041F1C70108960E94FC0F813011F50E9434
:103EF000B61B1FC00F900FBE80E029960FB6F89436
:103F0000DEBF0FBECDBFDF91CF910F91FF90EF903D
:103F1000DF90CF90BF90AF900895C7010E94E81C3A
:103F20000E94450E80E0E9CFB782A6828389811185
:103F300004C00F900FBE81E0E0CFC70143960E94FE
:103F4000FC0F8823B1F3D3CF0E94D711F7019383DD
:103F50008283C3CF0F931F93CF93DF9300D0CDB74E
:103F6000DEB78C01FC01868D811108C080E00F90C6
:103F70000F90DF91CF911F910F910895C801498350
:103F80005A830E94CF1CF801868D8150868F81A1B3
:103F900049815A818F3F61F0F80181A18F5F81A330
:103FA00081E00F900F90DF91CF911F910F910895B5
:103FB00080858823A9F3C801089649835A830E9403
:103FC000FC0F49815A81882359F34115510541F36A
:103FD00081E0FA018083CBCF0F931F93CF93DF93C0
:103FE000EC018E8D811106C080E0DF91CF911F9191
:103FF0000F9108950E811F81CE010E94CF1C1F8357
:104000000E8381E0DF91CF911F910F9108950FB63C
:10401000F8940F92FC01868D0F900FBE08950FB695
:10402000F8940F92FC01268D0F900FBEFC01878D36
:10403000821B0895FC01868D0895CF93DF93EC01D8
:1040400088819981009711F00E94BE0ACE01DF910C
:10405000CF910C94BE0AFC01968D81E0911180E015
:104060000895FC01268D81E0978D291380E0089545
:10407000CF92DF92EF92FF92CF93DF93EC016881B2
:1040800079818A819B8128EEC22E23E0D22EE12CF9
:10409000F12CA70196010E94E2219B01AC0160E492
:1040A00072E48FE090E00E94BE21A70196010E9479
:1040B000E22169017A01AC81BD8120E432E44FE064
:1040C00050E00E94B32120E834E84EE150E00E9425
:1040D000E221C20ED31EE41EF51EC701B601DF9118
:1040E000CF91FF90EF90DF90CF900895CF93DF9323
:1040F000EC01442309F441C08EEC90E0998388835D
:1041000088EC90E09B838A8389EC90E09D838C838C
:1041100088E18093C90086E08093CA001092CD00A8
:104120009B0140E050E0220F331F441F551F220F18
:10413000331F441F551F220F331F441F551F220FCB
:10414000331F441F551F60E074E284EF90E00E942B
:10415000E2212093CC008091C80081608093C80048
:1041600080E28E8380E88F8380E48887E881F9810C
:1041700080818081DF91CF91089586EC90E09983D2
:10418000888380EC90E09B838A8381EC90E09D8320
:104190008C8388E18093C10086E08093C2001092F6
:1041A000C5009B0140E050E0220F331F441F551F04
:1041B000220F331F441F551F220F331F441F551F4B
:1041C000220F331F441F551F60E074E284EF90E01C
:1041D0000E94E2212093C4008091C00081608093FE
:1041E000C000BECFDC011296ED91FC9113972081A7
:1041F00016968C91282381E009F480E00895DC0173
:104200001296ED91FC911397208118968C9128239A
:1042100081E009F080E00895CF92DF92EF92FF9263
:104220000F931F93CF93DF9314BE88E10FB6F894DA
:1042300080936000109260000FBE80E190E00E94C9
:10424000B016EC0141E060E875E20E944A1967E0AF
:10425000CE010E9442176BE00E9442176C0164EE8F
:1042600070E00E94FD1666E0C6010E94421788E1D8
:1042700090E00E94B0166C011AE0E12EF12C00E0F3
:1042800010E09E0148E052E060E270E0C6010E944A
:104290007215D092CD03C092CC0382E190E00E94CF
:1042A000B0168E0124E031E041E06EE072E00E9441
:1042B000470282E190E00E94B01628E131E042E03E
:1042C00066E172E00E9437060E94D50C80E090E023
:1042D000DF91CF911F910F91FF90EF90DF90CF90E2
:1042E00008950E9415130F93CF93DF931F92CDB7BC
:1042F000DEB76983FC01208931894289538900E056
:10430000BE016F5F7F4F868597850E94B01D0F901D
:10431000DF91CF910F910895FC01868597850E94CA
:10432000072091E0811101C090E0892F08950F933B
:10433000CF93DF931F92CDB7DEB700E02FEF3FEFB3
:10434000A901BE016F5F7F4FFC01868597850E94A2
:10435000D11E813031F489810F90DF91CF910F917F
:1043600008958FEFF9CF0E942922A59F900DB49F49
:10437000900DA49F800D911D11240895DB018F9352
:104380009F930E94B321BF91AF91A29F800D911D79
:10439000A39F900DB29F900D11240895AA1BBB1BE3
:1043A00051E107C0AA1FBB1FA617B70710F0A61B35
:1043B000B70B881F991F5A95A9F780959095BC0156
:1043C000CD010895A1E21A2EAA1BBB1BFD010DC051
:1043D000AA1FBB1FEE1FFF1FA217B307E407F507B5
:1043E00020F0A21BB30BE40BF50B661F771F881F91
:1043F000991F1A9469F760957095809590959B0127
:10440000AC01BD01CF010895052E97FB1EF4009469
:104410000E941B2257FD07D00E94E22107FC03D017
:104420004EF40C941B2250954095309521953F4FAA
:104430004F4F5F4F089590958095709561957F4F90
:104440008F4F9F4F0895EE0FFF1F0590F491E02DC1
:104450000994A29FB001B39FC001A39F700D811D5D
:104460001124911DB29F700D811D1124911D08957D
:104470000CD0BAC0B2D040F0A9D030F021F45F3FE8
:1044800019F09BC05111E4C09EC0BFD098F399238E
:10449000C9F35523B1F3951B550BBB27AA27621708
:1044A0007307840738F09F5F5F4F220F331F441F4D
:1044B000AA1FA9F333D00E2E3AF0E0E830D0915085
:1044C0005040E695001CCAF729D0FE2F27D0660F72
:1044D000771F881FBB1F261737074807AB07B0E8B1
:1044E00009F0BB0B802DBF01FF2793585F4F2AF0C7
:1044F0009E3F510568F061C0ABC05F3FECF3983E52
:10450000DCF3869577956795B795F7959F5FC9F723
:10451000880F911D9695879597F90895E1E0660FAC
:10452000771F881FBB1F621773078407BA0720F025
:10453000621B730B840BBA0BEE1F88F7E09508958E
:10454000E89409C097FB3EF490958095709561952D
:104550007F4F8F4F9F4F9923A9F0F92F96E9BB27E3
:104560009395F695879577956795B795F111F8CF5F
:10457000FAF4BB0F11F460FF1BC06F5F7F4F8F4FCA
:104580009F4F16C0882311F096E911C0772321F0C0
:104590009EE8872F762F05C0662371F096E8862F58
:1045A00070E060E02AF09A95660F771F881FDAF7AF
:1045B000880F9695879597F9089597F99F6780E8F2
:1045C00070E060E008959FEF80EC089500240A9465
:1045D0001616170618060906089500240A941216DE
:1045E0001306140605060895092E0394000C11F411
:1045F000882352F0BB0F40F4BF2B11F460FF04C0BE
:104600006F5F7F4F8F4F9F4F089557FD9058440F16
:10461000551F59F05F3F71F04795880F97FB991F21
:1046200061F09F3F79F087950895121613061406DE
:10463000551FF2CF4695F1DF08C01616170618066B
:10464000991FF1CF86957105610508940895E89446
:10465000BB2766277727CB0197F90895FB01DC017B
:1046600002C001900D9241505040D8F70895DC01EE
:1046700001C06D9341505040E0F70895FB01DC010B
:104680004150504048F001900D920020C9F701C000
:104690001D9241505040E0F70895FB019F01E894BE
:1046A0004230C4F04532B4F44A3029F497FB1EF48A
:1046B000909581959F4F642F77270E94CE21805D32
:1046C0008A330CF0895D8193CB010097A1F716F432
:1046D0005DE251931082C9010C94A923FA01CF9392
:1046E000FF93EF932230CCF02532BCF4C22F2C2F55
:1046F000332744275527FF93EF930E94E221EF9140
:10470000FF91605D6A330CF0695D6193B901CA0184
:10471000605070408040904051F710828F919F917F
:10472000CF910C94A923FB019F01423074F04532D4
:1047300064F4642F77270E94CE21805D8A330CF0C9
:10474000895D8193CB010097A1F71082C9010C9478
:10475000A923DC01FC01672F71917723E1F73297E0
:1047600004C07C916D9370836291AE17BF07C8F34C
:064770000895F894FFCF4C
:104776003717FFFFFFFF0A035072696E7400557307
:104786006572496E7400427269676874002F000D85
:1047960000000000006303AE13000000002305AE16
:1047A60013616463207375636365737366756C6CFC
:1047B6007920636F6E73747275637465642E20005E
:1047C60041444D55583A20004144435352413A2002
:1047D600004D6F746F722044726976657220436F64
:1047E6006E73747275636564205375636365737362
:1047F60066756C6C79005072696E74696E672041DB
:1048060064647265737365732E2E2E2000696E7054
:1048160075745F504F52545F414444524553533A66
:104826002000696E7075745F4444525F414444527F
:104836004553533A200070776D5F504F52545F4195
:104846004444524553533A200070776D5F444452B6
:104856005F414444524553533A20005072696E7486
:10486600696E672042696E6172792056616C756562
:10487600732E2E2E2000696E7075745F504F525441
:104886003A2000696E7075745F4444523A20007095
:10489600776D5F504F52543A200070776D5F4444F5
:1048A600523A2000454E44205052494E54494E47F4
:1048B600204D4F544F5220434F4E5354525543545C
:1048C6004F522E00464F525741524453212040200A
:1048D600004241434B574152445321204020004F50
:1048E60043525F504F52543A200049444C45000011
:1048F600000000CC1600000000CC16AE13747874CD
:104906005F71090000000000E31673218C219721D6
:10491600E916EA16F914FAFF0000B41500000000C3
:10492600E316CC16E716E516E916EA1600000000AF
:0C493600E316B9182B19DB18E916231939
:00000001FF
