:100000000C94AE020C94CD020C94CD020C94CD0253
:100010000C94CD020C94CD020C94CD020C94CD0224
:100020000C94CD020C94CD020C94CD020C94CD0214
:100030000C94CD020C94CD020C94CD020C94CD0204
:100040000C94CD020C94CD020C94CD020C94CD02F4
:100050000C94CD020C94CD020C94CD020C94CD02E4
:100060000C94CD020C9477190C94CD020C94CD0213
:100070000C94CD020C94CD020C94CD020C94CD02C4
:100080000C94CD020C94CD020C94CD020C94CD02B4
:100090000C94CA190C94CD020C94CD020C94CD0290
:1000A0000C94CD020C94CD020C94CD020C94CD0294
:1000B0000C94CD020C94CD020C94CD020C94411CF6
:1000C0000C94CD020C94CD020C94CD0254175D1704
:1000D0006017631756175617661776177D1784171C
:1000E00088175A174D4534303520436F6D6D756E46
:1000F00069636174696F6E2000496C6C6567616C3F
:100100002073746174652120526573657474696E1F
:10011000672041565200223A205754463F00504F24
:100120005254453A2000504F5254443A2000504F08
:100130005254433A2000504F5254423A2000504FFC
:100140005254413A20001B5B34376D004D4534302A
:10015000352054657374696E6720506C61746672E3
:100160006F6D2076362E30004D617920333120328C
:100170003031360053797374656D2074696D653A5A
:1001800020002C20486561703A20002C204F4352FB
:1001900035413A20003C696E76616C696420636881
:1001A0006172202200223E002020683A2020202078
:1001B0002048414C502100202043746C2D433A20AC
:1001C0005265736574207468652041565200202082
:1001D0006E3A2020202020456E7465722061206ECA
:1001E000756D626572202864656D6F29002020643A
:1001F0003A2020202020537461636B2064756D7059
:1002000020666F72207461736B73002020733A2034
:100210002020202056657273696F6E20616E642005
:10022000736574757020696E666F726D6174696F45
:100230006E002020743A202020202053686F772001
:100240007468652074696D65207269676874206ED2
:100250006F77004D453430352054657374696E678F
:1002600020506C617466726F6D2076362E300020DF
:1002700068656C70001B5B34376D001B5B33316D40
:10028000004D453430352054657374696E672050D5
:100290006C617466726F6D2076362E300009090924
:1002A00020202020004D617920333120323031363A
:1002B000001B5B33306D007C0909202020204D6934
:1002C0007373696F6E20436F6E74726F6C2050721F
:1002D0006F6772616D2076312E3020202020090951
:1002E0007C007C2D2D2D2D2D2D2D2D2D2D2D2D2DCD
:1002F0002D2D2D2D2D2D2D2D2D2D2D2D2D2D2D2D2E
:100300002D2D2D2D2D2D2D2D2D2D2D2D2D2D2D2D1D
:100310002D2D2D2D2D2D2D2D2D2D2D2D2D2D2D2D0D
:100320002D2D7C007C090920202020202020202049
:10033000456E746572204D6F746F7220436F6E74DA
:10034000726F6C204D6F64756C6520202009097CEC
:10035000001B5B34376D007C090920202020202001
:10036000202020456E74657220456E636F6465724F
:1003700020436F6E74726F6C204D6F64756C6520D6
:1003800009097C007C090920202020202020202031
:10039000456E74657220494D5520436F6E74726FBF
:1003A0006C204D6F64756C65202020202009097C2D
:1003B000007C0909202020202020202020456E7468
:1003C0006572204472697665204D6F646520202037
:1003D0002020202020202020202009097C007C09CA
:1003E00009202020202020202020446973706C6187
:1003F0007920616C6C206F7074696F6E732020209F
:100400002020202020202009097C007C09092020B0
:1004100020202020202020526573657420415652F0
:1004200020202020202020202020202020202020CC
:100430002020202009097C0053504920434F4E546E
:10044000524F4C0053504920434F4E54524F4C0092
:100450004E6F207368617265642064617461206905
:1004600074656D7320746F207072696E74002D2D29
:100470002D2D2020202020202020202020202D2D48
:100480002D2D202020202D2D2D2D2D2D2D2D2D2DD0
:100490000053686172652F517565756520202020B5
:1004A000205479706520202020467265652F546F96
:1004B00074616C004552524F5220637265617469D9
:1004C0006E67207461736B2022005461736B20226D
:1004D000002220637265617465642C20737461630B
:1004E0006B2061742030780049444C45090930097B
:1004F0002D09002F0009092D002D2D2D2D09092D65
:100500002D2D2D092D2D2D2D2D00092D2D2D2D2D90
:100510002D2D2D2D2D00092D2D2D2D004E616D65BC
:1005200009095072692E0953746174650009467295
:1005300065652F546F74616C000952756E730054B9
:1005400061736B0909202009200009537461636BF2
:1005500000090009002F00090009000011241FBE36
:10056000CFEFD1E2DEBFCDBF13E0A0E0B2E0EAEC16
:10057000F6E400E00BBF02C007900D92A436B1076D
:10058000D9F71BE1A4E6B3E001C01D92AA33B1077D
:10059000E1F70E94E2200C9463230C9400000F9377
:1005A0001F93CF93DF93EC0189A18111AFC06BE062
:1005B0008E819F810E9447178C0165E772E00E943F
:1005C00002176BE0C8010E9447178C016BE772E0CD
:1005D0000E94021766E0C8010E9447176BE00E9464
:1005E00047178C0161E872E00E94021766E0C801BB
:1005F0000E94471766E00E9447176BE00E9447176A
:100600008C016DE972E00E9402176BE0C8010E9444
:1006100047178C0165EA72E00E94021766E0C80184
:100620000E9447176BE00E9447178C0161EB72E054
:100630000E9402176BE0C8010E9447178C0167EB0C
:1006400072E00E94021766E0C8010E9447176BE043
:100650000E9447178C0162EE72E00E94021766E06A
:10066000C8010E9447176BE00E9447178C0164E2A3
:1006700073E00E9402176BE0C8010E9447178C01CB
:1006800061E573E00E94021766E0C8010E94471707
:100690006BE00E9447178C0167E573E00E94021728
:1006A00066E0C8010E9447176BE00E9447178C0163
:1006B00064E873E00E94021766E0C8010E944717D1
:1006C0006BE00E9447178C0161EB73E00E940217F8
:1006D00066E0C8010E9447176BE00E9447178C0133
:1006E0006EED73E00E94021766E0C8010E94471792
:1006F0006BE00E9447178C016BE074E00E940217C8
:1007000066E0C8010E94471781E089A3DF91CF917D
:100710001F910F9108950F931F93CF93DF93EC01D7
:1007200066E08E819F810E9447176BE00E94471709
:100730008C0163E572E00E9402176BE0C8010E9421
:1007400047178C016FE672E00E94021766E0C8014D
:100750000E9447176BE08E819F810E9447178C0192
:1007600062E372E00E94021766E0C8010E94471728
:100770006BE08E819F810E9447178C016BE072E0D5
:100780000E94021766E0C8010E9447176BE08E8145
:100790009F810E9447178C016DEE71E00E94021745
:1007A00066E0C8010E9447176BE08E819F810E941E
:1007B00047178C016EEC71E00E94021766E0C801D9
:1007C0000E9447176BE08E819F810E9447178C0122
:1007D00067EB71E00E94021766E0C8010E944717AC
:1007E0006BE08E819F810E944717EC0168EA71E0FF
:1007F0000E94021766E0CE01DF91CF911F910F9109
:100800000C944717CF93DF93EC018E819F81DC011D
:10081000ED91FC910480F581E02D0995811104C0D2
:1008200080E0DF91CF9108958E819F81DC01ED9171
:10083000FC910680F781E02D09958A8B81E0DF919C
:10084000CF910895CF93DF93CDB7DEB7A1970FB6C1
:10085000F894DEBF0FBECDBF8C01DC0154961C9214
:100860001E925397FE0131967F01CE0105963C0101
:10087000D8011C968C91882309F490C0813009F02E
:100880000FC184E090E00E94CB166C01F8016681F4
:1008900077810E941E07D80116966D917C9117975B
:1008A000A601C6010E94A908C6010E94A50766E02C
:1008B000F801868197810E94471766E00E944717DA
:1008C00066E00E944717D80116966D917C911797A4
:1008D000A601C6010E94A908599A67E0C6010E94B4
:1008E00037078034D1F7F801A680B78066E172E05F
:1008F000C5010E94021766E0C5010E944717A701C3
:1009000064E0C6010E942E08D8011696CD90DC90B6
:10091000179763E272E0C6010E94021766E0C60103
:100920000E9447176701BC2CBE18F60191906F0119
:1009300063E0D80116968D919C9117970E944717F6
:100940006B2D0E940E185C0167E672E00E94021790
:10095000692DC5010E940E1866E00E944717C61453
:10096000D70409F75998D8011E964D915D916D9164
:100970007C9151974F5F5F4F6F4F7F4FF8014687D4
:100980005787608B718B61E070E080E090E00E949F
:100990001D10D8011C968C91811170CFC8010E9446
:1009A000CF02C8010E9402048823E9F2F8012289DB
:1009B000233609F490C0203709F092C0B0B06BE044
:1009C000868197810E9447176C016EE371E00E9457
:1009D000021760E0C6010E9447176B2D0E940E1897
:1009E00066E00E944717B3B06BE0D80116968D9170
:1009F0009C9117970E9447176C0166E371E00E9473
:100A0000021760E0C6010E9447176B2D0E940E1866
:100A100066E00E944717B6B06BE0F80186819781C7
:100A20000E9447176C016EE271E00E94021760E0BD
:100A3000C6010E9447176B2D0E940E1866E00E94A7
:100A40004717B9B06BE0D80116968D919C91179716
:100A50000E9447176C0166E271E00E94021760E095
:100A6000C6010E9447176B2D0E940E1866E00E9477
:100A70004717BCB06BE0F801868197810E94471749
:100A80006C016EE171E00E94021760E0C6010E94F5
:100A900047176B2D0E940E1866E00E94471763CF20
:100AA0006BE0F801868197810E9447178C0169EFFE
:100AB00070E00E94021766E0C8010E9447172BE011
:100AC00088E190E00FB6F894A895809360000FBE7F
:100AD00020936000FFCF61E0C8010E94221443CF41
:100AE000C680D780D601ED91FC910280F381E02D84
:100AF00062E2C60129A30995D601ED91FC9102801D
:100B0000F381E02D29A1622FC60109956BE0C60192
:100B10000E9447176C0166E171E00E94021766E0CF
:100B2000C6010E9447171FCFCF92DF92FF920F930B
:100B30001F93CF93DF931F92CDB7DEB76C01DC011B
:100B400054961C921E925397F12CF6018681978140
:100B5000DC01ED91FC910480F581E02D099588235D
:100B600009F440C0F60186819781DC01ED91FC918A
:100B70000680F781E02D0995282FF601828B80ED04
:100B8000820F8A3008F458C02D3209F478C021371A
:100B900009F498C02A3009F47FC02D3009F484C0CC
:100BA0002B3109F481C06BE0F6018681978129839E
:100BB0000E9447178C0165E971E00E940217D80175
:100BC000ED91FC910280F381E02D2981622FC80113
:100BD00009956BE0C8010E94471765EA71E00E9421
:100BE0000217B3CF8091640390916503DC01ED910E
:100BF000FC910480F581E02D0995882309F4A5CFA7
:100C0000D6011696ED91FC9117970190F081E02D99
:100C1000028113818091640390916503DC01ED9161
:100C2000FC910680F781E02D0995682FF6018681F9
:100C30009781F801099589CF86819781DC01ED9133
:100C4000FC910280F381E02D622F0995F601238942
:100C50003489C901880F991F220F331F220F331FB8
:100C6000220F331F820F931F2289332727FD3095D0
:100C700020533109820F931F948B838B66CF86811B
:100C80009781DC01ED91FC910280F381E02D6DE212
:100C90000995FF24F39459CF6DE272E0F601868145
:100CA00097810E94021751CFFF2061F0D601539621
:100CB0008D919C91549791958195910954969C930F
:100CC0008E9353970F90DF91CF911F910F91FF90CB
:100CD000DF90CF9008958F929F92AF92BF92CF9264
:100CE000DF92EF92FF920F931F93CF93DF9300D089
:100CF00000D000D0CDB7DEB78C0119821A821B82DA
:100D00001C821E821D82C0902801D09029010E9461
:100D1000E70B5C01CE0101960E94B3164C0166E020
:100D2000F801868197810E9447176BE00E94471760
:100D30007C016CE471E00E9402176BE0C7010E9425
:100D400047177C0168E671E00E94021766E0C70160
:100D50000E9447176BE00E9447177C0164E771E02F
:100D60000E940217B401C7010E9452166BE00E9454
:100D700047177C0162E871E00E940217B501C701C4
:100D80000E948C177C016FE272E00E94021748E318
:100D900057E160E070E0C7010E94C6176BE00E9457
:100DA00047177C016BE871E00E940217B601C7018A
:100DB0000E948C1766E00E94471766E00E94471762
:100DC000F801868197810E94041566E0F80186810A
:100DD00097810E944717F801868197810E94271307
:100DE00026960FB6F894DEBF0FBECDBFDF91CF9130
:100DF0001F910F91FF90EF90DF90CF90BF90AF9039
:100E00009F908F900895FC0111A208950F931F9356
:100E1000CF93DF93EC010E946C1385E392E09983FA
:100E200088836BE08E819F810E94471766E471E0A2
:100E3000DF91CF911F910F910C9402170F931F9385
:100E4000CF93DF93EC017983688382E090E00E9486
:100E5000CB168C01688179810E94DF0A1B830A838B
:100E6000C801DF91CF911F910F910C94F50ACF9398
:100E7000DF93EC0128988A819B810E94040B6FEF1D
:100E80008A819B810E94040B289ADF91CF9108955B
:100E90008F929F92AF92BF92CF92DF92EF92FF928A
:100EA0000F931F93CF93DF9300D0CDB7DEB76C01C4
:100EB000B62EA42E81E0681709F444C028986A2D44
:100EC000F6018281938129833A830E94040B298150
:100ED0003A81002329F186E6E82E83E0F82E4901C5
:100EE00010E011C06FEFF601828193810E94040B24
:100EF000F70180831F5FFFEFEF1AFF0A8FEF881A59
:100F0000980A101769F0B11003C0F0EAAF12EACFE7
:100F1000F4016081F601828193810E94040BEACF83
:100F2000289A86E693E00F900F90DF91CF911F9162
:100F30000F91FF90EF90DF90CF90BF90AF909F9078
:100F40008F900895E0E2AE0EB9CFEF92FF920F932B
:100F50001F93CF93DF93CDB7DEB7A0970FB6F8946A
:100F6000DEBF0FBECDBF7C018FE3898301E09E0110
:100F70002F5F3F4F41E061E0C7010E94480713E047
:100F800019839E012F5F3F4F42E061E0C7010E943D
:100F9000480719839E012F5F3F4F43E061E0C7017F
:100FA0000E94480786E789839E012F5F3F4F45E0F7
:100FB00061E0C7010E94480787E089839E012F5F97
:100FC0003F4F46E061E0C7010E94480710EF1983D8
:100FD0001A831B831C831D8305E09E012F5F3F4FF7
:100FE0004AE061E0C7010E94480719831A831B8306
:100FF0001C831D839E012F5F3F4F40E161E0C701CD
:101000000E94480784E0898301E09E012F5F3F4FE3
:1010100041E161E0C7010E9448078FE289839E0198
:101020002F5F3F4F44E061E0C7010E9448078FE710
:1010300089839E012F5F3F4F40E061E0C7010E941E
:101040004807A0960FB6F894DEBF0FBECDBFDF9164
:10105000CF911F910F91FF90EF9008958F929F92E3
:10106000BF92CF92DF92EF92FF920F931F93CF9395
:10107000DF9300D0CDB7DEB78C01B62E289861E69D
:10108000DC0112968D919C91139749835A830E949B
:10109000040BF82EF801C080D18069E372E0C6012C
:1010A0000E94021763E0C6010E9447176C01DC0131
:1010B000ED91FC910280F381E02D6F2D099566E0A2
:1010C000C6010E94471749815A81BB2009F17A0164
:1010D000D12C6FEFF801828193810E94040BC82EFE
:1010E000D7018D937D016D2DF801808191810E9442
:1010F0000E184C0165E472E00E9402176C2DC401C9
:101100000E940E1866E00E944717D394DB10E1CFCF
:10111000289A0F900F90DF91CF911F910F91FF9020
:10112000EF90DF90CF90BF909F908F900895CF93D6
:10113000DF93EC01289867E28A819B810E94040B6F
:101140006EE08A819B810E94040B289ADF91CF91E7
:1011500008958F929F92AF92BF92CF92DF92EF92BB
:10116000FF920F931F93CF93DF93EB017A0101E07E
:1011700020E030E047E060E0C7010E9448076C01D2
:10118000FC0110816AE472E0CE010E94021763E064
:10119000CE010E944717612F0E940E1866E00E9440
:1011A0004717960140E060E0C7010E9448076C01C4
:1011B000FC01108165E572E0CE010E94021763E038
:1011C000CE010E944717612F0E940E1866E00E9410
:1011D0004717960141E060E0C7010E9448076C0193
:1011E000FC01108160E672E0CE010E94021763E00C
:1011F000CE010E944717612F0E940E1866E00E94E0
:101200004717960142E060E0C7010E9448076C0161
:10121000FC0110816AE672E0CE010E94021763E0D1
:10122000CE010E944717612F0E940E1866E00E94AF
:101230004717960143E060E0C7010E9448076C0130
:10124000FC01108167E772E0CE010E94021763E0A3
:10125000CE010E944717612F0E940E1866E00E947F
:101260004717960144E060E0C7010E9448076C01FF
:10127000FC01108163E872E0CE010E94021763E076
:10128000CE010E944717612F0E940E1866E00E944F
:101290004717960145E060E0C7010E9448076C01CE
:1012A000FC01108161E972E0CE010E94021763E047
:1012B000CE010E944717612F0E940E1866E00E941F
:1012C0004717960146E060E0C7010E9448076C019D
:1012D000FC0110816BE972E0CE010E94021763E00D
:1012E000CE010E944717612F0E940E1866E00E94EF
:1012F0004717960149E060E0C7010E9448076C016A
:10130000FC01108167EA72E0CE010E94021763E0DF
:10131000CE010E944717612F0E940E1866E00E94BE
:10132000471705E096014AE060E0C7010E944807C0
:101330006C01FC01B480A38092808180108169EBF4
:1013400072E0CE010E94021763E0CE010E944717AF
:10135000612F0E940E188C0161E272E00E94021758
:10136000682DC8010E940E188C0161E272E00E9493
:101370000217692DC8010E940E188C0161E272E00B
:101380000E9402176A2DC8010E940E188C0161E2AA
:1013900072E00E9402176B2DC8010E940E188C018A
:1013A00061E272E00E94021766E0C8010E944717DE
:1013B00005E096014BE060E0C7010E9448076C0120
:1013C000FC01B480A38092808180108167EC72E080
:1013D000CE010E94021763E0CE010E944717612FE1
:1013E0000E940E188C0161E272E00E940217682DC3
:1013F000C8010E940E188C0161E272E00E9402177F
:10140000692DC8010E940E188C0161E272E00E94F1
:1014100002176A2DC8010E940E188C0161E272E069
:101420000E9402176B2DC8010E940E188C0161E208
:1014300072E00E94021766E0C8010E94471705E0AB
:10144000960140E160E0C7010E9448076C01FC0181
:10145000B480A38092808180108165ED72E0CE011E
:101460000E94021763E0CE010E944717612F0E947D
:101470000E188C0161E272E00E940217682DC8010B
:101480000E940E188C0161E272E00E940217692D21
:10149000C8010E940E188C0161E272E00E940217DE
:1014A0006A2DC8010E940E188C0161E272E00E9450
:1014B00002176B2DC8010E940E188C0161E272E0C8
:1014C0000E94021766E0C8010E94471706E09601D5
:1014D00041E160E0C7010E9448076C01FC01B48053
:1014E000A38092808180108161EE72E0CE010E9423
:1014F000021763E0CE010E944717612F0E940E1869
:101500008C0161E272E00E940217682DC8010E94FE
:101510000E188C0161E272E00E940217692DC80169
:101520000E940E188C0161E272E00E9402176A2D7F
:10153000C8010E940E188C0161E272E00E9402173D
:101540006B2DC8010E940E188C0161E272E00E94AE
:10155000021766E0C8010E94471705E0960147E1BF
:1015600060E0C7010E944807FC0110816FEE72E045
:10157000CE010E94021763E0CE010E944717612F3F
:101580000E940E1866E0DF91CF911F910F91FF909E
:10159000EF90DF90CF90BF90AF909F908F900C9482
:1015A0004717CF93DF93EC016BE00E94471768E386
:1015B00074E00E940217CE01DF91CF910895CF937E
:1015C000DF93EB01FC0171836083209759F06EEF8C
:1015D00072E0CE010E94021766E0CE01DF91CF914A
:1015E0000C944717DF91CF910895E4E6F0E08081F5
:1015F0008B7F808384B1876084B9219A289A599817
:101600008CB581658CBD08956EBD0DB407FEFDCF10
:101610008EB50895239A8CB580648CBD08950DB461
:1016200007FEFDCF8EE490E00895CF93DF93EC01A9
:101630006BE00E94471764E474E00E940217CE0139
:10164000DF91CF9108950F931F93CF93DF93EC0118
:101650000E94100E80918603811121C080E993E0E1
:1016600090938C0380938B0310928E0310928D03C2
:1016700087E397E190938A0380938903109288030C
:1016800010928703909393038093920387E893E0EB
:10169000909391038093900381E080938603209739
:1016A00009F460C0AE014C5F5F4F2396C633D7414B
:1016B00008F058C0E0918B03F0918C03ABE8B3E0E5
:1016C00006C080819181009739F0DF01FC01228101
:1016D000338124173507A8F3C3E0E738FC0709F482
:1016E00041C00D911C9111970C5F1F4F808191811A
:1016F0008D939C93C901841B950B8930910500F152
:10170000BF01640F751FDB0113969C938E93129794
:101710005383428312968D919C911397ABE8B3E06B
:1017200001C0DF01ED91FC911197228133812817CF
:101730003907B8F3EB01F983E8836D937C939A0141
:101740008091000290910102821B930B9093010201
:10175000809300020E94430FC801DF91CF911F9137
:101760000F91089500E010E00E94430FC801DF913F
:10177000CF911F910F910895CF93DF93009721F19F
:10178000EC0124970E94100E4A815B81ABE8B3E024
:1017900001C0DF01ED91FC91119722813381241763
:1017A0003507B8F3F983E883CD93DC938091000289
:1017B00090910102840F951F909301028093000283
:1017C000DF91CF910C94430FDF91CF9108958091D9
:1017D000000290910102089508958091FC1A8230D0
:1017E00018F00E948C1BF9CFFFCFCF92DF92EF92BF
:1017F000FF926B017C01E091C71AF091C81A6283D5
:101800007383848395838091D01A9091D11AA0918B
:10181000D21AB091D31A6091C71A7091C81AC8161B
:10182000D906EA06FB0610F18091E41A9091E51AB8
:101830006E5F7F4F0E94531A8091020290910302C3
:10184000A0910402B0910502C816D906EA06FB066B
:1018500040F4C0920202D0920302E0920402F0929D
:101860000502FF90EF90DF90CF9008958091E21AEB
:101870009091E31A6E5F7F4FFF90EF90DF90CF90D3
:101880000C94531A5F926F927F928F929F92AF92B5
:10189000BF92CF92DF92EF92FF920F931F93CF935D
:1018A000DF934C01162F572E5A01390189E290E03F
:1018B0000E94230BEC01009709F4E9C0C114D10484
:1018C00009F4DAC0DC8ECB8EC601A50165EA70E0B2
:1018D0000E94EE2221E0A21AB108CB8CDC8CCA0C4B
:1018E000DB1CAE01435E5F4FE12FF52D2AE0CF01F7
:1018F0003191DA013D93AD01DC018C91882311F027
:101900002150A9F71EA2102F043008F07DC01A8FB5
:101910001FA318A65E01B2E0AB0EB11CC5010E9468
:101920002E1ACE010E960E942E1ADB87CA8784E0FB
:1019300090E0A0E0B0E0811B9109A109B1098E8778
:101940009F87A88BB98BDF8BCE8BA301B401C60117
:101950000E94BC1A99838883E114F10419F0F701FD
:10196000D183C0830FB6F8940F928091D41A8F5F01
:101970008093D41A8091C71A9091C81A892B09F4C0
:1019800049C08091CE1A81110BC0E091C71AF09125
:10199000C81A828D081720F0D093C81AC093C71AAE
:1019A0008091CA1A8F5F8093CA1A8A8D9091CF1A3C
:1019B000981738F1FBE08F9FC0011124B5018450C6
:1019C000954E0E94321A0F900FBE8091CE1A882336
:1019D00039F0E091C71AF091C81A828D8017B0F0E3
:1019E00081E0DF91CF911F910F91FF90EF90DF90F9
:1019F000CF90BF90AF909F908F907F906F905F90AF
:101A000008958093CF1AD6CF13E081CF0E948C1B0C
:101A100081E0E7CFD093C81AC093C71A8091D41A37
:101A2000813009F0BDCF8CEF9AE10E941D1A87E04A
:101A30009BE10E941D1A82E19BE10E941D1A8DE12B
:101A40009BE10E941D1A81EF9AE10E941D1A86EE09
:101A50009AE10E941D1A87ED9AE10E941D1A81EFFA
:101A60009AE19093E51A8093E41A86EE9AE19093B6
:101A7000E31A8093E21A94CFC5010E94230B9C8F36
:101A80008B8F009709F021CFCE010E94BC0B8FEF06
:101A9000A8CF0FB6F8940F92009729F00F900FBEC1
:101AA000FC01828D08958091C71A9091C81A0F90F9
:101AB0000FBEFC01828D0895EF92FF921F93CF938A
:101AC000DF93EC01262F643008F023E00FB6F89482
:101AD0000F92209709F44AC03FA13217A9F18091D3
:101AE000C71A9091C81A3217B8F5C817D90741F02C
:101AF000E091C71AF091C81A11E0828D281708F4F6
:101B000010E08A8D381769F12FA34E855F856889AB
:101B1000798977FD0CC044E050E060E070E0421B42
:101B20005109610971094E875F87688B798B2BE0BA
:101B3000829FC00111248450954E2C853D85281725
:101B40003907C9F0113079F00F900FBEDF91CF91B6
:101B50001F91FF90EF90089511E0C817D90781F603
:101B6000D0CF2A8FD1CF0E948C1BEECFC091C71A45
:101B7000D091C81AB1CF7E0182E0E80EF11CC701F6
:101B80000E94901A8A8D9091CF1A981710F4809322
:101B9000CF1A2BE0829FC0011124B7018450954ECB
:101BA0000E94321ACFCFAF92BF92CF92DF92EF92C4
:101BB000FF920F93A12CB12CC12CD12C85EDE82ED6
:101BC0008AE1F82E00E020E030E044E650E062E1F7
:101BD00073E08DEE9BE00E94420C813041F00F914A
:101BE000FF90EF90DF90CF90BF90AF900895F89462
:101BF0008093CE1A1092D01A1092D11A1092D21A43
:101C00001092D31A0F91FF90EF90DF90CF90BF907A
:101C1000AF900C94501BF8941092CE1A0C948B1B1E
:101C20008091C91A8F5F8093C91A08950FB6F894EE
:101C30000F926091D01A7091D11A8091D21A90911E
:101C4000D31A0F900FBE08956091D01A7091D11AD7
:101C50008091D21A9091D31A08958091D41A089540
:101C6000009711F04D9608958091C71A9091C81A67
:101C70004D9608958091D51A9091D61A0895AF92F5
:101C8000BF92CF92DF92EF92FF920F931F93CF9369
:101C9000DF938091C91A8111CFC08091D01A9091A1
:101CA000D11AA091D21AB091D31A0196A11DB11DDB
:101CB0008093D01A9093D11AA093D21AB093D31ACA
:101CC000C090D01AD090D11AE090D21AF090D31AC6
:101CD000C114D104E104F10439F58091E41A909122
:101CE000E51A2091E21A3091E31A3093E51A209315
:101CF000E41A9093E31A8093E21A8091CB1A8F5FD3
:101D00008093CB1AE091E41AF091E51A8081811159
:101D10009AC08FEF9FEFDC01809302029093030241
:101D2000A0930402B09305028091020290910302F5
:101D3000A0910402B0910502B12CC816D906EA069A
:101D4000FB0608F457C09BE0A92EE091E41AF0913D
:101D5000E51A8081882309F442C0E091E41AF091E9
:101D6000E51A0780F085E02DC085D1854A815B8129
:101D70006C817D81C416D506E606F70608F47AC0A4
:101D80008E010E5F1F4FC8010E94901A888D998D99
:101D9000892B21F0CE010E960E94901A8A8D909187
:101DA000CF1A981710F48093CF1AA89EC00111245F
:101DB000B8018450954E0E94321AE091C71AF091F2
:101DC000C81A9A8D828D981708F4BFCFBB24B3949C
:101DD000E091E41AF091E51A80818111BECF4FEFB6
:101DE0005FEFBA0140930202509303026093040232
:101DF00070930502E091C71AF091C81AE28D8BE04A
:101E0000E89FF0011124E450F54E8081823010F0FB
:101E1000BB24B3948091CC1A882311F0BB24B394D3
:101E20008B2DDF91CF911F910F91FF90EF90DF905D
:101E3000CF90BF90AF9008958091CD1A8F5F80931F
:101E4000CD1AB12CE7CFE091E41AF091E51A0780A2
:101E5000F085E02D0084F185E02D82819381A481BD
:101E6000B5818093020290930302A0930402B09381
:101E700005025ACF4093020250930302609304027A
:101E800070930502B7CFEF92FF920F931F93CF93FA
:101E9000DF930FB6F8940F928091C91A8150809306
:101EA000C91A8091C91A811150C08091D41A88230F
:101EB00009F44BC02BE0F22EEE24E39427C0E0910E
:101EC000DE1AF091DF1AC085D185CE010E960E94F0
:101ED000901A8E010E5F1F4FC8010E94901A8A8DC2
:101EE0009091CF1A981710F48093CF1AF89EC001E2
:101EF0001124B8018450954E0E94321AE091C71AFD
:101F0000F091C81A9A8D828D981748F58091D71A4A
:101F10008111D5CF8091CD1A882399F08091CD1A67
:101F2000882379F0C1E00E943F0E8111C093CC1A42
:101F30008091CD1A81508093CD1A8091CD1A811154
:101F4000F2CF8091CC1A813069F080E00F900FBE03
:101F5000DF91CF911F910F91FF90EF900895E09244
:101F6000CC1AD4CF0E948C1B81E0F0CFCF92DF92AD
:101F7000EF92FF920F931F93CF93DF9300D000D087
:101F8000CDB7DEB72091C91A2F5F2093C91AC09030
:101F9000D01AD090D11AE090D21AF090D31AFC0146
:101FA0000081118122813381400F511F621F731FF5
:101FB000C016D106E206F306E8F44017510762079F
:101FC0007307E8F0FC0140835183628373830E94AE
:101FD000430F811102C00E948C1B0F900F900F9035
:101FE0000F90DF91CF911F910F91FF90EF90DF90B5
:101FF000CF900895401751076207730728F0C41661
:10200000D506E606F706F0F6FC01408351836283AD
:1020100073838091C71A9091C81A029649835A8394
:102020006B837C830E94901A49815A816B817C81E9
:10203000CB01BA010E94F50BCACFCF92DF92EF928B
:10204000FF92611571058105910539F40E948C1B81
:10205000FF90EF90DF90CF9008952091C91A2F5FE5
:102060002093C91AC090D01AD090D11AE090D21AF9
:10207000F090D31AC60ED71EE81EF91E8091C71A1B
:102080009091C81A02960E94901AC701B6010E9448
:10209000F50B0E94430F8823C9F2FF90EF90DF9069
:1020A000CF9008958091C91A81113BC01092CC1A2B
:1020B000E091CF1A8BE0E89FF0011124E450F54E37
:1020C0008081811110C09BE08091CF1A8150809354
:1020D000CF1AE091CF1A9E9FF0011124E450F54EE3
:1020E0008081882389F3E091CF1A8BE0E89FF0018B
:1020F0001124E450F54EA181B28114960D90BC914B
:10210000A02DB283A183CF010396A817B90769F068
:1021100018968D919C9119979093C81A8093C71A1D
:10212000089581E08093CC1A089514969C91149799
:1021300015968C9191838283A92FB82FE9CFCF92E6
:10214000DF92EF92FF926A017B016091C71A709152
:10215000C81A625F7F4F0E94531A8091C71A9091EC
:10216000C81A02960E94901A6091D01A7091D11AE2
:102170008091D21A9091D31A6C0D7D1D8E1D9F1DDA
:10218000FF90EF90DF90CF900C94F50BCF92DF9201
:10219000EF92FF920F931F9368017901E091C71AA4
:1021A000F091C81A706846875787608B718B609171
:1021B000C71A7091C81A625F7F4F0E94321A8091CD
:1021C000C71A9091C81A02960E94901A6091D01A6C
:1021D0007091D11A8091D21A9091D31A6C0D7D1DF5
:1021E0008E1D9F1D1F910F91FF90EF90DF90CF905C
:1021F0000C94F50B0F931F93CF93DF93DC0117968D
:10220000ED91FC911897C085D1858E01025F1F4F1B
:10221000C8010E94901A8091C91A811124C08E01B0
:102220000E5F1F4FC8010E94901A8A8D9091CF1A9D
:102230009817F8F0BBE08B9FC0011124B8018450BF
:10224000954E0E94321AE091C71AF091C81A9A8DE1
:10225000828D891788F481E08093CC1ADF91CF9129
:102260001F910F910895B80187ED9AE10E94321AEB
:10227000EACF8093CF1ADECF80E0DF91CF911F911C
:102280000F9108950F931F93CF93DF937068FC0114
:102290004083518362837383C085D1850E94901AE5
:1022A0008E010E5F1F4FC8010E94901A8A8D909177
:1022B000CF1A981710F48093CF1AFBE08F9FC001BC
:1022C0001124B8018450954E0E94321AE091C71A29
:1022D000F091C81A9A8D828D891740F481E080931D
:1022E000CC1ADF91CF911F910F91089580E0DF917B
:1022F000CF911F910F9108952091CB1AFC0120835B
:102300004091D01A5091D11A6091D21A7091D31A7B
:10231000418352836383748308958F929F92AF9217
:10232000BF92CF92DF92EF92FF920F931F93FC0127
:10233000DB010FB6F8940F924091D01A5091D11A48
:102340006091D21A7091D31A8091CB1A9081018139
:10235000128123813481981729F0401751076207B1
:10236000730770F5CD90DD90ED90FC9013974A01C6
:102370005B01801A910AA20AB30A8C149D04AE0470
:10238000BF04F0F4C41AD50AE60AF70AC00ED11E3B
:10239000E21EF31ECD92DD92ED92FC921397809196
:1023A000CB1A80838091D01A9091D11AA091D21A21
:1023B000B091D31A81839283A383B48380E001C058
:1023C00081E00F900FBE1F910F91FF90EF90DF9073
:1023D000CF90BF90AF909F908F90089581E08093B1
:1023E000CC1A0895009799F0DC015B96ED91FC9171
:1023F0005C978081853A81F4319680E090E0DC0141
:102400000196A11DB11D2191253AD1F30895809126
:10241000C71A9091C81AE8CF80E008958091C71A32
:102420009091C81A08950F931F93CF93DF93EC01F7
:10243000009781F18A8DE091C71AF091C81A928DA8
:10244000891740F54E855F856889798977FD11C0C8
:10245000E091C71AF091C81A928D44E050E060E014
:1024600070E0491B5109610971094E875F87688BCC
:10247000798B2BE0829FC00111248450954E2C85CE
:102480003D852817390759F0E091C71AF091C81A0D
:10249000828D8A8FDF91CF911F910F9108958E01C8
:1024A0000E5F1F4FC8010E94901AE091C71AF09169
:1024B000C81A828D8A8F9091CF1A981710F4809342
:1024C000CF1A2BE0829FC0011124B8018450954E91
:1024D000DF91CF911F910F910C94321A0F931F939C
:1024E000CF93DF93EC01009749F088A5815088A72E
:1024F0002A8D9FA1291711F0882331F080E0DF9108
:10250000CF911F910F9108958E010E5F1F4FC8014B
:102510000E94901A8FA18A8F44E050E060E070E042
:10252000481B5109610971094E875F87688B798B58
:102530009091CF1A981710F48093CF1A2BE0829FB6
:10254000C0011124B8018450954E0E94321A81E0D6
:10255000DF91CF911F910F910895CF92DF92EF926B
:10256000FF92E091C71AF091C81A66857785808935
:102570009189E091C71AF091C81AA091C71AB09139
:10258000C81A5A962C9134E0C32ED12CE12CF12C90
:10259000C21AD108E108F108C686D786E08AF18A16
:1025A000FF90EF90DF90CF9008958091C71A90919F
:1025B000C81A892B39F0E091C71AF091C81A80A582
:1025C0008F5F80A78091C71A9091C81A0895EF92E3
:1025D000FF920F931F93CF93DF9300D0CDB7DEB759
:1025E0007C018BE193E0F701918380836115710594
:1025F000C1F0FB0101900020E9F73197E61BED30B7
:1026000020F50E2F10E0C801019669837A830E949D
:10261000D216F70195838483A80169817A810E948B
:10262000F5228091281B9091291BF70197838683BF
:10263000F092291BE092281B0F900F90DF91CF9111
:102640001F910F91FF90EF900895ECE0DACF0F9378
:102650001F93CF93DF93EC018091281B9091291B4E
:102660006BE0892B49F1CE010E9447178C0161E98B
:1026700074E00E94021766E0C8010E9447176BE0F1
:10268000CE010E9447178C016EE674E00E9402178B
:1026900066E0C8010E9447178091281B9091291B72
:1026A000DC01ED91FC910190F081E02DBE01DF9104
:1026B000CF911F910F910994CE010E944717EC0111
:1026C00060E574E00E94021766E0CE01DF91CF91D1
:1026D0001F910F910C9447174F925F926F927F92C8
:1026E0008F929F92AF92BF92CF92DF92EF92FF9222
:1026F0000F931F93CF93DF93EC013B014901280116
:10270000FC0181E293E081939193A12CB12CC12C27
:10271000D12C7F01042F9E01A4018CE391E20E9441
:10272000420C5F824E829986888620912A1B3091C6
:102730002B1B3D832C83D0932B1BC0932A1B1C8601
:102740001D868090381B9090391B9FEF891A990A3B
:102750009092391B8092381B9B868A861E861F8624
:10276000188A198A4114510409F44CC06BE0813075
:1027700041F1C2010E944717EC0164EB74E00E9432
:102780000217B301CE010E940217E881F98102808D
:10279000F381E02D62E2CE01099566E0CE01DF9182
:1027A000CF911F910F91FF90EF90DF90CF90BF904E
:1027B000AF909F908F907F906F905F904F900C9410
:1027C0004717C2010E944717EC016AEC74E00E94AF
:1027D0000217B301CE010E9402176BE0CE010E94E6
:1027E0004717EC0161ED74E00E94021763E0CE012F
:1027F0000E944717B4010E948C1762E00E9447179D
:1028000066E0CDCFDF91CF911F910F91FF90EF90B8
:10281000DF90CF90BF90AF909F908F907F906F9000
:102820005F904F900895EC01E881F9810190F0816B
:10283000E02D09951B821A826FEF7FEFCB010E947A
:102840001D10FACFFC01648765870895FC01C681DD
:10285000D781209739F0CE010E94021766E0CE01A1
:102860000E9447172BE088E190E00FB6F894A895F6
:10287000809360000FBE20936000FFCF0E94160E71
:102880000E94572220E030E04AE754E40E94EF2102
:1028900008958F929F92AF92BF92CF92DF92EF9264
:1028A000FF920F931F93CF93DF93EC018B018A81EB
:1028B0009B810E94300EBC01C8010E940217D80102
:1028C000ED91FC910280F381E02D69E0C80109954A
:1028D0008A819B810E94300EFC0101900020E9F763
:1028E0003197E81BF90B389748F4D801ED91FC912A
:1028F0000280F381E02D69E0C8010995CE84DF8470
:10290000E888F988A884B9848A819B810E94F211A1
:10291000982E8C848A819B810E94490D682FC80162
:102920000E940E186BE00E944717EC0161E575E00C
:102930000E940217682DCE010E940E186BE00E94C3
:102940004717EC0163E575E00E940217692DCE017F
:102950000E940E186BE00E944717EC0165E575E0D8
:102960000E940217B501CE010E948C176BE00E94F5
:102970004717EC0167E575E00E9402176BE0CE0196
:102980000E944717EC0169E575E00E940217B70144
:10299000A601CE01DF91CF911F910F91FF90EF9093
:1029A000DF90CF90BF90AF909F908F900C94C61700
:1029B0000F931F93CF93DF93EC018B01E881F98193
:1029C0000280F381E02DB801CE01099566E0C801CF
:1029D0000E9447170C80DD81C02D209779F7DF9189
:1029E000CF911F910F910895CF93DF93EC01CB010D
:1029F000DB01ED91FC910280F381E02DBE01099590
:102A0000CE01DF91CF9108950F931F93CF93DF9362
:102A1000EC016BE00E9447178C016FE375E00E94A8
:102A200002176BE0C8010E9447178C016AE475E049
:102A30000E94021766E0C8010E9447176BE0CE01B2
:102A40000E9447178C016CE175E00E9402176BE051
:102A5000C8010E9447178C016DE275E00E940217C1
:102A60006BE0C8010E9447178C0169E375E00E9482
:102A7000021766E0C8010E9447176BE0CE010E9472
:102A800047178C0169EF74E00E9402176BE0C801E0
:102A90000E9447178C016AE075E00E9402176BE004
:102AA000C8010E9447178C0166E175E00E94021779
:102AB00066E0C8010E94471780912A1B90912B1B4A
:102AC000009719F0BE010E94D8140E943A0E0E948D
:102AD000F211182F6BE0CE010E944717EC0168EE4F
:102AE00074E00E940217612FCE010E940E186BE065
:102AF0000E944717EC0163EF74E00E94021764E63E
:102B000070E0CE010E948C176BE00E944717EC0129
:102B100065EF74E00E94021766E0CE01DF91CF916D
:102B20001F910F910C944717CF92DF92EF92FF9273
:102B30000F931F93CF93DF937C018B01DC011A96D7
:102B40006D917C911B97C8010E940217F701A28525
:102B5000B385FD0101900020E9F73197DE2EDA1AE6
:102B6000FFE0FD1580F0C0E0D0E0D801ED91FC91D0
:102B70000280F381E02D60E2C801099521968C2F37
:102B80008D0D803190F365E273E0C8010E94021759
:102B9000D7015696CD90DC9057971E968D919C91BB
:102BA0001F970E94E51F682FC8010E940E18EC01B4
:102BB000E881F9810280F381E02D6FE20995B60189
:102BC000CE010E948C17DC01ED91FC910280F38113
:102BD000E02D69E0099566E0C8010E944717F701FA
:102BE00084859585009781F0DC01ED91FC91019041
:102BF000F081E02DB801DF91CF911F910F91FF90EF
:102C0000EF90DF90CF900994DF91CF911F910F91BA
:102C1000FF90EF90DF90CF9008956F927F928F9208
:102C20009F92AF92BF92CF92DF92EF92FF920F935B
:102C30001F93CF93DF93EC01762E672E4A01590143
:102C4000670178010E94F716B401CE0106960E9432
:102C5000E71280E393E09983888322E433E03F83A3
:102C60002E83BD8AAC8A40E061E0872D0E94561D0C
:102C70009F878E87C88AD98AEA8AFB8A7E8A6F8A6A
:102C8000DF91CF911F910F91FF90EF90DF90CF9048
:102C9000BF90AF909F908F907F906F900895069710
:102CA0000C949415CF92DF92EF92FF920F931F93A3
:102CB000CF93DF93CDB7DEB72F970FB6F894DEBF73
:102CC0000FBECDBF8C017B01DB016D917D918D919C
:102CD0009C9128EE33E040E050E00E949921BA0137
:102CE000A901C8010E94C617D801ED91FC9102808C
:102CF000F381E02D6EE2C8010995C7010E940E2004
:102D00006E01B9E0CB0ED11C7E01EFE0EE0EF11C9E
:102D10002AE030E040E050E00E94BB21E62F29830A
:102D20003A834B835C8369817A818B819C81E05DEE
:102D3000D701EE937D01AC15BD0551F71F86BD018E
:102D4000C8010E940217C8012F960FB6F894DEBF83
:102D50000FBECDBFDF91CF911F910F91FF90EF90EC
:102D6000DF90CF900895CF93DF93EC010FB6F894E6
:102D70000F9280912401909125019D838C830E9464
:102D8000160E688379838A839B830F900FBECE01D2
:102D9000DF91CF9108950C94230B009711F00C94C0
:102DA000BC0B08950C94230B009711F00C94BC0BF2
:102DB0000895FC0181E090E02081222311F080E061
:102DC00090E0089521E0FC0120830895089508957E
:102DD00081E0089580E0089580E008950895DC0181
:102DE000ED91FC910280F381E02D6CE00994FC01EF
:102DF00088E493E0918380838AE0828383E0858303
:102E0000148208950F931F93CF93DF93EC01FB017E
:102E10008C81811117C06081662379F08F010F5F6B
:102E20001F4FE881F9810280F381E02DCE010995E1
:102E3000F80161918F016111F4CFDF91CF911F9162
:102E40000F9108951C828B010F5F1F4F64916623C1
:102E5000A1F3A881B9811296ED91FC911397CE014F
:102E60000995F80164910F5F1F4F6111F2CFE5CF13
:102E7000883008F087E08093070289E008959EEF8C
:102E8000980F9F3010F4809306028AE00895CF9344
:102E9000DF93EC01462F50E04C30510538F4FA0135
:102EA000EA59FF4F0C94DA2182E08A83CE01DF9148
:102EB000CF91089581E08C83F9CF88E08A83F6CFA3
:102EC0008AE08A83F3CF80E18A83F0CFE881F981B9
:102ED0000280F381E02D6DE00995E881F98102809F
:102EE000F381E02D6AE0CE010995E0CFE881F98118
:102EF0000284F385E02D0995D9CFE881F98100841A
:102F0000F185E02D0995D2CF809107028D83CECF38
:102F1000809106028A83CACFFF920F931F93CF93AB
:102F2000DF93CDB7DEB761970FB6F894DEBF0FBE63
:102F3000CDBF8C01F62E972FF8014281403191F0E0
:102F4000483081F0423071F050E0BE016F5F7F4F3A
:102F50008F2D0E942923BE016F5F7F4FC8010E9401
:102F6000021707C0692FC8010E940E186F2D0E941A
:102F70000E18C80161960FB6F894DEBF0FBECDBF24
:102F8000DF91CF911F910F91FF900895DF92EF9203
:102F9000FF920F931F93CF93DF93CDB7DEB7A19727
:102FA0000FB6F894DEBF0FBECDBF8C01D42EE52E38
:102FB000F62E972FF80122812031A1F0283091F0D0
:102FC000223081F030E0AE014F5F5F4F6D2D7E2DDE
:102FD0008F2D0E940423BE016F5F7F4FC8010E94A6
:102FE00002170DC0692FC8010E940E186F2D0E9494
:102FF0000E186E2D0E940E186D2D0E940E18C8011D
:10300000A1960FB6F894DEBF0FBECDBFDF91CF9172
:103010001F910F91FF90EF90DF900895CF92DF9274
:10302000EF92FF920F931F93CF93DF93CDB7DEB74D
:1030300029970FB6F894DEBF0FBECDBF8C01D62EF8
:10304000DC0113968C91139781115DC0F8014281C8
:103050004230D9F14031F1F050E0BE016F5F7F4F57
:103060008D2D90E00E942923BE016F5F7F4FC80124
:103070000E940217C80129960FB6F894DEBF0FBE52
:10308000CDBFDF91CF911F910F91FF90EF90DF9017
:10309000CF90089562956F700190F081E02D0280CD
:1030A000F381E02D6A30B8F5605DC80109956D2D9A
:1030B0006F70D801ED91FC910280F381E02D6A30B0
:1030C00060F1695CC8010995D5CF88E0E82EF12C44
:1030D00090E8C92E0AC061E3C8010995C694B1E021
:1030E000EB1AF108E114F10429F28C2D8D21D8019D
:1030F000ED91FC910280F381E02D8111ECCF60E332
:10310000C8010995EBCFED91FC910280F381E02D90
:10311000C8010995AFCF695CC8CF605DD3CFDC0132
:103120001896ED91FC91199780811C969C911C97A3
:10313000892359F421E23EE405C0215031092115CB
:10314000310571F080818923C1F380811E969C91A5
:103150001E97892B80831696ED91FC9117976083BB
:103160000895FC01878581111DC02091341B309189
:10317000351B8091321B9091331B2817390789F03A
:10318000E091361BF091371BE20FF31F80812F5F18
:103190003F4F2032310518F11092351B1092341B2D
:1031A0000895FFCF20912E1B30912F1B80912C1B57
:1031B00090912D1B2817390789F0E091301BF09171
:1031C000311BE20FF31F80812F5F3F4F203231050B
:1031D00058F010922F1B10922E1B0895FFCF3093A2
:1031E000351B2093341B089530932F1B20932E1BE7
:1031F0000895DC01ED91FC910280F381E02D6CE0FB
:103200000994FC018785882369F081E040912E1B99
:1032100050912F1B20912C1B30912D1B42175307CF
:1032200069F0089581E04091341B5091351B209145
:10323000321B3091331B4217530799F780E00895F2
:10324000EF92FF921F93CF93DF9300D0CDB7DEB7FD
:103250007C01142F69837A830E94F716412F6981BC
:103260007A81C70106960E944C2088E593E0F70119
:103270009183808317871123E9F08091C9008068CA
:103280008093C90080E290E00E94D2169093311B97
:103290008093301B10922F1B10922E1B10922D1B0F
:1032A00010922C1B0F900F90DF91CF911F91FF90E8
:1032B000EF9008958091C10080688093C10080E202
:1032C00090E00E94D2169093371B8093361B109289
:1032D000351B1092341B1092331B1092321B0F902F
:1032E0000F90DF91CF911F91FF90EF9008951F9263
:1032F0000F920FB60F9211240BB60F922F933F939C
:103300008F939F93EF93FF932091C600E091361B1C
:10331000F091371B8091321B9091331BE80FF91FFE
:1033200020838091321B9091331B0196803291054E
:10333000C0F49093331B8093321B2091341B309147
:10334000351B28173907D1F0FF91EF919F918F918D
:103350003F912F910F900BBE0F900FBE0F901F90BB
:1033600018951092331B1092321B80E090E0209150
:10337000341B3091351B2817390731F7019690938C
:10338000351B8093341B8097F8F21092351B1092F6
:10339000341BDACF1F920F920FB60F9211240BB687
:1033A0000F922F933F938F939F93EF93FF932091CF
:1033B000CE00E091301BF091311B80912C1B90913D
:1033C0002D1BE80FF91F208380912C1B90912D1B42
:1033D000019680329105C0F490932D1B80932C1B95
:1033E00020912E1B30912F1B28173907D1F0FF9108
:1033F000EF919F918F913F912F910F900BBE0F9066
:103400000FBE0F901F90189510922D1B10922C1B21
:1034100080E090E020912E1B30912F1B2817390758
:1034200031F7019690932F1B80932E1B8097F8F213
:1034300010922F1B10922E1BDACFFC010396928361
:1034400081834FEF5FEFBA014383548365837683B3
:10345000908787839287818710820895FC01138665
:1034600012860895CF93DF939C01FB01DC01119636
:10347000CD91DC911297D583C4838E819F819783F0
:1034800086838E819F81DC0115967C936E931497C1
:103490007F836E8333872287F90180818F5F8083EA
:1034A000DF91CF9108950F931F93CF93DF93EB019B
:1034B000088119812A813B810F3F4FEF14072407B0
:1034C000340731F1DC01139601C0DF011496ED9150
:1034D000FC91159740815181628173810417150712
:1034E0002607370790F7FD83EC83D783C683BF8316
:1034F000AE831596DC93CE9314979B878A87FC0145
:1035000020812F5F2083DF91CF911F910F9108952C
:10351000FC01A185B2851496ED91FC911597E3CF3E
:10352000CF93DF93FC01A285B38524813581868109
:103530009781E9019F838E8386819781EC013D838A
:103540002C8311962D913C9112972E173F0741F035
:10355000138612868C9181508C93DF91CF910895C0
:1035600012969C938E931197138612868C9181509C
:103570008C93DF91CF9108959093391B8093381BE2
:1035800031E1FC013083319722E22083FC01329744
:10359000A3E3A083FC0133976083FC01349770831D
:1035A000FC0135971082FC01369760E86083FC01CE
:1035B00037971082FC01389762E06083FC013997ED
:1035C00063E06083FC013A9764E06083FC013B9711
:1035D00065E06083FC013C9766E06083FC013D97F9
:1035E00067E06083FC013E9768E06083FC013F97E1
:1035F00069E06083FC01709760E16083FC01719772
:103600003083FC01729732E13083FC01739733E120
:103610003083FC01749734E13083FC01759735E108
:103620003083FC01769736E13083FC01779737E1F0
:103630003083FC01789738E13083FC01799739E1D8
:103640003083FC017A9730E23083FC017B9731E2D2
:103650003083FC017C972083FC017D9723E220834B
:10366000FC017E974083FC017F975083FC01B0975B
:1036700026E22083FC01B19727E22083FC01B29768
:1036800028E22083FC01B39729E22083FC01B49750
:1036900020E32083FC01B59721E3208386970895DA
:1036A00087E0809329018FEC809328018AE0809342
:1036B0002101E3E7F0E0808182608083A091C71A56
:1036C000B091C81ACD91CDBFDD91DEBFFF91EF91D2
:1036D000DF91CF91BF91AF919F918F917F916F912A
:1036E0005F914F913F912F911F910F91FF90EF901C
:1036F000DF90CF90BF90AF909F908F907F906F9012
:103700005F904F903F902F901F900F900FBE0F90A3
:10371000089581E0089508950F920FB6F8940F92DE
:103720001F9211242F923F924F925F926F927F923D
:103730008F929F92AF92BF92CF92DF92EF92FF92C1
:103740000F931F932F933F934F935F936F937F93A9
:103750008F939F93AF93BF93CF93DF93EF93FF9399
:10376000A091C71AB091C81A0DB60D920EB60D925F
:103770000E945210A091C71AB091C81ACD91CDBF26
:10378000DD91DEBFFF91EF91DF91CF91BF91AF91BE
:103790009F918F917F916F915F914F913F912F9169
:1037A0001F910F91FF90EF90DF90CF90BF90AF905F
:1037B0009F908F907F906F905F904F903F902F9051
:1037C0001F900F900FBE0F9008950F920FB6F894B0
:1037D0000F921F9211242F923F924F925F926F92FD
:1037E0007F928F929F92AF92BF92CF92DF92EF9291
:1037F000FF920F931F932F933F934F935F936F937A
:103800007F938F939F93AF93BF93CF93DF93EF9368
:10381000FF93A091C71AB091C81A0DB60D920EB6BB
:103820000D920E943F0E81110E945210A091C71A62
:10383000B091C81ACD91CDBFDD91DEBFFF91EF9160
:10384000DF91CF91BF91AF919F918F917F916F91B8
:103850005F914F913F912F911F910F91FF90EF90AA
:10386000DF90CF90BF90AF909F908F907F906F90A0
:103870005F904F903F902F901F900F900FBE0F9032
:1038800008950E94E51B18951F93CF93DF93EC01D9
:10389000142F88A181110DC088819981892B09F489
:1038A0004DC080E09E8D9F5F9E8FDF91CF911F91D5
:1038B0000895482F50E011111CC08C819D810E94F9
:1038C000E52228A18C819D81820F911D9D838C838F
:1038D0002A813B818217930720F3888199819D83F8
:1038E0008C8380E09E8D9F5F9E8FDF91CF911F9193
:1038F00008958E819F810E94E52228A130E03195B4
:10390000219531098E819F81820F931F9F838E8322
:10391000688179818617970730F48A819B81820FAD
:10392000931F9F838E83123009F0BBCF8E8D882327
:1039300009F4B7CF8E8D81508E8FB3CF8A819B8152
:103940000E946E121B821A82ADCFFC01CB0140A1F6
:10395000442399F050E026813781240F351F3783A7
:103960002683628173812617370720F020813181F9
:1039700037832683B9010C94E52208950F931F9392
:10398000CF93DF93EC010FB6F8940F928AA118162B
:10399000ECF48B898823D1F08E010D5E1F4F09C096
:1039A0008AA181508AA38AA1181684F48B8988235E
:1039B00069F0C8010E94FA10882391F30E94EE1169
:1039C0008AA181508AA38AA1181684F38FEF8AA353
:1039D0000F900FBE0FB6F8940F9289A11816ECF451
:1039E00088858823D1F08E01085F1F4F09C089A107
:1039F000815089A389A1181684F48885882369F0E9
:103A0000C8010E94FA10882391F30E94EE1189A147
:103A1000815089A389A1181684F38FEF89A30F9091
:103A20000FBEDF91CF911F910F910895CF93DF9338
:103A3000EC010FB6F8940F92288139818F8D78A10F
:103A4000879FC0011124A901480F591F5B834A8336
:103A50001E8E3D832C83871B9109820F931F9F83AA
:103A60008E838FEF89A38AA3611112C0888581118B
:103A700006C00F900FBE81E0DF91CF910895CE0177
:103A800008960E94FA108130A1F70E948C1BF1CF9A
:103A9000CE0108960E941D1ACE0143960E941D1A5F
:103AA0000F900FBE81E0DF91CF9108950F931F9388
:103AB000CF93DF93182F062F882301F183E290E044
:103AC0000E94230BEC010097C9F0109FC001112444
:103AD00001960E94230B99838883892B61F01F8FA5
:103AE00008A361E0CE010E94161DCE01DF91CF91A7
:103AF0001F910F910895CE010E94BC0BC0E0D0E051
:103B0000CE01DF91CF911F910F9108956F927F9217
:103B10008F929F92AF92BF92CF92DF92EF92FF92DD
:103B20000F93CF93DF93CDB7DEB729970FB6F894F5
:103B3000DEBF0FBECDBF5C014B012E833F834887A4
:103B4000598720E03C0188E0680E711C0FB6F8949C
:103B50000F92F501968D878D981708F459C00230A1
:103B600009F456C0CE80DF80E884F984CD28CE28C1
:103B7000CF2809F46FC0222309F441C00F900FBE73
:103B80000E94100E0FB6F8940F92F50181A18F3F9D
:103B900009F43CC0F50182A18F3FB1F10F900FBE37
:103BA000BE016A5F7F4FCE0101960E948D11811187
:103BB00055C00FB6F8940F92F501968D0F900FBE79
:103BC000F501878D981314C04E815F8168857985D2
:103BD000C3010E949F10C5010E94BE1C0E94430F9A
:103BE000882311F021E0B2CF0E948C1B21E0AECFE0
:103BF000C5010E94BE1C0E94430F21E0A7CFCE0149
:103C000001960E947C11BACF12A2C8CF11A2C2CFD6
:103C1000402FB401C5010E94441CF5019389911104
:103C200024C0811128C00F900FBE81E029960FB6E5
:103C3000F894DEBF0FBECDBFDF91CF910F91FF9003
:103C4000EF90DF90CF90BF90AF909F908F907F903C
:103C50006F9008950F900FBE80E0E8CFC5010E94DD
:103C6000BE1C0E94430F80E0E1CFC50143960E9435
:103C7000FA108130C1F60E948C1BD5CF0F93CF93E1
:103C8000DF9383E290E00E94230BEC01009701F1A7
:103C90001B821A82198218821D821C821F821E8238
:103CA0001E8E81E08F8F18A28FEF89A38AA3CE0189
:103CB00008960E941D1ACE0143960E941D1A00E02C
:103CC00020E030E0A90160E070E0CE010E94861D96
:103CD000CE01DF91CF910F9108950F931F93CF9352
:103CE000DF93EC018A019E8D8F8D981740F0223072
:103CF00031F080E0DF91CF911F910F910895422F15
:103D0000CE010E94441C882331F00115110519F0E1
:103D100081E0F80180838AA18F3F49F08AA18F5FFB
:103D20008AA381E0DF91CF911F910F9108958B8934
:103D30008823B9F3CE0143960E94FA10882389F3B1
:103D40000115110571F381E0F8018083D3CFAF92A3
:103D5000BF92CF92DF92EF92FF920F93CF93DF93B8
:103D6000CDB7DEB729970FB6F894DEBF0FBECDBF33
:103D70007C016B012E833F834887598790E0570170
:103D800083E1A80EB11C0FB6F8940F92F701868D4F
:103D9000811169C04E815F8168857985452B462BED
:103DA000472B09F47DC0992309F43EC00F900FBE44
:103DB0000E94100E0FB6F8940F92F70181A18F3F69
:103DC00009F43EC0F70182A18F3F09F43FC00F9074
:103DD0000FBEBE016A5F7F4FCE0101960E948D111A
:103DE000811171C00FB6F8940F92F701868D0F9074
:103DF0000FBE81111EC0F70180819181892B41F195
:103E00004E815F8168857985C5010E949F10C70139
:103E10000E94BE1C0E94430F882311F091E0B3CF93
:103E20000E948C1B91E0AFCFCE0101960E947C11C5
:103E3000BDCFC7010E94BE1C0E94430F91E0A3CFDB
:103E400011A2F70182A18F3F09F0C1CF12A2BFCF0B
:103E50000FB6F8940F92F701828193810E9413129A
:103E60000F900FBECDCFA680B780B601C7010E94CC
:103E7000A51CF70101112EC0868D8150868F80818F
:103E80009181892BB9F1F7018085882341F1C70120
:103E900008960E94FA10813011F50E948C1B1FC0F9
:103EA0000F900FBE80E029960FB6F894DEBF0FBECC
:103EB000CDBFDF91CF910F91FF90EF90DF90CF902A
:103EC000BF90AF900895C7010E94BE1C0E94430F8F
:103ED00080E0E9CFB782A6828389811104C00F9068
:103EE0000FBE81E0E0CFC70143960E94FA108823FD
:103EF000B1F3D3CF0E94D512F70193838283C3CF4E
:103F00000F931F93CF93DF9300D0CDB7DEB78C0113
:103F1000FC01868D811108C080E00F900F90DF9129
:103F2000CF911F910F910895C80149835A830E9430
:103F3000A51CF801868D8150868F81A149815A8107
:103F40008F3F61F0F80181A18F5F81A381E00F9025
:103F50000F90DF91CF911F910F9108958085882355
:103F6000A9F3C801089649835A830E94FA1049812F
:103F70005A81882359F34115510541F381E0FA0133
:103F80008083CBCF0F931F93CF93DF93EC018E8D64
:103F9000811106C080E0DF91CF911F910F910895AC
:103FA0000E811F81CE010E94A51C1F830E8381E01C
:103FB000DF91CF911F910F9108950FB6F8940F9252
:103FC000FC01868D0F900FBE08950FB6F8940F92E6
:103FD000FC01268D0F900FBEFC01878D821B08957A
:103FE000FC01868D0895CF93DF93EC018881998140
:103FF000009711F00E94BC0BCE01DF91CF910C9481
:10400000BC0BFC01968D81E0911180E00895FC01CC
:10401000268D81E0978D291380E00895CF92DF925D
:10402000EF92FF92CF93DF93EC01688179818A81CF
:104030009B8128EEC22E23E0D22EE12CF12CA70189
:1040400096010E9499219B01AC0160E472E48FE02B
:1040500090E00E948921A70196010E94992169019F
:104060007A01AC81BD8120E432E44FE050E00E944F
:104070007E2120E834E84EE150E00E949921C20EF2
:10408000D31EE41EF51EC701B601DF91CF91FF904C
:10409000EF90DF90CF900895CF93DF93EC0144230E
:1040A00009F441C08EEC90E09983888388EC90E01D
:1040B0009B838A8389EC90E09D838C8388E1809345
:1040C000C90086E08093CA001092CD009B0140E0B9
:1040D00050E0220F331F441F551F220F331F441F70
:1040E000551F220F331F441F551F220F331F441F1C
:1040F000551F60E074E284EF90E00E9499212093C4
:10410000CC008091C80081608093C80080E28E83DB
:1041100080E88F8380E48887E881F98180818081CD
:10412000DF91CF91089586EC90E09983888380ECAD
:1041300090E09B838A8381EC90E09D838C8388E16F
:104140008093C10086E08093C2001092C5009B015D
:1041500040E050E0220F331F441F551F220F331F32
:10416000441F551F220F331F441F551F220F331F9B
:10417000441F551F60E074E284EF90E00E94992193
:104180002093C4008091C00081608093C000BECFA6
:10419000DC011296ED91FC911397208116968C917B
:1041A000282381E009F480E00895DC011296ED9166
:1041B000FC911397208118968C91282381E009F0B7
:1041C00080E00895CF92DF92EF92FF920F931F93BA
:1041D000CF93DF9314BE88E10FB6F894809360000C
:1041E000109260000FBE80E190E00E94CB16EC01BF
:1041F00041E060E875E20E94201967E0CE010E946C
:1042000047176BE00E9447176C0164EE70E00E9454
:10421000021766E0C6010E94471788E190E00E94FD
:10422000CB166C011AE0E12EF12C00E010E09E01AB
:1042300048E052E060E270E0C6010E940D16D092A4
:104240006503C092640382E290E00E94CB168E0167
:1042500024E031E044E06EE072E00E9406070E9434
:10426000D30D80E090E0DF91CF911F910F91FF90EF
:10427000EF90DF90CF9008950E9413140F93CF9387
:10428000DF931F92CDB7DEB76983FC0120893189A6
:104290004289538900E0BE016F5F7F4F8685978515
:1042A0000E94861D0F90DF91CF910F910895FC0120
:1042B000868597850E94DD1F91E0811101C090E005
:1042C000892F08950F93CF93DF931F92CDB7DEB759
:1042D00000E02FEF3FEFA901BE016F5F7F4FFC01B0
:1042E000868597850E94A71E813031F489810F90C1
:1042F000DF91CF910F9108958FEFF9CF0E94E021C8
:10430000A59F900DB49F900DA49F800D911D112429
:104310000895DB018F939F930E947E21BF91AF91FF
:10432000A29F800D911DA39F900DB29F900D11240F
:104330000895A1E21A2EAA1BBB1BFD010DC0AA1FE6
:10434000BB1FEE1FFF1FA217B307E407F50720F0FE
:10435000A21BB30BE40BF50B661F771F881F991F79
:104360001A9469F760957095809590959B01AC01C2
:10437000BD01CF010895052E97FB1EF400940E9405
:10438000D22157FD07D00E94992107FC03D04EF49B
:104390000C94D22150954095309521953F4F4F4F29
:1043A0005F4F089590958095709561957F4F8F4FE1
:1043B0009F4F0895EE0FFF1F0590F491E02D099493
:1043C000A29FB001B39FC001A39F700D811D112456
:1043D000911DB29F700D811D1124911D08950CD067
:1043E000BAC0B2D040F0A9D030F021F45F3F19F04C
:1043F0009BC05111E4C09EC0BFD098F39923C9F36C
:104400005523B1F3951B550BBB27AA2762177307DA
:10441000840738F09F5F5F4F220F331F441FAA1F8E
:10442000A9F333D00E2E3AF0E0E830D0915050404E
:10443000E695001CCAF729D0FE2F27D0660F771FFC
:10444000881FBB1F261737074807AB07B0E809F0DE
:10445000BB0B802DBF01FF2793585F4F2AF09E3F73
:10446000510568F061C0ABC05F3FECF3983EDCF3F0
:10447000869577956795B795F7959F5FC9F7880FEC
:10448000911D9695879597F90895E1E0660F771F3E
:10449000881FBB1F621773078407BA0720F0621BCF
:1044A000730B840BBA0BEE1F88F7E0950895E89420
:1044B00009C097FB3EF490958095709561957F4F6C
:1044C0008F4F9F4F9923A9F0F92F96E9BB2793951A
:1044D000F695879577956795B795F111F8CFFAF42A
:1044E000BB0F11F460FF1BC06F5F7F4F8F4F9F4F5B
:1044F00016C0882311F096E911C0772321F09EE8B9
:10450000872F762F05C0662371F096E8862F70E01E
:1045100060E02AF09A95660F771F881FDAF7880FF8
:104520009695879597F9089597F99F6780E870E0C9
:1045300060E008959FEF80EC089500240A94161619
:10454000170618060906089500240A941216130681
:10455000140605060895092E0394000C11F488230F
:1045600052F0BB0F40F4BF2B11F460FF04C06F5F2B
:104570007F4F8F4F9F4F089557FD9058440F551F01
:1045800059F05F3F71F04795880F97FB991F61F0D5
:104590009F3F79F087950895121613061406551F4C
:1045A000F2CF4695F1DF08C0161617061806991FB8
:1045B000F1CF86957105610508940895E894BB27AD
:1045C00066277727CB0197F90895FB01DC0102C02C
:1045D00001900D9241505040D8F70895DC0101C080
:1045E0006D9341505040E0F70895FB01DC014150CC
:1045F000504048F001900D920020C9F701C01D9273
:1046000041505040E0F70895FA01CF93FF93EF93A4
:104610002230CCF02532BCF4C22F2C2F3327442774
:104620005527FF93EF930E949921EF91FF91605DD1
:104630006A330CF0695D6193B901CA016050704042
:104640008040904051F710828F919F91CF910C94B0
:104650003F23FB019F01423074F0453264F4642F24
:1046600077270E944F23805D8A330CF0895D819308
:10467000CB010097A1F71082C9010C943F23DC0104
:10468000FC01672F71917723E1F7329704C07C9189
:104690006D9370836291AE17BF07C8F30895AA1B8C
:1046A000BB1B51E107C0AA1FBB1FA617B70710F01D
:1046B000A61BB70B881F991F5A95A9F7809590954F
:0A46C000BC01CD010895F894FFCF6E
:1046CA003717FFFFFFFF0A035072696E74005573B4
:1046DA006572496E740042726F6B65204C6F6F7021
:1046EA00212000446174612052656164000D002F2D
:1046FA0000000000002204491450555420494E5429
:10470A004F20525800207C7C20005354415455536A
:10471A0009093A2000434F4E46494709093A200001
:10472A00454E5F414109093A2000454E5F525841C2
:10473A00444452093A200053455455505F415709A1
:10474A003A200053455455505F52455452093A2075
:10475A000052465F434809093A200052465F5345D2
:10476A00545550093A2000504F5745525F5245431D
:10477A004549564544093A200052585F414444523B
:10478A005F5030093A200052585F414444525F500A
:10479A0031093A200054585F4144445209093A20E9
:1047AA000052585F50575F50302D36093A20004664
:1047BA0049464F5F535441545553093A20005350C8
:1047CA00492044726976657220456E67616765643F
:1047DA00200049444C450000000000E71600000094
:1047EA0000E71649147478745F710900000000002C
:1047FA00E8163E2157216221EE16EF169415FAFFAC
:10480A0000004F1600000000E816E716EC16EA163C
:10481A00EE16EF1600000000E8168F180119B118FD
:04482A00EE16F91875
:00000001FF
