:100000000C940E060C942D060C942D060C942D06C3
:100010000C942D060C942D060C942D060C942D0694
:100020000C942D060C942D060C942D060C942D0684
:100030000C942D060C942D060C942D060C942D0674
:100040000C942D060C942D060C942D060C942D0664
:100050000C942D060C942D060C942D060C942D0654
:100060000C942D060C9499220C942D060C942D06BC
:100070000C942D060C942D060C942D060C942D0634
:100080000C942D060C942D060C942D060C942D0624
:100090000C94EC220C942D060C942D060C942D0639
:1000A0000C942D060C942D060C942D060C942D0604
:1000B0000C942D060C942D060C942D060C9463259F
:1000C0000C942D060C942D060C942D0647205020E0
:1000D000532056204920492059206920702077203C
:1000E0007B204D204D45343035204C61622032203C
:1000F0004D6F746F7220436F6E74726F6C6C6572AB
:100100002050726F6772616D004D45343035204C60
:1001100061622032204D6F746F722044726976657F
:100120007220496E74657266616365004170722069
:10013000323520323031360053797374656D207456
:10014000696D653A20002C20486561703A20002CCA
:10015000204F435235413A20003C696E76616C690C
:10016000642063686172202200223E002020683AE9
:10017000202020202048414C502100202043746C36
:100180002D433A205265736574207468652041568A
:10019000520020206E3A2020202020456E74657287
:1001A0002061206E756D626572202864656D6F290F
:1001B000002020643A2020202020537461636B20AB
:1001C00064756D7020666F72207461736B730020AC
:1001D00020733A202020202056657273696F6E20AC
:1001E000616E6420736574757020696E666F726DE0
:1001F0006174696F6E002020743A20202020205303
:10020000686F77207468652074696D65207269670E
:100210006874206E6F77004D45343035204C616234
:100220002032204D6F746F7220447269766572209F
:10023000496E74657266616365002068656C700064
:100240004D6F746F72203209090009000909002DF1
:100250002D2D2D2D2D2D09092D2D2D2D2D2D2D2D16
:10026000092D2D2D2D2D2D2D09092D2D2D2D2D2D2A
:100270002D2D2D2D2D004D6F746F72090953746152
:100280007475730909506F7765720909446972655D
:100290006374696F6E002D2D2D2D2D2D2D09092DC7
:1002A0002D2D2D2D2D2D2D092D2D2D2D2D2D2D09C6
:1002B000092D2D2D2D2D2D2D2D2D2D2D004D6F7416
:1002C0006F72203109090009000909007C09092021
:1002D000277127202020202052657475726E2074AB
:1002E0006F2070726576696F7573206D656E75200D
:1002F00009097C007C090920277027202020202064
:10030000456E74657220506F74656E74696F6D65AB
:10031000746572204D6F646509097C007C090920B1
:10032000276627202020202046726565776865654E
:100330006C206D6F746F72202020202020202020E0
:1003400009097C007C090920276227202020202021
:100350004170706C7920746865206D6F746F7220C5
:100360006272616B6520202009097C007C090920EC
:10037000277327202020202053657420746865206F
:100380006D6F746F7220706F77657220202020204F
:1003900009097C007C2D2D2D2D2D2D2D2D2D2D2D64
:1003A0002D2D2D2D2D2D2D2D2D2D2D2D2D2D2D2D7D
:1003B0002D2D2D2D2D2D2D2D2D2D2D2D2D2D2D2D6D
:1003C0002D2D2D2D2D2D2D2D2D2D2D2D2D2D2D2D5D
:1003D0002D2D2D2D7C007C090920202053696E676E
:1003E0006C65204D6F746F7220436F6E74726F6C0A
:1003F000204D6F64756C6520202009097C007C0904
:1004000009202020204D61696E204D6F746F72208D
:10041000436F6E74726F6C204D6F64756C65202035
:10042000202009097C007C2D2D2D2D2D2D2D2D2DED
:100430002D2D2D2D2D2D2D2D2D2D2D2D2D2D2D2DEC
:100440002D2D2D2D2D2D2D2D2D2D2D2D2D2D2D2DDC
:100450002D2D2D2D2D2D2D2D2D2D2D2D2D2D2D2DCC
:100460002D2D2D2D2D2D7C007C09092027312720B5
:1004700020202020746F206F706572617465204D9C
:100480006F746F72203120202020202009097C0009
:100490007C0909202732272020202020746F206F1C
:1004A000706572617465204D6F746F722032202008
:1004B0002020202009097C007C09092027712720A1
:1004C0002020202052657475726E20746F204D615B
:1004D000696E204D656E75202020202009097C0062
:1004E0004D45343035204C61622032204D6F746FA1
:1004F000722044726976657220496E746572666115
:100500006365000909092020202000417072203213
:10051000352032303136007C0909202020204D69F9
:100520007373696F6E20436F6E74726F6C205072BC
:100530006F6772616D2076312E30202020200909EE
:100540007C007C2D2D2D2D2D2D2D2D2D2D2D2D2D6A
:100550002D2D2D2D2D2D2D2D2D2D2D2D2D2D2D2DCB
:100560002D2D2D2D2D2D2D2D2D2D2D2D2D2D2D2DBB
:100570002D2D2D2D2D2D2D2D2D2D2D2D2D2D2D2DAB
:100580002D2D7C007C090920276D2720202020208C
:10059000456E746572204D6F746F7220436F6E7478
:1005A000726F6C204D6F64756C652009097C007C4E
:1005B0000909202768272020202020446973706CB7
:1005C000617920616C6C206F7074696F6E7320208C
:1005D00020202020202009097C007C0909202743B5
:1005E000746C2D4327205265736574204156522048
:1005F00020202020202020202020202020202020FB
:100600002009097C00496C6C6567616C207374611A
:1006100074652120526573657474696E6720415654
:100620005200546869732044656D6F2068617320BF
:100630006265656E2064697361626C65642E205327
:100640006F72727900092D3E52657475726E696E13
:100650006720746F206D61696E2E2E00092D3E504B
:10066000726573732027712720746F20726574750B
:10067000726E20746F20746865204D6F746F7220E5
:100680000020436F6E74726F6C00092D3E507265CE
:1006900073732027722720746F20726566726573EA
:1006A00068207468652044617368426F61726420D9
:1006B000002D3E53656C65637465643A20002D3EE1
:1006C00053656C65637465643A20002D3E43686F22
:1006D0006F7365204D6F746F722000206F706572AC
:1006E0006174696F6E3A2000270027206973206EBD
:1006F0006F7420612076616C696420656E74727914
:100700002E002D3E53656C65637465643A200020AD
:1007100052657475726E696E6720746F204D6169E1
:100720006E204D6F746F72204D6F64756C652E2E48
:100730002000092D3E5072657373202771272074A5
:100740006F2072657475726E20746F2074686520F6
:100750004D6F746F72200020436F6E74726F6C0067
:10076000092D3E50726573732027722720746F2005
:100770007265667265736820746865204461736889
:10078000426F6172642000092D3E506F74656E7473
:10079000696F6D6574657220416374697661746513
:1007A000642E002D3E53656C65637465643A2000C9
:1007B000092D3E456E746572696E6720506F7465D1
:1007C0006E74696F6D6574657220436F6E74726FBD
:1007D0006C2E2E2E20002D3E43686F6F7365204DCA
:1007E0006F746F722000206F7065726174696F6E34
:1007F0003A20000928507265737320276F272066FE
:100800006F72206F7074696F6E732900092D3E52EC
:10081000656C656173696E67204D6F746F722E2E03
:10082000002D3E53656C65637465643A20002D3E6F
:1008300043686F6F7365204D6F746F722000206F77
:100840007065726174696F6E3A2000092850726594
:10085000737320276F2720666F72206F7074696F23
:100860006E732900094272616B65207365742061A3
:100870007420002E2000092D3E456E746572207490
:100880006865204272616B6520466F72636528302F
:10089000202D2032353529002D3E53656C6563745B
:1008A00065643A20002D3E43686F6F7365204D6F7D
:1008B000746F722000206F7065726174696F6E3A98
:1008C00020000928507265737320276F2720666FF8
:1008D00072206F7074696F6E73290009506F7765AD
:1008E000722073657420617420002E2000456E74A0
:1008F00065722074686520506F7765722056616C50
:10090000756520282D32353520746F203235352914
:100910003B0020202A4E6F74653A204E6567617453
:100920006976652056616C756573203D2052657649
:1009300065727365002D3E53656C65637465643A3A
:10094000200054727920416761696E2E2000092DC4
:100950003E537769746368696E6720746F20436FD4
:100960006E74726F6C206F66204D6F746F72200012
:100970002E00092D3E52657475726E20746F2074BE
:100980006865204D61696E204D6F746F72204D6FE8
:1009900064756C6520746F2073776170204D6F747F
:1009A0006F72732E002D3E53656C65637465643AF7
:1009B0002000092D3E52657475726E696E67207451
:1009C0006F204D697373696F6E20436F6E74726F21
:1009D0006C2E2E2000092D3E52656C656173696E88
:1009E00067204D6F746F72732E2E00092D3E526575
:1009F00073657474696E67204156522E2E00223A38
:100A0000205754463F00526573657474696E6720C1
:100A100041565200092D3E596F7520456E7465721E
:100A200065643A2000456E74657220646563696D83
:100A3000616C206E756D65726963206469676974A5
:100A4000732C207468656E2052455455524E206FA9
:100A5000722045534300092D3E53776974636869DA
:100A60006E6720746F204D6F746F72204D6F6475C8
:100A70006C652E2E00092D3E436C656172696E67B0
:100A80002052656769737465727320616E64204DCE
:100A9000656E75732E2E00092D3E496E7469616C6A
:100AA000697A696E67204D6F746F72732E2E002DF8
:100AB0003E53656C65637465643A200043757272D9
:100AC000656E74204368616E6E656C20526561646A
:100AD000696E67733A2000456E64205072696E74C7
:100AE0002044617461004D6F746F722044726976A6
:100AF000657220496E7075743A20004E6F207368DD
:100B0000617265642064617461206974656D73202D
:100B1000746F207072696E74002D2D2D2D20202091
:100B20002020202020202020202D2D2D2D20202091
:100B3000202D2D2D2D2D2D2D2D2D2D005368617245
:100B4000652F5175657565202020202054797065CA
:100B500020202020467265652F546F74616C00451B
:100B600052524F52206372656174696E67207461DE
:100B7000736B2022005461736B2022002220637269
:100B800065617465642C20737461636B20617420EB
:100B90003078005461736B3A20005461736B3A20D3
:100BA00049444C450049444C45090930092D090088
:100BB0002F0009092D002D2D2D2D09092D2D2D2D4D
:100BC000092D2D2D2D2D00092D2D2D2D2D2D2D2DCA
:100BD0002D2D00092D2D2D2D004E616D650909501B
:100BE00072692E0953746174650009467265652F38
:100BF000546F74616C000952756E73005461736BAD
:100C00000909202009200009537461636B00090061
:100C100009002F00090009002020000011241FBE38
:100C2000CFEFD1E2DEBFCDBF13E0A0E0B2E0ECEE4B
:100C3000FBE500E00BBF02C007900D92AA34B1079C
:100C4000D9F71BE1AAE4B3E001C01D92A630B107B9
:100C5000E1F70E94AE2A0C94F42D0C9400000F933F
:100C60001F93CF93DF93EC0166E08E819F810E94FA
:100C70003A206BE08E819F810E943A208C0166EDC4
:100C800073E00E94F51F66E0C8010E943A206BE005
:100C90008E819F810E943A208C0164E973E00E945A
:100CA000F51F66E0C8010E943A206BE08E819F81AB
:100CB0000E943A208C016CE673E00E94F51F66E00A
:100CC000C8010E943A206BE08E819F810E943A20E9
:100CD0008C0164E473E00E94F51F66E0C8010E9485
:100CE0003A206BE08E819F810E943A208C016CE15A
:100CF00073E00E94F51F66E0C8010E943A206BE095
:100D00008E819F810E943A208C0164EF72E00E94E4
:100D1000F51F66E0C8010E943A206BE08E819F813A
:100D20000E943A208C016CEC72E00E94F51F66E094
:100D3000C8010E943A2081E08D8FDF91CF911F91F1
:100D40000F910895AF92BF92CF92DF92EF92FF92F0
:100D50000F931F93CF93DF93EC018A8D8823C1F00B
:100D6000813009F4D1C0823009F4F8C0833009F42D
:100D7000E6C09EE7A92E92E0B92E8E899F8997FD45
:100D8000CBC0892B49F015E7E12E12E0F12E08C007
:100D900080E6A82E82E0B82E09E6E02E02E0F02ED2
:100DA00066E08E819F810E943A20CE88DF886BE0CA
:100DB0008E819F810E943A208C016FE472E00E9434
:100DC000F51F66E0C8010E943A206BE00E943A20BD
:100DD0008C0166E772E00E94F51F66E0C8010E9480
:100DE0003A206BE00E943A208C0166E972E00E9492
:100DF000F51F66E0C8010E943A206BE00E943A208D
:100E00008C016DEB72E00E94F51FB501C8010E94D4
:100E1000F51F6BE0C8010E943A208C0167EC72E07C
:100E20000E94F51FB601C8010E947F206BE00E945E
:100E30003A208C0169EC72E00E94F51FB701C801ED
:100E40000E94F51F66E0C8010E943A208B8D811137
:100E500045C0A88CB98CF0E6CF2EF2E0DF2EA9E6D3
:100E6000EA2EA2E0FA2E66E08E819F810E943A204F
:100E70006BE00E943A208C0160E472E00E94F51F52
:100E8000B601C8010E94F51F6BE0C8010E943A201C
:100E90008C016AE472E00E94F51FB501C8010E944E
:100EA0007F206BE00E943A208C016CE472E00E948B
:100EB000F51FB701C8010E94F51F66E0C8010E9436
:100EC0003A2081E08D8FDF91CF911F910F91FF909C
:100ED000EF90DF90CF90BF90AF900895813009F1EF
:100EE0008230B9F1833081F1EEE7CE2EE2E0DE2EE2
:100EF000888D998D97FD1DC00097A9F15C0175E75C
:100F0000E72E72E0F72EAFCF57E9A52E52E0B52EAF
:100F10008E899F8997FF35CFBDE6EB2EB2E0FB2E81
:100F20003FCF27E9C22E22E0D22E888D998D97FFE0
:100F3000E3CF5C016DE6E62E62E0F62E94CF35E855
:100F4000A32E32E0B32E19CF85E8C82E82E0D82E2A
:100F5000CFCF9EE8C92E92E0D92ECACF4EE8A42E5C
:100F600042E0B42E0ACFA12CB12C7DCF0F931F935A
:100F7000CF93DF93EC010E947C1B88EA92E0998377
:100F800088831D8E1D8A82E08A8F8B8F1F8A1E8A1E
:100F9000198E188EDF91CF911F910F9108950F93A5
:100FA0001F93CF93DF93EC018D8D811167C066E0B5
:100FB0008E819F810E943A206BE00E943A208C0132
:100FC00060EE74E00E94F51F66E0C8010E943A20BE
:100FD00066E00E943A206BE00E943A208C0163E0B8
:100FE00075E00E94F51F6BE0C8010E943A208C0159
:100FF0006BE075E00E94F51F66E0C8010E943A2090
:101000006BE00E943A208C0167E175E00E94F51FB9
:1010100066E0C8010E943A206BE00E943A208C01F1
:1010200062E475E00E94F51F66E0C8010E943A2064
:101030006BE00E943A208C0164E875E00E94F51F85
:1010400066E0C8010E943A206BE00E943A208C01C1
:101050006FEA75E00E94F51F66E0C8010E943A2021
:101060006BE00E943A208C016AED75E00E94F51F4A
:1010700066E0C8010E943A2081E08D8FDF91CF9118
:101080001F910F9108950F931F93CF93DF93EC015E
:101090008D8D811146C066E08E819F810E943A202D
:1010A00066E00E943A206BE00E943A208C016EEFCD
:1010B00073E00E94F51F66E0C8010E943A206BE0D1
:1010C0000E943A208C0166E274E00E94F51F66E0FF
:1010D000C8010E943A206BE00E943A208C0168E629
:1010E00074E00E94F51F66E0C8010E943A206BE0A0
:1010F0000E943A208C0160E974E00E94F51F66E0CE
:10110000C8010E943A206BE00E943A208C0168EBF3
:1011100074E00E94F51F66E0C8010E943A2081E059
:101120008D8FDF91CF911F910F910895FC01258D37
:10113000211108950C942F06FC01258D211102C068
:101140000C94A20608950F931F93CF93DF93EC01A5
:1011500066E08E819F810E943A206BE00E943A20D7
:101160008C0167E172E00E94F51F6BE0C8010E94EC
:101170003A208C016AE372E00E94F51F66E0C80124
:101180000E943A206BE08E819F810E943A208C0160
:1011900066EF71E00E94F51F66E0C8010E943A20E8
:1011A0006BE08E819F810E943A208C016FEC71E090
:1011B0000E94F51F66E0C8010E943A206BE08E8114
:1011C0009F810E943A208C0161EB71E00E94F51F23
:1011D00066E0C8010E943A206BE08E819F810E94E8
:1011E0003A208C0162E971E00E94F51F66E0C801B7
:1011F0000E943A206BE08E819F810E943A208C01F0
:101200006BE771E00E94F51F66E0C8010E943A207A
:101210006BE08E819F810E943A20EC016CE671E0C8
:101220000E94F51F66E0CE01DF91CF911F910F91D3
:101230000C943A20CF93DF93EC018E819F81DC01E7
:10124000ED91FC910480F581E02D0995811104C098
:1012500080E0DF91CF9108958E819F81DC01ED9137
:10126000FC910680F781E02D09958A8B81E0DF9162
:10127000CF910895CF92DF92FF920F931F93CF9358
:10128000DF931F92CDB7DEB76C01DC0154961C9240
:101290001E925397F12CF60186819781DC01ED9126
:1012A000FC910480F581E02D0995882309F440C064
:1012B000F60186819781DC01ED91FC910680F78132
:1012C000E02D0995282FF601828B80ED820F8A3060
:1012D00008F458C02D3209F478C0213709F498C0B9
:1012E0002A3009F47FC02D3009F484C02B3109F471
:1012F00081C06BE0F6018681978129830E943A20A4
:101300008C0169E571E00E94F51FD801ED91FC9117
:101310000280F381E02D2981622FC80109956BE0DD
:10132000C8010E943A2069E671E00E94F51FB3CF20
:101330008091500390915103DC01ED91FC91048068
:10134000F581E02D0995882309F4A5CFD6011696DD
:10135000ED91FC9117970190F081E02D02811381AE
:101360008091500390915103DC01ED91FC91068036
:10137000F781E02D0995682FF60186819781F801A4
:10138000099589CF86819781DC01ED91FC910280DE
:10139000F381E02D622F0995F60123893489C90173
:1013A000880F991F220F331F220F331F220F331F65
:1013B000820F931F2289332727FD3095205331094F
:1013C000820F931F948B838B66CF86819781DC017C
:1013D000ED91FC910280F381E02D6DE20995FF24EF
:1013E000F39459CF60EA72E0F601868197810E94FA
:1013F000F51F51CFFF2061F0D60153968D919C913E
:10140000549791958195910954969C938E935397F7
:101410000F90DF91CF911F910F91FF90DF90CF90B0
:1014200008958F929F92AF92BF92CF92DF92EF92E8
:10143000FF920F931F93CF93DF9300D000D000D083
:10144000CDB7DEB78C0119821A821B821C821E82E4
:101450001D82C0902801D09029010E94F7135C01E1
:10146000CE0101960E94261F4C0166E0F80186819C
:1014700097810E943A206BE00E943A207C0169E04B
:1014800071E00E94F51F6BE0C7010E943A207C01C9
:101490006CE271E00E94F51F66E0C7010E943A20ED
:1014A0006BE00E943A207C0168E371E00E94F51F26
:1014B000B401C7010E94C51E6BE00E943A207C0166
:1014C00066E471E00E94F51FB501C7010E94AE20DD
:1014D0007C0162EA72E00E94F51F48E357E160E098
:1014E00070E0C7010E94E8206BE00E943A207C0176
:1014F0006FE471E00E94F51FB601C7010E94AE20A3
:1015000066E00E943A2066E00E943A20F801868157
:1015100097810E94771D66E0F801868197810E947D
:101520003A20F801868197810E94371B26960FB6D4
:10153000F894DEBF0FBECDBFDF91CF911F910F9109
:10154000FF90EF90DF90CF90BF90AF909F908F90E3
:1015500008950FB6F8940F92E0914A03F0914B036F
:1015600060870F900FBE0FB6F8940F92E0914C0376
:10157000F0914D0320870F900FBE0FB6F8940F9295
:10158000E0914E03F0914F03518740870F900FBEBB
:10159000613041F0623009F00895FC01238F518FD2
:1015A000408F0895FC01228F578B468B0895CF936F
:1015B000DF93CDB7DEB727970FB6F894DEBF0FBE27
:1015C000CDBF8C0119821A821B821C821E821D8251
:1015D000DC0154961C921E9253973DC0253028F191
:1015E000253009F080C16BE0F801868197810E9467
:1015F0003A207C0162E276E00E94F51F66E0C701B6
:101600000E943A206BE00E943A207C0165E476E07B
:101610000E94F51F66E0C7010E943A20D8015D963E
:101620001C9260E0C8010E94321CD8011E964D91A8
:101630005D916D917C9151974F5F5F4F6F4F7F4FE1
:10164000F80146875787608B718B61E070E080E01E
:1016500090E00E942D18F8012485223009F41AC167
:1016600008F0BCCF222309F4B7C0213009F03BC1F8
:10167000F80185898111C9C3858D811103C0C80115
:101680000E942F06C8010E941A09882371F2F801EE
:1016900022892F3609F433C30CF4CCC2213709F464
:1016A0009CC20CF429C2233709F0D9C36BE08681B0
:1016B00097810E943A207C0165E379E00E94F51F42
:1016C000D701ED91FC910280F381E02D63E7C70122
:1016D000099566E0C7010E943A2066E0F80186811C
:1016E00097810E943A206BE00E943A207C016DEEC7
:1016F00078E00E94F51F66E0C7010E943A206BE087
:101700000E943A207C0162E179E00E94F51F66E0C8
:10171000C7010E943A20C8010E943A09D801539695
:101720004D915C91549721E05C966C91C8010E94A8
:10173000A90AF801C388D48866E0868197810E944F
:101740003A2066E00E943A206BE00E943A207C0139
:101750006BED78E00E94F51FB601C7010E947F2063
:101760006BE00E943A207C016AEE78E00E94F51F4F
:1017700066E0C7010E943A20D8015D961C92C8011C
:101780000E94A206F801D48C66E0868197810E94AF
:101790003A206BE00E943A207C0165EA78E00E94E2
:1017A000F51F6D2DC7010E9430216BE00E943A2089
:1017B0007C0165EB78E00E94F51F6BE0C7010E9499
:1017C0003A207C0162EC78E0C7010E94F51F66E0D8
:1017D000C7010E943A2029CFC8010E94CF07C80143
:1017E0000E941A09882309F420CFD80152962C911F
:1017F000283609F40BC10CF4FCC32E36B1F00CF4FE
:101800002CC1233709F425C1243709F003C1CE01C7
:1018100001960E94261FBC01F801868197810E94D3
:10182000C51E66E00E943A2000CF6BE0F801868179
:1018300097810E943A207C0165E27AE00E94F51FC0
:1018400066E0C7010E943A20C8010E943A09D80107
:101850005396CD90DC90549766E016968D919C91AE
:1018600017970E943A2066E00E943A206BE00E949F
:101870003A207C0164E17AE00E94F51FB601C701BD
:101880000E947F2066E00E943A20F8018289813719
:1018900061F6CBCEC8010E941A09882351F0D80105
:1018A00052968C915297813709F48DC0823709F492
:1018B00035C00FB6F8940F920F900FBEE0914E0313
:1018C000F0914F034085518523E0F801648DC801F4
:1018D0000E94A90AD8015D968C918111A6CEC801FB
:1018E0000E94A206A2CE6BE0F801868197810E9439
:1018F0003A208C0165E076E00E94F51F66E0C801A1
:101900000E943A202BE088E190E00FB6F894A89569
:10191000809360000FBE20936000FFCF66E0D80187
:1019200016968D919C9117970E943A206BE00E9429
:101930003A207C0161EB76E00E94F51FD701ED9122
:10194000FC910280F381E02D62E7C701099566E012
:10195000C7010E943A20F801158EC8010E94A20614
:10196000D8015C96DC905C9766E016968D919C9110
:1019700017970E943A2066E00E943A206BE00E948E
:101980003A207C016CE576E00E94F51F6D2DC701C1
:101990000E9430216BE00E943A207C0161E876E0F1
:1019A0000E94F51F66E0C7010E943A206BE00E948A
:1019B0003A207C016AE876E00E94F51F66E0C701E4
:1019C0000E943A2076CF66E016968D919C911797EB
:1019D0000E943A206BE00E943A207C016EEB76E098
:1019E0000E94F51FD701ED91FC910280F381E02D5B
:1019F00061E7C701099566E0C7010E943A2061E0EE
:101A0000C8010E94321CF801158E0FCEC8010E9439
:101A1000A3080BCEF801E680F780D701ED91FC9189
:101A20000280F381E02D62E2C7012F830995D7017F
:101A3000ED91FC910280F381E02D2F81622FC7018F
:101A400009956BE0C7010E943A207C016EEF79E0B6
:101A5000BBCEC8010E94110AE8CD2D36D9F66BE045
:101A6000F801868197810E943A207C016FEA7AE032
:101A70000E94F51FD701ED91FC910280F381E02DCA
:101A80006DE6C701099566E0F801868197810E949D
:101A90003A2066E00E943A206BE00E943A207C01E6
:101AA00066E57AE00E94F51F66E0C7010E943A20D1
:101AB0006BE00E943A207C0165E77AE00E94F51F06
:101AC00066E0C7010E943A206BE00E943A207C0148
:101AD00067E97AE00E94F51F66E0C7010E943A209C
:101AE000D8015D961C925D9781E055968C9361E0DC
:101AF000C8010E94321C99CD66E0868197810E94C0
:101B00003A206BE00E943A207C0163EA77E00E9471
:101B1000F51FD701ED91FC910280F381E02D60E784
:101B2000C701099566E0C7010E943A206BE00E9458
:101B30003A207C0160EB77E00E94F51F66E0C70168
:101B40000E943A206BE0F801868197810E943A203A
:101B50007C0167E877E00E94F51F66E0C7010E94FC
:101B60003A2066E00E943A20D8015C96DC905C97AF
:101B700066E016968D919C9117970E943A2066E038
:101B80000E943A206BE00E943A207C0162E377E0F9
:101B90000E94F51F6D2DC7010E9430216BE00E944D
:101BA0003A207C0167E577E00E94F51F66E0C701F7
:101BB0000E943A206BE00E943A207C0160E677E0C8
:101BC0000E94F51F66E0C7010E943A2062E0C8014A
:101BD0000E94321CF801158E28CD6BE0F801868139
:101BE00097810E943A207C0162E077E00E94F51F15
:101BF000D701ED91FC910280F381E02D61E7C701EF
:101C0000099566E0C7010E943A206BE00E943A20E5
:101C10007C016FE077E00E94F51F66E0C7010E943B
:101C20003A2061E0C8010E94321CF801158E81E063
:101C3000858BFBCC223609F467C0263609F00FC12C
:101C40006BE0868197810E943A207C0161E278E016
:101C50000E94F51FD701ED91FC910280F381E02DE8
:101C600066E6C701099566E0C7010E943A206BE06D
:101C7000F801868197810E943A207C016CE078E02F
:101C80000E94F51F66E0C7010E943A200FB6F89443
:101C90000F920F900FBEE0914A03F0914B0322E0A8
:101CA00040E050E06085C8010E94A90AD8015D9615
:101CB0001C92C8010E94A206F801D48C66E08681BD
:101CC00097810E943A206BE00E943A207C0166EDE9
:101CD00077E00E94F51F6D2DC7010E9430216BE057
:101CE0000E943A207C0166EE77E00E94F51F6BE0CF
:101CF000C7010E943A207C0163EF77E065CD158E25
:101D0000C8010E942F0691CC6BE0868197810E94CA
:101D10003A207C0168E978E00E94F51FD701ED9137
:101D2000FC910280F381E02D62E6C701099566E02F
:101D3000C7010E943A206BE0F801868197810E94DA
:101D40003A207C0166E778E00E94F51F66E0C70153
:101D50000E943A20C8010E943A09D8015396CD90BA
:101D6000DC90549766E016968D919C9117970E948F
:101D70003A2066E00E943A206BE00E943A207C0103
:101D800064E678E00E94F51FB601C7010E947F203B
:101D90006BE00E943A207C0163E778E00E94F51F27
:101DA00066E0C7010E943A20F8014389548920E087
:101DB000648DC8010E94A90AD8015D961C92C801D1
:101DC0000E94A206F801D48C66E0868197810E9469
:101DD0003A206BE00E943A207C016EE278E00E949B
:101DE000F51F6D2DC7010E9430216BE00E943A2043
:101DF0007C016EE378E00E94F51F6BE0C7010E9452
:101E00003A207C016BE478E0DFCCC8012F830E948C
:101E10004308C8010E943A09D80152968C91529702
:101E20002F81813709F496C0F801C388D488C60190
:101E30000197029708F455C06BE0868197812F8344
:101E40000E943A207C0162E479E00E94F51F66E07E
:101E5000C7010E943A202F81F801258BE6CB66E06E
:101E6000D80116968D919C9117972F830E943A2046
:101E70006BE00E943A207C0168EE76E00E94F51F3C
:101E8000D701ED91FC910280F381E02D2F81622F2B
:101E9000C70109956BE0C7010E943A207C016AEEF8
:101EA00076E00E94F51F66E0C7010E943A20F80123
:101EB000D48C66E0868197810E943A206BE00E9474
:101EC0003A207C016BEC76E00E94F51F6D2DC70176
:101ED0000E9430216BE00E943A207C016BED76E09D
:101EE00073CC66E0868197810E943A2066E00E946A
:101EF0003A206BE00E943A207C016EE479E00E9477
:101F0000F51FB601C7010E947F2062E00E943A20BF
:101F10006BE00E943A207C0160E779E00E94F51FA7
:101F200066E0C7010E943A206BE00E943A207C01E3
:101F300062E779E00E94F51F66E0C7010E943A203F
:101F4000F8018389848F158E158A61E0C8010E948B
:101F5000321C6BCB6BE016968D919C9117970E946B
:101F60003A208C0165EA79E00E94F51FD801ED91D5
:101F7000FC910280F381E02D61E7C801099566E0DC
:101F8000C8010E943A2066E00E943A2066E00E9462
:101F90003A206BE00E943A208C0162EB79E00E94CB
:101FA000F51F66E0C8010E943A206BE00E943A20CB
:101FB0008C0165ED79E00E94F51F66E0C8010E9482
:101FC0003A206BE00E943A208C016BEE79E00E948F
:101FD000F51F66E0C8010E943A202BE088E190E0FE
:101FE0000FB6F894A895809360000FBE2093600010
:101FF000FFCF2F3309F40ACD243601F1233009F045
:1020000009CD6BE0D80116968D919C9117970E948F
:102010003A208C0166E07AE00E94F51F66E0C80174
:102020000E943A202BE088E190E00FB6F894A89542
:10203000809360000FBE20936000FFCFD8011696FA
:102040008D919C9117970E94911CEFCA6150710964
:1020500081E06230710508F080E00895FC01158E82
:102060000895CF93DF9300D000D0CDB7DEB78C01B9
:102070000E94261669837A838B839C8380918000DB
:10208000816A80938000809181008A6080938100C2
:1020900040E8E42EF12C15C0F8014685578560898B
:1020A00071894F5F5F4F6F4F7F4F46875787608BB8
:1020B000718B4AE050E060E070E0CE0101960E9432
:1020C000C6170FB6F8940F92E0914C03F0914D03B0
:1020D00020850F900FBE0FB6F8940F920F900FBE91
:1020E000E0914A03F0914B03D80152969C91808570
:1020F0009813D2CF213009F44AC02223A9F122300B
:1021000009F456C0233009F0C7CF61E0D8015596D5
:102110008D919C9156970E942E1197FD5DC09595CB
:10212000879595958795803891050CF447C0803840
:10213000910509F4B1CF6701C81AD90ACC0CDD1C8E
:10214000B601D80153968D919C9154970E94E91144
:102150000FB6F8940F92E0914E03F0914F03D186A1
:10216000C0860F900FBE98CF0FB6F8940F920F90C5
:102170000FBEE0914E03F0914F0360857185D80149
:1021800053968D919C9154970E94641285CF0FB6FF
:10219000F8940F920F900FBEE0914E03F0914F0311
:1021A00060857185F801838994890E94E91174CF53
:1021B000F801838994890E94B8126ECF9195819518
:1021C0009109880F991F6C01BFEFCB0ED11CB6018E
:1021D000F80183899489BACF0396A1CFAF92CF92A9
:1021E000DF92EF92FF920F931F93CF93DF93EC0157
:1021F0000E947C1B80EB92E099838883FC8AEB8AA7
:10220000DE8ACD8AAA8ADF91CF911F910F91FF902C
:10221000EF90DF90CF90AF900895CF93DF93FC01C4
:102220007183608320917C00206420937C00209146
:102230007A00256C20937A00C081D181209759F0D3
:1022400064EB72E0CE010E94F51F66E0CE01DF91E3
:10225000CF910C943A20DF91CF910895683008F027
:1022600060E080917C00887F80937C0080917C007E
:10227000862B80937C0080917A00806480937A0022
:1022800080917A0086FDFCCF8091780020917900C2
:1022900090E0922B0895DF92EF92FF920F931F939D
:1022A000CF93DF938C01D62EE42E80E48417E0F4E4
:1022B00080E4E82EF12CC0E0D0E06D2DC8010E9432
:1022C0002E11C80FD91FF394FE10F7CF6E2D70E0BA
:1022D000CE010E94092CCB01DF91CF911F910F916C
:1022E000FF90EF90DF9008954111E4CFC0E0D0E07F
:1022F000EDCF0F931F93CF93DF93EC016BE00E9420
:102300003A208C016CEB7AE00E94F51F66E0C80170
:102310000E943A206BE00E943A208C0167ED7AE03F
:102320000E94F51F66E0C8010E943A20CE01DF91AD
:10233000CF911F910F9108956F927F928F92AF92DC
:10234000CF92EF92FF920F931F93CF93DF93CDB76E
:10235000DEB7FC013B018E85718360835583448326
:102360003187208715870487F38AE28AC686A78685
:10237000808A818B41505109538342832150310916
:102380003783268301501109138702876115710570
:10239000A1F063ED72E0C3010E94F51F66E0C30186
:1023A000DF91CF911F910F91FF90EF90CF90AF9061
:1023B0008F907F906F900C943A20DF91CF911F9176
:1023C0000F91FF90EF90CF90AF908F907F906F9094
:1023D0000895CF93FC01A281B381CC9181E090E07C
:1023E000AC01068402C0440F551F0A94E2F79C0119
:1023F000078402C0220F331F0A94E2F7242B2C2BF0
:102400002C93A681B7814C919C01008802C0220FB9
:10241000331F0A94E2F7209524232C93A285B385D9
:102420004C919C01018802C0220F331F0A94E2F7ED
:10243000422B4C93A085B1854C919C01008802C031
:10244000220F331F0A94E2F7422B4C93A481B581EB
:102450004C919C0177FD1BC0068402C0220F331FE4
:102460000A94E2F7422B4C93A481B5812C91078406
:1024700002C0880F991F0A94E2F7809582238C93FB
:102480000288F389E02D71836083CF9108950784DA
:1024900002C0220F331F0A94E2F7422B4C93A4810F
:1024A000B5812C91068402C0880F991F0A94E2F727
:1024B000809582238C930288F389E02D7195619534
:1024C000710971836083E1CFFC01A281B3816C91BA
:1024D00081E090E0AC01068402C0440F551F0A94CD
:1024E000E2F79C01078402C0220F331F0A94E2F72F
:1024F000242B262B2C93A681B7814C919C0100881C
:1025000002C0220F331F0A94E2F7209524232C9354
:10251000A285B3854C919C01018802C0220F331F14
:102520000A94E2F7422B4C93A085B1854C919C0113
:10253000008802C0220F331F0A94E2F7422B4C930B
:10254000A481B5814C919C01068402C0220F331FE7
:102550000A94E2F7422B4C93A481B5812C91078415
:1025600002C0880F991F0A94E2F7282B2C93089534
:10257000FC01A281B3816C9181E090E0AC01068402
:1025800002C0440F551F0A94E2F79C01078402C061
:10259000220F331F0A94E2F7242B262B2C93A681BB
:1025A000B7814C919C01008802C0220F331F0A940E
:1025B000E2F7209524232C93A285B3854C919C01AE
:1025C000018802C0220F331F0A94E2F7422B4C937A
:1025D000A085B1854C919C01008802C0220F331F59
:1025E0000A94E2F7422B4C93A481B5814C919C0153
:1025F000068402C0220F331F0A94E2F72095242399
:102600002C93A481B5812C91078402C0880F991F57
:102610000A94E2F7809582238C930895EF92FF92BB
:102620000F931F93CF93DF93EC01DB015296ED9153
:10263000FC915397E080F1806BE00E943A208C017E
:1026400066EE7AE00E94F51FB701C8010E94AE2035
:1026500066E00E943A20CE01DF91CF911F910F9149
:10266000FF90EF9008950F931F93CF93DF93EC01AA
:102670000E94201680915203811121C08CE593E0C5
:10268000909358038093570310925A031092590362
:1026900087E397E190935603809355031092540378
:1026A0001092530390935F0380935E0383E593E05E
:1026B00090935D0380935C0381E0809352032097A5
:1026C00009F460C0AE014C5F5F4F2396C633D7411B
:1026D00008F058C0E0915703F0915803A7E5B3E024
:1026E00006C080819181009739F0DF01FC012281D1
:1026F000338124173507A8F3C3E0E335FC0709F459
:1027000041C00D911C9111970C5F1F4F80819181E9
:102710008D939C93C901841B950B8930910500F121
:10272000BF01640F751FDB0113969C938E93129764
:102730005383428312968D919C911397A7E5B3E042
:1027400001C0DF01ED91FC9111972281338128179F
:102750003907B8F3EB01F983E8836D937C939A0111
:102760008091000290910102821B930B90930102D1
:10277000809300020E945317C801DF91CF911F91EF
:102780000F91089500E010E00E945317C801DF91F7
:10279000CF911F910F910895CF93DF93009721F16F
:1027A000EC0124970E9420164A815B81A7E5B3E0E3
:1027B00001C0DF01ED91FC91119722813381241733
:1027C0003507B8F3F983E883CD93DC938091000259
:1027D00090910102840F951F909301028093000253
:1027E000DF91CF910C945317DF91CF910895809191
:1027F000000290910102089508958091C81A8230D4
:1028000018F00E94AE24F9CFFFCFCF92DF92EF9263
:10281000FF926B017C01E091931AF091941A62830C
:1028200073838483958380919C1A90919D1AA091C3
:102830009E1AB0919F1A6091931A7091941AC816BB
:10284000D906EA06FB0610F18091B01A9091B11AF0
:102850006E5F7F4F0E947523809102029091030268
:10286000A0910402B0910502C816D906EA06FB063B
:1028700040F4C0920202D0920302E0920402F0926D
:102880000502FF90EF90DF90CF9008958091AE1AEF
:102890009091AF1A6E5F7F4FFF90EF90DF90CF90D7
:1028A0000C9475235F926F927F928F929F92AF925A
:1028B000BF92CF92DF92EF92FF920F931F93CF932D
:1028C000DF934C01162F572E5A01390189E290E00F
:1028D0000E943313EC01009709F4E9C0C114D1043C
:1028E00009F4DAC0DC8ECB8EC601A50165EA70E082
:1028F0000E94722D21E0A21AB108CB8CDC8CCA0C8C
:10290000DB1CAE01435E5F4FE12FF52D2AE0CF01C6
:102910003191DA013D93AD01DC018C91882311F0F6
:102920002150A9F71EA2102F043008F07DC01A8F85
:102930001FA318A65E01B2E0AB0EB11CC5010E9438
:102940005023CE010E960E945023DB87CA8784E075
:1029500090E0A0E0B0E0811B9109A109B1098E8748
:102960009F87A88BB98BDF8BCE8BA301B401C601E7
:102970000E94DE2399838883E114F10419F0F701A2
:10298000D183C0830FB6F8940F928091A01A8F5F05
:102990008093A01A8091931A9091941A892B09F42C
:1029A00049C080919A1A81110BC0E091931AF0915D
:1029B000941A828D081720F0D093941AC093931A1A
:1029C0008091961A8F5F8093961A8A8D90919B1AA8
:1029D000981738F1FBE08F9FC0011124B50188538F
:1029E000954E0E9454230F900FBE80919A1A88230F
:1029F00039F0E091931AF091941A828D8017B0F01B
:102A000081E0DF91CF911F910F91FF90EF90DF90C8
:102A1000CF90BF90AF909F908F907F906F905F907E
:102A2000089580939B1AD6CF13E081CF0E94AE24E5
:102A300081E0E7CFD093941AC093931A8091A01AA3
:102A4000813009F0BDCF88EC9AE10E943F2383EDED
:102A50009AE10E943F238EED9AE10E943F2389EE86
:102A60009AE10E943F238DEB9AE10E943F2382EB83
:102A70009AE10E943F2383EA9AE10E943F238DEB73
:102A80009AE19093B11A8093B01A82EB9AE19093F5
:102A9000AF1A8093AE1A94CFC5010E9433139C8F56
:102AA0008B8F009709F021CFCE010E94CC138FEFBE
:102AB000A8CF0FB6F8940F92009729F00F900FBE91
:102AC000FC01828D08958091931A9091941A0F9031
:102AD0000FBEFC01828D0895EF92FF921F93CF935A
:102AE000DF93EC01262F643008F023E00FB6F89452
:102AF0000F92209709F44AC03FA13217A9F18091A3
:102B0000931A9091941A3217B8F5C817D90741F063
:102B1000E091931AF091941A11E0828D281708F42D
:102B200010E08A8D381769F12FA34E855F8568897B
:102B3000798977FD0CC044E050E060E070E0421B12
:102B40005109610971094E875F87688B798B2BE08A
:102B5000829FC00111248853954E2C853D852817EE
:102B60003907C9F0113079F00F900FBEDF91CF9186
:102B70001F91FF90EF90089511E0C817D90781F6D3
:102B8000D0CF2A8FD1CF0E94AE24EECFC091931A1E
:102B9000D091941AB1CF7E0182E0E80EF11CC701FA
:102BA0000E94B2238A8D90919B1A981710F48093FB
:102BB0009B1A2BE0829FC0011124B7018853954EC8
:102BC0000E945423CFCFAF92BF92CF92DF92EF9269
:102BD000FF920F93A12CB12CC12CD12C81EAE82EAD
:102BE0008AE1F82E00E020E030E044E650E068EFB3
:102BF00072E08DEF93E10E945214813041F00F9109
:102C0000FF90EF90DF90CF90BF90AF900895F89431
:102C100080939A1A10929C1A10929D1A10929E1AE2
:102C200010929F1A0F91FF90EF90DF90CF90BF907E
:102C3000AF900C947224F89410929A1A0C94AD24CC
:102C40008091951A8F5F8093951A08950FB6F89426
:102C50000F9260919C1A70919D1A80919E1A90918A
:102C60009F1A0F900FBE089560919C1A70919D1A43
:102C700080919E1A90919F1A08958091A01A0895AC
:102C8000009711F04D9608958091931A9091941A9F
:102C90004D9608958091A11A9091A21A0895AF922D
:102CA000BF92CF92DF92EF92FF920F931F93CF9339
:102CB000DF938091951A8111CFC080919C1A9091D9
:102CC0009D1AA0919E1AB0919F1A0196A11DB11D47
:102CD00080939C1A90939D1AA0939E1AB0939F1A6A
:102CE000C0909C1AD0909D1AE0909E1AF0909F1A66
:102CF000C114D104E104F10439F58091B01A909126
:102D0000B11A2091AE1A3091AF1A3093B11A2093B4
:102D1000B01A9093AF1A8093AE1A8091971A8F5F72
:102D20008093971AE091B01AF091B11A80818111C5
:102D30009AC08FEF9FEFDC01809302029093030211
:102D4000A0930402B09305028091020290910302C5
:102D5000A0910402B0910502B12CC816D906EA066A
:102D6000FB0608F457C09BE0A92EE091B01AF09141
:102D7000B11A8081882309F442C0E091B01AF09121
:102D8000B11A0780F085E02DC085D1854A815B812D
:102D90006C817D81C416D506E606F70608F47AC074
:102DA0008E010E5F1F4FC8010E94B223888D998D3E
:102DB000892B21F0CE010E960E94B2238A8D90912C
:102DC0009B1A981710F480939B1AA89EC001112497
:102DD000B8018853954E0E945423E091931AF091C4
:102DE000941A9A8D828D981708F4BFCFBB24B394A0
:102DF000E091B01AF091B11A80818111BECF4FEFEE
:102E00005FEFBA0140930202509303026093040201
:102E100070930502E091931AF091941AE28D8BE081
:102E2000E89FF0011124E853F54E8081823010F0C4
:102E3000BB24B3948091981A882311F0BB24B394D7
:102E40008B2DDF91CF911F910F91FF90EF90DF902D
:102E5000CF90BF90AF9008958091991A8F5F809323
:102E6000991AB12CE7CFE091B01AF091B11A07800E
:102E7000F085E02D0084F185E02D82819381A4818D
:102E8000B5818093020290930302A0930402B09351
:102E900005025ACF4093020250930302609304024A
:102EA00070930502B7CFEF92FF920F931F93CF93CA
:102EB000DF930FB6F8940F928091951A815080930A
:102EC000951A8091951A811150C08091A01A88237B
:102ED00009F44BC02BE0F22EEE24E39427C0E091DE
:102EE000AA1AF091AB1AC085D185CE010E960E9428
:102EF000B2238E010E5F1F4FC8010E94B2238A8D3C
:102F000090919B1A981710F480939B1AF89EC00119
:102F10001124B8018853954E0E945423E091931ACE
:102F2000F091941A9A8D828D981748F58091A31A82
:102F30008111D5CF8091991A882399F08091991A9F
:102F4000882379F0C1E00E944F168111C093981A2E
:102F50008091991A81508093991A8091991A8111C0
:102F6000F2CF8091981A813069F080E00F900FBE07
:102F7000DF91CF911F910F91FF90EF900895E09214
:102F8000981AD4CF0E94AE2481E0F0CFCF92DF9286
:102F9000EF92FF920F931F93CF93DF9300D000D057
:102FA000CDB7DEB72091951A2F5F2093951AC09068
:102FB0009C1AD0909D1AE0909E1AF0909F1AFC01E6
:102FC0000081118122813381400F511F621F731FC5
:102FD000C016D106E206F306E8F44017510762076F
:102FE0007307E8F0FC0140835183628373830E947E
:102FF0005317811102C00E94AE240F900F900F90C2
:103000000F90DF91CF911F910F91FF90EF90DF9084
:10301000CF900895401751076207730728F0C41630
:10302000D506E606F706F0F6FC014083518362837D
:1030300073838091931A9091941A029649835A83CC
:103040006B837C830E94B22349815A816B817C818E
:10305000CB01BA010E940514CACFCF92DF92EF9242
:10306000FF92611571058105910539F40E94AE2426
:10307000FF90EF90DF90CF9008952091951A2F5FE9
:103080002093951AC0909C1AD0909D1AE0909E1A99
:10309000F0909F1AC60ED71EE81EF91E8091931A53
:1030A0009091941A02960E94B223C701B6010E9421
:1030B00005140E9453178823C9F2FF90EF90DF9008
:1030C000CF9008958091951A81113BC01092981A63
:1030D000E0919B1A8BE0E89FF0011124E853F54E34
:1030E0008081811110C09BE080919B1A8150809358
:1030F0009B1AE0919B1A9E9FF0011124E853F54E14
:103100008081882389F3E0919B1A8BE0E89FF0018E
:103110001124E853F54EA181B28114960D90BC9113
:10312000A02DB283A183CF010396A817B90769F038
:1031300018968D919C9119979093941A8093931A55
:10314000089581E08093981A089514969C9114979D
:1031500015968C9191838283A92FB82FE9CFCF92B6
:10316000DF92EF92FF926A017B016091931A709156
:10317000941A625F7F4F0E9475238091931A9091F9
:10318000941A02960E94B22360919C1A70919D1A23
:1031900080919E1A90919F1A6C0D7D1D8E1D9F1D12
:1031A000FF90EF90DF90CF900C940514CF92DF92B8
:1031B000EF92FF920F931F9368017901E091931AA8
:1031C000F091941A706846875787608B718B609175
:1031D000931A7091941A625F7F4F0E9454238091DA
:1031E000931A9091941A02960E94B22360919C1AAD
:1031F00070919D1A80919E1A90919F1A6C0D7D1D61
:103200008E1D9F1D1F910F91FF90EF90DF90CF902B
:103210000C9405140F931F93CF93DF93DC01179643
:10322000ED91FC911897C085D1858E01025F1F4FEB
:10323000C8010E94B2238091951A811124C08E0189
:103240000E5F1F4FC8010E94B2238A8D90919B1A76
:103250009817F8F0BBE08B9FC0011124B801885388
:10326000954E0E945423E091931AF091941A9A8DEE
:10327000828D891788F481E08093981ADF91CF912D
:103280001F910F910895B80183EA9AE10E94542397
:10329000EACF80939B1ADECF80E0DF91CF911F9120
:1032A0000F9108950F931F93CF93DF937068FC01E4
:1032B0004083518362837383C085D1850E94B2238A
:1032C0008E010E5F1F4FC8010E94B2238A8D90911C
:1032D0009B1A981710F480939B1AFBE08F9FC001F4
:1032E0001124B8018853954E0E945423E091931AFB
:1032F000F091941A9A8D828D891740F481E0809321
:10330000981ADF91CF911F910F91089580E0DF917E
:10331000CF911F910F9108952091971AFC0120835E
:1033200040919C1A50919D1A60919E1A70919F1A1B
:10333000418352836383748308958F929F92AF92E7
:10334000BF92CF92DF92EF92FF920F931F93FC01F7
:10335000DB010FB6F8940F9240919C1A50919D1A80
:1033600060919E1A70919F1A8091971A90810181A5
:10337000128123813481981729F040175107620781
:10338000730770F5CD90DD90ED90FC9013974A0196
:103390005B01801A910AA20AB30A8C149D04AE0440
:1033A000BF04F0F4C41AD50AE60AF70AC00ED11E0B
:1033B000E21EF31ECD92DD92ED92FC921397809166
:1033C000971A808380919C1A90919D1AA0919E1AC1
:1033D000B0919F1A81839283A383B48380E001C05C
:1033E00081E00F900FBE1F910F91FF90EF90DF9043
:1033F000CF90BF90AF909F908F90089581E0809381
:10340000981A0895009799F0DC015B96ED91FC9174
:103410005C978081853A81F4319680E090E0DC0110
:103420000196A11DB11D2191253AD1F308958091F6
:10343000931A9091941AE8CF80E008958091931A9E
:103440009091941A08950F931F93CF93DF93EC01FB
:10345000009781F18A8DE091931AF091941A928DE0
:10346000891740F54E855F856889798977FD11C098
:10347000E091931AF091941A928D44E050E060E04C
:1034800070E0491B5109610971094E875F87688B9C
:10349000798B2BE0829FC00111248853954E2C8597
:1034A0003D852817390759F0E091931AF091941A45
:1034B000828D8A8FDF91CF911F910F9108958E0198
:1034C0000E5F1F4FC8010E94B223E091931AF09142
:1034D000941A828D8A8F90919B1A981710F480937A
:1034E0009B1A2BE0829FC0011124B8018853954E8E
:1034F000DF91CF911F910F910C9454230F931F9341
:10350000CF93DF93EC01009749F088A5815088A7FD
:103510002A8D9FA1291711F0882331F080E0DF91D7
:10352000CF911F910F9108958E010E5F1F4FC8011B
:103530000E94B2238FA18A8F44E050E060E070E0E7
:10354000481B5109610971094E875F87688B798B28
:1035500090919B1A981710F480939B1A2BE0829FEE
:10356000C0011124B8018853954E0E94542381E074
:10357000DF91CF911F910F910895CF92DF92EF923B
:10358000FF92E091931AF091941A6685778580896D
:103590009189E091931AF091941AA091931AB091A5
:1035A000941A5A962C9134E0C32ED12CE12CF12C94
:1035B000C21AD108E108F108C686D786E08AF18AE6
:1035C000FF90EF90DF90CF9008958091931A9091A3
:1035D000941A892B39F0E091931AF091941A80A5EE
:1035E0008F5F80A78091931A9091941A0895EF921B
:1035F000FF920F931F93CF93DF9300D0CDB7DEB729
:103600007C0181E093E0F70191838083611571056E
:10361000C1F0FB0101900020E9F73197E61BED3086
:1036200020F50E2F10E0C801019669837A830E946D
:10363000C51FF70195838483A80169817A810E945F
:10364000792D8091F41A9091F51AF701978386836A
:10365000F092F51AE092F41A0F900F90DF91CF914B
:103660001F910F91FF90EF900895ECE0DACF0F9348
:103670001F93CF93DF93EC018091F41A9091F51A88
:103680006BE0892B49F1CE010E943A208C016CE35A
:103690007BE00E94F51F66E0C8010E943A206BE0C3
:1036A000CE010E943A208C0169E17BE00E94F51F67
:1036B00066E0C8010E943A208091F41A9091F51AB0
:1036C000DC01ED91FC910190F081E02DBE01DF91D4
:1036D000CF911F910F910994CE010E943A20EC01E5
:1036E0006BEF7AE00E94F51F66E0CE01DF91CF918B
:1036F0001F910F910C943A204F925F926F927F929C
:103700008F929F92AF92BF92CF92DF92EF92FF92F1
:103710000F931F93CF93DF93EC013B0149012801E5
:10372000FC0187E093E081939193A12CB12CC12CF3
:10373000D12C7F01042F9E01A4018CEA9BE20E9400
:1037400052145F824E82998688862091F61A3091B3
:10375000F71A3D832C83D093F71AC093F61A1C8670
:103760001D868090041B9090051B9FEF891A990A73
:103770009092051B8092041B9B868A861E861F865C
:10378000188A198A4114510409F44CC06BE0813045
:1037900041F1C2010E943A20EC016FE57BE00E94FA
:1037A000F51FB301CE010E94F51FE881F981028067
:1037B000F381E02D62E2CE01099566E0CE01DF9152
:1037C000CF911F910F91FF90EF90DF90CF90BF901E
:1037D000AF909F908F907F906F905F904F900C94E0
:1037E0003A20C2010E943A20EC0165E77BE00E948A
:1037F000F51FB301CE010E94F51F6BE0CE010E94C0
:103800003A20EC016CE77BE00E94F51F63E0CE01FB
:103810000E943A20B4010E94AE2062E00E943A2049
:1038200066E0CDCFDF91CF911F910F91FF90EF9088
:10383000DF90CF90BF90AF909F908F907F906F90D0
:103840005F904F900895EC01E881F9810190F0813B
:10385000E02D09951B821A826FEF7FEFCB010E944A
:103860002D18FACFFC01648765870895FC01C68195
:10387000D781209739F0CE010E94F51F66E0CE0176
:103880000E943A202BE088E190E00FB6F894A895CA
:10389000809360000FBE20936000FFCF0E94261629
:1038A0000E94DB2C20E030E04AE754E40E94732CB5
:1038B0000895CF92DF92EF92FF920F931F93CF93D1
:1038C000DF93EC017B018A819B810E9440166C0191
:1038D0006BE0C7010E943A208C0163E97BE00E9403
:1038E000F51FB601C8010E94F51F66E0C8010E94DD
:1038F0003A208A859B8528853985A701BC01821BD2
:10390000930B0E943E1F0C80DD81C02D2097D9F6BD
:10391000DF91CF911F910F91FF90EF90DF90CF90AB
:1039200008950F931F93CF93DF93EC018091F61AC4
:103930009091F71A009719F0BE010E94591C6BE094
:10394000CE010E943A208C016AE97BE00E94F51FBB
:1039500066E0C8010E943A208091041B9091051BEB
:10396000BC016F5F7F4FAE0183569109DF91CF910C
:103970001F910F910C943E1F8F929F92AF92BF9216
:10398000CF92DF92EF92FF920F931F93CF93DF932B
:10399000EC018B018A819B810E944016BC01C80109
:1039A0000E94F51FD801ED91FC910280F381E02D7A
:1039B00069E0C80109958A819B810E944016FC013B
:1039C00001900020E9F73197E81BF90B389748F48C
:1039D000D801ED91FC910280F381E02D69E0C801EE
:1039E0000995CE84DF84E888F988A884B9848A811F
:1039F0009B810E94021A982E8C848A819B810E944E
:103A00005915682FC8010E9430216BE00E943A20AE
:103A1000EC016EE07CE00E94F51F682DCE010E9453
:103A200030216BE00E943A20EC0160E17CE00E94D2
:103A3000F51F692DCE010E9430216BE00E943A20D3
:103A4000EC0162E17CE00E94F51FB501CE010E940D
:103A5000AE206BE00E943A20EC0164E17CE00E9421
:103A6000F51F6BE0CE010E943A20EC0166E17CE09C
:103A70000E94F51FB701A601CE01DF91CF911F91E2
:103A80000F91FF90EF90DF90CF90BF90AF909F90FD
:103A90008F900C94E8200F931F93CF93DF93EC014A
:103AA0008B01E881F9810280F381E02DB801CE011C
:103AB000099566E0C8010E943A200C80DD81C02D86
:103AC000209779F7DF91CF911F910F910895CF93B0
:103AD000DF93EC01CB01DB01ED91FC910280F381DE
:103AE000E02DBE010995CE01DF91CF9108950F938E
:103AF0001F93CF93DF93EC016BE00E943A208C017F
:103B00006CEF7BE00E94F51F6BE0C8010E943A2039
:103B10008C0167E07CE00E94F51F66E0C8010E940E
:103B20003A206BE0CE010E943A208C0169ED7BE0E7
:103B30000E94F51F6BE0C8010E943A208C016AEEDA
:103B40007BE00E94F51F6BE0C8010E943A208C01C7
:103B500066EF7BE00E94F51F66E0C8010E943A20F4
:103B60006BE0CE010E943A208C0166EB7BE00E9464
:103B7000F51F6BE0C8010E943A208C0167EC7BE0E6
:103B80000E94F51F6BE0C8010E943A208C0163ED92
:103B90007BE00E94F51F66E0C8010E943A208091F8
:103BA000F61A9091F71A009719F0BE010E944B1D6A
:103BB0000E944A160E94021A182F6BE0CE010E9442
:103BC0003A20EC0165EA7BE00E94F51F612FCE01EF
:103BD0000E9430216BE00E943A20EC0160EB7BE018
:103BE0000E94F51F64E670E0CE010E94AE206BE0FB
:103BF0000E943A20EC0162EB7BE00E94F51F66E038
:103C0000CE01DF91CF911F910F910C943A20CF926A
:103C1000DF92EF92FF920F931F93CF93DF937C017C
:103C20008B01DC011A966D917C911B97C8010E9453
:103C3000F51FF701A285B385FD0101900020E9F78A
:103C40003197DE2EDA1AFFE0FD1580F0C0E0D0E0FB
:103C5000D801ED91FC910280F381E02D60E2C80172
:103C6000099521968C2F8D0D803190F36BE073E0D8
:103C7000C8010E94F51FD7015696CD90DC9057974A
:103C80001E968D919C911F970E940729682FC8014D
:103C90000E943021EC01E881F9810280F381E02D5E
:103CA0006FE20995B601CE010E94AE20DC01ED91D4
:103CB000FC910280F381E02D69E0099566E0C8017E
:103CC0000E943A20F70184859585009781F0DC01F8
:103CD000ED91FC910190F081E02DB801DF91CF9141
:103CE0001F910F91FF90EF90DF90CF900994DF919B
:103CF000CF911F910F91FF90EF90DF90CF9008959B
:103D00006F927F928F929F92AF92BF92CF92DF92EB
:103D1000EF92FF920F931F93CF93DF93EC01762ED8
:103D2000672E4A015901670178010E94EA1FB40118
:103D3000CE0106960E94F71A86E193E09983888364
:103D400028E233E03F832E83BD8AAC8A40E061E005
:103D5000872D0E9478269F878E87C88AD98AEA8A0B
:103D6000FB8A7E8A6F8ADF91CF911F910F91FF901E
:103D7000EF90DF90CF90BF90AF909F908F907F900B
:103D80006F90089506970C94071ECF92DF92EF92E2
:103D9000FF920F931F93CF93DF93CDB7DEB72F978B
:103DA0000FB6F894DEBF0FBECDBF8C017B01DB01E7
:103DB0006D917D918D919C9128EE33E040E050E033
:103DC0000E941D2CBA01A901C8010E94E820D80157
:103DD000ED91FC910280F381E02D6EE2C80109951E
:103DE000C7010E9430296E01B9E0CB0ED11C7E01C3
:103DF000EFE0EE0EF11C2AE030E040E050E00E94DF
:103E00003F2CE62F29833A834B835C8369817A8137
:103E10008B819C81E05DD701EE937D01AC15BD05E2
:103E200051F71F86BD01C8010E94F51FC8012F96DA
:103E30000FB6F894DEBF0FBECDBFDF91CF911F91BB
:103E40000F91FF90EF90DF90CF900895CF93DF9385
:103E5000EC010FB6F8940F92809124019091250106
:103E60009D838C830E942616688379838A839B8333
:103E70000F900FBECE01DF91CF9108958F929F9248
:103E8000AF92BF92CF92DF92EF92FF920F931F9368
:103E9000CF93DF936C014B01EA0163E0CA010E94FA
:103EA0003A20C814D90408F059C0560184E1A80E7C
:103EB000B11C7501B601CE010E94AE206BE00E94DC
:103EC0003A2068E17CE00E94F51F8601F8016191CB
:103ED0008F01CE010E943021E881F9810280F381B7
:103EE000E02D60E2CE0109950E151F0579F7E881F6
:103EF000F9810280F381E02D60E2CE0109950FC0C7
:103F000080EE860FE881F9810280F381E02D8F3504
:103F100008F06EE2CE010995CE14DF0481F0F601BF
:103F200061916F01653A61F7E881F9810280F3815F
:103F3000E02D60E2CE010995CE14DF0481F7650122
:103F400066E0CE010E943A20F4E1EF0EF11CA814C5
:103F5000B90420F4C50144965C01ACCF62E0CE0107
:103F6000DF91CF911F910F91FF90EF90DF90CF9055
:103F7000BF90AF909F908F900C943A200C94331385
:103F8000009711F00C94CC1308950C943313009700
:103F900011F00C94CC130895FC0181E090E0208195
:103FA000222311F080E090E0089521E0FC012083BD
:103FB00008950895089581E0089580E0089580E0CF
:103FC00008950895DC01ED91FC910280F381E02DCC
:103FD0006CE00994FC018EE293E0918380838AE097
:103FE000828383E08583148208950F931F93CF9378
:103FF000DF93EC01FB018C81811117C06081662386
:1040000079F08F010F5F1F4FE881F9810280F38102
:10401000E02DCE010995F80161918F016111F4CF76
:10402000DF91CF911F910F9108951C828B010F5F3B
:104030001F4F64916623A1F3A881B9811296ED9177
:10404000FC911397CE010995F80164910F5F1F4F02
:104050006111F2CFE5CF883008F087E08093070246
:1040600089E008959EEF980F9F3010F48093060228
:104070008AE00895CF93DF93EC01462F50E04C3057
:10408000510538F4FA01EA59FF4F0C945E2C82E096
:104090008A83CE01DF91CF91089581E08C83F9CF9F
:1040A00088E08A83F6CF8AE08A83F3CF80E18A832F
:1040B000F0CFE881F9810280F381E02D6DE0099570
:1040C000E881F9810280F381E02D6AE0CE01099553
:1040D000E0CFE881F9810284F385E02D0995D9CFFD
:1040E000E881F9810084F185E02D0995D2CF809196
:1040F00007028D83CECF809106028A83CACF0F93A9
:104100001F93CF93DF93CDB7DEB761970FB6F894C7
:10411000DEBF0FBECDBF8C01CB01F80122812A305A
:1041200079F0C8010E94AE20C80161960FB6F894DC
:10413000DEBF0FBECDBFDF91CF911F910F910895CC
:104140004AE050E0BE016F5F7F4F0E94882DBE01A4
:104150006F5F7F4FC8010E94F51FE6CFFF920F935C
:104160001F93CF93DF93CDB7DEB761970FB6F89467
:10417000DEBF0FBECDBF8C01F62E972FF801428116
:10418000403191F0483081F0423071F050E0BE0192
:104190006F5F7F4F8F2D0E94CE2DBE016F5F7F4FCF
:1041A000C8010E94F51F07C0692FC8010E94302175
:1041B0006F2D0E943021C80161960FB6F894DEBFC2
:1041C0000FBECDBFDF91CF911F910F91FF9008954A
:1041D000DF92EF92FF920F931F93CF93DF93CDB7B0
:1041E000DEB7A1970FB6F894DEBF0FBECDBF8C012E
:1041F000D42EE52EF62E972FF80122812031A1F042
:10420000283091F0223081F030E0AE014F5F5F4FF7
:104210006D2D7E2D8F2D0E94A92DBE016F5F7F4FCA
:10422000C8010E94F51F0DC0692FC8010E943021EE
:104230006F2D0E9430216E2D0E9430216D2D0E9425
:104240003021C801A1960FB6F894DEBF0FBECDBFD6
:10425000DF91CF911F910F91FF90EF90DF90089524
:10426000CF92DF92EF92FF920F931F93CF93DF9342
:10427000CDB7DEB729970FB6F894DEBF0FBECDBF1E
:104280008C01D62EDC0113968C91139781115DC0A1
:10429000F80142814230D9F14031F1F050E0BE01E5
:1042A0006F5F7F4F8D2D90E00E94CE2DBE016F5F1E
:1042B0007F4FC8010E94F51FC80129960FB6F894D8
:1042C000DEBF0FBECDBFDF91CF911F910F91FF9049
:1042D000EF90DF90CF90089562956F700190F0811C
:1042E000E02D0280F381E02D6A30B8F5605DC801F1
:1042F00009956D2D6F70D801ED91FC910280F381CD
:10430000E02D6A3060F1695CC8010995D5CF88E07D
:10431000E82EF12C90E8C92E0AC061E3C801099586
:10432000C694B1E0EB1AF108E114F10429F28C2DE6
:104330008D21D801ED91FC910280F381E02D811156
:10434000ECCF60E3C8010995EBCFED91FC910280C1
:10435000F381E02DC8010995AFCF695CC8CF605DDE
:10436000D3CFDC011896ED91FC91199780811C96B2
:104370009C911C97892359F421E23EE405C0215009
:1043800031092115310571F080818923C1F38081C4
:104390001E969C911E97892B80831696ED91FC9119
:1043A000179760830895FC01878581111DC02091B6
:1043B000001B3091011B8091FE1A9091FF1A281763
:1043C000390789F0E091021BF091031BE20FF31F04
:1043D00080812F5F3F4F2032310518F11092011B71
:1043E0001092001B0895FFCF2091FA1A3091FB1A0A
:1043F0008091F81A9091F91A2817390789F0E091FD
:10440000FC1AF091FD1AE20FF31F80812F5F3F4FDE
:104410002032310558F01092FB1A1092FA1A0895C2
:10442000FFCF3093011B2093001B08953093FB1A9C
:104430002093FA1A0895DC01ED91FC910280F3813A
:10444000E02D6CE00994FC018785882369F081E008
:104450004091FA1A5091FB1A2091F81A3091F91AEA
:104460004217530769F0089581E04091001B509175
:10447000011B2091FE1A3091FF1A4217530799F73A
:1044800080E00895EF92FF921F93CF93DF9300D0C7
:10449000CDB7DEB77C01142F69837A830E94EA1FAF
:1044A000412F69817A81C70106960E946E298EE3A9
:1044B00093E0F7019183808317871123E9F08091BE
:1044C000C90080688093C90080E290E00E94C51F07
:1044D0009093FD1A8093FC1A1092FB1A1092FA1A0C
:1044E0001092F91A1092F81A0F900F90DF91CF9155
:1044F0001F91FF90EF9008958091C1008068809394
:10450000C10080E290E00E94C51F9093031B80933E
:10451000021B1092011B1092001B1092FF1A1092A6
:10452000FE1A0F900F90DF91CF911F91FF90EF90A7
:1045300008951F920F920FB60F9211240BB60F928F
:104540002F933F938F939F93EF93FF932091C600F8
:10455000E091021BF091031B8091FE1A9091FF1ACB
:10456000E80FF91F20838091FE1A9091FF1A01969F
:1045700080329105C0F49093FF1A8093FE1A209127
:10458000001B3091011B28173907D1F0FF91EF91E3
:104590009F918F913F912F910F900BBE0F900FBE67
:1045A0000F901F9018951092FF1A1092FE1A80E03B
:1045B00090E02091001B3091011B2817390731F73B
:1045C00001969093011B8093001B8097F8F2109244
:1045D000011B1092001BDACF1F920F920FB60F92A1
:1045E00011240BB60F922F933F938F939F93EF93CA
:1045F000FF932091CE00E091FC1AF091FD1A80917A
:10460000F81A9091F91AE80FF91F20838091F81A8F
:104610009091F91A019680329105C0F49093F91A9D
:104620008093F81A2091FA1A3091FB1A281739074B
:10463000D1F0FF91EF919F918F913F912F910F902A
:104640000BBE0F900FBE0F901F9018951092F91A85
:104650001092F81A80E090E02091FA1A3091FB1A3B
:104660002817390731F701969093FB1A8093FA1AAD
:104670008097F8F21092FB1A1092FA1ADACFFC0126
:104680000396928381834FEF5FEFBA014383548394
:1046900065837683908787839287818710820895C8
:1046A000FC01138612860895CF93DF939C01FB01D2
:1046B000DC011196CD91DC911297D583C4838E8154
:1046C0009F81978386838E819F81DC0115967C93E1
:1046D0006E9314977F836E8333872287F9018081DD
:1046E0008F5F8083DF91CF9108950F931F93CF93B6
:1046F000DF93EB01088119812A813B810F3F4FEF46
:1047000014072407340731F1DC01139601C0DF01DF
:104710001496ED91FC9115974081518162817381CE
:10472000041715072607370790F7FD83EC83D78317
:10473000C683BF83AE831596DC93CE9314979B8775
:104740008A87FC0120812F5F2083DF91CF911F9109
:104750000F910895FC01A185B2851496ED91FC910D
:104760001597E3CFCF93DF93FC01A285B385248116
:10477000358186819781E9019F838E838681978128
:10478000EC013D832C8311962D913C9112972E17AD
:104790003F0741F0138612868C9181508C93DF91F4
:1047A000CF91089512969C938E931197138612863B
:1047B0008C9181508C93DF91CF9108959093051B3C
:1047C0008093041B31E1FC013083319722E2208386
:1047D000FC013297A3E3A083FC0133976083FC01C3
:1047E00034977083FC0135971082FC01369760E89E
:1047F0006083FC0137971082FC01389762E0608388
:10480000FC01399763E06083FC013A9764E06083C0
:10481000FC013B9765E06083FC013C9766E06083A8
:10482000FC013D9767E06083FC013E9768E0608390
:10483000FC013F9769E06083FC01709760E1608351
:10484000FC0171973083FC01729732E13083FC01E7
:10485000739733E13083FC01749734E13083FC01BA
:10486000759735E13083FC01769736E13083FC01A2
:10487000779737E13083FC01789738E13083FC018A
:10488000799739E13083FC017A9730E23083FC017B
:104890007B9731E23083FC017C972083FC017D977C
:1048A00023E22083FC017E974083FC017F975083A5
:1048B000FC01B09726E22083FC01B19727E2208318
:1048C000FC01B29728E22083FC01B39729E2208300
:1048D000FC01B49720E32083FC01B59721E32083FA
:1048E0008697089587E0809329018FEC80932801B3
:1048F0008AE080932101E3E7F0E080818260808399
:10490000A091931AB091941ACD91CDBFDD91DEBFE5
:10491000FF91EF91DF91CF91BF91AF919F918F91D7
:104920007F916F915F914F913F912F911F910F91C7
:10493000FF90EF90DF90CF90BF90AF909F908F90BF
:104940007F906F905F904F903F902F901F900F90AF
:104950000FBE0F90089581E0089508950F920FB64D
:10496000F8940F921F9211242F923F924F925F92D0
:104970006F927F928F929F92AF92BF92CF92DF926F
:10498000EF92FF920F931F932F933F934F935F9359
:104990006F937F938F939F93AF93BF93CF93DF9347
:1049A000EF93FF93A091931AB091941A0DB60D92C4
:1049B0000EB60D920E946218A091931AB091941AAB
:1049C000CD91CDBFDD91DEBFFF91EF91DF91CF9112
:1049D000BF91AF919F918F917F916F915F914F9117
:1049E0003F912F911F910F91FF90EF90DF90CF900B
:1049F000BF90AF909F908F907F906F905F904F90FF
:104A00003F902F901F900F900FBE0F9008950F9220
:104A10000FB6F8940F921F9211242F923F924F924B
:104A20005F926F927F928F929F92AF92BF92CF923E
:104A3000DF92EF92FF920F931F932F933F934F9329
:104A40005F936F937F938F939F93AF93BF93CF9316
:104A5000DF93EF93FF93A091931AB091941A0DB640
:104A60000D920EB60D920E944F1681110E9462188F
:104A7000A091931AB091941ACD91CDBFDD91DEBF74
:104A8000FF91EF91DF91CF91BF91AF919F918F9166
:104A90007F916F915F914F913F912F911F910F9156
:104AA000FF90EF90DF90CF90BF90AF909F908F904E
:104AB0007F906F905F904F903F902F901F900F903E
:104AC0000FBE0F9008950E94072518951F93CF934E
:104AD000DF93EC01142F88A181110DC08881998189
:104AE000892B09F44DC080E09E8D9F5F9E8FDF91E2
:104AF000CF911F910895482F50E011111CC08C8157
:104B00009D810E94692D28A18C819D81820F911D1C
:104B10009D838C832A813B818217930720F38881B0
:104B200099819D838C8380E09E8D9F5F9E8FDF9116
:104B3000CF911F9108958E819F810E94692D28A198
:104B400030E03195219531098E819F81820F931F2D
:104B50009F838E83688179818617970730F48A81D5
:104B60009B81820F931F9F838E83123009F0BBCFEE
:104B70008E8D882309F4B7CF8E8D81508E8FB3CF61
:104B80008A819B810E947E1A1B821A82ADCFFC0112
:104B9000CB0140A1442399F050E026813781240FB6
:104BA000351F37832683628173812617370720F0EC
:104BB0002081318137832683B9010C94692D0895B2
:104BC0000F931F93CF93DF93EC010FB6F8940F92DE
:104BD0008AA11816ECF48B898823D1F08E010D5E22
:104BE0001F4F09C08AA181508AA38AA1181684F494
:104BF0008B89882369F0C8010E940A19882391F3E0
:104C00000E94FE198AA181508AA38AA1181684F3F2
:104C10008FEF8AA30F900FBE0FB6F8940F9289A161
:104C20001816ECF488858823D1F08E01085F1F4F99
:104C300009C089A1815089A389A1181684F48885A7
:104C4000882369F0C8010E940A19882391F30E9401
:104C5000FE1989A1815089A389A1181684F38FEFC9
:104C600089A30F900FBEDF91CF911F910F910895EF
:104C7000CF93DF93EC010FB6F8940F92288139811E
:104C80008F8D78A1879FC0011124A901480F591F5A
:104C90005B834A831E8E3D832C83871B9109820F81
:104CA000931F9F838E838FEF89A38AA3611112C004
:104CB0008885811106C00F900FBE81E0DF91CF91F2
:104CC0000895CE0108960E940A198130A1F70E942A
:104CD000AE24F1CFCE0108960E943F23CE01439629
:104CE0000E943F230F900FBE81E0DF91CF91089586
:104CF0000F931F93CF93DF93182F062F882301F173
:104D000083E290E00E943313EC010097C9F0109FFA
:104D1000C001112401960E94331399838883892B43
:104D200061F01F8F08A361E0CE010E943826CE01FA
:104D3000DF91CF911F910F910895CE010E94CC1366
:104D4000C0E0D0E0CE01DF91CF911F910F91089587
:104D50006F927F928F929F92AF92BF92CF92DF928B
:104D6000EF92FF920F93CF93DF93CDB7DEB72997E2
:104D70000FB6F894DEBF0FBECDBF5C014B012E8392
:104D80003F834887598720E03C0188E0680E711C0A
:104D90000FB6F8940F92F501968D878D981708F449
:104DA00059C0023009F456C0CE80DF80E884F9840F
:104DB000CD28CE28CF2809F46FC0222309F441C0A2
:104DC0000F900FBE0E9420160FB6F8940F92F501B7
:104DD00081A18F3F09F43CC0F50182A18F3FB1F161
:104DE0000F900FBEBE016A5F7F4FCE0101960E94F9
:104DF0009D19811155C00FB6F8940F92F501968D4B
:104E00000F900FBEF501878D981314C04E815F81FE
:104E100068857985C3010E94AF18C5010E94E0250D
:104E20000E945317882311F021E0B2CF0E94AE24D4
:104E300021E0AECFC5010E94E0250E94531721E07A
:104E4000A7CFCE0101960E948C19BACF12A2C8CF6B
:104E500011A2C2CF402FB401C5010E946625F50101
:104E60009389911124C0811128C00F900FBE81E059
:104E700029960FB6F894DEBF0FBECDBFDF91CF915C
:104E80000F91FF90EF90DF90CF90BF90AF909F90E9
:104E90008F907F906F9008950F900FBE80E0E8CFC5
:104EA000C5010E94E0250E94531780E0E1CFC501B3
:104EB00043960E940A198130C1F60E94AE24D5CFD4
:104EC0000F93CF93DF9383E290E00E943313EC01C2
:104ED000009701F11B821A82198218821D821C829E
:104EE0001F821E821E8E81E08F8F18A28FEF89A3F2
:104EF0008AA3CE0108960E943F23CE0143960E94CA
:104F00003F2300E020E030E0A90160E070E0CE0146
:104F10000E94A826CE01DF91CF910F9108950F93A3
:104F20001F93CF93DF93EC018A019E8D8F8D98178D
:104F300040F0223031F080E0DF91CF911F910F914E
:104F40000895422FCE010E946625882331F0011575
:104F5000110519F081E0F80180838AA18F3F49F0A3
:104F60008AA18F5F8AA381E0DF91CF911F910F917A
:104F700008958B898823B9F3CE0143960E940A19BC
:104F8000882389F30115110571F381E0F80180830D
:104F9000D3CFAF92BF92CF92DF92EF92FF920F9357
:104FA000CF93DF93CDB7DEB729970FB6F894DEBF66
:104FB0000FBECDBF7C016B012E833F83488759878D
:104FC00090E0570183E1A80EB11C0FB6F8940F9240
:104FD000F701868D811169C04E815F816885798571
:104FE000452B462B472B09F47DC0992309F43EC07D
:104FF0000F900FBE0E9420160FB6F8940F92F70183
:1050000081A18F3F09F43EC0F70182A18F3F09F4CF
:105010003FC00F900FBEBE016A5F7F4FCE01019669
:105020000E949D19811171C00FB6F8940F92F7017B
:10503000868D0F900FBE81111EC0F7018081918176
:10504000892B41F14E815F8168857985C5010E9478
:10505000AF18C7010E94E0250E945317882311F062
:1050600091E0B3CF0E94AE2491E0AFCFCE01019684
:105070000E948C19BDCFC7010E94E0250E945317E2
:1050800091E0A3CF11A2F70182A18F3F09F0C1CF18
:1050900012A2BFCF0FB6F8940F92F70182819381CD
:1050A0000E94231A0F900FBECDCFA680B780B60105
:1050B000C7010E94C725F70101112EC0868D8150BE
:1050C000868F80819181892BB9F1F70180858823B2
:1050D00041F1C70108960E940A19813011F50E941A
:1050E000AE241FC00F900FBE80E029960FB6F89433
:1050F000DEBF0FBECDBFDF91CF910F91FF90EF903C
:10510000DF90CF90BF90AF900895C7010E94E02537
:105110000E94531780E0E9CFB782A682838981116C
:1051200004C00F900FBE81E0E0CFC70143960E94FC
:105130000A198823B1F3D3CF0E94E51AF7019383AC
:105140008283C3CF0F931F93CF93DF9300D0CDB74C
:10515000DEB78C01FC01868D811108C080E00F90C4
:105160000F90DF91CF911F910F910895C80149834E
:105170005A830E94C725F801868D8150868F81A1B0
:1051800049815A818F3F61F0F80181A18F5F81A32E
:1051900081E00F900F90DF91CF911F910F910895B3
:1051A00080858823A9F3C801089649835A830E9401
:1051B0000A1949815A81882359F34115510541F350
:1051C00081E0FA018083CBCF0F931F93CF93DF93BE
:1051D000EC018E8D811106C080E0DF91CF911F918F
:1051E0000F9108950E811F81CE010E94C7251F8354
:1051F0000E8381E0DF91CF911F910F9108950FB63B
:10520000F8940F92FC01868D0F900FBE08950FB693
:10521000F8940F92FC01268D0F900FBEFC01878D34
:10522000821B0895FC01868D0895CF93DF93EC01D6
:1052300088819981009711F00E94CC13CE01DF91F3
:10524000CF910C94CC13FC01968D81E0911180E0FC
:105250000895FC01268D81E0978D291380E0089543
:10526000CF92DF92EF92FF92CF93DF93EC016881B0
:1052700079818A819B8128EEC22E23E0D22EE12CF7
:10528000F12CA70196010E941D2C9B01AC0160E44A
:1052900072E48FE090E00E94F92BA70196010E9432
:1052A0001D2C69017A01AC81BD8120E432E44FE01C
:1052B00050E00E94EE2B20E834E84EE150E00E94DE
:1052C0001D2CC20ED31EE41EF51EC701B601DF91D0
:1052D000CF91FF90EF90DF90CF900895CF93DF9321
:1052E000EC01442309F441C08EEC90E0998388835B
:1052F00088EC90E09B838A8389EC90E09D838C838B
:1053000088E18093C90086E08093CA001092CD00A6
:105310009B0140E050E0220F331F441F551F220F16
:10532000331F441F551F220F331F441F551F220FC9
:10533000331F441F551F60E074E284EF90E00E9429
:105340001D2C2093CC008091C80081608093C80000
:1053500080E28E8380E88F8380E48887E881F9810A
:1053600080818081DF91CF91089586EC90E09983D0
:10537000888380EC90E09B838A8381EC90E09D831E
:105380008C8388E18093C10086E08093C2001092F4
:10539000C5009B0140E050E0220F331F441F551F02
:1053A000220F331F441F551F220F331F441F551F49
:1053B000220F331F441F551F60E074E284EF90E01A
:1053C0000E941D2C2093C4008091C00081608093B6
:1053D000C000BECFDC011296ED91FC9113972081A5
:1053E00016968C91282381E009F480E00895DC0171
:1053F0001296ED91FC911397208118968C91282399
:1054000081E009F080E00895DF92EF92FF920F9320
:105410001F93CF93DF937C018B01DC0114966D9178
:105420007C911597C8010E94F51FF701A481B581F1
:10543000FD0101900020E9F73197DE2EDA1AFFE036
:10544000FD1580F0C0E0D0E0D801ED91FC91028024
:10545000F381E02D60E2C801099521968C2F8D0D16
:10546000803190F368E072E0C8010E94F51F66E0A9
:10547000C8010E943A20D70116968D919C911797EA
:10548000009779F0DC01ED91FC910190F081E02D25
:10549000B801DF91CF911F910F91FF90EF90DF90B6
:1054A0000994DF91CF911F910F91FF90EF90DF90C2
:1054B0000895DF92EF92FF920F931F93CF93DF93A4
:1054C0007C018B01DC0114966D917C911597C801CC
:1054D0000E94F51FF701A481B581FD010190002014
:1054E000E9F73197DE2EDA1AFFE0FD1580F0C0E013
:1054F000D0E0D801ED91FC910280F381E02D60E2D3
:10550000C801099521968C2F8D0D803190F368E0AC
:1055100072E0C8010E94F51F66E0C8010E943A20AF
:10552000D70116968D919C911797009779F0DC0121
:10553000ED91FC910190F081E02DB801DF91CF91C8
:105540001F910F91FF90EF90DF900994DF91CF9121
:105550001F910F91FF90EF90DF9008952F923F924F
:105560004F925F926F927F928F92AF92CF92DF9223
:10557000EF92FF920F931F93CF93DF9314BE88E1B6
:105580000FB6F89480936000109260000FBE80E127
:1055900090E00E94BE1FEC0141E060E875E20E94CD
:1055A000422267E0CE010E943A206BE00E943A203E
:1055B0008C0164EE70E00E94F51F66E0C8010E9455
:1055C0003A2082E090E00E94BE1F3C01BE010E9492
:1055D0000D1188E190E00E94BE1F2C011AE0E12E1F
:1055E000F12C00E010E09E014FE052E060E270E03C
:1055F000C2010E94801E509251034092500389E0E4
:1056000090E00E94BE1F2C0165E172E00E94F71A33
:1056100008E512E0F2011183008350924D0340929D
:105620004C038AE090E00E94BE1F2C0165E272E00C
:105630000E94F71A8EE592E0F201918380835092E6
:105640004F0340924E0389E090E00E94BE1F2C0160
:1056500061E372E00E94F71AF20111830083509215
:105660004B0340924A030FB6F8940F928FEFF2016A
:1056700080870F900FBE84E190E00E94BE1F2C0136
:1056800086E08F9392E0892EAA24A394C12C2AE865
:10569000E22EF12C05E210E028E230E048E250E092
:1056A000BE01C2010E949C1184E190E00E94BE1FD5
:1056B0001C0185E08F9337E0832E46E0A42E55E051
:1056C000C52E68E8E62EF12C2BE230E04BE250E0EC
:1056D000BE01C1010E949C118EE190E00E94BE1F9C
:1056E0008E0124E031E041E06EE372E00E94B607F3
:1056F00087E190E00E94BE1FAA24A3946301720177
:1057000028E131E042E066E472E00E94EE1087E1B9
:1057100090E00E94BE1F72E0A72E710128E131E0E7
:1057200042E06DE472E00E94EE100E94E3150F90DB
:105730000F9080E090E0DF91CF911F910F91FF904B
:10574000EF90DF90CF90AF908F907F906F905F90B1
:105750004F903F902F9008950E94231C0F93CF935A
:10576000DF931F92CDB7DEB76983FC0120893189B1
:105770004289538900E0BE016F5F7F4F8685978520
:105780000E94A8260F90DF91CF910F910895FC0100
:10579000868597850E94FF2891E0811101C090E0E5
:1057A000892F08950F93CF93DF931F92CDB7DEB764
:1057B00000E02FEF3FEFA901BE016F5F7F4FFC01BB
:1057C000868597850E94C927813031F489810F90A1
:1057D000DF91CF910F9108958FEFF9CF0E94642C44
:1057E000A59F900DB49F900DA49F800D911D112435
:1057F0000895DB018F939F930E94EE2BBF91AF9191
:10580000A29F800D911DA39F900DB29F900D11241A
:105810000895AA1BBB1B51E107C0AA1FBB1FA617F7
:10582000B70710F0A61BB70B881F991F5A95A9F749
:1058300080959095BC01CD010895A1E21A2EAA1B76
:10584000BB1BFD010DC0AA1FBB1FEE1FFF1FA21730
:10585000B307E407F50720F0A21BB30BE40BF50B2D
:10586000661F771F881F991F1A9469F760957095B6
:10587000809590959B01AC01BD01CF010895052E47
:1058800097FB1EF400940E94562C57FD07D00E94EF
:105890001D2C07FC03D04EF40C94562C50954095CB
:1058A000309521953F4F4F4F5F4F089590958095CC
:1058B000709561957F4F8F4F9F4F0895EE0FFF1F9B
:1058C0000590F491E02D0994A29FB001B39FC0010F
:1058D000A39F700D811D1124911DB29F700D811D1C
:1058E0001124911D08950CD0BAC0B2D040F0A9D0B7
:1058F00030F021F45F3F19F09BC05111E4C09EC00D
:10590000BFD098F39923C9F35523B1F3951B550BD9
:10591000BB27AA2762177307840738F09F5F5F4F82
:10592000220F331F441FAA1FA9F333D00E2E3AF0C3
:10593000E0E830D091505040E695001CCAF729D0DD
:10594000FE2F27D0660F771F881FBB1F261737072C
:105950004807AB07B0E809F0BB0B802DBF01FF275C
:1059600093585F4F2AF09E3F510568F061C0ABC06D
:105970005F3FECF3983EDCF3869577956795B79596
:10598000F7959F5FC9F7880F911D9695879597F9B1
:105990000895E1E0660F771F881FBB1F621773072A
:1059A0008407BA0720F0621B730B840BBA0BEE1F3F
:1059B00088F7E0950895E89409C097FB3EF4909528
:1059C0008095709561957F4F8F4F9F4F9923A9F0D8
:1059D000F92F96E9BB279395F69587957795679567
:1059E000B795F111F8CFFAF4BB0F11F460FF1BC0AB
:1059F0006F5F7F4F8F4F9F4F16C0882311F096E93E
:105A000011C0772321F09EE8872F762F05C06623EB
:105A100071F096E8862F70E060E02AF09A95660FA4
:105A2000771F881FDAF7880F9695879597F908955D
:105A300097F99F6780E870E060E008959FEF80EC41
:105A4000089500240A9416161706180609060895E4
:105A500000240A9412161306140605060895092E4A
:105A60000394000C11F4882352F0BB0F40F4BF2BB9
:105A700011F460FF04C06F5F7F4F8F4F9F4F0895F9
:105A800057FD9058440F551F59F05F3F71F04795EF
:105A9000880F97FB991F61F09F3F79F087950895D4
:105AA000121613061406551FF2CF4695F1DF08C0F3
:105AB000161617061806991FF1CF86957105610510
:105AC00008940895E894BB2766277727CB0197F9B8
:105AD0000895FB01DC0102C001900D92415050403D
