:100000000C941C010C943B010C943B010C943B019F
:100010000C943B010C943B010C943B010C943B0170
:100020000C943B010C943B010C943B010C943B0160
:100030000C943B010C943B010C943B010C943B0150
:100040000C943B010C943B010C943B010C943B0140
:100050000C943B010C943B010C943B010C943B0130
:100060000C943B010C94A80F0C943B010C943B01A5
:100070000C943B010C943B010C943B010C943B0110
:100080000C943B010C943B010C943B010C943B0100
:100090000C94FB0F0C943B010C943B010C943B0122
:1000A0000C943B010C943B010C943B010C943B01E0
:1000B0000C943B010C943B010C943B010C94CB132E
:1000C0000C943B010C943B010C943B01850D8E0D6F
:1000D000910D940D870D870D970DA70DAE0DB50DE4
:1000E000B90D8B0D7C204D45343035204C65676F44
:1000F000436172205472616E736D6974746572200D
:100100007C004552524F52206372656174696E677C
:10011000207461736B2022005461736B20220022D3
:1001200020637265617465642C20737461636B2055
:1001300061742030780049444C45090930092D0983
:10014000002F0009092D002D2D2D2D09092D2D2DF4
:100150002D092D2D2D2D2D00092D2D2D2D2D2D2D44
:100160002D2D2D00092D2D2D2D004E616D650909B8
:100170005072692E09537461746500094672656591
:100180002F546F74616C000952756E730054617363
:100190006B0909202009200009537461636B000971
:1001A0000009002F000900090043757272656E7422
:1001B000204368616E6E656C2052656164696E678C
:1001C000733A2000456E64205072696E7420446159
:1001D0007461004E6F20736861726564206461749D
:1001E00061206974656D7320746F207072696E741C
:1001F000002D2D2D2D2020202020202020202020EB
:10020000202D2D2D2D202020202D2D2D2D2D2D2D5F
:100210002D2D2D0053686172652F51756575652010
:1002200020202020547970652020202046726565AA
:100230002F546F74616C000011241FBECFEFD1E208
:10024000DEBFCDBF12E0A0E0B2E0EAE1F6E300E0FD
:100250000BBF02C007900D92A43EB107D9F71AE177
:10026000A4EEB2E001C01D92AA39B107E1F70E94E5
:10027000B3180C940B1B0C940000EF92FF920F9399
:100280001F93CF93DF938C01E62E3AE0F32EC0E06C
:10029000D0E06E2DF801848595850E946F10C80FFF
:1002A000D91FFA94B1F7F801008111816FE172E072
:1002B000C8010E94330D6E2DC8010E943F0E8C01B3
:1002C00069E272E00E94330D9E01ADECBCEC0E942D
:1002D000601996958795969587959695879560E090
:1002E00072E0681B790BC8010E94BD0D66E0DF91CA
:1002F000CF911F910F91FF90EF900C94780D0F9379
:100300001F93CF93DF93EC0182E090E00E94FC0CFE
:100310008C01688179810E944E101D870C87488569
:10032000598560E0CE010E943D014A855B8561E010
:10033000CE010E943D011A821B821C82DF91CF9167
:100340001F910F910895FC01718360830C947F01CC
:10035000CF93DF93CDB7DEB728970FB6F894DEBF03
:100360000FBECDBFFB0184E392E19183808388E7D8
:1003700096E5938382838CEB9AE99583848380EF5F
:100380009EED9783868328960FB6F894DEBF0FBE46
:10039000CDBFDF91CF910895EF92FF920F931F93FE
:1003A000CF93DF93EC010E94160A89E592E09983CE
:1003B0008883FD8AEC8A1EA61FA618AA81E08E8B70
:1003C0001EAE188E8F8BFE017A9687E0DF011D929C
:1003D0008A95E9F7198E8AE090E09FAB8EAB19AE53
:1003E00080E190E00E94FC0C8C0140E060E070E055
:1003F0000E94510F1B8B0A8BE0ECF0E08081826041
:10040000808380E190E09093C5008093C400DF91E9
:10041000CF911F910F91FF90EF9008950F931F932D
:10042000CF93DF93EC0188AD8A8F81E0888F13C072
:100430008A899B89DC01ED91FC910680F781E02D92
:10044000099588AF988DFE01E90FF11D828F9330D9
:10045000C9F09F5F988F8A899B89DC01ED91FC919F
:100460000480F581E02D09958111E2CF68E372E007
:100470008E819F810E94330D80E0DF91CF911F918B
:100480000F910895138E0E811F8162E372E0C801FF
:100490000E94330DBE01665E7F4FC8010E94330D7E
:1004A00066E0C8010E94780D81E0DF91CF911F9135
:1004B0000F910895FF920F931F93CF93DF93EC0159
:1004C000188E80E0FE01E80FF11DF4A08A899B8957
:1004D000DC01ED91FC910280F381E02D6F2D0995F7
:1004E0000E811F81D801ED91FC910280F381E02DF6
:1004F0006F2DC801099560E472E0C8010E94330DB8
:10050000888D8F5F888F8A30E8F281E0DF91CF910C
:100510001F910F91FF900895FC018AE284A381E46A
:1005200085A382E486A383E487A384E480A785E48B
:1005300081A786E482A781E383A782E384A783E37C
:1005400085A70895EF92FF920F931F93CF93DF93A8
:100550008C01FC01108EF12CF801EF0DF11DE28CE5
:10056000F801C681D78162E472E0CE010E94330DAA
:100570006F2DCE010E943F0EEC016AE472E00E94F2
:10058000330DE881F9810280F381E02D6E2DCE01DB
:10059000099566E0CE010E94780DF801F08CF39485
:1005A000F08EF9E0FF15C0F6DF91CF911F910F910A
:1005B000FF90EF900895EC010E9445056B017C01CE
:1005C0008AE2282E91E4392E22E4422E33E4532E7F
:1005D00044E4642E55E4752E66E4862E71E3972E6E
:1005E000E2E3AE2EF3E3BF2E2CA23DA24EA25FA209
:1005F00068A679A68AA69BA6ACA6BDA6CE010E9437
:100600005A028823D9F30E811F816EE472E0C8017B
:100610000E94330DB701A601C8010E94F70D66E0E4
:100620000E94780DCE010E94A2026AEF70E080E085
:1006300090E00E944C07D8CF80911B03823018F0C5
:100640000E941613F9CFFFCFCF92DF92EF92FF9265
:100650006B017C01E091E602F091E7026283738313
:10066000848395838091EF029091F002A091F10232
:10067000B091F2026091E6027091E702C816D906C5
:10068000EA06FB0610F180910303909104036E5F6C
:100690007F4F0E94DD118091050290910602A0918A
:1006A0000702B0910802C816D906EA06FB0640F414
:1006B000C0920502D0920602E0920702F092080270
:1006C000FF90EF90DF90CF9008958091010390917B
:1006D00002036E5F7F4FFF90EF90DF90CF900C94FE
:1006E000DD115F926F927F928F929F92AF92BF9235
:1006F000CF92DF92EF92FF920F931F93CF93DF93EE
:100700004C01162F572E5A01390189E290E00E94C0
:10071000DD10EC01009709F4E9C0C114D10409F41B
:10072000DAC0DC8ECB8EC601A50165EA70E00E94BE
:10073000AA1A21E0A21AB108CB8CDC8CCA0CDB1CF3
:10074000AE01435E5F4FE12FF52D2AE0CF013191DD
:10075000DA013D93AD01DC018C91882311F0215029
:10076000A9F71EA2102F043008F07DC01A8F1FA316
:1007700018A65E01B2E0AB0EB11CC5010E94B81113
:10078000CE010E960E94B811DB87CA8784E090E004
:10079000A0E0B0E0811B9109A109B1098E879F8774
:1007A000A88BB98BDF8BCE8BA301B401C6010E944D
:1007B000461299838883E114F10419F0F701D1837B
:1007C000C0830FB6F8940F928091F3028F5F8093ED
:1007D000F3028091E6029091E702892B09F449C067
:1007E0008091ED0281110BC0E091E602F091E702E9
:1007F000828D081720F0D093E702C093E602809123
:10080000E9028F5F8093E9028A8D9091EE0298173A
:1008100038F1FBE08F9FC0011124B501855E9C4F2C
:100820000E94BC110F900FBE8091ED02882339F019
:10083000E091E602F091E702828D8017B0F081E04E
:10084000DF91CF911F910F91FF90EF90DF90CF90AC
:10085000BF90AF909F908F907F906F905F90089522
:100860008093EE02D6CF13E081CF0E94161381E071
:10087000E7CFD093E702C093E6028091F302813084
:1008800009F0BDCF8BE193E00E94A71186E293E0CF
:100890000E94A71181E393E00E94A7118CE393E0EB
:1008A0000E94A71180E193E00E94A71185E093E0E8
:1008B0000E94A71186EF92E00E94A71180E193E0C9
:1008C000909304038093030385E093E090930203E5
:1008D0008093010394CFC5010E94DD109C8F8B8F04
:1008E000009709F021CFCE010E9476118FEFA8CF9B
:1008F0000FB6F8940F92009729F00F900FBEFC01ED
:10090000828D08958091E6029091E7020F900FBECC
:10091000FC01828D0895EF92FF921F93CF93DF9396
:10092000EC01262F643008F023E00FB6F8940F9204
:10093000209709F44AC03FA13217A9F18091E6023D
:100940009091E7023217B8F5C817D90741F0E09146
:10095000E602F091E70211E0828D281708F410E01A
:100960008A8D381769F12FA34E855F85688979894B
:1009700077FD0CC044E050E060E070E0421B51099C
:10098000610971094E875F87688B798B2BE0829FA5
:10099000C0011124855E9C4F2C853D8528173907A1
:1009A000C9F0113079F00F900FBEDF91CF911F91F8
:1009B000FF90EF90089511E0C817D90781F6D0CFC6
:1009C0002A8FD1CF0E941613EECFC091E602D091AC
:1009D000E702B1CF7E0182E0E80EF11CC7010E9460
:1009E0001A128A8D9091EE02981710F48093EE02FD
:1009F0002BE0829FC0011124B701855E9C4F0E94AD
:100A0000BC11CFCFAF92BF92CF92DF92EF92FF9205
:100A10000F93A12CB12CC12CD12C84EFE82E82E0B5
:100A2000F82E00E020E030E044E650E06DE572E0B2
:100A30008CE193E00E947103813041F00F91FF90AF
:100A4000EF90DF90CF90BF90AF900895F89480938F
:100A5000ED021092EF021092F0021092F102109249
:100A6000F2020F91FF90EF90DF90CF90BF90AF9088
:100A70000C94DA12F8941092ED020C9415138091F4
:100A8000E8028F5F8093E80208950FB6F8940F9202
:100A90006091EF027091F0028091F1029091F20268
:100AA0000F900FBE08956091EF027091F002809157
:100AB000F1029091F20208958091F3020895009757
:100AC00011F04D9608958091E6029091E7024D96BF
:100AD00008958091F4029091F5020895AF92BF922B
:100AE000CF92DF92EF92FF920F931F93CF93DF93FA
:100AF0008091E8028111CFC08091EF029091F002C5
:100B0000A091F102B091F2020196A11DB11D809356
:100B1000EF029093F002A093F102B093F202C09022
:100B2000EF02D090F002E090F102F090F202C114D6
:100B3000D104E104F10439F5809103039091040399
:100B400020910103309102033093040320930303A7
:100B500090930203809301038091EA028F5F809358
:100B6000EA02E0910303F0910403808181119AC0AD
:100B70008FEF9FEFDC018093050290930602A09314
:100B80000702B09308028091050290910602A0919D
:100B90000702B0910802B12CC816D906EA06FB0676
:100BA00008F457C09BE0A92EE0910303F0910403E1
:100BB0008081882309F442C0E0910303F09104038B
:100BC0000780F085E02DC085D1854A815B816C81ED
:100BD0007D81C416D506E606F70608F47AC08E01B4
:100BE0000E5F1F4FC8010E941A12888D998D892BA4
:100BF00021F0CE010E960E941A128A8D9091EE027B
:100C0000981710F48093EE02A89EC0011124B80139
:100C1000855E9C4F0E94BC11E091E602F091E702D4
:100C20009A8D828D981708F4BFCFBB24B394E091BE
:100C30000303F091040380818111BECF4FEF5FEF7A
:100C4000BA01409305025093060260930702709325
:100C50000802E091E602F091E702E28D8BE0E89F66
:100C6000F0011124E55EFC4F8081823010F0BB243E
:100C7000B3948091EB02882311F0BB24B3948B2DA5
:100C8000DF91CF911F910F91FF90EF90DF90CF9068
:100C9000BF90AF9008958091EC028F5F8093EC023B
:100CA000B12CE7CFE0910303F09104030780F085B6
:100CB000E02D0084F185E02D82819381A481B581AE
:100CC0008093050290930602A0930702B093080256
:100CD0005ACF409305025093060260930702709327
:100CE0000802B7CFEF92FF920F931F93CF93DF933A
:100CF0000FB6F8940F928091E80281508093E80239
:100D00008091E802811150C08091F302882309F498
:100D10004BC02BE0F22EEE24E39427C0E091FD02BD
:100D2000F091FE02C085D185CE010E960E941A1266
:100D30008E010E5F1F4FC8010E941A128A8D90917A
:100D4000EE02981710F48093EE02F89EC001112471
:100D5000B801855E9C4F0E94BC11E091E602F091C3
:100D6000E7029A8D828D981748F58091F6028111DD
:100D7000D5CF8091EC02882399F08091EC028823F2
:100D800079F0C1E00E946E058111C093EB02809161
:100D9000EC0281508093EC028091EC028111F2CF41
:100DA0008091EB02813069F080E00F900FBEDF91FF
:100DB000CF911F910F91FF90EF900895E092EB0279
:100DC000D4CF0E94161381E0F0CFCF92DF92EF9242
:100DD000FF920F931F93CF93DF9300D000D0CDB736
:100DE000DEB72091E8022F5F2093E802C090EF0267
:100DF000D090F002E090F102F090F202FC0100814C
:100E0000118122813381400F511F621F731FC01651
:100E1000D106E206F306E8F44017510762077307AC
:100E2000E8F0FC0140835183628373830E94720661
:100E3000811102C00E9416130F900F900F900F9017
:100E4000DF91CF911F910F91FF90EF90DF90CF90A6
:100E50000895401751076207730728F0C416D50696
:100E6000E606F706F0F6FC01408351836283738344
:100E70008091E6029091E702029649835A836B8340
:100E80007C830E941A1249815A816B817C81CB013B
:100E9000BA010E942403CACFCF92DF92EF92FF9251
:100EA000611571058105910539F40E941613FF90B3
:100EB000EF90DF90CF9008952091E8022F5F20936C
:100EC000E802C090EF02D090F002E090F102F090C2
:100ED000F202C60ED71EE81EF91E8091E60290911E
:100EE000E70202960E941A12C701B6010E9424036B
:100EF0000E9472068823C9F2FF90EF90DF90CF9096
:100F000008958091E80281113BC01092EB02E091BC
:100F1000EE028BE0E89FF0011124E55EFC4F80813A
:100F2000811110C09BE08091EE0281508093EE020F
:100F3000E091EE029E9FF0011124E55EFC4F80815E
:100F4000882389F3E091EE028BE0E89FF001112401
:100F5000E55EFC4FA181B28114960D90BC91A02D4D
:100F6000B283A183CF010396A817B90769F0189639
:100F70008D919C9119979093E7028093E6020895D2
:100F800081E08093EB02089514969C911497159636
:100F90008C9191838283A92FB82FE9CFCF92DF92D2
:100FA000EF92FF926A017B016091E6027091E70285
:100FB000625F7F4F0E94DD118091E6029091E7020F
:100FC00002960E941A126091EF027091F0028091D5
:100FD000F1029091F2026C0D7D1D8E1D9F1DFF9000
:100FE000EF90DF90CF900C942403CF92DF92EF929A
:100FF000FF920F931F9368017901E091E602F0914F
:10100000E702706846875787608B718B6091E602B4
:101010007091E702625F7F4F0E94BC118091E602EF
:101020009091E70202960E941A126091EF0270916D
:10103000F0028091F1029091F2026C0D7D1D8E1DE7
:101040009F1D1F910F91FF90EF90DF90CF900C9418
:1010500024030F931F93CF93DF93DC011796ED9139
:10106000FC911897C085D1858E01025F1F4FC80182
:101070000E941A128091E802811124C08E010E5F35
:101080001F4FC8010E941A128A8D9091EE02981784
:10109000F8F0BBE08B9FC0011124B801855E9C4F26
:1010A0000E94BC11E091E602F091E7029A8D828DD8
:1010B000891788F481E08093EB02DF91CF911F9133
:1010C0000F910895B80186EF92E00E94BC11EACF1B
:1010D0008093EE02DECF80E0DF91CF911F910F91E0
:1010E00008950F931F93CF93DF937068FC014083A3
:1010F000518362837383C085D1850E941A128E0149
:101100000E5F1F4FC8010E941A128A8D9091EE0245
:10111000981710F48093EE02FBE08F9FC00111241A
:10112000B801855E9C4F0E94BC11E091E602F091EF
:10113000E7029A8D828D891740F481E08093EB025B
:10114000DF91CF911F910F91089580E0DF91CF91B2
:101150001F910F9108952091EA02FC012083409194
:10116000EF025091F0026091F1027091F20241831E
:1011700052836383748308958F929F92AF92BF923C
:10118000CF92DF92EF92FF920F931F93FC01DB014E
:101190000FB6F8940F924091EF025091F0026091D7
:1011A000F1027091F2028091EA0290810181128134
:1011B00023813481981729F040175107620773077C
:1011C00070F5CD90DD90ED90FC9013974A015B0196
:1011D000801A910AA20AB30A8C149D04AE04BF04BB
:1011E000F0F4C41AD50AE60AF70AC00ED11EE21EB0
:1011F000F31ECD92DD92ED92FC9213978091EA025C
:1012000080838091EF029091F002A091F102B09161
:10121000F20281839283A383B48380E001C081E0E2
:101220000F900FBE1F910F91FF90EF90DF90CF9026
:10123000BF90AF909F908F90089581E08093EB02D4
:101240000895009799F0DC015B96ED91FC915C9715
:101250008081853A81F4319680E090E0DC0101964E
:10126000A11DB11D2191253AD1F308958091E60287
:101270009091E702E8CF80E008958091E602909196
:10128000E70208950F931F93CF93DF93EC0100972C
:1012900081F18A8DE091E602F091E702928D891743
:1012A00040F54E855F856889798977FD11C0E091A9
:1012B000E602F091E702928D44E050E060E070E0D9
:1012C000491B5109610971094E875F87688B798BCA
:1012D0002BE0829FC0011124855E9C4F2C853D85AB
:1012E0002817390759F0E091E602F091E702828D64
:1012F0008A8FDF91CF911F910F9108958E010E5F1C
:101300001F4FC8010E941A12E091E602F091E70215
:10131000828D8A8F9091EE02981710F48093EE02DE
:101320002BE0829FC0011124B801855E9C4FDF91A4
:10133000CF911F910F910C94BC110F931F93CF93DA
:10134000DF93EC01009749F088A5815088A72A8D8A
:101350009FA1291711F0882331F080E0DF91CF9110
:101360001F910F9108958E010E5F1F4FC8010E94BB
:101370001A128FA18A8F44E050E060E070E0481BB1
:101380005109610971094E875F87688B798B90914C
:10139000EE02981710F48093EE022BE0829FC001BA
:1013A0001124B801855E9C4F0E94BC1181E0DF9141
:1013B000CF911F910F910895CF92DF92EF92FF92FC
:1013C000E091E602F091E702668577858089918950
:1013D000E091E602F091E702A091E602B091E70207
:1013E0005A962C9134E0C32ED12CE12CF12CC21A48
:1013F000D108E108F108C686D786E08AF18AFF9015
:10140000EF90DF90CF9008958091E6029091E702EF
:10141000892B39F0E091E602F091E70280A58F5F19
:1014200080A78091E6029091E70208954F925F9223
:101430006F927F928F929F92AF92BF92CF92DF92E4
:10144000EF92FF920F931F93CF93DF93EC013B0139
:1014500049012801FC0186E692E081939193A12C39
:10146000B12CC12CD12C7F01042F9E01A4018EE14F
:1014700099E10E9471035F824E829986888620914D
:101480004703309148033D832C83D0934803C09396
:1014900047031C861D868090981A9090991A9FEF9A
:1014A000891A990A9092991A8092981A9B868A862C
:1014B0001E861F86188A198A4114510409F44CC0EB
:1014C0006BE0813041F1C2010E94780DEC0162E0D5
:1014D00071E00E94330DB301CE010E94330DE8810B
:1014E000F9810280F381E02D62E2CE01099566E088
:1014F000CE01DF91CF911F910F91FF90EF90DF9080
:10150000CF90BF90AF909F908F907F906F905F90A3
:101510004F900C94780DC2010E94780DEC0168E1A7
:1015200071E00E94330DB301CE010E94330D6BE0D8
:10153000CE010E94780DEC016FE171E00E94330D45
:1015400063E0CE010E94780DB4010E94BD0D62E0FF
:101550000E94780D66E0CDCFDF91CF911F910F9162
:10156000FF90EF90DF90CF90BF90AF909F908F90C3
:101570007F906F905F904F900895EC01E881F98122
:101580000190F081E02D09951B821A826FEF7FEFA9
:10159000CB010E944C07FACFFC0164876587089550
:1015A000FC01C681D781209739F0CE010E94330D0E
:1015B00066E0CE010E94780D2BE088E190E00FB646
:1015C000F894A895809360000FBE20936000FFCF31
:1015D0000E9445050E94131A20E030E04AE754E4D7
:1015E0000E94AB1908958F929F92AF92BF92CF92B3
:1015F000DF92EF92FF920F931F93CF93DF93EC0153
:101600008B018A819B810E945F05BC01C8010E94F9
:10161000330DD801ED91FC910280F381E02D69E05A
:10162000C80109958A819B810E945F05FC01019098
:101630000020E9F73197E81BF90B389748F4D801F7
:10164000ED91FC910280F381E02D69E0C8010995DC
:10165000CE84DF84E888F988A884B9848A819B8154
:101660000E942109982E8C848A819B810E94780493
:10167000682FC8010E943F0E6BE00E94780DEC01BC
:101680006FE971E00E94330D682DCE010E943F0E7C
:101690006BE00E94780DEC0161EA71E00E94330D6D
:1016A000692DCE010E943F0E6BE00E94780DEC0187
:1016B00063EA71E00E94330DB501CE010E94BD0DB9
:1016C0006BE00E94780DEC0165EA71E00E94330D39
:1016D0006BE0CE010E94780DEC0167EA71E00E9498
:1016E000330DB701A601CE01DF91CF911F910F916C
:1016F000FF90EF90DF90CF90BF90AF909F908F9032
:101700000C94F70D0F931F93CF93DF93EC018B0194
:10171000E881F9810280F381E02DB801CE010995BD
:1017200066E0C8010E94780D0C80DD81C02D2097F5
:1017300079F7DF91CF911F910F910895CF93DF93A8
:10174000EC01CB01DB01ED91FC910280F381E02DF6
:10175000BE010995CE01DF91CF9108950F931F939C
:10176000CF93DF93EC016BE00E94780D8C016DE864
:1017700071E00E94330D6BE0C8010E94780D8C016E
:1017800068E971E00E94330D66E0C8010E94780D9F
:101790006BE0CE010E94780D8C016AE671E00E9438
:1017A000330D6BE0C8010E94780D8C016BE771E08E
:1017B0000E94330D6BE0C8010E94780D8C0167E830
:1017C00071E00E94330D66E0C8010E94780D6BE065
:1017D000CE010E94780D8C0167E471E00E94330D08
:1017E0006BE0C8010E94780D8C0168E571E00E94F1
:1017F000330D6BE0C8010E94780D8C0164E671E046
:101800000E94330D66E0C8010E94780D8091470365
:1018100090914803009719F0BE010E94820B0E942C
:1018200069050E942109182F6BE0CE010E94780DF6
:10183000EC0166E371E00E94330D612FCE010E943E
:101840003F0E6BE00E94780DEC0161E471E00E94B4
:10185000330D64E670E0CE010E94BD0D6BE00E9486
:10186000780DEC0163E471E00E94330D66E0CE0177
:10187000DF91CF911F910F910C94780DCF92DF9251
:10188000EF92FF920F931F93CF93DF937C018B0115
:10189000DC011A966D917C911B97C8010E94330D53
:1018A000F701A285B385FD0101900020E9F731978A
:1018B000DE2EDA1AFFE0FD1580F0C0E0D0E0D8019E
:1018C000ED91FC910280F381E02D60E2C801099561
:1018D00021968C2F8D0D803190F36AE672E0C8015D
:1018E0000E94330DD7015696CD90DC9057971E96E7
:1018F0008D919C911F970E946F17682FC8010E94BD
:101900003F0EEC01E881F9810280F381E02D6FE266
:101910000995B601CE010E94BD0DDC01ED91FC914F
:101920000280F381E02D69E0099566E0C8010E941C
:10193000780DF70184859585009781F0DC01ED91A4
:10194000FC910190F081E02DB801DF91CF911F91C2
:101950000F91FF90EF90DF90CF900994DF91CF919E
:101960001F910F91FF90EF90DF90CF9008956F92AD
:101970007F928F929F92AF92BF92CF92DF92EF921F
:10198000FF920F931F93CF93DF93EC01762E672E78
:101990004A015901670178010E94280DB401CE0166
:1019A00006960E94981785E792E09983888327E836
:1019B00032E03F832E83BD8AAC8A40E061E0872D10
:1019C0000E94E0149F878E87C88AD98AEA8AFB8A98
:1019D0007E8A6F8ADF91CF911F910F91FF90EF90D8
:1019E000DF90CF90BF90AF909F908F907F906F903F
:1019F000089506970C943E0C0C94DD10009711F09E
:101A00000C94761108950C94DD10009711F00C944D
:101A100076110895FC0181E090E02081222311F0ED
:101A200080E090E0089521E0FC012083089508956E
:101A3000089581E0089580E0089580E00895089574
:101A4000DC01ED91FC910280F381E02D6CE00994C2
:101A5000FC018DE892E0918380838AE0828383E0B9
:101A60008583148208950F931F93CF93DF93EC0126
:101A7000FB018C81811117C06081662379F08F0191
:101A80000F5F1F4FE881F9810280F381E02DCE01C5
:101A90000995F80161918F016111F4CFDF91CF9128
:101AA0001F910F9108951C828B010F5F1F4F64914E
:101AB0006623A1F3A881B9811296ED91FC91139749
:101AC000CE010995F80164910F5F1F4F6111F2CFAC
:101AD000E5CF883008F087E080930A0289E0089516
:101AE0009EEF980F9F3010F4809309028AE00895CA
:101AF000CF93DF93EC01462F50E04C30510538F482
:101B0000FA01EA59FF4F0C94A51982E08A83CE01AD
:101B1000DF91CF91089581E08C83F9CF88E08A83AB
:101B2000F6CF8AE08A83F3CF80E18A83F0CFE88121
:101B3000F9810280F381E02D6DE00995E881F9815A
:101B40000280F381E02D6AE0CE010995E0CFE881C3
:101B5000F9810284F385E02D0995D9CFE881F981D7
:101B60000084F185E02D0995D2CF80910A028D8302
:101B7000CECF809109028A83CACFFF920F931F9321
:101B8000CF93DF93CDB7DEB761970FB6F894DEBF82
:101B90000FBECDBF8C01F62E972FF8014281403148
:101BA00091F0483081F0423071F050E0BE016F5F3B
:101BB0007F4F8F2D0E94E51ABE016F5F7F4FC801D6
:101BC0000E94330D07C0692FC8010E943F0E6F2D80
:101BD0000E943F0EC80161960FB6F894DEBF0FBE9B
:101BE000CDBFDF91CF911F910F91FF900895DF92AC
:101BF000EF92FF920F931F93CF93DF93CDB7DEB792
:101C0000A1970FB6F894DEBF0FBECDBF8C01D42EC6
:101C1000E52EF62E972FF80122812031A1F02830F1
:101C200091F0223081F030E0AE014F5F5F4F6D2DBB
:101C30007E2D8F2D0E94C01ABE016F5F7F4FC8019D
:101C40000E94330D0DC0692FC8010E943F0E6F2DF9
:101C50000E943F0E6E2D0E943F0E6D2D0E943F0E82
:101C6000C801A1960FB6F894DEBF0FBECDBFDF91BD
:101C7000CF911F910F91FF90EF90DF900895CF9239
:101C8000DF92EF92FF920F931F93CF93DF93CDB725
:101C9000DEB729970FB6F894DEBF0FBECDBF8C011B
:101CA000D62EDC0113968C91139781115DC0F8013B
:101CB00042814230D9F14031F1F050E0BE016F5F16
:101CC0007F4F8D2D90E00E94E51ABE016F5F7F4F20
:101CD000C8010E94330DC80129960FB6F894DEBFE3
:101CE0000FBECDBFDF91CF911F910F91FF90EF906D
:101CF000DF90CF90089562956F700190F081E02D94
:101D00000280F381E02D6A30B8F5605DC801099565
:101D10006D2D6F70D801ED91FC910280F381E02D63
:101D20006A3060F1695CC8010995D5CF88E0E82E7A
:101D3000F12C90E8C92E0AC061E3C8010995C69448
:101D4000B1E0EB1AF108E114F10429F28C2D8D2198
:101D5000D801ED91FC910280F381E02D8111ECCF4F
:101D600060E3C8010995EBCFED91FC910280F3810E
:101D7000E02DC8010995AFCF695CC8CF605DD3CFB6
:101D8000DC011896ED91FC91199780811C969C912D
:101D90001C97892359F421E23EE405C02150310902
:101DA0002115310571F080818923C1F380811E9650
:101DB0009C911E97892B80831696ED91FC91179725
:101DC00060830895FC01878581111DC02091510316
:101DD0003091520380914F03909150032817390797
:101DE00089F0E0915303F0915403E20FF31F8081D7
:101DF0002F5F3F4F2032310518F11092520310929D
:101E000051030895FFCF20914B0330914C038091F3
:101E1000490390914A032817390789F0E0914D034F
:101E2000F0914E03E20FF31F80812F5F3F4F20326E
:101E3000310558F010924C0310924B030895FFCFD8
:101E40003093520320935103089530934C03209311
:101E50004B030895DC01ED91FC910280F381E02DAC
:101E60006CE00994FC018785882369F081E040914A
:101E70004B0350914C032091490330914A03421780
:101E8000530769F0089581E0409151035091520346
:101E900020914F03309150034217530799F780E088
:101EA0000895EF92FF921F93CF93DF9300D0CDB7A9
:101EB000DEB77C01142F69837A830E94280D412F9D
:101EC00069817A81C70106960E941D188DE992E00A
:101ED000F7019183808317871123E9F08091C9006E
:101EE00080688093C90080E290E00E94030D909387
:101EF0004E0380934D0310924C0310924B031092AB
:101F00004A03109249030F900F90DF91CF911F91D8
:101F1000FF90EF9008958091C10080688093C10088
:101F200080E290E00E94030D90935403809353034A
:101F300010925203109251031092500310924F03CB
:101F40000F900F90DF91CF911F91FF90EF90089528
:101F50001F920F920FB60F9211240BB60F922F9370
:101F60003F938F939F93EF93FF932091C600E0914F
:101F70005303F091540380914F0390915003E80F65
:101F8000F91F208380914F03909150030196803276
:101F90009105C0F49093500380934F032091510317
:101FA0003091520328173907D1F0FF91EF919F919B
:101FB0008F913F912F910F900BBE0F900FBE0F90FE
:101FC0001F9018951092500310924F0380E090E0FC
:101FD00020915103309152032817390731F70196A8
:101FE00090935203809351038097F8F2109252031A
:101FF00010925103DACF1F920F920FB60F92112455
:102000000BB60F922F933F938F939F93EF93FF9372
:102010002091CE00E0914D03F0914E038091490351
:1020200090914A03E80FF91F208380914903909112
:102030004A03019680329105C0F490934A0380933D
:10204000490320914B0330914C0328173907D1F0F5
:10205000FF91EF919F918F913F912F910F900BBE28
:102060000F900FBE0F901F90189510924A03109278
:10207000490380E090E020914B0330914C032817F6
:10208000390731F7019690934C0380934B03809767
:10209000F8F210924C0310924B03DACFCF93DF93F8
:1020A000FC017183608320917C00206420937C007C
:1020B00020917A00256C20937A00C081D1812097ED
:1020C00059F069EA72E0CE010E94330D66E0CE015C
:1020D000DF91CF910C94780DDF91CF910895683006
:1020E00008F060E080917C00887F80937C00809184
:1020F0007C00862B80937C0080917A0080648093A2
:102100007A0080917A0086FDFCCF80917800209142
:10211000790090E0922B0895DF92EF92FF920F9357
:102120001F93CF93DF938C01D62EE42E80E4841787
:10213000E0F480E4E82EF12CC0E0D0E06D2DC80181
:102140000E946F10C80FD91FF394FE10F7CF6E2DA9
:1021500070E0CE010E946F19CB01DF91CF911F91EA
:102160000F91FF90EF90DF9008954111E4CFC0E010
:10217000D0E0EDCF0F931F93CF93DF93EC016BE093
:102180000E94780D8C0169EA71E00E94330D66E0CF
:10219000C8010E94780D6BE00E94780D8C0164EC00
:1021A00071E00E94330D66E0C8010E94780DCE01F7
:1021B000DF91CF911F910F9108950F931F93CF93AC
:1021C000DF93EC010E943F0580915503811121C0EE
:1021D0008FE593E090935B0380935A0310925D0325
:1021E00010925C0387E397E190935903809358031F
:1021F00010925703109256039093620380936103E9
:1022000086E593E09093600380935F0381E0809381
:102210005503209709F460C0AE014C5F5F4F2396D1
:10222000C633D74108F058C0E0915A03F0915B03E0
:10223000AAE5B3E006C080819181009739F0DF0103
:10224000FC012281338124173507A8F3C3E0E6356A
:10225000FC0709F441C00D911C9111970C5F1F4FB1
:10226000808191818D939C93C901841B950B89304A
:10227000910500F1BF01640F751FDB0113969C935C
:102280008E9312975383428312968D919C9113974C
:10229000AAE5B3E001C0DF01ED91FC911197228125
:1022A000338128173907B8F3EB01F983E8836D937D
:1022B0007C939A0180910B0290910C02821B930BEC
:1022C00090930C0280930B020E947206C801DF916A
:1022D000CF911F910F91089500E010E00E947206C7
:1022E000C801DF91CF911F910F910895CF93DF9394
:1022F000009721F1EC0124970E943F054A815B8100
:10230000AAE5B3E001C0DF01ED91FC9111972281B4
:10231000338124173507B8F3F983E883CD93DC9331
:1023200080910B0290910C02840F951F90930C02E8
:1023300080930B02DF91CF910C947206DF91CF91C5
:10234000089580910B0290910C0208950895FC016C
:102350000396928381834FEF5FEFBA0143835483E7
:10236000658376839087878392878187108208951B
:10237000FC01138612860895CF93DF939C01FB0125
:10238000DC011196CD91DC911297D583C4838E81A7
:102390009F81978386838E819F81DC0115967C9334
:1023A0006E9314977F836E8333872287F901808130
:1023B0008F5F8083DF91CF9108950F931F93CF9309
:1023C000DF93EB01088119812A813B810F3F4FEF99
:1023D00014072407340731F1DC01139601C0DF0133
:1023E0001496ED91FC911597408151816281738122
:1023F000041715072607370790F7FD83EC83D7836B
:10240000C683BF83AE831596DC93CE9314979B87C8
:102410008A87FC0120812F5F2083DF91CF911F915C
:102420000F910895FC01A185B2851496ED91FC9160
:102430001597E3CFCF93DF93FC01A285B385248169
:10244000358186819781E9019F838E83868197817B
:10245000EC013D832C8311962D913C9112972E1700
:102460003F0741F0138612868C9181508C93DF9147
:10247000CF91089512969C938E931197138612868E
:102480008C9181508C93DF91CF9108959093991AFC
:102490008093981A31E1FC013083319722E2208346
:1024A000FC013297A3E3A083FC0133976083FC0116
:1024B00034977083FC0135971082FC01369760E8F1
:1024C0006083FC0137971082FC01389762E06083DB
:1024D000FC01399763E06083FC013A9764E0608314
:1024E000FC013B9765E06083FC013C9766E06083FC
:1024F000FC013D9767E06083FC013E9768E06083E4
:10250000FC013F9769E06083FC01709760E16083A4
:10251000FC0171973083FC01729732E13083FC013A
:10252000739733E13083FC01749734E13083FC010D
:10253000759735E13083FC01769736E13083FC01F5
:10254000779737E13083FC01789738E13083FC01DD
:10255000799739E13083FC017A9730E23083FC01CE
:102560007B9731E23083FC017C972083FC017D97CF
:1025700023E22083FC017E974083FC017F975083F8
:10258000FC01B09726E22083FC01B19727E220836B
:10259000FC01B29728E22083FC01B39729E2208353
:1025A000FC01B49720E32083FC01B59721E320834D
:1025B0008697089587E0809329018FEC8093280106
:1025C0008AE080932101E3E7F0E0808182608083EC
:1025D000A091E602B091E702CD91CDBFDD91DEBFC3
:1025E000FF91EF91DF91CF91BF91AF919F918F912B
:1025F0007F916F915F914F913F912F911F910F911B
:10260000FF90EF90DF90CF90BF90AF909F908F9012
:102610007F906F905F904F903F902F901F900F9002
:102620000FBE0F90089581E0089508950F920FB6A0
:10263000F8940F921F9211242F923F924F925F9223
:102640006F927F928F929F92AF92BF92CF92DF92C2
:10265000EF92FF920F931F932F933F934F935F93AC
:102660006F937F938F939F93AF93BF93CF93DF939A
:10267000EF93FF93A091E602B091E7020DB60D92A1
:102680000EB60D920E948107A091E602B091E7027A
:10269000CD91CDBFDD91DEBFFF91EF91DF91CF9165
:1026A000BF91AF919F918F917F916F915F914F916A
:1026B0003F912F911F910F91FF90EF90DF90CF905E
:1026C000BF90AF909F908F907F906F905F904F9052
:1026D0003F902F901F900F900FBE0F9008950F9274
:1026E0000FB6F8940F921F9211242F923F924F929F
:1026F0005F926F927F928F929F92AF92BF92CF9292
:10270000DF92EF92FF920F931F932F933F934F937C
:102710005F936F937F938F939F93AF93BF93CF9369
:10272000DF93EF93FF93A091E602B091E7020DB61D
:102730000D920EB60D920E946E0581110E948107C6
:10274000A091E602B091E702CD91CDBFDD91DEBF51
:10275000FF91EF91DF91CF91BF91AF919F918F91B9
:102760007F916F915F914F913F912F911F910F91A9
:10277000FF90EF90DF90CF90BF90AF909F908F90A1
:102780007F906F905F904F903F902F901F900F9091
:102790000FBE0F9008950E946F1318951F93CF934B
:1027A000DF93EC01142F88A181110DC088819981DC
:1027B000892B09F44DC080E09E8D9F5F9E8FDF9135
:1027C000CF911F910895482F50E011111CC08C81AA
:1027D0009D810E94A11A28A18C819D81820F911D4B
:1027E0009D838C832A813B818217930720F3888104
:1027F00099819D838C8380E09E8D9F5F9E8FDF916A
:10280000CF911F9108958E819F810E94A11A28A1C6
:1028100030E03195219531098E819F81820F931F80
:102820009F838E83688179818617970730F48A8128
:102830009B81820F931F9F838E83123009F0BBCF41
:102840008E8D882309F4B7CF8E8D81508E8FB3CFB4
:102850008A819B810E949D091B821A82ADCFFC0157
:10286000CB0140A1442399F050E026813781240F09
:10287000351F37832683628173812617370720F03F
:102880002081318137832683B9010C94A11A0895E0
:102890000F931F93CF93DF93EC010FB6F8940F9231
:1028A0008AA11816ECF48B898823D1F08E010D5E75
:1028B0001F4F09C08AA181508AA38AA1181684F4E7
:1028C0008B89882369F0C8010E942908882391F325
:1028D0000E941D098AA181508AA38AA1181684F337
:1028E0008FEF8AA30F900FBE0FB6F8940F9289A1B5
:1028F0001816ECF488858823D1F08E01085F1F4FED
:1029000009C089A1815089A389A1181684F48885FA
:10291000882369F0C8010E942908882391F30E9446
:102920001D0989A1815089A389A1181684F38FEF0D
:1029300089A30F900FBEDF91CF911F910F91089542
:10294000CF93DF93EC010FB6F8940F922881398171
:102950008F8D78A1879FC0011124A901480F591FAD
:102960005B834A831E8E3D832C83871B9109820FD4
:10297000931F9F838E838FEF89A38AA3611112C057
:102980008885811106C00F900FBE81E0DF91CF9145
:102990000895CE0108960E9429088130A1F70E946F
:1029A0001613F1CFCE0108960E94A711CE014396CF
:1029B0000E94A7110F900FBE81E0DF91CF91089583
:1029C0000F931F93CF93DF93182F062F882301F1C6
:1029D00083E290E00E94DD10EC010097C9F0109FA7
:1029E000C001112401960E94DD1099838883892BF0
:1029F00061F01F8F08A361E0CE010E94A014CE01F8
:102A0000DF91CF911F910F910895CE010E94761111
:102A1000C0E0D0E0CE01DF91CF911F910F910895DA
:102A20006F927F928F929F92AF92BF92CF92DF92DE
:102A3000EF92FF920F93CF93DF93CDB7DEB7299735
:102A40000FB6F894DEBF0FBECDBF5C014B012E83E5
:102A50003F834887598720E03C0188E0680E711C5D
:102A60000FB6F8940F92F501968D878D981708F49C
:102A700059C0023009F456C0CE80DF80E884F98462
:102A8000CD28CE28CF2809F46FC0222309F441C0F5
:102A90000F900FBE0E943F050FB6F8940F92F501FC
:102AA00081A18F3F09F43CC0F50182A18F3FB1F1B4
:102AB0000F900FBEBE016A5F7F4FCE0101960E944C
:102AC000BC08811155C00FB6F8940F92F501968D90
:102AD0000F900FBEF501878D981314C04E815F8152
:102AE00068857985C3010E94CE07C5010E944814FC
:102AF0000E947206882311F021E0B2CF0E941613C3
:102B000021E0AECFC5010E9448140E94720621E068
:102B1000A7CFCE0101960E94AB08BACF12A2C8CFB0
:102B200011A2C2CF402FB401C5010E94CE13F501FE
:102B30009389911124C0811128C00F900FBE81E0AC
:102B400029960FB6F894DEBF0FBECDBFDF91CF91AF
:102B50000F91FF90EF90DF90CF90BF90AF909F903C
:102B60008F907F906F9008950F900FBE80E0E8CF18
:102B7000C5010E9448140E94720680E0E1CFC501A1
:102B800043960E9429088130C1F60E941613D5CFC2
:102B90000F93CF93DF9383E290E00E94DD10EC016E
:102BA000009701F11B821A82198218821D821C82F1
:102BB0001F821E821E8E81E08F8F18A28FEF89A345
:102BC0008AA3CE0108960E94A711CE0143960E94C7
:102BD000A71100E020E030E0A90160E070E0CE0144
:102BE0000E941015CE01DF91CF910F9108950F93A0
:102BF0001F93CF93DF93EC018A019E8D8F8D9817E1
:102C000040F0223031F080E0DF91CF911F910F91A1
:102C10000895422FCE010E94CE13882331F0011572
:102C2000110519F081E0F80180838AA18F3F49F0F6
:102C30008AA18F5F8AA381E0DF91CF911F910F91CD
:102C400008958B898823B9F3CE0143960E94290801
:102C5000882389F30115110571F381E0F801808360
:102C6000D3CFAF92BF92CF92DF92EF92FF920F93AA
:102C7000CF93DF93CDB7DEB729970FB6F894DEBFB9
:102C80000FBECDBF7C016B012E833F8348875987E0
:102C900090E0570183E1A80EB11C0FB6F8940F9293
:102CA000F701868D811169C04E815F8168857985C4
:102CB000452B462B472B09F47DC0992309F43EC0D0
:102CC0000F900FBE0E943F050FB6F8940F92F701C8
:102CD00081A18F3F09F43EC0F70182A18F3F09F423
:102CE0003FC00F900FBEBE016A5F7F4FCE010196BD
:102CF0000E94BC08811171C00FB6F8940F92F701C1
:102D0000868D0F900FBE81111EC0F70180819181C9
:102D1000892B41F14E815F8168857985C5010E94CB
:102D2000CE07C7010E9448140E947206882311F042
:102D300091E0B3CF0E94161391E0AFCFCE01019680
:102D40000E94AB08BDCFC7010E9448140E947206C2
:102D500091E0A3CF11A2F70182A18F3F09F0C1CF6B
:102D600012A2BFCF0FB6F8940F92F7018281938120
:102D70000E9442090F900FBECDCFA680B780B6014A
:102D8000C7010E942F14F70101112EC0868D8150BA
:102D9000868F80819181892BB9F1F7018085882305
:102DA00041F1C70108960E942908813011F50E945F
:102DB00016131FC00F900FBE80E029960FB6F8942F
:102DC000DEBF0FBECDBFDF91CF910F91FF90EF908F
:102DD000DF90CF90BF90AF900895C7010E94481434
:102DE0000E94720680E0E9CFB782A68283898111B2
:102DF00004C00F900FBE81E0E0CFC70143960E9450
:102E000029088823B1F3D3CF0E94040AF7019383E2
:102E10008283C3CF0F931F93CF93DF9300D0CDB79F
:102E2000DEB78C01FC01868D811108C080E00F9017
:102E30000F90DF91CF911F910F910895C8014983A1
:102E40005A830E942F14F801868D8150868F81A1AC
:102E500049815A818F3F61F0F80181A18F5F81A381
:102E600081E00F900F90DF91CF911F910F91089506
:102E700080858823A9F3C801089649835A830E9454
:102E8000290849815A81882359F34115510541F395
:102E900081E0FA018083CBCF0F931F93CF93DF9311
:102EA000EC018E8D811106C080E0DF91CF911F91E2
:102EB0000F9108950E811F81CE010E942F141F8350
:102EC0000E8381E0DF91CF911F910F9108950FB68E
:102ED000F8940F92FC01868D0F900FBE08950FB6E7
:102EE000F8940F92FC01268D0F900FBEFC01878D88
:102EF000821B0895FC01868D0895CF93DF93EC012A
:102F000088819981009711F00E947611CE01DF919E
:102F1000CF910C947611FC01968D81E0911180E0A7
:102F20000895FC01268D81E0978D291380E0089596
:102F3000EF92FF920F931F93CF93DF9300D0CDB703
:102F4000DEB77C0181EE92E0F70191838083611509
:102F50007105C1F0FB0101900020E9F73197E61BF4
:102F6000ED3020F50E2F10E0C801019669837A83B9
:102F70000E94030DF70195838483A80169817A81FA
:102F80000E94B11A8091961A9091971AF70197832F
:102F90008683F092971AE092961A0F900F90DF9125
:102FA000CF911F910F91FF90EF900895ECE0DACF51
:102FB0000F931F93CF93DF93EC018091961A90911A
:102FC000971A6BE0892B49F1CE010E94780D8C0194
:102FD00064E172E00E94330D66E0C8010E94780D42
:102FE0006BE0CE010E94780D8C0161EF71E00E94D0
:102FF000330D66E0C8010E94780D8091961A909179
:10300000971ADC01ED91FC910190F081E02DBE0159
:10301000DF91CF911F910F910994CE010E94780DFD
:10302000EC0163ED71E00E94330D66E0CE01DF91AB
:10303000CF911F910F910C94780DCF93DF93EC01FA
:10304000442309F441C08EEC90E09983888388EC96
:1030500090E09B838A8389EC90E09D838C8388E158
:103060008093C90086E08093CA001092CD009B0136
:1030700040E050E0220F331F441F551F220F331F23
:10308000441F551F220F331F441F551F220F331F8C
:10309000441F551F60E074E284EF90E00E948319A2
:1030A0002093CC008091C80081608093C80080E2AA
:1030B0008E8380E88F8380E48887E881F98180812E
:1030C0008081DF91CF91089586EC90E09983888389
:1030D00080EC90E09B838A8381EC90E09D838C83DD
:1030E00088E18093C10086E08093C2001092C50001
:1030F0009B0140E050E0220F331F441F551F220F59
:10310000331F441F551F220F331F441F551F220F0B
:10311000331F441F551F60E074E284EF90E00E946B
:1031200083192093C4008091C00081608093C00007
:10313000BECFDC011296ED91FC911397208116967B
:103140008C91282381E009F480E00895DC01129637
:10315000ED91FC911397208118968C91282381E0A2
:1031600009F080E00895CF92DF92EF92FF920F93E3
:103170001F93CF93DF9314BE88E10FB6F89480932A
:103180006000109260000FBE80E190E00E94FC0C95
:10319000EC0141E060E875E20E94510F67E0CE016A
:1031A0000E94780D6BE00E94780D7C0164EE70E067
:1031B0000E94330D66E0C7010E94780D88E190E01F
:1031C0000E94FC0C6C011AE0E12EF12C00E010E0F2
:1031D0009E014DE052E060E270E0C6010E94B70C33
:1031E000D092E502C092E4028EE090E00E94FC0CD6
:1031F0007C01BE010E94A30163E172E0CE010E9446
:10320000330D66E0CE010E94780D81E490E00E94CB
:10321000FC0C8E0128E131E044E069E172E00E949B
:10322000CC010E94020580E090E0DF91CF911F91D8
:103230000F91FF90EF90DF90CF9008950E94BD0A0C
:103240000F93CF93DF931F92CDB7DEB76983FC0155
:10325000208931894289538900E0BE016F5F7F4F29
:10326000868597850E9410150F90DF91CF910F9161
:103270000895FC01868597850E94671791E081116A
:1032800001C090E0892F08950F93CF93DF931F9291
:10329000CDB7DEB700E02FEF3FEFA901BE016F5FB2
:1032A0007F4FFC01868597850E943116813031F46D
:1032B00089810F90DF91CF910F9108958FEFF9CF12
:1032C000A29FB001B39FC001A39F700D811D112467
:1032D000911DB29F700D811D1124911D0895AA1B8F
:1032E000BB1B51E107C0AA1FBB1FA617B70710F0F1
:1032F000A61BB70B881F991F5A95A9F78095909523
:10330000BC01CD010895A1E21A2EAA1BBB1BFD0131
:103310000DC0AA1FBB1FEE1FFF1FA217B307E407B4
:10332000F50720F0A21BB30BE40BF50B661F771F0C
:10333000881F991F1A9469F76095709580959095EC
:103340009B01AC01BD01CF010895EE0FFF1F059059
:10335000F491E02D09940CD0BAC0B2D040F0A9D0BD
:1033600030F021F45F3F19F09BC05111E4C09EC0C2
:10337000BFD098F39923C9F35523B1F3951B550B8F
:10338000BB27AA2762177307840738F09F5F5F4F38
:10339000220F331F441FAA1FA9F333D00E2E3AF079
:1033A000E0E830D091505040E695001CCAF729D093
:1033B000FE2F27D0660F771F881FBB1F26173707E2
:1033C0004807AB07B0E809F0BB0B802DBF01FF2712
:1033D00093585F4F2AF09E3F510568F061C0ABC023
:1033E0005F3FECF3983EDCF3869577956795B7954C
:1033F000F7959F5FC9F7880F911D9695879597F967
:103400000895E1E0660F771F881FBB1F62177307DF
:103410008407BA0720F0621B730B840BBA0BEE1FF4
:1034200088F7E0950895E89409C097FB3EF49095DD
:103430008095709561957F4F8F4F9F4F9923A9F08D
:10344000F92F96E9BB279395F6958795779567951C
:10345000B795F111F8CFFAF4BB0F11F460FF1BC060
:103460006F5F7F4F8F4F9F4F16C0882311F096E9F3
:1034700011C0772321F09EE8872F762F05C06623A1
:1034800071F096E8862F70E060E02AF09A95660F5A
:10349000771F881FDAF7880F9695879597F9089513
:1034A00097F99F6780E870E060E008959FEF80ECF7
:1034B000089500240A94161617061806090608959A
:1034C00000240A9412161306140605060895092E00
:1034D0000394000C11F4882352F0BB0F40F4BF2B6F
:1034E00011F460FF04C06F5F7F4F8F4F9F4F0895AF
:1034F00057FD9058440F551F59F05F3F71F04795A5
:10350000880F97FB991F61F09F3F79F08795089589
:10351000121613061406551FF2CF4695F1DF08C0A8
:10352000161617061806991FF1CF869571056105C5
:1035300008940895E894BB2766277727CB0197F96D
:103540000895FB01DC0102C001900D9241505040F2
:10355000D8F70895DC0101C06D9341505040E0F769
:103560000895FB01DC014150504048F001900D925C
:103570000020C9F701C01D9241505040E0F7089566
:10358000FA01CF93FF93EF932230CCF02532BCF4B5
:10359000C22F2C2F332744275527FF93EF930E94E8
:1035A0008319EF91FF91605D6A330CF0695D61935F
:1035B000B901CA01605070408040904051F71082BC
:1035C0008F919F91CF910C94FB1AFB019F01423088
:1035D00074F0453264F4642F77270E946F19805D80
:1035E0008A330CF0895D8193CB010097A1F710829B
:1035F000C9010C94FB1ADC01FC01672F7191772340
:10360000E1F7329704C07C916D9370836291AE179D
:0A361000BF07C8F30895F894FFCF38
:10361A005F41434B00FFFFFFFF0A033717507269F0
:10362A006E740048656C6C6F007472616E7300434F
:10363A0068616E6E656C3A2000204552524F523ACC
:10364A0020006275663A20006E6F2063686172001E
:10365A002B004275666665725B005D3A2000536511
:10366A006E7440200000000000DB02F30A49444C5B
:10367A00450000000000180DF30A7478745F7109A0
:10368A000000000000190D2019391944191F0D20D6
:10369A000D3E0CFAFF0000F90C00000000190D188D
:1036AA000D1D0D1B0D1F0D200D00000000190DC072
:1036BA000E320FE20E1F0D2A0F416E616C6F672FDB
:1036CA004469676974616C20436F6E7665727465CC
:1036DA0072205375636365737366756C6C792069C0
:1036EA006E697469616C697A65642E200000000055
:0436FA0000180D00A7
:00000001FF
