:100000000C9421010C9440010C9440010C9440018B
:100010000C9440010C9440010C9440010C9440015C
:100020000C9440010C9440010C9440010C9440014C
:100030000C9440010C9440010C9440010C9440013C
:100040000C9440010C9440010C9440010C9440012C
:100050000C9440010C9440010C9440010C9440011C
:100060000C9440010C94B2100C9440010C9440018B
:100070000C9440010C9440010C9440010C944001FC
:100080000C9440010C9440010C9440010C944001EC
:100090000C9405110C9440010C9440010C94400107
:1000A0000C9440010C9440010C9440010C944001CC
:1000B0000C9440010C9440010C9440010C94D51414
:1000C0000C9440010C9440010C9440018F0E980E4A
:1000D0009B0E9E0E910E910EA10EB10EB80EBF0E8C
:1000E000C30E950E7C204D45343035204C65676F2E
:1000F000436172205472616E736D6974746572200D
:100100007C005F445256005F434F4E004552524FB1
:1001100052206372656174696E67207461736B202D
:1001200022005461736B2022002220637265617487
:1001300065642C20737461636B20617420307800D7
:1001400049444C45090930092D09002F0009092DA2
:10015000002D2D2D2D09092D2D2D2D092D2D2D2D68
:100160002D00092D2D2D2D2D2D2D2D2D2D00092D61
:100170002D2D2D004E616D6509095072692E0953B0
:10018000746174650009467265652F546F74616C03
:10019000000952756E73005461736B0909202009C0
:1001A000200009537461636B00090009002F0009E6
:1001B00000090043757272656E74204368616E6E4B
:1001C000656C2052656164696E67733A2000456E04
:1001D00064205072696E742044617461004E6F2017
:1001E0007368617265642064617461206974656D0F
:1001F0007320746F207072696E74002D2D2D2D2068
:1002000020202020202020202020202D2D2D2D20BA
:100210002020202D2D2D2D2D2D2D2D2D2D00536801
:100220006172652F517565756520202020205479F5
:10023000706520202020467265652F546F74616CB4
:10024000000011241FBECFEFD1E2DEBFCDBF13E00F
:10025000A0E0B2E0E0E4F8E300E00BBF02C00790EA
:100260000D92A830B107D9F71AE1A8E0B3E001C0B8
:100270001D92AE3BB107E1F70E94BD190C941E1C04
:100280000C940000EF92FF920F931F93CF93DF9394
:100290008C01E62E3AE0F32EC0E0D0E06E2DF8019E
:1002A000848595850E947911C80FD91FFA94B1F7FA
:1002B000F801008111816FE172E0C8010E943D0EDA
:1002C0006E2DC8010E94490F8C0169E272E00E9404
:1002D0003D0E9E01ADECBCEC0E946A1A9695879586
:1002E000969587959695879560E072E0681B790BE7
:1002F000C8010E94C70E66E0DF91CF911F910F9158
:10030000FF90EF900C94820E0F931F93CF93DF9387
:10031000EC0182E090E00E94060E8C0168817981F8
:100320000E9458111D870C874885598560E0CE01D1
:100330000E9442014A855B8561E0CE010E94420134
:100340001A821B821C82DF91CF911F910F91089519
:10035000FC01718360830C948401CF93DF93CDB74C
:10036000DEB728970FB6F894DEBF0FBECDBFFB01F6
:1003700084E392E19183808388E796E59383828387
:100380008CEB9AE99583848380EF9EED9783868337
:1003900028960FB6F894DEBF0FBECDBFDF91CF9188
:1003A0000895EF92FF920F931F93CF93DF93EC0189
:1003B0000E94200B8DE792E099838883FD8AEC8A66
:1003C0001AA61BA61CA681E08E8B1AAE188E8F8BE8
:1003D000FE017A9687E0DF011D928A95E9F7198E72
:1003E0008AE090E09BAB8AAB1DAA80E190E00E947E
:1003F000060E8C0140E060E070E00E945B101B8BF9
:100400000A8BE0ECF0E080818260808380E190E004
:100410009093C5008093C400DF91CF911F910F91FD
:10042000FF90EF9008950F931F93CF93DF93EC010C
:100430008CA98A8F81E0888F13C08A899B89DC010F
:10044000ED91FC910680F781E02D09958CAB988D9C
:10045000FE01E90FF11D828F933091F09F5F988F1D
:100460008A899B89DC01ED91FC910480F581E02D66
:1004700009958111E2CFDF91CF911F910F910895DE
:10048000138E0E811F8162E372E0C8010E943D0E4F
:10049000BE01665E7F4FC8010E943D0E66E0C80146
:1004A0000E94820E81E0DF91CF911F910F910895FC
:1004B000FC01B29628E036E431932150E9F728E0B8
:1004C000FC01208F0895EF92FF920F931F93CF931B
:1004D000DF938C01FC01108EF12CF801EF0DF11D62
:1004E000E2A0F801C681D78168E372E0CE010E94E4
:1004F0003D0E6F2DCE010E94490FEC0160E472E0C9
:100500000E943D0EE881F9810280F381E02D6E2D7D
:10051000CE01099566E0CE010E94820EF801F08CB2
:10052000F394F08EF7E0FF15C0F6DF91CF911F91A5
:100530000F91FF90EF9008950F931F93CF93DF9348
:10054000EC01188E80E00A891B89D801ED91FC919D
:10055000DE01A80FB11D0280F381E02D92966C910F
:10056000C801099566E0C8010E94820E888D8F5FE0
:10057000888F883040F38E01065E1F4F0CC08A8939
:100580009B89DC01ED91FC910680F781E02D0995B6
:100590008CAB8F3581F08A899B89DC01ED91FC91D0
:1005A0000480F581E02D09958111E9CFDF91CF918C
:1005B0001F910F910895CE010E941302CE010E9457
:1005C000630260E072E0C8010E94BB1B892B19F72F
:1005D0000E80DF81C02D64E472E0CE010E943D0EEA
:1005E00066E0CE010E94820E81E0E0CFCF93DF93E0
:1005F00000D000D0CDB7DEB78C010E944F066983D2
:100600007A838B839C83D801D5968C91F8017A9656
:100610006F0181112FC0CE0101967C019924939422
:100620006BE0D80152968D919C9153970E94820E57
:100630005C0167E071E00E943D0E66E0C5010E942A
:10064000820EF80182899389DC01ED91FC9104808E
:10065000F581E02D0995811174C044EF51E060E00F
:1006600070E0C7010E94EF07D801D5968C918823CE
:10067000B9F203C0CE0101967C01D801DA968C91C3
:1006800081112AC0992493946BE0D80152968D91E0
:100690009C9153970E94820E5C0162E071E00E947F
:1006A0003D0E66E0C5010E94820EF80182899389A1
:1006B000DC01ED91FC910480F581E02D099581111B
:1006C00089C044EF51E060E070E0C7010E94EF078D
:1006D000F80182AD8823C1F25801BAE2AB0EB11C19
:1006E000F801B2966F0188E0682E96E4792EB50184
:1006F000D80154968D919C9155970E94AD01F601B9
:1007000088E071928150E9F7F801608EC8010E947B
:100710009C028823D9F3D80116968D909C90179748
:1007200064E772E0C4010E943D0E66E0C4010E94CD
:10073000820E44EF51E060E070E0C7010E94EF07D5
:10074000D6CFF80182899389DC01ED91FC91068076
:10075000F781E02D0995F80184AB8F3509F07DCF45
:10076000C8010E941302D8011696AD90BC9017974D
:1007700065E572E0C5010E943D0EB601C5010E940B
:100780003D0E66E0C5010E94820E60E072E0C60187
:100790000E94BB1B892B09F060CFF801A680B780AF
:1007A0006BE572E0C5010E943D0E66E0C5010E9446
:1007B000820ED8015296AD90BC90539764E672E0D9
:1007C000C5010E943D0E66E0C5010E94820EF8013F
:1007D00095AA43CFF80182899389DC01ED91FC91C0
:1007E0000680F781E02D0995F80184AB8F3509F07B
:1007F00068CFC8010E941302D8011696AD90BC9034
:10080000179765E572E0C5010E943D0EB601C5016E
:100810000E943D0E66E0C5010E94820E60E072E01B
:10082000C6010E94BB1B892B09F04BCFF801A680A3
:10083000B78069E672E0C5010E943D0E66E0C50121
:100840000E94820ED801DA969C923BCF80913F03A2
:10085000823018F00E942014F9CFFFCFCF92DF92A0
:10086000EF92FF926B017C01E0910A03F0910B0380
:10087000628373838483958380911303909114031F
:10088000A0911503B091160360910A0370910B03B8
:10089000C816D906EA06FB0610F18091270390914D
:1008A00028036E5F7F4F0E94E712809105029091AE
:1008B0000602A0910702B0910802C816D906EA06FE
:1008C000FB0640F4C0920502D0920602E0920702B5
:1008D000F0920802FF90EF90DF90CF900895809102
:1008E0002503909126036E5F7F4FFF90EF90DF907E
:1008F000CF900C94E7125F926F927F928F929F92AB
:10090000AF92BF92CF92DF92EF92FF920F931F931D
:10091000CF93DF934C01162F572E5A01390189E2EC
:1009200090E00E94E711EC01009709F4E9C0C114BE
:10093000D10409F4DAC0DC8ECB8EC601A50165EACC
:1009400070E00E94B41B21E0A21AB108CB8CDC8CB1
:10095000CA0CDB1CAE01435E5F4FE12FF52D2AE090
:10096000CF013191DA013D93AD01DC018C918823F7
:1009700011F02150A9F71EA2102F043008F07DC0FD
:100980001A8F1FA318A65E01B2E0AB0EB11CC50101
:100990000E94C212CE010E960E94C212DB87CA8745
:1009A00084E090E0A0E0B0E0811B9109A109B109C9
:1009B0008E879F87A88BB98BDF8BCE8BA301B40169
:1009C000C6010E94501399838883E114F10419F041
:1009D000F701D183C0830FB6F8940F92809117036B
:1009E0008F5F8093170380910A0390910B03892BEB
:1009F00009F449C08091110381110BC0E0910A03F1
:100A0000F0910B03828D081720F0D0930B03C09355
:100A10000A0380910D038F5F80930D038A8D90915F
:100A20001203981738F1FBE08F9FC0011124B50124
:100A3000815C9C4F0E94C6120F900FBE80911103E3
:100A4000882339F0E0910A03F0910B03828D80171F
:100A5000B0F081E0DF91CF911F910F91FF90EF9067
:100A6000DF90CF90BF90AF909F908F907F906F90CE
:100A70005F90089580931203D6CF13E081CF0E9438
:100A8000201481E0E7CFD0930B03C0930A03809139
:100A90001703813009F0BDCF8FE393E00E94B112BC
:100AA0008AE493E00E94B11285E593E00E94B112BE
:100AB00080E693E00E94B11284E393E00E94B112B9
:100AC00089E293E00E94B1128AE193E00E94B112A0
:100AD00084E393E0909328038093270389E293E0D3
:100AE000909326038093250394CFC5010E94E711BC
:100AF0009C8F8B8F009709F021CFCE010E9480122E
:100B00008FEFA8CF0FB6F8940F92009729F00F90AF
:100B10000FBEFC01828D089580910A0390910B0312
:100B20000F900FBEFC01828D0895EF92FF921F93EC
:100B3000CF93DF93EC01262F643008F023E00FB64B
:100B4000F8940F92209709F44AC03FA13217A9F1F7
:100B500080910A0390910B033217B8F5C817D90793
:100B600041F0E0910A03F0910B0311E0828D281708
:100B700008F410E08A8D381769F12FA34E855F8540
:100B80006889798977FD0CC044E050E060E070E04E
:100B9000421B5109610971094E875F87688B798B08
:100BA0002BE0829FC0011124815C9C4F2C853D85E8
:100BB00028173907C9F0113079F00F900FBEDF9177
:100BC000CF911F91FF90EF90089511E0C817D907BA
:100BD00081F6D0CF2A8FD1CF0E942014EECFC091C2
:100BE0000A03D0910B03B1CF7E0182E0E80EF11C25
:100BF000C7010E9424138A8D90911203981710F454
:100C0000809312032BE0829FC0011124B701815C05
:100C10009C4F0E94C612CFCFAF92BF92CF92DF926D
:100C2000EF92FF920F93A12CB12CC12CD12C88E113
:100C3000E82E83E0F82E00E020E030E044E650E0CB
:100C400061E872E086E294E00E947B04813041F02A
:100C50000F91FF90EF90DF90CF90BF90AF900895ED
:100C6000F8948093110310921303109214031092BE
:100C70001503109216030F91FF90EF90DF90CF9025
:100C8000BF90AF900C94E413F894109211030C945D
:100C90001F1480910C038F5F80930C0308950FB68F
:100CA000F8940F92609113037091140380911503CF
:100CB000909116030F900FBE0895609113037091E9
:100CC00014038091150390911603089580911703E2
:100CD0000895009711F04D96089580910A03909120
:100CE0000B034D9608958091180390911903089570
:100CF000AF92BF92CF92DF92EF92FF920F931F932A
:100D0000CF93DF9380910C038111CFC080911303A7
:100D100090911403A0911503B09116030196A11DA3
:100D2000B11D8093130390931403A0931503B09304
:100D30001603C0901303D0901403E0901503F090B5
:100D40001603C114D104E104F10439F5809127039D
:100D50009091280320912503309126033093280396
:100D600020932703909326038093250380910E03FD
:100D70008F5F80930E03E0912703F0912803808119
:100D800081119AC08FEF9FEFDC0180930502909351
:100D90000602A0930702B093080280910502909189
:100DA0000602A0910702B0910802B12CC816D9061C
:100DB000EA06FB0608F457C09BE0A92EE091270342
:100DC000F09128038081882309F442C0E091270331
:100DD000F09128030780F085E02DC085D1854A81F8
:100DE0005B816C817D81C416D506E606F70608F4A2
:100DF0007AC08E010E5F1F4FC8010E942413888D98
:100E0000998D892B21F0CE010E960E9424138A8D94
:100E100090911203981710F480931203A89EC001BA
:100E20001124B801815C9C4F0E94C612E0910A0314
:100E3000F0910B039A8D828D981708F4BFCFBB24D5
:100E4000B394E0912703F091280380818111BECFF4
:100E50004FEF5FEFBA014093050250930602609393
:100E6000070270930802E0910A03F0910B03E28DF0
:100E70008BE0E89FF0011124E15CFC4F808182301F
:100E800010F0BB24B39480910F03882311F0BB248E
:100E9000B3948B2DDF91CF911F910F91FF90EF9025
:100EA000DF90CF90BF90AF900895809110038F5F37
:100EB00080931003B12CE7CFE0912703F091280332
:100EC0000780F085E02D0084F185E02D82819381FB
:100ED000A481B5818093050290930602A093070236
:100EE000B09308025ACF40930502509306026093D4
:100EF000070270930802B7CFEF92FF920F931F93F0
:100F0000CF93DF930FB6F8940F9280910C0381502A
:100F100080930C0380910C03811150C080911703C2
:100F2000882309F44BC02BE0F22EEE24E39427C073
:100F3000E0912103F0912203C085D185CE010E9668
:100F40000E9424138E010E5F1F4FC8010E942413BC
:100F50008A8D90911203981710F480931203F89ED3
:100F6000C0011124B801815C9C4F0E94C612E0911F
:100F70000A03F0910B039A8D828D981748F58091A2
:100F80001A038111D5CF80911003882399F08091A5
:100F90001003882379F0C1E00E9478068111C09384
:100FA0000F038091100381508093100380911003F0
:100FB0008111F2CF80910F03813069F080E00F90B2
:100FC0000FBEDF91CF911F910F91FF90EF90089589
:100FD000E0920F03D4CF0E94201481E0F0CFCF9293
:100FE000DF92EF92FF920F931F93CF93DF9300D086
:100FF00000D0CDB7DEB720910C032F5F20930C03F8
:10100000C0901303D0901403E0901503F0901603E2
:10101000FC010081118122813381400F511F621F29
:10102000731FC016D106E206F306E8F44017510715
:1010300062077307E8F0FC01408351836283738386
:101040000E947C07811102C00E9420140F900F9013
:101050000F900F90DF91CF911F910F91FF90EF9024
:10106000DF90CF900895401751076207730728F06B
:10107000C416D506E606F706F0F6FC014083518358
:101080006283738380910A0390910B0302964983D4
:101090005A836B837C830E94241349815A816B811C
:1010A0007C81CB01BA010E942E04CACFCF92DF927D
:1010B000EF92FF92611571058105910539F40E9447
:1010C0002014FF90EF90DF90CF90089520910C03B3
:1010D0002F5F20930C03C0901303D0901403E09073
:1010E0001503F0901603C60ED71EE81EF91E809158
:1010F0000A0390910B0302960E942413C701B601C4
:101100000E942E040E947C078823C9F2FF90EF9072
:10111000DF90CF90089580910C0381113BC0109215
:101120000F03E09112038BE0E89FF0011124E15CD2
:10113000FC4F8081811110C09BE08091120381508F
:1011400080931203E09112039E9FF0011124E15C51
:10115000FC4F8081882389F3E09112038BE0E89FA4
:10116000F0011124E15CFC4FA181B28114960D9035
:10117000BC91A02DB283A183CF010396A817B90714
:1011800069F018968D919C91199790930B03809319
:101190000A03089581E080930F03089514969C91AB
:1011A000149715968C9191838283A92FB82FE9CF3C
:1011B000CF92DF92EF92FF926A017B0160910A0366
:1011C00070910B03625F7F4F0E94E71280910A03C8
:1011D00090910B0302960E94241360911303709167
:1011E000140380911503909116036C0D7D1D8E1DC7
:1011F0009F1DFF90EF90DF90CF900C942E04CF9224
:10120000DF92EF92FF920F931F9368017901E091B3
:101210000A03F0910B03706846875787608B718BC8
:1012200060910A0370910B03625F7F4F0E94C612A8
:1012300080910A0390910B0302960E9424136091FF
:1012400013037091140380911503909116036C0D94
:101250007D1D8E1D9F1D1F910F91FF90EF90DF90C0
:10126000CF900C942E040F931F93CF93DF93DC0148
:101270001796ED91FC911897C085D1858E01025F7C
:101280001F4FC8010E94241380910C03811124C0B8
:101290008E010E5F1F4FC8010E9424138A8D90910A
:1012A00012039817F8F0BBE08B9FC0011124B8011E
:1012B000815C9C4F0E94C612E0910A03F0910B03DF
:1012C0009A8D828D891788F481E080930F03DF91D6
:1012D000CF911F910F910895B8018AE193E00E9488
:1012E000C612EACF80931203DECF80E0DF91CF9168
:1012F0001F910F9108950F931F93CF93DF93706801
:10130000FC014083518362837383C085D1850E9431
:1013100024138E010E5F1F4FC8010E9424138A8D73
:1013200090911203981710F480931203FBE08F9FA3
:10133000C0011124B801815C9C4F0E94C612E0914B
:101340000A03F0910B039A8D828D891740F481E096
:1013500080930F03DF91CF911F910F91089580E04B
:10136000DF91CF911F910F91089520910E03FC0101
:1013700020834091130350911403609115037091E1
:101380001603418352836383748308958F929F92DF
:10139000AF92BF92CF92DF92EF92FF920F931F9383
:1013A000FC01DB010FB6F8940F92409113035091AA
:1013B0001403609115037091160380910E039081C0
:1013C0000181128123813481981729F04017510738
:1013D0006207730770F5CD90DD90ED90FC90139748
:1013E0004A015B01801A910AA20AB30A8C149D0477
:1013F000AE04BF04F0F4C41AD50AE60AF70AC00E18
:10140000D11EE21EF31ECD92DD92ED92FC92139757
:1014100080910E0380838091130390911403A09117
:101420001503B091160381839283A383B48380E074
:1014300001C081E00F900FBE1F910F91FF90EF90C0
:10144000DF90CF90BF90AF909F908F90089581E0F4
:1014500080930F030895009799F0DC015B96ED915E
:10146000FC915C978081853A81F4319680E090E030
:10147000DC010196A11DB11D2191253AD1F30895FA
:1014800080910A0390910B03E8CF80E0089580914A
:101490000A0390910B0308950F931F93CF93DF934B
:1014A000EC01009781F18A8DE0910A03F0910B0322
:1014B000928D891740F54E855F856889798977FD1A
:1014C00011C0E0910A03F0910B03928D44E050E0CB
:1014D00060E070E0491B5109610971094E875F871F
:1014E000688B798B2BE0829FC0011124815C9C4F1B
:1014F0002C853D852817390759F0E0910A03F091B2
:101500000B03828D8A8FDF91CF911F910F910895E8
:101510008E010E5F1F4FC8010E942413E0910A0341
:10152000F0910B03828D8A8F90911203981710F41B
:10153000809312032BE0829FC0011124B801815CCB
:101540009C4FDF91CF911F910F910C94C6120F9376
:101550001F93CF93DF93EC01009749F088A581504A
:1015600088A72A8D9FA1291711F0882331F080E0E8
:10157000DF91CF911F910F9108958E010E5F1F4F44
:10158000C8010E9424138FA18A8F44E050E060E0DC
:1015900070E0481B5109610971094E875F87688BAC
:1015A000798B90911203981710F4809312032BE01B
:1015B000829FC0011124B801815C9C4F0E94C61219
:1015C00081E0DF91CF911F910F910895CF92DF922B
:1015D000EF92FF92E0910A03F0910B036685778505
:1015E00080899189E0910A03F0910B03A0910A038D
:1015F000B0910B035A962C9134E0C32ED12CE12CE0
:10160000F12CC21AD108E108F108C686D786E08A13
:10161000F18AFF90EF90DF90CF90089580910A03B8
:1016200090910B03892B39F0E0910A03F0910B03A1
:1016300080A58F5F80A780910A0390910B03089586
:101640004F925F926F927F928F929F92AF92BF92D2
:10165000CF92DF92EF92FF920F931F93CF93DF937E
:10166000EC013B0149012801FC018AE892E08193E9
:101670009193A12CB12CC12CD12C7F01042F9E0160
:10168000A40188E29AE10E947B045F824E829986DF
:10169000888620916B0330916C033D832C83D0931B
:1016A0006C03C0936B031C861D868090BC1A9090BF
:1016B000BD1A9FEF891A990A9092BD1A8092BC1A9E
:1016C0009B868A861E861F86188A198A41145104B1
:1016D00009F44CC06BE0813041F1C2010E94820EDE
:1016E000EC016CE071E00E943D0EB301CE010E945E
:1016F0003D0EE881F9810280F381E02D62E2CE01A6
:10170000099566E0CE01DF91CF911F910F91FF9077
:10171000EF90DF90CF90BF90AF909F908F907F9091
:101720006F905F904F900C94820EC2010E94820EC7
:10173000EC0162E271E00E943D0EB301CE010E9415
:101740003D0E6BE0CE010E94820EEC0169E271E079
:101750000E943D0E63E0CE010E94820EB4010E9401
:10176000C70E62E00E94820E66E0CDCFDF91CF917E
:101770001F910F91FF90EF90DF90CF90BF90AF90AF
:101780009F908F907F906F905F904F900895EC01A5
:10179000E881F9810190F081E02D09951B821A8280
:1017A0006FEF7FEFCB010E945608FACFFC016487F0
:1017B00065870895FC01C681D781209739F0CE0155
:1017C0000E943D0E66E0CE010E94820E2BE088E171
:1017D00090E00FB6F894A895809360000FBE209318
:1017E0006000FFCF0E944F060E941D1B20E030E0EA
:1017F0004AE754E40E94B51A08958F929F92AF92DF
:10180000BF92CF92DF92EF92FF920F931F93CF93ED
:10181000DF93EC018B018A819B810E946906BC01E8
:10182000C8010E943D0ED801ED91FC910280F38128
:10183000E02D69E0C80109958A819B810E946906B3
:10184000FC0101900020E9F73197E81BF90B38976C
:1018500048F4D801ED91FC910280F381E02D69E01C
:10186000C8010995CE84DF84E888F988A884B98402
:101870008A819B810E942B0A982E8C848A819B816D
:101880000E948205682FC8010E94490F6BE00E94E8
:10189000820EEC0169EA71E00E943D0E682DCE01D6
:1018A0000E94490F6BE00E94820EEC016BEA71E02E
:1018B0000E943D0E692DCE010E94490F6BE00E94EF
:1018C000820EEC016DEA71E00E943D0EB501CE0181
:1018D0000E94C70E6BE00E94820EEC016FEA71E07D
:1018E0000E943D0E6BE0CE010E94820EEC0161EB86
:1018F00071E00E943D0EB701A601CE01DF91CF91AC
:101900001F910F91FF90EF90DF90CF90BF90AF901D
:101910009F908F900C94010F0F931F93CF93DF93A1
:10192000EC018B01E881F9810280F381E02DB8019F
:10193000CE01099566E0C8010E94820E0C80DD810F
:10194000C02D209779F7DF91CF911F910F910895C6
:10195000CF93DF93EC01CB01DB01ED91FC91028091
:10196000F381E02DBE010995CE01DF91CF9108955D
:101970000F931F93CF93DF93EC016BE00E94820ED5
:101980008C0167E971E00E943D0E6BE0C8010E9486
:10199000820E8C0162EA71E00E943D0E66E0C80191
:1019A0000E94820E6BE0CE010E94820E8C0164E7E1
:1019B00071E00E943D0E6BE0C8010E94820E8C0116
:1019C00065E871E00E943D0E6BE0C8010E94820E46
:1019D0008C0161E971E00E943D0E66E0C8010E9441
:1019E000820E6BE0CE010E94820E8C0161E571E0F7
:1019F0000E943D0E6BE0C8010E94820E8C0162E6DF
:101A000071E00E943D0E6BE0C8010E94820E8C01C5
:101A10006EE671E00E943D0E66E0C8010E94820EF3
:101A200080916B0390916C03009719F0BE010E94A6
:101A30008C0C0E9473060E942B0A182F6BE0CE01BB
:101A40000E94820EEC0160E471E00E943D0E612F65
:101A5000CE010E94490F6BE00E94820EEC016BE404
:101A600071E00E943D0E64E670E0CE010E94C70E58
:101A70006BE00E94820EEC016DE471E00E943D0E6D
:101A800066E0CE01DF91CF911F910F910C94820EF1
:101A9000CF92DF92EF92FF920F931F93CF93DF933A
:101AA0007C018B01DC011A966D917C911B97C8011A
:101AB0000E943D0EF701A285B385FD010190002033
:101AC000E9F73197DE2EDA1AFFE0FD1580F0C0E06D
:101AD000D0E0D801ED91FC910280F381E02D60E22D
:101AE000C801099521968C2F8D0D803190F36EE8F9
:101AF00072E0C8010E943D0ED7015696CD90DC9051
:101B000057971E968D919C911F970E947918682F68
:101B1000C8010E94490FEC01E881F9810280F3813C
:101B2000E02D6FE20995B601CE010E94C70EDC01DF
:101B3000ED91FC910280F381E02D69E0099566E06A
:101B4000C8010E94820EF70184859585009781F077
:101B5000DC01ED91FC910190F081E02DB801DF9165
:101B6000CF911F910F91FF90EF90DF90CF9009944C
:101B7000DF91CF911F910F91FF90EF90DF90CF9069
:101B800008956F927F928F929F92AF92BF92CF9261
:101B9000DF92EF92FF920F931F93CF93DF93EC01AD
:101BA000762E672E4A015901670178010E94320E94
:101BB000B401CE0106960E94A21889E992E09983A9
:101BC00088832BEA32E03F832E83BD8AAC8A40E0D3
:101BD00061E0872D0E94EA159F878E87C88AD98A7F
:101BE000EA8AFB8A7E8A6F8ADF91CF911F910F91DB
:101BF000FF90EF90DF90CF90BF90AF909F908F902D
:101C00007F906F90089506970C94480D0C94E711FF
:101C1000009711F00C94801208950C94E71100972E
:101C200011F00C9480120895FC0181E090E0208175
:101C3000222311F080E090E0089521E0FC01208350
:101C400008950895089581E0089580E0089580E062
:101C500008950895DC01ED91FC910280F381E02D5F
:101C60006CE00994FC0181EB92E0918380838AE02F
:101C7000828383E08583148208950F931F93CF930B
:101C8000DF93EC01FB018C81811117C06081662319
:101C900079F08F010F5F1F4FE881F9810280F38196
:101CA000E02DCE010995F80161918F016111F4CF0A
:101CB000DF91CF911F910F9108951C828B010F5FCF
:101CC0001F4F64916623A1F3A881B9811296ED910B
:101CD000FC911397CE010995F80164910F5F1F4F96
:101CE0006111F2CFE5CF883008F087E080930A02D7
:101CF00089E008959EEF980F9F3010F480930902B9
:101D00008AE00895CF93DF93EC01462F50E04C30EA
:101D1000510538F4FA01EA59FF4F0C94AF1A82E0EA
:101D20008A83CE01DF91CF91089581E08C83F9CF32
:101D300088E08A83F6CF8AE08A83F3CF80E18A83C2
:101D4000F0CFE881F9810280F381E02D6DE0099503
:101D5000E881F9810280F381E02D6AE0CE010995E6
:101D6000E0CFE881F9810284F385E02D0995D9CF90
:101D7000E881F9810084F185E02D0995D2CF809129
:101D80000A028D83CECF809109028A83CACFFF9247
:101D90000F931F93CF93DF93CDB7DEB761970FB645
:101DA000F894DEBF0FBECDBF8C01F62E972FF80141
:101DB0004281403191F0483081F0423071F050E082
:101DC000BE016F5F7F4F8F2D0E94F81BBE016F5FBA
:101DD0007F4FC8010E943D0E07C0692FC8010E94B5
:101DE000490F6F2D0E94490FC80161960FB6F894F4
:101DF000DEBF0FBECDBFDF91CF911F910F91FF903E
:101E00000895DF92EF92FF920F931F93CF93DF938A
:101E1000CDB7DEB7A1970FB6F894DEBF0FBECDBF2A
:101E20008C01D42EE52EF62E972FF8012281203139
:101E3000A1F0283091F0223081F030E0AE014F5F08
:101E40005F4F6D2D7E2D8F2D0E94D31BBE016F5FC6
:101E50007F4FC8010E943D0E0DC0692FC8010E942E
:101E6000490F6F2D0E94490F6E2D0E94490F6D2D55
:101E70000E94490FC801A1960FB6F894DEBF0FBEAD
:101E8000CDBFDF91CF911F910F91FF90EF90DF9029
:101E90000895CF92DF92EF92FF920F931F93CF930B
:101EA000DF93CDB7DEB729970FB6F894DEBF0FBE2C
:101EB000CDBF8C01D62EDC0113968C911397811126
:101EC0005DC0F80142814230D9F14031F1F050E07B
:101ED000BE016F5F7F4F8D2D90E00E94F81BBE0109
:101EE0006F5F7F4FC8010E943D0EC80129960FB653
:101EF000F894DEBF0FBECDBFDF91CF911F910F9140
:101F0000FF90EF90DF90CF90089562956F700190F1
:101F1000F081E02D0280F381E02D6A30B8F5605D3C
:101F2000C80109956D2D6F70D801ED91FC9102806B
:101F3000F381E02D6A3060F1695CC8010995D5CF65
:101F400088E0E82EF12C90E8C92E0AC061E3C801B0
:101F50000995C694B1E0EB1AF108E114F10429F2F5
:101F60008C2D8D21D801ED91FC910280F381E02D23
:101F70008111ECCF60E3C8010995EBCFED91FC91A5
:101F80000280F381E02DC8010995AFCF695CC8CF0D
:101F9000605DD3CFDC011896ED91FC91199780819B
:101FA0001C969C911C97892359F421E23EE405C0BC
:101FB000215031092115310571F080818923C1F348
:101FC00080811E969C911E97892B80831696ED9199
:101FD000FC91179760830895FC01878581111DC0CE
:101FE000209175033091760380917303909174036F
:101FF0002817390789F0E0917703F0917803E20F11
:10200000F31F80812F5F3F4F2032310518F110926E
:102010007603109275030895FFCF20916F033091DE
:10202000700380916D0390916E032817390789F032
:10203000E0917103F0917203E20FF31F80812F5F33
:102040003F4F2032310558F01092700310926F0309
:102050000895FFCF3093760320937503089530934E
:10206000700320936F030895DC01ED91FC910280D1
:10207000F381E02D6CE00994FC018785882369F0E9
:1020800081E040916F035091700320916D03309176
:102090006E034217530769F0089581E0409175037C
:1020A00050917603209173033091740342175307C4
:1020B00099F780E00895EF92FF921F93CF93DF93FB
:1020C00000D0CDB7DEB77C01142F69837A830E94DC
:1020D000320E412F69817A81C70106960E94271925
:1020E00081EC92E0F7019183808317871123E9F057
:1020F0008091C90080688093C90080E290E00E94CE
:102100000D0E9093720380937103109270031092DE
:102110006F0310926E0310926D030F900F90DF917A
:10212000CF911F91FF90EF9008958091C10080683A
:102130008093C10080E290E00E940D0E909378039E
:1021400080937703109276031092750310927403B4
:10215000109273030F900F90DF91CF911F91FF901A
:10216000EF9008951F920F920FB60F9211240BB6A5
:102170000F922F933F938F939F93EF93FF93209111
:10218000C600E0917703F0917803809173039091FA
:102190007403E80FF91F20838091730390917403F7
:1021A000019680329105C0F4909374038093730379
:1021B000209175033091760328173907D1F0FF91EC
:1021C000EF919F918F913F912F910F900BBE0F90A8
:1021D0000FBE0F901F901895109274031092730306
:1021E00080E090E02091750330917603281739073D
:1021F00031F7019690937603809375038097F8F2F8
:102200001092760310927503DACF1F920F920FB6D9
:102210000F9211240BB60F922F933F938F939F939E
:10222000EF93FF932091CE00E0917103F091720340
:1022300080916D0390916E03E80FF91F20838091C8
:102240006D0390916E03019680329105C0F49093D6
:102250006E0380936D0320916F03309170032817F4
:102260003907D1F0FF91EF919F918F913F912F917D
:102270000F900BBE0F900FBE0F901F9018951092ED
:102280006E0310926D0380E090E020916F03309117
:1022900070032817390731F70196909370038093E4
:1022A0006F038097F8F21092700310926F03DACFE9
:1022B000CF93DF93FC017183608320917C002064C5
:1022C00020937C0020917A00256C20937A00C081B5
:1022D000D181209759F06DEC72E0CE010E943D0E45
:1022E00066E0CE01DF91CF910C94820EDF91CF9109
:1022F0000895683008F060E080917C00887F8093CA
:102300007C0080917C00862B80937C0080917A00F9
:10231000806480937A0080917A0086FDFCCF809162
:1023200078002091790090E0922B0895DF92EF924F
:10233000FF920F931F93CF93DF938C01D62EE42E41
:1023400080E48417E0F480E4E82EF12CC0E0D0E0D3
:102350006D2DC8010E947911C80FD91FF394FE108A
:10236000F7CF6E2D70E0CE010E94791ACB01DF917C
:10237000CF911F910F91FF90EF90DF900895411141
:10238000E4CFC0E0D0E0EDCF0F931F93CF93DF9366
:10239000EC016BE00E94820E8C0163EB71E00E9405
:1023A0003D0E66E0C8010E94820E6BE00E94820E24
:1023B0008C016EEC71E00E943D0E66E0C8010E9447
:1023C000820ECE01DF91CF911F910F9108950F934F
:1023D0001F93CF93DF93EC010E944906809179030C
:1023E000811121C083E893E090937F0380937E0363
:1023F000109281031092800387E397E190937D030D
:1024000080937C0310927B0310927A03909386034F
:10241000809385038AE793E09093840380938303FA
:1024200081E080937903209709F460C0AE014C5F8E
:102430005F4F2396C633D74108F058C0E0917E0322
:10244000F0917F03AEE7B3E006C0808191810097F1
:1024500039F0DF01FC012281338124173507A8F30D
:10246000C3E0EA37FC0709F441C00D911C911197B4
:102470000C5F1F4F808191818D939C93C901841BB8
:10248000950B8930910500F1BF01640F751FDB01C9
:1024900013969C938E9312975383428312968D9139
:1024A0009C911397AEE7B3E001C0DF01ED91FC9181
:1024B00011972281338128173907B8F3EB01F9838B
:1024C000E8836D937C939A0180910B0290910C02AA
:1024D000821B930B90930C0280930B020E947C074B
:1024E000C801DF91CF911F910F91089500E010E096
:1024F0000E947C07C801DF91CF911F910F91089531
:10250000CF93DF93009721F1EC0124970E944906B5
:102510004A815B81AEE7B3E001C0DF01ED91FC9140
:1025200011972281338124173507B8F3F983E883A3
:10253000CD93DC9380910B0290910C02840F951F38
:1025400090930C0280930B02DF91CF910C947C0747
:10255000DF91CF91089580910B0290910C02089524
:102560000895FC010396928381834FEF5FEFBA01D8
:10257000438354836583768390878783928781879B
:1025800010820895FC01138612860895CF93DF937D
:102590009C01FB01DC011196CD91DC911297D58352
:1025A000C4838E819F81978386838E819F81DC0186
:1025B00015967C936E9314977F836E83338722875F
:1025C000F90180818F5F8083DF91CF9108950F9310
:1025D0001F93CF93DF93EB01088119812A813B81FF
:1025E0000F3F4FEF14072407340731F1DC01139636
:1025F00001C0DF011496ED91FC9115974081518146
:1026000062817381041715072607370790F7FD834A
:10261000EC83D783C683BF83AE831596DC93CE93BA
:1026200014979B878A87FC0120812F5F2083DF918D
:10263000CF911F910F910895FC01A185B285149649
:10264000ED91FC911597E3CFCF93DF93FC01A28529
:10265000B3852481358186819781E9019F838E83AB
:1026600086819781EC013D832C8311962D913C91BD
:1026700012972E173F0741F0138612868C918150D6
:102680008C93DF91CF91089512969C938E9311971E
:10269000138612868C9181508C93DF91CF9108958F
:1026A0009093BD1A8093BC1A31E1FC0130833197BD
:1026B00022E22083FC013297A3E3A083FC0133973D
:1026C0006083FC0134977083FC0135971082FC0114
:1026D000369760E86083FC0137971082FC013897D9
:1026E00062E06083FC01399763E06083FC013A9704
:1026F00064E06083FC013B9765E06083FC013C97EC
:1027000066E06083FC013D9767E06083FC013E97D3
:1027100068E06083FC013F9769E06083FC0170978B
:1027200060E16083FC0171973083FC01729732E1B4
:102730003083FC01739733E13083FC01749734E1FB
:102740003083FC01759735E13083FC01769736E1E3
:102750003083FC01779737E13083FC01789738E1CB
:102760003083FC01799739E13083FC017A9730E2BC
:102770003083FC017B9731E23083FC017C9720831E
:10278000FC017D9723E22083FC017E974083FC01BE
:102790007F975083FC01B09726E22083FC01B1971C
:1027A00027E22083FC01B29728E22083FC01B39743
:1027B00029E22083FC01B49720E32083FC01B59734
:1027C00021E320838697089587E0809329018FEC89
:1027D000809328018AE080932101E3E7F0E0808183
:1027E00082608083A0910A03B0910B03CD91CDBF8D
:1027F000DD91DEBFFF91EF91DF91CF91BF91AF915E
:102800009F918F917F916F915F914F913F912F9108
:102810001F910F91FF90EF90DF90CF90BF90AF90FE
:102820009F908F907F906F905F904F903F902F90F0
:102830001F900F900FBE0F90089581E008950895A6
:102840000F920FB6F8940F921F9211242F923F927D
:102850004F925F926F927F928F929F92AF92BF92B0
:10286000CF92DF92EF92FF920F931F932F933F939C
:102870004F935F936F937F938F939F93AF93BF9388
:10288000CF93DF93EF93FF93A0910A03B0910B03D3
:102890000DB60D920EB60D920E948B08A0910A0300
:1028A000B0910B03CD91CDBFDD91DEBFFF91EF91D4
:1028B000DF91CF91BF91AF919F918F917F916F9158
:1028C0005F914F913F912F911F910F91FF90EF904A
:1028D000DF90CF90BF90AF909F908F907F906F9040
:1028E0005F904F903F902F901F900F900FBE0F90D2
:1028F00008950F920FB6F8940F921F9211242F9201
:102900003F924F925F926F927F928F929F92AF927F
:10291000BF92CF92DF92EF92FF920F931F932F936C
:102920003F934F935F936F937F938F939F93AF9357
:10293000BF93CF93DF93EF93FF93A0910A03B091DE
:102940000B030DB60D920EB60D920E947806811102
:102950000E948B08A0910A03B0910B03CD91CDBFCB
:10296000DD91DEBFFF91EF91DF91CF91BF91AF91EC
:102970009F918F917F916F915F914F913F912F9197
:102980001F910F91FF90EF90DF90CF90BF90AF908D
:102990009F908F907F906F905F904F903F902F907F
:1029A0001F900F900FBE0F9008950E9479141895F4
:1029B0001F93CF93DF93EC01142F88A181110DC0D9
:1029C00088819981892B09F44DC080E09E8D9F5F9D
:1029D0009E8FDF91CF911F910895482F50E01111E4
:1029E0001CC08C819D810E94AB1B28A18C819D8184
:1029F000820F911D9D838C832A813B8182179307CF
:102A000020F3888199819D838C8380E09E8D9F5FD8
:102A10009E8FDF91CF911F9108958E819F810E949B
:102A2000AB1B28A130E03195219531098E819F8122
:102A3000820F931F9F838E83688179818617970702
:102A400030F48A819B81820F931F9F838E83123083
:102A500009F0BBCF8E8D882309F4B7CF8E8D8150BE
:102A60008E8FB3CF8A819B810E94A70A1B821A8214
:102A7000ADCFFC01CB0140A1442399F050E0268169
:102A80003781240F351F3783268362817381261790
:102A9000370720F02081318137832683B9010C94D8
:102AA000AB1B08950F931F93CF93DF93EC010FB6E9
:102AB000F8940F928AA11816ECF48B898823D1F030
:102AC0008E010D5E1F4F09C08AA181508AA38AA181
:102AD000181684F48B89882369F0C8010E94330991
:102AE000882391F30E94270A8AA181508AA38AA190
:102AF000181684F38FEF8AA30F900FBE0FB6F894C9
:102B00000F9289A11816ECF488858823D1F08E01E4
:102B1000085F1F4F09C089A1815089A389A1181698
:102B200084F48885882369F0C8010E9433098823CA
:102B300091F30E94270A89A1815089A389A11816BF
:102B400084F38FEF89A30F900FBEDF91CF911F9178
:102B50000F910895CF93DF93EC010FB6F8940F9285
:102B6000288139818F8D78A1879FC0011124A90107
:102B7000480F591F5B834A831E8E3D832C83871B1E
:102B80009109820F931F9F838E838FEF89A38AA35E
:102B9000611112C08885811106C00F900FBE81E0BF
:102BA000DF91CF910895CE0108960E9433098130BC
:102BB000A1F70E942014F1CFCE0108960E94B11215
:102BC000CE0143960E94B1120F900FBE81E0DF91BB
:102BD000CF9108950F931F93CF93DF93182F062F54
:102BE000882301F183E290E00E94E711EC01009755
:102BF000C9F0109FC001112401960E94E71199832A
:102C00008883892B61F01F8F08A361E0CE010E94A9
:102C1000AA15CE01DF91CF911F910F910895CE019A
:102C20000E948012C0E0D0E0CE01DF91CF911F91D1
:102C30000F9108956F927F928F929F92AF92BF9261
:102C4000CF92DF92EF92FF920F93CF93DF93CDB7A6
:102C5000DEB729970FB6F894DEBF0FBECDBF5C017B
:102C60004B012E833F834887598720E03C0188E051
:102C7000680E711C0FB6F8940F92F501968D878D32
:102C8000981708F459C0023009F456C0CE80DF808E
:102C9000E884F984CD28CE28CF2809F46FC02223F8
:102CA00009F441C00F900FBE0E9449060FB6F89478
:102CB0000F92F50181A18F3F09F43CC0F50182A17B
:102CC0008F3FB1F10F900FBEBE016A5F7F4FCE0103
:102CD00001960E94C609811155C00FB6F8940F9253
:102CE000F501968D0F900FBEF501878D981314C0D6
:102CF0004E815F8168857985C3010E94D808C5012E
:102D00000E9452150E947C07882311F021E0B2CF67
:102D10000E94201421E0AECFC5010E9452150E94EE
:102D20007C0721E0A7CFCE0101960E94B509BACF5A
:102D300012A2C8CF11A2C2CF402FB401C5010E9478
:102D4000D814F5019389911124C0811128C00F90E6
:102D50000FBE81E029960FB6F894DEBF0FBECDBF3F
:102D6000DF91CF910F91FF90EF90DF90CF90BF90C8
:102D7000AF909F908F907F906F9008950F900FBEAF
:102D800080E0E8CFC5010E9452150E947C0780E0D8
:102D9000E1CFC50143960E9433098130C1F60E94FC
:102DA0002014D5CF0F93CF93DF9383E290E00E945E
:102DB000E711EC01009701F11B821A821982188237
:102DC0001D821C821F821E821E8E81E08F8F18A2A0
:102DD0008FEF89A38AA3CE0108960E94B112CE017B
:102DE00043960E94B11200E020E030E0A90160E0CB
:102DF00070E0CE010E941A16CE01DF91CF910F91A3
:102E000008950F931F93CF93DF93EC018A019E8D5A
:102E10008F8D981740F0223031F080E0DF91CF9114
:102E20001F910F910895422FCE010E94D81488233C
:102E300031F00115110519F081E0F80180838AA1B4
:102E40008F3F49F08AA18F5F8AA381E0DF91CF9104
:102E50001F910F9108958B898823B9F3CE01439672
:102E60000E943309882389F30115110571F381E06C
:102E7000F8018083D3CFAF92BF92CF92DF92EF92CF
:102E8000FF920F93CF93DF93CDB7DEB729970FB69D
:102E9000F894DEBF0FBECDBF7C016B012E833F8354
:102EA0004887598790E0570183E1A80EB11C0FB6FF
:102EB000F8940F92F701868D811169C04E815F8170
:102EC00068857985452B462B472B09F47DC09923CE
:102ED00009F43EC00F900FBE0E9449060FB6F89449
:102EE0000F92F70181A18F3F09F43EC0F70182A143
:102EF0008F3F09F43FC00F900FBEBE016A5F7F4F46
:102F0000CE0101960E94C609811171C00FB6F894D6
:102F10000F92F701868D0F900FBE81111EC0F70131
:102F200080819181892B41F14E815F81688579850E
:102F3000C5010E94D808C7010E9452150E947C0753
:102F4000882311F091E0B3CF0E94201491E0AFCF1D
:102F5000CE0101960E94B509BDCFC7010E9452154E
:102F60000E947C0791E0A3CF11A2F70182A18F3FBD
:102F700009F0C1CF12A2BFCF0FB6F8940F92F7019C
:102F8000828193810E944C0A0F900FBECDCFA68004
:102F9000B780B601C7010E943915F70101112EC093
:102FA000868D8150868F80819181892BB9F1F701BF
:102FB0008085882341F1C70108960E94330981303A
:102FC00011F50E9420141FC00F900FBE80E02996BB
:102FD0000FB6F894DEBF0FBECDBFDF91CF910F913A
:102FE000FF90EF90DF90CF90BF90AF900895C70112
:102FF0000E9452150E947C0780E0E9CFB782A6822A
:103000008389811104C00F900FBE81E0E0CFC7011A
:1030100043960E9433098823B1F3D3CF0E940E0B4D
:10302000F70193838283C3CF0F931F93CF93DF93D3
:1030300000D0CDB7DEB78C01FC01868D811108C0B0
:1030400080E00F900F90DF91CF911F910F91089525
:10305000C80149835A830E943915F801868D815031
:10306000868F81A149815A818F3F61F0F80181A14A
:103070008F5F81A381E00F900F90DF91CF911F911F
:103080000F91089580858823A9F3C8010896498384
:103090005A830E94330949815A81882359F3411583
:1030A000510541F381E0FA018083CBCF0F931F9349
:1030B000CF93DF93EC018E8D811106C080E0DF910C
:1030C000CF911F910F9108950E811F81CE010E9413
:1030D00039151F830E8381E0DF91CF911F910F91EE
:1030E00008950FB6F8940F92FC01868D0F900FBED5
:1030F00008950FB6F8940F92FC01268D0F900FBE25
:10310000FC01878D821B0895FC01868D0895CF9365
:10311000DF93EC0188819981009711F00E94801261
:10312000CE01DF91CF910C948012FC01968D81E04D
:10313000911180E00895FC01268D81E0978D29137F
:1031400080E00895EF92FF920F931F93CF93DF9348
:1031500000D0CDB7DEB77C0185E093E0F701918325
:10316000808361157105C1F0FB0101900020E9F732
:103170003197E61BED3020F50E2F10E0C8010196C7
:1031800069837A830E940D0EF70195838483A801D9
:1031900069817A810E94C41B8091BA1A9091BB1AEE
:1031A000F70197838683F092BB1AE092BA1A0F90C8
:1031B0000F90DF91CF911F910F91FF90EF900895A5
:1031C000ECE0DACF0F931F93CF93DF93EC01809164
:1031D000BA1A9091BB1A6BE0892B49F1CE010E947B
:1031E000820E8C016EE172E00E943D0E66E0C80125
:1031F0000E94820E6BE0CE010E94820E8C016BEF6A
:1032000071E00E943D0E66E0C8010E94820E80912E
:10321000BA1A9091BB1ADC01ED91FC910190F081FA
:10322000E02DBE01DF91CF911F910F910994CE0146
:103230000E94820EEC016DED71E00E943D0E66E091
:10324000CE01DF91CF911F910F910C94820ECF93FD
:10325000DF93EC01442309F441C08EEC90E09983A4
:10326000888388EC90E09B838A8389EC90E09D833F
:103270008C8388E18093C90086E08093CA00109215
:10328000CD009B0140E050E0220F331F441F551F2B
:10329000220F331F441F551F220F331F441F551F7A
:1032A000220F331F441F551F60E074E284EF90E04B
:1032B0000E948D1A2093CC008091C8008160809379
:1032C000C80080E28E8380E88F8380E48887E8816D
:1032D000F98180818081DF91CF91089586EC90E023
:1032E0009983888380EC90E09B838A8381EC90E0D3
:1032F0009D838C8388E18093C10086E08093C20027
:103300001092C5009B0140E050E0220F331F441F84
:10331000551F220F331F441F551F220F331F441FF9
:10332000551F220F331F441F551F60E074E284EFC6
:1033300090E00E948D1A2093C4008091C0008160AB
:103340008093C000BECFDC011296ED91FC911397E3
:10335000208116968C91282381E009F480E008955D
:10336000DC011296ED91FC911397208118968C91B7
:10337000282381E009F080E00895CF92DF92EF9258
:10338000FF920F931F93CF93DF9314BE88E10FB684
:10339000F89480936000109260000FBE80E190E08E
:1033A0000E94060EEC0141E060E875E20E945B10AD
:1033B00067E0CE010E94820E6BE00E94820E7C01CB
:1033C00064EE70E00E943D0E66E0C7010E94820E2E
:1033D00088E190E00E94060E6C011AE0E12EF12CCB
:1033E00000E010E09E014DE052E060E270E0C601B6
:1033F0000E94C10DD0920903C09208038EE090E0B4
:103400000E94060E7C01BE010E94A80163E172E0E9
:10341000CE010E943D0E66E0CE010E94820E8BE33B
:1034200090E00E94060E8E0128E131E044E069E15F
:1034300072E00E94D1010E940C0680E090E0DF91D2
:10344000CF911F910F91FF90EF90DF90CF90089553
:103450000E94C70B0F93CF93DF931F92CDB7DEB7B8
:103460006983FC01208931894289538900E0BE01CA
:103470006F5F7F4F868597850E941A160F90DF91A8
:10348000CF910F910895FC01868597850E94711850
:1034900091E0811101C090E0892F08950F93CF939F
:1034A000DF931F92CDB7DEB700E02FEF3FEFA9010A
:1034B000BE016F5F7F4FFC01868597850E943B1799
:1034C000813031F489810F90DF91CF910F91089570
:1034D0008FEFF9CFA29FB001B39FC001A39F700DE2
:1034E000811D1124911DB29F700D811D1124911D0C
:1034F0000895AA1BBB1B51E107C0AA1FBB1FA6173B
:10350000B70710F0A61BB70B881F991F5A95A9F78C
:1035100080959095BC01CD010895A1E21A2EAA1BB9
:10352000BB1BFD010DC0AA1FBB1FEE1FFF1FA21773
:10353000B307E407F50720F0A21BB30BE40BF50B70
:10354000661F771F881F991F1A9469F760957095F9
:10355000809590959B01AC01BD01CF010895EE0FC0
:10356000FF1F0590F491E02D09940CD0BAC0B2D0A1
:1035700040F0A9D030F021F45F3F19F09BC0511109
:10358000E4C09EC0BFD098F39923C9F35523B1F38B
:10359000951B550BBB27AA2762177307840738F0C2
:1035A0009F5F5F4F220F331F441FAA1FA9F333D021
:1035B0000E2E3AF0E0E830D091505040E695001CD5
:1035C000CAF729D0FE2F27D0660F771F881FBB1F91
:1035D000261737074807AB07B0E809F0BB0B802D6B
:1035E000BF01FF2793585F4F2AF09E3F510568F0B7
:1035F00061C0ABC05F3FECF3983EDCF386957795F6
:103600006795B795F7959F5FC9F7880F911D9695B8
:10361000879597F90895E1E0660F771F881FBB1F14
:10362000621773078407BA0720F0621B730B840BC1
:10363000BA0BEE1F88F7E0950895E89409C097FB50
:103640003EF490958095709561957F4F8F4F9F4F79
:103650009923A9F0F92F96E9BB279395F6958795BD
:1036600077956795B795F111F8CFFAF4BB0F11F480
:1036700060FF1BC06F5F7F4F8F4F9F4F16C0882327
:1036800011F096E911C0772321F09EE8872F762F5D
:1036900005C0662371F096E8862F70E060E02AF09E
:1036A0009A95660F771F881FDAF7880F969587958A
:1036B00097F9089597F99F6780E870E060E00895B2
:1036C0009FEF80EC089500240A941616170618063A
:1036D0000906089500240A94121613061406050616
:1036E0000895092E0394000C11F4882352F0BB0FA7
:1036F00040F4BF2B11F460FF04C06F5F7F4F8F4F0A
:103700009F4F089557FD9058440F551F59F05F3F44
:1037100071F04795880F97FB991F61F09F3F79F0F3
:1037200087950895121613061406551FF2CF469575
:10373000F1DF08C0161617061806991FF1CF8695F7
:103740007105610508940895E894BB2766277727DB
:10375000CB0197F90895FB01DC0102C001900D92A5
:1037600041505040D8F70895DC0101C06D9341509D
:103770005040E0F70895FB01DC018D910190801924
:103780000110D9F3990B0895FB01DC014150504021
:1037900048F001900D920020C9F701C01D924150E0
:1037A0005040E0F70895FA01CF93FF93EF93223052
:1037B000CCF02532BCF4C22F2C2F332744275527B9
:1037C000FF93EF930E948D1AEF91FF91605D6A3332
:1037D0000CF0695D6193B901CA016050704080408E
:1037E000904051F710828F919F91CF910C940E1CB5
:1037F000FB019F01423074F0453264F4642F772757
:103800000E94791A805D8A330CF0895D8193CB0127
:103810000097A1F71082C9010C940E1CDC01FC0179
:10382000672F71917723E1F7329704C07C916D93F4
:1038300070836291AE17BF07C8F30895F894FFCF65
:103840005F41434B00FFFFFFFF0A033717507269C8
:103850006E740048656C6C6F007472616E73004327
:1038600068616E6E656C3A2000204552524F523AA4
:1038700020006275663A20004275666665725B00DC
:103880005D3A20005061796C6F6164205265636518
:1038900069766564005265633A200050616972651B
:1038A000642021005F44525600496E2044726976BC
:1038B0006520210053656E740000000000F602FDD3
:1038C0000B49444C450000000000220EFD0B7478AB
:1038D000745F71090000000000230E2A1A431A4E7B
:1038E0001A290E2A0E480DFAFF0000030E000000F0
:1038F00000230E220E270E250E290E2A0E00000090
:1039000000230ECA0F3C10EC0F290E3410416E61DB
:103910006C6F672F4469676974616C20436F6E76C2
:103920006572746572205375636365737366756C35
:103930006C7920696E697469616C697A65642E209E
:083940000000000000220E004F
:00000001FF
